{
  "contractName": "AssetPrice",
  "abi": [
    {
      "inputs": [],
      "payable": false,
      "stateMutability": "nonpayable",
      "type": "constructor"
    },
    {
      "anonymous": false,
      "inputs": [
        {
          "indexed": true,
          "internalType": "address",
          "name": "previousValue",
          "type": "address"
        },
        {
          "indexed": true,
          "internalType": "address",
          "name": "newValue",
          "type": "address"
        }
      ],
      "name": "ManagerChanged",
      "type": "event"
    },
    {
      "anonymous": false,
      "inputs": [
        {
          "indexed": true,
          "internalType": "uint256",
          "name": "previousValue",
          "type": "uint256"
        },
        {
          "indexed": true,
          "internalType": "uint256",
          "name": "newValue",
          "type": "uint256"
        }
      ],
      "name": "MaxDelayTimeChanged",
      "type": "event"
    },
    {
      "anonymous": false,
      "inputs": [
        {
          "indexed": true,
          "internalType": "bytes32",
          "name": "asset",
          "type": "bytes32"
        },
        {
          "indexed": true,
          "internalType": "address",
          "name": "previousValue",
          "type": "address"
        },
        {
          "indexed": true,
          "internalType": "address",
          "name": "newValue",
          "type": "address"
        }
      ],
      "name": "OracleChanged",
      "type": "event"
    },
    {
      "anonymous": false,
      "inputs": [
        {
          "indexed": true,
          "internalType": "bytes32",
          "name": "asset",
          "type": "bytes32"
        },
        {
          "indexed": true,
          "internalType": "address",
          "name": "previousValue",
          "type": "address"
        }
      ],
      "name": "OracleRemoved",
      "type": "event"
    },
    {
      "anonymous": false,
      "inputs": [
        {
          "indexed": true,
          "internalType": "address",
          "name": "previousValue",
          "type": "address"
        },
        {
          "indexed": true,
          "internalType": "address",
          "name": "newValue",
          "type": "address"
        }
      ],
      "name": "OwnerChanged",
      "type": "event"
    },
    {
      "constant": true,
      "inputs": [],
      "name": "contractName",
      "outputs": [
        {
          "internalType": "string",
          "name": "",
          "type": "string"
        }
      ],
      "payable": false,
      "stateMutability": "view",
      "type": "function"
    },
    {
      "constant": true,
      "inputs": [],
      "name": "manager",
      "outputs": [
        {
          "internalType": "address",
          "name": "",
          "type": "address"
        }
      ],
      "payable": false,
      "stateMutability": "view",
      "type": "function"
    },
    {
      "constant": true,
      "inputs": [],
      "name": "maxDelayTime",
      "outputs": [
        {
          "internalType": "uint256",
          "name": "",
          "type": "uint256"
        }
      ],
      "payable": false,
      "stateMutability": "view",
      "type": "function"
    },
    {
      "constant": true,
      "inputs": [],
      "name": "owner",
      "outputs": [
        {
          "internalType": "address",
          "name": "",
          "type": "address"
        }
      ],
      "payable": false,
      "stateMutability": "view",
      "type": "function"
    },
    {
      "constant": false,
      "inputs": [
        {
          "internalType": "address",
          "name": "_manager",
          "type": "address"
        }
      ],
      "name": "setManager",
      "outputs": [],
      "payable": false,
      "stateMutability": "nonpayable",
      "type": "function"
    },
    {
      "constant": false,
      "inputs": [
        {
          "internalType": "address",
          "name": "_owner",
          "type": "address"
        }
      ],
      "name": "setOwner",
      "outputs": [],
      "payable": false,
      "stateMutability": "nonpayable",
      "type": "function"
    },
    {
      "constant": false,
      "inputs": [
        {
          "internalType": "bytes32",
          "name": "asset",
          "type": "bytes32"
        },
        {
          "internalType": "address",
          "name": "oracle",
          "type": "address"
        }
      ],
      "name": "setOracle",
      "outputs": [],
      "payable": false,
      "stateMutability": "nonpayable",
      "type": "function"
    },
    {
      "constant": false,
      "inputs": [
        {
          "internalType": "bytes32",
          "name": "asset",
          "type": "bytes32"
        }
      ],
      "name": "removeOracle",
      "outputs": [],
      "payable": false,
      "stateMutability": "nonpayable",
      "type": "function"
    },
    {
      "constant": false,
      "inputs": [
        {
          "internalType": "uint256",
          "name": "time",
          "type": "uint256"
        }
      ],
      "name": "setMaxDelayTime",
      "outputs": [],
      "payable": false,
      "stateMutability": "nonpayable",
      "type": "function"
    },
    {
      "constant": true,
      "inputs": [
        {
          "internalType": "bytes32",
          "name": "asset",
          "type": "bytes32"
        }
      ],
      "name": "getPriceFromOracle",
      "outputs": [
        {
          "internalType": "uint256",
          "name": "round",
          "type": "uint256"
        },
        {
          "internalType": "uint256",
          "name": "price",
          "type": "uint256"
        },
        {
          "internalType": "uint256",
          "name": "time",
          "type": "uint256"
        }
      ],
      "payable": false,
      "stateMutability": "view",
      "type": "function"
    },
    {
      "constant": true,
      "inputs": [
        {
          "internalType": "bytes32",
          "name": "asset",
          "type": "bytes32"
        }
      ],
      "name": "getPrice",
      "outputs": [
        {
          "internalType": "uint256",
          "name": "",
          "type": "uint256"
        }
      ],
      "payable": false,
      "stateMutability": "view",
      "type": "function"
    },
    {
      "constant": true,
      "inputs": [
        {
          "internalType": "bytes32[]",
          "name": "assets",
          "type": "bytes32[]"
        }
      ],
      "name": "getPrices",
      "outputs": [
        {
          "internalType": "uint256[]",
          "name": "",
          "type": "uint256[]"
        }
      ],
      "payable": false,
      "stateMutability": "view",
      "type": "function"
    },
    {
      "constant": true,
      "inputs": [
        {
          "internalType": "bytes32",
          "name": "asset",
          "type": "bytes32"
        }
      ],
      "name": "getPriceAndStatus",
      "outputs": [
        {
          "internalType": "uint256",
          "name": "",
          "type": "uint256"
        },
        {
          "internalType": "uint256",
          "name": "",
          "type": "uint256"
        }
      ],
      "payable": false,
      "stateMutability": "view",
      "type": "function"
    },
    {
      "constant": true,
      "inputs": [
        {
          "internalType": "bytes32[]",
          "name": "assets",
          "type": "bytes32[]"
        }
      ],
      "name": "getPricesAndStatus",
      "outputs": [
        {
          "internalType": "uint256[]",
          "name": "",
          "type": "uint256[]"
        },
        {
          "internalType": "uint256[]",
          "name": "",
          "type": "uint256[]"
        }
      ],
      "payable": false,
      "stateMutability": "view",
      "type": "function"
    }
  ],
  "bytecode": "0x6080604052610e106004553480156200001757600080fd5b5060018054336001600160a01b0319918216811790925560028054909116909117905562000052694173736574507269636560b01b62000058565b6200012e565b60408051602080820184905282518083038201815291830190925280516200008592600092019062000089565b5050565b828054600181600116156101000203166002900490600052602060002090601f016020900481019282601f10620000cc57805160ff1916838001178555620000fc565b82800160010185558215620000fc579182015b82811115620000fc578251825591602001919060010190620000df565b506200010a9291506200010e565b5090565b6200012b91905b808211156200010a576000815560010162000115565b90565b611540806200013e6000396000f3fe608060405234801561001057600080fd5b50600436106100ba5760003560e01c806313af4035146100bf57806326ee4836146100e757806331d98b3f146101d85780633902ca6114610207578063481c6a751461023d5780635ea8dffb146102615780636e2eb5121461028d57806371bb238e146102aa57806375d0c0dc146102c75780638da5cb5b14610344578063c519a3c91461034c578063d0ebdbe714610387578063f56c8547146103ad578063fea227d4146103b5575b600080fd5b6100e5600480360360208110156100d557600080fd5b50356001600160a01b03166104ef565b005b610188600480360360208110156100fd57600080fd5b810190602081018135600160201b81111561011757600080fd5b82018360208201111561012957600080fd5b803590602001918460208302840111600160201b8311171561014a57600080fd5b919080806020026020016040519081016040528093929190818152602001838360200280828437600092019190915250929550610797945050505050565b60408051602080825283518183015283519192839290830191858101910280838360005b838110156101c45781810151838201526020016101ac565b505050509050019250505060405180910390f35b6101f5600480360360208110156101ee57600080fd5b50356107ab565b60408051918252519081900360200190f35b6102246004803603602081101561021d57600080fd5b50356107b3565b6040805192835260208301919091528051918290030190f35b610245610951565b604080516001600160a01b039092168252519081900360200190f35b6100e56004803603604081101561027757600080fd5b50803590602001356001600160a01b0316610960565b6100e5600480360360208110156102a357600080fd5b5035610a9b565b6100e5600480360360208110156102c057600080fd5b5035610bca565b6102cf610ce2565b6040805160208082528351818301528351919283929083019185019080838360005b838110156103095781810151838201526020016102f1565b50505050905090810190601f1680156103365780820380516001836020036101000a031916815260200191505b509250505060405180910390f35b610245610d70565b6103696004803603602081101561036257600080fd5b5035610d7f565b60408051938452602084019290925282820152519081900360600190f35b6100e56004803603602081101561039d57600080fd5b50356001600160a01b0316610ed4565b6101f56110ef565b610456600480360360208110156103cb57600080fd5b810190602081018135600160201b8111156103e557600080fd5b8201836020820111156103f757600080fd5b803590602001918460208302840111600160201b8311171561041857600080fd5b9190808060200260200160405190810160405280939291908181526020018383602002808284376000920191909152509295506110f5945050505050565b604051808060200180602001838103835285818151815260200191508051906020019060200280838360005b8381101561049a578181015183820152602001610482565b50505050905001838103825284818151815260200191508051906020019060200280838360005b838110156104d95781810151838201526020016104c1565b5050505090500194505050505060405180910390f35b60018054604080518082018252601981526000805160206114ab833981519152602080830191909152600080548451600261010098831615989098026000190190911696909604601f81018390048302870183019094528386526001600160a01b039094163314946105c49492939092918301828280156105b15780601f10610586576101008083540402835291602001916105b1565b820191906000526020600020905b81548152906001019060200180831161059457829003601f168201915b50505050506112a890919063ffffffff16565b9061064d5760405162461bcd60e51b81526004018080602001828103825283818151815260200191508051906020019080838360005b838110156106125781810151838201526020016105fa565b50505050905090810190601f16801561063f5780820380516001836020036101000a031916815260200191505b509250505060405180910390fd5b50604080518082018252601f8082527f3a206e6577206f776e657220697320746865207a65726f206164647265737300602080840191909152600080548551600260001961010060018516150201909216919091049384018390048302810183019095528285526001600160a01b0386161515946106ee949390928301828280156105b15780601f10610586576101008083540402835291602001916105b1565b9061073a5760405162461bcd60e51b81526020600482018181528351602484015283519092839260449091019190850190808383600083156106125781810151838201526020016105fa565b506001546040516001600160a01b038084169216907fb532073b38c83145e3e5135377a08bf9aab55bc0fd7c1179cd4fb995d2a5159c90600090a3600180546001600160a01b0319166001600160a01b0392909216919091179055565b6060806107a3836110f5565b509392505050565b6000806107a3835b600080631e5554d160e21b8314806107d1575082631554d11560e21b145b156107e95750670de0b6b3a76400009050600061094c565b6000806107f585610d7f565b9250925050600082116108d96040518060400160405280601481526020017301d10283934b1b29034b9903d32b937902337b9160651b8152508760008054600181600116156101000203166002900480601f0160208091040260200160405190810160405280929190818152602001828054600181600116156101000203166002900480156108c55780601f1061089a576101008083540402835291602001916108c5565b820191906000526020600020905b8154815290600101906020018083116108a857829003601f168201915b50505050506113639092919063ffffffff16565b906109255760405162461bcd60e51b81526020600482018181528351602484015283519092839260449091019190850190808383600083156106125781810151838201526020016105fa565b5060045442038082101561094257509092506001915061094c9050565b5090925060009150505b915091565b6002546001600160a01b031681565b60018054604080518082018252601981526000805160206114ab833981519152602080830191909152600080548451600261010098831615989098026000190190911696909604601f81018390048302870183019094528386526001600160a01b039094163314946109f79492939092918301828280156105b15780601f10610586576101008083540402835291602001916105b1565b90610a435760405162461bcd60e51b81526020600482018181528351602484015283519092839260449091019190850190808383600083156106125781810151838201526020016105fa565b50806001600160a01b0316610a578361141c565b6001600160a01b0316837fffaab7bfd4c24267948958cc1dec10900dd71073248da9e3e4cfd274a0490bf560405160405180910390a4610a978282611444565b5050565b60018054604080518082018252601981526000805160206114ab833981519152602080830191909152600080548451600261010098831615989098026000190190911696909604601f81018390048302870183019094528386526001600160a01b03909416331494610b329492939092918301828280156105b15780601f10610586576101008083540402835291602001916105b1565b90610b7e5760405162461bcd60e51b81526020600482018181528351602484015283519092839260449091019190850190808383600083156106125781810151838201526020016105fa565b50610b888161141c565b6001600160a01b0316817fa69709ef8582cb75d44d08e318fd90f7368d781e645af3e2788ca761606dab0b60405160405180910390a3610bc78161147f565b50565b60018054604080518082018252601981526000805160206114ab833981519152602080830191909152600080548451600261010098831615989098026000190190911696909604601f81018390048302870183019094528386526001600160a01b03909416331494610c619492939092918301828280156105b15780601f10610586576101008083540402835291602001916105b1565b90610cad5760405162461bcd60e51b81526020600482018181528351602484015283519092839260449091019190850190808383600083156106125781810151838201526020016105fa565b506004546040518291907f80796916b7785004b191602bd839776969d772f6dad6249b9ecea028c196ad4a90600090a3600455565b6000805460408051602060026001851615610100026000190190941693909304601f81018490048402820184019092528181529291830182828015610d685780601f10610d3d57610100808354040283529160200191610d68565b820191906000526020600020905b815481529060010190602001808311610d4b57829003601f168201915b505050505081565b6001546001600160a01b031681565b600080600080610d8e8561141c565b604080518082018252600a8152694173736574507269636560b01b6020808301919091528251808401909352601583527401d1026b4b9b9b4b7339027b930b1b632902337b91605d1b908301529192506001600160a01b038316151590610dfd9083908963ffffffff61136316565b90610e495760405162461bcd60e51b81526020600482018181528351602484015283519092839260449091019190850190808383600083156106125781810151838201526020016105fa565b50816001600160a01b03166331d98b3f876040518263ffffffff1660e01b81526004018082815260200191505060606040518083038186803b158015610e8e57600080fd5b505afa158015610ea2573d6000803e3d6000fd5b505050506040513d6060811015610eb857600080fd5b5080516020820151604090920151909891975095509350505050565b60018054604080518082018252601981526000805160206114ab833981519152602080830191909152600080548451600261010098831615989098026000190190911696909604601f81018390048302870183019094528386526001600160a01b03909416331494610f6b9492939092918301828280156105b15780601f10610586576101008083540402835291602001916105b1565b90610fb75760405162461bcd60e51b81526020600482018181528351602484015283519092839260449091019190850190808383600083156106125781810151838201526020016105fa565b5060006001600160a01b0316816001600160a01b031614156110466040518060600160405280602181526020016114cb602191396000805460408051602060026001851615610100026000190190941693909304601f810184900484028201840190925281815292918301828280156105b15780601f10610586576101008083540402835291602001916105b1565b906110925760405162461bcd60e51b81526020600482018181528351602484015283519092839260449091019190850190808383600083156106125781810151838201526020016105fa565b506002546040516001600160a01b038084169216907f605c2dbf762e5f7d60a546d42e7205dcb1b011ebc62a61736a57c9089d3a435090600090a3600280546001600160a01b0319166001600160a01b0392909216919091179055565b60045481565b805160408051808201825260208082527f3a2063616e6e6f742068617665206d6f7265207468616e203230206974656d738183015260008054845160026001831615610100026000190190921691909104601f8101849004840282018401909552848152606095869560149091109461119294909391908301828280156105b15780601f10610586576101008083540402835291602001916105b1565b906111de5760405162461bcd60e51b81526020600482018181528351602484015283519092839260449091019190850190808383600083156106125781810151838201526020016105fa565b506060835160405190808252806020026020018201604052801561120c578160200160208202803883390190505b5090506060845160405190808252806020026020018201604052801561123c578160200160208202803883390190505b50905060005b855181101561129d5761126786828151811061125a57fe5b60200260200101516107b3565b84838151811061127357fe5b6020026020010184848151811061128657fe5b602090810291909101019190915252600101611242565b509092509050915091565b606082826040516020018083805190602001908083835b602083106112de5780518252601f1990920191602091820191016112bf565b51815160209384036101000a600019018019909216911617905285519190930192850191508083835b602083106113265780518252601f199092019160209182019101611307565b6001836020036101000a03801982511681845116808217855250505050505090500192505050604051602081830303815290604052905092915050565b60608383836040516020018084805190602001908083835b6020831061139a5780518252601f19909201916020918201910161137b565b51815160209384036101000a600019018019909216911617905286519190930192860191508083835b602083106113e25780518252601f1990920191602091820191016113c3565b51815160209384036101000a6000190180199092169116179052920193845250604080518085038152939091019052509695505050505050565b60009081526000805160206114ec83398151915260205260409020546001600160a01b031690565b60009182526000805160206114ec833981519152602052604090912080546001600160a01b0319166001600160a01b03909216919091179055565b60009081526000805160206114ec8339815191526020526040902080546001600160a01b031916905556fe3a2063616c6c6572206973206e6f7420746865206f776e6572000000000000003a206e6577206d616e6167657220697320746865207a65726f20616464726573737d9a42d98474a1d02586a0326a45710951e3684f92c0ff078081324e45c151c1a265627a7a72315820568f564193e21455f7ee76ebdb30cde7a2a5282eae51f526ff1c69aee7077dd564736f6c63430005110032",
  "source": "// SPDX-License-Identifier: MIT\npragma solidity ^0.5.17;\n\nimport './storages/AddressStorage.sol';\nimport './interfaces/IOracle.sol';\nimport './interfaces/IAssetPrice.sol';\n\ncontract AssetPrice is AddressStorage, IAssetPrice {\n    uint256 public maxDelayTime = 3600;\n\n    constructor() public {\n        setContractName(CONTRACT_ASSET_PRICE);\n    }\n\n    function setOracle(bytes32 asset, address oracle) external onlyOwner {\n        emit OracleChanged(asset, getAddressValue(asset), oracle);\n        setAddressValue(asset, oracle);\n    }\n\n    function removeOracle(bytes32 asset) external onlyOwner {\n        emit OracleRemoved(asset, getAddressValue(asset));\n        removeAddressValue(asset);\n    }\n\n    function setMaxDelayTime(uint256 time) external onlyOwner {\n        emit MaxDelayTimeChanged(maxDelayTime, time);\n        maxDelayTime = time;\n    }\n\n    function getPriceFromOracle(bytes32 asset)\n        public\n        view\n        returns (\n            uint256 round,\n            uint256 price,\n            uint256 time\n        )\n    {\n        address oracleAddress = getAddressValue(asset);\n        string memory errorMessage = 'AssetPrice';\n        require(oracleAddress != address(0), errorMessage.concat(': Missing Oracle For ', asset));\n        (round, price, time) = IOracle(oracleAddress).getPrice(asset);\n    }\n\n    function getPrice(bytes32 asset) public view returns (uint256) {\n        (uint256 price, ) = getPriceAndStatus(asset);\n        return price;\n    }\n\n    function getPrices(bytes32[] memory assets) public view returns (uint256[] memory) {\n        (uint256[] memory prices, ) = getPricesAndStatus(assets);\n        return prices;\n    }\n\n    function getPriceAndStatus(bytes32 asset) public view returns (uint256, uint256) {\n        if (asset == USD || asset == 'USDT') return (1 ether, 0);\n        (, uint256 price, uint256 updateTime) = getPriceFromOracle(asset);\n        require(price > 0, contractName.concat(': Price is zero For ', asset));\n\n        uint256 lastTime = now - maxDelayTime;\n        if (updateTime < lastTime) return (price, 1);\n        return (price, 0);\n    }\n\n    function getPricesAndStatus(bytes32[] memory assets) public view returns (uint256[] memory, uint256[] memory) {\n        require(assets.length < 20, contractName.concat(': cannot have more than 20 items'));\n\n        uint256[] memory prices = new uint256[](assets.length);\n        uint256[] memory status = new uint256[](assets.length);\n        for (uint256 i = 0; i < assets.length; i++) {\n            (prices[i], status[i]) = getPriceAndStatus(assets[i]);\n        }\n        return (prices, status);\n    }\n}\n",
  "sourcePath": "/Users/sun/go/src/github.com/Dipper-Labs/DIPSYN/contracts/AssetPrice.sol",
  "compiler": {
    "name": "solc",
    "version": "0.5.17+commit.d19bba13.Emscripten.clang"
  },
  "schemaVersion": "3.3.4",
  "updatedAt": "2021-04-21T04:08:13.964Z",
  "devdoc": {
    "methods": {}
  },
  "userdoc": {
    "methods": {}
  }
}