{
  "contractName": "ChainLinkOracle",
  "abi": [
    {
      "inputs": [],
      "payable": false,
      "stateMutability": "nonpayable",
      "type": "constructor"
    },
    {
      "anonymous": false,
      "inputs": [
        {
          "indexed": true,
          "internalType": "address",
          "name": "caller",
          "type": "address"
        },
        {
          "indexed": true,
          "internalType": "bytes32",
          "name": "asset",
          "type": "bytes32"
        },
        {
          "indexed": false,
          "internalType": "address",
          "name": "previousValue",
          "type": "address"
        },
        {
          "indexed": false,
          "internalType": "address",
          "name": "newValue",
          "type": "address"
        }
      ],
      "name": "AggregatorChanged",
      "type": "event"
    },
    {
      "anonymous": false,
      "inputs": [
        {
          "indexed": true,
          "internalType": "address",
          "name": "caller",
          "type": "address"
        },
        {
          "indexed": true,
          "internalType": "bytes32",
          "name": "asset",
          "type": "bytes32"
        },
        {
          "indexed": false,
          "internalType": "address",
          "name": "previousValue",
          "type": "address"
        }
      ],
      "name": "AggregatorRemoved",
      "type": "event"
    },
    {
      "anonymous": false,
      "inputs": [
        {
          "indexed": true,
          "internalType": "address",
          "name": "previousValue",
          "type": "address"
        },
        {
          "indexed": true,
          "internalType": "address",
          "name": "newValue",
          "type": "address"
        }
      ],
      "name": "ManagerChanged",
      "type": "event"
    },
    {
      "anonymous": false,
      "inputs": [
        {
          "indexed": true,
          "internalType": "address",
          "name": "previousValue",
          "type": "address"
        },
        {
          "indexed": true,
          "internalType": "address",
          "name": "newValue",
          "type": "address"
        }
      ],
      "name": "OwnerChanged",
      "type": "event"
    },
    {
      "constant": true,
      "inputs": [],
      "name": "contractName",
      "outputs": [
        {
          "internalType": "string",
          "name": "",
          "type": "string"
        }
      ],
      "payable": false,
      "stateMutability": "view",
      "type": "function"
    },
    {
      "constant": true,
      "inputs": [],
      "name": "manager",
      "outputs": [
        {
          "internalType": "address",
          "name": "",
          "type": "address"
        }
      ],
      "payable": false,
      "stateMutability": "view",
      "type": "function"
    },
    {
      "constant": true,
      "inputs": [],
      "name": "owner",
      "outputs": [
        {
          "internalType": "address",
          "name": "",
          "type": "address"
        }
      ],
      "payable": false,
      "stateMutability": "view",
      "type": "function"
    },
    {
      "constant": false,
      "inputs": [
        {
          "internalType": "address",
          "name": "_manager",
          "type": "address"
        }
      ],
      "name": "setManager",
      "outputs": [],
      "payable": false,
      "stateMutability": "nonpayable",
      "type": "function"
    },
    {
      "constant": false,
      "inputs": [
        {
          "internalType": "address",
          "name": "_owner",
          "type": "address"
        }
      ],
      "name": "setOwner",
      "outputs": [],
      "payable": false,
      "stateMutability": "nonpayable",
      "type": "function"
    },
    {
      "constant": false,
      "inputs": [
        {
          "internalType": "bytes32",
          "name": "asset",
          "type": "bytes32"
        },
        {
          "internalType": "address",
          "name": "aggregator",
          "type": "address"
        }
      ],
      "name": "setAggregator",
      "outputs": [],
      "payable": false,
      "stateMutability": "nonpayable",
      "type": "function"
    },
    {
      "constant": false,
      "inputs": [
        {
          "internalType": "bytes32",
          "name": "asset",
          "type": "bytes32"
        }
      ],
      "name": "removeAggregator",
      "outputs": [],
      "payable": false,
      "stateMutability": "nonpayable",
      "type": "function"
    },
    {
      "constant": true,
      "inputs": [
        {
          "internalType": "bytes32",
          "name": "asset",
          "type": "bytes32"
        }
      ],
      "name": "getAggregator",
      "outputs": [
        {
          "internalType": "address",
          "name": "",
          "type": "address"
        }
      ],
      "payable": false,
      "stateMutability": "view",
      "type": "function"
    },
    {
      "constant": true,
      "inputs": [
        {
          "internalType": "bytes32",
          "name": "asset",
          "type": "bytes32"
        }
      ],
      "name": "getPrice",
      "outputs": [
        {
          "internalType": "uint256",
          "name": "round",
          "type": "uint256"
        },
        {
          "internalType": "uint256",
          "name": "price",
          "type": "uint256"
        },
        {
          "internalType": "uint256",
          "name": "time",
          "type": "uint256"
        }
      ],
      "payable": false,
      "stateMutability": "view",
      "type": "function"
    },
    {
      "constant": true,
      "inputs": [
        {
          "internalType": "bytes32",
          "name": "asset",
          "type": "bytes32"
        },
        {
          "internalType": "uint256",
          "name": "round",
          "type": "uint256"
        }
      ],
      "name": "getPrice",
      "outputs": [
        {
          "internalType": "uint256",
          "name": "price",
          "type": "uint256"
        },
        {
          "internalType": "uint256",
          "name": "time",
          "type": "uint256"
        }
      ],
      "payable": false,
      "stateMutability": "view",
      "type": "function"
    }
  ],
  "bytecode": "0x608060405234801561001057600080fd5b5060018054336001600160a01b0319918216811790925560028054909116909117905560408051808201909152600f8082526e436861696e4c696e6b4f7261636c6560881b60209092019182526100699160009161006f565b5061010a565b828054600181600116156101000203166002900490600052602060002090601f016020900481019282601f106100b057805160ff19168380011785556100dd565b828001600101855582156100dd579182015b828111156100dd5782518255916020019190600101906100c2565b506100e99291506100ed565b5090565b61010791905b808211156100e957600081556001016100f3565b90565b610dda806101196000396000f3fe608060405234801561001057600080fd5b506004361061008e5760003560e01c806313af4035146100935780632bed9e0c146100bb57806331d98b3f146100d8578063331b181614610113578063481c6a751461014c57806375d0c0dc146101545780638da5cb5b146101d1578063c755c12c146101d9578063c9280f0614610205578063d0ebdbe714610241575b600080fd5b6100b9600480360360208110156100a957600080fd5b50356001600160a01b0316610267565b005b6100b9600480360360208110156100d157600080fd5b503561050f565b6100f5600480360360208110156100ee57600080fd5b5035610646565b60408051938452602084019290925282820152519081900360600190f35b6101306004803603602081101561012957600080fd5b5035610711565b604080516001600160a01b039092168252519081900360200190f35b610130610722565b61015c610731565b6040805160208082528351818301528351919283929083019185019080838360005b8381101561019657818101518382015260200161017e565b50505050905090810190601f1680156101c35780820380516001836020036101000a031916815260200191505b509250505060405180910390f35b6101306107bf565b6100b9600480360360408110156101ef57600080fd5b50803590602001356001600160a01b03166107ce565b6102286004803603604081101561021b57600080fd5b508035906020013561090e565b6040805192835260208301919091528051918290030190f35b6100b96004803603602081101561025757600080fd5b50356001600160a01b03166109e0565b6001805460408051808201825260198152600080516020610d45833981519152602080830191909152600080548451600261010098831615989098026000190190911696909604601f81018390048302870183019094528386526001600160a01b0390941633149461033c9492939092918301828280156103295780601f106102fe57610100808354040283529160200191610329565b820191906000526020600020905b81548152906001019060200180831161030c57829003601f168201915b5050505050610bfb90919063ffffffff16565b906103c55760405162461bcd60e51b81526004018080602001828103825283818151815260200191508051906020019080838360005b8381101561038a578181015183820152602001610372565b50505050905090810190601f1680156103b75780820380516001836020036101000a031916815260200191505b509250505060405180910390fd5b50604080518082018252601f8082527f3a206e6577206f776e657220697320746865207a65726f206164647265737300602080840191909152600080548551600260001961010060018516150201909216919091049384018390048302810183019095528285526001600160a01b038616151594610466949390928301828280156103295780601f106102fe57610100808354040283529160200191610329565b906104b25760405162461bcd60e51b815260206004820181815283516024840152835190928392604490910191908501908083836000831561038a578181015183820152602001610372565b506001546040516001600160a01b038084169216907fb532073b38c83145e3e5135377a08bf9aab55bc0fd7c1179cd4fb995d2a5159c90600090a3600180546001600160a01b0319166001600160a01b0392909216919091179055565b6001805460408051808201825260198152600080516020610d45833981519152602080830191909152600080548451600261010098831615989098026000190190911696909604601f81018390048302870183019094528386526001600160a01b039094163314946105a69492939092918301828280156103295780601f106102fe57610100808354040283529160200191610329565b906105f25760405162461bcd60e51b815260206004820181815283516024840152835190928392604490910191908501908083836000831561038a578181015183820152602001610372565b5080337f966a1f00b198fe14c6dbf2c63ff642cc68eaffa8e04f5e0d9c06b6fb1e2edf8d61061f83610cb6565b604080516001600160a01b039092168252519081900360200190a361064381610cde565b50565b60008060008061065585610711565b90506001600160a01b03811661067557506000925082915081905061070a565b6000806000836001600160a01b031663feaf968c6040518163ffffffff1660e01b815260040160a06040518083038186803b1580156106b357600080fd5b505afa1580156106c7573d6000803e3d6000fd5b505050506040513d60a08110156106dd57600080fd5b50805160208201516060909201516001600160501b0390911698506402540be40090910296509450505050505b9193909250565b600061071c82610cb6565b92915050565b6002546001600160a01b031681565b6000805460408051602060026001851615610100026000190190941693909304601f810184900484028201840190925281815292918301828280156107b75780601f1061078c576101008083540402835291602001916107b7565b820191906000526020600020905b81548152906001019060200180831161079a57829003601f168201915b505050505081565b6001546001600160a01b031681565b6001805460408051808201825260198152600080516020610d45833981519152602080830191909152600080548451600261010098831615989098026000190190911696909604601f81018390048302870183019094528386526001600160a01b039094163314946108659492939092918301828280156103295780601f106102fe57610100808354040283529160200191610329565b906108b15760405162461bcd60e51b815260206004820181815283516024840152835190928392604490910191908501908083836000831561038a578181015183820152602001610372565b5081337fac951a1e2a4c976076bf9eb28d4db43495c41bf946a8bbb6722f33bff6ba32686108de83610cb6565b604080516001600160a01b03928316815291861660208301528051918290030190a361090a8282610d09565b5050565b600080600061091c85610711565b90506001600160a01b0381166109395750600091508190506109d9565b600080826001600160a01b0316639a6fc8f5876040518263ffffffff1660e01b815260040180826001600160501b03166001600160501b0316815260200191505060a06040518083038186803b15801561099257600080fd5b505afa1580156109a6573d6000803e3d6000fd5b505050506040513d60a08110156109bc57600080fd5b5060208101516060909101516402540be400909102955093505050505b9250929050565b6001805460408051808201825260198152600080516020610d45833981519152602080830191909152600080548451600261010098831615989098026000190190911696909604601f81018390048302870183019094528386526001600160a01b03909416331494610a779492939092918301828280156103295780601f106102fe57610100808354040283529160200191610329565b90610ac35760405162461bcd60e51b815260206004820181815283516024840152835190928392604490910191908501908083836000831561038a578181015183820152602001610372565b5060006001600160a01b0316816001600160a01b03161415610b52604051806060016040528060218152602001610d65602191396000805460408051602060026001851615610100026000190190941693909304601f810184900484028201840190925281815292918301828280156103295780601f106102fe57610100808354040283529160200191610329565b90610b9e5760405162461bcd60e51b815260206004820181815283516024840152835190928392604490910191908501908083836000831561038a578181015183820152602001610372565b506002546040516001600160a01b038084169216907f605c2dbf762e5f7d60a546d42e7205dcb1b011ebc62a61736a57c9089d3a435090600090a3600280546001600160a01b0319166001600160a01b0392909216919091179055565b606082826040516020018083805190602001908083835b60208310610c315780518252601f199092019160209182019101610c12565b51815160209384036101000a600019018019909216911617905285519190930192850191508083835b60208310610c795780518252601f199092019160209182019101610c5a565b6001836020036101000a03801982511681845116808217855250505050505090500192505050604051602081830303815290604052905092915050565b6000908152600080516020610d8683398151915260205260409020546001600160a01b031690565b6000908152600080516020610d868339815191526020526040902080546001600160a01b0319169055565b6000918252600080516020610d86833981519152602052604090912080546001600160a01b0319166001600160a01b0390921691909117905556fe3a2063616c6c6572206973206e6f7420746865206f776e6572000000000000003a206e6577206d616e6167657220697320746865207a65726f20616464726573737d9a42d98474a1d02586a0326a45710951e3684f92c0ff078081324e45c151c1a265627a7a72315820dc33deb9d916c0ea9cea808b8e20af5dfa7d7901e38f99cf895dc4bc136a168064736f6c63430005110032",
  "source": "pragma solidity ^0.5.17;\n\nimport '../storages/AddressStorage.sol';\nimport '../interfaces/IOracle.sol';\nimport '../interfaces/oracles/IChainLinkAggregator.sol';\n\ncontract ChainLinkOracle is AddressStorage, IOracle {\n    event AggregatorChanged(address indexed caller, bytes32 indexed asset, address previousValue, address newValue);\n    event AggregatorRemoved(address indexed caller, bytes32 indexed asset, address previousValue);\n\n    constructor() public {\n        contractName = 'ChainLinkOracle';\n    }\n\n    function setAggregator(bytes32 asset, address aggregator) external onlyOwner {\n        emit AggregatorChanged(msg.sender, asset, getAddressValue(asset), aggregator);\n        setAddressValue(asset, aggregator);\n    }\n\n    function removeAggregator(bytes32 asset) external onlyOwner {\n        emit AggregatorRemoved(msg.sender, asset, getAddressValue(asset));\n        removeAddressValue(asset);\n    }\n\n    function getAggregator(bytes32 asset) public view returns (address) {\n        return getAddressValue(asset);\n    }\n\n    function getPrice(bytes32 asset)\n        external\n        view\n        returns (\n            uint256 round,\n            uint256 price,\n            uint256 time\n        )\n    {\n        address aggregator = getAggregator(asset);\n        if (aggregator == address(0)) return (0, 0, 0);\n        (uint256 roundId, int256 oraclePrice, , uint256 oracleTime, ) =\n            IChainLinkAggregator(aggregator).latestRoundData();\n        return (roundId, uint256(oraclePrice * 1e10), oracleTime);\n    }\n\n    function getPrice(bytes32 asset, uint256 round) external view returns (uint256 price, uint256 time) {\n        address aggregator = getAggregator(asset);\n        if (aggregator == address(0)) return (0, 0);\n        (, int256 oraclePrice, , uint256 oracleTime, ) = IChainLinkAggregator(aggregator).getRoundData(uint80(round));\n        return (uint256(oraclePrice * 1e10), oracleTime);\n    }\n}\n",
  "sourcePath": "/Users/sun/go/src/github.com/Dipper-Labs/DIPSYN/contracts/oracles/ChainLinkOracle.sol",
  "compiler": {
    "name": "solc",
    "version": "0.5.17+commit.d19bba13.Emscripten.clang"
  },
  "schemaVersion": "3.3.4",
  "updatedAt": "2021-04-21T04:08:14.083Z",
  "devdoc": {
    "methods": {}
  },
  "userdoc": {
    "methods": {}
  }
}