{
  "contractName": "ExternalStorable",
  "abi": [
    {
      "anonymous": false,
      "inputs": [
        {
          "indexed": true,
          "internalType": "address",
          "name": "previousValue",
          "type": "address"
        },
        {
          "indexed": true,
          "internalType": "address",
          "name": "newValue",
          "type": "address"
        }
      ],
      "name": "ManagerChanged",
      "type": "event"
    },
    {
      "anonymous": false,
      "inputs": [
        {
          "indexed": true,
          "internalType": "address",
          "name": "previousValue",
          "type": "address"
        },
        {
          "indexed": true,
          "internalType": "address",
          "name": "newValue",
          "type": "address"
        }
      ],
      "name": "OwnerChanged",
      "type": "event"
    },
    {
      "anonymous": false,
      "inputs": [
        {
          "indexed": true,
          "internalType": "address",
          "name": "previousValue",
          "type": "address"
        },
        {
          "indexed": true,
          "internalType": "address",
          "name": "newValue",
          "type": "address"
        }
      ],
      "name": "StorageChanged",
      "type": "event"
    },
    {
      "constant": true,
      "inputs": [],
      "name": "contractName",
      "outputs": [
        {
          "internalType": "string",
          "name": "",
          "type": "string"
        }
      ],
      "payable": false,
      "stateMutability": "view",
      "type": "function"
    },
    {
      "constant": true,
      "inputs": [],
      "name": "manager",
      "outputs": [
        {
          "internalType": "address",
          "name": "",
          "type": "address"
        }
      ],
      "payable": false,
      "stateMutability": "view",
      "type": "function"
    },
    {
      "constant": true,
      "inputs": [],
      "name": "owner",
      "outputs": [
        {
          "internalType": "address",
          "name": "",
          "type": "address"
        }
      ],
      "payable": false,
      "stateMutability": "view",
      "type": "function"
    },
    {
      "constant": false,
      "inputs": [
        {
          "internalType": "address",
          "name": "_manager",
          "type": "address"
        }
      ],
      "name": "setManager",
      "outputs": [],
      "payable": false,
      "stateMutability": "nonpayable",
      "type": "function"
    },
    {
      "constant": false,
      "inputs": [
        {
          "internalType": "address",
          "name": "_owner",
          "type": "address"
        }
      ],
      "name": "setOwner",
      "outputs": [],
      "payable": false,
      "stateMutability": "nonpayable",
      "type": "function"
    },
    {
      "constant": false,
      "inputs": [
        {
          "internalType": "address",
          "name": "value",
          "type": "address"
        }
      ],
      "name": "setStorage",
      "outputs": [],
      "payable": false,
      "stateMutability": "nonpayable",
      "type": "function"
    },
    {
      "constant": true,
      "inputs": [],
      "name": "getStorage",
      "outputs": [
        {
          "internalType": "address",
          "name": "",
          "type": "address"
        }
      ],
      "payable": false,
      "stateMutability": "view",
      "type": "function"
    }
  ],
  "bytecode": "0x608060405260018054336001600160a01b03199182168117909255600280549091169091179055610a6d806100356000396000f3fe608060405234801561001057600080fd5b506004361061006d5760003560e01c806313af4035146100725780633408f73a1461009a578063481c6a75146100be57806375d0c0dc146100c65780638da5cb5b146101435780639137c1a71461014b578063d0ebdbe714610171575b600080fd5b6100986004803603602081101561008857600080fd5b50356001600160a01b0316610197565b005b6100a261043f565b604080516001600160a01b039092168252519081900360200190f35b6100a2610535565b6100ce610544565b6040805160208082528351818301528351919283929083019185019080838360005b838110156101085781810151838201526020016100f0565b50505050905090810190601f1680156101355780820380516001836020036101000a031916815260200191505b509250505060405180910390f35b6100a26105d2565b6100986004803603602081101561016157600080fd5b50356001600160a01b03166105e1565b6100986004803603602081101561018757600080fd5b50356001600160a01b0316610721565b60018054604080518082018252601981526000805160206109f8833981519152602080830191909152600080548451600261010098831615989098026000190190911696909604601f81018390048302870183019094528386526001600160a01b0390941633149461026c9492939092918301828280156102595780601f1061022e57610100808354040283529160200191610259565b820191906000526020600020905b81548152906001019060200180831161023c57829003601f168201915b505050505061093c90919063ffffffff16565b906102f55760405162461bcd60e51b81526004018080602001828103825283818151815260200191508051906020019080838360005b838110156102ba5781810151838201526020016102a2565b50505050905090810190601f1680156102e75780820380516001836020036101000a031916815260200191505b509250505060405180910390fd5b50604080518082018252601f8082527f3a206e6577206f776e657220697320746865207a65726f206164647265737300602080840191909152600080548551600260001961010060018516150201909216919091049384018390048302810183019095528285526001600160a01b038616151594610396949390928301828280156102595780601f1061022e57610100808354040283529160200191610259565b906103e25760405162461bcd60e51b81526020600482018181528351602484015283519092839260449091019190850190808383600083156102ba5781810151838201526020016102a2565b506001546040516001600160a01b038084169216907fb532073b38c83145e3e5135377a08bf9aab55bc0fd7c1179cd4fb995d2a5159c90600090a3600180546001600160a01b0319166001600160a01b0392909216919091179055565b60035460408051808201825260118152700e8814dd1bdc9859d9481b9bdd081cd95d607a1b60208083019190915260008054845160026101006001841615026000190190921691909104601f810184900484028201840190955284815290946001600160a01b03161515936104d893928691908301828280156102595780601f1061022e57610100808354040283529160200191610259565b906105245760405162461bcd60e51b81526020600482018181528351602484015283519092839260449091019190850190808383600083156102ba5781810151838201526020016102a2565b50506003546001600160a01b031690565b6002546001600160a01b031681565b6000805460408051602060026001851615610100026000190190941693909304601f810184900484028201840190925281815292918301828280156105ca5780601f1061059f576101008083540402835291602001916105ca565b820191906000526020600020905b8154815290600101906020018083116105ad57829003601f168201915b505050505081565b6001546001600160a01b031681565b60018054604080518082018252601981526000805160206109f8833981519152602080830191909152600080548451600261010098831615989098026000190190911696909604601f81018390048302870183019094528386526001600160a01b039094163314946106789492939092918301828280156102595780601f1061022e57610100808354040283529160200191610259565b906106c45760405162461bcd60e51b81526020600482018181528351602484015283519092839260449091019190850190808383600083156102ba5781810151838201526020016102a2565b506003546040516001600160a01b038084169216907f85a70e3ed8a3924b3769cbe4e925987bbd40e8cea31487cbe13bee7b727310a490600090a3600380546001600160a01b0319166001600160a01b0392909216919091179055565b60018054604080518082018252601981526000805160206109f8833981519152602080830191909152600080548451600261010098831615989098026000190190911696909604601f81018390048302870183019094528386526001600160a01b039094163314946107b89492939092918301828280156102595780601f1061022e57610100808354040283529160200191610259565b906108045760405162461bcd60e51b81526020600482018181528351602484015283519092839260449091019190850190808383600083156102ba5781810151838201526020016102a2565b5060006001600160a01b0316816001600160a01b03161415610893604051806060016040528060218152602001610a18602191396000805460408051602060026001851615610100026000190190941693909304601f810184900484028201840190925281815292918301828280156102595780601f1061022e57610100808354040283529160200191610259565b906108df5760405162461bcd60e51b81526020600482018181528351602484015283519092839260449091019190850190808383600083156102ba5781810151838201526020016102a2565b506002546040516001600160a01b038084169216907f605c2dbf762e5f7d60a546d42e7205dcb1b011ebc62a61736a57c9089d3a435090600090a3600280546001600160a01b0319166001600160a01b0392909216919091179055565b606082826040516020018083805190602001908083835b602083106109725780518252601f199092019160209182019101610953565b51815160209384036101000a600019018019909216911617905285519190930192850191508083835b602083106109ba5780518252601f19909201916020918201910161099b565b6001836020036101000a0380198251168184511680821785525050505050509050019250505060405160208183030381529060405290509291505056fe3a2063616c6c6572206973206e6f7420746865206f776e6572000000000000003a206e6577206d616e6167657220697320746865207a65726f2061646472657373a265627a7a72315820d3ca6b3c9e24ebbcbc175e14b2b914564fd06cf1b206abf4e98db7e091f722e464736f6c63430005110032",
  "source": "pragma solidity ^0.5.17;\n\nimport './Ownable.sol';\n\ncontract ExternalStorable is Ownable {\n    address private _storage;\n\n    event StorageChanged(address indexed previousValue, address indexed newValue);\n\n    modifier onlyStorageSetup() {\n        require(_storage != address(0), contractName.concat(': Storage not set'));\n        _;\n    }\n\n    function setStorage(address value) public onlyOwner {\n        emit StorageChanged(_storage, value);\n        _storage = value;\n    }\n\n    function getStorage() public view onlyStorageSetup returns (address) {\n        return _storage;\n    }\n}\n",
  "sourcePath": "/Users/sun/go/src/github.com/Dipper-Labs/DIPSYN/contracts/base/ExternalStorable.sol",
  "compiler": {
    "name": "solc",
    "version": "0.5.17+commit.d19bba13.Emscripten.clang"
  },
  "schemaVersion": "3.3.4",
  "updatedAt": "2021-04-21T04:08:14.042Z",
  "devdoc": {
    "methods": {}
  },
  "userdoc": {
    "methods": {}
  }
}