{
  "contractName": "History",
  "abi": [
    {
      "inputs": [
        {
          "internalType": "contract IResolver",
          "name": "_resolver",
          "type": "address"
        }
      ],
      "payable": false,
      "stateMutability": "nonpayable",
      "type": "constructor"
    },
    {
      "anonymous": false,
      "inputs": [
        {
          "indexed": true,
          "internalType": "address",
          "name": "previousValue",
          "type": "address"
        },
        {
          "indexed": true,
          "internalType": "address",
          "name": "newValue",
          "type": "address"
        }
      ],
      "name": "ManagerChanged",
      "type": "event"
    },
    {
      "anonymous": false,
      "inputs": [
        {
          "indexed": true,
          "internalType": "address",
          "name": "previousValue",
          "type": "address"
        },
        {
          "indexed": true,
          "internalType": "address",
          "name": "newValue",
          "type": "address"
        }
      ],
      "name": "OwnerChanged",
      "type": "event"
    },
    {
      "constant": false,
      "inputs": [
        {
          "internalType": "bytes32",
          "name": "name",
          "type": "bytes32"
        }
      ],
      "name": "addAddress",
      "outputs": [],
      "payable": false,
      "stateMutability": "nonpayable",
      "type": "function"
    },
    {
      "constant": true,
      "inputs": [],
      "name": "contractName",
      "outputs": [
        {
          "internalType": "string",
          "name": "",
          "type": "string"
        }
      ],
      "payable": false,
      "stateMutability": "view",
      "type": "function"
    },
    {
      "constant": true,
      "inputs": [
        {
          "internalType": "bytes32",
          "name": "name",
          "type": "bytes32"
        }
      ],
      "name": "getAddress",
      "outputs": [
        {
          "internalType": "address",
          "name": "",
          "type": "address"
        }
      ],
      "payable": false,
      "stateMutability": "view",
      "type": "function"
    },
    {
      "constant": true,
      "inputs": [],
      "name": "getImports",
      "outputs": [
        {
          "internalType": "bytes32[]",
          "name": "",
          "type": "bytes32[]"
        }
      ],
      "payable": false,
      "stateMutability": "view",
      "type": "function"
    },
    {
      "constant": true,
      "inputs": [],
      "name": "manager",
      "outputs": [
        {
          "internalType": "address",
          "name": "",
          "type": "address"
        }
      ],
      "payable": false,
      "stateMutability": "view",
      "type": "function"
    },
    {
      "constant": true,
      "inputs": [],
      "name": "owner",
      "outputs": [
        {
          "internalType": "address",
          "name": "",
          "type": "address"
        }
      ],
      "payable": false,
      "stateMutability": "view",
      "type": "function"
    },
    {
      "constant": false,
      "inputs": [],
      "name": "refreshCache",
      "outputs": [],
      "payable": false,
      "stateMutability": "nonpayable",
      "type": "function"
    },
    {
      "constant": true,
      "inputs": [],
      "name": "resolver",
      "outputs": [
        {
          "internalType": "contract IResolver",
          "name": "",
          "type": "address"
        }
      ],
      "payable": false,
      "stateMutability": "view",
      "type": "function"
    },
    {
      "constant": false,
      "inputs": [
        {
          "internalType": "address",
          "name": "_manager",
          "type": "address"
        }
      ],
      "name": "setManager",
      "outputs": [],
      "payable": false,
      "stateMutability": "nonpayable",
      "type": "function"
    },
    {
      "constant": false,
      "inputs": [
        {
          "internalType": "address",
          "name": "_owner",
          "type": "address"
        }
      ],
      "name": "setOwner",
      "outputs": [],
      "payable": false,
      "stateMutability": "nonpayable",
      "type": "function"
    },
    {
      "constant": false,
      "inputs": [
        {
          "internalType": "bytes32",
          "name": "topic",
          "type": "bytes32"
        },
        {
          "internalType": "address",
          "name": "account",
          "type": "address"
        },
        {
          "internalType": "bytes32",
          "name": "actionType",
          "type": "bytes32"
        },
        {
          "internalType": "bytes32",
          "name": "fromAsset",
          "type": "bytes32"
        },
        {
          "internalType": "uint256",
          "name": "fromAmount",
          "type": "uint256"
        },
        {
          "internalType": "bytes32",
          "name": "toAsset",
          "type": "bytes32"
        },
        {
          "internalType": "uint256",
          "name": "toAmount",
          "type": "uint256"
        }
      ],
      "name": "addAction",
      "outputs": [],
      "payable": false,
      "stateMutability": "nonpayable",
      "type": "function"
    },
    {
      "constant": false,
      "inputs": [
        {
          "internalType": "address",
          "name": "account",
          "type": "address"
        },
        {
          "internalType": "bytes32",
          "name": "fromSynth",
          "type": "bytes32"
        },
        {
          "internalType": "uint256",
          "name": "fromAmount",
          "type": "uint256"
        },
        {
          "internalType": "uint256",
          "name": "fromSynthPrice",
          "type": "uint256"
        },
        {
          "internalType": "bytes32",
          "name": "toSynth",
          "type": "bytes32"
        },
        {
          "internalType": "uint256",
          "name": "toAmount",
          "type": "uint256"
        },
        {
          "internalType": "uint256",
          "name": "toSynthPirce",
          "type": "uint256"
        }
      ],
      "name": "addTrade",
      "outputs": [],
      "payable": false,
      "stateMutability": "nonpayable",
      "type": "function"
    },
    {
      "constant": true,
      "inputs": [
        {
          "internalType": "bytes32",
          "name": "topic",
          "type": "bytes32"
        },
        {
          "internalType": "address",
          "name": "account",
          "type": "address"
        },
        {
          "internalType": "uint256",
          "name": "pageSize",
          "type": "uint256"
        },
        {
          "internalType": "uint256",
          "name": "pageNumber",
          "type": "uint256"
        }
      ],
      "name": "getHistory",
      "outputs": [
        {
          "components": [
            {
              "internalType": "bytes32",
              "name": "actionType",
              "type": "bytes32"
            },
            {
              "internalType": "bytes32",
              "name": "fromAsset",
              "type": "bytes32"
            },
            {
              "internalType": "uint256",
              "name": "fromAmount",
              "type": "uint256"
            },
            {
              "internalType": "uint256",
              "name": "fromPrice",
              "type": "uint256"
            },
            {
              "internalType": "bytes32",
              "name": "toAsset",
              "type": "bytes32"
            },
            {
              "internalType": "uint256",
              "name": "toAmount",
              "type": "uint256"
            },
            {
              "internalType": "uint256",
              "name": "toPrice",
              "type": "uint256"
            },
            {
              "internalType": "uint256",
              "name": "time",
              "type": "uint256"
            }
          ],
          "internalType": "struct IHistory.Action[]",
          "name": "",
          "type": "tuple[]"
        },
        {
          "components": [
            {
              "internalType": "uint256",
              "name": "totalRecords",
              "type": "uint256"
            },
            {
              "internalType": "uint256",
              "name": "totalPages",
              "type": "uint256"
            },
            {
              "internalType": "uint256",
              "name": "pageRecords",
              "type": "uint256"
            },
            {
              "internalType": "uint256",
              "name": "pageSize",
              "type": "uint256"
            },
            {
              "internalType": "uint256",
              "name": "pageNumber",
              "type": "uint256"
            }
          ],
          "internalType": "struct Paging.Page",
          "name": "",
          "type": "tuple"
        }
      ],
      "payable": false,
      "stateMutability": "view",
      "type": "function"
    },
    {
      "constant": true,
      "inputs": [
        {
          "internalType": "bytes32",
          "name": "asset",
          "type": "bytes32"
        },
        {
          "internalType": "uint256",
          "name": "pageSize",
          "type": "uint256"
        },
        {
          "internalType": "uint256",
          "name": "pageNumber",
          "type": "uint256"
        }
      ],
      "name": "getAssetHistory",
      "outputs": [
        {
          "components": [
            {
              "internalType": "bytes32",
              "name": "actionType",
              "type": "bytes32"
            },
            {
              "internalType": "bytes32",
              "name": "fromAsset",
              "type": "bytes32"
            },
            {
              "internalType": "uint256",
              "name": "fromAmount",
              "type": "uint256"
            },
            {
              "internalType": "uint256",
              "name": "fromPrice",
              "type": "uint256"
            },
            {
              "internalType": "bytes32",
              "name": "toAsset",
              "type": "bytes32"
            },
            {
              "internalType": "uint256",
              "name": "toAmount",
              "type": "uint256"
            },
            {
              "internalType": "uint256",
              "name": "toPrice",
              "type": "uint256"
            },
            {
              "internalType": "uint256",
              "name": "time",
              "type": "uint256"
            }
          ],
          "internalType": "struct IHistory.Action[]",
          "name": "",
          "type": "tuple[]"
        },
        {
          "components": [
            {
              "internalType": "uint256",
              "name": "totalRecords",
              "type": "uint256"
            },
            {
              "internalType": "uint256",
              "name": "totalPages",
              "type": "uint256"
            },
            {
              "internalType": "uint256",
              "name": "pageRecords",
              "type": "uint256"
            },
            {
              "internalType": "uint256",
              "name": "pageSize",
              "type": "uint256"
            },
            {
              "internalType": "uint256",
              "name": "pageNumber",
              "type": "uint256"
            }
          ],
          "internalType": "struct Paging.Page",
          "name": "",
          "type": "tuple"
        }
      ],
      "payable": false,
      "stateMutability": "view",
      "type": "function"
    },
    {
      "constant": true,
      "inputs": [
        {
          "internalType": "bytes32",
          "name": "fromSynth",
          "type": "bytes32"
        },
        {
          "internalType": "bytes32",
          "name": "toSynth",
          "type": "bytes32"
        },
        {
          "internalType": "uint256",
          "name": "pageSize",
          "type": "uint256"
        },
        {
          "internalType": "uint256",
          "name": "pageNumber",
          "type": "uint256"
        }
      ],
      "name": "getPairHistory",
      "outputs": [
        {
          "components": [
            {
              "internalType": "bytes32",
              "name": "actionType",
              "type": "bytes32"
            },
            {
              "internalType": "bytes32",
              "name": "fromAsset",
              "type": "bytes32"
            },
            {
              "internalType": "uint256",
              "name": "fromAmount",
              "type": "uint256"
            },
            {
              "internalType": "uint256",
              "name": "fromPrice",
              "type": "uint256"
            },
            {
              "internalType": "bytes32",
              "name": "toAsset",
              "type": "bytes32"
            },
            {
              "internalType": "uint256",
              "name": "toAmount",
              "type": "uint256"
            },
            {
              "internalType": "uint256",
              "name": "toPrice",
              "type": "uint256"
            },
            {
              "internalType": "uint256",
              "name": "time",
              "type": "uint256"
            }
          ],
          "internalType": "struct IHistory.Action[]",
          "name": "",
          "type": "tuple[]"
        },
        {
          "components": [
            {
              "internalType": "uint256",
              "name": "totalRecords",
              "type": "uint256"
            },
            {
              "internalType": "uint256",
              "name": "totalPages",
              "type": "uint256"
            },
            {
              "internalType": "uint256",
              "name": "pageRecords",
              "type": "uint256"
            },
            {
              "internalType": "uint256",
              "name": "pageSize",
              "type": "uint256"
            },
            {
              "internalType": "uint256",
              "name": "pageNumber",
              "type": "uint256"
            }
          ],
          "internalType": "struct Paging.Page",
          "name": "",
          "type": "tuple"
        }
      ],
      "payable": false,
      "stateMutability": "view",
      "type": "function"
    }
  ],
  "bytecode": "0x60806040523480156200001157600080fd5b5060405162002314380380620023148339810160408190526200003491620001f6565b60018054336001600160a01b03199182168117909255600280548216909217909155600380549091166001600160a01b0383161790556200007f66486973746f727960c81b620000c4565b60408051808201909152650a6f2dce8d0f60d31b81526d537570706c795363686564756c6560901b6020820152620000bc90600490600262000101565b505062000291565b80604051602001620000d791906200023a565b60405160208183030381529060405260009080519060200190620000fd92919062000151565b5050565b8280548282559060005260206000209081019282156200013f579160200282015b828111156200013f57825182559160200191906001019062000122565b506200014d929150620001c3565b5090565b828054600181600116156101000203166002900490600052602060002090601f016020900481019282601f106200019457805160ff19168380011785556200013f565b828001600101855582156200013f57918201828111156200013f57825182559160200191906001019062000122565b620001e091905b808211156200014d5760008155600101620001ca565b90565b8051620001f08162000277565b92915050565b6000602082840312156200020957600080fd5b6000620002178484620001e3565b949350505050565b620002346200022e82620001e0565b620001e0565b82525050565b60006200024882846200021f565b50602001919050565b6000620001f0826200026b565b6000620001f08262000251565b6001600160a01b031690565b62000282816200025e565b81146200028e57600080fd5b50565b61207380620002a16000396000f3fe608060405234801561001057600080fd5b50600436106100c55760003560e01c806304f3bcec146100ca578063126779c2146100e857806313af4035146100fd57806321f8a7211461011257806331ba0ba414610132578063481c6a751461015357806375d0c0dc1461015b5780637b615c97146101705780638aed3c32146101835780638da5cb5b14610196578063befae1d31461019e578063c635774f146101b1578063d0ebdbe7146101c4578063d5c2c8ca146101d7578063f8672add146101df575b600080fd5b6100d26101f2565b6040516100df9190611de0565b60405180910390f35b6100f0610201565b6040516100df9190611da1565b61011061010b366004611872565b610259565b005b610125610120366004611952565b610471565b6040516100df9190611d93565b610145610140366004611a3c565b61048c565b6040516100df929190611db2565b61012561064c565b61016361065b565b6040516100df9190611dee565b61014561017e3660046119a8565b6106e9565b610110610191366004611952565b6108cb565b610125610a5f565b6101106101ac3660046118b6565b610a6e565b6101106101bf366004611970565b610e02565b6101106101d2366004611872565b611135565b6101106112f4565b6101456101ed366004611a09565b61148a565b6003546001600160a01b031681565b6060600480548060200260200160405190810160405280929190818152602001828054801561024f57602002820191906000526020600020905b81548152602001906001019080831161023b575b5050505050905090565b6001805460408051808201825260198152600080516020611ed0833981519152602080830191909152600080548451600261010098831615989098026000190190911696909604601f81018390048302870183019094528386526001600160a01b0390941633149461032e94929390929183018282801561031b5780601f106102f05761010080835404028352916020019161031b565b820191906000526020600020905b8154815290600101906020018083116102fe57829003601f168201915b50505050506114da90919063ffffffff16565b906103555760405162461bcd60e51b815260040161034c9190611dee565b60405180910390fd5b50604080518082018252601f8082527f3a206e6577206f776e657220697320746865207a65726f206164647265737300602080840191909152600080548551600260001961010060018516150201909216919091049384018390048302810183019095528285526001600160a01b0386161515946103f69493909283018282801561031b5780601f106102f05761010080835404028352916020019161031b565b906104145760405162461bcd60e51b815260040161034c9190611dee565b506001546040516001600160a01b038084169216907fb532073b38c83145e3e5135377a08bf9aab55bc0fd7c1179cd4fb995d2a5159c90600090a3600180546001600160a01b0319166001600160a01b0392909216919091179055565b6000908152600560205260409020546001600160a01b031690565b60606104966117de565b61049e6117de565b6000868152600760205260409020546104b8908686611507565b905060006104e882606001516104dc6001856080015161162a90919063ffffffff16565b9063ffffffff61166c16565b600088815260076020908152604091829020548583015183518181528184028101909301909352929350606091801561053b57816020015b61052861180d565b8152602001906001900390816105205790505b50905060005b846040015181101561063d5760008a815260076020526040812061057e83610572888189600163ffffffff61162a16565b9063ffffffff61162a16565b8154811061058857fe5b600091825260209091200154905060066105a982600163ffffffff61162a16565b815481106105b357fe5b9060005260206000209060080201604051806101000160405290816000820154815260200160018201548152602001600282015481526020016003820154815260200160048201548152602001600582015481526020016006820154815260200160078201548152505083838151811061062957fe5b602090810291909101015250600101610541565b50989297509195505050505050565b6002546001600160a01b031681565b6000805460408051602060026001851615610100026000190190941693909304601f810184900484028201840190925281815292918301828280156106e15780601f106106b6576101008083540402835291602001916106e1565b820191906000526020600020905b8154815290600101906020018083116106c457829003601f168201915b505050505081565b60606106f36117de565b6106fb6117de565b60008781526008602090815260408083206001600160a01b038a168452909152902054610729908686611507565b9050600061074d82606001516104dc6001856080015161162a90919063ffffffff16565b60008981526008602090815260408083206001600160a01b038c16845282529182902054858301518351818152818402810190930190935292935060609180156107b157816020015b61079e61180d565b8152602001906001900390816107965790505b50905060005b84604001518110156108bb5760008b81526008602090815260408083206001600160a01b038e16845290915281206107fc83610572888189600163ffffffff61162a16565b8154811061080657fe5b6000918252602090912001549050600661082782600163ffffffff61162a16565b8154811061083157fe5b906000526020600020906008020160405180610100016040529081600082015481526020016001820154815260200160028201548152602001600382015481526020016004820154815260200160058201548152602001600682015481526020016007820154815250508383815181106108a757fe5b6020908102919091010152506001016107b7565b5099929850919650505050505050565b6001805460408051808201825260198152600080516020611ed0833981519152602080830191909152600080548451600261010098831615989098026000190190911696909604601f81018390048302870183019094528386526001600160a01b0390941633149461096294929390929183018282801561031b5780601f106102f05761010080835404028352916020019161031b565b906109805760405162461bcd60e51b815260040161034c9190611dee565b506003546040516321f8a72160e01b81526001600160a01b03909116906321f8a721906109b1908490600401611dd2565b60206040518083038186803b1580156109c957600080fd5b505afa1580156109dd573d6000803e3d6000fd5b505050506040513d601f19601f82011682018060405250610a019190810190611898565b600082815260056020526040812080546001600160a01b0319166001600160a01b0393909316929092179091556004805460018101825591527f8a35acfbc15ff81a39ae7d344fd709f28e8600b4aa8c65c6b64bfe7fe36bd19b0155565b6001546001600160a01b031681565b6004805480602002602001604051908101604052809291908181526020018280548015610aba57602002820191906000526020600020905b815481526020019060010190808311610aa6575b5050835160408051808201825260208082526000805160206120118339815191528183015260008054845160026001831615610100026000190190921691909104601f810184900484028201840190955284815260149095109750610b46965091945090919083018282801561031b5780601f106102f05761010080835404028352916020019161031b565b90610b645760405162461bcd60e51b815260040161034c9190611dee565b506000805b8251811015610bbe5760056000848381518110610b8257fe5b6020908102919091018101518252810191909152604001600020546001600160a01b0316331415610bb65760019150610bbe565b600101610b69565b5080610bd457506001546001600160a01b031633145b604080518082018252601f808252600080516020611ff1833981519152602080840191909152600080548551600260001961010060018516150201909216919091049384018390048302810183019095528285528594610c579493909283018282801561031b5780601f106102f05761010080835404028352916020019161031b565b90610c755760405162461bcd60e51b815260040161034c9190611dee565b506000858916604051602001610c8b9190611d66565b60408051808303601f1901815282825280516020918201206101008401835264547261646560d81b84528184019c8d528383019b8c52606084019a8b5260808401998a5260a0840198895260c084019788524260e0850190815260068054600180820180845560009384529751600080516020611fd18339815191526008909302928301559f51600080516020611f918339815191528201559d51600080516020611fb18339815191528f01559b51600080516020611f308339815191528e01559951600080516020611f108339815191528d01559751600080516020611eb08339815191528c01559551600080516020611ef08339815191528b01559651600080516020611f71833981519152909901989098555050509083526007815281832080548087018255908452818420018490556001600160a01b039590951682527f1c040baa8ebc72e3499ffa1d390cb0634a4f4701dc676bbbf0c3b6d542ae683685528120805493840181558152929092200155565b6004805480602002602001604051908101604052809291908181526020018280548015610e4e57602002820191906000526020600020905b815481526020019060010190808311610e3a575b5050835160408051808201825260208082526000805160206120118339815191528183015260008054845160026001831615610100026000190190921691909104601f810184900484028201840190955284815260149095109750610eda965091945090919083018282801561031b5780601f106102f05761010080835404028352916020019161031b565b90610ef85760405162461bcd60e51b815260040161034c9190611dee565b506000805b8251811015610f525760056000848381518110610f1657fe5b6020908102919091018101518252810191909152604001600020546001600160a01b0316331415610f4a5760019150610f52565b600101610efd565b5080610f6857506001546001600160a01b031633145b604080518082018252601f808252600080516020611ff1833981519152602080840191909152600080548551600260001961010060018516150201909216919091049384018390048302810183019095528285528594610feb9493909283018282801561031b5780601f106102f05761010080835404028352916020019161031b565b906110095760405162461bcd60e51b815260040161034c9190611dee565b50506040805161010081018252968752602080880196875287820195865260006060890181815260808a0196875260a08a0195865260c08a018281524260e08c019081526006805460018181018084559287529d516008918202600080516020611fd18339815191528101919091559c51600080516020611f918339815191528e01559a51600080516020611fb18339815191528d01559251600080516020611f308339815191528c01559751600080516020611f108339815191528b01559551600080516020611eb08339815191528a01559451600080516020611ef08339815191528901559451600080516020611f7183398151915290970196909655978352509183528581206001600160a01b0390951681529382529383208054928301815583529091200155565b6001805460408051808201825260198152600080516020611ed0833981519152602080830191909152600080548451600261010098831615989098026000190190911696909604601f81018390048302870183019094528386526001600160a01b039094163314946111cc94929390929183018282801561031b5780601f106102f05761010080835404028352916020019161031b565b906111ea5760405162461bcd60e51b815260040161034c9190611dee565b5060006001600160a01b0316816001600160a01b03161415611279604051806060016040528060218152602001611f50602191396000805460408051602060026001851615610100026000190190941693909304601f8101849004840282018401909252818152929183018282801561031b5780601f106102f05761010080835404028352916020019161031b565b906112975760405162461bcd60e51b815260040161034c9190611dee565b506002546040516001600160a01b038084169216907f605c2dbf762e5f7d60a546d42e7205dcb1b011ebc62a61736a57c9089d3a435090600090a3600280546001600160a01b0319166001600160a01b0392909216919091179055565b6001805460408051808201825260198152600080516020611ed0833981519152602080830191909152600080548451600261010098831615989098026000190190911696909604601f81018390048302870183019094528386526001600160a01b0390941633149461138b94929390929183018282801561031b5780601f106102f05761010080835404028352916020019161031b565b906113a95760405162461bcd60e51b815260040161034c9190611dee565b5060005b600454811015611487576000600482815481106113c657fe5b6000918252602090912001546003546040516321f8a72160e01b81529192506001600160a01b0316906321f8a72190611403908490600401611dd2565b60206040518083038186803b15801561141b57600080fd5b505afa15801561142f573d6000803e3d6000fd5b505050506040513d601f19601f820116820180604052506114539190810190611898565b60009182526005602052604090912080546001600160a01b0319166001600160a01b039092169190911790556001016113ad565b50565b60606114946117de565b60008587166040516020016114a99190611d66565b6040516020818303038152906040528051906020012090506114cc81868661048c565b925092505094509492505050565b606082826040516020016114ef929190611d7b565b60405160208183030381529060405290505b92915050565b61150f6117de565b6115176117de565b6040518060a00160405280868152602001600081526020016000815260200160008152602001600181525090508460001480611551575083155b1561155d579050611623565b6032841161156b578361156e565b60325b606082018190526040820181905261158d90869063ffffffff6116a616565b602082015260608101516000906115ab90879063ffffffff6116e516565b905080156115cf5760208201516115c990600163ffffffff61172216565b60208301525b60018411156115e057608082018490525b8160200151826080015111156115fb57602082015160808301525b816020015182608001511480156116125750600081115b1561161f57604082018190525b5090505b9392505050565b600061162383836040518060400160405280601e81526020017f536166654d6174683a207375627472616374696f6e206f766572666c6f770000815250611747565b60008261167b57506000611501565b8282028284828161168857fe5b04146116235760405162461bcd60e51b815260040161034c90611e0f565b600061162383836040518060400160405280601a815260200179536166654d6174683a206469766973696f6e206279207a65726f60301b815250611773565b6000611623838360405180604001604052806018815260200177536166654d6174683a206d6f64756c6f206279207a65726f60401b8152506117aa565b6000828201838110156116235760405162461bcd60e51b815260040161034c90611dff565b6000818484111561176b5760405162461bcd60e51b815260040161034c9190611dee565b505050900390565b600081836117945760405162461bcd60e51b815260040161034c9190611dee565b5060008385816117a057fe5b0495945050505050565b600081836117cb5760405162461bcd60e51b815260040161034c9190611dee565b508284816117d557fe5b06949350505050565b6040518060a0016040528060008152602001600081526020016000815260200160008152602001600081525090565b6040805161010081018252600080825260208201819052918101829052606081018290526080810182905260a0810182905260c0810182905260e081019190915290565b803561150181611e92565b805161150181611e92565b803561150181611ea6565b60006020828403121561188457600080fd5b60006118908484611851565b949350505050565b6000602082840312156118aa57600080fd5b6000611890848461185c565b600080600080600080600060e0888a0312156118d157600080fd5b60006118dd8a8a611851565b97505060206118ee8a828b01611867565b96505060406118ff8a828b01611867565b95505060606119108a828b01611867565b94505060806119218a828b01611867565b93505060a06119328a828b01611867565b92505060c06119438a828b01611867565b91505092959891949750929550565b60006020828403121561196457600080fd5b60006118908484611867565b600080600080600080600060e0888a03121561198b57600080fd5b60006119978a8a611867565b97505060206118ee8a828b01611851565b600080600080608085870312156119be57600080fd5b60006119ca8787611867565b94505060206119db87828801611851565b93505060406119ec87828801611867565b92505060606119fd87828801611867565b91505092959194509250565b60008060008060808587031215611a1f57600080fd5b6000611a2b8787611867565b94505060206119db87828801611867565b600080600060608486031215611a5157600080fd5b6000611a5d8686611867565b9350506020611a6e86828701611867565b9250506040611a7f86828701611867565b9150509250925092565b6000611a958383611b68565b505060200190565b6000611aa98383611c6c565b50506101000190565b611abb81611e37565b82525050565b6000611acc82611e25565b611ad68185611e29565b9350611ae183611e1f565b8060005b83811015611b0f578151611af98882611a89565b9750611b0483611e1f565b925050600101611ae5565b509495945050505050565b6000611b2582611e25565b611b2f8185611e29565b9350611b3a83611e1f565b8060005b83811015611b0f578151611b528882611a9d565b9750611b5d83611e1f565b925050600101611b3e565b611abb81611e42565b611abb611b7d82611e42565b611e42565b611abb81611e51565b6000611b9682611e25565b611ba08185611e29565b9350611bb0818560208601611e5c565b611bb981611e88565b9093019392505050565b6000611bce82611e25565b611bd88185611e32565b9350611be8818560208601611e5c565b9290920192915050565b6000611bff601b83611e29565b7a536166654d6174683a206164646974696f6e206f766572666c6f7760281b815260200192915050565b6000611c36602183611e29565b7f536166654d6174683a206d756c7469706c69636174696f6e206f766572666c6f8152607760f81b602082015260400192915050565b8051610100830190611c7e8482611b68565b506020820151611c916020850182611b68565b506040820151611ca46040850182611b68565b506060820151611cb76060850182611b68565b506080820151611cca6080850182611b68565b5060a0820151611cdd60a0850182611b68565b5060c0820151611cf060c0850182611b68565b5060e0820151611d0360e0850182611b68565b50505050565b805160a0830190611d1a8482611b68565b506020820151611d2d6020850182611b68565b506040820151611d406040850182611b68565b506060820151611d536060850182611b68565b506080820151611d036080850182611b68565b6000611d728284611b71565b50602001919050565b6000611d878285611bc3565b91506118908284611bc3565b602081016115018284611ab2565b602080825281016116238184611ac1565b60c08082528101611dc38185611b1a565b90506116236020830184611d09565b602081016115018284611b68565b602081016115018284611b82565b602080825281016116238184611b8b565b6020808252810161150181611bf2565b6020808252810161150181611c29565b60200190565b5190565b90815260200190565b919050565b600061150182611e45565b90565b6001600160a01b031690565b600061150182611e37565b60005b83811015611e77578181015183820152602001611e5f565b83811115611d035750506000910152565b601f01601f191690565b611e9b81611e37565b811461148757600080fd5b611e9b81611e4256fef652222313e28459528d920b65115c16c04f3efc82aaedc97be59f3f377c0d443a2063616c6c6572206973206e6f7420746865206f776e657200000000000000f652222313e28459528d920b65115c16c04f3efc82aaedc97be59f3f377c0d45f652222313e28459528d920b65115c16c04f3efc82aaedc97be59f3f377c0d43f652222313e28459528d920b65115c16c04f3efc82aaedc97be59f3f377c0d423a206e6577206d616e6167657220697320746865207a65726f2061646472657373f652222313e28459528d920b65115c16c04f3efc82aaedc97be59f3f377c0d46f652222313e28459528d920b65115c16c04f3efc82aaedc97be59f3f377c0d40f652222313e28459528d920b65115c16c04f3efc82aaedc97be59f3f377c0d41f652222313e28459528d920b65115c16c04f3efc82aaedc97be59f3f377c0d3f3a2063616c6c6572206973206e6f7420696e20646570656e64656e63696573003a2063616e6e6f742068617665206d6f7265207468616e203230206974656d73a365627a7a723158204bb698455a5c4a019f2de1d7088efd30b59fcd01fa5e8668a1908aff2e385f996c6578706572696d656e74616cf564736f6c63430005110040",
  "source": "// SPDX-License-Identifier: MIT\npragma solidity ^0.5.17;\npragma experimental ABIEncoderV2;\n\nimport './lib/SafeMath.sol';\nimport './lib/PreciseMath.sol';\nimport './lib/Paging.sol';\nimport './base/Importable.sol';\nimport './interfaces/IHistory.sol';\n\ncontract History is Importable, IHistory {\n    using SafeMath for uint256;\n    using PreciseMath for uint256;\n\n    Action[] private _actions;\n    mapping(bytes32 => uint256[]) private _assetTrades;\n    mapping(bytes32 => mapping(address => uint256[])) private _accountActions;\n\n    constructor(IResolver _resolver) public Importable(_resolver) {\n        setContractName(CONTRACT_HISTORY);\n        imports = [CONTRACT_SYNTHX, CONTRACT_SUPPLY_SCHEDULE];\n    }\n\n    function addAction(\n        bytes32 topic,\n        address account,\n        bytes32 actionType,\n        bytes32 fromAsset,\n        uint256 fromAmount,\n        bytes32 toAsset,\n        uint256 toAmount\n    ) external containAddressOrOwner(imports) {\n        uint256 index = _actions.push(Action(actionType, fromAsset, fromAmount, 0, toAsset, toAmount, 0, now));\n        _accountActions[topic][account].push(index);\n    }\n\n    function addTrade(\n        address account,\n        bytes32 fromSynth,\n        uint256 fromAmount,\n        uint256 fromSynthPrice,\n        bytes32 toSynth,\n        uint256 toAmount,\n        uint256 toSynthPirce\n    ) external containAddressOrOwner(imports) {\n        bytes32 asset = keccak256(abi.encodePacked(fromSynth & toSynth));\n\n        uint256 index =\n            _actions.push(Action('Trade', fromSynth, fromAmount, fromSynthPrice, toSynth, toAmount, toSynthPirce, now));\n        _assetTrades[asset].push(index);\n        _accountActions['Trade'][account].push(index);\n    }\n\n    function getHistory(\n        bytes32 topic,\n        address account,\n        uint256 pageSize,\n        uint256 pageNumber\n    ) public view returns (Action[] memory, Paging.Page memory) {\n        Paging.Page memory page = Paging.getPage(_accountActions[topic][account].length, pageSize, pageNumber);\n        uint256 start = page.pageNumber.sub(1).mul(page.pageSize);\n        uint256 last = _accountActions[topic][account].length;\n\n        Action[] memory items = new Action[](page.pageRecords);\n        for (uint256 i = 0; i < page.pageRecords; i++) {\n            uint256 index = _accountActions[topic][account][last.sub(1).sub(start).sub(i)];\n            items[i] = _actions[index.sub(1)];\n        }\n\n        return (items, page);\n    }\n\n    function getAssetHistory(\n        bytes32 asset,\n        uint256 pageSize,\n        uint256 pageNumber\n    ) public view returns (Action[] memory, Paging.Page memory) {\n        Paging.Page memory page = Paging.getPage(_assetTrades[asset].length, pageSize, pageNumber);\n        uint256 start = page.pageNumber.sub(1).mul(page.pageSize);\n        uint256 last = _assetTrades[asset].length;\n\n        Action[] memory items = new Action[](page.pageRecords);\n        for (uint256 i = 0; i < page.pageRecords; i++) {\n            uint256 index = _assetTrades[asset][last.sub(1).sub(start).sub(i)];\n            items[i] = _actions[index.sub(1)];\n        }\n\n        return (items, page);\n    }\n\n    function getPairHistory(\n        bytes32 fromSynth,\n        bytes32 toSynth,\n        uint256 pageSize,\n        uint256 pageNumber\n    ) external view returns (Action[] memory, Paging.Page memory) {\n        bytes32 asset = keccak256(abi.encodePacked(fromSynth & toSynth));\n        return getAssetHistory(asset, pageSize, pageNumber);\n    }\n}\n",
  "sourcePath": "/Users/sun/go/src/github.com/Dipper-Labs/DIPSYN/contracts/History.sol",
  "compiler": {
    "name": "solc",
    "version": "0.5.17+commit.d19bba13.Emscripten.clang"
  },
  "schemaVersion": "3.3.4",
  "updatedAt": "2021-04-21T04:08:13.970Z",
  "devdoc": {
    "methods": {}
  },
  "userdoc": {
    "methods": {}
  }
}