{
  "contractName": "HolderStorage",
  "abi": [
    {
      "inputs": [
        {
          "internalType": "address",
          "name": "_manager",
          "type": "address"
        }
      ],
      "payable": false,
      "stateMutability": "nonpayable",
      "type": "constructor"
    },
    {
      "anonymous": false,
      "inputs": [
        {
          "indexed": true,
          "internalType": "address",
          "name": "previousValue",
          "type": "address"
        },
        {
          "indexed": true,
          "internalType": "address",
          "name": "newValue",
          "type": "address"
        }
      ],
      "name": "ManagerChanged",
      "type": "event"
    },
    {
      "anonymous": false,
      "inputs": [
        {
          "indexed": true,
          "internalType": "address",
          "name": "previousValue",
          "type": "address"
        },
        {
          "indexed": true,
          "internalType": "address",
          "name": "newValue",
          "type": "address"
        }
      ],
      "name": "OwnerChanged",
      "type": "event"
    },
    {
      "constant": true,
      "inputs": [],
      "name": "contractName",
      "outputs": [
        {
          "internalType": "string",
          "name": "",
          "type": "string"
        }
      ],
      "payable": false,
      "stateMutability": "view",
      "type": "function"
    },
    {
      "constant": true,
      "inputs": [
        {
          "internalType": "bytes32",
          "name": "asset",
          "type": "bytes32"
        },
        {
          "internalType": "address",
          "name": "account",
          "type": "address"
        },
        {
          "internalType": "uint256",
          "name": "period",
          "type": "uint256"
        }
      ],
      "name": "getClaimed",
      "outputs": [
        {
          "internalType": "uint256",
          "name": "",
          "type": "uint256"
        }
      ],
      "payable": false,
      "stateMutability": "view",
      "type": "function"
    },
    {
      "constant": true,
      "inputs": [
        {
          "internalType": "bytes32",
          "name": "asset",
          "type": "bytes32"
        }
      ],
      "name": "getRewardPercentage",
      "outputs": [
        {
          "internalType": "uint256",
          "name": "",
          "type": "uint256"
        }
      ],
      "payable": false,
      "stateMutability": "view",
      "type": "function"
    },
    {
      "constant": true,
      "inputs": [],
      "name": "manager",
      "outputs": [
        {
          "internalType": "address",
          "name": "",
          "type": "address"
        }
      ],
      "payable": false,
      "stateMutability": "view",
      "type": "function"
    },
    {
      "constant": true,
      "inputs": [],
      "name": "owner",
      "outputs": [
        {
          "internalType": "address",
          "name": "",
          "type": "address"
        }
      ],
      "payable": false,
      "stateMutability": "view",
      "type": "function"
    },
    {
      "constant": false,
      "inputs": [
        {
          "internalType": "bytes32",
          "name": "asset",
          "type": "bytes32"
        },
        {
          "internalType": "address",
          "name": "account",
          "type": "address"
        },
        {
          "internalType": "uint256",
          "name": "period",
          "type": "uint256"
        },
        {
          "internalType": "uint256",
          "name": "amount",
          "type": "uint256"
        }
      ],
      "name": "setClaimed",
      "outputs": [],
      "payable": false,
      "stateMutability": "nonpayable",
      "type": "function"
    },
    {
      "constant": false,
      "inputs": [
        {
          "internalType": "address",
          "name": "_manager",
          "type": "address"
        }
      ],
      "name": "setManager",
      "outputs": [],
      "payable": false,
      "stateMutability": "nonpayable",
      "type": "function"
    },
    {
      "constant": false,
      "inputs": [
        {
          "internalType": "address",
          "name": "_owner",
          "type": "address"
        }
      ],
      "name": "setOwner",
      "outputs": [],
      "payable": false,
      "stateMutability": "nonpayable",
      "type": "function"
    },
    {
      "constant": false,
      "inputs": [
        {
          "internalType": "bytes32",
          "name": "asset",
          "type": "bytes32"
        },
        {
          "internalType": "uint256",
          "name": "percentage",
          "type": "uint256"
        }
      ],
      "name": "setRewardPercentage",
      "outputs": [],
      "payable": false,
      "stateMutability": "nonpayable",
      "type": "function"
    },
    {
      "constant": false,
      "inputs": [
        {
          "internalType": "bytes32",
          "name": "asset",
          "type": "bytes32"
        },
        {
          "internalType": "address",
          "name": "account",
          "type": "address"
        },
        {
          "internalType": "uint256",
          "name": "period",
          "type": "uint256"
        },
        {
          "internalType": "uint256",
          "name": "amount",
          "type": "uint256"
        },
        {
          "internalType": "uint256",
          "name": "total",
          "type": "uint256"
        }
      ],
      "name": "setLocked",
      "outputs": [],
      "payable": false,
      "stateMutability": "nonpayable",
      "type": "function"
    },
    {
      "constant": true,
      "inputs": [
        {
          "internalType": "bytes32",
          "name": "asset",
          "type": "bytes32"
        },
        {
          "internalType": "address",
          "name": "account",
          "type": "address"
        },
        {
          "internalType": "uint256",
          "name": "period",
          "type": "uint256"
        }
      ],
      "name": "getLocked",
      "outputs": [
        {
          "internalType": "uint256",
          "name": "",
          "type": "uint256"
        }
      ],
      "payable": false,
      "stateMutability": "view",
      "type": "function"
    }
  ],
  "bytecode": "0x60806040526636b0b730b3b2b960c91b6003553480156200001f57600080fd5b5060405162001c5738038062001c57833981810160405260208110156200004557600080fd5b505160018054336001600160a01b03199182168117909255600280549091169091179055808062000076816200007f565b50505062000757565b60018054604080518082018252601981527f3a2063616c6c6572206973206e6f7420746865206f776e657200000000000000602080830191909152600080548451600261010098831615989098026000190190911696909604601f81018390048302870183019094528386526001600160a01b0390941633149462000171949293909291830182828015620001585780601f106200012c5761010080835404028352916020019162000158565b820191906000526020600020905b8154815290600101906020018083116200013a57829003601f168201915b5050505050620003b060201b62000de61790919060201c565b90620001fe5760405162461bcd60e51b81526004018080602001828103825283818151815260200191508051906020019080838360005b83811015620001c2578181015183820152602001620001a8565b50505050905090810190601f168015620001f05780820380516001836020036101000a031916815260200191505b509250505060405180910390fd5b5062000215816200046f60201b620010eb1760201c565b6040805180820190915260078082526653746f7261676560c81b60209092019182526200024591600091620006b2565b5060025460408051631d74303760e21b8152905162000394926001600160a01b0316916375d0c0dc916004808301926000929190829003018186803b1580156200028e57600080fd5b505afa158015620002a3573d6000803e3d6000fd5b505050506040513d6000823e601f3d908101601f191682016040526020811015620002cd57600080fd5b8101908080516040519392919084640100000000821115620002ee57600080fd5b9083019060208201858111156200030457600080fd5b82516401000000008111828201881017156200031f57600080fd5b82525081516020918201929091019080838360005b838110156200034e57818101518382015260200162000334565b50505050905090810190601f1680156200037c5780820380516001836020036101000a031916815260200191505b50604052505050620006ab60201b620013061760201c565b6003819055620003ad576636b0b730b3b2b960c91b6003555b50565b606082826040516020018083805190602001908083835b60208310620003e85780518252601f199092019160209182019101620003c7565b51815160209384036101000a600019018019909216911617905285519190930192850191508083835b60208310620004325780518252601f19909201916020918201910162000411565b6001836020036101000a03801982511681845116808217855250505050505090500192505050604051602081830303815290604052905092915050565b60018054604080518082018252601981527f3a2063616c6c6572206973206e6f7420746865206f776e657200000000000000602080830191909152600080548451600261010098831615989098026000190190911696909604601f81018390048302870183019094528386526001600160a01b039094163314946200051c949293909291830182828015620001585780601f106200012c5761010080835404028352916020019162000158565b906200056b5760405162461bcd60e51b8152602060048201818152835160248401528351909283926044909101919085019080838360008315620001c2578181015183820152602001620001a8565b5060006001600160a01b0316816001600160a01b03161415620005ff60405180606001604052806021815260200162001c36602191396000805460408051602060026001851615610100026000190190941693909304601f81018490048402820184019092528181529291830182828015620001585780601f106200012c5761010080835404028352916020019162000158565b906200064e5760405162461bcd60e51b8152602060048201818152835160248401528351909283926044909101919085019080838360008315620001c2578181015183820152602001620001a8565b506002546040516001600160a01b038084169216907f605c2dbf762e5f7d60a546d42e7205dcb1b011ebc62a61736a57c9089d3a435090600090a3600280546001600160a01b0319166001600160a01b0392909216919091179055565b6020015190565b828054600181600116156101000203166002900490600052602060002090601f016020900481019282601f10620006f557805160ff191683800117855562000725565b8280016001018555821562000725579182015b828111156200072557825182559160200191906001019062000708565b506200073392915062000737565b5090565b6200075491905b808211156200073357600081556001016200073e565b90565b6114cf80620007676000396000f3fe608060405234801561001057600080fd5b50600436106100995760003560e01c8063048a8b231461009e57806313af4035146100e2578063481c6a751461010a57806357ad5ef71461012e5780636a46d4d11461016c57806375d0c0dc14610189578063771c5c53146102065780638da5cb5b1461023e578063d0ebdbe714610246578063f0f99b541461026c578063f58bed041461029e575b600080fd5b6100d0600480360360608110156100b457600080fd5b508035906001600160a01b0360208201351690604001356102c1565b60408051918252519081900360200190f35b610108600480360360208110156100f857600080fd5b50356001600160a01b0316610377565b005b61011261061f565b604080516001600160a01b039092168252519081900360200190f35b610108600480360360a081101561014457600080fd5b508035906001600160a01b03602082013516906040810135906060810135906080013561062e565b6100d06004803603602081101561018257600080fd5b503561077b565b61019161078d565b6040805160208082528351818301528351919283929083019185019080838360005b838110156101cb5781810151838201526020016101b3565b50505050905090810190601f1680156101f85780820380516001836020036101000a031916815260200191505b509250505060405180910390f35b6101086004803603608081101561021c57600080fd5b508035906001600160a01b03602082013516906040810135906060013561081b565b610112610a3b565b6101086004803603602081101561025c57600080fd5b50356001600160a01b0316610a4a565b6100d06004803603606081101561028257600080fd5b508035906001600160a01b036020820135169060400135610cb7565b610108600480360360408110156102b457600080fd5b5080359060200135610ce6565b60006102cb6113a4565b5060008481526006602090815260408083206001600160a01b0387168452825280832085845282529182902082518084019093528054835260010154908201819052610356575060008481526006602090815260408083206001600160a01b03871684528252808320602d60f81b845282529182902082518084019093528054835260010154908201525b8051831015610369576000915050610370565b6020015190505b9392505050565b600180546040805180820182526019815260008051602061145a833981519152602080830191909152600080548451600261010098831615989098026000190190911696909604601f81018390048302870183019094528386526001600160a01b0390941633149461044c9492939092918301828280156104395780601f1061040e57610100808354040283529160200191610439565b820191906000526020600020905b81548152906001019060200180831161041c57829003601f168201915b5050505050610de690919063ffffffff16565b906104d55760405162461bcd60e51b81526004018080602001828103825283818151815260200191508051906020019080838360005b8381101561049a578181015183820152602001610482565b50505050905090810190601f1680156104c75780820380516001836020036101000a031916815260200191505b509250505060405180910390fd5b50604080518082018252601f8082527f3a206e6577206f776e657220697320746865207a65726f206164647265737300602080840191909152600080548551600260001961010060018516150201909216919091049384018390048302810183019095528285526001600160a01b038616151594610576949390928301828280156104395780601f1061040e57610100808354040283529160200191610439565b906105c25760405162461bcd60e51b815260206004820181815283516024840152835190928392604490910191908501908083836000831561049a578181015183820152602001610482565b506001546040516001600160a01b038084169216907fb532073b38c83145e3e5135377a08bf9aab55bc0fd7c1179cd4fb995d2a5159c90600090a3600180546001600160a01b0319166001600160a01b0392909216919091179055565b6002546001600160a01b031681565b60035460028054604080518082018252601481527301d1031b0b63632b91034b9903737ba103a3432960651b6020808301919091526000805484516101006001831615026000190190911696909604601f81018390048302870183019094528386526001600160a01b0390941633149461070d949293879391928301828280156106f95780601f106106ce576101008083540402835291602001916106f9565b820191906000526020600020905b8154815290600101906020018083116106dc57829003601f168201915b5050505050610ea19092919063ffffffff16565b906107595760405162461bcd60e51b815260206004820181815283516024840152835190928392604490910191908501908083836000831561049a578181015183820152602001610482565b5061076686868686610f5a565b6107738660008685610f5a565b505050505050565b60009081526004602052604090205490565b6000805460408051602060026001851615610100026000190190941693909304601f810184900484028201840190925281815292918301828280156108135780601f106107e857610100808354040283529160200191610813565b820191906000526020600020905b8154815290600101906020018083116107f657829003601f168201915b505050505081565b60035460028054604080518082018252601481527301d1031b0b63632b91034b9903737ba103a3432960651b6020808301919091526000805484516101006001831615026000190190911696909604601f81018390048302870183019094528386526001600160a01b039094163314946108bb949293879391928301828280156106f95780601f106106ce576101008083540402835291602001916106f9565b906109075760405162461bcd60e51b815260206004820181815283516024840152835190928392604490910191908501908083836000831561049a578181015183820152602001610482565b5060008581526005602090815260408083206001600160a01b0388168452825280832086845290915290205415610985576040805162461bcd60e51b815260206004820152601f60248201527f5265776172647353746f726167653a20616c726561647920636c61696d656400604482015290519081900360640190fd5b60008581526005602090815260408083206001600160a01b038816845282528083208684529091529020546109c0908363ffffffff61109316565b60008681526005602090815260408083206001600160a01b038916845280835281842088855283528184209490945582805292815282822086835290522054610a0f908363ffffffff61109316565b600095865260056020908152604080882088805282528088209588529490529290942091909155505050565b6001546001600160a01b031681565b600180546040805180820182526019815260008051602061145a833981519152602080830191909152600080548451600261010098831615989098026000190190911696909604601f81018390048302870183019094528386526001600160a01b03909416331494610ae19492939092918301828280156104395780601f1061040e57610100808354040283529160200191610439565b90610b2d5760405162461bcd60e51b815260206004820181815283516024840152835190928392604490910191908501908083836000831561049a578181015183820152602001610482565b50610b37816110eb565b6040805180820190915260078082526653746f7261676560c81b6020909201918252610b65916000916113be565b5060025460408051631d74303760e21b81529051610c9c926001600160a01b0316916375d0c0dc916004808301926000929190829003018186803b158015610bac57600080fd5b505afa158015610bc0573d6000803e3d6000fd5b505050506040513d6000823e601f3d908101601f191682016040526020811015610be957600080fd5b8101908080516040519392919084600160201b821115610c0857600080fd5b908301906020820185811115610c1d57600080fd5b8251600160201b811182820188101715610c3657600080fd5b82525081516020918201929091019080838360005b83811015610c63578181015183820152602001610c4b565b50505050905090810190601f168015610c905780820380516001836020036101000a031916815260200191505b50604052505050611306565b6003819055610cb4576636b0b730b3b2b960c91b6003555b50565b60009283526005602090815260408085206001600160a01b039490941685529281528284209184525290205490565b60035460028054604080518082018252601481527301d1031b0b63632b91034b9903737ba103a3432960651b6020808301919091526000805484516101006001831615026000190190911696909604601f81018390048302870183019094528386526001600160a01b03909416331494610d86949293879391928301828280156106f95780601f106106ce576101008083540402835291602001916106f9565b90610dd25760405162461bcd60e51b815260206004820181815283516024840152835190928392604490910191908501908083836000831561049a578181015183820152602001610482565b505060009182526004602052604090912055565b606082826040516020018083805190602001908083835b60208310610e1c5780518252601f199092019160209182019101610dfd565b51815160209384036101000a600019018019909216911617905285519190930192850191508083835b60208310610e645780518252601f199092019160209182019101610e45565b6001836020036101000a03801982511681845116808217855250505050505090500192505050604051602081830303815290604052905092915050565b60608383836040516020018084805190602001908083835b60208310610ed85780518252601f199092019160209182019101610eb9565b51815160209384036101000a600019018019909216911617905286519190930192860191508083835b60208310610f205780518252601f199092019160209182019101610f01565b51815160209384036101000a6000190180199092169116179052920193845250604080518085038152939091019052509695505050505050565b60008481526006602090815260408083206001600160a01b038716845282528083208584529091529020600101548290158015610fc7575060008581526006602090815260408083206001600160a01b03881684528252808320602d60f81b845290915290206001015415155b156110335760008581526006602090815260408083206001600160a01b038816808552818452828520602d60f81b86528085529285209085529252909161101586600163ffffffff61130d16565b81526020810191909152604001600020815481556001918201549101555b60408051808201825293845260208085019384526000968752600681528187206001600160a01b039690961687529485528086209186529352828420915180835590516001928301908155602d60f81b8552929093209283559054910155565b600082820183811015610370576040805162461bcd60e51b815260206004820152601b60248201527a536166654d6174683a206164646974696f6e206f766572666c6f7760281b604482015290519081900360640190fd5b600180546040805180820182526019815260008051602061145a833981519152602080830191909152600080548451600261010098831615989098026000190190911696909604601f81018390048302870183019094528386526001600160a01b039094163314946111829492939092918301828280156104395780601f1061040e57610100808354040283529160200191610439565b906111ce5760405162461bcd60e51b815260206004820181815283516024840152835190928392604490910191908501908083836000831561049a578181015183820152602001610482565b5060006001600160a01b0316816001600160a01b0316141561125d60405180606001604052806021815260200161147a602191396000805460408051602060026001851615610100026000190190941693909304601f810184900484028201840190925281815292918301828280156104395780601f1061040e57610100808354040283529160200191610439565b906112a95760405162461bcd60e51b815260206004820181815283516024840152835190928392604490910191908501908083836000831561049a578181015183820152602001610482565b506002546040516001600160a01b038084169216907f605c2dbf762e5f7d60a546d42e7205dcb1b011ebc62a61736a57c9089d3a435090600090a3600280546001600160a01b0319166001600160a01b0392909216919091179055565b6020015190565b600061037083836040518060400160405280601e81526020017f536166654d6174683a207375627472616374696f6e206f766572666c6f7700008152506000818484111561139c5760405162461bcd60e51b815260206004820181815283516024840152835190928392604490910191908501908083836000831561049a578181015183820152602001610482565b505050900390565b604051806040016040528060008152602001600081525090565b828054600181600116156101000203166002900490600052602060002090601f016020900481019282601f106113ff57805160ff191683800117855561142c565b8280016001018555821561142c579182015b8281111561142c578251825591602001919060010190611411565b5061143892915061143c565b5090565b61145691905b808211156114385760008155600101611442565b9056fe3a2063616c6c6572206973206e6f7420746865206f776e6572000000000000003a206e6577206d616e6167657220697320746865207a65726f2061646472657373a265627a7a72315820785d60fbaf7b8440d606654250e00560ca93186de95fdba1bc1a0dd6b9b8a0cb64736f6c634300051100323a206e6577206d616e6167657220697320746865207a65726f2061646472657373",
  "source": "pragma solidity ^0.5.17;\n\nimport './RewardsStorage.sol';\nimport '../interfaces/storages/IHolderStorage.sol';\n\ncontract HolderStorage is RewardsStorage, IHolderStorage {\n    mapping(bytes32 => mapping(address => mapping(bytes32 => Locked))) private _storage;\n\n    constructor(address _manager) public RewardsStorage(_manager) {}\n\n    function setLocked(\n        bytes32 asset,\n        address account,\n        uint256 period,\n        uint256 amount,\n        uint256 total\n    ) external onlyManager(managerName) {\n        _setLocked(asset, account, period, amount);\n        _setLocked(asset, address(0), period, total);\n    }\n\n    function _setLocked(\n        bytes32 asset,\n        address account,\n        uint256 period,\n        uint256 amount\n    ) private {\n        bytes32 PERIOD = bytes32(period);\n        if (_storage[asset][account][PERIOD].amount == 0 && _storage[asset][account][DEFAULT].amount > 0)\n            _storage[asset][account][bytes32(period.sub(1))] = _storage[asset][account][DEFAULT];\n\n        _storage[asset][account][PERIOD] = Locked(period, amount);\n        _storage[asset][account][DEFAULT] = _storage[asset][account][PERIOD];\n    }\n\n    function getLocked(\n        bytes32 asset,\n        address account,\n        uint256 period\n    ) external view returns (uint256) {\n        Locked memory locked = _storage[asset][account][bytes32(period)];\n        if (locked.amount == 0) locked = _storage[asset][account][DEFAULT];\n        if (locked.period > period) return 0;\n        return locked.amount;\n    }\n}\n",
  "sourcePath": "/Users/sun/go/src/github.com/Dipper-Labs/DIPSYN/contracts/storages/HolderStorage.sol",
  "compiler": {
    "name": "solc",
    "version": "0.5.17+commit.d19bba13.Emscripten.clang"
  },
  "schemaVersion": "3.3.4",
  "updatedAt": "2021-04-21T06:45:45.927Z",
  "networkType": "ethereum",
  "devdoc": {
    "methods": {}
  },
  "userdoc": {
    "methods": {}
  }
}