{
  "contractName": "Holder",
  "abi": [
    {
      "inputs": [
        {
          "internalType": "contract IResolver",
          "name": "_resolver",
          "type": "address"
        }
      ],
      "payable": false,
      "stateMutability": "nonpayable",
      "type": "constructor"
    },
    {
      "anonymous": false,
      "inputs": [
        {
          "indexed": true,
          "internalType": "address",
          "name": "previousValue",
          "type": "address"
        },
        {
          "indexed": true,
          "internalType": "address",
          "name": "newValue",
          "type": "address"
        }
      ],
      "name": "ManagerChanged",
      "type": "event"
    },
    {
      "anonymous": false,
      "inputs": [
        {
          "indexed": true,
          "internalType": "address",
          "name": "previousValue",
          "type": "address"
        },
        {
          "indexed": true,
          "internalType": "address",
          "name": "newValue",
          "type": "address"
        }
      ],
      "name": "OwnerChanged",
      "type": "event"
    },
    {
      "anonymous": false,
      "inputs": [
        {
          "indexed": true,
          "internalType": "bytes32",
          "name": "asset",
          "type": "bytes32"
        },
        {
          "indexed": false,
          "internalType": "uint256",
          "name": "previousValue",
          "type": "uint256"
        },
        {
          "indexed": false,
          "internalType": "uint256",
          "name": "newValue",
          "type": "uint256"
        }
      ],
      "name": "RewardPercentageChanged",
      "type": "event"
    },
    {
      "anonymous": false,
      "inputs": [
        {
          "indexed": true,
          "internalType": "address",
          "name": "previousValue",
          "type": "address"
        },
        {
          "indexed": true,
          "internalType": "address",
          "name": "newValue",
          "type": "address"
        }
      ],
      "name": "StorageChanged",
      "type": "event"
    },
    {
      "constant": true,
      "inputs": [],
      "name": "LOCK_ADDRESS",
      "outputs": [
        {
          "internalType": "address",
          "name": "",
          "type": "address"
        }
      ],
      "payable": false,
      "stateMutability": "view",
      "type": "function"
    },
    {
      "constant": false,
      "inputs": [
        {
          "internalType": "bytes32",
          "name": "name",
          "type": "bytes32"
        }
      ],
      "name": "addAddress",
      "outputs": [],
      "payable": false,
      "stateMutability": "nonpayable",
      "type": "function"
    },
    {
      "constant": true,
      "inputs": [],
      "name": "contractName",
      "outputs": [
        {
          "internalType": "string",
          "name": "",
          "type": "string"
        }
      ],
      "payable": false,
      "stateMutability": "view",
      "type": "function"
    },
    {
      "constant": true,
      "inputs": [
        {
          "internalType": "bytes32",
          "name": "name",
          "type": "bytes32"
        }
      ],
      "name": "getAddress",
      "outputs": [
        {
          "internalType": "address",
          "name": "",
          "type": "address"
        }
      ],
      "payable": false,
      "stateMutability": "view",
      "type": "function"
    },
    {
      "constant": true,
      "inputs": [
        {
          "internalType": "bytes32",
          "name": "asset",
          "type": "bytes32"
        },
        {
          "internalType": "address",
          "name": "account",
          "type": "address"
        },
        {
          "internalType": "uint256",
          "name": "period",
          "type": "uint256"
        }
      ],
      "name": "getClaimed",
      "outputs": [
        {
          "internalType": "uint256",
          "name": "",
          "type": "uint256"
        }
      ],
      "payable": false,
      "stateMutability": "view",
      "type": "function"
    },
    {
      "constant": true,
      "inputs": [],
      "name": "getImports",
      "outputs": [
        {
          "internalType": "bytes32[]",
          "name": "",
          "type": "bytes32[]"
        }
      ],
      "payable": false,
      "stateMutability": "view",
      "type": "function"
    },
    {
      "constant": true,
      "inputs": [
        {
          "internalType": "bytes32",
          "name": "asset",
          "type": "bytes32"
        }
      ],
      "name": "getRewardPercentage",
      "outputs": [
        {
          "internalType": "uint256",
          "name": "",
          "type": "uint256"
        }
      ],
      "payable": false,
      "stateMutability": "view",
      "type": "function"
    },
    {
      "constant": true,
      "inputs": [],
      "name": "getStorage",
      "outputs": [
        {
          "internalType": "address",
          "name": "",
          "type": "address"
        }
      ],
      "payable": false,
      "stateMutability": "view",
      "type": "function"
    },
    {
      "constant": true,
      "inputs": [],
      "name": "manager",
      "outputs": [
        {
          "internalType": "address",
          "name": "",
          "type": "address"
        }
      ],
      "payable": false,
      "stateMutability": "view",
      "type": "function"
    },
    {
      "constant": true,
      "inputs": [],
      "name": "owner",
      "outputs": [
        {
          "internalType": "address",
          "name": "",
          "type": "address"
        }
      ],
      "payable": false,
      "stateMutability": "view",
      "type": "function"
    },
    {
      "constant": false,
      "inputs": [],
      "name": "refreshCache",
      "outputs": [],
      "payable": false,
      "stateMutability": "nonpayable",
      "type": "function"
    },
    {
      "constant": true,
      "inputs": [],
      "name": "resolver",
      "outputs": [
        {
          "internalType": "contract IResolver",
          "name": "",
          "type": "address"
        }
      ],
      "payable": false,
      "stateMutability": "view",
      "type": "function"
    },
    {
      "constant": false,
      "inputs": [
        {
          "internalType": "address",
          "name": "_manager",
          "type": "address"
        }
      ],
      "name": "setManager",
      "outputs": [],
      "payable": false,
      "stateMutability": "nonpayable",
      "type": "function"
    },
    {
      "constant": false,
      "inputs": [
        {
          "internalType": "address",
          "name": "_owner",
          "type": "address"
        }
      ],
      "name": "setOwner",
      "outputs": [],
      "payable": false,
      "stateMutability": "nonpayable",
      "type": "function"
    },
    {
      "constant": false,
      "inputs": [
        {
          "internalType": "bytes32",
          "name": "asset",
          "type": "bytes32"
        },
        {
          "internalType": "uint256",
          "name": "percentage",
          "type": "uint256"
        }
      ],
      "name": "setRewardPercentage",
      "outputs": [],
      "payable": false,
      "stateMutability": "nonpayable",
      "type": "function"
    },
    {
      "constant": false,
      "inputs": [
        {
          "internalType": "address",
          "name": "value",
          "type": "address"
        }
      ],
      "name": "setStorage",
      "outputs": [],
      "payable": false,
      "stateMutability": "nonpayable",
      "type": "function"
    },
    {
      "constant": false,
      "inputs": [
        {
          "internalType": "bytes32",
          "name": "asset",
          "type": "bytes32"
        },
        {
          "internalType": "address",
          "name": "account",
          "type": "address"
        },
        {
          "internalType": "uint256",
          "name": "amount",
          "type": "uint256"
        }
      ],
      "name": "lock",
      "outputs": [],
      "payable": false,
      "stateMutability": "nonpayable",
      "type": "function"
    },
    {
      "constant": false,
      "inputs": [
        {
          "internalType": "bytes32",
          "name": "asset",
          "type": "bytes32"
        },
        {
          "internalType": "address",
          "name": "account",
          "type": "address"
        },
        {
          "internalType": "uint256",
          "name": "amount",
          "type": "uint256"
        }
      ],
      "name": "unlock",
      "outputs": [],
      "payable": false,
      "stateMutability": "nonpayable",
      "type": "function"
    },
    {
      "constant": true,
      "inputs": [
        {
          "internalType": "bytes32",
          "name": "asset",
          "type": "bytes32"
        },
        {
          "internalType": "address",
          "name": "account",
          "type": "address"
        }
      ],
      "name": "getLocked",
      "outputs": [
        {
          "internalType": "uint256",
          "name": "",
          "type": "uint256"
        }
      ],
      "payable": false,
      "stateMutability": "view",
      "type": "function"
    },
    {
      "constant": true,
      "inputs": [
        {
          "internalType": "bytes32",
          "name": "asset",
          "type": "bytes32"
        }
      ],
      "name": "getTotalLocked",
      "outputs": [
        {
          "internalType": "uint256",
          "name": "",
          "type": "uint256"
        }
      ],
      "payable": false,
      "stateMutability": "view",
      "type": "function"
    },
    {
      "constant": true,
      "inputs": [
        {
          "internalType": "bytes32",
          "name": "asset",
          "type": "bytes32"
        },
        {
          "internalType": "address",
          "name": "account",
          "type": "address"
        },
        {
          "internalType": "uint256",
          "name": "period",
          "type": "uint256"
        }
      ],
      "name": "getPeriodLocked",
      "outputs": [
        {
          "internalType": "uint256",
          "name": "",
          "type": "uint256"
        }
      ],
      "payable": false,
      "stateMutability": "view",
      "type": "function"
    },
    {
      "constant": false,
      "inputs": [
        {
          "internalType": "bytes32",
          "name": "asset",
          "type": "bytes32"
        },
        {
          "internalType": "address",
          "name": "account",
          "type": "address"
        }
      ],
      "name": "claim",
      "outputs": [
        {
          "internalType": "uint256",
          "name": "period",
          "type": "uint256"
        },
        {
          "internalType": "uint256",
          "name": "amount",
          "type": "uint256"
        },
        {
          "internalType": "uint256",
          "name": "vestTime",
          "type": "uint256"
        }
      ],
      "payable": false,
      "stateMutability": "nonpayable",
      "type": "function"
    },
    {
      "constant": true,
      "inputs": [
        {
          "internalType": "bytes32",
          "name": "asset",
          "type": "bytes32"
        },
        {
          "internalType": "address",
          "name": "account",
          "type": "address"
        }
      ],
      "name": "getClaimable",
      "outputs": [
        {
          "internalType": "uint256",
          "name": "",
          "type": "uint256"
        }
      ],
      "payable": false,
      "stateMutability": "view",
      "type": "function"
    }
  ],
  "bytecode": "0x60806040523480156200001157600080fd5b5060405162002dff38038062002dff833981810160405260208110156200003757600080fd5b505160018054336001600160a01b03199182168117909255600280548216909217909155600380549091166001600160a01b03831617905562000083652437b63232b960d11b620000e0565b6040518060600160405280650a6f2dce8d0f60d31b81526020016d537570706c795363686564756c6560901b81526020016a29bcb73a343c2a37b5b2b760a91b8152506004906003620000d892919062000111565b5050620001f3565b60408051602080820184905282518083038201815291830190925280516200010d92600092019062000161565b5050565b8280548282559060005260206000209081019282156200014f579160200282015b828111156200014f57825182559160200191906001019062000132565b506200015d929150620001d3565b5090565b828054600181600116156101000203166002900490600052602060002090601f016020900481019282601f10620001a457805160ff19168380011785556200014f565b828001600101855582156200014f57918201828111156200014f57825182559160200191906001019062000132565b620001f091905b808211156200015d5760008155600101620001da565b90565b612bfc80620002036000396000f3fe608060405234801561001057600080fd5b506004361061011d5760003560e01c806304f3bcec146101225780630899146b14610146578063126779c21461017a57806313af4035146101d257806321f8a721146101f85780632e7b5474146102155780633408f73a146102535780634176bf341461025b578063476323821461028d578063481c6a75146102955780636a46d4d11461029d5780636dea30e7146102ba5780636f5531c5146102ec57806375d0c0dc146103185780638aed3c32146103955780638da5cb5b146103b25780639137c1a7146103ba57806396c144f0146103e0578063a3a4f7481461042a578063d0ebdbe714610447578063d5c2c8ca1461046d578063f0f99b5414610475578063f58bed04146104a7575b600080fd5b61012a6104ca565b604080516001600160a01b039092168252519081900360200190f35b6101786004803603606081101561015c57600080fd5b508035906001600160a01b0360208201351690604001356104d9565b005b610182610701565b60408051602080825283518183015283519192839290830191858101910280838360005b838110156101be5781810151838201526020016101a6565b505050509050019250505060405180910390f35b610178600480360360208110156101e857600080fd5b50356001600160a01b0316610759565b61012a6004803603602081101561020e57600080fd5b50356109c4565b6102416004803603604081101561022b57600080fd5b50803590602001356001600160a01b03166109e2565b60408051918252519081900360200190f35b61012a610a77565b6102416004803603606081101561027157600080fd5b508035906001600160a01b036020820135169060400135610b6d565b61012a610c12565b61012a610c2a565b610241600480360360208110156102b357600080fd5b5035610c39565b610178600480360360608110156102d057600080fd5b508035906001600160a01b036020820135169060400135610cb8565b6102416004803603604081101561030257600080fd5b50803590602001356001600160a01b0316610e27565b610320611033565b6040805160208082528351818301528351919283929083019185019080838360005b8381101561035a578181015183820152602001610342565b50505050905090810190601f1680156103875780820380516001836020036101000a031916815260200191505b509250505060405180910390f35b610178600480360360208110156103ab57600080fd5b50356110c1565b61012a61127a565b610178600480360360208110156103d057600080fd5b50356001600160a01b0316611289565b61040c600480360360408110156103f657600080fd5b50803590602001356001600160a01b03166113c9565b60408051938452602084019290925282820152519081900360600190f35b6102416004803603602081101561044057600080fd5b503561158e565b6101786004803603602081101561045d57600080fd5b50356001600160a01b03166115d1565b6101786117ec565b6102416004803603606081101561048b57600080fd5b508035906001600160a01b0360208201351690604001356119a5565b610178600480360360408110156104bd57600080fd5b5080359060200135611a14565b6003546001600160a01b031681565b650a6f2dce8d0f60d31b600081815260056020908152600080516020612b5d83398151915254604080518082018252601481527301d1031b0b63632b91034b9903737ba103a3432960651b818501528454825160026101006001841615026000190190921691909104601f81018690048602820186019093528281526001600160a01b039093163314946105d2949193879390928301828280156105be5780601f10610593576101008083540402835291602001916105be565b820191906000526020600020905b8154815290600101906020018083116105a157829003601f168201915b5050505050611d869092919063ffffffff16565b9061065b5760405162461bcd60e51b81526004018080602001828103825283818151815260200191508051906020019080838360005b83811015610620578181015183820152602001610608565b50505050905090810190601f16801561064d5780820380516001836020036101000a031916815260200191505b509250505060405180910390fd5b5061066584611e3f565b6001600160a01b031663282d3fdf84846040518363ffffffff1660e01b815260040180836001600160a01b03166001600160a01b0316815260200182815260200192505050602060405180830381600087803b1580156106c457600080fd5b505af11580156106d8573d6000803e3d6000fd5b505050506040513d60208110156106ee57600080fd5b506106fb90508484611e52565b50505050565b6060600480548060200260200160405190810160405280929190818152602001828054801561074f57602002820191906000526020600020905b81548152602001906001019080831161073b575b5050505050905090565b6001805460408051808201825260198152600080516020612ac5833981519152602080830191909152600080548451600261010098831615989098026000190190911696909604601f81018390048302870183019094528386526001600160a01b0390941633149461082e94929390929183018282801561081b5780601f106107f05761010080835404028352916020019161081b565b820191906000526020600020905b8154815290600101906020018083116107fe57829003601f168201915b5050505050611fea90919063ffffffff16565b9061087a5760405162461bcd60e51b8152602060048201818152835160248401528351909283926044909101919085019080838360008315610620578181015183820152602001610608565b50604080518082018252601f8082527f3a206e6577206f776e657220697320746865207a65726f206164647265737300602080840191909152600080548551600260001961010060018516150201909216919091049384018390048302810183019095528285526001600160a01b03861615159461091b9493909283018282801561081b5780601f106107f05761010080835404028352916020019161081b565b906109675760405162461bcd60e51b8152602060048201818152835160248401528351909283926044909101919085019080838360008315610620578181015183820152602001610608565b506001546040516001600160a01b038084169216907fb532073b38c83145e3e5135377a08bf9aab55bc0fd7c1179cd4fb995d2a5159c90600090a3600180546001600160a01b0319166001600160a01b0392909216919091179055565b6000818152600560205260409020546001600160a01b03165b919050565b60006109ed83611e3f565b6001600160a01b031663bc22fd1b836040518263ffffffff1660e01b815260040180826001600160a01b03166001600160a01b0316815260200191505060206040518083038186803b158015610a4257600080fd5b505afa158015610a56573d6000803e3d6000fd5b505050506040513d6020811015610a6c57600080fd5b505190505b92915050565b60065460408051808201825260118152700e8814dd1bdc9859d9481b9bdd081cd95d607a1b60208083019190915260008054845160026101006001841615026000190190921691909104601f810184900484028201840190955284815290946001600160a01b0316151593610b10939286919083018282801561081b5780601f106107f05761010080835404028352916020019161081b565b90610b5c5760405162461bcd60e51b8152602060048201818152835160248401528351909283926044909101919085019080838360008315610620578181015183820152602001610608565b50506006546001600160a01b031690565b6000610b776120a5565b6001600160a01b031663048a8b238585856040518463ffffffff1660e01b815260040180848152602001836001600160a01b03166001600160a01b03168152602001828152602001935050505060206040518083038186803b158015610bdc57600080fd5b505afa158015610bf0573d6000803e3d6000fd5b505050506040513d6020811015610c0657600080fd5b505190505b9392505050565b73010c10c10c10c10c10c10c10c10c10c10c10c10c81565b6002546001600160a01b031681565b6000610c436120a5565b6001600160a01b0316636a46d4d1836040518263ffffffff1660e01b81526004018082815260200191505060206040518083038186803b158015610c8657600080fd5b505afa158015610c9a573d6000803e3d6000fd5b505050506040513d6020811015610cb057600080fd5b505192915050565b650a6f2dce8d0f60d31b600081815260056020908152600080516020612b5d83398151915254604080518082018252601481527301d1031b0b63632b91034b9903737ba103a3432960651b818501528454825160026101006001841615026000190190921691909104601f81018690048602820186019093528281526001600160a01b03909316331494610d72949193879390928301828280156105be5780601f10610593576101008083540402835291602001916105be565b90610dbe5760405162461bcd60e51b8152602060048201818152835160248401528351909283926044909101919085019080838360008315610620578181015183820152602001610608565b50610dc884611e3f565b6001600160a01b0316637eee288d84846040518363ffffffff1660e01b815260040180836001600160a01b03166001600160a01b0316815260200182815260200192505050602060405180830381600087803b1580156106c457600080fd5b600080610e3384610c39565b905060008111610e745760405162461bcd60e51b8152600401808060200182810382526024815260200180612ae56024913960400191505060405180910390fd5b6000610e88652437b63232b960d11b6120b4565b905080610e9a57600092505050610a71565b6000610ea46121c3565b90506000610eb38787846119a5565b1115610ec55760009350505050610a71565b6000610ecf6120a5565b6040805163048a8b2360e01b8152600481018a9052600060248201526044810185905290516001600160a01b03929092169163048a8b2391606480820192602092909190829003018186803b158015610f2757600080fd5b505afa158015610f3b573d6000803e3d6000fd5b505050506040513d6020811015610f5157600080fd5b505190506000610f5f6120a5565b6001600160a01b031663048a8b238989866040518463ffffffff1660e01b815260040180848152602001836001600160a01b03166001600160a01b03168152602001828152602001935050505060206040518083038186803b158015610fc457600080fd5b505afa158015610fd8573d6000803e3d6000fd5b505050506040513d6020811015610fee57600080fd5b505190506000611004828463ffffffff61225816565b90506110268161101a878963ffffffff61226d16565b9063ffffffff61226d16565b9998505050505050505050565b6000805460408051602060026001851615610100026000190190941693909304601f810184900484028201840190925281815292918301828280156110b95780601f1061108e576101008083540402835291602001916110b9565b820191906000526020600020905b81548152906001019060200180831161109c57829003601f168201915b505050505081565b6001805460408051808201825260198152600080516020612ac5833981519152602080830191909152600080548451600261010098831615989098026000190190911696909604601f81018390048302870183019094528386526001600160a01b0390941633149461115894929390929183018282801561081b5780601f106107f05761010080835404028352916020019161081b565b906111a45760405162461bcd60e51b8152602060048201818152835160248401528351909283926044909101919085019080838360008315610620578181015183820152602001610608565b50600354604080516321f8a72160e01b81526004810184905290516001600160a01b03909216916321f8a72191602480820192602092909190829003018186803b1580156111f157600080fd5b505afa158015611205573d6000803e3d6000fd5b505050506040513d602081101561121b57600080fd5b5051600082815260056020526040812080546001600160a01b0319166001600160a01b03909316929092179091556004805460018101825591527f8a35acfbc15ff81a39ae7d344fd709f28e8600b4aa8c65c6b64bfe7fe36bd19b0155565b6001546001600160a01b031681565b6001805460408051808201825260198152600080516020612ac5833981519152602080830191909152600080548451600261010098831615989098026000190190911696909604601f81018390048302870183019094528386526001600160a01b0390941633149461132094929390929183018282801561081b5780601f106107f05761010080835404028352916020019161081b565b9061136c5760405162461bcd60e51b8152602060048201818152835160248401528351909283926044909101919085019080838360008315610620578181015183820152602001610608565b506006546040516001600160a01b038084169216907f85a70e3ed8a3924b3769cbe4e925987bbd40e8cea31487cbe13bee7b727310a490600090a3600680546001600160a01b0319166001600160a01b0392909216919091179055565b650a6f2dce8d0f60d31b600081815260056020908152600080516020612b5d83398151915254604080518082018252601481527301d1031b0b63632b91034b9903737ba103a3432960651b818501528454825160026101006001841615026000190190921691909104601f810186900486028201860190935282815294958695869591946001600160a01b0316331493611489939286929188918301828280156105be5780601f10610593576101008083540402835291602001916105be565b906114d55760405162461bcd60e51b8152602060048201818152835160248401528351909283926044909101919085019080838360008315610620578181015183820152602001610608565b5060006114e28787610e27565b905060008111611535576040805162461bcd60e51b8152602060048201526019602482015278486f6c6465723a20636c61696d61626c65206973207a65726f60381b604482015290519081900360640190fd5b600061153f6121c3565b905061154d88888385612282565b61157f87836115696a29bcb73a343c2a37b5b2b760a91b612317565b6001600160a01b0316919063ffffffff61241d16565b97909650600095509350505050565b600061159982611e3f565b6001600160a01b031663f4732da66040518163ffffffff1660e01b815260040160206040518083038186803b158015610c8657600080fd5b6001805460408051808201825260198152600080516020612ac5833981519152602080830191909152600080548451600261010098831615989098026000190190911696909604601f81018390048302870183019094528386526001600160a01b0390941633149461166894929390929183018282801561081b5780601f106107f05761010080835404028352916020019161081b565b906116b45760405162461bcd60e51b8152602060048201818152835160248401528351909283926044909101919085019080838360008315610620578181015183820152602001610608565b5060006001600160a01b0316816001600160a01b03161415611743604051806060016040528060218152602001612b3c602191396000805460408051602060026001851615610100026000190190941693909304601f8101849004840282018401909252818152929183018282801561081b5780601f106107f05761010080835404028352916020019161081b565b9061178f5760405162461bcd60e51b8152602060048201818152835160248401528351909283926044909101919085019080838360008315610620578181015183820152602001610608565b506002546040516001600160a01b038084169216907f605c2dbf762e5f7d60a546d42e7205dcb1b011ebc62a61736a57c9089d3a435090600090a3600280546001600160a01b0319166001600160a01b0392909216919091179055565b6001805460408051808201825260198152600080516020612ac5833981519152602080830191909152600080548451600261010098831615989098026000190190911696909604601f81018390048302870183019094528386526001600160a01b0390941633149461188394929390929183018282801561081b5780601f106107f05761010080835404028352916020019161081b565b906118cf5760405162461bcd60e51b8152602060048201818152835160248401528351909283926044909101919085019080838360008315610620578181015183820152602001610608565b5060005b6004548110156119a2576000600482815481106118ec57fe5b60009182526020918290200154600354604080516321f8a72160e01b81526004810184905290519294506001600160a01b03909116926321f8a72192602480840193829003018186803b15801561194257600080fd5b505afa158015611956573d6000803e3d6000fd5b505050506040513d602081101561196c57600080fd5b505160009182526005602052604090912080546001600160a01b0319166001600160a01b039092169190911790556001016118d3565b50565b60006119af6120a5565b6001600160a01b031663f0f99b548585856040518463ffffffff1660e01b815260040180848152602001836001600160a01b03166001600160a01b03168152602001828152602001935050505060206040518083038186803b158015610bdc57600080fd5b6001805460408051808201825260198152600080516020612ac5833981519152602080830191909152600080548451600261010098831615989098026000190190911696909604601f81018390048302870183019094528386526001600160a01b03909416331494611aab94929390929183018282801561081b5780601f106107f05761010080835404028352916020019161081b565b90611af75760405162461bcd60e51b8152602060048201818152835160248401528351909283926044909101919085019080838360008315610620578181015183820152602001610608565b506000611b026120a5565b6001600160a01b0316636a46d4d164151bdd185b60da1b6040518263ffffffff1660e01b81526004018082815260200191505060206040518083038186803b158015611b4d57600080fd5b505afa158015611b61573d6000803e3d6000fd5b505050506040513d6020811015611b7757600080fd5b505190506000611b856120a5565b6001600160a01b0316636a46d4d1856040518263ffffffff1660e01b81526004018082815260200191505060206040518083038186803b158015611bc857600080fd5b505afa158015611bdc573d6000803e3d6000fd5b505050506040513d6020811015611bf257600080fd5b505190506000611c1884611c0c858563ffffffff61247416565b9063ffffffff6124b616565b9050611c2261250e565b811115611c605760405162461bcd60e51b8152600401808060200182810382526033815260200180612b096033913960400191505060405180910390fd5b611c686120a5565b6001600160a01b031663f58bed0486866040518363ffffffff1660e01b81526004018083815260200182815260200192505050600060405180830381600087803b158015611cb557600080fd5b505af1158015611cc9573d6000803e3d6000fd5b50505050611cd56120a5565b6001600160a01b031663f58bed0464151bdd185b60da1b836040518363ffffffff1660e01b81526004018083815260200182815260200192505050600060405180830381600087803b158015611d2a57600080fd5b505af1158015611d3e573d6000803e3d6000fd5b5050604080518581526020810188905281518994507feb1f8e19a3e5a8c01411c85a9778a20d61d45a82de2076dcc92a5a2b19c6821793509081900390910190a25050505050565b60608383836040516020018084805190602001908083835b60208310611dbd5780518252601f199092019160209182019101611d9e565b51815160209384036101000a600019018019909216911617905286519190930192860191508083835b60208310611e055780518252601f199092019160209182019101611de6565b51815160209384036101000a6000190180199092169116179052920193845250604080518085038152939091019052509695505050505050565b6000610a7163121bdb1960e21b8361251a565b6000611e5d83611e3f565b9050611e676120a5565b6001600160a01b03166357ad5ef78484611e7f61268a565b856001600160a01b031663bc22fd1b886040518263ffffffff1660e01b815260040180826001600160a01b03166001600160a01b0316815260200191505060206040518083038186803b158015611ed557600080fd5b505afa158015611ee9573d6000803e3d6000fd5b505050506040513d6020811015611eff57600080fd5b505160408051637a3996d360e11b815290516001600160a01b0389169163f4732da6916004808301926020929190829003018186803b158015611f4157600080fd5b505afa158015611f55573d6000803e3d6000fd5b505050506040513d6020811015611f6b57600080fd5b5051604080516001600160e01b031960e089901b16815260048101969096526001600160a01b0390941660248601526044850192909252606484015260848301525160a480830192600092919082900301818387803b158015611fcd57600080fd5b505af1158015611fe1573d6000803e3d6000fd5b50505050505050565b606082826040516020018083805190602001908083835b602083106120205780518252601f199092019160209182019101612001565b51815160209384036101000a600019018019909216911617905285519190930192850191508083835b602083106120685780518252601f199092019160209182019101612049565b6001836020036101000a03801982511681845116808217855250505050505090500192505050604051602081830303815290604052905092915050565b60006120af610a77565b905090565b60006120be6126fd565b6001600160a01b0316638c4e8c216040518163ffffffff1660e01b815260040160206040518083038186803b1580156120f657600080fd5b505afa15801561210a573d6000803e3d6000fd5b505050506040513d602081101561212057600080fd5b5051421115612131575060006109dd565b600061213b6121c3565b90506121456126fd565b6001600160a01b031663dcba23ce84836040518363ffffffff1660e01b8152600401808381526020018281526020019250505060206040518083038186803b15801561219057600080fd5b505afa1580156121a4573d6000803e3d6000fd5b505050506040513d60208110156121ba57600080fd5b50519392505050565b6000806121ce6126fd565b6001600160a01b031663559c52356040518163ffffffff1660e01b815260040160206040518083038186803b15801561220657600080fd5b505afa15801561221a573d6000803e3d6000fd5b505050506040513d602081101561223057600080fd5b5051905080156122505761224b81600163ffffffff61247416565b612252565b805b91505090565b6000610c0b8383670de0b6b3a7640000612719565b6000610c0b8383670de0b6b3a764000061275b565b61228a6120a5565b6001600160a01b031663771c5c53858585856040518563ffffffff1660e01b815260040180858152602001846001600160a01b03166001600160a01b03168152602001838152602001828152602001945050505050600060405180830381600087803b1580156122f957600080fd5b505af115801561230d573d6000803e3d6000fd5b5050505050505050565b60008181526005602090815260408083205481518083018352600a81526901d1026b4b9b9b4b733960b51b818501528454835160026101006001841615026000190190921691909104601f81018690048602820186019094528381526001600160a01b039092161515936123b4939192879290918791908301828280156105be5780601f10610593576101008083540402835291602001916105be565b906124005760405162461bcd60e51b8152602060048201818152835160248401528351909283926044909101919085019080838360008315610620578181015183820152602001610608565b50506000908152600560205260409020546001600160a01b031690565b604080516001600160a01b038416602482015260448082018490528251808303909101815260649091019091526020810180516001600160e01b031663a9059cbb60e01b17905261246f908490612796565b505050565b6000610c0b83836040518060400160405280601e81526020017f536166654d6174683a207375627472616374696f6e206f766572666c6f770000815250612847565b600082820183811015610c0b576040805162461bcd60e51b815260206004820152601b60248201527a536166654d6174683a206164646974696f6e206f766572666c6f7760281b604482015290519081900360640190fd5b670de0b6b3a764000090565b60035460408051630659b9d760e41b815260048101859052602481018490528151600093849384936001600160a01b039092169263659b9d70926044808201939291829003018186803b15801561257057600080fd5b505afa158015612584573d6000803e3d6000fd5b505050506040513d604081101561259a57600080fd5b508051602091820151604080518082018252601681527501d1026b4b9b9b4b7339020b9b9b2ba102a37b5b2b7160551b8186015260008054835160026001831615610100026000190190921691909104601f810188900488028201880190945283815294975092955086946126359491938a9390918301828280156105be5780601f10610593576101008083540402835291602001916105be565b906126815760405162461bcd60e51b8152602060048201818152835160248401528351909283926044909101919085019080838360008315610620578181015183820152602001610608565b50949350505050565b60006126946126fd565b6001600160a01b031663060406186040518163ffffffff1660e01b815260040160206040518083038186803b1580156126cc57600080fd5b505afa1580156126e0573d6000803e3d6000fd5b505050506040513d60208110156126f657600080fd5b5051905090565b60006120af6d537570706c795363686564756c6560901b612317565b6000831580612726575082155b1561273357506000610c0b565b61275383612747868563ffffffff6128a116565b9063ffffffff6128fa16565b949350505050565b6000831580612768575082155b1561277557506000610c0b565b81612786858563ffffffff6128a116565b8161278d57fe5b04949350505050565b60606127eb826040518060400160405280602081526020017f5361666545524332303a206c6f772d6c6576656c2063616c6c206661696c6564815250856001600160a01b03166129399092919063ffffffff16565b80519091501561246f5780806020019051602081101561280a57600080fd5b505161246f5760405162461bcd60e51b815260040180806020018281038252602a815260200180612b9e602a913960400191505060405180910390fd5b600081848411156128995760405162461bcd60e51b8152602060048201818152835160248401528351909283926044909101919085019080838360008315610620578181015183820152602001610608565b505050900390565b6000826128b057506000610a71565b828202828482816128bd57fe5b0414610c0b5760405162461bcd60e51b8152600401808060200182810382526021815260200180612b7d6021913960400191505060405180910390fd5b6000610c0b83836040518060400160405280601a815260200179536166654d6174683a206469766973696f6e206279207a65726f60301b8152506129fa565b606060006060856001600160a01b0316856040518082805190602001908083835b602083106129795780518252601f19909201916020918201910161295a565b6001836020036101000a0380198251168184511680821785525050505050509050019150506000604051808303816000865af19150503d80600081146129db576040519150601f19603f3d011682016040523d82523d6000602084013e6129e0565b606091505b50915091506129f0828286612a5f565b9695505050505050565b60008183612a495760405162461bcd60e51b8152602060048201818152835160248401528351909283926044909101919085019080838360008315610620578181015183820152602001610608565b506000838581612a5557fe5b0495945050505050565b60608315612a6e575081610c0b565b8251612abb5760405162461bcd60e51b8152602060048201818152845160248401528451859391928392604401919085019080838360008315610620578181015183820152602001610608565b82518084602001fdfe3a2063616c6c6572206973206e6f7420746865206f776e657200000000000000486f6c6465723a206f6e6c7920737570706f727473206c6f636b61626c65206173736574526577617264733a20746f74616c2070657263656e74206d757374206265206e6f2067726561746572207468616e20313030253a206e6577206d616e6167657220697320746865207a65726f2061646472657373f420db0c49eb249cd6dd94b6b96dabd210919bd87c94ecc5fec4a9e1c9775ad5536166654d6174683a206d756c7469706c69636174696f6e206f766572666c6f775361666545524332303a204552433230206f7065726174696f6e20646964206e6f742073756363656564a265627a7a7231582063ed10a4132db8bf697896813a2ba99fe2b1b3819cf7366c6d3d3730171ed14f64736f6c63430005110032",
  "source": "// SPDX-License-Identifier: MIT\npragma solidity ^0.5.17;\n\nimport './lib/SafeERC20.sol';\nimport './base/Rewards.sol';\nimport './interfaces/IHolder.sol';\nimport './interfaces/storages/IHolderStorage.sol';\nimport './interfaces/ILockable.sol';\nimport './interfaces/IERC20.sol';\n\ncontract Holder is Rewards, IHolder {\n    using SafeERC20 for IERC20;\n\n    address public constant LOCK_ADDRESS = 0x010C10C10C10C10c10c10C10c10C10c10c10C10c;\n\n    constructor(IResolver _resolver) public Importable(_resolver) {\n        setContractName(CONTRACT_HOLDER);\n        imports = [CONTRACT_SYNTHX, CONTRACT_SUPPLY_SCHEDULE, CONTRACT_SYNTHX_TOKEN];\n    }\n\n    function Storage() private view returns (IHolderStorage) {\n        return IHolderStorage(getStorage());\n    }\n\n    function Lockable(bytes32 asset) private view returns (ILockable) {\n        return ILockable(requireAsset('Hold', asset));\n    }\n\n    function lock(\n        bytes32 asset,\n        address account,\n        uint256 amount\n    ) external onlyAddress(CONTRACT_SYNTHX) {\n        Lockable(asset).lock(account, amount);\n        _setLocked(asset, account);\n    }\n\n    function unlock(\n        bytes32 asset,\n        address account,\n        uint256 amount\n    ) external onlyAddress(CONTRACT_SYNTHX) {\n        Lockable(asset).unlock(account, amount);\n        _setLocked(asset, account);\n    }\n\n    function _setLocked(bytes32 asset, address account) private {\n        ILockable token = Lockable(asset);\n        Storage().setLocked(asset, account, getCurrentPeriod(), token.getLocked(account), token.getTotalLocked());\n    }\n\n    function getLocked(bytes32 asset, address account) external view returns (uint256) {\n        return Lockable(asset).getLocked(account);\n    }\n\n    function getTotalLocked(bytes32 asset) external view returns (uint256) {\n        return Lockable(asset).getTotalLocked();\n    }\n\n    function getPeriodLocked(\n        bytes32 asset,\n        address account,\n        uint256 period\n    ) external view returns (uint256) {\n        return Storage().getLocked(asset, account, period);\n    }\n\n    function claim(bytes32 asset, address account)\n        external\n        onlyAddress(CONTRACT_SYNTHX)\n        returns (\n            uint256 period,\n            uint256 amount,\n            uint256 vestTime\n        )\n    {\n        uint256 claimable = getClaimable(asset, account);\n        require(claimable > 0, 'Holder: claimable is zero');\n\n        uint256 claimablePeriod = getClaimablePeriod();\n        setClaimed(asset, account, claimablePeriod, claimable);\n\n        IERC20(requireAddress(CONTRACT_SYNTHX_TOKEN)).safeTransfer(account, claimable);\n        return (claimablePeriod, claimable, 0);\n    }\n\n    function getClaimable(bytes32 asset, address account) public view returns (uint256) {\n        uint256 rewardPercentage = getRewardPercentage(asset);\n        require(rewardPercentage > 0, 'Holder: only supports lockable asset');\n\n        uint256 rewards = getRewardSupply(CONTRACT_HOLDER);\n        if (rewards == 0) return 0;\n\n        uint256 claimablePeriod = getClaimablePeriod();\n        if (getClaimed(asset, account, claimablePeriod) > 0) return 0;\n\n        uint256 totalLocked = Storage().getLocked(asset, address(0), claimablePeriod);\n        uint256 accountLocked = Storage().getLocked(asset, account, claimablePeriod);\n        uint256 percentage = accountLocked.decimalDivide(totalLocked);\n        return rewards.decimalMultiply(rewardPercentage).decimalMultiply(percentage);\n    }\n}\n",
  "sourcePath": "/Users/sun/go/src/github.com/Dipper-Labs/DIPSYN/contracts/Holder.sol",
  "compiler": {
    "name": "solc",
    "version": "0.5.17+commit.d19bba13.Emscripten.clang"
  },
  "schemaVersion": "3.3.4",
  "updatedAt": "2021-04-21T04:08:13.973Z",
  "devdoc": {
    "methods": {}
  },
  "userdoc": {
    "methods": {}
  }
}