{
  "contractName": "Importable",
  "abi": [
    {
      "inputs": [
        {
          "internalType": "contract IResolver",
          "name": "_resolver",
          "type": "address"
        }
      ],
      "payable": false,
      "stateMutability": "nonpayable",
      "type": "constructor"
    },
    {
      "anonymous": false,
      "inputs": [
        {
          "indexed": true,
          "internalType": "address",
          "name": "previousValue",
          "type": "address"
        },
        {
          "indexed": true,
          "internalType": "address",
          "name": "newValue",
          "type": "address"
        }
      ],
      "name": "ManagerChanged",
      "type": "event"
    },
    {
      "anonymous": false,
      "inputs": [
        {
          "indexed": true,
          "internalType": "address",
          "name": "previousValue",
          "type": "address"
        },
        {
          "indexed": true,
          "internalType": "address",
          "name": "newValue",
          "type": "address"
        }
      ],
      "name": "OwnerChanged",
      "type": "event"
    },
    {
      "constant": true,
      "inputs": [],
      "name": "contractName",
      "outputs": [
        {
          "internalType": "string",
          "name": "",
          "type": "string"
        }
      ],
      "payable": false,
      "stateMutability": "view",
      "type": "function"
    },
    {
      "constant": true,
      "inputs": [],
      "name": "manager",
      "outputs": [
        {
          "internalType": "address",
          "name": "",
          "type": "address"
        }
      ],
      "payable": false,
      "stateMutability": "view",
      "type": "function"
    },
    {
      "constant": true,
      "inputs": [],
      "name": "owner",
      "outputs": [
        {
          "internalType": "address",
          "name": "",
          "type": "address"
        }
      ],
      "payable": false,
      "stateMutability": "view",
      "type": "function"
    },
    {
      "constant": true,
      "inputs": [],
      "name": "resolver",
      "outputs": [
        {
          "internalType": "contract IResolver",
          "name": "",
          "type": "address"
        }
      ],
      "payable": false,
      "stateMutability": "view",
      "type": "function"
    },
    {
      "constant": false,
      "inputs": [
        {
          "internalType": "address",
          "name": "_manager",
          "type": "address"
        }
      ],
      "name": "setManager",
      "outputs": [],
      "payable": false,
      "stateMutability": "nonpayable",
      "type": "function"
    },
    {
      "constant": false,
      "inputs": [
        {
          "internalType": "address",
          "name": "_owner",
          "type": "address"
        }
      ],
      "name": "setOwner",
      "outputs": [],
      "payable": false,
      "stateMutability": "nonpayable",
      "type": "function"
    },
    {
      "constant": false,
      "inputs": [],
      "name": "refreshCache",
      "outputs": [],
      "payable": false,
      "stateMutability": "nonpayable",
      "type": "function"
    },
    {
      "constant": true,
      "inputs": [],
      "name": "getImports",
      "outputs": [
        {
          "internalType": "bytes32[]",
          "name": "",
          "type": "bytes32[]"
        }
      ],
      "payable": false,
      "stateMutability": "view",
      "type": "function"
    },
    {
      "constant": false,
      "inputs": [
        {
          "internalType": "bytes32",
          "name": "name",
          "type": "bytes32"
        }
      ],
      "name": "addAddress",
      "outputs": [],
      "payable": false,
      "stateMutability": "nonpayable",
      "type": "function"
    },
    {
      "constant": true,
      "inputs": [
        {
          "internalType": "bytes32",
          "name": "name",
          "type": "bytes32"
        }
      ],
      "name": "getAddress",
      "outputs": [
        {
          "internalType": "address",
          "name": "",
          "type": "address"
        }
      ],
      "payable": false,
      "stateMutability": "view",
      "type": "function"
    }
  ],
  "bytecode": "0x608060405234801561001057600080fd5b50604051610d3e380380610d3e8339818101604052602081101561003357600080fd5b505160018054336001600160a01b03199182168117909255600280548216909217909155600380549091166001600160a01b03909216919091179055610cc08061007e6000396000f3fe608060405234801561001057600080fd5b506004361061008e5760003560e01c806304f3bcec14610093578063126779c2146100b757806313af40351461010f57806321f8a72114610137578063481c6a751461015457806375d0c0dc1461015c5780638aed3c32146101d95780638da5cb5b146101f6578063d0ebdbe7146101fe578063d5c2c8ca14610224575b600080fd5b61009b61022c565b604080516001600160a01b039092168252519081900360200190f35b6100bf61023b565b60408051602080825283518183015283519192839290830191858101910280838360005b838110156100fb5781810151838201526020016100e3565b505050509050019250505060405180910390f35b6101356004803603602081101561012557600080fd5b50356001600160a01b0316610293565b005b61009b6004803603602081101561014d57600080fd5b503561053b565b61009b610556565b610164610565565b6040805160208082528351818301528351919283929083019185019080838360005b8381101561019e578181015183820152602001610186565b50505050905090810190601f1680156101cb5780820380516001836020036101000a031916815260200191505b509250505060405180910390f35b610135600480360360208110156101ef57600080fd5b50356105f3565b61009b6107ac565b6101356004803603602081101561021457600080fd5b50356001600160a01b03166107bb565b6101356109d6565b6003546001600160a01b031681565b6060600480548060200260200160405190810160405280929190818152602001828054801561028957602002820191906000526020600020905b815481526020019060010190808311610275575b5050505050905090565b6001805460408051808201825260198152600080516020610c4b833981519152602080830191909152600080548451600261010098831615989098026000190190911696909604601f81018390048302870183019094528386526001600160a01b039094163314946103689492939092918301828280156103555780601f1061032a57610100808354040283529160200191610355565b820191906000526020600020905b81548152906001019060200180831161033857829003601f168201915b5050505050610b8f90919063ffffffff16565b906103f15760405162461bcd60e51b81526004018080602001828103825283818151815260200191508051906020019080838360005b838110156103b657818101518382015260200161039e565b50505050905090810190601f1680156103e35780820380516001836020036101000a031916815260200191505b509250505060405180910390fd5b50604080518082018252601f8082527f3a206e6577206f776e657220697320746865207a65726f206164647265737300602080840191909152600080548551600260001961010060018516150201909216919091049384018390048302810183019095528285526001600160a01b038616151594610492949390928301828280156103555780601f1061032a57610100808354040283529160200191610355565b906104de5760405162461bcd60e51b81526020600482018181528351602484015283519092839260449091019190850190808383600083156103b657818101518382015260200161039e565b506001546040516001600160a01b038084169216907fb532073b38c83145e3e5135377a08bf9aab55bc0fd7c1179cd4fb995d2a5159c90600090a3600180546001600160a01b0319166001600160a01b0392909216919091179055565b6000908152600560205260409020546001600160a01b031690565b6002546001600160a01b031681565b6000805460408051602060026001851615610100026000190190941693909304601f810184900484028201840190925281815292918301828280156105eb5780601f106105c0576101008083540402835291602001916105eb565b820191906000526020600020905b8154815290600101906020018083116105ce57829003601f168201915b505050505081565b6001805460408051808201825260198152600080516020610c4b833981519152602080830191909152600080548451600261010098831615989098026000190190911696909604601f81018390048302870183019094528386526001600160a01b0390941633149461068a9492939092918301828280156103555780601f1061032a57610100808354040283529160200191610355565b906106d65760405162461bcd60e51b81526020600482018181528351602484015283519092839260449091019190850190808383600083156103b657818101518382015260200161039e565b50600354604080516321f8a72160e01b81526004810184905290516001600160a01b03909216916321f8a72191602480820192602092909190829003018186803b15801561072357600080fd5b505afa158015610737573d6000803e3d6000fd5b505050506040513d602081101561074d57600080fd5b5051600082815260056020526040812080546001600160a01b0319166001600160a01b03909316929092179091556004805460018101825591527f8a35acfbc15ff81a39ae7d344fd709f28e8600b4aa8c65c6b64bfe7fe36bd19b0155565b6001546001600160a01b031681565b6001805460408051808201825260198152600080516020610c4b833981519152602080830191909152600080548451600261010098831615989098026000190190911696909604601f81018390048302870183019094528386526001600160a01b039094163314946108529492939092918301828280156103555780601f1061032a57610100808354040283529160200191610355565b9061089e5760405162461bcd60e51b81526020600482018181528351602484015283519092839260449091019190850190808383600083156103b657818101518382015260200161039e565b5060006001600160a01b0316816001600160a01b0316141561092d604051806060016040528060218152602001610c6b602191396000805460408051602060026001851615610100026000190190941693909304601f810184900484028201840190925281815292918301828280156103555780601f1061032a57610100808354040283529160200191610355565b906109795760405162461bcd60e51b81526020600482018181528351602484015283519092839260449091019190850190808383600083156103b657818101518382015260200161039e565b506002546040516001600160a01b038084169216907f605c2dbf762e5f7d60a546d42e7205dcb1b011ebc62a61736a57c9089d3a435090600090a3600280546001600160a01b0319166001600160a01b0392909216919091179055565b6001805460408051808201825260198152600080516020610c4b833981519152602080830191909152600080548451600261010098831615989098026000190190911696909604601f81018390048302870183019094528386526001600160a01b03909416331494610a6d9492939092918301828280156103555780601f1061032a57610100808354040283529160200191610355565b90610ab95760405162461bcd60e51b81526020600482018181528351602484015283519092839260449091019190850190808383600083156103b657818101518382015260200161039e565b5060005b600454811015610b8c57600060048281548110610ad657fe5b60009182526020918290200154600354604080516321f8a72160e01b81526004810184905290519294506001600160a01b03909116926321f8a72192602480840193829003018186803b158015610b2c57600080fd5b505afa158015610b40573d6000803e3d6000fd5b505050506040513d6020811015610b5657600080fd5b505160009182526005602052604090912080546001600160a01b0319166001600160a01b03909216919091179055600101610abd565b50565b606082826040516020018083805190602001908083835b60208310610bc55780518252601f199092019160209182019101610ba6565b51815160209384036101000a600019018019909216911617905285519190930192850191508083835b60208310610c0d5780518252601f199092019160209182019101610bee565b6001836020036101000a0380198251168184511680821785525050505050509050019250505060405160208183030381529060405290509291505056fe3a2063616c6c6572206973206e6f7420746865206f776e6572000000000000003a206e6577206d616e6167657220697320746865207a65726f2061646472657373a265627a7a72315820b80b9b110d511f3892cf957bc87a510390a09d77b7423d557d6c36d47496405864736f6c63430005110032",
  "source": "pragma solidity ^0.5.17;\n\nimport './Ownable.sol';\nimport '../interfaces/IResolver.sol';\nimport '../interfaces/ISupplySchedule.sol';\n\ncontract Importable is Ownable {\n    IResolver public resolver;\n    bytes32[] internal imports;\n\n    mapping(bytes32 => address) private _cache;\n\n    constructor(IResolver _resolver) public {\n        resolver = _resolver;\n    }\n\n    modifier onlyAddress(bytes32 name) {\n        require(msg.sender == _cache[name], contractName.concat(': caller is not the ', name));\n        _;\n    }\n\n    modifier containAddress(bytes32[] memory names) {\n        require(names.length < 20, contractName.concat(': cannot have more than 20 items'));\n\n        bool contain = false;\n        for (uint256 i = 0; i < names.length; i++) {\n            if (msg.sender == _cache[names[i]]) {\n                contain = true;\n                break;\n            }\n        }\n        require(contain, contractName.concat(': caller is not in contains'));\n        _;\n    }\n\n    modifier containAddressOrOwner(bytes32[] memory names) {\n        require(names.length < 20, contractName.concat(': cannot have more than 20 items'));\n\n        bool contain = false;\n        for (uint256 i = 0; i < names.length; i++) {\n            if (msg.sender == _cache[names[i]]) {\n                contain = true;\n                break;\n            }\n        }\n        if (contain == false) contain = (msg.sender == owner);\n        require(contain, contractName.concat(': caller is not in dependencies'));\n        _;\n    }\n\n    function refreshCache() external onlyOwner {\n        for (uint256 i = 0; i < imports.length; i++) {\n            bytes32 item = imports[i];\n            _cache[item] = resolver.getAddress(item);\n        }\n    }\n\n    function getImports() external view returns (bytes32[] memory) {\n        return imports;\n    }\n\n    function SupplySchedule() internal view returns (ISupplySchedule) {\n        return ISupplySchedule(requireAddress(CONTRACT_SUPPLY_SCHEDULE));\n    }\n\n    function getCurrentPeriod() internal view returns (uint256) {\n        return SupplySchedule().currentPeriod();\n    }\n\n    function requireAsset(bytes32 assetType, bytes32 assetName) internal view returns (address) {\n        (bool exist, address assetAddress) = resolver.getAsset(assetType, assetName);\n        require(exist, contractName.concat(': Missing Asset Token ', assetName));\n        return assetAddress;\n    }\n\n    function assets(bytes32 assetType) internal view returns (bytes32[] memory) {\n        return resolver.getAssets(assetType);\n    }\n\n    function addAddress(bytes32 name) external onlyOwner {\n        _cache[name] = resolver.getAddress(name);\n        imports.push(name);\n    }\n\n    function requireAddress(bytes32 name) internal view returns (address) {\n        require(_cache[name] != address(0), contractName.concat(': Missing ', name));\n        return _cache[name];\n    }\n\n    function getAddress(bytes32 name) external view returns (address) {\n        return _cache[name];\n    }\n}\n",
  "sourcePath": "/Users/sun/go/src/github.com/Dipper-Labs/DIPSYN/contracts/base/Importable.sol",
  "compiler": {
    "name": "solc",
    "version": "0.5.17+commit.d19bba13.Emscripten.clang"
  },
  "schemaVersion": "3.3.4",
  "updatedAt": "2021-04-21T04:08:14.043Z",
  "devdoc": {
    "methods": {}
  },
  "userdoc": {
    "methods": {}
  }
}