{
  "contractName": "Issuer",
  "abi": [
    {
      "inputs": [
        {
          "internalType": "contract IResolver",
          "name": "_resolver",
          "type": "address"
        }
      ],
      "payable": false,
      "stateMutability": "nonpayable",
      "type": "constructor"
    },
    {
      "anonymous": false,
      "inputs": [
        {
          "indexed": true,
          "internalType": "address",
          "name": "previousValue",
          "type": "address"
        },
        {
          "indexed": true,
          "internalType": "address",
          "name": "newValue",
          "type": "address"
        }
      ],
      "name": "ManagerChanged",
      "type": "event"
    },
    {
      "anonymous": false,
      "inputs": [
        {
          "indexed": true,
          "internalType": "address",
          "name": "previousValue",
          "type": "address"
        },
        {
          "indexed": true,
          "internalType": "address",
          "name": "newValue",
          "type": "address"
        }
      ],
      "name": "OwnerChanged",
      "type": "event"
    },
    {
      "anonymous": false,
      "inputs": [
        {
          "indexed": true,
          "internalType": "address",
          "name": "previousValue",
          "type": "address"
        },
        {
          "indexed": true,
          "internalType": "address",
          "name": "newValue",
          "type": "address"
        }
      ],
      "name": "StorageChanged",
      "type": "event"
    },
    {
      "constant": false,
      "inputs": [
        {
          "internalType": "bytes32",
          "name": "name",
          "type": "bytes32"
        }
      ],
      "name": "addAddress",
      "outputs": [],
      "payable": false,
      "stateMutability": "nonpayable",
      "type": "function"
    },
    {
      "constant": true,
      "inputs": [],
      "name": "contractName",
      "outputs": [
        {
          "internalType": "string",
          "name": "",
          "type": "string"
        }
      ],
      "payable": false,
      "stateMutability": "view",
      "type": "function"
    },
    {
      "constant": true,
      "inputs": [
        {
          "internalType": "bytes32",
          "name": "name",
          "type": "bytes32"
        }
      ],
      "name": "getAddress",
      "outputs": [
        {
          "internalType": "address",
          "name": "",
          "type": "address"
        }
      ],
      "payable": false,
      "stateMutability": "view",
      "type": "function"
    },
    {
      "constant": true,
      "inputs": [],
      "name": "getImports",
      "outputs": [
        {
          "internalType": "bytes32[]",
          "name": "",
          "type": "bytes32[]"
        }
      ],
      "payable": false,
      "stateMutability": "view",
      "type": "function"
    },
    {
      "constant": true,
      "inputs": [],
      "name": "getStorage",
      "outputs": [
        {
          "internalType": "address",
          "name": "",
          "type": "address"
        }
      ],
      "payable": false,
      "stateMutability": "view",
      "type": "function"
    },
    {
      "constant": true,
      "inputs": [],
      "name": "manager",
      "outputs": [
        {
          "internalType": "address",
          "name": "",
          "type": "address"
        }
      ],
      "payable": false,
      "stateMutability": "view",
      "type": "function"
    },
    {
      "constant": true,
      "inputs": [],
      "name": "owner",
      "outputs": [
        {
          "internalType": "address",
          "name": "",
          "type": "address"
        }
      ],
      "payable": false,
      "stateMutability": "view",
      "type": "function"
    },
    {
      "constant": false,
      "inputs": [],
      "name": "refreshCache",
      "outputs": [],
      "payable": false,
      "stateMutability": "nonpayable",
      "type": "function"
    },
    {
      "constant": true,
      "inputs": [],
      "name": "resolver",
      "outputs": [
        {
          "internalType": "contract IResolver",
          "name": "",
          "type": "address"
        }
      ],
      "payable": false,
      "stateMutability": "view",
      "type": "function"
    },
    {
      "constant": false,
      "inputs": [
        {
          "internalType": "address",
          "name": "_manager",
          "type": "address"
        }
      ],
      "name": "setManager",
      "outputs": [],
      "payable": false,
      "stateMutability": "nonpayable",
      "type": "function"
    },
    {
      "constant": false,
      "inputs": [
        {
          "internalType": "address",
          "name": "_owner",
          "type": "address"
        }
      ],
      "name": "setOwner",
      "outputs": [],
      "payable": false,
      "stateMutability": "nonpayable",
      "type": "function"
    },
    {
      "constant": false,
      "inputs": [
        {
          "internalType": "address",
          "name": "value",
          "type": "address"
        }
      ],
      "name": "setStorage",
      "outputs": [],
      "payable": false,
      "stateMutability": "nonpayable",
      "type": "function"
    },
    {
      "constant": false,
      "inputs": [
        {
          "internalType": "bytes32",
          "name": "stake",
          "type": "bytes32"
        },
        {
          "internalType": "address",
          "name": "account",
          "type": "address"
        },
        {
          "internalType": "uint256",
          "name": "amount",
          "type": "uint256"
        }
      ],
      "name": "issueDebt",
      "outputs": [],
      "payable": false,
      "stateMutability": "nonpayable",
      "type": "function"
    },
    {
      "constant": false,
      "inputs": [
        {
          "internalType": "bytes32",
          "name": "stake",
          "type": "bytes32"
        },
        {
          "internalType": "address",
          "name": "account",
          "type": "address"
        },
        {
          "internalType": "uint256",
          "name": "amount",
          "type": "uint256"
        },
        {
          "internalType": "address",
          "name": "payer",
          "type": "address"
        }
      ],
      "name": "burnDebt",
      "outputs": [
        {
          "internalType": "uint256",
          "name": "",
          "type": "uint256"
        }
      ],
      "payable": false,
      "stateMutability": "nonpayable",
      "type": "function"
    },
    {
      "constant": false,
      "inputs": [
        {
          "internalType": "bytes32",
          "name": "synth",
          "type": "bytes32"
        },
        {
          "internalType": "address",
          "name": "account",
          "type": "address"
        },
        {
          "internalType": "uint256",
          "name": "amount",
          "type": "uint256"
        }
      ],
      "name": "issueSynth",
      "outputs": [],
      "payable": false,
      "stateMutability": "nonpayable",
      "type": "function"
    },
    {
      "constant": false,
      "inputs": [
        {
          "internalType": "bytes32",
          "name": "synth",
          "type": "bytes32"
        },
        {
          "internalType": "address",
          "name": "account",
          "type": "address"
        },
        {
          "internalType": "uint256",
          "name": "amount",
          "type": "uint256"
        }
      ],
      "name": "burnSynth",
      "outputs": [],
      "payable": false,
      "stateMutability": "nonpayable",
      "type": "function"
    },
    {
      "constant": true,
      "inputs": [
        {
          "internalType": "bytes32",
          "name": "stake",
          "type": "bytes32"
        },
        {
          "internalType": "address",
          "name": "account",
          "type": "address"
        }
      ],
      "name": "getDebt",
      "outputs": [
        {
          "internalType": "uint256",
          "name": "",
          "type": "uint256"
        }
      ],
      "payable": false,
      "stateMutability": "view",
      "type": "function"
    },
    {
      "constant": true,
      "inputs": [],
      "name": "getTotalDebt",
      "outputs": [
        {
          "internalType": "uint256",
          "name": "",
          "type": "uint256"
        }
      ],
      "payable": false,
      "stateMutability": "view",
      "type": "function"
    },
    {
      "constant": true,
      "inputs": [
        {
          "internalType": "bytes32",
          "name": "stake",
          "type": "bytes32"
        },
        {
          "internalType": "address",
          "name": "account",
          "type": "address"
        },
        {
          "internalType": "uint256",
          "name": "period",
          "type": "uint256"
        }
      ],
      "name": "getDebtPercentage",
      "outputs": [
        {
          "internalType": "uint256",
          "name": "",
          "type": "uint256"
        }
      ],
      "payable": false,
      "stateMutability": "view",
      "type": "function"
    }
  ],
  "bytecode": "0x60c0604052652a3930b232b960d11b60809081526529ba30b5b2b960d11b60a052620000309060079060026200017a565b503480156200003e57600080fd5b5060405162002f9b38038062002f9b833981810160405260208110156200006457600080fd5b505160018054336001600160a01b03199182168117909255600280548216909217909155600380549091166001600160a01b038316179055620000b06524b9b9bab2b960d11b62000149565b6040518060e00160405280650a6f2dce8d0f60d31b81526020016d537570706c795363686564756c6560901b8152602001694173736574507269636560b01b81526020016653657474696e6760c81b815260200165457363726f7760d01b8152602001652a3930b232b960d11b81526020016529ba30b5b2b960d11b8152506004906007620001419291906200017a565b50506200025c565b604080516020808201849052825180830382018152918301909252805162000176926000920190620001ca565b5050565b828054828255906000526020600020908101928215620001b8579160200282015b82811115620001b85782518255916020019190600101906200019b565b50620001c69291506200023c565b5090565b828054600181600116156101000203166002900490600052602060002090601f016020900481019282601f106200020d57805160ff1916838001178555620001b8565b82800160010185558215620001b85791820182811115620001b85782518255916020019190600101906200019b565b6200025991905b80821115620001c6576000815560010162000243565b90565b612d2f806200026c6000396000f3fe608060405234801561001057600080fd5b50600436106100f15760003560e01c806304f3bcec146100f6578063126779c21461011a57806313af4035146101725780631b7ff9201461019a57806321f8a721146101cc5780633408f73a146101e957806334ce998a146101f157806336d333571461020b578063481c6a751461023d57806365c19867146102455780636b3f76861461028157806375d0c0dc146102b35780638aed3c32146103305780638da5cb5b1461034d5780639137c1a714610355578063d0ebdbe71461037b578063d12ae67e146103a1578063d5c2c8ca146103cd578063d9308630146103d5575b600080fd5b6100fe610407565b604080516001600160a01b039092168252519081900360200190f35b610122610416565b60408051602080825283518183015283519192839290830191858101910280838360005b8381101561015e578181015183820152602001610146565b505050509050019250505060405180910390f35b6101986004803603602081101561018857600080fd5b50356001600160a01b031661046e565b005b610198600480360360608110156101b057600080fd5b508035906001600160a01b036020820135169060400135610716565b6100fe600480360360208110156101e257600080fd5b5035610a11565b6100fe610a2c565b6101f9610b22565b60408051918252519081900360200190f35b6101986004803603606081101561022157600080fd5b508035906001600160a01b036020820135169060400135610d73565b6100fe61103b565b6101f96004803603608081101561025b57600080fd5b508035906001600160a01b0360208201358116916040810135916060909101351661104a565b6101986004803603606081101561029757600080fd5b508035906001600160a01b03602082013516906040013561142f565b6102bb61172a565b6040805160208082528351818301528351919283929083019185019080838360005b838110156102f55781810151838201526020016102dd565b50505050905090810190601f1680156103225780820380516001836020036101000a031916815260200191505b509250505060405180910390f35b6101986004803603602081101561034657600080fd5b50356117b8565b6100fe611971565b6101986004803603602081101561036b57600080fd5b50356001600160a01b0316611980565b6101986004803603602081101561039157600080fd5b50356001600160a01b0316611ac0565b6101f9600480360360408110156103b757600080fd5b50803590602001356001600160a01b0316611cdb565b610198611d80565b6101f9600480360360608110156103eb57600080fd5b508035906001600160a01b036020820135169060400135611f39565b6003546001600160a01b031681565b6060600480548060200260200160405190810160405280929190818152602001828054801561046457602002820191906000526020600020905b815481526020019060010190808311610450575b5050505050905090565b6001805460408051808201825260198152600080516020612c33833981519152602080830191909152600080548451600261010098831615989098026000190190911696909604601f81018390048302870183019094528386526001600160a01b039094163314946105439492939092918301828280156105305780601f1061050557610100808354040283529160200191610530565b820191906000526020600020905b81548152906001019060200180831161051357829003601f168201915b5050505050611fca90919063ffffffff16565b906105cc5760405162461bcd60e51b81526004018080602001828103825283818151815260200191508051906020019080838360005b83811015610591578181015183820152602001610579565b50505050905090810190601f1680156105be5780820380516001836020036101000a031916815260200191505b509250505060405180910390fd5b50604080518082018252601f8082527f3a206e6577206f776e657220697320746865207a65726f206164647265737300602080840191909152600080548551600260001961010060018516150201909216919091049384018390048302810183019095528285526001600160a01b03861615159461066d949390928301828280156105305780601f1061050557610100808354040283529160200191610530565b906106b95760405162461bcd60e51b8152602060048201818152835160248401528351909283926044909101919085019080838360008315610591578181015183820152602001610579565b506001546040516001600160a01b038084169216907fb532073b38c83145e3e5135377a08bf9aab55bc0fd7c1179cd4fb995d2a5159c90600090a3600180546001600160a01b0319166001600160a01b0392909216919091179055565b600780548060200260200160405190810160405280929190818152602001828054801561076257602002820191906000526020600020905b81548152602001906001019080831161074e575b505083516040805180820182526020808252600080516020612cdb8339815191528183015260008054845160026001831615610100026000190190921691909104601f8101849004840282018401909552848152601490951097506107ee96509194509091908301828280156105305780601f1061050557610100808354040283529160200191610530565b9061083a5760405162461bcd60e51b8152602060048201818152835160248401528351909283926044909101919085019080838360008315610591578181015183820152602001610579565b506000805b8251811015610894576005600084838151811061085857fe5b6020908102919091018101518252810191909152604001600020546001600160a01b031633141561088c5760019150610894565b60010161083f565b50604080518082018252601b81527a3a2063616c6c6572206973206e6f7420696e20636f6e7461696e7360281b60208083019190915260008054845160026001831615610100026000190190921691909104601f8101849004840282018401909552848152859461092994939192918301828280156105305780601f1061050557610100808354040283529160200191610530565b906109755760405162461bcd60e51b8152602060048201818152835160248401528351909283926044909101919085019080838360008315610591578181015183820152602001610579565b5061097f85612085565b6001600160a01b0316639dc29fac85856040518363ffffffff1660e01b815260040180836001600160a01b03166001600160a01b0316815260200182815260200192505050602060405180830381600087803b1580156109de57600080fd5b505af11580156109f2573d6000803e3d6000fd5b505050506040513d6020811015610a0857600080fd5b50505050505050565b6000908152600560205260409020546001600160a01b031690565b60065460408051808201825260118152700e8814dd1bdc9859d9481b9bdd081cd95d607a1b60208083019190915260008054845160026101006001841615026000190190921691909104601f810184900484028201840190955284815290946001600160a01b0316151593610ac593928691908301828280156105305780601f1061050557610100808354040283529160200191610530565b90610b115760405162461bcd60e51b8152602060048201818152835160248401528351909283926044909101919085019080838360008315610591578181015183820152602001610579565b50506006546001600160a01b031690565b60006060610b37640a6f2dce8d60db1b612099565b90506060610b436121b3565b6001600160a01b03166326ee4836836040518263ffffffff1660e01b81526004018080602001828103825283818151815260200191508051906020019060200280838360005b83811015610ba1578181015183820152602001610b89565b505050509050019250505060006040518083038186803b158015610bc457600080fd5b505afa158015610bd8573d6000803e3d6000fd5b505050506040513d6000823e601f3d908101601f191682016040526020811015610c0157600080fd5b8101908080516040519392919084600160201b821115610c2057600080fd5b908301906020820185811115610c3557600080fd5b82518660208202830111600160201b82111715610c5157600080fd5b82525081516020918201928201910280838360005b83811015610c7e578181015183820152602001610c66565b50505050919091016040525092935060009250829150505b8351811015610d6b576000610cc6640a6f2dce8d60db1b868481518110610cb957fe5b60200260200101516121d0565b9050610d60610d53858481518110610cda57fe5b6020026020010151836001600160a01b03166318160ddd6040518163ffffffff1660e01b815260040160206040518083038186803b158015610d1b57600080fd5b505afa158015610d2f573d6000803e3d6000fd5b505050506040513d6020811015610d4557600080fd5b50519063ffffffff61234016565b849063ffffffff61235516565b925050600101610c96565b509250505090565b6007805480602002602001604051908101604052809291908181526020018280548015610dbf57602002820191906000526020600020905b815481526020019060010190808311610dab575b505083516040805180820182526020808252600080516020612cdb8339815191528183015260008054845160026001831615610100026000190190921691909104601f810184900484028201840190955284815260149095109750610e4b96509194509091908301828280156105305780601f1061050557610100808354040283529160200191610530565b90610e975760405162461bcd60e51b8152602060048201818152835160248401528351909283926044909101919085019080838360008315610591578181015183820152602001610579565b506000805b8251811015610ef15760056000848381518110610eb557fe5b6020908102919091018101518252810191909152604001600020546001600160a01b0316331415610ee95760019150610ef1565b600101610e9c565b50604080518082018252601b81527a3a2063616c6c6572206973206e6f7420696e20636f6e7461696e7360281b60208083019190915260008054845160026001831615610100026000190190921691909104601f81018490048402820184019095528481528594610f8694939192918301828280156105305780601f1061050557610100808354040283529160200191610530565b90610fd25760405162461bcd60e51b8152602060048201818152835160248401528351909283926044909101919085019080838360008315610591578181015183820152602001610579565b50610fdc85612085565b6001600160a01b03166340c10f1985856040518363ffffffff1660e01b815260040180836001600160a01b03166001600160a01b0316815260200182815260200192505050602060405180830381600087803b1580156109de57600080fd5b6002546001600160a01b031681565b650a6f2dce8d0f60d31b600081815260056020908152600080516020612c7483398151915254604080518082018252601481527301d1031b0b63632b91034b9903737ba103a3432960651b818501528454825160026101006001841615026000190190921691909104601f81018690048602820186019093528281529495946001600160a01b039093163314936111489391928692918891908301828280156111345780601f1061110957610100808354040283529160200191611134565b820191906000526020600020905b81548152906001019060200180831161111757829003601f168201915b50505050506123ad9092919063ffffffff16565b906111945760405162461bcd60e51b8152602060048201818152835160248401528351909283926044909101919085019080838360008315610591578181015183820152602001610579565b50600061119f612466565b905060006111ab610b22565b905060006111b76124d9565b6001600160a01b031663cc530809846040518263ffffffff1660e01b81526004018082815260200191505060206040518083038186803b1580156111fa57600080fd5b505afa15801561120e573d6000803e3d6000fd5b505050506040513d602081101561122457600080fd5b505190506000806112388b8b8786886124e3565b9150915061124581612528565b6112805760405162461bcd60e51b8152600401808060200182810382526026815260200180612cb56026913960400191505060405180910390fd5b60006112908c60008887896124e3565b50905060006112a5848c63ffffffff6125af16565b9050600081116112f7576040805162461bcd60e51b81526020600482015260186024820152774973737565723a206275726e61626c65206973207a65726f60401b604482015290519081900360640190fd5b6000611309878363ffffffff6125c516565b905060008115611353576000611325848463ffffffff61260716565b905061134f6113428261133661261f565b9063ffffffff61235516565b899063ffffffff61262e16565b9150505b6113818f8f8b6113698a8863ffffffff6125c516565b611379898963ffffffff6125c516565b87878c612646565b611391631e5554d160e21b612085565b6001600160a01b0316639dc29fac8d856040518363ffffffff1660e01b815260040180836001600160a01b03166001600160a01b0316815260200182815260200192505050602060405180830381600087803b1580156113f057600080fd5b505af1158015611404573d6000803e3d6000fd5b505050506040513d602081101561141a57600080fd5b50929f9e505050505050505050505050505050565b650a6f2dce8d0f60d31b600081815260056020908152600080516020612c7483398151915254604080518082018252601481527301d1031b0b63632b91034b9903737ba103a3432960651b818501528454825160026101006001841615026000190190921691909104601f81018690048602820186019093528281526001600160a01b039093163314946114e9949193879390928301828280156111345780601f1061110957610100808354040283529160200191611134565b906115355760405162461bcd60e51b8152602060048201818152835160248401528351909283926044909101919085019080838360008315610591578181015183820152602001610579565b506000611540612466565b9050600061154c610b22565b905060006115586124d9565b6001600160a01b031663cc530809846040518263ffffffff1660e01b81526004018082815260200191505060206040518083038186803b15801561159b57600080fd5b505afa1580156115af573d6000803e3d6000fd5b505050506040513d60208110156115c557600080fd5b5051905060006115d888888685876124e3565b50905060006115eb8960008786886124e3565b5090506000611600858963ffffffff61235516565b9050600061160c61261f565b905084156116545760006116268a8463ffffffff61260716565b90506116506116438261163761261f565b9063ffffffff6125c516565b879063ffffffff61262e16565b9150505b6116828b8b8961166a888e63ffffffff61235516565b61167a888f63ffffffff61235516565b878742612646565b611692631e5554d160e21b612085565b6001600160a01b03166340c10f198b8b6040518363ffffffff1660e01b815260040180836001600160a01b03166001600160a01b0316815260200182815260200192505050602060405180830381600087803b1580156116f157600080fd5b505af1158015611705573d6000803e3d6000fd5b505050506040513d602081101561171b57600080fd5b50505050505050505050505050565b6000805460408051602060026001851615610100026000190190941693909304601f810184900484028201840190925281815292918301828280156117b05780601f10611785576101008083540402835291602001916117b0565b820191906000526020600020905b81548152906001019060200180831161179357829003601f168201915b505050505081565b6001805460408051808201825260198152600080516020612c33833981519152602080830191909152600080548451600261010098831615989098026000190190911696909604601f81018390048302870183019094528386526001600160a01b0390941633149461184f9492939092918301828280156105305780601f1061050557610100808354040283529160200191610530565b9061189b5760405162461bcd60e51b8152602060048201818152835160248401528351909283926044909101919085019080838360008315610591578181015183820152602001610579565b50600354604080516321f8a72160e01b81526004810184905290516001600160a01b03909216916321f8a72191602480820192602092909190829003018186803b1580156118e857600080fd5b505afa1580156118fc573d6000803e3d6000fd5b505050506040513d602081101561191257600080fd5b5051600082815260056020526040812080546001600160a01b0319166001600160a01b03909316929092179091556004805460018101825591527f8a35acfbc15ff81a39ae7d344fd709f28e8600b4aa8c65c6b64bfe7fe36bd19b0155565b6001546001600160a01b031681565b6001805460408051808201825260198152600080516020612c33833981519152602080830191909152600080548451600261010098831615989098026000190190911696909604601f81018390048302870183019094528386526001600160a01b03909416331494611a179492939092918301828280156105305780601f1061050557610100808354040283529160200191610530565b90611a635760405162461bcd60e51b8152602060048201818152835160248401528351909283926044909101919085019080838360008315610591578181015183820152602001610579565b506006546040516001600160a01b038084169216907f85a70e3ed8a3924b3769cbe4e925987bbd40e8cea31487cbe13bee7b727310a490600090a3600680546001600160a01b0319166001600160a01b0392909216919091179055565b6001805460408051808201825260198152600080516020612c33833981519152602080830191909152600080548451600261010098831615989098026000190190911696909604601f81018390048302870183019094528386526001600160a01b03909416331494611b579492939092918301828280156105305780601f1061050557610100808354040283529160200191610530565b90611ba35760405162461bcd60e51b8152602060048201818152835160248401528351909283926044909101919085019080838360008315610591578181015183820152602001610579565b5060006001600160a01b0316816001600160a01b03161415611c32604051806060016040528060218152602001612c53602191396000805460408051602060026001851615610100026000190190941693909304601f810184900484028201840190925281815292918301828280156105305780601f1061050557610100808354040283529160200191610530565b90611c7e5760405162461bcd60e51b8152602060048201818152835160248401528351909283926044909101919085019080838360008315610591578181015183820152602001610579565b506002546040516001600160a01b038084169216907f605c2dbf762e5f7d60a546d42e7205dcb1b011ebc62a61736a57c9089d3a435090600090a3600280546001600160a01b0319166001600160a01b0392909216919091179055565b600080611ce6612466565b90506000611d74858584611cf86124d9565b6001600160a01b031663cc530809876040518263ffffffff1660e01b81526004018082815260200191505060206040518083038186803b158015611d3b57600080fd5b505afa158015611d4f573d6000803e3d6000fd5b505050506040513d6020811015611d6557600080fd5b5051611d6f610b22565b6124e3565b50925050505b92915050565b6001805460408051808201825260198152600080516020612c33833981519152602080830191909152600080548451600261010098831615989098026000190190911696909604601f81018390048302870183019094528386526001600160a01b03909416331494611e179492939092918301828280156105305780601f1061050557610100808354040283529160200191610530565b90611e635760405162461bcd60e51b8152602060048201818152835160248401528351909283926044909101919085019080838360008315610591578181015183820152602001610579565b5060005b600454811015611f3657600060048281548110611e8057fe5b60009182526020918290200154600354604080516321f8a72160e01b81526004810184905290519294506001600160a01b03909116926321f8a72192602480840193829003018186803b158015611ed657600080fd5b505afa158015611eea573d6000803e3d6000fd5b505050506040513d6020811015611f0057600080fd5b505160009182526005602052604090912080546001600160a01b0319166001600160a01b03909216919091179055600101611e67565b50565b600080611fbe858585611f4a6124d9565b6001600160a01b031663cc530809886040518263ffffffff1660e01b81526004018082815260200191505060206040518083038186803b158015611f8d57600080fd5b505afa158015611fa1573d6000803e3d6000fd5b505050506040513d6020811015611fb757600080fd5b50516127ad565b509150505b9392505050565b606082826040516020018083805190602001908083835b602083106120005780518252601f199092019160209182019101611fe1565b51815160209384036101000a600019018019909216911617905285519190930192850191508083835b602083106120485780518252601f199092019160209182019101612029565b6001836020036101000a03801982511681845116808217855250505050505090500192505050604051602081830303815290604052905092915050565b6000611d7a640a6f2dce8d60db1b836121d0565b600354604080516309de567f60e41b81526004810184905290516060926001600160a01b031691639de567f0916024808301926000929190829003018186803b1580156120e557600080fd5b505afa1580156120f9573d6000803e3d6000fd5b505050506040513d6000823e601f3d908101601f19168201604052602081101561212257600080fd5b8101908080516040519392919084600160201b82111561214157600080fd5b90830190602082018581111561215657600080fd5b82518660208202830111600160201b8211171561217257600080fd5b82525081516020918201928201910280838360005b8381101561219f578181015183820152602001612187565b505050509050016040525050509050919050565b60006121cb694173736574507269636560b01b61289b565b905090565b60035460408051630659b9d760e41b815260048101859052602481018490528151600093849384936001600160a01b039092169263659b9d70926044808201939291829003018186803b15801561222657600080fd5b505afa15801561223a573d6000803e3d6000fd5b505050506040513d604081101561225057600080fd5b508051602091820151604080518082018252601681527501d1026b4b9b9b4b7339020b9b9b2ba102a37b5b2b7160551b8186015260008054835160026001831615610100026000190190921691909104601f810188900488028201880190945283815294975092955086946122eb9491938a9390918301828280156111345780601f1061110957610100808354040283529160200191611134565b906123375760405162461bcd60e51b8152602060048201818152835160248401528351909283926044909101919085019080838360008315610591578181015183820152602001610579565b50949350505050565b6000611fc38383670de0b6b3a76400006129a1565b600082820183811015611fc3576040805162461bcd60e51b815260206004820152601b60248201527a536166654d6174683a206164646974696f6e206f766572666c6f7760281b604482015290519081900360640190fd5b60608383836040516020018084805190602001908083835b602083106123e45780518252601f1990920191602091820191016123c5565b51815160209384036101000a600019018019909216911617905286519190930192860191508083835b6020831061242c5780518252601f19909201916020918201910161240d565b51815160209384036101000a6000190180199092169116179052920193845250604080518085038152939091019052509695505050505050565b60006124706129dc565b6001600160a01b031663060406186040518163ffffffff1660e01b815260040160206040518083038186803b1580156124a857600080fd5b505afa1580156124bc573d6000803e3d6000fd5b505050506040513d60208110156124d257600080fd5b5051905090565b60006121cb610a2c565b6000806000806124f5898989896127ad565b9150915061251a61251583612509886129f8565b9063ffffffff61262e16565b612a07565b999098509650505050505050565b60006125a6612535612a32565b6001600160a01b0316638d3af9a26040518163ffffffff1660e01b815260040160206040518083038186803b15801561256d57600080fd5b505afa158015612581573d6000803e3d6000fd5b505050506040513d602081101561259757600080fd5b5051839063ffffffff61235516565b42101592915050565b6000818310156125bf5782611fc3565b50919050565b6000611fc383836040518060400160405280601e81526020017f536166654d6174683a207375627472616374696f6e206f766572666c6f770000815250612a47565b6000611fc38383676765c793fa10079d601b1b612aa1565b676765c793fa10079d601b1b90565b6000611fc38383676765c793fa10079d601b1b6129a1565b61264e6124d9565b6001600160a01b03166375cfc97f89898961266f8a8963ffffffff61260716565b87876040518763ffffffff1660e01b815260040180878152602001866001600160a01b03166001600160a01b031681526020018581526020018481526020018381526020018281526020019650505050505050600060405180830381600087803b1580156126dc57600080fd5b505af11580156126f0573d6000803e3d6000fd5b505050506126fc6124d9565b6001600160a01b03166375cfc97f8960008961271e898963ffffffff61260716565b87876040518763ffffffff1660e01b815260040180878152602001866001600160a01b03166001600160a01b031681526020018581526020018481526020018381526020018281526020019650505050505050600060405180830381600087803b15801561278b57600080fd5b505af115801561279f573d6000803e3d6000fd5b505050505050505050505050565b60008060008060006127bd6124d9565b6001600160a01b031663f8cf7b438a8a8a6040518463ffffffff1660e01b815260040180848152602001836001600160a01b03166001600160a01b03168152602001828152602001935050505060606040518083038186803b15801561282257600080fd5b505afa158015612836573d6000803e3d6000fd5b505050506040513d606081101561284c57600080fd5b5080516020820151604090920151909450909250905080612877575060009350839250612892915050565b61288b83612509888563ffffffff61260716565b9450925050505b94509492505050565b60008181526005602090815260408083205481518083018352600a81526901d1026b4b9b9b4b733960b51b818501528454835160026101006001841615026000190190921691909104601f81018690048602820186019094528381526001600160a01b03909216151593612938939192879290918791908301828280156111345780601f1061110957610100808354040283529160200191611134565b906129845760405162461bcd60e51b8152602060048201818152835160248401528351909283926044909101919085019080838360008315610591578181015183820152602001610579565b50506000908152600560205260409020546001600160a01b031690565b60008315806129ae575082155b156129bb57506000611fc3565b816129cc858563ffffffff612ae316565b816129d357fe5b04949350505050565b60006121cb6d537570706c795363686564756c6560901b61289b565b6000611d7a826012601b612b3c565b600080612a1783601b6013612b3c565b90506005600a820610612a2857600a015b600a900492915050565b60006121cb6653657474696e6760c81b61289b565b60008184841115612a995760405162461bcd60e51b8152602060048201818152835160248401528351909283926044909101919085019080838360008315610591578181015183820152602001610579565b505050900390565b6000831580612aae575082155b15612abb57506000611fc3565b612adb83612acf868563ffffffff612ae316565b9063ffffffff612b9316565b949350505050565b600082612af257506000611d7a565b82820282848281612aff57fe5b0414611fc35760405162461bcd60e51b8152600401808060200182810382526021815260200180612c946021913960400191505060405180910390fd5b600083612b4b57506000611fc3565b81831415612b5a575082611fc3565b81831015612b7e57612b7784848403600a0a63ffffffff612ae316565b9050611fc3565b612adb84838503600a0a63ffffffff612b9316565b6000611fc383836040518060400160405280601a815260200179536166654d6174683a206469766973696f6e206279207a65726f60301b81525060008183612c1c5760405162461bcd60e51b8152602060048201818152835160248401528351909283926044909101919085019080838360008315610591578181015183820152602001610579565b506000838581612c2857fe5b049594505050505056fe3a2063616c6c6572206973206e6f7420746865206f776e6572000000000000003a206e6577206d616e6167657220697320746865207a65726f2061646472657373f420db0c49eb249cd6dd94b6b96dabd210919bd87c94ecc5fec4a9e1c9775ad5536166654d6174683a206d756c7469706c69636174696f6e206f766572666c6f774973737565723a204d696e696d756d207374616b652074696d65206e6f7420726561636865643a2063616e6e6f742068617665206d6f7265207468616e203230206974656d73a265627a7a7231582026c95d10d246417f874bc5cb7ea138db29bf3bec1f37f77df76482ba9c7a330964736f6c63430005110032",
  "source": "// SPDX-License-Identifier: MIT\npragma solidity ^0.5.17;\n\nimport './lib/Address.sol';\nimport './lib/SafeMath.sol';\nimport './lib/PreciseMath.sol';\nimport './base/Importable.sol';\nimport './base/ExternalStorable.sol';\nimport './interfaces/IIssuer.sol';\nimport './interfaces/storages/IIssuerStorage.sol';\nimport './interfaces/IAssetPrice.sol';\nimport './interfaces/ISetting.sol';\nimport './interfaces/ISynth.sol';\nimport './interfaces/IEscrow.sol';\nimport './interfaces/IERC20.sol';\n\ncontract Issuer is Importable, ExternalStorable, IIssuer {\n    bytes32 private constant SYNTH = 'Synth';\n    bytes32 private constant LAST = 'Last';\n\n    using Address for address;\n    using SafeMath for uint256;\n    using PreciseMath for uint256;\n\n    bytes32[] private ISSUEABLE_CONTRACTS = [CONTRACT_TRADER, CONTRACT_STAKER];\n\n    constructor(IResolver _resolver) public Importable(_resolver) {\n        setContractName(CONTRACT_ISSUER);\n        imports = [\n            CONTRACT_SYNTHX,\n            CONTRACT_SUPPLY_SCHEDULE,\n            CONTRACT_ASSET_PRICE,\n            CONTRACT_SETTING,\n            CONTRACT_ESCROW,\n            CONTRACT_TRADER,\n            CONTRACT_STAKER\n        ];\n    }\n\n    function Setting() private view returns (ISetting) {\n        return ISetting(requireAddress(CONTRACT_SETTING));\n    }\n\n    function AssetPrice() private view returns (IAssetPrice) {\n        return IAssetPrice(requireAddress(CONTRACT_ASSET_PRICE));\n    }\n\n    function Escrow() private view returns (IEscrow) {\n        return IEscrow(requireAddress(CONTRACT_ESCROW));\n    }\n\n    function Synth(bytes32 synth) private view returns (ISynth) {\n        return ISynth(requireAsset('Synth', synth));\n    }\n\n    function Storage() internal view returns (IIssuerStorage) {\n        return IIssuerStorage(getStorage());\n    }\n\n    function issueDebt(\n        bytes32 stake,\n        address account,\n        uint256 amount\n    ) external onlyAddress(CONTRACT_SYNTHX) {\n        uint256 currentPeriod = getCurrentPeriod();\n        uint256 totalDebt = getTotalDebt();\n        uint256 lastDebt = Storage().getLastDebt(currentPeriod);\n\n        (uint256 accountDebt, ) = _getDebt(stake, account, currentPeriod, lastDebt, totalDebt);\n        (uint256 stakeDebt, ) = _getDebt(stake, address(0), currentPeriod, lastDebt, totalDebt);\n\n        uint256 newTotalDebt = totalDebt.add(amount);\n        uint256 newLastDebt = PreciseMath.PRECISE_ONE();\n\n        if (lastDebt > 0) {\n            uint256 delta = amount.preciseDivide(newTotalDebt);\n            newLastDebt = lastDebt.preciseMultiply(PreciseMath.PRECISE_ONE().sub(delta));\n        }\n\n        _setDebt(\n            stake,\n            account,\n            currentPeriod,\n            accountDebt.add(amount),\n            stakeDebt.add(amount),\n            newTotalDebt,\n            newLastDebt,\n            now\n        );\n\n        Synth(USD).mint(account, amount);\n    }\n\n    function burnDebt(\n        bytes32 stake,\n        address account,\n        uint256 amount,\n        address payer\n    ) external onlyAddress(CONTRACT_SYNTHX) returns (uint256) {\n        uint256 currentPeriod = getCurrentPeriod();\n        uint256 totalDebt = getTotalDebt();\n        uint256 lastDebt = Storage().getLastDebt(currentPeriod);\n\n        (uint256 accountDebt, uint256 lastTime) = _getDebt(stake, account, currentPeriod, lastDebt, totalDebt);\n        require(_canBurn(lastTime), 'Issuer: Minimum stake time not reached');\n        (uint256 stakeDebt, ) = _getDebt(stake, address(0), currentPeriod, lastDebt, totalDebt);\n\n        uint256 burnableAmount = accountDebt.min(amount);\n        require(burnableAmount > 0, 'Issuer: burnable is zero');\n\n        uint256 newTotalDebt = totalDebt.sub(burnableAmount);\n        uint256 newLastDebt = 0;\n\n        if (newTotalDebt > 0) {\n            uint256 delta = burnableAmount.preciseDivide(newTotalDebt);\n            newLastDebt = lastDebt.preciseMultiply(PreciseMath.PRECISE_ONE().add(delta));\n        }\n\n        _setDebt(\n            stake,\n            account,\n            currentPeriod,\n            accountDebt.sub(burnableAmount),\n            stakeDebt.sub(burnableAmount),\n            newTotalDebt,\n            newLastDebt,\n            lastTime\n        );\n\n        Synth(USD).burn(payer, burnableAmount);\n        return burnableAmount;\n    }\n\n    function issueSynth(\n        bytes32 synth,\n        address account,\n        uint256 amount\n    ) external containAddress(ISSUEABLE_CONTRACTS) {\n        Synth(synth).mint(account, amount);\n    }\n\n    function burnSynth(\n        bytes32 synth,\n        address account,\n        uint256 amount\n    ) external containAddress(ISSUEABLE_CONTRACTS) {\n        Synth(synth).burn(account, amount);\n    }\n\n    function getDebt(bytes32 stake, address account) external view returns (uint256) {\n        uint256 currentPeriod = getCurrentPeriod();\n        (uint256 debt, ) =\n            _getDebt(stake, account, currentPeriod, Storage().getLastDebt(currentPeriod), getTotalDebt());\n        return debt;\n    }\n\n    function getTotalDebt() public view returns (uint256) {\n        bytes32[] memory synths = assets(SYNTH);\n        uint256[] memory prices = AssetPrice().getPrices(synths);\n        uint256 total = 0;\n        for (uint256 i = 0; i < synths.length; i++) {\n            address synth = requireAsset(SYNTH, synths[i]);\n            total = total.add(IERC20(synth).totalSupply().decimalMultiply(prices[i]));\n        }\n        return total;\n    }\n\n    function getDebtPercentage(\n        bytes32 stake,\n        address account,\n        uint256 period\n    ) external view returns (uint256) {\n        (uint256 debtPercentage, ) = _getDebtPercentage(stake, account, period, Storage().getLastDebt(period));\n        return debtPercentage;\n    }\n\n    function _canBurn(uint256 time) private view returns (bool) {\n        return now >= time.add(Setting().getMinStakeTime());\n    }\n\n    function _getDebt(\n        bytes32 stake,\n        address account,\n        uint256 period,\n        uint256 lastDebt,\n        uint256 totalDebt\n    ) private view returns (uint256, uint256) {\n        (uint256 debtPercentage, uint256 time) = _getDebtPercentage(stake, account, period, lastDebt);\n        return (totalDebt.toPrecise().preciseMultiply(debtPercentage).toDecimal(), time);\n    }\n\n    function _getDebtPercentage(\n        bytes32 stake,\n        address account,\n        uint256 period,\n        uint256 lastDebt\n    ) private view returns (uint256, uint256) {\n        (uint256 accountDebt, uint256 totalDebt, uint256 time) = Storage().getDebt(stake, account, period);\n        if (time == 0) return (0, 0);\n        return (lastDebt.preciseDivide(totalDebt).preciseMultiply(accountDebt), time);\n    }\n\n    function _setDebt(\n        bytes32 stake,\n        address account,\n        uint256 period,\n        uint256 accountDebt,\n        uint256 stakeDebt,\n        uint256 totalDebt,\n        uint256 lastDebt,\n        uint256 time\n    ) private {\n        Storage().setDebt(stake, account, period, accountDebt.preciseDivide(totalDebt), lastDebt, time);\n        Storage().setDebt(stake, address(0), period, stakeDebt.preciseDivide(totalDebt), lastDebt, time);\n    }\n}\n",
  "sourcePath": "/Users/sun/go/src/github.com/Dipper-Labs/DIPSYN/contracts/Issuer.sol",
  "compiler": {
    "name": "solc",
    "version": "0.5.17+commit.d19bba13.Emscripten.clang"
  },
  "schemaVersion": "3.3.4",
  "updatedAt": "2021-04-21T04:08:13.975Z",
  "devdoc": {
    "methods": {}
  },
  "userdoc": {
    "methods": {}
  }
}