{
  "contractName": "IssuerStorage",
  "abi": [
    {
      "inputs": [
        {
          "internalType": "address",
          "name": "_manager",
          "type": "address"
        }
      ],
      "payable": false,
      "stateMutability": "nonpayable",
      "type": "constructor"
    },
    {
      "anonymous": false,
      "inputs": [
        {
          "indexed": true,
          "internalType": "address",
          "name": "previousValue",
          "type": "address"
        },
        {
          "indexed": true,
          "internalType": "address",
          "name": "newValue",
          "type": "address"
        }
      ],
      "name": "ManagerChanged",
      "type": "event"
    },
    {
      "anonymous": false,
      "inputs": [
        {
          "indexed": true,
          "internalType": "address",
          "name": "previousValue",
          "type": "address"
        },
        {
          "indexed": true,
          "internalType": "address",
          "name": "newValue",
          "type": "address"
        }
      ],
      "name": "OwnerChanged",
      "type": "event"
    },
    {
      "constant": true,
      "inputs": [],
      "name": "contractName",
      "outputs": [
        {
          "internalType": "string",
          "name": "",
          "type": "string"
        }
      ],
      "payable": false,
      "stateMutability": "view",
      "type": "function"
    },
    {
      "constant": true,
      "inputs": [],
      "name": "manager",
      "outputs": [
        {
          "internalType": "address",
          "name": "",
          "type": "address"
        }
      ],
      "payable": false,
      "stateMutability": "view",
      "type": "function"
    },
    {
      "constant": true,
      "inputs": [],
      "name": "owner",
      "outputs": [
        {
          "internalType": "address",
          "name": "",
          "type": "address"
        }
      ],
      "payable": false,
      "stateMutability": "view",
      "type": "function"
    },
    {
      "constant": false,
      "inputs": [
        {
          "internalType": "address",
          "name": "_manager",
          "type": "address"
        }
      ],
      "name": "setManager",
      "outputs": [],
      "payable": false,
      "stateMutability": "nonpayable",
      "type": "function"
    },
    {
      "constant": false,
      "inputs": [
        {
          "internalType": "address",
          "name": "_owner",
          "type": "address"
        }
      ],
      "name": "setOwner",
      "outputs": [],
      "payable": false,
      "stateMutability": "nonpayable",
      "type": "function"
    },
    {
      "constant": false,
      "inputs": [
        {
          "internalType": "bytes32",
          "name": "stake",
          "type": "bytes32"
        },
        {
          "internalType": "address",
          "name": "account",
          "type": "address"
        },
        {
          "internalType": "uint256",
          "name": "period",
          "type": "uint256"
        },
        {
          "internalType": "uint256",
          "name": "accountDebt",
          "type": "uint256"
        },
        {
          "internalType": "uint256",
          "name": "totalDebt",
          "type": "uint256"
        },
        {
          "internalType": "uint256",
          "name": "time",
          "type": "uint256"
        }
      ],
      "name": "setDebt",
      "outputs": [],
      "payable": false,
      "stateMutability": "nonpayable",
      "type": "function"
    },
    {
      "constant": true,
      "inputs": [
        {
          "internalType": "bytes32",
          "name": "stake",
          "type": "bytes32"
        },
        {
          "internalType": "address",
          "name": "account",
          "type": "address"
        },
        {
          "internalType": "uint256",
          "name": "period",
          "type": "uint256"
        }
      ],
      "name": "getDebt",
      "outputs": [
        {
          "internalType": "uint256",
          "name": "accountDebt",
          "type": "uint256"
        },
        {
          "internalType": "uint256",
          "name": "totalDebt",
          "type": "uint256"
        },
        {
          "internalType": "uint256",
          "name": "time",
          "type": "uint256"
        }
      ],
      "payable": false,
      "stateMutability": "view",
      "type": "function"
    },
    {
      "constant": true,
      "inputs": [
        {
          "internalType": "uint256",
          "name": "period",
          "type": "uint256"
        }
      ],
      "name": "getLastDebt",
      "outputs": [
        {
          "internalType": "uint256",
          "name": "",
          "type": "uint256"
        }
      ],
      "payable": false,
      "stateMutability": "view",
      "type": "function"
    }
  ],
  "bytecode": "0x60806040526636b0b730b3b2b960c91b6003553480156200001f57600080fd5b5060405162001b1938038062001b19833981810160405260208110156200004557600080fd5b505160018054336001600160a01b031991821681179092556002805490911690911790558062000075816200007d565b505062000755565b60018054604080518082018252601981527f3a2063616c6c6572206973206e6f7420746865206f776e657200000000000000602080830191909152600080548451600261010098831615989098026000190190911696909604601f81018390048302870183019094528386526001600160a01b039094163314946200016f949293909291830182828015620001565780601f106200012a5761010080835404028352916020019162000156565b820191906000526020600020905b8154815290600101906020018083116200013857829003601f168201915b5050505050620003ae60201b62000da11790919060201c565b90620001fc5760405162461bcd60e51b81526004018080602001828103825283818151815260200191508051906020019080838360005b83811015620001c0578181015183820152602001620001a6565b50505050905090810190601f168015620001ee5780820380516001836020036101000a031916815260200191505b509250505060405180910390fd5b5062000213816200046d60201b62000f5e1760201c565b6040805180820190915260078082526653746f7261676560c81b60209092019182526200024391600091620006b0565b5060025460408051631d74303760e21b8152905162000392926001600160a01b0316916375d0c0dc916004808301926000929190829003018186803b1580156200028c57600080fd5b505afa158015620002a1573d6000803e3d6000fd5b505050506040513d6000823e601f3d908101601f191682016040526020811015620002cb57600080fd5b8101908080516040519392919084640100000000821115620002ec57600080fd5b9083019060208201858111156200030257600080fd5b82516401000000008111828201881017156200031d57600080fd5b82525081516020918201929091019080838360005b838110156200034c57818101518382015260200162000332565b50505050905090810190601f1680156200037a5780820380516001836020036101000a031916815260200191505b50604052505050620006a960201b620011791760201c565b6003819055620003ab576636b0b730b3b2b960c91b6003555b50565b606082826040516020018083805190602001908083835b60208310620003e65780518252601f199092019160209182019101620003c5565b51815160209384036101000a600019018019909216911617905285519190930192850191508083835b60208310620004305780518252601f1990920191602091820191016200040f565b6001836020036101000a03801982511681845116808217855250505050505090500192505050604051602081830303815290604052905092915050565b60018054604080518082018252601981527f3a2063616c6c6572206973206e6f7420746865206f776e657200000000000000602080830191909152600080548451600261010098831615989098026000190190911696909604601f81018390048302870183019094528386526001600160a01b039094163314946200051a949293909291830182828015620001565780601f106200012a5761010080835404028352916020019162000156565b90620005695760405162461bcd60e51b8152602060048201818152835160248401528351909283926044909101919085019080838360008315620001c0578181015183820152602001620001a6565b5060006001600160a01b0316816001600160a01b03161415620005fd60405180606001604052806021815260200162001af8602191396000805460408051602060026001851615610100026000190190941693909304601f81018490048402820184019092528181529291830182828015620001565780601f106200012a5761010080835404028352916020019162000156565b906200064c5760405162461bcd60e51b8152602060048201818152835160248401528351909283926044909101919085019080838360008315620001c0578181015183820152602001620001a6565b506002546040516001600160a01b038084169216907f605c2dbf762e5f7d60a546d42e7205dcb1b011ebc62a61736a57c9089d3a435090600090a3600280546001600160a01b0319166001600160a01b0392909216919091179055565b6020015190565b828054600181600116156101000203166002900490600052602060002090601f016020900481019282601f10620006f357805160ff191683800117855562000723565b8280016001018555821562000723579182015b828111156200072357825182559160200191906001019062000706565b506200073192915062000735565b5090565b6200075291905b808211156200073157600081556001016200073c565b90565b61139380620007656000396000f3fe608060405234801561001057600080fd5b50600436106100785760003560e01c806313af40351461007d578063481c6a75146100a557806375cfc97f146100c957806375d0c0dc1461010d5780638da5cb5b1461018a578063cc53080914610192578063d0ebdbe7146101c1578063f8cf7b43146101e7575b600080fd5b6100a36004803603602081101561009357600080fd5b50356001600160a01b0316610237565b005b6100ad6104df565b604080516001600160a01b039092168252519081900360200190f35b6100a3600480360360c08110156100df57600080fd5b508035906001600160a01b036020820135169060408101359060608101359060808101359060a001356104ee565b6101156108b2565b6040805160208082528351818301528351919283929083019185019080838360005b8381101561014f578181015183820152602001610137565b50505050905090810190601f16801561017c5780820380516001836020036101000a031916815260200191505b509250505060405180910390f35b6100ad610940565b6101af600480360360208110156101a857600080fd5b503561094f565b60408051918252519081900360200190f35b6100a3600480360360208110156101d757600080fd5b50356001600160a01b0316610a2d565b610219600480360360608110156101fd57600080fd5b508035906001600160a01b036020820135169060400135610c9a565b60408051938452602084019290925282820152519081900360600190f35b600180546040805180820182526019815260008051602061129e833981519152602080830191909152600080548451600261010098831615989098026000190190911696909604601f81018390048302870183019094528386526001600160a01b0390941633149461030c9492939092918301828280156102f95780601f106102ce576101008083540402835291602001916102f9565b820191906000526020600020905b8154815290600101906020018083116102dc57829003601f168201915b5050505050610da190919063ffffffff16565b906103955760405162461bcd60e51b81526004018080602001828103825283818151815260200191508051906020019080838360005b8381101561035a578181015183820152602001610342565b50505050905090810190601f1680156103875780820380516001836020036101000a031916815260200191505b509250505060405180910390fd5b50604080518082018252601f8082527f3a206e6577206f776e657220697320746865207a65726f206164647265737300602080840191909152600080548551600260001961010060018516150201909216919091049384018390048302810183019095528285526001600160a01b038616151594610436949390928301828280156102f95780601f106102ce576101008083540402835291602001916102f9565b906104825760405162461bcd60e51b815260206004820181815283516024840152835190928392604490910191908501908083836000831561035a578181015183820152602001610342565b506001546040516001600160a01b038084169216907fb532073b38c83145e3e5135377a08bf9aab55bc0fd7c1179cd4fb995d2a5159c90600090a3600180546001600160a01b0319166001600160a01b0392909216919091179055565b6002546001600160a01b031681565b60035460028054604080518082018252601481527301d1031b0b63632b91034b9903737ba103a3432960651b6020808301919091526000805484516101006001831615026000190190911696909604601f81018390048302870183019094528386526001600160a01b039094163314946105cd949293879391928301828280156105b95780601f1061058e576101008083540402835291602001916105b9565b820191906000526020600020905b81548152906001019060200180831161059c57829003601f168201915b5050505050610e5c9092919063ffffffff16565b906106195760405162461bcd60e51b815260206004820181815283516024840152835190928392604490910191908501908083836000831561035a578181015183820152602001610342565b5060008781526004602090815260408083206001600160a01b038a16845282528083208884529091529020600301548590158015610687575060008881526004602090815260408083206001600160a01b038b1684528252808320602d60f81b845290915290206003015415155b156107075760008881526004602090815260408083206001600160a01b038b16808552818452828520602d60f81b8652808552928520908552925290916106d589600163ffffffff610f1516565b815260208101919091526040016000208154815560018083015490820155600280830154908201556003918201549101555b6000818152600560205260409020600301541580156107415750602d60f81b60005260056020526000805160206112df8339815191525415155b156107aa57602d60f81b60009081526005602081905260008051602061131f8339815191529161077889600163ffffffff610f1516565b815260208101919091526040016000208154815560018083015490820155600280830154908201556003918201549101555b604080516080810182529687526020808801968752878201958652606088019485526000998a5260048152818a206001600160a01b03999099168a52978852808920828a52885280892096518088559551600180890191825595516002808a0191825595516003808b01918255602d60f81b808e52858e209a8b5584548b8b015583548b8a015582549a82019a909a55948c526005909a52918a2088548155815496810196909655815494860194909455875494909101939093555091909452905460008051602061131f833981519152555460008051602061133f8339815191525590546000805160206112ff83398151915255546000805160206112df83398151915255565b6000805460408051602060026001851615610100026000190190941693909304601f810184900484028201840190925281815292918301828280156109385780601f1061090d57610100808354040283529160200191610938565b820191906000526020600020905b81548152906001019060200180831161091b57829003601f168201915b505050505081565b6001546001600160a01b031681565b60006109596111da565b5060008281526005602090815260409182902082516080810184528154815260018201549281019290925260028101549282019290925260039091015460608201819052610a0e5750602d60f81b600052600560209081526040805160808101825260008051602061131f83398151915254815260008051602061133f83398151915254928101929092526000805160206112ff83398151915254908201526000805160206112df8339815191525460608201525b8051831015610a21576000915050610a28565b6040015190505b919050565b600180546040805180820182526019815260008051602061129e833981519152602080830191909152600080548451600261010098831615989098026000190190911696909604601f81018390048302870183019094528386526001600160a01b03909416331494610ac49492939092918301828280156102f95780601f106102ce576101008083540402835291602001916102f9565b90610b105760405162461bcd60e51b815260206004820181815283516024840152835190928392604490910191908501908083836000831561035a578181015183820152602001610342565b50610b1a81610f5e565b6040805180820190915260078082526653746f7261676560c81b6020909201918252610b4891600091611202565b5060025460408051631d74303760e21b81529051610c7f926001600160a01b0316916375d0c0dc916004808301926000929190829003018186803b158015610b8f57600080fd5b505afa158015610ba3573d6000803e3d6000fd5b505050506040513d6000823e601f3d908101601f191682016040526020811015610bcc57600080fd5b8101908080516040519392919084600160201b821115610beb57600080fd5b908301906020820185811115610c0057600080fd5b8251600160201b811182820188101715610c1957600080fd5b82525081516020918201929091019080838360005b83811015610c46578181015183820152602001610c2e565b50505050905090810190601f168015610c735780820380516001836020036101000a031916815260200191505b50604052505050611179565b6003819055610c97576636b0b730b3b2b960c91b6003555b50565b6000806000610ca76111da565b5060008681526004602090815260408083206001600160a01b0389168452825280832087845282529182902082516080810184528154815260018201549281019290925260028101549282019290925260039091015460608201819052610d68575060008681526004602090815260408083206001600160a01b03891684528252808320602d60f81b845282529182902082516080810184528154815260018201549281019290925260028101549282019290925260039091015460608201525b8051851015610d81575060009250829150819050610d98565b806020015181604001518260600151935093509350505b93509350939050565b606082826040516020018083805190602001908083835b60208310610dd75780518252601f199092019160209182019101610db8565b51815160209384036101000a600019018019909216911617905285519190930192850191508083835b60208310610e1f5780518252601f199092019160209182019101610e00565b6001836020036101000a03801982511681845116808217855250505050505090500192505050604051602081830303815290604052905092915050565b60608383836040516020018084805190602001908083835b60208310610e935780518252601f199092019160209182019101610e74565b51815160209384036101000a600019018019909216911617905286519190930192860191508083835b60208310610edb5780518252601f199092019160209182019101610ebc565b51815160209384036101000a6000190180199092169116179052920193845250604080518085038152939091019052509695505050505050565b6000610f5783836040518060400160405280601e81526020017f536166654d6174683a207375627472616374696f6e206f766572666c6f770000815250611180565b9392505050565b600180546040805180820182526019815260008051602061129e833981519152602080830191909152600080548451600261010098831615989098026000190190911696909604601f81018390048302870183019094528386526001600160a01b03909416331494610ff59492939092918301828280156102f95780601f106102ce576101008083540402835291602001916102f9565b906110415760405162461bcd60e51b815260206004820181815283516024840152835190928392604490910191908501908083836000831561035a578181015183820152602001610342565b5060006001600160a01b0316816001600160a01b031614156110d06040518060600160405280602181526020016112be602191396000805460408051602060026001851615610100026000190190941693909304601f810184900484028201840190925281815292918301828280156102f95780601f106102ce576101008083540402835291602001916102f9565b9061111c5760405162461bcd60e51b815260206004820181815283516024840152835190928392604490910191908501908083836000831561035a578181015183820152602001610342565b506002546040516001600160a01b038084169216907f605c2dbf762e5f7d60a546d42e7205dcb1b011ebc62a61736a57c9089d3a435090600090a3600280546001600160a01b0319166001600160a01b0392909216919091179055565b6020015190565b600081848411156111d25760405162461bcd60e51b815260206004820181815283516024840152835190928392604490910191908501908083836000831561035a578181015183820152602001610342565b505050900390565b6040518060800160405280600081526020016000815260200160008152602001600081525090565b828054600181600116156101000203166002900490600052602060002090601f016020900481019282601f1061124357805160ff1916838001178555611270565b82800160010185558215611270579182015b82811115611270578251825591602001919060010190611255565b5061127c929150611280565b5090565b61129a91905b8082111561127c5760008155600101611286565b9056fe3a2063616c6c6572206973206e6f7420746865206f776e6572000000000000003a206e6577206d616e6167657220697320746865207a65726f20616464726573735b4b42e75957df3404f20896f3ab63047ae9665d16d9969d42507ddb0dc8122c5b4b42e75957df3404f20896f3ab63047ae9665d16d9969d42507ddb0dc8122b5b4b42e75957df3404f20896f3ab63047ae9665d16d9969d42507ddb0dc812295b4b42e75957df3404f20896f3ab63047ae9665d16d9969d42507ddb0dc8122aa265627a7a7231582065f4cf4e291968fea109b5f5238173e76046d208ea3a34c057d65ff1f7183b9564736f6c634300051100323a206e6577206d616e6167657220697320746865207a65726f2061646472657373",
  "source": "pragma solidity ^0.5.17;\n\nimport './ExternalStorage.sol';\nimport '../interfaces/storages/IIssuerStorage.sol';\n\ncontract IssuerStorage is ExternalStorage, IIssuerStorage {\n    mapping(bytes32 => mapping(address => mapping(bytes32 => Debt))) private _storage;\n\n    mapping(bytes32 => Debt) private _last;\n\n    constructor(address _manager) public ExternalStorage(_manager) {}\n\n    function setDebt(\n        bytes32 stake,\n        address account,\n        uint256 period,\n        uint256 accountDebt,\n        uint256 totalDebt,\n        uint256 time\n    ) external onlyManager(managerName) {\n        bytes32 PERIOD = bytes32(period);\n\n        if (_storage[stake][account][PERIOD].time == 0 && _storage[stake][account][DEFAULT].time > 0)\n            _storage[stake][account][bytes32(period.sub(1))] = _storage[stake][account][DEFAULT];\n\n        if (_last[PERIOD].time == 0 && _last[DEFAULT].time > 0) _last[bytes32(period.sub(1))] = _last[DEFAULT];\n\n        _storage[stake][account][PERIOD] = Debt(period, accountDebt, totalDebt, time);\n        _storage[stake][account][DEFAULT] = _storage[stake][account][PERIOD];\n\n        _last[PERIOD] = _storage[stake][account][PERIOD];\n        _last[DEFAULT] = _storage[stake][account][PERIOD];\n    }\n\n    function getDebt(\n        bytes32 stake,\n        address account,\n        uint256 period\n    )\n        external\n        view\n        returns (\n            uint256 accountDebt,\n            uint256 totalDebt,\n            uint256 time\n        )\n    {\n        Debt memory debt = _storage[stake][account][bytes32(period)];\n        if (debt.time == 0) debt = _storage[stake][account][DEFAULT];\n        if (debt.period > period) return (0, 0, 0);\n        return (debt.account, debt.total, debt.time);\n    }\n\n    function getLastDebt(uint256 period) external view returns (uint256) {\n        Debt memory debt = _last[bytes32(period)];\n        if (debt.time == 0) debt = _last[DEFAULT];\n        if (debt.period > period) return 0;\n        return debt.total;\n    }\n}\n",
  "sourcePath": "/Users/sun/go/src/github.com/Dipper-Labs/DIPSYN/contracts/storages/IssuerStorage.sol",
  "compiler": {
    "name": "solc",
    "version": "0.5.17+commit.d19bba13.Emscripten.clang"
  },
  "schemaVersion": "3.3.4",
  "updatedAt": "2021-04-21T04:08:14.093Z",
  "devdoc": {
    "methods": {}
  },
  "userdoc": {
    "methods": {}
  }
}