{
  "contractName": "LiquidatorStorage",
  "abi": [
    {
      "inputs": [
        {
          "internalType": "address",
          "name": "_manager",
          "type": "address"
        }
      ],
      "payable": false,
      "stateMutability": "nonpayable",
      "type": "constructor"
    },
    {
      "anonymous": false,
      "inputs": [
        {
          "indexed": true,
          "internalType": "address",
          "name": "previousValue",
          "type": "address"
        },
        {
          "indexed": true,
          "internalType": "address",
          "name": "newValue",
          "type": "address"
        }
      ],
      "name": "ManagerChanged",
      "type": "event"
    },
    {
      "anonymous": false,
      "inputs": [
        {
          "indexed": true,
          "internalType": "address",
          "name": "previousValue",
          "type": "address"
        },
        {
          "indexed": true,
          "internalType": "address",
          "name": "newValue",
          "type": "address"
        }
      ],
      "name": "OwnerChanged",
      "type": "event"
    },
    {
      "constant": true,
      "inputs": [],
      "name": "contractName",
      "outputs": [
        {
          "internalType": "string",
          "name": "",
          "type": "string"
        }
      ],
      "payable": false,
      "stateMutability": "view",
      "type": "function"
    },
    {
      "constant": true,
      "inputs": [],
      "name": "manager",
      "outputs": [
        {
          "internalType": "address",
          "name": "",
          "type": "address"
        }
      ],
      "payable": false,
      "stateMutability": "view",
      "type": "function"
    },
    {
      "constant": true,
      "inputs": [],
      "name": "owner",
      "outputs": [
        {
          "internalType": "address",
          "name": "",
          "type": "address"
        }
      ],
      "payable": false,
      "stateMutability": "view",
      "type": "function"
    },
    {
      "constant": false,
      "inputs": [
        {
          "internalType": "address",
          "name": "_manager",
          "type": "address"
        }
      ],
      "name": "setManager",
      "outputs": [],
      "payable": false,
      "stateMutability": "nonpayable",
      "type": "function"
    },
    {
      "constant": false,
      "inputs": [
        {
          "internalType": "address",
          "name": "_owner",
          "type": "address"
        }
      ],
      "name": "setOwner",
      "outputs": [],
      "payable": false,
      "stateMutability": "nonpayable",
      "type": "function"
    },
    {
      "constant": false,
      "inputs": [
        {
          "internalType": "bytes32",
          "name": "stake",
          "type": "bytes32"
        },
        {
          "internalType": "address",
          "name": "account",
          "type": "address"
        },
        {
          "internalType": "uint256",
          "name": "time",
          "type": "uint256"
        }
      ],
      "name": "addWatch",
      "outputs": [],
      "payable": false,
      "stateMutability": "nonpayable",
      "type": "function"
    },
    {
      "constant": false,
      "inputs": [
        {
          "internalType": "bytes32",
          "name": "stake",
          "type": "bytes32"
        },
        {
          "internalType": "address",
          "name": "account",
          "type": "address"
        }
      ],
      "name": "removeWatch",
      "outputs": [],
      "payable": false,
      "stateMutability": "nonpayable",
      "type": "function"
    },
    {
      "constant": true,
      "inputs": [
        {
          "internalType": "bytes32",
          "name": "stake",
          "type": "bytes32"
        },
        {
          "internalType": "address",
          "name": "account",
          "type": "address"
        }
      ],
      "name": "getDeadline",
      "outputs": [
        {
          "internalType": "uint256",
          "name": "",
          "type": "uint256"
        }
      ],
      "payable": false,
      "stateMutability": "view",
      "type": "function"
    },
    {
      "constant": true,
      "inputs": [
        {
          "internalType": "bytes32",
          "name": "stake",
          "type": "bytes32"
        },
        {
          "internalType": "uint256",
          "name": "pageSize",
          "type": "uint256"
        },
        {
          "internalType": "uint256",
          "name": "pageNumber",
          "type": "uint256"
        }
      ],
      "name": "getAccounts",
      "outputs": [
        {
          "internalType": "address[]",
          "name": "",
          "type": "address[]"
        },
        {
          "components": [
            {
              "internalType": "uint256",
              "name": "totalRecords",
              "type": "uint256"
            },
            {
              "internalType": "uint256",
              "name": "totalPages",
              "type": "uint256"
            },
            {
              "internalType": "uint256",
              "name": "pageRecords",
              "type": "uint256"
            },
            {
              "internalType": "uint256",
              "name": "pageSize",
              "type": "uint256"
            },
            {
              "internalType": "uint256",
              "name": "pageNumber",
              "type": "uint256"
            }
          ],
          "internalType": "struct Paging.Page",
          "name": "",
          "type": "tuple"
        }
      ],
      "payable": false,
      "stateMutability": "view",
      "type": "function"
    }
  ],
  "bytecode": "0x60806040526636b0b730b3b2b960c91b6003553480156200001f57600080fd5b5060405162001df538038062001df58339810160408190526200004291620005b4565b60018054336001600160a01b0319918216811790925560028054909116909117905580620000708162000078565b505062000787565b60018054604080518082018252601981527f3a2063616c6c6572206973206e6f7420746865206f776e657200000000000000602080830191909152600080548451600261010098831615989098026000190190911696909604601f81018390048302870183019094528386526001600160a01b039094163314946200016a949293909291830182828015620001515780601f10620001255761010080835404028352916020019162000151565b820191906000526020600020905b8154815290600101906020018083116200013357829003601f168201915b50505050506200029060201b62000afc1790919060201c565b90620001945760405162461bcd60e51b81526004016200018b9190620006a6565b60405180910390fd5b50620001ab81620002bf60201b62000b9a1760201c565b6040805180820190915260078082526653746f7261676560c81b6020909201918252620001db91600091620004a6565b5060025460408051631d74303760e21b8152905162000274926001600160a01b0316916375d0c0dc916004808301926000929190829003018186803b1580156200022457600080fd5b505afa15801562000239573d6000803e3d6000fd5b505050506040513d6000823e601f3d908101601f19168201604052620002639190810190620005dd565b6200049f60201b62000d591760201c565b60038190556200028d576636b0b730b3b2b960c91b6003555b50565b60608282604051602001620002a79291906200068a565b60405160208183030381529060405290505b92915050565b60018054604080518082018252601981527f3a2063616c6c6572206973206e6f7420746865206f776e657200000000000000602080830191909152600080548451600261010098831615989098026000190190911696909604601f81018390048302870183019094528386526001600160a01b039094163314946200036c949293909291830182828015620001515780601f10620001255761010080835404028352916020019162000151565b906200038d5760405162461bcd60e51b81526004016200018b9190620006a6565b5060006001600160a01b0316816001600160a01b031614156200042160405180606001604052806021815260200162001dd4602191396000805460408051602060026001851615610100026000190190941693909304601f81018490048402820184019092528181529291830182828015620001515780601f10620001255761010080835404028352916020019162000151565b90620004425760405162461bcd60e51b81526004016200018b9190620006a6565b506002546040516001600160a01b038084169216907f605c2dbf762e5f7d60a546d42e7205dcb1b011ebc62a61736a57c9089d3a435090600090a3600280546001600160a01b0319166001600160a01b0392909216919091179055565b6020015190565b828054600181600116156101000203166002900490600052602060002090601f016020900481019282601f10620004e957805160ff191683800117855562000519565b8280016001018555821562000519579182015b8281111562000519578251825591602001919060010190620004fc565b50620005279291506200052b565b5090565b6200054891905b8082111562000527576000815560010162000532565b90565b8051620002b98162000770565b600082601f8301126200056a57600080fd5b8151620005816200057b82620006e7565b620006c0565b915080825260208301602083018583830111156200059e57600080fd5b620005ab83828462000733565b50505092915050565b600060208284031215620005c757600080fd5b6000620005d584846200054b565b949350505050565b600060208284031215620005f057600080fd5b81516001600160401b038111156200060757600080fd5b620005d58482850162000558565b600062000622826200070f565b6200062e818562000713565b93506200064081856020860162000733565b6200064b8162000766565b9093019392505050565b600062000662826200070f565b6200066e81856200071c565b93506200068081856020860162000733565b9290920192915050565b600062000698828562000655565b9150620005d5828462000655565b60208082528101620006b9818462000615565b9392505050565b6040518181016001600160401b0381118282101715620006df57600080fd5b604052919050565b60006001600160401b03821115620006fe57600080fd5b506020601f91909101601f19160190565b5190565b90815260200190565b919050565b60006001600160a01b038216620002b9565b60005b838110156200075057818101518382015260200162000736565b8381111562000760576000848401525b50505050565b601f01601f191690565b6200077b8162000721565b81146200028d57600080fd5b61163d80620007976000396000f3fe608060405234801561001057600080fd5b50600436106100835760003560e01c806313af4035146100885780631bd43bc71461009d5780632e91b796146100c6578063481c6a75146100d957806375d0c0dc146100ee5780638da5cb5b14610103578063a023cef21461010b578063d0ebdbe71461011e578063e82eb3f214610131575b600080fd5b61009b610096366004611159565b610152565b005b6100b06100ab36600461117f565b61036a565b6040516100bd91906114e2565b60405180910390f35b61009b6100d436600461117f565b610397565b6100e1610609565b6040516100bd9190611483565b6100f6610618565b6040516100bd91906114b1565b6100e16106a6565b61009b6101193660046111b9565b6106b5565b61009b61012c366004611159565b610827565b61014461013f366004611206565b6109b7565b6040516100bd929190611491565b60018054604080518082018252601981526000805160206115ba833981519152602080830191909152600080548451600261010098831615989098026000190190911696909604601f81018390048302870183019094528386526001600160a01b039094163314946102279492939092918301828280156102145780601f106101e957610100808354040283529160200191610214565b820191906000526020600020905b8154815290600101906020018083116101f757829003601f168201915b5050505050610afc90919063ffffffff16565b9061024e5760405162461bcd60e51b815260040161024591906114b1565b60405180910390fd5b50604080518082018252601f8082527f3a206e6577206f776e657220697320746865207a65726f206164647265737300602080840191909152600080548551600260001961010060018516150201909216919091049384018390048302810183019095528285526001600160a01b0386161515946102ef949390928301828280156102145780601f106101e957610100808354040283529160200191610214565b9061030d5760405162461bcd60e51b815260040161024591906114b1565b506001546040516001600160a01b038084169216907fb532073b38c83145e3e5135377a08bf9aab55bc0fd7c1179cd4fb995d2a5159c90600090a3600180546001600160a01b0319166001600160a01b0392909216919091179055565b60008281526004602090815260408083206001600160a01b03851684529091529020600101545b92915050565b60035460028054604080518082018252601481527301d1031b0b63632b91034b9903737ba103a3432960651b6020808301919091526000805484516101006001831615026000190190911696909604601f81018390048302870183019094528386526001600160a01b03909416331494610476949293879391928301828280156104625780601f1061043757610100808354040283529160200191610462565b820191906000526020600020905b81548152906001019060200180831161044557829003601f168201915b5050505050610b289092919063ffffffff16565b906104945760405162461bcd60e51b815260040161024591906114b1565b5060008381526004602090815260408083206001600160a01b03861684529091529020546104c157610604565b600083815260056020526040902054806104db5750610604565b60006104ee82600163ffffffff610b5816565b60008681526005602052604090208054919250908290811061050c57fe5b600091825260208083209190910154878352600582526040808420600484528185206001600160a01b038a8116875294529320549116919061054f906001610b58565b8154811061055957fe5b9060005260206000200160006101000a8154816001600160a01b0302191690836001600160a01b031602179055506005600086815260200190815260200160002081815481106105a557fe5b6000918252602080832090910180546001600160a01b03191690558682526004815260408083206001600160a01b038816845290915281206105e691610ff3565b600085815260056020526040902081906106009082611001565b5050505b505050565b6002546001600160a01b031681565b6000805460408051602060026001851615610100026000190190941693909304601f8101849004840282018401909252818152929183018282801561069e5780601f106106735761010080835404028352916020019161069e565b820191906000526020600020905b81548152906001019060200180831161068157829003601f168201915b505050505081565b6001546001600160a01b031681565b60035460028054604080518082018252601481527301d1031b0b63632b91034b9903737ba103a3432960651b6020808301919091526000805484516101006001831615026000190190911696909604601f81018390048302870183019094528386526001600160a01b03909416331494610755949293879391928301828280156104625780601f1061043757610100808354040283529160200191610462565b906107735760405162461bcd60e51b815260040161024591906114b1565b5060008481526004602090815260408083206001600160a01b0387168452909152902054156107a157610821565b60008481526004602090815260408083206001600160a01b0387168452909152902060018101839055546108215760008481526005602090815260408083208054600181018083559185528385200180546001600160a01b0319166001600160a01b03891690811790915588855260048452828520908552909252909120555b50505050565b60018054604080518082018252601981526000805160206115ba833981519152602080830191909152600080548451600261010098831615989098026000190190911696909604601f81018390048302870183019094528386526001600160a01b039094163314946108be9492939092918301828280156102145780601f106101e957610100808354040283529160200191610214565b906108dc5760405162461bcd60e51b815260040161024591906114b1565b506108e681610b9a565b6040805180820190915260078082526653746f7261676560c81b602090920191825261091491600091611025565b5060025460408051631d74303760e21b8152905161099c926001600160a01b0316916375d0c0dc916004808301926000929190829003018186803b15801561095b57600080fd5b505afa15801561096f573d6000803e3d6000fd5b505050506040513d6000823e601f3d908101601f191682016040526109979190810190611238565b610d59565b60038190556109b4576636b0b730b3b2b960c91b6003555b50565b60606109c16110a3565b6109c96110a3565b6000868152600560205260409020546109e3908686610d60565b90506000610a138260600151610a0760018560800151610b5890919063ffffffff16565b9063ffffffff610e8116565b6000888152600560209081526040918290205485830151835181815281840281019093019093529293506060918015610a56578160200160208202803883390190505b50905060005b8460400151811015610aed5760008a8152600560205260409020610a9982610a8d878188600163ffffffff610b5816565b9063ffffffff610b5816565b81548110610aa357fe5b9060005260206000200160009054906101000a90046001600160a01b0316828281518110610acd57fe5b6001600160a01b0390921660209283029190910190910152600101610a5c565b50989297509195505050505050565b60608282604051602001610b1192919061143c565b604051602081830303815290604052905092915050565b6060838383604051602001610b3f93929190611454565b60405160208183030381529060405290505b9392505050565b6000610b5183836040518060400160405280601e81526020017f536166654d6174683a207375627472616374696f6e206f766572666c6f770000815250610ebb565b60018054604080518082018252601981526000805160206115ba833981519152602080830191909152600080548451600261010098831615989098026000190190911696909604601f81018390048302870183019094528386526001600160a01b03909416331494610c319492939092918301828280156102145780601f106101e957610100808354040283529160200191610214565b90610c4f5760405162461bcd60e51b815260040161024591906114b1565b5060006001600160a01b0316816001600160a01b03161415610cde6040518060600160405280602181526020016115da602191396000805460408051602060026001851615610100026000190190941693909304601f810184900484028201840190925281815292918301828280156102145780601f106101e957610100808354040283529160200191610214565b90610cfc5760405162461bcd60e51b815260040161024591906114b1565b506002546040516001600160a01b038084169216907f605c2dbf762e5f7d60a546d42e7205dcb1b011ebc62a61736a57c9089d3a435090600090a3600280546001600160a01b0319166001600160a01b0392909216919091179055565b6020015190565b610d686110a3565b610d706110a3565b6040518060a00160405280868152602001600081526020016000815260200160008152602001600181525090508460001480610daa575083155b15610db6579050610b51565b60328411610dc45783610dc7565b60325b6060820181905260408201819052610de690869063ffffffff610ee716565b60208201526060810151600090610e0490879063ffffffff610f2616565b90508015610e28576020820151610e2290600163ffffffff610f6316565b60208301525b6001841115610e3957608082018490525b816020015182608001511115610e5457602082015160808301525b81602001518260800151148015610e6b5750600081115b15610e7857604082018190525b50949350505050565b600082610e9057506000610391565b82820282848281610e9d57fe5b0414610b515760405162461bcd60e51b8152600401610245906114d2565b60008184841115610edf5760405162461bcd60e51b815260040161024591906114b1565b505050900390565b6000610b5183836040518060400160405280601a815260200179536166654d6174683a206469766973696f6e206279207a65726f60301b815250610f88565b6000610b51838360405180604001604052806018815260200177536166654d6174683a206d6f64756c6f206279207a65726f60401b815250610fbf565b600082820183811015610b515760405162461bcd60e51b8152600401610245906114c2565b60008183610fa95760405162461bcd60e51b815260040161024591906114b1565b506000838581610fb557fe5b0495945050505050565b60008183610fe05760405162461bcd60e51b815260040161024591906114b1565b50828481610fea57fe5b06949350505050565b506000815560010160009055565b815481835581811115610604576000838152602090206106049181019083016110d2565b828054600181600116156101000203166002900490600052602060002090601f016020900481019282601f1061106657805160ff1916838001178555611093565b82800160010185558215611093579182015b82811115611093578251825591602001919060010190611078565b5061109f9291506110d2565b5090565b6040518060a0016040528060008152602001600081526020016000815260200160008152602001600081525090565b6110ec91905b8082111561109f57600081556001016110d8565b90565b80356103918161159c565b8035610391816115b0565b600082601f83011261111657600080fd5b815161112961112482611516565b6114f0565b9150808252602083016020830185838301111561114557600080fd5b611150838284611566565b50505092915050565b60006020828403121561116b57600080fd5b600061117784846110ef565b949350505050565b6000806040838503121561119257600080fd5b600061119e85856110fa565b92505060206111af858286016110ef565b9150509250929050565b6000806000606084860312156111ce57600080fd5b60006111da86866110fa565b93505060206111eb868287016110ef565b92505060406111fc868287016110fa565b9150509250925092565b60008060006060848603121561121b57600080fd5b600061122786866110fa565b93505060206111eb868287016110fa565b60006020828403121561124a57600080fd5b81516001600160401b0381111561126057600080fd5b61117784828501611105565b60006112788383611280565b505060200190565b61128981611555565b82525050565b600061129a82611543565b6112a48185611547565b93506112af8361153d565b8060005b838110156112dd5781516112c7888261126c565b97506112d28361153d565b9250506001016112b3565b509495945050505050565b6112896112f4826110ec565b6110ec565b600061130482611543565b61130e8185611547565b935061131e818560208601611566565b61132781611592565b9093019392505050565b600061133c82611543565b6113468185611550565b9350611356818560208601611566565b9290920192915050565b600061136d601b83611547565b7a536166654d6174683a206164646974696f6e206f766572666c6f7760281b815260200192915050565b60006113a4602183611547565b7f536166654d6174683a206d756c7469706c69636174696f6e206f766572666c6f8152607760f81b602082015260400192915050565b805160a08301906113eb8482611433565b5060208201516113fe6020850182611433565b5060408201516114116040850182611433565b5060608201516114246060850182611433565b50608082015161082160808501825b611289816110ec565b60006114488285611331565b91506111778284611331565b60006114608286611331565b915061146c8285611331565b915061147882846112e8565b506020019392505050565b602081016103918284611280565b60c080825281016114a2818561128f565b9050610b5160208301846113da565b60208082528101610b5181846112f9565b6020808252810161039181611360565b6020808252810161039181611397565b602081016103918284611433565b6040518181016001600160401b038111828210171561150e57600080fd5b604052919050565b60006001600160401b0382111561152c57600080fd5b506020601f91909101601f19160190565b60200190565b5190565b90815260200190565b919050565b60006001600160a01b038216610391565b60005b83811015611581578181015183820152602001611569565b838111156108215750506000910152565b601f01601f191690565b6115a581611555565b81146109b457600080fd5b6115a5816110ec56fe3a2063616c6c6572206973206e6f7420746865206f776e6572000000000000003a206e6577206d616e6167657220697320746865207a65726f2061646472657373a365627a7a72315820fac8f322fd80e7a3317e6043de38cdd56b157c1ad2655402f64222d218311b9d6c6578706572696d656e74616cf564736f6c634300051100403a206e6577206d616e6167657220697320746865207a65726f2061646472657373",
  "source": "pragma solidity ^0.5.17;\npragma experimental ABIEncoderV2;\n\nimport '../lib/Paging.sol';\nimport './ExternalStorage.sol';\nimport '../interfaces/storages/ILiquidatorStorage.sol';\n\ncontract LiquidatorStorage is ExternalStorage, ILiquidatorStorage {\n    mapping(bytes32 => mapping(address => uint256[2])) private _storage;\n    mapping(bytes32 => address[]) private _accounts;\n\n    constructor(address _manager) public ExternalStorage(_manager) {}\n\n    function addWatch(\n        bytes32 stake,\n        address account,\n        uint256 time\n    ) external onlyManager(managerName) {\n        if (_storage[stake][account][0] > 0) return;\n\n        _storage[stake][account][1] = time;\n        if (_storage[stake][account][0] == 0) _storage[stake][account][0] = _accounts[stake].push(account);\n    }\n\n    function removeWatch(bytes32 stake, address account) external onlyManager(managerName) {\n        if (_storage[stake][account][0] == 0) return;\n        uint256 length = _accounts[stake].length;\n        if (length == 0) return;\n        uint256 last = length.sub(1);\n        _accounts[stake][_storage[stake][account][0].sub(1)] = _accounts[stake][last];\n        delete _accounts[stake][last];\n        delete _storage[stake][account];\n        _accounts[stake].length = last;\n    }\n\n    function getDeadline(bytes32 stake, address account) external view returns (uint256) {\n        return _storage[stake][account][1];\n    }\n\n    function getAccounts(\n        bytes32 stake,\n        uint256 pageSize,\n        uint256 pageNumber\n    ) external view returns (address[] memory, Paging.Page memory) {\n        Paging.Page memory page = Paging.getPage(_accounts[stake].length, pageSize, pageNumber);\n        uint256 start = page.pageNumber.sub(1).mul(page.pageSize);\n        uint256 last = _accounts[stake].length;\n\n        address[] memory items = new address[](page.pageRecords);\n        for (uint256 i = 0; i < page.pageRecords; i++) {\n            items[i] = _accounts[stake][last.sub(1).sub(start).sub(i)];\n        }\n\n        return (items, page);\n    }\n}\n",
  "sourcePath": "/Users/sun/go/src/github.com/Dipper-Labs/DIPSYN/contracts/storages/LiquidatorStorage.sol",
  "compiler": {
    "name": "solc",
    "version": "0.5.17+commit.d19bba13.Emscripten.clang"
  },
  "schemaVersion": "3.3.4",
  "updatedAt": "2021-04-21T06:45:45.932Z",
  "networkType": "ethereum",
  "devdoc": {
    "methods": {}
  },
  "userdoc": {
    "methods": {}
  }
}