{
  "contractName": "Liquidator",
  "abi": [
    {
      "inputs": [
        {
          "internalType": "contract IResolver",
          "name": "_resolver",
          "type": "address"
        }
      ],
      "payable": false,
      "stateMutability": "nonpayable",
      "type": "constructor"
    },
    {
      "anonymous": false,
      "inputs": [
        {
          "indexed": true,
          "internalType": "address",
          "name": "previousValue",
          "type": "address"
        },
        {
          "indexed": true,
          "internalType": "address",
          "name": "newValue",
          "type": "address"
        }
      ],
      "name": "ManagerChanged",
      "type": "event"
    },
    {
      "anonymous": false,
      "inputs": [
        {
          "indexed": true,
          "internalType": "address",
          "name": "previousValue",
          "type": "address"
        },
        {
          "indexed": true,
          "internalType": "address",
          "name": "newValue",
          "type": "address"
        }
      ],
      "name": "OwnerChanged",
      "type": "event"
    },
    {
      "anonymous": false,
      "inputs": [
        {
          "indexed": true,
          "internalType": "address",
          "name": "previousValue",
          "type": "address"
        },
        {
          "indexed": true,
          "internalType": "address",
          "name": "newValue",
          "type": "address"
        }
      ],
      "name": "StorageChanged",
      "type": "event"
    },
    {
      "constant": false,
      "inputs": [
        {
          "internalType": "bytes32",
          "name": "name",
          "type": "bytes32"
        }
      ],
      "name": "addAddress",
      "outputs": [],
      "payable": false,
      "stateMutability": "nonpayable",
      "type": "function"
    },
    {
      "constant": true,
      "inputs": [],
      "name": "contractName",
      "outputs": [
        {
          "internalType": "string",
          "name": "",
          "type": "string"
        }
      ],
      "payable": false,
      "stateMutability": "view",
      "type": "function"
    },
    {
      "constant": true,
      "inputs": [
        {
          "internalType": "bytes32",
          "name": "name",
          "type": "bytes32"
        }
      ],
      "name": "getAddress",
      "outputs": [
        {
          "internalType": "address",
          "name": "",
          "type": "address"
        }
      ],
      "payable": false,
      "stateMutability": "view",
      "type": "function"
    },
    {
      "constant": true,
      "inputs": [],
      "name": "getImports",
      "outputs": [
        {
          "internalType": "bytes32[]",
          "name": "",
          "type": "bytes32[]"
        }
      ],
      "payable": false,
      "stateMutability": "view",
      "type": "function"
    },
    {
      "constant": true,
      "inputs": [],
      "name": "getStorage",
      "outputs": [
        {
          "internalType": "address",
          "name": "",
          "type": "address"
        }
      ],
      "payable": false,
      "stateMutability": "view",
      "type": "function"
    },
    {
      "constant": true,
      "inputs": [],
      "name": "manager",
      "outputs": [
        {
          "internalType": "address",
          "name": "",
          "type": "address"
        }
      ],
      "payable": false,
      "stateMutability": "view",
      "type": "function"
    },
    {
      "constant": true,
      "inputs": [],
      "name": "owner",
      "outputs": [
        {
          "internalType": "address",
          "name": "",
          "type": "address"
        }
      ],
      "payable": false,
      "stateMutability": "view",
      "type": "function"
    },
    {
      "constant": false,
      "inputs": [],
      "name": "refreshCache",
      "outputs": [],
      "payable": false,
      "stateMutability": "nonpayable",
      "type": "function"
    },
    {
      "constant": true,
      "inputs": [],
      "name": "resolver",
      "outputs": [
        {
          "internalType": "contract IResolver",
          "name": "",
          "type": "address"
        }
      ],
      "payable": false,
      "stateMutability": "view",
      "type": "function"
    },
    {
      "constant": false,
      "inputs": [
        {
          "internalType": "address",
          "name": "_manager",
          "type": "address"
        }
      ],
      "name": "setManager",
      "outputs": [],
      "payable": false,
      "stateMutability": "nonpayable",
      "type": "function"
    },
    {
      "constant": false,
      "inputs": [
        {
          "internalType": "address",
          "name": "_owner",
          "type": "address"
        }
      ],
      "name": "setOwner",
      "outputs": [],
      "payable": false,
      "stateMutability": "nonpayable",
      "type": "function"
    },
    {
      "constant": false,
      "inputs": [
        {
          "internalType": "address",
          "name": "value",
          "type": "address"
        }
      ],
      "name": "setStorage",
      "outputs": [],
      "payable": false,
      "stateMutability": "nonpayable",
      "type": "function"
    },
    {
      "constant": false,
      "inputs": [
        {
          "internalType": "bytes32",
          "name": "stake",
          "type": "bytes32"
        },
        {
          "internalType": "address",
          "name": "account",
          "type": "address"
        }
      ],
      "name": "watchAccount",
      "outputs": [],
      "payable": false,
      "stateMutability": "nonpayable",
      "type": "function"
    },
    {
      "constant": true,
      "inputs": [
        {
          "internalType": "bytes32",
          "name": "stake",
          "type": "bytes32"
        },
        {
          "internalType": "address",
          "name": "account",
          "type": "address"
        }
      ],
      "name": "canLiquidate",
      "outputs": [
        {
          "internalType": "bool",
          "name": "",
          "type": "bool"
        }
      ],
      "payable": false,
      "stateMutability": "view",
      "type": "function"
    },
    {
      "constant": true,
      "inputs": [
        {
          "internalType": "bytes32",
          "name": "stake",
          "type": "bytes32"
        },
        {
          "internalType": "address",
          "name": "account",
          "type": "address"
        }
      ],
      "name": "getLiquidable",
      "outputs": [
        {
          "internalType": "uint256",
          "name": "",
          "type": "uint256"
        }
      ],
      "payable": false,
      "stateMutability": "view",
      "type": "function"
    },
    {
      "constant": true,
      "inputs": [
        {
          "internalType": "bytes32",
          "name": "stake",
          "type": "bytes32"
        },
        {
          "internalType": "uint256",
          "name": "amount",
          "type": "uint256"
        }
      ],
      "name": "getUnstakable",
      "outputs": [
        {
          "internalType": "uint256",
          "name": "",
          "type": "uint256"
        }
      ],
      "payable": false,
      "stateMutability": "view",
      "type": "function"
    },
    {
      "constant": true,
      "inputs": [
        {
          "internalType": "bytes32",
          "name": "stake",
          "type": "bytes32"
        },
        {
          "internalType": "uint256",
          "name": "pageSize",
          "type": "uint256"
        },
        {
          "internalType": "uint256",
          "name": "pageNumber",
          "type": "uint256"
        }
      ],
      "name": "getAccounts",
      "outputs": [
        {
          "internalType": "address[]",
          "name": "",
          "type": "address[]"
        },
        {
          "components": [
            {
              "internalType": "uint256",
              "name": "totalRecords",
              "type": "uint256"
            },
            {
              "internalType": "uint256",
              "name": "totalPages",
              "type": "uint256"
            },
            {
              "internalType": "uint256",
              "name": "pageRecords",
              "type": "uint256"
            },
            {
              "internalType": "uint256",
              "name": "pageSize",
              "type": "uint256"
            },
            {
              "internalType": "uint256",
              "name": "pageNumber",
              "type": "uint256"
            }
          ],
          "internalType": "struct Paging.Page",
          "name": "",
          "type": "tuple"
        }
      ],
      "payable": false,
      "stateMutability": "view",
      "type": "function"
    }
  ],
  "bytecode": "0x60806040523480156200001157600080fd5b50604051620024573803806200245783398101604081905262000034916200023e565b60018054336001600160a01b03199182168117909255600280548216909217909155600380549091166001600160a01b03831617905562000082692634b8bab4b230ba37b960b11b6200010c565b6040518060c00160405280650a6f2dce8d0f60d31b81526020016d537570706c795363686564756c6560901b81526020016524b9b9bab2b960d11b81526020016653657474696e6760c81b8152602001694173736574507269636560b01b81526020016529ba30b5b2b960d11b81525060049060066200010492919062000149565b5050620002d9565b806040516020016200011f919062000282565b604051602081830303815290604052600090805190602001906200014592919062000199565b5050565b82805482825590600052602060002090810192821562000187579160200282015b82811115620001875782518255916020019190600101906200016a565b50620001959291506200020b565b5090565b828054600181600116156101000203166002900490600052602060002090601f016020900481019282601f10620001dc57805160ff191683800117855562000187565b82800160010185558215620001875791820182811115620001875782518255916020019190600101906200016a565b6200022891905b8082111562000195576000815560010162000212565b90565b80516200023881620002bf565b92915050565b6000602082840312156200025157600080fd5b60006200025f84846200022b565b949350505050565b6200027c620002768262000228565b62000228565b82525050565b600062000290828462000267565b50602001919050565b60006200023882620002b3565b6000620002388262000299565b6001600160a01b031690565b620002ca81620002a6565b8114620002d657600080fd5b50565b61216e80620002e96000396000f3fe608060405234801561001057600080fd5b50600436106100da5760003560e01c8062b1d667146100df57806304f3bcec14610108578063126779c21461011d57806313af40351461013257806321f8a721146101475780633408f73a14610167578063481c6a751461016f57806375d0c0dc146101775780638aed3c321461018c5780638da5cb5b1461019f5780639137c1a7146101a7578063ba4ba0d8146101ba578063d0ebdbe7146101cd578063d5c2c8ca146101e0578063e82eb3f2146101e8578063f58486ed14610209578063fd91f49e1461021c575b600080fd5b6100f26100ed366004611bbf565b61023c565b6040516100ff9190611f64565b60405180910390f35b6101106105c1565b6040516100ff9190611fd0565b6101256105d0565b6040516100ff9190611f45565b610145610140366004611b15565b610628565b005b61015a610155366004611ba1565b610840565b6040516100ff9190611f17565b61015a61085b565b61015a610923565b61017f610932565b6040516100ff9190611fde565b61014561019a366004611ba1565b6109c0565b61015a610b54565b6101456101b5366004611b15565b610b63565b6101456101c8366004611bbf565b610c75565b6101456101db366004611b15565b610ef6565b6101456110b5565b6101fb6101f6366004611c1f565b61124b565b6040516100ff929190611f25565b6100f2610217366004611bef565b6112ec565b61022f61022a366004611bbf565b611424565b6040516100ff9190611f56565b60006102488383611424565b610254575060006105bb565b600061025e6115ea565b6001600160a01b031663d12ae67e85856040518363ffffffff1660e01b815260040161028b929190611f72565b60206040518083038186803b1580156102a357600080fd5b505afa1580156102b7573d6000803e3d6000fd5b505050506040513d601f19601f820116820180604052506102db9190810190611c6c565b905060006102e7611603565b6001600160a01b0316636a5ee7b6866040518263ffffffff1660e01b81526004016103129190611f64565b60206040518083038186803b15801561032a57600080fd5b505afa15801561033e573d6000803e3d6000fd5b505050506040513d601f19601f820116820180604052506103629190810190611c6c565b9050600061036e611618565b6001600160a01b03166331d98b3f876040518263ffffffff1660e01b81526004016103999190611f64565b60206040518083038186803b1580156103b157600080fd5b505afa1580156103c5573d6000803e3d6000fd5b505050506040513d601f19601f820116820180604052506103e99190810190611c6c565b90506000610482826103f9611630565b6001600160a01b0316632e35de058a8a6040518363ffffffff1660e01b8152600401610426929190611f72565b60206040518083038186803b15801561043e57600080fd5b505afa158015610452573d6000803e3d6000fd5b505050506040513d601f19601f820116820180604052506104769190810190611c6c565b9063ffffffff61164416565b90506000610496858563ffffffff61164416565b90508082106104ad576000955050505050506105bb565b60006104b7611603565b6001600160a01b031663fdbafe0b8a6040518263ffffffff1660e01b81526004016104e29190611f64565b60206040518083038186803b1580156104fa57600080fd5b505afa15801561050e573d6000803e3d6000fd5b505050506040513d601f19601f820116820180604052506105329190810190611c6c565b9050600061057d61056183610555610548611660565b8a9063ffffffff61166c16565b9063ffffffff61166c16565b610571858763ffffffff61166c16565b9063ffffffff6116ae16565b9050868111156105b2576105af6105a283610596611660565b9063ffffffff6116c316565b859063ffffffff6116ae16565b90505b96505050505050505b92915050565b6003546001600160a01b031681565b6060600480548060200260200160405190810160405280929190818152602001828054801561061e57602002820191906000526020600020905b81548152602001906001019080831161060a575b5050505050905090565b60018054604080518082018252601981526000805160206120eb833981519152602080830191909152600080548451600261010098831615989098026000190190911696909604601f81018390048302870183019094528386526001600160a01b039094163314946106fd9492939092918301828280156106ea5780601f106106bf576101008083540402835291602001916106ea565b820191906000526020600020905b8154815290600101906020018083116106cd57829003601f168201915b50505050506116e890919063ffffffff16565b906107245760405162461bcd60e51b815260040161071b9190611fde565b60405180910390fd5b50604080518082018252601f8082527f3a206e6577206f776e657220697320746865207a65726f206164647265737300602080840191909152600080548551600260001961010060018516150201909216919091049384018390048302810183019095528285526001600160a01b0386161515946107c5949390928301828280156106ea5780601f106106bf576101008083540402835291602001916106ea565b906107e35760405162461bcd60e51b815260040161071b9190611fde565b506001546040516001600160a01b038084169216907fb532073b38c83145e3e5135377a08bf9aab55bc0fd7c1179cd4fb995d2a5159c90600090a3600180546001600160a01b0319166001600160a01b0392909216919091179055565b6000908152600560205260409020546001600160a01b031690565b60065460408051808201825260118152700e8814dd1bdc9859d9481b9bdd081cd95d607a1b60208083019190915260008054845160026101006001841615026000190190921691909104601f810184900484028201840190955284815290946001600160a01b03161515936108f493928691908301828280156106ea5780601f106106bf576101008083540402835291602001916106ea565b906109125760405162461bcd60e51b815260040161071b9190611fde565b50506006546001600160a01b031690565b6002546001600160a01b031681565b6000805460408051602060026001851615610100026000190190941693909304601f810184900484028201840190925281815292918301828280156109b85780601f1061098d576101008083540402835291602001916109b8565b820191906000526020600020905b81548152906001019060200180831161099b57829003601f168201915b505050505081565b60018054604080518082018252601981526000805160206120eb833981519152602080830191909152600080548451600261010098831615989098026000190190911696909604601f81018390048302870183019094528386526001600160a01b03909416331494610a579492939092918301828280156106ea5780601f106106bf576101008083540402835291602001916106ea565b90610a755760405162461bcd60e51b815260040161071b9190611fde565b506003546040516321f8a72160e01b81526001600160a01b03909116906321f8a72190610aa6908490600401611f64565b60206040518083038186803b158015610abe57600080fd5b505afa158015610ad2573d6000803e3d6000fd5b505050506040513d601f19601f82011682018060405250610af69190810190611b33565b600082815260056020526040812080546001600160a01b0319166001600160a01b0393909316929092179091556004805460018101825591527f8a35acfbc15ff81a39ae7d344fd709f28e8600b4aa8c65c6b64bfe7fe36bd19b0155565b6001546001600160a01b031681565b60018054604080518082018252601981526000805160206120eb833981519152602080830191909152600080548451600261010098831615989098026000190190911696909604601f81018390048302870183019094528386526001600160a01b03909416331494610bfa9492939092918301828280156106ea5780601f106106bf576101008083540402835291602001916106ea565b90610c185760405162461bcd60e51b815260040161071b9190611fde565b506006546040516001600160a01b038084169216907f85a70e3ed8a3924b3769cbe4e925987bbd40e8cea31487cbe13bee7b727310a490600090a3600680546001600160a01b0319166001600160a01b0392909216919091179055565b6000610c7f611630565b6001600160a01b0316635d5182d284846040518363ffffffff1660e01b8152600401610cac929190611f72565b60206040518083038186803b158015610cc457600080fd5b505afa158015610cd8573d6000803e3d6000fd5b505050506040513d601f19601f82011682018060405250610cfc9190810190611c6c565b90506000610d08611603565b6001600160a01b031663f8815e6a856040518263ffffffff1660e01b8152600401610d339190611f64565b60206040518083038186803b158015610d4b57600080fd5b505afa158015610d5f573d6000803e3d6000fd5b505050506040513d601f19601f82011682018060405250610d839190810190611c6c565b90506000610e0f610d92611603565b6001600160a01b031663a228b14f6040518163ffffffff1660e01b815260040160206040518083038186803b158015610dca57600080fd5b505afa158015610dde573d6000803e3d6000fd5b505050506040513d601f19601f82011682018060405250610e029190810190611c6c565b429063ffffffff6116c316565b905081831115610e8557610e21611714565b6001600160a01b0316632e91b79686866040518363ffffffff1660e01b8152600401610e4e929190611f72565b600060405180830381600087803b158015610e6857600080fd5b505af1158015610e7c573d6000803e3d6000fd5b50505050610eef565b610e8d611714565b6001600160a01b031663a023cef28686846040518463ffffffff1660e01b8152600401610ebc93929190611f8d565b600060405180830381600087803b158015610ed657600080fd5b505af1158015610eea573d6000803e3d6000fd5b505050505b5050505050565b60018054604080518082018252601981526000805160206120eb833981519152602080830191909152600080548451600261010098831615989098026000190190911696909604601f81018390048302870183019094528386526001600160a01b03909416331494610f8d9492939092918301828280156106ea5780601f106106bf576101008083540402835291602001916106ea565b90610fab5760405162461bcd60e51b815260040161071b9190611fde565b5060006001600160a01b0316816001600160a01b0316141561103a60405180606001604052806021815260200161210b602191396000805460408051602060026001851615610100026000190190941693909304601f810184900484028201840190925281815292918301828280156106ea5780601f106106bf576101008083540402835291602001916106ea565b906110585760405162461bcd60e51b815260040161071b9190611fde565b506002546040516001600160a01b038084169216907f605c2dbf762e5f7d60a546d42e7205dcb1b011ebc62a61736a57c9089d3a435090600090a3600280546001600160a01b0319166001600160a01b0392909216919091179055565b60018054604080518082018252601981526000805160206120eb833981519152602080830191909152600080548451600261010098831615989098026000190190911696909604601f81018390048302870183019094528386526001600160a01b0390941633149461114c9492939092918301828280156106ea5780601f106106bf576101008083540402835291602001916106ea565b9061116a5760405162461bcd60e51b815260040161071b9190611fde565b5060005b6004548110156112485760006004828154811061118757fe5b6000918252602090912001546003546040516321f8a72160e01b81529192506001600160a01b0316906321f8a721906111c4908490600401611f64565b60206040518083038186803b1580156111dc57600080fd5b505afa1580156111f0573d6000803e3d6000fd5b505050506040513d601f19601f820116820180604052506112149190810190611b33565b60009182526005602052604090912080546001600160a01b0319166001600160a01b0390921691909117905560010161116e565b50565b60606112556119b8565b61125d611714565b6001600160a01b031663e82eb3f28686866040518463ffffffff1660e01b815260040161128c93929190611fb5565b60006040518083038186803b1580156112a457600080fd5b505afa1580156112b8573d6000803e3d6000fd5b505050506040513d6000823e601f3d908101601f191682016040526112e09190810190611b51565b91509150935093915050565b6000806112f7611603565b6001600160a01b031663fdbafe0b856040518263ffffffff1660e01b81526004016113229190611f64565b60206040518083038186803b15801561133a57600080fd5b505afa15801561134e573d6000803e3d6000fd5b505050506040513d601f19601f820116820180604052506113729190810190611c6c565b9050600061137e611618565b6001600160a01b03166331d98b3f866040518263ffffffff1660e01b81526004016113a99190611f64565b60206040518083038186803b1580156113c157600080fd5b505afa1580156113d5573d6000803e3d6000fd5b505050506040513d601f19601f820116820180604052506113f99190810190611c6c565b905061141b8161057161140e85610596611660565b879063ffffffff61164416565b95945050505050565b60008061142f611714565b6001600160a01b0316631bd43bc785856040518363ffffffff1660e01b815260040161145c929190611f72565b60206040518083038186803b15801561147457600080fd5b505afa158015611488573d6000803e3d6000fd5b505050506040513d601f19601f820116820180604052506114ac9190810190611c6c565b9050806114bd5760009150506105bb565b428111156114cf5760009150506105bb565b60006114d9611630565b6001600160a01b0316635d5182d286866040518363ffffffff1660e01b8152600401611506929190611f72565b60206040518083038186803b15801561151e57600080fd5b505afa158015611532573d6000803e3d6000fd5b505050506040513d601f19601f820116820180604052506115569190810190611c6c565b90506000611562611603565b6001600160a01b031663f8815e6a876040518263ffffffff1660e01b815260040161158d9190611f64565b60206040518083038186803b1580156115a557600080fd5b505afa1580156115b9573d6000803e3d6000fd5b505050506040513d601f19601f820116820180604052506115dd9190810190611c6c565b9091111595945050505050565b60006115fe6524b9b9bab2b960d11b61171e565b905090565b60006115fe6653657474696e6760c81b61171e565b60006115fe694173736574507269636560b01b61171e565b60006115fe6529ba30b5b2b960d11b61171e565b60006116598383670de0b6b3a7640000611835565b9392505050565b670de0b6b3a764000090565b600061165983836040518060400160405280601e81526020017f536166654d6174683a207375627472616374696f6e206f766572666c6f770000815250611870565b60006116598383670de0b6b3a764000061189c565b6000828201838110156116595760405162461bcd60e51b815260040161071b90611fef565b606082826040516020016116fd929190611ed0565b604051602081830303815290604052905092915050565b60006115fe61085b565b60008181526005602090815260408083205481518083018352600a81526901d1026b4b9b9b4b733960b51b818501528454835160026101006001841615026000190190921691909104601f81018690048602820186019094528381526001600160a01b039092161515936117fa939192879290918791908301828280156117e65780601f106117bb576101008083540402835291602001916117e6565b820191906000526020600020905b8154815290600101906020018083116117c957829003601f168201915b50505050506118de9092919063ffffffff16565b906118185760405162461bcd60e51b815260040161071b9190611fde565b50506000908152600560205260409020546001600160a01b031690565b6000831580611842575082155b1561184f57506000611659565b81611860858563ffffffff61190d16565b8161186757fe5b04949350505050565b600081848411156118945760405162461bcd60e51b815260040161071b9190611fde565b505050900390565b60008315806118a9575082155b156118b657506000611659565b6118d6836118ca868563ffffffff61190d16565b9063ffffffff61194716565b949350505050565b60608383836040516020016118f593929190611ee8565b60405160208183030381529060405290509392505050565b60008261191c575060006105bb565b8282028284828161192957fe5b04146116595760405162461bcd60e51b815260040161071b90611fff565b600061165983836040518060400160405280601a815260200179536166654d6174683a206469766973696f6e206279207a65726f60301b815250600081836119a25760405162461bcd60e51b815260040161071b9190611fde565b5060008385816119ae57fe5b0495945050505050565b6040518060a0016040528060008152602001600081526020016000815260200160008152602001600081525090565b80356105bb816120cd565b80516105bb816120cd565b600082601f830112611a0e57600080fd5b8151611a21611a1c82612035565b61200f565b91508181835260208401935060208101905083856020840282011115611a4657600080fd5b60005b83811015611a725781611a5c88826119f2565b8452506020928301929190910190600101611a49565b5050505092915050565b80356105bb816120e1565b600060a08284031215611a9957600080fd5b611aa360a061200f565b90506000611ab18484611b0a565b8252506020611ac284848301611b0a565b6020830152506040611ad684828501611b0a565b6040830152506060611aea84828501611b0a565b6060830152506080611afe84828501611b0a565b60808301525092915050565b80516105bb816120e1565b600060208284031215611b2757600080fd5b60006118d684846119e7565b600060208284031215611b4557600080fd5b60006118d684846119f2565b60008060c08385031215611b6457600080fd5b82516001600160401b03811115611b7a57600080fd5b611b86858286016119fd565b9250506020611b9785828601611a87565b9150509250929050565b600060208284031215611bb357600080fd5b60006118d68484611a7c565b60008060408385031215611bd257600080fd5b6000611bde8585611a7c565b9250506020611b97858286016119e7565b60008060408385031215611c0257600080fd5b6000611c0e8585611a7c565b9250506020611b9785828601611a7c565b600080600060608486031215611c3457600080fd5b6000611c408686611a7c565b9350506020611c5186828701611a7c565b9250506040611c6286828701611a7c565b9150509250925092565b600060208284031215611c7e57600080fd5b60006118d68484611b0a565b6000611c968383611caa565b505060200190565b6000611c968383611d69565b611cb38161206d565b82525050565b6000611cc48261205b565b611cce818561205f565b9350611cd983612055565b8060005b83811015611d07578151611cf18882611c8a565b9750611cfc83612055565b925050600101611cdd565b509495945050505050565b6000611d1d8261205b565b611d27818561205f565b9350611d3283612055565b8060005b83811015611d07578151611d4a8882611c9e565b9750611d5583612055565b925050600101611d36565b611cb381612078565b611cb38161207d565b611cb3611d7e8261207d565b61207d565b611cb38161208c565b6000611d978261205b565b611da1818561205f565b9350611db1818560208601612097565b611dba816120c3565b9093019392505050565b6000611dcf8261205b565b611dd98185612068565b9350611de9818560208601612097565b9290920192915050565b6000611e00601b8361205f565b7a536166654d6174683a206164646974696f6e206f766572666c6f7760281b815260200192915050565b6000611e3760218361205f565b7f536166654d6174683a206d756c7469706c69636174696f6e206f766572666c6f8152607760f81b602082015260400192915050565b805160a0830190611e7e8482611d69565b506020820151611e916020850182611d69565b506040820151611ea46040850182611d69565b506060820151611eb76060850182611d69565b506080820151611eca6080850182611d69565b50505050565b6000611edc8285611dc4565b91506118d68284611dc4565b6000611ef48286611dc4565b9150611f008285611dc4565b9150611f0c8284611d72565b506020019392505050565b602081016105bb8284611caa565b60c08082528101611f368185611cb9565b90506116596020830184611e6d565b602080825281016116598184611d12565b602081016105bb8284611d60565b602081016105bb8284611d69565b60408101611f808285611d69565b6116596020830184611caa565b60608101611f9b8286611d69565b611fa86020830185611caa565b6118d66040830184611d69565b60608101611fc38286611d69565b611fa86020830185611d69565b602081016105bb8284611d83565b602080825281016116598184611d8c565b602080825281016105bb81611df3565b602080825281016105bb81611e2a565b6040518181016001600160401b038111828210171561202d57600080fd5b604052919050565b60006001600160401b0382111561204b57600080fd5b5060209081020190565b60200190565b5190565b90815260200190565b919050565b60006105bb82612080565b151590565b90565b6001600160a01b031690565b60006105bb8261206d565b60005b838110156120b257818101518382015260200161209a565b83811115611eca5750506000910152565b601f01601f191690565b6120d68161206d565b811461124857600080fd5b6120d68161207d56fe3a2063616c6c6572206973206e6f7420746865206f776e6572000000000000003a206e6577206d616e6167657220697320746865207a65726f2061646472657373a365627a7a72315820ca52bdac8c302f88a53a8c422b04e8b1f6bcef6c490a4f49c31e9e670ed2bcd76c6578706572696d656e74616cf564736f6c63430005110040",
  "source": "// SPDX-License-Identifier: MIT\npragma solidity ^0.5.17;\npragma experimental ABIEncoderV2;\n\nimport './lib/SafeMath.sol';\nimport './lib/PreciseMath.sol';\nimport './lib/Paging.sol';\nimport './base/Importable.sol';\nimport './base/ExternalStorable.sol';\nimport './interfaces/ILiquidator.sol';\nimport './interfaces/storages/ILiquidatorStorage.sol';\nimport './interfaces/IIssuer.sol';\nimport './interfaces/ISetting.sol';\nimport './interfaces/IAssetPrice.sol';\nimport './interfaces/IStaker.sol';\n\ncontract Liquidator is Importable, ExternalStorable, ILiquidator {\n    using SafeMath for uint256;\n    using PreciseMath for uint256;\n\n    constructor(IResolver _resolver) public Importable(_resolver) {\n        setContractName(CONTRACT_LIQUIDATOR);\n        imports = [\n            CONTRACT_SYNTHX,\n            CONTRACT_SUPPLY_SCHEDULE,\n            CONTRACT_ISSUER,\n            CONTRACT_SETTING,\n            CONTRACT_ASSET_PRICE,\n            CONTRACT_STAKER\n        ];\n    }\n\n    function Storage() internal view returns (ILiquidatorStorage) {\n        return ILiquidatorStorage(getStorage());\n    }\n\n    function Issuer() private view returns (IIssuer) {\n        return IIssuer(requireAddress(CONTRACT_ISSUER));\n    }\n\n    function Setting() private view returns (ISetting) {\n        return ISetting(requireAddress(CONTRACT_SETTING));\n    }\n\n    function AssetPrice() private view returns (IAssetPrice) {\n        return IAssetPrice(requireAddress(CONTRACT_ASSET_PRICE));\n    }\n\n    function Staker() private view returns (IStaker) {\n        return IStaker(requireAddress(CONTRACT_STAKER));\n    }\n\n    function watchAccount(bytes32 stake, address account) external {\n        uint256 currentCollateralRate = Staker().getCollateralRate(stake, account);\n        uint256 liquidationCollateralRate = Setting().getLiquidationRate(stake);\n        uint256 deadline = now.add(Setting().getLiquidationDelay());\n        if (currentCollateralRate > liquidationCollateralRate) {\n            Storage().removeWatch(stake, account);\n        } else {\n            Storage().addWatch(stake, account, deadline);\n        }\n    }\n\n    function canLiquidate(bytes32 stake, address account) public view returns (bool) {\n        uint256 deadline = Storage().getDeadline(stake, account);\n        if (deadline == 0) return false;\n        if (deadline > now) return false;\n        uint256 currentCollateralRate = Staker().getCollateralRate(stake, account);\n        uint256 liquidationCollateralRate = Setting().getLiquidationRate(stake);\n        return (currentCollateralRate <= liquidationCollateralRate);\n    }\n\n    function getLiquidable(bytes32 stake, address account) external view returns (uint256) {\n        if (!canLiquidate(stake, account)) return 0;\n\n        uint256 debt = Issuer().getDebt(stake, account);\n        uint256 collateralRate = Setting().getCollateralRate(stake);\n        uint256 price = AssetPrice().getPrice(stake);\n        uint256 currentStakeValue = Staker().getStaked(stake, account).decimalMultiply(price);\n        uint256 minStakeValue = debt.decimalMultiply(collateralRate);\n        if (currentStakeValue >= minStakeValue) return 0;\n\n        uint256 liquidationFeeRate = Setting().getLiquidationFeeRate(stake);\n        uint256 liquidable =\n            minStakeValue.sub(currentStakeValue).decimalDivide(\n                collateralRate.sub(PreciseMath.DECIMAL_ONE()).sub(liquidationFeeRate)\n            );\n        if (liquidable > debt)\n            liquidable = currentStakeValue.decimalDivide(PreciseMath.DECIMAL_ONE().add(liquidationFeeRate));\n\n        return liquidable;\n    }\n\n    function getUnstakable(bytes32 stake, uint256 amount) external view returns (uint256) {\n        uint256 liquidationFeeRate = Setting().getLiquidationFeeRate(stake);\n        uint256 price = AssetPrice().getPrice(stake);\n        return amount.decimalMultiply(PreciseMath.DECIMAL_ONE().add(liquidationFeeRate)).decimalDivide(price);\n    }\n\n    function getAccounts(\n        bytes32 stake,\n        uint256 pageSize,\n        uint256 pageNumber\n    ) external view returns (address[] memory, Paging.Page memory) {\n        return Storage().getAccounts(stake, pageSize, pageNumber);\n    }\n}\n",
  "sourcePath": "/Users/sun/go/src/github.com/Dipper-Labs/DIPSYN/contracts/Liquidator.sol",
  "compiler": {
    "name": "solc",
    "version": "0.5.17+commit.d19bba13.Emscripten.clang"
  },
  "schemaVersion": "3.3.4",
  "updatedAt": "2021-04-21T04:08:13.980Z",
  "devdoc": {
    "methods": {}
  },
  "userdoc": {
    "methods": {}
  }
}