{
  "contractName": "Market",
  "abi": [
    {
      "inputs": [
        {
          "internalType": "contract IResolver",
          "name": "_resolver",
          "type": "address"
        }
      ],
      "payable": false,
      "stateMutability": "nonpayable",
      "type": "constructor"
    },
    {
      "anonymous": false,
      "inputs": [
        {
          "indexed": true,
          "internalType": "address",
          "name": "previousValue",
          "type": "address"
        },
        {
          "indexed": true,
          "internalType": "address",
          "name": "newValue",
          "type": "address"
        }
      ],
      "name": "ManagerChanged",
      "type": "event"
    },
    {
      "anonymous": false,
      "inputs": [
        {
          "indexed": true,
          "internalType": "address",
          "name": "previousValue",
          "type": "address"
        },
        {
          "indexed": true,
          "internalType": "address",
          "name": "newValue",
          "type": "address"
        }
      ],
      "name": "OwnerChanged",
      "type": "event"
    },
    {
      "constant": false,
      "inputs": [
        {
          "internalType": "bytes32",
          "name": "name",
          "type": "bytes32"
        }
      ],
      "name": "addAddress",
      "outputs": [],
      "payable": false,
      "stateMutability": "nonpayable",
      "type": "function"
    },
    {
      "constant": true,
      "inputs": [],
      "name": "contractName",
      "outputs": [
        {
          "internalType": "string",
          "name": "",
          "type": "string"
        }
      ],
      "payable": false,
      "stateMutability": "view",
      "type": "function"
    },
    {
      "constant": true,
      "inputs": [
        {
          "internalType": "bytes32",
          "name": "name",
          "type": "bytes32"
        }
      ],
      "name": "getAddress",
      "outputs": [
        {
          "internalType": "address",
          "name": "",
          "type": "address"
        }
      ],
      "payable": false,
      "stateMutability": "view",
      "type": "function"
    },
    {
      "constant": true,
      "inputs": [],
      "name": "getImports",
      "outputs": [
        {
          "internalType": "bytes32[]",
          "name": "",
          "type": "bytes32[]"
        }
      ],
      "payable": false,
      "stateMutability": "view",
      "type": "function"
    },
    {
      "constant": true,
      "inputs": [],
      "name": "manager",
      "outputs": [
        {
          "internalType": "address",
          "name": "",
          "type": "address"
        }
      ],
      "payable": false,
      "stateMutability": "view",
      "type": "function"
    },
    {
      "constant": true,
      "inputs": [],
      "name": "owner",
      "outputs": [
        {
          "internalType": "address",
          "name": "",
          "type": "address"
        }
      ],
      "payable": false,
      "stateMutability": "view",
      "type": "function"
    },
    {
      "constant": false,
      "inputs": [],
      "name": "refreshCache",
      "outputs": [],
      "payable": false,
      "stateMutability": "nonpayable",
      "type": "function"
    },
    {
      "constant": true,
      "inputs": [],
      "name": "resolver",
      "outputs": [
        {
          "internalType": "contract IResolver",
          "name": "",
          "type": "address"
        }
      ],
      "payable": false,
      "stateMutability": "view",
      "type": "function"
    },
    {
      "constant": false,
      "inputs": [
        {
          "internalType": "address",
          "name": "_manager",
          "type": "address"
        }
      ],
      "name": "setManager",
      "outputs": [],
      "payable": false,
      "stateMutability": "nonpayable",
      "type": "function"
    },
    {
      "constant": false,
      "inputs": [
        {
          "internalType": "address",
          "name": "_owner",
          "type": "address"
        }
      ],
      "name": "setOwner",
      "outputs": [],
      "payable": false,
      "stateMutability": "nonpayable",
      "type": "function"
    },
    {
      "constant": false,
      "inputs": [
        {
          "internalType": "bytes32",
          "name": "fromSynth",
          "type": "bytes32"
        },
        {
          "internalType": "uint256",
          "name": "fromAmount",
          "type": "uint256"
        },
        {
          "internalType": "uint256",
          "name": "fromSynthPrice",
          "type": "uint256"
        },
        {
          "internalType": "bytes32",
          "name": "toSynth",
          "type": "bytes32"
        },
        {
          "internalType": "uint256",
          "name": "toAmount",
          "type": "uint256"
        },
        {
          "internalType": "uint256",
          "name": "toSynthPrice",
          "type": "uint256"
        }
      ],
      "name": "addTrade",
      "outputs": [],
      "payable": false,
      "stateMutability": "nonpayable",
      "type": "function"
    },
    {
      "constant": true,
      "inputs": [
        {
          "internalType": "bytes32",
          "name": "fromSynth",
          "type": "bytes32"
        },
        {
          "internalType": "bytes32",
          "name": "toSynth",
          "type": "bytes32"
        }
      ],
      "name": "getPairMarket",
      "outputs": [
        {
          "internalType": "uint256",
          "name": "open",
          "type": "uint256"
        },
        {
          "internalType": "uint256",
          "name": "low",
          "type": "uint256"
        },
        {
          "internalType": "uint256",
          "name": "hight",
          "type": "uint256"
        },
        {
          "internalType": "uint256",
          "name": "volume",
          "type": "uint256"
        },
        {
          "internalType": "uint256",
          "name": "turnover",
          "type": "uint256"
        }
      ],
      "payable": false,
      "stateMutability": "view",
      "type": "function"
    },
    {
      "constant": true,
      "inputs": [
        {
          "internalType": "bytes32",
          "name": "asset",
          "type": "bytes32"
        }
      ],
      "name": "getAssetMarket",
      "outputs": [
        {
          "internalType": "uint256",
          "name": "open",
          "type": "uint256"
        },
        {
          "internalType": "uint256",
          "name": "low",
          "type": "uint256"
        },
        {
          "internalType": "uint256",
          "name": "hight",
          "type": "uint256"
        },
        {
          "internalType": "uint256",
          "name": "volume",
          "type": "uint256"
        },
        {
          "internalType": "uint256",
          "name": "turnover",
          "type": "uint256"
        }
      ],
      "payable": false,
      "stateMutability": "view",
      "type": "function"
    },
    {
      "constant": true,
      "inputs": [
        {
          "internalType": "bytes32",
          "name": "asset",
          "type": "bytes32"
        },
        {
          "internalType": "uint256",
          "name": "size",
          "type": "uint256"
        }
      ],
      "name": "getLine",
      "outputs": [
        {
          "internalType": "uint256[]",
          "name": "",
          "type": "uint256[]"
        }
      ],
      "payable": false,
      "stateMutability": "view",
      "type": "function"
    },
    {
      "constant": true,
      "inputs": [
        {
          "internalType": "bytes32",
          "name": "asset",
          "type": "bytes32"
        },
        {
          "internalType": "uint256",
          "name": "size",
          "type": "uint256"
        }
      ],
      "name": "getMarkets",
      "outputs": [
        {
          "components": [
            {
              "internalType": "bytes32",
              "name": "asset",
              "type": "bytes32"
            },
            {
              "internalType": "uint256",
              "name": "open",
              "type": "uint256"
            },
            {
              "internalType": "uint256",
              "name": "last",
              "type": "uint256"
            },
            {
              "internalType": "uint256",
              "name": "low",
              "type": "uint256"
            },
            {
              "internalType": "uint256",
              "name": "hight",
              "type": "uint256"
            },
            {
              "internalType": "uint256",
              "name": "volume",
              "type": "uint256"
            },
            {
              "internalType": "uint256",
              "name": "turnover",
              "type": "uint256"
            },
            {
              "internalType": "uint256",
              "name": "time",
              "type": "uint256"
            }
          ],
          "internalType": "struct IMarket.Market[]",
          "name": "",
          "type": "tuple[]"
        }
      ],
      "payable": false,
      "stateMutability": "view",
      "type": "function"
    }
  ],
  "bytecode": "0x60806040523480156200001157600080fd5b5060405162001db238038062001db28339810160408190526200003491620001df565b60018054336001600160a01b03199182168117909255600280548216909217909155600380549091166001600160a01b0383161790556200007e6513585c9ad95d60d21b620000ad565b6040805160208101909152650a6f2dce8d0f60d31b8152620000a5906004906001620000ea565b50506200027a565b80604051602001620000c0919062000223565b60405160208183030381529060405260009080519060200190620000e69291906200013a565b5050565b82805482825590600052602060002090810192821562000128579160200282015b82811115620001285782518255916020019190600101906200010b565b5062000136929150620001ac565b5090565b828054600181600116156101000203166002900490600052602060002090601f016020900481019282601f106200017d57805160ff191683800117855562000128565b82800160010185558215620001285791820182811115620001285782518255916020019190600101906200010b565b620001c991905b80821115620001365760008155600101620001b3565b90565b8051620001d98162000260565b92915050565b600060208284031215620001f257600080fd5b6000620002008484620001cc565b949350505050565b6200021d6200021782620001c9565b620001c9565b82525050565b600062000231828462000208565b50602001919050565b6000620001d98262000254565b6000620001d9826200023a565b6001600160a01b031690565b6200026b8162000247565b81146200027757600080fd5b50565b611b28806200028a6000396000f3fe608060405234801561001057600080fd5b50600436106100c55760003560e01c806304f3bcec146100ca578063126779c2146100e857806313af4035146100fd5780631f42d34b1461011257806321f8a72114610132578063481c6a75146101525780635f0135aa1461015a57806375d0c0dc1461017e5780638aed3c32146101935780638da5cb5b146101a65780638f124c10146101ae5780639ccdcdce146101c1578063d0ebdbe7146101e1578063d5c2c8ca146101f4578063fddcf4a7146101fc575b600080fd5b6100d261020f565b6040516100df9190611989565b60405180910390f35b6100f061021e565b6040516100df9190611948565b61011061010b366004611513565b610276565b005b61012561012036600461156d565b61048e565b6040516100df919061196a565b61014561014036600461154f565b6105cb565b6040516100df919061193a565b6101456105e6565b61016d61016836600461156d565b6105f5565b6040516100df9594939291906119c8565b610186610641565b6040516100df9190611997565b6101106101a136600461154f565b6106cf565b610145610863565b6101106101bc3660046115a7565b610872565b6101d46101cf36600461156d565b610b67565b6040516100df9190611959565b6101106101ef366004611513565b610c75565b610110610e34565b61016d61020a36600461154f565b610fca565b6003546001600160a01b031681565b6060600480548060200260200160405190810160405280929190818152602001828054801561026c57602002820191906000526020600020905b815481526020019060010190808311610258575b5050505050905090565b6001805460408051808201825260198152600080516020611aa5833981519152602080830191909152600080548451600261010098831615989098026000190190911696909604601f81018390048302870183019094528386526001600160a01b0390941633149461034b9492939092918301828280156103385780601f1061030d57610100808354040283529160200191610338565b820191906000526020600020905b81548152906001019060200180831161031b57829003601f168201915b505050505061110b90919063ffffffff16565b906103725760405162461bcd60e51b81526004016103699190611997565b60405180910390fd5b50604080518082018252601f8082527f3a206e6577206f776e657220697320746865207a65726f206164647265737300602080840191909152600080548551600260001961010060018516150201909216919091049384018390048302810183019095528285526001600160a01b038616151594610413949390928301828280156103385780601f1061030d57610100808354040283529160200191610338565b906104315760405162461bcd60e51b81526004016103699190611997565b506001546040516001600160a01b038084169216907fb532073b38c83145e3e5135377a08bf9aab55bc0fd7c1179cd4fb995d2a5159c90600090a3600180546001600160a01b0319166001600160a01b0392909216919091179055565b6060610e1042046000606484116104a557836104a8565b60645b90506060816040519080825280602002602001820160405280156104d6578160200160208202803883390190505b50905060005b828110156105bf576104ec6114aa565b60008881526006602052604081209061050b878563ffffffff61113716565b8152602001908152602001600020604051806101000160405290816000820154815260200160018201548152602001600282015481526020016003820154815260200160048201548152602001600582015481526020016006820154815260200160078201548152505090508060400151836105a18461059560018961113790919063ffffffff16565b9063ffffffff61113716565b815181106105ab57fe5b6020908102919091010152506001016104dc565b50925050505b92915050565b6000908152600560205260409020546001600160a01b031690565b6002546001600160a01b031681565b600080600080600061062e87876040516020016106139291906118fc565b60405160208183030381529060405280519060200120610fca565b939b929a50909850965090945092505050565b6000805460408051602060026001851615610100026000190190941693909304601f810184900484028201840190925281815292918301828280156106c75780601f1061069c576101008083540402835291602001916106c7565b820191906000526020600020905b8154815290600101906020018083116106aa57829003601f168201915b505050505081565b6001805460408051808201825260198152600080516020611aa5833981519152602080830191909152600080548451600261010098831615989098026000190190911696909604601f81018390048302870183019094528386526001600160a01b039094163314946107669492939092918301828280156103385780601f1061030d57610100808354040283529160200191610338565b906107845760405162461bcd60e51b81526004016103699190611997565b506003546040516321f8a72160e01b81526001600160a01b03909116906321f8a721906107b590849060040161197b565b60206040518083038186803b1580156107cd57600080fd5b505afa1580156107e1573d6000803e3d6000fd5b505050506040513d601f19601f820116820180604052506108059190810190611531565b600082815260056020526040812080546001600160a01b0319166001600160a01b0393909316929092179091556004805460018101825591527f8a35acfbc15ff81a39ae7d344fd709f28e8600b4aa8c65c6b64bfe7fe36bd19b0155565b6001546001600160a01b031681565b60048054806020026020016040519081016040528092919081815260200182805480156108be57602002820191906000526020600020905b8154815260200190600101908083116108aa575b5050835160408051808201825260208082527f3a2063616e6e6f742068617665206d6f7265207468616e203230206974656d738183015260008054845160026001831615610100026000190190921691909104601f81018490048402820184019095528481526014909510975061095c96509194509091908301828280156103385780601f1061030d57610100808354040283529160200191610338565b9061097a5760405162461bcd60e51b81526004016103699190611997565b506000805b82518110156109d4576005600084838151811061099857fe5b6020908102919091018101518252810191909152604001600020546001600160a01b03163314156109cc57600191506109d4565b60010161097f565b50806109ea57506001546001600160a01b031633145b604080518082018252601f8082527f3a2063616c6c6572206973206e6f7420696e20646570656e64656e6369657300602080840191909152600080548551600260001961010060018516150201909216919091049384018390048302810183019095528285528594610a7f949390928301828280156103385780601f1061030d57610100808354040283529160200191610338565b90610a9d5760405162461bcd60e51b81526004016103699190611997565b506000610ab0888863ffffffff61118016565b90506000610ac4858963ffffffff61119516565b9050610afa8a88604051602001610adc9291906118fc565b604051602081830303815290604052805190602001208288856111aa565b6000610b0c898763ffffffff61119516565b9050610b42888c604051602001610b249291906118fc565b60405160208183030381529060405280519060200120828c866111aa565b610b4e8b8a8c866111aa565b610b5a888789866111aa565b5050505050505050505050565b6060610e104204600060648411610b7e5783610b81565b60645b9050606081604051908082528060200260200182016040528015610bbf57816020015b610bac6114aa565b815260200190600190039081610ba45790505b50905060005b828110156105bf57600087815260066020526040812090610bec868463ffffffff61113716565b81526020019081526020016000206040518061010001604052908160008201548152602001600182015481526020016002820154815260200160038201548152602001600482015481526020016005820154815260200160068201548152602001600782015481525050828281518110610c6257fe5b6020908102919091010152600101610bc5565b6001805460408051808201825260198152600080516020611aa5833981519152602080830191909152600080548451600261010098831615989098026000190190911696909604601f81018390048302870183019094528386526001600160a01b03909416331494610d0c9492939092918301828280156103385780601f1061030d57610100808354040283529160200191610338565b90610d2a5760405162461bcd60e51b81526004016103699190611997565b5060006001600160a01b0316816001600160a01b03161415610db9604051806060016040528060218152602001611ac5602191396000805460408051602060026001851615610100026000190190941693909304601f810184900484028201840190925281815292918301828280156103385780601f1061030d57610100808354040283529160200191610338565b90610dd75760405162461bcd60e51b81526004016103699190611997565b506002546040516001600160a01b038084169216907f605c2dbf762e5f7d60a546d42e7205dcb1b011ebc62a61736a57c9089d3a435090600090a3600280546001600160a01b0319166001600160a01b0392909216919091179055565b6001805460408051808201825260198152600080516020611aa5833981519152602080830191909152600080548451600261010098831615989098026000190190911696909604601f81018390048302870183019094528386526001600160a01b03909416331494610ecb9492939092918301828280156103385780601f1061030d57610100808354040283529160200191610338565b90610ee95760405162461bcd60e51b81526004016103699190611997565b5060005b600454811015610fc757600060048281548110610f0657fe5b6000918252602090912001546003546040516321f8a72160e01b81529192506001600160a01b0316906321f8a72190610f4390849060040161197b565b60206040518083038186803b158015610f5b57600080fd5b505afa158015610f6f573d6000803e3d6000fd5b505050506040513d601f19601f82011682018060405250610f939190810190611531565b60009182526005602052604090912080546001600160a01b0319166001600160a01b03909216919091179055600101610eed565b50565b600080808080610e104204815b601881101561110057610fe86114aa565b600089815260066020526040812090611007858563ffffffff61113716565b8152602080820192909252604090810160002081516101008101835281548082526001830154948201949094526002820154928101929092526003810154606083015260048101546080830152600581015460a0830152600681015460c08301526007015460e0820152915061107d57506110f8565b6020810151975086156110a457606081015161109f908863ffffffff61130416565b6110aa565b80606001515b60808201519097506110c2908763ffffffff61131a16565b95506110db8160a001518661133190919063ffffffff16565b94506110f48160c001518561133190919063ffffffff16565b9350505b600101610fd7565b505091939590929450565b60608282604051602001611120929190611922565b604051602081830303815290604052905092915050565b600061117983836040518060400160405280601e81526020017f536166654d6174683a207375627472616374696f6e206f766572666c6f770000815250611356565b9392505050565b60006111798383670de0b6b3a7640000611382565b60006111798383670de0b6b3a76400006113bd565b6000848152600660209081526040808320610e104204808552925290912080546112845760405180610100016040528087815260200186815260200186815260200186815260200186815260200185815260200184815260200142815250600660008881526020019081526020016000206000848152602001908152602001600020600082015181600001556020820151816001015560408201518160020155606082015181600301556080820151816004015560a0820151816005015560c0820151816006015560e082015181600701559050506112fc565b6002810185905560038101546112a190869063ffffffff61130416565b600382015560048101546112bc90869063ffffffff61131a16565b600482015560058101546112d6908563ffffffff61133116565b600582015560068101546112f0908463ffffffff61133116565b60068201554260078201555b505050505050565b6000818310156113145782611179565b50919050565b60008183101561132a5781611179565b5090919050565b6000828201838110156111795760405162461bcd60e51b8152600401610369906119a8565b6000818484111561137a5760405162461bcd60e51b81526004016103699190611997565b505050900390565b600083158061138f575082155b1561139c57506000611179565b816113ad858563ffffffff6113ff16565b816113b457fe5b04949350505050565b60008315806113ca575082155b156113d757506000611179565b6113f7836113eb868563ffffffff6113ff16565b9063ffffffff61143916565b949350505050565b60008261140e575060006105c5565b8282028284828161141b57fe5b04146111795760405162461bcd60e51b8152600401610369906119b8565b600061117983836040518060400160405280601a815260200179536166654d6174683a206469766973696f6e206279207a65726f60301b815250600081836114945760405162461bcd60e51b81526004016103699190611997565b5060008385816114a057fe5b0495945050505050565b60405180610100016040528060008019168152602001600081526020016000815260200160008152602001600081526020016000815260200160008152602001600081525090565b80356105c581611a87565b80516105c581611a87565b80356105c581611a9b565b60006020828403121561152557600080fd5b60006113f784846114f2565b60006020828403121561154357600080fd5b60006113f784846114fd565b60006020828403121561156157600080fd5b60006113f78484611508565b6000806040838503121561158057600080fd5b600061158c8585611508565b925050602061159d85828601611508565b9150509250929050565b60008060008060008060c087890312156115c057600080fd5b60006115cc8989611508565b96505060206115dd89828a01611508565b95505060406115ee89828a01611508565b94505060606115ff89828a01611508565b935050608061161089828a01611508565b92505060a061162189828a01611508565b9150509295509295509295565b600061163a838361175b565b505060200190565b600061164e838361185f565b50506101000190565b61166081611a2c565b82525050565b600061167182611a1a565b61167b8185611a1e565b935061168683611a14565b8060005b838110156116b457815161169e888261162e565b97506116a983611a14565b92505060010161168a565b509495945050505050565b60006116ca82611a1a565b6116d48185611a1e565b93506116df83611a14565b8060005b838110156116b45781516116f78882611642565b975061170283611a14565b9250506001016116e3565b600061171882611a1a565b6117228185611a1e565b935061172d83611a14565b8060005b838110156116b4578151611745888261162e565b975061175083611a14565b925050600101611731565b61166081611a37565b61166061177082611a37565b611a37565b61166081611a46565b600061178982611a1a565b6117938185611a1e565b93506117a3818560208601611a51565b6117ac81611a7d565b9093019392505050565b60006117c182611a1a565b6117cb8185611a27565b93506117db818560208601611a51565b9290920192915050565b60006117f2601b83611a1e565b7a536166654d6174683a206164646974696f6e206f766572666c6f7760281b815260200192915050565b6000611829602183611a1e565b7f536166654d6174683a206d756c7469706c69636174696f6e206f766572666c6f8152607760f81b602082015260400192915050565b8051610100830190611871848261175b565b506020820151611884602085018261175b565b506040820151611897604085018261175b565b5060608201516118aa606085018261175b565b5060808201516118bd608085018261175b565b5060a08201516118d060a085018261175b565b5060c08201516118e360c085018261175b565b5060e08201516118f660e085018261175b565b50505050565b60006119088285611764565b6020820191506119188284611764565b5060200192915050565b600061192e82856117b6565b91506113f782846117b6565b602081016105c58284611657565b602080825281016111798184611666565b6020808252810161117981846116bf565b60208082528101611179818461170d565b602081016105c5828461175b565b602081016105c58284611775565b60208082528101611179818461177e565b602080825281016105c5816117e5565b602080825281016105c58161181c565b60a081016119d6828861175b565b6119e3602083018761175b565b6119f0604083018661175b565b6119fd606083018561175b565b611a0a608083018461175b565b9695505050505050565b60200190565b5190565b90815260200190565b919050565b60006105c582611a3a565b90565b6001600160a01b031690565b60006105c582611a2c565b60005b83811015611a6c578181015183820152602001611a54565b838111156118f65750506000910152565b601f01601f191690565b611a9081611a2c565b8114610fc757600080fd5b611a9081611a3756fe3a2063616c6c6572206973206e6f7420746865206f776e6572000000000000003a206e6577206d616e6167657220697320746865207a65726f2061646472657373a365627a7a723158205668f9e9bd02cd84e789709821f186b24b0ac190cece94420ae6139fec0c7fb06c6578706572696d656e74616cf564736f6c63430005110040",
  "source": "// SPDX-License-Identifier: MIT\npragma solidity ^0.5.17;\npragma experimental ABIEncoderV2;\n\nimport './lib/SafeMath.sol';\nimport './lib/PreciseMath.sol';\nimport './base/Importable.sol';\nimport './interfaces/IMarket.sol';\n\ncontract Market is Importable, IMarket {\n    using SafeMath for uint256;\n    using PreciseMath for uint256;\n\n    mapping(bytes32 => mapping(uint256 => Market)) private _storage;\n\n    constructor(IResolver _resolver) public Importable(_resolver) {\n        setContractName(CONTRACT_MARKET);\n        imports = [CONTRACT_SYNTHX];\n    }\n\n    function addTrade(\n        bytes32 fromSynth,\n        uint256 fromAmount,\n        uint256 fromSynthPrice,\n        bytes32 toSynth,\n        uint256 toAmount,\n        uint256 toSynthPrice\n    ) external containAddressOrOwner(imports) {\n        uint256 turnover = fromAmount.decimalMultiply(fromSynthPrice);\n        uint256 toPrice = toSynthPrice.decimalDivide(fromSynthPrice);\n        _setAssetMarket(keccak256(abi.encodePacked(fromSynth, toSynth)), toPrice, toAmount, turnover);\n\n        uint256 fromPrice = fromSynthPrice.decimalDivide(toSynthPrice);\n        _setAssetMarket(keccak256(abi.encodePacked(toSynth, fromSynth)), fromPrice, fromAmount, turnover);\n\n        _setAssetMarket(fromSynth, fromSynthPrice, fromAmount, turnover);\n        _setAssetMarket(toSynth, toSynthPrice, toAmount, turnover);\n    }\n\n    function _setAssetMarket(\n        bytes32 asset,\n        uint256 price,\n        uint256 volume,\n        uint256 turnover\n    ) private {\n        uint256 hour = now / 3600;\n        Market storage market = _storage[asset][hour];\n        if (market.asset == bytes32(0)) {\n            _storage[asset][hour] = Market(asset, price, price, price, price, volume, turnover, now);\n        } else {\n            market.last = price;\n            market.low = price.min(market.low);\n            market.hight = price.max(market.hight);\n            market.volume = market.volume.add(volume);\n            market.turnover = market.turnover.add(turnover);\n            market.time = now;\n        }\n    }\n\n    function getPairMarket(bytes32 fromSynth, bytes32 toSynth)\n        external\n        view\n        returns (\n            uint256 open,\n            uint256 low,\n            uint256 hight,\n            uint256 volume,\n            uint256 turnover\n        )\n    {\n        return getAssetMarket(keccak256(abi.encodePacked(fromSynth, toSynth)));\n    }\n\n    function getAssetMarket(bytes32 asset)\n        public\n        view\n        returns (\n            uint256 open,\n            uint256 low,\n            uint256 hight,\n            uint256 volume,\n            uint256 turnover\n        )\n    {\n        uint256 start = now / 3600;\n        for (uint256 i = 0; i < 24; i++) {\n            Market memory market = _storage[asset][start.sub(i)];\n            if (market.asset == bytes32(0)) continue;\n            open = market.open;\n            low = (low == 0) ? market.low : market.low.min(low);\n            hight = market.hight.max(hight);\n            volume = volume.add(market.volume);\n            turnover = turnover.add(market.turnover);\n        }\n    }\n\n    function getLine(bytes32 asset, uint256 size) external view returns (uint256[] memory) {\n        uint256 start = now / 3600;\n        uint256 length = (size > 100) ? 100 : size;\n        uint256[] memory line = new uint256[](length);\n        for (uint256 i = 0; i < length; i++) {\n            Market memory market = _storage[asset][start.sub(i)];\n            line[length.sub(1).sub(i)] = market.last;\n        }\n        return line;\n    }\n\n    function getMarkets(bytes32 asset, uint256 size) external view returns (Market[] memory) {\n        uint256 start = now / 3600;\n        uint256 length = (size > 100) ? 100 : size;\n        Market[] memory items = new Market[](length);\n        for (uint256 i = 0; i < length; i++) {\n            items[i] = _storage[asset][start.sub(i)];\n        }\n        return items;\n    }\n}\n",
  "sourcePath": "/Users/sun/go/src/github.com/Dipper-Labs/DIPSYN/contracts/Market.sol",
  "compiler": {
    "name": "solc",
    "version": "0.5.17+commit.d19bba13.Emscripten.clang"
  },
  "schemaVersion": "3.3.4",
  "updatedAt": "2021-04-21T04:08:13.983Z",
  "devdoc": {
    "methods": {}
  },
  "userdoc": {
    "methods": {}
  }
}