{
  "contractName": "OracleStorage",
  "abi": [
    {
      "inputs": [
        {
          "internalType": "address",
          "name": "_manager",
          "type": "address"
        }
      ],
      "payable": false,
      "stateMutability": "nonpayable",
      "type": "constructor"
    },
    {
      "anonymous": false,
      "inputs": [
        {
          "indexed": true,
          "internalType": "address",
          "name": "previousValue",
          "type": "address"
        },
        {
          "indexed": true,
          "internalType": "address",
          "name": "newValue",
          "type": "address"
        }
      ],
      "name": "ManagerChanged",
      "type": "event"
    },
    {
      "anonymous": false,
      "inputs": [
        {
          "indexed": true,
          "internalType": "address",
          "name": "previousValue",
          "type": "address"
        },
        {
          "indexed": true,
          "internalType": "address",
          "name": "newValue",
          "type": "address"
        }
      ],
      "name": "OwnerChanged",
      "type": "event"
    },
    {
      "constant": true,
      "inputs": [],
      "name": "contractName",
      "outputs": [
        {
          "internalType": "string",
          "name": "",
          "type": "string"
        }
      ],
      "payable": false,
      "stateMutability": "view",
      "type": "function"
    },
    {
      "constant": true,
      "inputs": [],
      "name": "manager",
      "outputs": [
        {
          "internalType": "address",
          "name": "",
          "type": "address"
        }
      ],
      "payable": false,
      "stateMutability": "view",
      "type": "function"
    },
    {
      "constant": true,
      "inputs": [],
      "name": "owner",
      "outputs": [
        {
          "internalType": "address",
          "name": "",
          "type": "address"
        }
      ],
      "payable": false,
      "stateMutability": "view",
      "type": "function"
    },
    {
      "constant": false,
      "inputs": [
        {
          "internalType": "address",
          "name": "_manager",
          "type": "address"
        }
      ],
      "name": "setManager",
      "outputs": [],
      "payable": false,
      "stateMutability": "nonpayable",
      "type": "function"
    },
    {
      "constant": false,
      "inputs": [
        {
          "internalType": "address",
          "name": "_owner",
          "type": "address"
        }
      ],
      "name": "setOwner",
      "outputs": [],
      "payable": false,
      "stateMutability": "nonpayable",
      "type": "function"
    },
    {
      "constant": false,
      "inputs": [
        {
          "internalType": "bytes32",
          "name": "asset",
          "type": "bytes32"
        },
        {
          "internalType": "uint256",
          "name": "round",
          "type": "uint256"
        }
      ],
      "name": "setRound",
      "outputs": [],
      "payable": false,
      "stateMutability": "nonpayable",
      "type": "function"
    },
    {
      "constant": true,
      "inputs": [
        {
          "internalType": "bytes32",
          "name": "asset",
          "type": "bytes32"
        }
      ],
      "name": "getRound",
      "outputs": [
        {
          "internalType": "uint256",
          "name": "",
          "type": "uint256"
        }
      ],
      "payable": false,
      "stateMutability": "view",
      "type": "function"
    },
    {
      "constant": false,
      "inputs": [
        {
          "internalType": "bytes32",
          "name": "asset",
          "type": "bytes32"
        },
        {
          "internalType": "uint256",
          "name": "price",
          "type": "uint256"
        }
      ],
      "name": "setPrice",
      "outputs": [],
      "payable": false,
      "stateMutability": "nonpayable",
      "type": "function"
    },
    {
      "constant": true,
      "inputs": [
        {
          "internalType": "bytes32",
          "name": "asset",
          "type": "bytes32"
        },
        {
          "internalType": "uint256",
          "name": "round",
          "type": "uint256"
        }
      ],
      "name": "getPrice",
      "outputs": [
        {
          "internalType": "uint256",
          "name": "price",
          "type": "uint256"
        },
        {
          "internalType": "uint256",
          "name": "time",
          "type": "uint256"
        }
      ],
      "payable": false,
      "stateMutability": "view",
      "type": "function"
    }
  ],
  "bytecode": "0x60806040526636b0b730b3b2b960c91b6003553480156200001f57600080fd5b506040516200178138038062001781833981810160405260208110156200004557600080fd5b505160018054336001600160a01b031991821681179092556002805490911690911790558062000075816200007d565b505062000755565b60018054604080518082018252601981527f3a2063616c6c6572206973206e6f7420746865206f776e657200000000000000602080830191909152600080548451600261010098831615989098026000190190911696909604601f81018390048302870183019094528386526001600160a01b039094163314946200016f949293909291830182828015620001565780601f106200012a5761010080835404028352916020019162000156565b820191906000526020600020905b8154815290600101906020018083116200013857829003601f168201915b5050505050620003ae60201b62000bf31790919060201c565b90620001fc5760405162461bcd60e51b81526004018080602001828103825283818151815260200191508051906020019080838360005b83811015620001c0578181015183820152602001620001a6565b50505050905090810190601f168015620001ee5780820380516001836020036101000a031916815260200191505b509250505060405180910390fd5b5062000213816200046d60201b62000cae1760201c565b6040805180820190915260078082526653746f7261676560c81b60209092019182526200024391600091620006b0565b5060025460408051631d74303760e21b8152905162000392926001600160a01b0316916375d0c0dc916004808301926000929190829003018186803b1580156200028c57600080fd5b505afa158015620002a1573d6000803e3d6000fd5b505050506040513d6000823e601f3d908101601f191682016040526020811015620002cb57600080fd5b8101908080516040519392919084640100000000821115620002ec57600080fd5b9083019060208201858111156200030257600080fd5b82516401000000008111828201881017156200031d57600080fd5b82525081516020918201929091019080838360005b838110156200034c57818101518382015260200162000332565b50505050905090810190601f1680156200037a5780820380516001836020036101000a031916815260200191505b50604052505050620006a960201b62000ec91760201c565b6003819055620003ab576636b0b730b3b2b960c91b6003555b50565b606082826040516020018083805190602001908083835b60208310620003e65780518252601f199092019160209182019101620003c5565b51815160209384036101000a600019018019909216911617905285519190930192850191508083835b60208310620004305780518252601f1990920191602091820191016200040f565b6001836020036101000a03801982511681845116808217855250505050505090500192505050604051602081830303815290604052905092915050565b60018054604080518082018252601981527f3a2063616c6c6572206973206e6f7420746865206f776e657200000000000000602080830191909152600080548451600261010098831615989098026000190190911696909604601f81018390048302870183019094528386526001600160a01b039094163314946200051a949293909291830182828015620001565780601f106200012a5761010080835404028352916020019162000156565b90620005695760405162461bcd60e51b8152602060048201818152835160248401528351909283926044909101919085019080838360008315620001c0578181015183820152602001620001a6565b5060006001600160a01b0316816001600160a01b03161415620005fd60405180606001604052806021815260200162001760602191396000805460408051602060026001851615610100026000190190941693909304601f81018490048402820184019092528181529291830182828015620001565780601f106200012a5761010080835404028352916020019162000156565b906200064c5760405162461bcd60e51b8152602060048201818152835160248401528351909283926044909101919085019080838360008315620001c0578181015183820152602001620001a6565b506002546040516001600160a01b038084169216907f605c2dbf762e5f7d60a546d42e7205dcb1b011ebc62a61736a57c9089d3a435090600090a3600280546001600160a01b0319166001600160a01b0392909216919091179055565b6020015190565b828054600181600116156101000203166002900490600052602060002090601f016020900481019282601f10620006f357805160ff191683800117855562000723565b8280016001018555821562000723579182015b828111156200072357825182559160200191906001019062000706565b506200073192915062000735565b5090565b6200075291905b808211156200073157600081556001016200073c565b90565b610ffb80620007656000396000f3fe608060405234801561001057600080fd5b50600436106100835760003560e01c80630cf5e1561461008857806310d8d74d146100ad57806313af4035146100d0578063481c6a75146100f657806375d0c0dc1461011a5780638da5cb5b14610197578063c9280f061461019f578063d0ebdbe7146101db578063dd2be61d14610201575b600080fd5b6100ab6004803603604081101561009e57600080fd5b5080359060200135610230565b005b6100ab600480360360408110156100c357600080fd5b50803590602001356103ac565b6100ab600480360360208110156100e657600080fd5b50356001600160a01b03166104fe565b6100fe610769565b604080516001600160a01b039092168252519081900360200190f35b610122610778565b6040805160208082528351818301528351919283929083019185019080838360005b8381101561015c578181015183820152602001610144565b50505050905090810190601f1680156101895780820380516001836020036101000a031916815260200191505b509250505060405180910390f35b6100fe610806565b6101c2600480360360408110156101b557600080fd5b5080359060200135610815565b6040805192835260208301919091528051918290030190f35b6100ab600480360360208110156101f157600080fd5b50356001600160a01b031661085c565b61021e6004803603602081101561021757600080fd5b5035610ac9565b60408051918252519081900360200190f35b60035460028054604080518082018252601481527301d1031b0b63632b91034b9903737ba103a3432960651b6020808301919091526000805484516101006001831615026000190190911696909604601f81018390048302870183019094528386526001600160a01b0390941633149461030f949293879391928301828280156102fb5780601f106102d0576101008083540402835291602001916102fb565b820191906000526020600020905b8154815290600101906020018083116102de57829003601f168201915b5050505050610adb9092919063ffffffff16565b906103985760405162461bcd60e51b81526004018080602001828103825283818151815260200191508051906020019080838360005b8381101561035d578181015183820152602001610345565b50505050905090810190601f16801561038a5780820380516001836020036101000a031916815260200191505b509250505060405180910390fd5b505060009182526004602052604090912055565b60035460028054604080518082018252601481527301d1031b0b63632b91034b9903737ba103a3432960651b6020808301919091526000805484516101006001831615026000190190911696909604601f81018390048302870183019094528386526001600160a01b0390941633149461044c949293879391928301828280156102fb5780601f106102d0576101008083540402835291602001916102fb565b906104985760405162461bcd60e51b815260206004820181815283516024840152835190928392604490910191908501908083836000831561035d578181015183820152602001610345565b506000838152600460205260409020546104b990600163ffffffff610b9416565b60008481526004602090815260408083208490558051808201825295865242868301908152968352600582528083209383529290522091518255509051600190910155565b6001805460408051808201825260198152600080516020610f86833981519152602080830191909152600080548451600261010098831615989098026000190190911696909604601f81018390048302870183019094528386526001600160a01b039094163314946105d39492939092918301828280156105c05780601f10610595576101008083540402835291602001916105c0565b820191906000526020600020905b8154815290600101906020018083116105a357829003601f168201915b5050505050610bf390919063ffffffff16565b9061061f5760405162461bcd60e51b815260206004820181815283516024840152835190928392604490910191908501908083836000831561035d578181015183820152602001610345565b50604080518082018252601f8082527f3a206e6577206f776e657220697320746865207a65726f206164647265737300602080840191909152600080548551600260001961010060018516150201909216919091049384018390048302810183019095528285526001600160a01b0386161515946106c0949390928301828280156105c05780601f10610595576101008083540402835291602001916105c0565b9061070c5760405162461bcd60e51b815260206004820181815283516024840152835190928392604490910191908501908083836000831561035d578181015183820152602001610345565b506001546040516001600160a01b038084169216907fb532073b38c83145e3e5135377a08bf9aab55bc0fd7c1179cd4fb995d2a5159c90600090a3600180546001600160a01b0319166001600160a01b0392909216919091179055565b6002546001600160a01b031681565b6000805460408051602060026001851615610100026000190190941693909304601f810184900484028201840190925281815292918301828280156107fe5780601f106107d3576101008083540402835291602001916107fe565b820191906000526020600020905b8154815290600101906020018083116107e157829003601f168201915b505050505081565b6001546001600160a01b031681565b600080610820610ed0565b50505060009182526005602090815260408084209284529181529181902081518083019092528054808352600190910154919092018190529091565b6001805460408051808201825260198152600080516020610f86833981519152602080830191909152600080548451600261010098831615989098026000190190911696909604601f81018390048302870183019094528386526001600160a01b039094163314946108f39492939092918301828280156105c05780601f10610595576101008083540402835291602001916105c0565b9061093f5760405162461bcd60e51b815260206004820181815283516024840152835190928392604490910191908501908083836000831561035d578181015183820152602001610345565b5061094981610cae565b6040805180820190915260078082526653746f7261676560c81b602090920191825261097791600091610eea565b5060025460408051631d74303760e21b81529051610aae926001600160a01b0316916375d0c0dc916004808301926000929190829003018186803b1580156109be57600080fd5b505afa1580156109d2573d6000803e3d6000fd5b505050506040513d6000823e601f3d908101601f1916820160405260208110156109fb57600080fd5b8101908080516040519392919084600160201b821115610a1a57600080fd5b908301906020820185811115610a2f57600080fd5b8251600160201b811182820188101715610a4857600080fd5b82525081516020918201929091019080838360005b83811015610a75578181015183820152602001610a5d565b50505050905090810190601f168015610aa25780820380516001836020036101000a031916815260200191505b50604052505050610ec9565b6003819055610ac6576636b0b730b3b2b960c91b6003555b50565b60009081526004602052604090205490565b60608383836040516020018084805190602001908083835b60208310610b125780518252601f199092019160209182019101610af3565b51815160209384036101000a600019018019909216911617905286519190930192860191508083835b60208310610b5a5780518252601f199092019160209182019101610b3b565b51815160209384036101000a6000190180199092169116179052920193845250604080518085038152939091019052509695505050505050565b600082820183811015610bec576040805162461bcd60e51b815260206004820152601b60248201527a536166654d6174683a206164646974696f6e206f766572666c6f7760281b604482015290519081900360640190fd5b9392505050565b606082826040516020018083805190602001908083835b60208310610c295780518252601f199092019160209182019101610c0a565b51815160209384036101000a600019018019909216911617905285519190930192850191508083835b60208310610c715780518252601f199092019160209182019101610c52565b6001836020036101000a03801982511681845116808217855250505050505090500192505050604051602081830303815290604052905092915050565b6001805460408051808201825260198152600080516020610f86833981519152602080830191909152600080548451600261010098831615989098026000190190911696909604601f81018390048302870183019094528386526001600160a01b03909416331494610d459492939092918301828280156105c05780601f10610595576101008083540402835291602001916105c0565b90610d915760405162461bcd60e51b815260206004820181815283516024840152835190928392604490910191908501908083836000831561035d578181015183820152602001610345565b5060006001600160a01b0316816001600160a01b03161415610e20604051806060016040528060218152602001610fa6602191396000805460408051602060026001851615610100026000190190941693909304601f810184900484028201840190925281815292918301828280156105c05780601f10610595576101008083540402835291602001916105c0565b90610e6c5760405162461bcd60e51b815260206004820181815283516024840152835190928392604490910191908501908083836000831561035d578181015183820152602001610345565b506002546040516001600160a01b038084169216907f605c2dbf762e5f7d60a546d42e7205dcb1b011ebc62a61736a57c9089d3a435090600090a3600280546001600160a01b0319166001600160a01b0392909216919091179055565b6020015190565b604051806040016040528060008152602001600081525090565b828054600181600116156101000203166002900490600052602060002090601f016020900481019282601f10610f2b57805160ff1916838001178555610f58565b82800160010185558215610f58579182015b82811115610f58578251825591602001919060010190610f3d565b50610f64929150610f68565b5090565b610f8291905b80821115610f645760008155600101610f6e565b9056fe3a2063616c6c6572206973206e6f7420746865206f776e6572000000000000003a206e6577206d616e6167657220697320746865207a65726f2061646472657373a265627a7a723158209da3415302be77ea10fc55838db7c6d5547b4952ceeca512f5b37f0b189e474064736f6c634300051100323a206e6577206d616e6167657220697320746865207a65726f2061646472657373",
  "source": "pragma solidity ^0.5.17;\n\nimport '../lib/SafeMath.sol';\nimport './ExternalStorage.sol';\nimport '../interfaces/storages/IOracleStorage.sol';\n\ncontract OracleStorage is ExternalStorage, IOracleStorage {\n    using SafeMath for uint256;\n\n    mapping(bytes32 => uint256) private _round;\n    mapping(bytes32 => mapping(uint256 => Price)) private _storage;\n\n    constructor(address _manager) public ExternalStorage(_manager) {}\n\n    function setRound(bytes32 asset, uint256 round) external onlyManager(managerName) {\n        _round[asset] = round;\n    }\n\n    function getRound(bytes32 asset) external view returns (uint256) {\n        return _round[asset];\n    }\n\n    function setPrice(bytes32 asset, uint256 price) external onlyManager(managerName) {\n        _round[asset] = _round[asset].add(1);\n        _storage[asset][_round[asset]] = Price(price, now);\n    }\n\n    function getPrice(bytes32 asset, uint256 round) external view returns (uint256 price, uint256 time) {\n        Price memory p = _storage[asset][round];\n        return (p.price, p.time);\n    }\n}\n",
  "sourcePath": "/Users/sun/go/src/github.com/Dipper-Labs/DIPSYN/contracts/storages/OracleStorage.sol",
  "compiler": {
    "name": "solc",
    "version": "0.5.17+commit.d19bba13.Emscripten.clang"
  },
  "schemaVersion": "3.3.4",
  "updatedAt": "2021-04-21T06:45:45.934Z",
  "networkType": "ethereum",
  "devdoc": {
    "methods": {}
  },
  "userdoc": {
    "methods": {}
  }
}