{
  "contractName": "ProviderStorage",
  "abi": [
    {
      "inputs": [
        {
          "internalType": "address",
          "name": "_manager",
          "type": "address"
        }
      ],
      "payable": false,
      "stateMutability": "nonpayable",
      "type": "constructor"
    },
    {
      "anonymous": false,
      "inputs": [
        {
          "indexed": true,
          "internalType": "address",
          "name": "previousValue",
          "type": "address"
        },
        {
          "indexed": true,
          "internalType": "address",
          "name": "newValue",
          "type": "address"
        }
      ],
      "name": "ManagerChanged",
      "type": "event"
    },
    {
      "anonymous": false,
      "inputs": [
        {
          "indexed": true,
          "internalType": "address",
          "name": "previousValue",
          "type": "address"
        },
        {
          "indexed": true,
          "internalType": "address",
          "name": "newValue",
          "type": "address"
        }
      ],
      "name": "OwnerChanged",
      "type": "event"
    },
    {
      "constant": true,
      "inputs": [],
      "name": "contractName",
      "outputs": [
        {
          "internalType": "string",
          "name": "",
          "type": "string"
        }
      ],
      "payable": false,
      "stateMutability": "view",
      "type": "function"
    },
    {
      "constant": true,
      "inputs": [
        {
          "internalType": "bytes32",
          "name": "asset",
          "type": "bytes32"
        },
        {
          "internalType": "address",
          "name": "account",
          "type": "address"
        },
        {
          "internalType": "uint256",
          "name": "period",
          "type": "uint256"
        }
      ],
      "name": "getClaimed",
      "outputs": [
        {
          "internalType": "uint256",
          "name": "",
          "type": "uint256"
        }
      ],
      "payable": false,
      "stateMutability": "view",
      "type": "function"
    },
    {
      "constant": true,
      "inputs": [
        {
          "internalType": "bytes32",
          "name": "asset",
          "type": "bytes32"
        }
      ],
      "name": "getRewardPercentage",
      "outputs": [
        {
          "internalType": "uint256",
          "name": "",
          "type": "uint256"
        }
      ],
      "payable": false,
      "stateMutability": "view",
      "type": "function"
    },
    {
      "constant": true,
      "inputs": [],
      "name": "manager",
      "outputs": [
        {
          "internalType": "address",
          "name": "",
          "type": "address"
        }
      ],
      "payable": false,
      "stateMutability": "view",
      "type": "function"
    },
    {
      "constant": true,
      "inputs": [],
      "name": "owner",
      "outputs": [
        {
          "internalType": "address",
          "name": "",
          "type": "address"
        }
      ],
      "payable": false,
      "stateMutability": "view",
      "type": "function"
    },
    {
      "constant": false,
      "inputs": [
        {
          "internalType": "bytes32",
          "name": "asset",
          "type": "bytes32"
        },
        {
          "internalType": "address",
          "name": "account",
          "type": "address"
        },
        {
          "internalType": "uint256",
          "name": "period",
          "type": "uint256"
        },
        {
          "internalType": "uint256",
          "name": "amount",
          "type": "uint256"
        }
      ],
      "name": "setClaimed",
      "outputs": [],
      "payable": false,
      "stateMutability": "nonpayable",
      "type": "function"
    },
    {
      "constant": false,
      "inputs": [
        {
          "internalType": "address",
          "name": "_manager",
          "type": "address"
        }
      ],
      "name": "setManager",
      "outputs": [],
      "payable": false,
      "stateMutability": "nonpayable",
      "type": "function"
    },
    {
      "constant": false,
      "inputs": [
        {
          "internalType": "address",
          "name": "_owner",
          "type": "address"
        }
      ],
      "name": "setOwner",
      "outputs": [],
      "payable": false,
      "stateMutability": "nonpayable",
      "type": "function"
    },
    {
      "constant": false,
      "inputs": [
        {
          "internalType": "bytes32",
          "name": "asset",
          "type": "bytes32"
        },
        {
          "internalType": "uint256",
          "name": "percentage",
          "type": "uint256"
        }
      ],
      "name": "setRewardPercentage",
      "outputs": [],
      "payable": false,
      "stateMutability": "nonpayable",
      "type": "function"
    },
    {
      "constant": false,
      "inputs": [
        {
          "internalType": "bytes32",
          "name": "asset",
          "type": "bytes32"
        },
        {
          "internalType": "address",
          "name": "account",
          "type": "address"
        },
        {
          "internalType": "uint256",
          "name": "period",
          "type": "uint256"
        },
        {
          "internalType": "uint256",
          "name": "amount",
          "type": "uint256"
        }
      ],
      "name": "incrementLocked",
      "outputs": [],
      "payable": false,
      "stateMutability": "nonpayable",
      "type": "function"
    },
    {
      "constant": false,
      "inputs": [
        {
          "internalType": "bytes32",
          "name": "asset",
          "type": "bytes32"
        },
        {
          "internalType": "address",
          "name": "account",
          "type": "address"
        },
        {
          "internalType": "uint256",
          "name": "period",
          "type": "uint256"
        },
        {
          "internalType": "uint256",
          "name": "amount",
          "type": "uint256"
        },
        {
          "internalType": "string",
          "name": "errorMessage",
          "type": "string"
        }
      ],
      "name": "decrementLocked",
      "outputs": [],
      "payable": false,
      "stateMutability": "nonpayable",
      "type": "function"
    },
    {
      "constant": true,
      "inputs": [
        {
          "internalType": "bytes32",
          "name": "asset",
          "type": "bytes32"
        },
        {
          "internalType": "address",
          "name": "account",
          "type": "address"
        },
        {
          "internalType": "uint256",
          "name": "period",
          "type": "uint256"
        }
      ],
      "name": "getLocked",
      "outputs": [
        {
          "internalType": "uint256",
          "name": "",
          "type": "uint256"
        }
      ],
      "payable": false,
      "stateMutability": "view",
      "type": "function"
    }
  ],
  "bytecode": "0x60806040526636b0b730b3b2b960c91b6003553480156200001f57600080fd5b5060405162001fb938038062001fb9833981810160405260208110156200004557600080fd5b505160018054336001600160a01b03199182168117909255600280549091169091179055808062000076816200007f565b50505062000757565b60018054604080518082018252601981527f3a2063616c6c6572206973206e6f7420746865206f776e657200000000000000602080830191909152600080548451600261010098831615989098026000190190911696909604601f81018390048302870183019094528386526001600160a01b0390941633149462000171949293909291830182828015620001585780601f106200012c5761010080835404028352916020019162000158565b820191906000526020600020905b8154815290600101906020018083116200013a57829003601f168201915b5050505050620003b060201b620011431790919060201c565b90620001fe5760405162461bcd60e51b81526004018080602001828103825283818151815260200191508051906020019080838360005b83811015620001c2578181015183820152602001620001a8565b50505050905090810190601f168015620001f05780820380516001836020036101000a031916815260200191505b509250505060405180910390fd5b5062000215816200046f60201b620014481760201c565b6040805180820190915260078082526653746f7261676560c81b60209092019182526200024591600091620006b2565b5060025460408051631d74303760e21b8152905162000394926001600160a01b0316916375d0c0dc916004808301926000929190829003018186803b1580156200028e57600080fd5b505afa158015620002a3573d6000803e3d6000fd5b505050506040513d6000823e601f3d908101601f191682016040526020811015620002cd57600080fd5b8101908080516040519392919084640100000000821115620002ee57600080fd5b9083019060208201858111156200030457600080fd5b82516401000000008111828201881017156200031f57600080fd5b82525081516020918201929091019080838360005b838110156200034e57818101518382015260200162000334565b50505050905090810190601f1680156200037c5780820380516001836020036101000a031916815260200191505b50604052505050620006ab60201b620016631760201c565b6003819055620003ad576636b0b730b3b2b960c91b6003555b50565b606082826040516020018083805190602001908083835b60208310620003e85780518252601f199092019160209182019101620003c7565b51815160209384036101000a600019018019909216911617905285519190930192850191508083835b60208310620004325780518252601f19909201916020918201910162000411565b6001836020036101000a03801982511681845116808217855250505050505090500192505050604051602081830303815290604052905092915050565b60018054604080518082018252601981527f3a2063616c6c6572206973206e6f7420746865206f776e657200000000000000602080830191909152600080548451600261010098831615989098026000190190911696909604601f81018390048302870183019094528386526001600160a01b039094163314946200051c949293909291830182828015620001585780601f106200012c5761010080835404028352916020019162000158565b906200056b5760405162461bcd60e51b8152602060048201818152835160248401528351909283926044909101919085019080838360008315620001c2578181015183820152602001620001a8565b5060006001600160a01b0316816001600160a01b03161415620005ff60405180606001604052806021815260200162001f98602191396000805460408051602060026001851615610100026000190190941693909304601f81018490048402820184019092528181529291830182828015620001585780601f106200012c5761010080835404028352916020019162000158565b906200064e5760405162461bcd60e51b8152602060048201818152835160248401528351909283926044909101919085019080838360008315620001c2578181015183820152602001620001a8565b506002546040516001600160a01b038084169216907f605c2dbf762e5f7d60a546d42e7205dcb1b011ebc62a61736a57c9089d3a435090600090a3600280546001600160a01b0319166001600160a01b0392909216919091179055565b6020015190565b828054600181600116156101000203166002900490600052602060002090601f016020900481019282601f10620006f557805160ff191683800117855562000725565b8280016001018555821562000725579182015b828111156200072557825182559160200191906001019062000708565b506200073392915062000737565b5090565b6200075491905b808211156200073357600081556001016200073e565b90565b61183180620007676000396000f3fe608060405234801561001057600080fd5b50600436106100a45760003560e01c8063048a8b23146100a957806313af4035146100ed578063481c6a75146101155780636a46d4d11461013957806375d0c0dc14610156578063771c5c53146101d35780638da5cb5b1461020b578063c90aed2f14610213578063d0ebdbe71461024b578063f0c5ec8c14610271578063f0f99b5414610300578063f58bed0414610332575b600080fd5b6100db600480360360608110156100bf57600080fd5b508035906001600160a01b036020820135169060400135610355565b60408051918252519081900360200190f35b6101136004803603602081101561010357600080fd5b50356001600160a01b031661040b565b005b61011d6106b3565b604080516001600160a01b039092168252519081900360200190f35b6100db6004803603602081101561014f57600080fd5b50356106c2565b61015e6106d4565b6040805160208082528351818301528351919283929083019185019080838360005b83811015610198578181015183820152602001610180565b50505050905090810190601f1680156101c55780820380516001836020036101000a031916815260200191505b509250505060405180910390f35b610113600480360360808110156101e957600080fd5b508035906001600160a01b036020820135169060408101359060600135610762565b61011d6109c1565b6101136004803603608081101561022957600080fd5b508035906001600160a01b0360208201351690604081013590606001356109d0565b6101136004803603602081101561026157600080fd5b50356001600160a01b0316610b56565b610113600480360360a081101561028757600080fd5b8135916001600160a01b036020820135169160408201359160608101359181019060a081016080820135600160201b8111156102c257600080fd5b8201836020820111156102d457600080fd5b803590602001918460018302840111600160201b831117156102f557600080fd5b509092509050610dc3565b6100db6004803603606081101561031657600080fd5b508035906001600160a01b036020820135169060400135611014565b6101136004803603604081101561034857600080fd5b5080359060200135611043565b600061035f611706565b5060008481526006602090815260408083206001600160a01b03871684528252808320858452825291829020825180840190935280548352600101549082018190526103ea575060008481526006602090815260408083206001600160a01b03871684528252808320602d60f81b845282529182902082518084019093528054835260010154908201525b80518310156103fd576000915050610404565b6020015190505b9392505050565b60018054604080518082018252601981526000805160206117bc833981519152602080830191909152600080548451600261010098831615989098026000190190911696909604601f81018390048302870183019094528386526001600160a01b039094163314946104e09492939092918301828280156104cd5780601f106104a2576101008083540402835291602001916104cd565b820191906000526020600020905b8154815290600101906020018083116104b057829003601f168201915b505050505061114390919063ffffffff16565b906105695760405162461bcd60e51b81526004018080602001828103825283818151815260200191508051906020019080838360005b8381101561052e578181015183820152602001610516565b50505050905090810190601f16801561055b5780820380516001836020036101000a031916815260200191505b509250505060405180910390fd5b50604080518082018252601f8082527f3a206e6577206f776e657220697320746865207a65726f206164647265737300602080840191909152600080548551600260001961010060018516150201909216919091049384018390048302810183019095528285526001600160a01b03861615159461060a949390928301828280156104cd5780601f106104a2576101008083540402835291602001916104cd565b906106565760405162461bcd60e51b815260206004820181815283516024840152835190928392604490910191908501908083836000831561052e578181015183820152602001610516565b506001546040516001600160a01b038084169216907fb532073b38c83145e3e5135377a08bf9aab55bc0fd7c1179cd4fb995d2a5159c90600090a3600180546001600160a01b0319166001600160a01b0392909216919091179055565b6002546001600160a01b031681565b60009081526004602052604090205490565b6000805460408051602060026001851615610100026000190190941693909304601f8101849004840282018401909252818152929183018282801561075a5780601f1061072f5761010080835404028352916020019161075a565b820191906000526020600020905b81548152906001019060200180831161073d57829003601f168201915b505050505081565b60035460028054604080518082018252601481527301d1031b0b63632b91034b9903737ba103a3432960651b6020808301919091526000805484516101006001831615026000190190911696909604601f81018390048302870183019094528386526001600160a01b039094163314946108419492938793919283018282801561082d5780601f106108025761010080835404028352916020019161082d565b820191906000526020600020905b81548152906001019060200180831161081057829003601f168201915b50505050506111fe9092919063ffffffff16565b9061088d5760405162461bcd60e51b815260206004820181815283516024840152835190928392604490910191908501908083836000831561052e578181015183820152602001610516565b5060008581526005602090815260408083206001600160a01b038816845282528083208684529091529020541561090b576040805162461bcd60e51b815260206004820152601f60248201527f5265776172647353746f726167653a20616c726561647920636c61696d656400604482015290519081900360640190fd5b60008581526005602090815260408083206001600160a01b03881684528252808320868452909152902054610946908363ffffffff6112b716565b60008681526005602090815260408083206001600160a01b038916845280835281842088855283528184209490945582805292815282822086835290522054610995908363ffffffff6112b716565b600095865260056020908152604080882088805282528088209588529490529290942091909155505050565b6001546001600160a01b031681565b60035460028054604080518082018252601481527301d1031b0b63632b91034b9903737ba103a3432960651b6020808301919091526000805484516101006001831615026000190190911696909604601f81018390048302870183019094528386526001600160a01b03909416331494610a709492938793919283018282801561082d5780601f106108025761010080835404028352916020019161082d565b90610abc5760405162461bcd60e51b815260206004820181815283516024840152835190928392604490910191908501908083836000831561052e578181015183820152602001610516565b5060008581526006602090815260408083206001600160a01b03881684528252808320602d60f81b8452909152902060010154610b0e90869086908690610b09908763ffffffff6112b716565b61130f565b60008581526006602090815260408083208380528252808320602d60f81b8452909152812060010154610b4f9187918690610b09908763ffffffff6112b716565b5050505050565b60018054604080518082018252601981526000805160206117bc833981519152602080830191909152600080548451600261010098831615989098026000190190911696909604601f81018390048302870183019094528386526001600160a01b03909416331494610bed9492939092918301828280156104cd5780601f106104a2576101008083540402835291602001916104cd565b90610c395760405162461bcd60e51b815260206004820181815283516024840152835190928392604490910191908501908083836000831561052e578181015183820152602001610516565b50610c4381611448565b6040805180820190915260078082526653746f7261676560c81b6020909201918252610c7191600091611720565b5060025460408051631d74303760e21b81529051610da8926001600160a01b0316916375d0c0dc916004808301926000929190829003018186803b158015610cb857600080fd5b505afa158015610ccc573d6000803e3d6000fd5b505050506040513d6000823e601f3d908101601f191682016040526020811015610cf557600080fd5b8101908080516040519392919084600160201b821115610d1457600080fd5b908301906020820185811115610d2957600080fd5b8251600160201b811182820188101715610d4257600080fd5b82525081516020918201929091019080838360005b83811015610d6f578181015183820152602001610d57565b50505050905090810190601f168015610d9c5780820380516001836020036101000a031916815260200191505b50604052505050611663565b6003819055610dc0576636b0b730b3b2b960c91b6003555b50565b60035460028054604080518082018252601481527301d1031b0b63632b91034b9903737ba103a3432960651b6020808301919091526000805484516101006001831615026000190190911696909604601f81018390048302870183019094528386526001600160a01b03909416331494610e639492938793919283018282801561082d5780601f106108025761010080835404028352916020019161082d565b90610eaf5760405162461bcd60e51b815260206004820181815283516024840152835190928392604490910191908501908083836000831561052e578181015183820152602001610516565b50610f5d878787610b098888888080601f016020809104026020016040519081016040528093929190818152602001838380828437600081840152601f19601f82011690508083019250505050505050600660008f815260200190815260200160002060008e6001600160a01b03166001600160a01b031681526020019081526020016000206000602d60f81b81526020019081526020016000206001015461166a9092919063ffffffff16565b61100b87600087610b098888888080601f016020809104026020016040519081016040528093929190818152602001838380828437600081840152601f19601f82011690508083019250505050505050600660008f81526020019081526020016000206000806001600160a01b03166001600160a01b031681526020019081526020016000206000602d60f81b81526020019081526020016000206001015461166a9092919063ffffffff16565b50505050505050565b60009283526005602090815260408085206001600160a01b039490941685529281528284209184525290205490565b60035460028054604080518082018252601481527301d1031b0b63632b91034b9903737ba103a3432960651b6020808301919091526000805484516101006001831615026000190190911696909604601f81018390048302870183019094528386526001600160a01b039094163314946110e39492938793919283018282801561082d5780601f106108025761010080835404028352916020019161082d565b9061112f5760405162461bcd60e51b815260206004820181815283516024840152835190928392604490910191908501908083836000831561052e578181015183820152602001610516565b505060009182526004602052604090912055565b606082826040516020018083805190602001908083835b602083106111795780518252601f19909201916020918201910161115a565b51815160209384036101000a600019018019909216911617905285519190930192850191508083835b602083106111c15780518252601f1990920191602091820191016111a2565b6001836020036101000a03801982511681845116808217855250505050505090500192505050604051602081830303815290604052905092915050565b60608383836040516020018084805190602001908083835b602083106112355780518252601f199092019160209182019101611216565b51815160209384036101000a600019018019909216911617905286519190930192860191508083835b6020831061127d5780518252601f19909201916020918201910161125e565b51815160209384036101000a6000190180199092169116179052920193845250604080518085038152939091019052509695505050505050565b600082820183811015610404576040805162461bcd60e51b815260206004820152601b60248201527a536166654d6174683a206164646974696f6e206f766572666c6f7760281b604482015290519081900360640190fd5b60008481526006602090815260408083206001600160a01b03871684528252808320858452909152902060010154829015801561137c575060008581526006602090815260408083206001600160a01b03881684528252808320602d60f81b845290915290206001015415155b156113e85760008581526006602090815260408083206001600160a01b038816808552818452828520602d60f81b8652808552928520908552925290916113ca86600163ffffffff6116c416565b81526020810191909152604001600020815481556001918201549101555b60408051808201825293845260208085019384526000968752600681528187206001600160a01b039690961687529485528086209186529352828420915180835590516001928301908155602d60f81b8552929093209283559054910155565b60018054604080518082018252601981526000805160206117bc833981519152602080830191909152600080548451600261010098831615989098026000190190911696909604601f81018390048302870183019094528386526001600160a01b039094163314946114df9492939092918301828280156104cd5780601f106104a2576101008083540402835291602001916104cd565b9061152b5760405162461bcd60e51b815260206004820181815283516024840152835190928392604490910191908501908083836000831561052e578181015183820152602001610516565b5060006001600160a01b0316816001600160a01b031614156115ba6040518060600160405280602181526020016117dc602191396000805460408051602060026001851615610100026000190190941693909304601f810184900484028201840190925281815292918301828280156104cd5780601f106104a2576101008083540402835291602001916104cd565b906116065760405162461bcd60e51b815260206004820181815283516024840152835190928392604490910191908501908083836000831561052e578181015183820152602001610516565b506002546040516001600160a01b038084169216907f605c2dbf762e5f7d60a546d42e7205dcb1b011ebc62a61736a57c9089d3a435090600090a3600280546001600160a01b0319166001600160a01b0392909216919091179055565b6020015190565b600081848411156116bc5760405162461bcd60e51b815260206004820181815283516024840152835190928392604490910191908501908083836000831561052e578181015183820152602001610516565b505050900390565b600061040483836040518060400160405280601e81526020017f536166654d6174683a207375627472616374696f6e206f766572666c6f77000081525061166a565b604051806040016040528060008152602001600081525090565b828054600181600116156101000203166002900490600052602060002090601f016020900481019282601f1061176157805160ff191683800117855561178e565b8280016001018555821561178e579182015b8281111561178e578251825591602001919060010190611773565b5061179a92915061179e565b5090565b6117b891905b8082111561179a57600081556001016117a4565b9056fe3a2063616c6c6572206973206e6f7420746865206f776e6572000000000000003a206e6577206d616e6167657220697320746865207a65726f2061646472657373a265627a7a72315820d0e6a5a0972fa7f9be9a57aa1d02e964a10a79fb164d2d8671f879ece88945ef64736f6c634300051100323a206e6577206d616e6167657220697320746865207a65726f2061646472657373",
  "source": "pragma solidity ^0.5.17;\n\nimport './RewardsStorage.sol';\nimport '../interfaces/storages/IProviderStorage.sol';\n\ncontract ProviderStorage is RewardsStorage, IProviderStorage {\n    mapping(bytes32 => mapping(address => mapping(bytes32 => Locked))) private _storage;\n\n    constructor(address _manager) public RewardsStorage(_manager) {}\n\n    function incrementLocked(\n        bytes32 asset,\n        address account,\n        uint256 period,\n        uint256 amount\n    ) external onlyManager(managerName) {\n        _setLocked(asset, account, period, _storage[asset][account][DEFAULT].amount.add(amount));\n        _setLocked(asset, address(0), period, _storage[asset][address(0)][DEFAULT].amount.add(amount));\n    }\n\n    function decrementLocked(\n        bytes32 asset,\n        address account,\n        uint256 period,\n        uint256 amount,\n        string calldata errorMessage\n    ) external onlyManager(managerName) {\n        _setLocked(asset, account, period, _storage[asset][account][DEFAULT].amount.sub(amount, errorMessage));\n        _setLocked(asset, address(0), period, _storage[asset][address(0)][DEFAULT].amount.sub(amount, errorMessage));\n    }\n\n    function _setLocked(\n        bytes32 asset,\n        address account,\n        uint256 period,\n        uint256 amount\n    ) private {\n        bytes32 PERIOD = bytes32(period);\n        if (_storage[asset][account][PERIOD].amount == 0 && _storage[asset][account][DEFAULT].amount > 0)\n            _storage[asset][account][bytes32(period.sub(1))] = _storage[asset][account][DEFAULT];\n\n        _storage[asset][account][PERIOD] = Locked(period, amount);\n        _storage[asset][account][DEFAULT] = _storage[asset][account][PERIOD];\n    }\n\n    function getLocked(\n        bytes32 asset,\n        address account,\n        uint256 period\n    ) external view returns (uint256) {\n        Locked memory locked = _storage[asset][account][bytes32(period)];\n        if (locked.amount == 0) locked = _storage[asset][account][DEFAULT];\n        if (locked.period > period) return 0;\n        return locked.amount;\n    }\n}\n",
  "sourcePath": "/Users/sun/go/src/github.com/Dipper-Labs/DIPSYN/contracts/storages/ProviderStorage.sol",
  "compiler": {
    "name": "solc",
    "version": "0.5.17+commit.d19bba13.Emscripten.clang"
  },
  "schemaVersion": "3.3.4",
  "updatedAt": "2021-04-21T06:45:45.936Z",
  "networkType": "ethereum",
  "devdoc": {
    "methods": {}
  },
  "userdoc": {
    "methods": {}
  }
}