{
  "contractName": "Provider",
  "abi": [
    {
      "inputs": [
        {
          "internalType": "contract IResolver",
          "name": "_resolver",
          "type": "address"
        }
      ],
      "payable": false,
      "stateMutability": "nonpayable",
      "type": "constructor"
    },
    {
      "anonymous": false,
      "inputs": [
        {
          "indexed": true,
          "internalType": "address",
          "name": "previousValue",
          "type": "address"
        },
        {
          "indexed": true,
          "internalType": "address",
          "name": "newValue",
          "type": "address"
        }
      ],
      "name": "ManagerChanged",
      "type": "event"
    },
    {
      "anonymous": false,
      "inputs": [
        {
          "indexed": true,
          "internalType": "address",
          "name": "previousValue",
          "type": "address"
        },
        {
          "indexed": true,
          "internalType": "address",
          "name": "newValue",
          "type": "address"
        }
      ],
      "name": "OwnerChanged",
      "type": "event"
    },
    {
      "anonymous": false,
      "inputs": [
        {
          "indexed": true,
          "internalType": "bytes32",
          "name": "asset",
          "type": "bytes32"
        },
        {
          "indexed": false,
          "internalType": "uint256",
          "name": "previousValue",
          "type": "uint256"
        },
        {
          "indexed": false,
          "internalType": "uint256",
          "name": "newValue",
          "type": "uint256"
        }
      ],
      "name": "RewardPercentageChanged",
      "type": "event"
    },
    {
      "anonymous": false,
      "inputs": [
        {
          "indexed": true,
          "internalType": "address",
          "name": "previousValue",
          "type": "address"
        },
        {
          "indexed": true,
          "internalType": "address",
          "name": "newValue",
          "type": "address"
        }
      ],
      "name": "StorageChanged",
      "type": "event"
    },
    {
      "constant": false,
      "inputs": [
        {
          "internalType": "bytes32",
          "name": "name",
          "type": "bytes32"
        }
      ],
      "name": "addAddress",
      "outputs": [],
      "payable": false,
      "stateMutability": "nonpayable",
      "type": "function"
    },
    {
      "constant": true,
      "inputs": [],
      "name": "contractName",
      "outputs": [
        {
          "internalType": "string",
          "name": "",
          "type": "string"
        }
      ],
      "payable": false,
      "stateMutability": "view",
      "type": "function"
    },
    {
      "constant": true,
      "inputs": [
        {
          "internalType": "bytes32",
          "name": "name",
          "type": "bytes32"
        }
      ],
      "name": "getAddress",
      "outputs": [
        {
          "internalType": "address",
          "name": "",
          "type": "address"
        }
      ],
      "payable": false,
      "stateMutability": "view",
      "type": "function"
    },
    {
      "constant": true,
      "inputs": [
        {
          "internalType": "bytes32",
          "name": "asset",
          "type": "bytes32"
        },
        {
          "internalType": "address",
          "name": "account",
          "type": "address"
        },
        {
          "internalType": "uint256",
          "name": "period",
          "type": "uint256"
        }
      ],
      "name": "getClaimed",
      "outputs": [
        {
          "internalType": "uint256",
          "name": "",
          "type": "uint256"
        }
      ],
      "payable": false,
      "stateMutability": "view",
      "type": "function"
    },
    {
      "constant": true,
      "inputs": [],
      "name": "getImports",
      "outputs": [
        {
          "internalType": "bytes32[]",
          "name": "",
          "type": "bytes32[]"
        }
      ],
      "payable": false,
      "stateMutability": "view",
      "type": "function"
    },
    {
      "constant": true,
      "inputs": [
        {
          "internalType": "bytes32",
          "name": "asset",
          "type": "bytes32"
        }
      ],
      "name": "getRewardPercentage",
      "outputs": [
        {
          "internalType": "uint256",
          "name": "",
          "type": "uint256"
        }
      ],
      "payable": false,
      "stateMutability": "view",
      "type": "function"
    },
    {
      "constant": true,
      "inputs": [],
      "name": "getStorage",
      "outputs": [
        {
          "internalType": "address",
          "name": "",
          "type": "address"
        }
      ],
      "payable": false,
      "stateMutability": "view",
      "type": "function"
    },
    {
      "constant": true,
      "inputs": [],
      "name": "manager",
      "outputs": [
        {
          "internalType": "address",
          "name": "",
          "type": "address"
        }
      ],
      "payable": false,
      "stateMutability": "view",
      "type": "function"
    },
    {
      "constant": true,
      "inputs": [],
      "name": "owner",
      "outputs": [
        {
          "internalType": "address",
          "name": "",
          "type": "address"
        }
      ],
      "payable": false,
      "stateMutability": "view",
      "type": "function"
    },
    {
      "constant": false,
      "inputs": [],
      "name": "refreshCache",
      "outputs": [],
      "payable": false,
      "stateMutability": "nonpayable",
      "type": "function"
    },
    {
      "constant": true,
      "inputs": [],
      "name": "resolver",
      "outputs": [
        {
          "internalType": "contract IResolver",
          "name": "",
          "type": "address"
        }
      ],
      "payable": false,
      "stateMutability": "view",
      "type": "function"
    },
    {
      "constant": false,
      "inputs": [
        {
          "internalType": "address",
          "name": "_manager",
          "type": "address"
        }
      ],
      "name": "setManager",
      "outputs": [],
      "payable": false,
      "stateMutability": "nonpayable",
      "type": "function"
    },
    {
      "constant": false,
      "inputs": [
        {
          "internalType": "address",
          "name": "_owner",
          "type": "address"
        }
      ],
      "name": "setOwner",
      "outputs": [],
      "payable": false,
      "stateMutability": "nonpayable",
      "type": "function"
    },
    {
      "constant": false,
      "inputs": [
        {
          "internalType": "bytes32",
          "name": "asset",
          "type": "bytes32"
        },
        {
          "internalType": "uint256",
          "name": "percentage",
          "type": "uint256"
        }
      ],
      "name": "setRewardPercentage",
      "outputs": [],
      "payable": false,
      "stateMutability": "nonpayable",
      "type": "function"
    },
    {
      "constant": false,
      "inputs": [
        {
          "internalType": "address",
          "name": "value",
          "type": "address"
        }
      ],
      "name": "setStorage",
      "outputs": [],
      "payable": false,
      "stateMutability": "nonpayable",
      "type": "function"
    },
    {
      "constant": false,
      "inputs": [
        {
          "internalType": "bytes32",
          "name": "asset",
          "type": "bytes32"
        },
        {
          "internalType": "address",
          "name": "account",
          "type": "address"
        },
        {
          "internalType": "uint256",
          "name": "amount",
          "type": "uint256"
        }
      ],
      "name": "lock",
      "outputs": [],
      "payable": false,
      "stateMutability": "nonpayable",
      "type": "function"
    },
    {
      "constant": false,
      "inputs": [
        {
          "internalType": "bytes32",
          "name": "asset",
          "type": "bytes32"
        },
        {
          "internalType": "address",
          "name": "account",
          "type": "address"
        },
        {
          "internalType": "uint256",
          "name": "amount",
          "type": "uint256"
        }
      ],
      "name": "unlock",
      "outputs": [],
      "payable": false,
      "stateMutability": "nonpayable",
      "type": "function"
    },
    {
      "constant": true,
      "inputs": [
        {
          "internalType": "bytes32",
          "name": "asset",
          "type": "bytes32"
        },
        {
          "internalType": "address",
          "name": "account",
          "type": "address"
        }
      ],
      "name": "getLocked",
      "outputs": [
        {
          "internalType": "uint256",
          "name": "",
          "type": "uint256"
        }
      ],
      "payable": false,
      "stateMutability": "view",
      "type": "function"
    },
    {
      "constant": true,
      "inputs": [
        {
          "internalType": "bytes32",
          "name": "asset",
          "type": "bytes32"
        }
      ],
      "name": "getTotalLocked",
      "outputs": [
        {
          "internalType": "uint256",
          "name": "",
          "type": "uint256"
        }
      ],
      "payable": false,
      "stateMutability": "view",
      "type": "function"
    },
    {
      "constant": true,
      "inputs": [
        {
          "internalType": "bytes32",
          "name": "asset",
          "type": "bytes32"
        },
        {
          "internalType": "address",
          "name": "account",
          "type": "address"
        },
        {
          "internalType": "uint256",
          "name": "period",
          "type": "uint256"
        }
      ],
      "name": "getPeriodLocked",
      "outputs": [
        {
          "internalType": "uint256",
          "name": "",
          "type": "uint256"
        }
      ],
      "payable": false,
      "stateMutability": "view",
      "type": "function"
    },
    {
      "constant": false,
      "inputs": [
        {
          "internalType": "bytes32",
          "name": "asset",
          "type": "bytes32"
        },
        {
          "internalType": "address",
          "name": "account",
          "type": "address"
        }
      ],
      "name": "claim",
      "outputs": [
        {
          "internalType": "uint256",
          "name": "period",
          "type": "uint256"
        },
        {
          "internalType": "uint256",
          "name": "amount",
          "type": "uint256"
        },
        {
          "internalType": "uint256",
          "name": "vestTime",
          "type": "uint256"
        }
      ],
      "payable": false,
      "stateMutability": "nonpayable",
      "type": "function"
    },
    {
      "constant": true,
      "inputs": [
        {
          "internalType": "bytes32",
          "name": "asset",
          "type": "bytes32"
        },
        {
          "internalType": "address",
          "name": "account",
          "type": "address"
        }
      ],
      "name": "getClaimable",
      "outputs": [
        {
          "internalType": "uint256",
          "name": "",
          "type": "uint256"
        }
      ],
      "payable": false,
      "stateMutability": "view",
      "type": "function"
    }
  ],
  "bytecode": "0x60806040523480156200001157600080fd5b506040516200294638038062002946833981810160405260208110156200003757600080fd5b505160018054336001600160a01b03199182168117909255600280548216909217909155600380549091166001600160a01b0383161790556200008567283937bb34b232b960c11b620000dd565b6040518060600160405280650a6f2dce8d0f60d31b81526020016d537570706c795363686564756c6560901b815260200165457363726f7760d01b8152506004906003620000d59291906200010e565b5050620001f0565b60408051602080820184905282518083038201815291830190925280516200010a9260009201906200015e565b5050565b8280548282559060005260206000209081019282156200014c579160200282015b828111156200014c5782518255916020019190600101906200012f565b506200015a929150620001d0565b5090565b828054600181600116156101000203166002900490600052602060002090601f016020900481019282601f10620001a157805160ff19168380011785556200014c565b828001600101855582156200014c57918201828111156200014c5782518255916020019190600101906200012f565b620001ed91905b808211156200015a5760008155600101620001d7565b90565b61274680620002006000396000f3fe608060405234801561001057600080fd5b50600436106101125760003560e01c806304f3bcec146101175780630899146b1461013b578063126779c21461016f57806313af4035146101c757806321f8a721146101ed5780632e7b54741461020a5780633408f73a146102485780634176bf3414610250578063481c6a75146102825780636a46d4d11461028a5780636dea30e7146102a75780636f5531c5146102d957806375d0c0dc146103055780638aed3c32146103825780638da5cb5b1461039f5780639137c1a7146103a757806396c144f0146103cd578063a3a4f74814610417578063d0ebdbe714610434578063d5c2c8ca1461045a578063f0f99b5414610462578063f58bed0414610494575b600080fd5b61011f6104b7565b604080516001600160a01b039092168252519081900360200190f35b61016d6004803603606081101561015157600080fd5b508035906001600160a01b0360208201351690604001356104c6565b005b6101776106e5565b60408051602080825283518183015283519192839290830191858101910280838360005b838110156101b357818101518382015260200161019b565b505050509050019250505060405180910390f35b61016d600480360360208110156101dd57600080fd5b50356001600160a01b031661073d565b61011f6004803603602081101561020357600080fd5b50356109a8565b6102366004803603604081101561022057600080fd5b50803590602001356001600160a01b03166109c6565b60408051918252519081900360200190f35b61011f610a71565b6102366004803603606081101561026657600080fd5b508035906001600160a01b036020820135169060400135610b67565b61011f610c0c565b610236600480360360208110156102a057600080fd5b5035610c1b565b61016d600480360360608110156102bd57600080fd5b508035906001600160a01b036020820135169060400135610c9a565b610236600480360360408110156102ef57600080fd5b50803590602001356001600160a01b0316610e3b565b61030d61105f565b6040805160208082528351818301528351919283929083019185019080838360005b8381101561034757818101518382015260200161032f565b50505050905090810190601f1680156103745780820380516001836020036101000a031916815260200191505b509250505060405180910390f35b61016d6004803603602081101561039857600080fd5b50356110ed565b61011f6112a6565b61016d600480360360208110156103bd57600080fd5b50356001600160a01b03166112b5565b6103f9600480360360408110156103e357600080fd5b50803590602001356001600160a01b03166113f5565b60408051938452602084019290925282820152519081900360600190f35b6102366004803603602081101561042d57600080fd5b5035611624565b61016d6004803603602081101561044a57600080fd5b50356001600160a01b031661169b565b61016d6118b6565b6102366004803603606081101561047857600080fd5b508035906001600160a01b036020820135169060400135611a6f565b61016d600480360360408110156104aa57600080fd5b5080359060200135611ade565b6003546001600160a01b031681565b650a6f2dce8d0f60d31b6000818152600560209081526000805160206126ab83398151915254604080518082018252601481527301d1031b0b63632b91034b9903737ba103a3432960651b818501528454825160026101006001841615026000190190921691909104601f81018690048602820186019093528281526001600160a01b039093163314946105bf949193879390928301828280156105ab5780601f10610580576101008083540402835291602001916105ab565b820191906000526020600020905b81548152906001019060200180831161058e57829003601f168201915b5050505050611e509092919063ffffffff16565b906106485760405162461bcd60e51b81526004018080602001828103825283818151815260200191508051906020019080838360005b8381101561060d5781810151838201526020016105f5565b50505050905090810190601f16801561063a5780820380516001836020036101000a031916815260200191505b509250505060405180910390fd5b50610651611f09565b6001600160a01b031663c90aed2f8585610669611f18565b866040518563ffffffff1660e01b815260040180858152602001846001600160a01b03166001600160a01b03168152602001838152602001828152602001945050505050600060405180830381600087803b1580156106c757600080fd5b505af11580156106db573d6000803e3d6000fd5b5050505050505050565b6060600480548060200260200160405190810160405280929190818152602001828054801561073357602002820191906000526020600020905b81548152602001906001019080831161071f575b5050505050905090565b6001805460408051808201825260198152600080516020612637833981519152602080830191909152600080548451600261010098831615989098026000190190911696909604601f81018390048302870183019094528386526001600160a01b039094163314946108129492939092918301828280156107ff5780601f106107d4576101008083540402835291602001916107ff565b820191906000526020600020905b8154815290600101906020018083116107e257829003601f168201915b5050505050611f8b90919063ffffffff16565b9061085e5760405162461bcd60e51b815260206004820181815283516024840152835190928392604490910191908501908083836000831561060d5781810151838201526020016105f5565b50604080518082018252601f8082527f3a206e6577206f776e657220697320746865207a65726f206164647265737300602080840191909152600080548551600260001961010060018516150201909216919091049384018390048302810183019095528285526001600160a01b0386161515946108ff949390928301828280156107ff5780601f106107d4576101008083540402835291602001916107ff565b9061094b5760405162461bcd60e51b815260206004820181815283516024840152835190928392604490910191908501908083836000831561060d5781810151838201526020016105f5565b506001546040516001600160a01b038084169216907fb532073b38c83145e3e5135377a08bf9aab55bc0fd7c1179cd4fb995d2a5159c90600090a3600180546001600160a01b0319166001600160a01b0392909216919091179055565b6000818152600560205260409020546001600160a01b03165b919050565b60006109d0611f09565b6001600160a01b031663048a8b2384846109e8611f18565b6040518463ffffffff1660e01b815260040180848152602001836001600160a01b03166001600160a01b03168152602001828152602001935050505060206040518083038186803b158015610a3c57600080fd5b505afa158015610a50573d6000803e3d6000fd5b505050506040513d6020811015610a6657600080fd5b505190505b92915050565b60065460408051808201825260118152700e8814dd1bdc9859d9481b9bdd081cd95d607a1b60208083019190915260008054845160026101006001841615026000190190921691909104601f810184900484028201840190955284815290946001600160a01b0316151593610b0a93928691908301828280156107ff5780601f106107d4576101008083540402835291602001916107ff565b90610b565760405162461bcd60e51b815260206004820181815283516024840152835190928392604490910191908501908083836000831561060d5781810151838201526020016105f5565b50506006546001600160a01b031690565b6000610b71611f09565b6001600160a01b031663048a8b238585856040518463ffffffff1660e01b815260040180848152602001836001600160a01b03166001600160a01b03168152602001828152602001935050505060206040518083038186803b158015610bd657600080fd5b505afa158015610bea573d6000803e3d6000fd5b505050506040513d6020811015610c0057600080fd5b505190505b9392505050565b6002546001600160a01b031681565b6000610c25611f09565b6001600160a01b0316636a46d4d1836040518263ffffffff1660e01b81526004018082815260200191505060206040518083038186803b158015610c6857600080fd5b505afa158015610c7c573d6000803e3d6000fd5b505050506040513d6020811015610c9257600080fd5b505192915050565b650a6f2dce8d0f60d31b6000818152600560209081526000805160206126ab83398151915254604080518082018252601481527301d1031b0b63632b91034b9903737ba103a3432960651b818501528454825160026101006001841615026000190190921691909104601f81018690048602820186019093528281526001600160a01b03909316331494610d54949193879390928301828280156105ab5780601f10610580576101008083540402835291602001916105ab565b90610da05760405162461bcd60e51b815260206004820181815283516024840152835190928392604490910191908501908083836000831561060d5781810151838201526020016105f5565b50610da9611f09565b6001600160a01b031663f0c5ec8c8585610dc1611f18565b866040518563ffffffff1660e01b815260040180858152602001846001600160a01b03166001600160a01b0316815260200183815260200182815260200180602001828103825260268152602001806126ec6026913960400195505050505050600060405180830381600087803b1580156106c757600080fd5b600080610e4784610c1b565b905060008111610e9e576040805162461bcd60e51b815260206004820152601d60248201527f50726f76696465723a206173736574206e6f7420737570706f72746564000000604482015290519081900360640190fd5b6000610eb467283937bb34b232b960c11b612046565b905080610ec657600092505050610a6b565b6000610ed0612155565b90506000610edf878784611a6f565b1115610ef15760009350505050610a6b565b6000610efb611f09565b6040805163048a8b2360e01b8152600481018a9052600060248201526044810185905290516001600160a01b03929092169163048a8b2391606480820192602092909190829003018186803b158015610f5357600080fd5b505afa158015610f67573d6000803e3d6000fd5b505050506040513d6020811015610f7d57600080fd5b505190506000610f8b611f09565b6001600160a01b031663048a8b238989866040518463ffffffff1660e01b815260040180848152602001836001600160a01b03166001600160a01b03168152602001828152602001935050505060206040518083038186803b158015610ff057600080fd5b505afa158015611004573d6000803e3d6000fd5b505050506040513d602081101561101a57600080fd5b505190506000611030828463ffffffff6121ea16565b905061105281611046878963ffffffff6121ff16565b9063ffffffff6121ff16565b9998505050505050505050565b6000805460408051602060026001851615610100026000190190941693909304601f810184900484028201840190925281815292918301828280156110e55780601f106110ba576101008083540402835291602001916110e5565b820191906000526020600020905b8154815290600101906020018083116110c857829003601f168201915b505050505081565b6001805460408051808201825260198152600080516020612637833981519152602080830191909152600080548451600261010098831615989098026000190190911696909604601f81018390048302870183019094528386526001600160a01b039094163314946111849492939092918301828280156107ff5780601f106107d4576101008083540402835291602001916107ff565b906111d05760405162461bcd60e51b815260206004820181815283516024840152835190928392604490910191908501908083836000831561060d5781810151838201526020016105f5565b50600354604080516321f8a72160e01b81526004810184905290516001600160a01b03909216916321f8a72191602480820192602092909190829003018186803b15801561121d57600080fd5b505afa158015611231573d6000803e3d6000fd5b505050506040513d602081101561124757600080fd5b5051600082815260056020526040812080546001600160a01b0319166001600160a01b03909316929092179091556004805460018101825591527f8a35acfbc15ff81a39ae7d344fd709f28e8600b4aa8c65c6b64bfe7fe36bd19b0155565b6001546001600160a01b031681565b6001805460408051808201825260198152600080516020612637833981519152602080830191909152600080548451600261010098831615989098026000190190911696909604601f81018390048302870183019094528386526001600160a01b0390941633149461134c9492939092918301828280156107ff5780601f106107d4576101008083540402835291602001916107ff565b906113985760405162461bcd60e51b815260206004820181815283516024840152835190928392604490910191908501908083836000831561060d5781810151838201526020016105f5565b506006546040516001600160a01b038084169216907f85a70e3ed8a3924b3769cbe4e925987bbd40e8cea31487cbe13bee7b727310a490600090a3600680546001600160a01b0319166001600160a01b0392909216919091179055565b650a6f2dce8d0f60d31b6000818152600560209081526000805160206126ab83398151915254604080518082018252601481527301d1031b0b63632b91034b9903737ba103a3432960651b818501528454825160026101006001841615026000190190921691909104601f810186900486028201860190935282815294958695869591946001600160a01b03163314936114b5939286929188918301828280156105ab5780601f10610580576101008083540402835291602001916105ab565b906115015760405162461bcd60e51b815260206004820181815283516024840152835190928392604490910191908501908083836000831561060d5781810151838201526020016105f5565b50600061150e8787610e3b565b905060008111611563576040805162461bcd60e51b815260206004820152601b60248201527a50726f76696465723a20636c61696d61626c65206973207a65726f60281b604482015290519081900360640190fd5b600061156d612155565b905061157b88888385612214565b61158361228b565b6001600160a01b031663bc157ac18289856040518463ffffffff1660e01b815260040180848152602001836001600160a01b03166001600160a01b031681526020018281526020019350505050602060405180830381600087803b1580156115ea57600080fd5b505af11580156115fe573d6000803e3d6000fd5b505050506040513d602081101561161457600080fd5b5051909891975095509350505050565b600061162e611f09565b6001600160a01b031663048a8b23836000611647611f18565b6040518463ffffffff1660e01b815260040180848152602001836001600160a01b03166001600160a01b03168152602001828152602001935050505060206040518083038186803b158015610c6857600080fd5b6001805460408051808201825260198152600080516020612637833981519152602080830191909152600080548451600261010098831615989098026000190190911696909604601f81018390048302870183019094528386526001600160a01b039094163314946117329492939092918301828280156107ff5780601f106107d4576101008083540402835291602001916107ff565b9061177e5760405162461bcd60e51b815260206004820181815283516024840152835190928392604490910191908501908083836000831561060d5781810151838201526020016105f5565b5060006001600160a01b0316816001600160a01b0316141561180d60405180606001604052806021815260200161268a602191396000805460408051602060026001851615610100026000190190941693909304601f810184900484028201840190925281815292918301828280156107ff5780601f106107d4576101008083540402835291602001916107ff565b906118595760405162461bcd60e51b815260206004820181815283516024840152835190928392604490910191908501908083836000831561060d5781810151838201526020016105f5565b506002546040516001600160a01b038084169216907f605c2dbf762e5f7d60a546d42e7205dcb1b011ebc62a61736a57c9089d3a435090600090a3600280546001600160a01b0319166001600160a01b0392909216919091179055565b6001805460408051808201825260198152600080516020612637833981519152602080830191909152600080548451600261010098831615989098026000190190911696909604601f81018390048302870183019094528386526001600160a01b0390941633149461194d9492939092918301828280156107ff5780601f106107d4576101008083540402835291602001916107ff565b906119995760405162461bcd60e51b815260206004820181815283516024840152835190928392604490910191908501908083836000831561060d5781810151838201526020016105f5565b5060005b600454811015611a6c576000600482815481106119b657fe5b60009182526020918290200154600354604080516321f8a72160e01b81526004810184905290519294506001600160a01b03909116926321f8a72192602480840193829003018186803b158015611a0c57600080fd5b505afa158015611a20573d6000803e3d6000fd5b505050506040513d6020811015611a3657600080fd5b505160009182526005602052604090912080546001600160a01b0319166001600160a01b0390921691909117905560010161199d565b50565b6000611a79611f09565b6001600160a01b031663f0f99b548585856040518463ffffffff1660e01b815260040180848152602001836001600160a01b03166001600160a01b03168152602001828152602001935050505060206040518083038186803b158015610bd657600080fd5b6001805460408051808201825260198152600080516020612637833981519152602080830191909152600080548451600261010098831615989098026000190190911696909604601f81018390048302870183019094528386526001600160a01b03909416331494611b759492939092918301828280156107ff5780601f106107d4576101008083540402835291602001916107ff565b90611bc15760405162461bcd60e51b815260206004820181815283516024840152835190928392604490910191908501908083836000831561060d5781810151838201526020016105f5565b506000611bcc611f09565b6001600160a01b0316636a46d4d164151bdd185b60da1b6040518263ffffffff1660e01b81526004018082815260200191505060206040518083038186803b158015611c1757600080fd5b505afa158015611c2b573d6000803e3d6000fd5b505050506040513d6020811015611c4157600080fd5b505190506000611c4f611f09565b6001600160a01b0316636a46d4d1856040518263ffffffff1660e01b81526004018082815260200191505060206040518083038186803b158015611c9257600080fd5b505afa158015611ca6573d6000803e3d6000fd5b505050506040513d6020811015611cbc57600080fd5b505190506000611ce284611cd6858563ffffffff61229f16565b9063ffffffff6122e116565b9050611cec612339565b811115611d2a5760405162461bcd60e51b81526004018080602001828103825260338152602001806126576033913960400191505060405180910390fd5b611d32611f09565b6001600160a01b031663f58bed0486866040518363ffffffff1660e01b81526004018083815260200182815260200192505050600060405180830381600087803b158015611d7f57600080fd5b505af1158015611d93573d6000803e3d6000fd5b50505050611d9f611f09565b6001600160a01b031663f58bed0464151bdd185b60da1b836040518363ffffffff1660e01b81526004018083815260200182815260200192505050600060405180830381600087803b158015611df457600080fd5b505af1158015611e08573d6000803e3d6000fd5b5050604080518581526020810188905281518994507feb1f8e19a3e5a8c01411c85a9778a20d61d45a82de2076dcc92a5a2b19c6821793509081900390910190a25050505050565b60608383836040516020018084805190602001908083835b60208310611e875780518252601f199092019160209182019101611e68565b51815160209384036101000a600019018019909216911617905286519190930192860191508083835b60208310611ecf5780518252601f199092019160209182019101611eb0565b51815160209384036101000a6000190180199092169116179052920193845250604080518085038152939091019052509695505050505050565b6000611f13610a71565b905090565b6000611f22612345565b6001600160a01b031663060406186040518163ffffffff1660e01b815260040160206040518083038186803b158015611f5a57600080fd5b505afa158015611f6e573d6000803e3d6000fd5b505050506040513d6020811015611f8457600080fd5b5051905090565b606082826040516020018083805190602001908083835b60208310611fc15780518252601f199092019160209182019101611fa2565b51815160209384036101000a600019018019909216911617905285519190930192850191508083835b602083106120095780518252601f199092019160209182019101611fea565b6001836020036101000a03801982511681845116808217855250505050505090500192505050604051602081830303815290604052905092915050565b6000612050612345565b6001600160a01b0316638c4e8c216040518163ffffffff1660e01b815260040160206040518083038186803b15801561208857600080fd5b505afa15801561209c573d6000803e3d6000fd5b505050506040513d60208110156120b257600080fd5b50514211156120c3575060006109c1565b60006120cd612155565b90506120d7612345565b6001600160a01b031663dcba23ce84836040518363ffffffff1660e01b8152600401808381526020018281526020019250505060206040518083038186803b15801561212257600080fd5b505afa158015612136573d6000803e3d6000fd5b505050506040513d602081101561214c57600080fd5b50519392505050565b600080612160612345565b6001600160a01b031663559c52356040518163ffffffff1660e01b815260040160206040518083038186803b15801561219857600080fd5b505afa1580156121ac573d6000803e3d6000fd5b505050506040513d60208110156121c257600080fd5b5051905080156121e2576121dd81600163ffffffff61229f16565b6121e4565b805b91505090565b6000610c058383670de0b6b3a7640000612361565b6000610c058383670de0b6b3a76400006123a3565b61221c611f09565b6001600160a01b031663771c5c53858585856040518563ffffffff1660e01b815260040180858152602001846001600160a01b03166001600160a01b03168152602001838152602001828152602001945050505050600060405180830381600087803b1580156106c757600080fd5b6000611f1365457363726f7760d01b6123de565b6000610c0583836040518060400160405280601e81526020017f536166654d6174683a207375627472616374696f6e206f766572666c6f7700008152506124e4565b600082820183811015610c05576040805162461bcd60e51b815260206004820152601b60248201527a536166654d6174683a206164646974696f6e206f766572666c6f7760281b604482015290519081900360640190fd5b670de0b6b3a764000090565b6000611f136d537570706c795363686564756c6560901b6123de565b600083158061236e575082155b1561237b57506000610c05565b61239b8361238f868563ffffffff61253e16565b9063ffffffff61259716565b949350505050565b60008315806123b0575082155b156123bd57506000610c05565b816123ce858563ffffffff61253e16565b816123d557fe5b04949350505050565b60008181526005602090815260408083205481518083018352600a81526901d1026b4b9b9b4b733960b51b818501528454835160026101006001841615026000190190921691909104601f81018690048602820186019094528381526001600160a01b0390921615159361247b939192879290918791908301828280156105ab5780601f10610580576101008083540402835291602001916105ab565b906124c75760405162461bcd60e51b815260206004820181815283516024840152835190928392604490910191908501908083836000831561060d5781810151838201526020016105f5565b50506000908152600560205260409020546001600160a01b031690565b600081848411156125365760405162461bcd60e51b815260206004820181815283516024840152835190928392604490910191908501908083836000831561060d5781810151838201526020016105f5565b505050900390565b60008261254d57506000610a6b565b8282028284828161255a57fe5b0414610c055760405162461bcd60e51b81526004018080602001828103825260218152602001806126cb6021913960400191505060405180910390fd5b6000610c0583836040518060400160405280601a815260200179536166654d6174683a206469766973696f6e206279207a65726f60301b815250600081836126205760405162461bcd60e51b815260206004820181815283516024840152835190928392604490910191908501908083836000831561060d5781810151838201526020016105f5565b50600083858161262c57fe5b049594505050505056fe3a2063616c6c6572206973206e6f7420746865206f776e657200000000000000526577617264733a20746f74616c2070657263656e74206d757374206265206e6f2067726561746572207468616e20313030253a206e6577206d616e6167657220697320746865207a65726f2061646472657373f420db0c49eb249cd6dd94b6b96dabd210919bd87c94ecc5fec4a9e1c9775ad5536166654d6174683a206d756c7469706c69636174696f6e206f766572666c6f7750726f76696465723a20756e6c6f636b20616d6f756e742065786365656473206c6f636b6564a265627a7a72315820ca94b9869e4ba6fb9a18209abca9af9ab83af75ac6b06ea19f7250b000eac22964736f6c63430005110032",
  "source": "// SPDX-License-Identifier: MIT\npragma solidity ^0.5.17;\n\nimport './lib/SafeERC20.sol';\nimport './base/Rewards.sol';\nimport './interfaces/IProvider.sol';\nimport './interfaces/storages/IProviderStorage.sol';\nimport './interfaces/IEscrow.sol';\n\ncontract Provider is Rewards, IProvider {\n    constructor(IResolver _resolver) public Importable(_resolver) {\n        setContractName(CONTRACT_PROVIDER);\n        imports = [CONTRACT_SYNTHX, CONTRACT_SUPPLY_SCHEDULE, CONTRACT_ESCROW];\n    }\n\n    function Storage() private view returns (IProviderStorage) {\n        return IProviderStorage(getStorage());\n    }\n\n    function Escrow() private view returns (IEscrow) {\n        return IEscrow(requireAddress(CONTRACT_ESCROW));\n    }\n\n    function lock(\n        bytes32 asset,\n        address account,\n        uint256 amount\n    ) external onlyAddress(CONTRACT_SYNTHX) {\n        Storage().incrementLocked(asset, account, getCurrentPeriod(), amount);\n    }\n\n    function unlock(\n        bytes32 asset,\n        address account,\n        uint256 amount\n    ) external onlyAddress(CONTRACT_SYNTHX) {\n        Storage().decrementLocked(asset, account, getCurrentPeriod(), amount, 'Provider: unlock amount exceeds locked');\n    }\n\n    function getLocked(bytes32 asset, address account) external view returns (uint256) {\n        return Storage().getLocked(asset, account, getCurrentPeriod());\n    }\n\n    function getTotalLocked(bytes32 asset) external view returns (uint256) {\n        return Storage().getLocked(asset, address(0), getCurrentPeriod());\n    }\n\n    function getPeriodLocked(\n        bytes32 asset,\n        address account,\n        uint256 period\n    ) external view returns (uint256) {\n        return Storage().getLocked(asset, account, period);\n    }\n\n    function claim(bytes32 asset, address account)\n        external\n        onlyAddress(CONTRACT_SYNTHX)\n        returns (\n            uint256 period,\n            uint256 amount,\n            uint256 vestTime\n        )\n    {\n        uint256 claimable = getClaimable(asset, account);\n        require(claimable > 0, 'Provider: claimable is zero');\n\n        uint256 claimablePeriod = getClaimablePeriod();\n        setClaimed(asset, account, claimablePeriod, claimable);\n\n        vestTime = Escrow().deposit(claimablePeriod, account, claimable);\n        return (claimablePeriod, claimable, vestTime);\n    }\n\n    function getClaimable(bytes32 asset, address account) public view returns (uint256) {\n        uint256 rewardPercentage = getRewardPercentage(asset);\n        require(rewardPercentage > 0, 'Provider: asset not supported');\n\n        uint256 rewards = getRewardSupply(CONTRACT_PROVIDER);\n        if (rewards == 0) return 0;\n\n        uint256 claimablePeriod = getClaimablePeriod();\n        if (getClaimed(asset, account, claimablePeriod) > 0) return 0;\n\n        uint256 totalLocked = Storage().getLocked(asset, address(0), claimablePeriod);\n        uint256 accountLocked = Storage().getLocked(asset, account, claimablePeriod);\n        uint256 percentage = accountLocked.decimalDivide(totalLocked);\n        return rewards.decimalMultiply(rewardPercentage).decimalMultiply(percentage);\n    }\n}\n",
  "sourcePath": "/Users/sun/go/src/github.com/Dipper-Labs/DIPSYN/contracts/Provider.sol",
  "compiler": {
    "name": "solc",
    "version": "0.5.17+commit.d19bba13.Emscripten.clang"
  },
  "schemaVersion": "3.3.4",
  "updatedAt": "2021-04-21T04:08:13.987Z",
  "devdoc": {
    "methods": {}
  },
  "userdoc": {
    "methods": {}
  }
}