{
  "contractName": "Proxy",
  "abi": [
    {
      "inputs": [
        {
          "internalType": "address",
          "name": "target",
          "type": "address"
        }
      ],
      "payable": false,
      "stateMutability": "nonpayable",
      "type": "constructor"
    },
    {
      "anonymous": false,
      "inputs": [
        {
          "indexed": true,
          "internalType": "address",
          "name": "previousValue",
          "type": "address"
        },
        {
          "indexed": true,
          "internalType": "address",
          "name": "newValue",
          "type": "address"
        }
      ],
      "name": "ManagerChanged",
      "type": "event"
    },
    {
      "anonymous": false,
      "inputs": [
        {
          "indexed": true,
          "internalType": "address",
          "name": "previousValue",
          "type": "address"
        },
        {
          "indexed": true,
          "internalType": "address",
          "name": "newValue",
          "type": "address"
        }
      ],
      "name": "OwnerChanged",
      "type": "event"
    },
    {
      "anonymous": false,
      "inputs": [
        {
          "indexed": true,
          "internalType": "address",
          "name": "previousTarget",
          "type": "address"
        },
        {
          "indexed": true,
          "internalType": "address",
          "name": "newTarget",
          "type": "address"
        }
      ],
      "name": "TargetChanged",
      "type": "event"
    },
    {
      "payable": true,
      "stateMutability": "payable",
      "type": "fallback"
    },
    {
      "constant": true,
      "inputs": [],
      "name": "contractName",
      "outputs": [
        {
          "internalType": "string",
          "name": "",
          "type": "string"
        }
      ],
      "payable": false,
      "stateMutability": "view",
      "type": "function"
    },
    {
      "constant": true,
      "inputs": [],
      "name": "manager",
      "outputs": [
        {
          "internalType": "address",
          "name": "",
          "type": "address"
        }
      ],
      "payable": false,
      "stateMutability": "view",
      "type": "function"
    },
    {
      "constant": true,
      "inputs": [],
      "name": "owner",
      "outputs": [
        {
          "internalType": "address",
          "name": "",
          "type": "address"
        }
      ],
      "payable": false,
      "stateMutability": "view",
      "type": "function"
    },
    {
      "constant": false,
      "inputs": [
        {
          "internalType": "address",
          "name": "_manager",
          "type": "address"
        }
      ],
      "name": "setManager",
      "outputs": [],
      "payable": false,
      "stateMutability": "nonpayable",
      "type": "function"
    },
    {
      "constant": false,
      "inputs": [
        {
          "internalType": "address",
          "name": "_owner",
          "type": "address"
        }
      ],
      "name": "setOwner",
      "outputs": [],
      "payable": false,
      "stateMutability": "nonpayable",
      "type": "function"
    },
    {
      "constant": false,
      "inputs": [
        {
          "internalType": "address",
          "name": "target",
          "type": "address"
        }
      ],
      "name": "setTarget",
      "outputs": [],
      "payable": false,
      "stateMutability": "nonpayable",
      "type": "function"
    },
    {
      "constant": true,
      "inputs": [],
      "name": "implementation",
      "outputs": [
        {
          "internalType": "address",
          "name": "",
          "type": "address"
        }
      ],
      "payable": false,
      "stateMutability": "view",
      "type": "function"
    }
  ],
  "bytecode": "0x60806040523480156200001157600080fd5b50604051620013b0380380620013b0833981810160405260208110156200003757600080fd5b505160018054336001600160a01b0319918216811790925560028054909116909117905562000066816200006d565b5062000627565b60018054604080518082018252601981527f3a2063616c6c6572206973206e6f7420746865206f776e657200000000000000602080830191909152600080548451600261010098831615989098026000190190911696909604601f81018390048302870183019094528386526001600160a01b039094163314946200015f949293909291830182828015620001465780601f106200011a5761010080835404028352916020019162000146565b820191906000526020600020905b8154815290600101906020018083116200012857829003601f168201915b5050505050620004b160201b62000b261790919060201c565b90620001ec5760405162461bcd60e51b81526004018080602001828103825283818151815260200191508051906020019080838360005b83811015620001b057818101518382015260200162000196565b50505050905090810190601f168015620001de5780820380516001836020036101000a031916815260200191505b509250505060405180910390fd5b5060006001600160a01b0316816001600160a01b03161415620002806040518060600160405280602581526020016200136b602591396000805460408051602060026001851615610100026000190190941693909304601f81018490048402820184019092528181529291830182828015620001465780601f106200011a5761010080835404028352916020019162000146565b90620002cf5760405162461bcd60e51b8152602060048201818152835160248401528351909283926044909101919085019080838360008315620001b057818101518382015260200162000196565b50620004356040518060400160405280600581526020016450726f787960d81b815250826001600160a01b03166375d0c0dc6040518163ffffffff1660e01b815260040160006040518083038186803b1580156200032c57600080fd5b505afa15801562000341573d6000803e3d6000fd5b505050506040513d6000823e601f3d908101601f1916820160405260208110156200036b57600080fd5b81019080805160405193929190846401000000008211156200038c57600080fd5b908301906020820185811115620003a257600080fd5b8251640100000000811182820188101715620003bd57600080fd5b82525081516020918201929091019080838360005b83811015620003ec578181015183820152602001620003d2565b50505050905090810190601f1680156200041a5780820380516001836020036101000a031916815260200191505b50604052505050620004b160201b62000b261790919060201c565b80516200044b9160009160209091019062000585565b506001600160a01b038116620004696001600160e01b036200057016565b6001600160a01b03167f4d11d6210a5e807da812a693b5d341a870571b5fc31158172207a3d99c911ccd60405160405180910390a36000805160206200139083398151915255565b606082826040516020018083805190602001908083835b60208310620004e95780518252601f199092019160209182019101620004c8565b51815160209384036101000a600019018019909216911617905285519190930192850191508083835b60208310620005335780518252601f19909201916020918201910162000512565b6001836020036101000a03801982511681845116808217855250505050505090500192505050604051602081830303815290604052905092915050565b60008051602062001390833981519152545b90565b828054600181600116156101000203166002900490600052602060002090601f016020900481019282601f10620005c857805160ff1916838001178555620005f8565b82800160010185558215620005f8579182015b82811115620005f8578251825591602001919060010190620005db565b50620006069291506200060a565b5090565b6200058291905b8082111562000606576000815560010162000611565b610d3480620006376000396000f3fe6080604052600436106100605760003560e01c806313af403514610072578063481c6a75146100a55780635c60da1b146100d657806375d0c0dc146100eb578063776d1a01146101755780638da5cb5b146101a8578063d0ebdbe7146101bd575b61007061006b6101f0565b610204565b005b34801561007e57600080fd5b506100706004803603602081101561009557600080fd5b50356001600160a01b0316610228565b3480156100b157600080fd5b506100ba6104d0565b604080516001600160a01b039092168252519081900360200190f35b3480156100e257600080fd5b506100ba6104df565b3480156100f757600080fd5b506101006104ee565b6040805160208082528351818301528351919283929083019185019080838360005b8381101561013a578181015183820152602001610122565b50505050905090810190601f1680156101675780820380516001836020036101000a031916815260200191505b509250505060405180910390f35b34801561018157600080fd5b506100706004803603602081101561019857600080fd5b50356001600160a01b031661057c565b3480156101b457600080fd5b506100ba6108fc565b3480156101c957600080fd5b50610070600480360360208110156101e057600080fd5b50356001600160a01b031661090b565b600080516020610ce0833981519152545b90565b3660008037600080366000845af43d6000803e808015610223573d6000f35b3d6000fd5b6001805460408051808201825260198152600080516020610c9f833981519152602080830191909152600080548451600261010098831615989098026000190190911696909604601f81018390048302870183019094528386526001600160a01b039094163314946102fd9492939092918301828280156102ea5780601f106102bf576101008083540402835291602001916102ea565b820191906000526020600020905b8154815290600101906020018083116102cd57829003601f168201915b5050505050610b2690919063ffffffff16565b906103865760405162461bcd60e51b81526004018080602001828103825283818151815260200191508051906020019080838360005b8381101561034b578181015183820152602001610333565b50505050905090810190601f1680156103785780820380516001836020036101000a031916815260200191505b509250505060405180910390fd5b50604080518082018252601f8082527f3a206e6577206f776e657220697320746865207a65726f206164647265737300602080840191909152600080548551600260001961010060018516150201909216919091049384018390048302810183019095528285526001600160a01b038616151594610427949390928301828280156102ea5780601f106102bf576101008083540402835291602001916102ea565b906104735760405162461bcd60e51b815260206004820181815283516024840152835190928392604490910191908501908083836000831561034b578181015183820152602001610333565b506001546040516001600160a01b038084169216907fb532073b38c83145e3e5135377a08bf9aab55bc0fd7c1179cd4fb995d2a5159c90600090a3600180546001600160a01b0319166001600160a01b0392909216919091179055565b6002546001600160a01b031681565b60006104e96101f0565b905090565b6000805460408051602060026001851615610100026000190190941693909304601f810184900484028201840190925281815292918301828280156105745780601f1061054957610100808354040283529160200191610574565b820191906000526020600020905b81548152906001019060200180831161055757829003601f168201915b505050505081565b6001805460408051808201825260198152600080516020610c9f833981519152602080830191909152600080548451600261010098831615989098026000190190911696909604601f81018390048302870183019094528386526001600160a01b039094163314946106139492939092918301828280156102ea5780601f106102bf576101008083540402835291602001916102ea565b9061065f5760405162461bcd60e51b815260206004820181815283516024840152835190928392604490910191908501908083836000831561034b578181015183820152602001610333565b5060006001600160a01b0316816001600160a01b031614156106ee604051806060016040528060258152602001610c7a602591396000805460408051602060026001851615610100026000190190941693909304601f810184900484028201840190925281815292918301828280156102ea5780601f106102bf576101008083540402835291602001916102ea565b9061073a5760405162461bcd60e51b815260206004820181815283516024840152835190928392604490910191908501908083836000831561034b578181015183820152602001610333565b5061088e6040518060400160405280600581526020016450726f787960d81b815250826001600160a01b03166375d0c0dc6040518163ffffffff1660e01b815260040160006040518083038186803b15801561079557600080fd5b505afa1580156107a9573d6000803e3d6000fd5b505050506040513d6000823e601f3d908101601f1916820160405260208110156107d257600080fd5b8101908080516040519392919084600160201b8211156107f157600080fd5b90830190602082018581111561080657600080fd5b8251600160201b81118282018810171561081f57600080fd5b82525081516020918201929091019080838360005b8381101561084c578181015183820152602001610834565b50505050905090810190601f1680156108795780820380516001836020036101000a031916815260200191505b50604052505050610b2690919063ffffffff16565b80516108a291600091602090910190610be1565b50806001600160a01b03166108b56101f0565b6001600160a01b03167f4d11d6210a5e807da812a693b5d341a870571b5fc31158172207a3d99c911ccd60405160405180910390a3600080516020610ce083398151915255565b6001546001600160a01b031681565b6001805460408051808201825260198152600080516020610c9f833981519152602080830191909152600080548451600261010098831615989098026000190190911696909604601f81018390048302870183019094528386526001600160a01b039094163314946109a29492939092918301828280156102ea5780601f106102bf576101008083540402835291602001916102ea565b906109ee5760405162461bcd60e51b815260206004820181815283516024840152835190928392604490910191908501908083836000831561034b578181015183820152602001610333565b5060006001600160a01b0316816001600160a01b03161415610a7d604051806060016040528060218152602001610cbf602191396000805460408051602060026001851615610100026000190190941693909304601f810184900484028201840190925281815292918301828280156102ea5780601f106102bf576101008083540402835291602001916102ea565b90610ac95760405162461bcd60e51b815260206004820181815283516024840152835190928392604490910191908501908083836000831561034b578181015183820152602001610333565b506002546040516001600160a01b038084169216907f605c2dbf762e5f7d60a546d42e7205dcb1b011ebc62a61736a57c9089d3a435090600090a3600280546001600160a01b0319166001600160a01b0392909216919091179055565b606082826040516020018083805190602001908083835b60208310610b5c5780518252601f199092019160209182019101610b3d565b51815160209384036101000a600019018019909216911617905285519190930192850191508083835b60208310610ba45780518252601f199092019160209182019101610b85565b6001836020036101000a03801982511681845116808217855250505050505090500192505050604051602081830303815290604052905092915050565b828054600181600116156101000203166002900490600052602060002090601f016020900481019282601f10610c2257805160ff1916838001178555610c4f565b82800160010185558215610c4f579182015b82811115610c4f578251825591602001919060010190610c34565b50610c5b929150610c5f565b5090565b61020191905b80821115610c5b5760008155600101610c6556fe50726f78793a206e65772074617267657420697320746865207a65726f20616464726573733a2063616c6c6572206973206e6f7420746865206f776e6572000000000000003a206e6577206d616e6167657220697320746865207a65726f2061646472657373360894a13ba1a3210667c828492db98dca3e2076cc3735a920a3ca505d382bbca265627a7a723158206433e6adf07ba01b8392fc65311ba9691805c08333baacd2f370ec71f5bcb28664736f6c6343000511003250726f78793a206e65772074617267657420697320746865207a65726f2061646472657373360894a13ba1a3210667c828492db98dca3e2076cc3735a920a3ca505d382bbc",
  "source": "// SPDX-License-Identifier: MIT\npragma solidity ^0.5.17;\n\nimport './base/Ownable.sol';\n\ncontract Proxy is Ownable {\n    bytes32 private constant TARGET_SLOT = 0x360894a13ba1a3210667c828492db98dca3e2076cc3735a920a3ca505d382bbc;\n\n    event TargetChanged(address indexed previousTarget, address indexed newTarget);\n\n    constructor(address target) public {\n        setTarget(target);\n    }\n\n    modifier onlyTarget() {\n        require(msg.sender == getTarget(), contractName.concat(': caller is not target'));\n        _;\n    }\n\n    function setTarget(address target) public onlyOwner {\n        require(target != address(0), contractName.concat('Proxy: new target is the zero address'));\n        contractName = IOwnable(target).contractName().concat('Proxy');\n\n        emit TargetChanged(getTarget(), target);\n        bytes32 solt = TARGET_SLOT;\n        assembly {\n            sstore(solt, target)\n        }\n    }\n\n    function implementation() external view returns (address) {\n        return getTarget();\n    }\n\n    function getTarget() internal view returns (address) {\n        bytes32 solt = TARGET_SLOT;\n        address target;\n        assembly {\n            target := sload(solt)\n        }\n        return target;\n    }\n\n    function() external payable {\n        _delegate(getTarget());\n    }\n\n    function _delegate(address target) internal {\n        assembly {\n            calldatacopy(0, 0, calldatasize())\n            let result := delegatecall(gas(), target, 0, calldatasize(), 0, 0)\n            returndatacopy(0, 0, returndatasize())\n            switch result\n                case 0 {\n                    revert(0, returndatasize())\n                }\n                default {\n                    return(0, returndatasize())\n                }\n        }\n    }\n}\n",
  "sourcePath": "/Users/sun/go/src/github.com/Dipper-Labs/DIPSYN/contracts/Proxy.sol",
  "compiler": {
    "name": "solc",
    "version": "0.5.17+commit.d19bba13.Emscripten.clang"
  },
  "schemaVersion": "3.3.4",
  "updatedAt": "2021-04-21T04:08:13.989Z",
  "devdoc": {
    "methods": {}
  },
  "userdoc": {
    "methods": {}
  }
}