{
  "contractName": "Proxyable",
  "abi": [
    {
      "anonymous": false,
      "inputs": [
        {
          "indexed": true,
          "internalType": "address",
          "name": "previousValue",
          "type": "address"
        },
        {
          "indexed": true,
          "internalType": "address",
          "name": "newValue",
          "type": "address"
        }
      ],
      "name": "ManagerChanged",
      "type": "event"
    },
    {
      "anonymous": false,
      "inputs": [
        {
          "indexed": true,
          "internalType": "address",
          "name": "previousValue",
          "type": "address"
        },
        {
          "indexed": true,
          "internalType": "address",
          "name": "newValue",
          "type": "address"
        }
      ],
      "name": "OwnerChanged",
      "type": "event"
    },
    {
      "constant": true,
      "inputs": [],
      "name": "contractName",
      "outputs": [
        {
          "internalType": "string",
          "name": "",
          "type": "string"
        }
      ],
      "payable": false,
      "stateMutability": "view",
      "type": "function"
    },
    {
      "constant": true,
      "inputs": [],
      "name": "manager",
      "outputs": [
        {
          "internalType": "address",
          "name": "",
          "type": "address"
        }
      ],
      "payable": false,
      "stateMutability": "view",
      "type": "function"
    },
    {
      "constant": true,
      "inputs": [],
      "name": "owner",
      "outputs": [
        {
          "internalType": "address",
          "name": "",
          "type": "address"
        }
      ],
      "payable": false,
      "stateMutability": "view",
      "type": "function"
    },
    {
      "constant": false,
      "inputs": [
        {
          "internalType": "address",
          "name": "_manager",
          "type": "address"
        }
      ],
      "name": "setManager",
      "outputs": [],
      "payable": false,
      "stateMutability": "nonpayable",
      "type": "function"
    },
    {
      "constant": false,
      "inputs": [
        {
          "internalType": "address",
          "name": "_owner",
          "type": "address"
        }
      ],
      "name": "setOwner",
      "outputs": [],
      "payable": false,
      "stateMutability": "nonpayable",
      "type": "function"
    }
  ],
  "bytecode": "0x608060405260018054336001600160a01b031991821681179092556002805490911690911790556107ef806100356000396000f3fe608060405234801561001057600080fd5b50600436106100575760003560e01c806313af40351461005c578063481c6a751461008457806375d0c0dc146100a85780638da5cb5b14610125578063d0ebdbe71461012d575b600080fd5b6100826004803603602081101561007257600080fd5b50356001600160a01b0316610153565b005b61008c610409565b604080516001600160a01b039092168252519081900360200190f35b6100b0610418565b6040805160208082528351818301528351919283929083019185019080838360005b838110156100ea5781810151838201526020016100d2565b50505050905090810190601f1680156101175780820380516001836020036101000a031916815260200191505b509250505060405180910390f35b61008c6104a6565b6100826004803603602081101561014357600080fd5b50356001600160a01b03166104b5565b6001805460408051808201825260198152781d1031b0b63632b91034b9903737ba103a34329037bbb732b960391b602080830191909152600080548451600261010098831615989098026000190190911696909604601f81018390048302870183019094528386526001600160a01b039094163314946102369492939092918301828280156102235780601f106101f857610100808354040283529160200191610223565b820191906000526020600020905b81548152906001019060200180831161020657829003601f168201915b50505050506106de90919063ffffffff16565b906102bf5760405162461bcd60e51b81526004018080602001828103825283818151815260200191508051906020019080838360005b8381101561028457818101518382015260200161026c565b50505050905090810190601f1680156102b15780820380516001836020036101000a031916815260200191505b509250505060405180910390fd5b50604080518082018252601f8082527f3a206e6577206f776e657220697320746865207a65726f206164647265737300602080840191909152600080548551600260001961010060018516150201909216919091049384018390048302810183019095528285526001600160a01b038616151594610360949390928301828280156102235780601f106101f857610100808354040283529160200191610223565b906103ac5760405162461bcd60e51b815260206004820181815283516024840152835190928392604490910191908501908083836000831561028457818101518382015260200161026c565b506001546040516001600160a01b038084169216907fb532073b38c83145e3e5135377a08bf9aab55bc0fd7c1179cd4fb995d2a5159c90600090a3600180546001600160a01b0319166001600160a01b0392909216919091179055565b6002546001600160a01b031681565b6000805460408051602060026001851615610100026000190190941693909304601f8101849004840282018401909252818152929183018282801561049e5780601f106104735761010080835404028352916020019161049e565b820191906000526020600020905b81548152906001019060200180831161048157829003601f168201915b505050505081565b6001546001600160a01b031681565b6001805460408051808201825260198152781d1031b0b63632b91034b9903737ba103a34329037bbb732b960391b602080830191909152600080548451600261010098831615989098026000190190911696909604601f81018390048302870183019094528386526001600160a01b0390941633149461055a9492939092918301828280156102235780601f106101f857610100808354040283529160200191610223565b906105a65760405162461bcd60e51b815260206004820181815283516024840152835190928392604490910191908501908083836000831561028457818101518382015260200161026c565b5060006001600160a01b0316816001600160a01b0316141561063560405180606001604052806021815260200161079a602191396000805460408051602060026001851615610100026000190190941693909304601f810184900484028201840190925281815292918301828280156102235780601f106101f857610100808354040283529160200191610223565b906106815760405162461bcd60e51b815260206004820181815283516024840152835190928392604490910191908501908083836000831561028457818101518382015260200161026c565b506002546040516001600160a01b038084169216907f605c2dbf762e5f7d60a546d42e7205dcb1b011ebc62a61736a57c9089d3a435090600090a3600280546001600160a01b0319166001600160a01b0392909216919091179055565b606082826040516020018083805190602001908083835b602083106107145780518252601f1990920191602091820191016106f5565b51815160209384036101000a600019018019909216911617905285519190930192850191508083835b6020831061075c5780518252601f19909201916020918201910161073d565b6001836020036101000a0380198251168184511680821785525050505050509050019250505060405160208183030381529060405290509291505056fe3a206e6577206d616e6167657220697320746865207a65726f2061646472657373a265627a7a72315820deeeffb982a70b3fdde3f9356bff61995e587197389f9a7208e8d6c62259ab7164736f6c63430005110032",
  "source": "pragma solidity ^0.5.17;\n\nimport './Ownable.sol';\n\ncontract Proxyable is Ownable {\n    bool private _initialized;\n\n    modifier onlyInitialized() {\n        require(_initialized, contractName.concat(': contract uninitialized'));\n        _;\n    }\n\n    function setInitialized() internal {\n        require(_initialized == false, contractName.concat(': already initialized'));\n        _initialized = true;\n    }\n}\n",
  "sourcePath": "/Users/sun/go/src/github.com/Dipper-Labs/DIPSYN/contracts/base/Proxyable.sol",
  "compiler": {
    "name": "solc",
    "version": "0.5.17+commit.d19bba13.Emscripten.clang"
  },
  "schemaVersion": "3.3.4",
  "updatedAt": "2021-04-21T04:08:14.046Z",
  "devdoc": {
    "methods": {}
  },
  "userdoc": {
    "methods": {}
  }
}