{
  "contractName": "Resolver",
  "abi": [
    {
      "inputs": [],
      "payable": false,
      "stateMutability": "nonpayable",
      "type": "constructor"
    },
    {
      "anonymous": false,
      "inputs": [
        {
          "indexed": true,
          "internalType": "bytes32",
          "name": "name",
          "type": "bytes32"
        },
        {
          "indexed": true,
          "internalType": "address",
          "name": "previousValue",
          "type": "address"
        },
        {
          "indexed": true,
          "internalType": "address",
          "name": "newValue",
          "type": "address"
        }
      ],
      "name": "AddressChanged",
      "type": "event"
    },
    {
      "anonymous": false,
      "inputs": [
        {
          "indexed": true,
          "internalType": "bytes32",
          "name": "assetType",
          "type": "bytes32"
        },
        {
          "indexed": true,
          "internalType": "bytes32",
          "name": "assetName",
          "type": "bytes32"
        },
        {
          "indexed": false,
          "internalType": "address",
          "name": "previousValue",
          "type": "address"
        },
        {
          "indexed": false,
          "internalType": "address",
          "name": "newValue",
          "type": "address"
        }
      ],
      "name": "AssetChanged",
      "type": "event"
    },
    {
      "anonymous": false,
      "inputs": [
        {
          "indexed": true,
          "internalType": "address",
          "name": "previousValue",
          "type": "address"
        },
        {
          "indexed": true,
          "internalType": "address",
          "name": "newValue",
          "type": "address"
        }
      ],
      "name": "ManagerChanged",
      "type": "event"
    },
    {
      "anonymous": false,
      "inputs": [
        {
          "indexed": true,
          "internalType": "address",
          "name": "previousValue",
          "type": "address"
        },
        {
          "indexed": true,
          "internalType": "address",
          "name": "newValue",
          "type": "address"
        }
      ],
      "name": "OwnerChanged",
      "type": "event"
    },
    {
      "anonymous": false,
      "inputs": [
        {
          "indexed": true,
          "internalType": "bytes32",
          "name": "name",
          "type": "bytes32"
        },
        {
          "indexed": true,
          "internalType": "address",
          "name": "previousValue",
          "type": "address"
        },
        {
          "indexed": true,
          "internalType": "address",
          "name": "newValue",
          "type": "address"
        }
      ],
      "name": "SynthxTokenMigrated",
      "type": "event"
    },
    {
      "constant": true,
      "inputs": [],
      "name": "contractName",
      "outputs": [
        {
          "internalType": "string",
          "name": "",
          "type": "string"
        }
      ],
      "payable": false,
      "stateMutability": "view",
      "type": "function"
    },
    {
      "constant": true,
      "inputs": [],
      "name": "manager",
      "outputs": [
        {
          "internalType": "address",
          "name": "",
          "type": "address"
        }
      ],
      "payable": false,
      "stateMutability": "view",
      "type": "function"
    },
    {
      "constant": true,
      "inputs": [],
      "name": "owner",
      "outputs": [
        {
          "internalType": "address",
          "name": "",
          "type": "address"
        }
      ],
      "payable": false,
      "stateMutability": "view",
      "type": "function"
    },
    {
      "constant": false,
      "inputs": [
        {
          "internalType": "address",
          "name": "_manager",
          "type": "address"
        }
      ],
      "name": "setManager",
      "outputs": [],
      "payable": false,
      "stateMutability": "nonpayable",
      "type": "function"
    },
    {
      "constant": false,
      "inputs": [
        {
          "internalType": "address",
          "name": "_owner",
          "type": "address"
        }
      ],
      "name": "setOwner",
      "outputs": [],
      "payable": false,
      "stateMutability": "nonpayable",
      "type": "function"
    },
    {
      "constant": false,
      "inputs": [
        {
          "internalType": "bytes32",
          "name": "assetType",
          "type": "bytes32"
        },
        {
          "internalType": "bytes32",
          "name": "assetName",
          "type": "bytes32"
        },
        {
          "internalType": "address",
          "name": "assetAddress",
          "type": "address"
        }
      ],
      "name": "addAsset",
      "outputs": [],
      "payable": false,
      "stateMutability": "nonpayable",
      "type": "function"
    },
    {
      "constant": false,
      "inputs": [
        {
          "internalType": "bytes32",
          "name": "assetType",
          "type": "bytes32"
        },
        {
          "internalType": "bytes32",
          "name": "assetName",
          "type": "bytes32"
        }
      ],
      "name": "removeAsset",
      "outputs": [],
      "payable": false,
      "stateMutability": "nonpayable",
      "type": "function"
    },
    {
      "constant": true,
      "inputs": [
        {
          "internalType": "bytes32",
          "name": "assetType",
          "type": "bytes32"
        },
        {
          "internalType": "bytes32",
          "name": "assetName",
          "type": "bytes32"
        }
      ],
      "name": "getAsset",
      "outputs": [
        {
          "internalType": "bool",
          "name": "",
          "type": "bool"
        },
        {
          "internalType": "address",
          "name": "",
          "type": "address"
        }
      ],
      "payable": false,
      "stateMutability": "view",
      "type": "function"
    },
    {
      "constant": true,
      "inputs": [
        {
          "internalType": "bytes32",
          "name": "assetType",
          "type": "bytes32"
        }
      ],
      "name": "getAssets",
      "outputs": [
        {
          "internalType": "bytes32[]",
          "name": "",
          "type": "bytes32[]"
        }
      ],
      "payable": false,
      "stateMutability": "view",
      "type": "function"
    },
    {
      "constant": false,
      "inputs": [
        {
          "internalType": "bytes32[]",
          "name": "name",
          "type": "bytes32[]"
        },
        {
          "internalType": "address[]",
          "name": "value",
          "type": "address[]"
        }
      ],
      "name": "importAddress",
      "outputs": [],
      "payable": false,
      "stateMutability": "nonpayable",
      "type": "function"
    },
    {
      "constant": false,
      "inputs": [
        {
          "internalType": "bytes32",
          "name": "name",
          "type": "bytes32"
        },
        {
          "internalType": "address",
          "name": "value",
          "type": "address"
        }
      ],
      "name": "setAddress",
      "outputs": [],
      "payable": false,
      "stateMutability": "nonpayable",
      "type": "function"
    },
    {
      "constant": true,
      "inputs": [
        {
          "internalType": "bytes32",
          "name": "name",
          "type": "bytes32"
        }
      ],
      "name": "getAddress",
      "outputs": [
        {
          "internalType": "address",
          "name": "",
          "type": "address"
        }
      ],
      "payable": false,
      "stateMutability": "view",
      "type": "function"
    }
  ],
  "bytecode": "0x60806040523480156200001157600080fd5b5060018054336001600160a01b031991821681179092556002805490911690911790556200004a672932b9b7b63b32b960c11b62000050565b62000126565b60408051602080820184905282518083038201815291830190925280516200007d92600092019062000081565b5050565b828054600181600116156101000203166002900490600052602060002090601f016020900481019282601f10620000c457805160ff1916838001178555620000f4565b82800160010185558215620000f4579182015b82811115620000f4578251825591602001919060010190620000d7565b506200010292915062000106565b5090565b6200012391905b808211156200010257600081556001016200010d565b90565b61144d80620001366000396000f3fe608060405234801561001057600080fd5b50600436106100a45760003560e01c806313af4035146100a95780631ebd0da2146100d157806321f8a721146100f4578063481c6a751461012d578063659b9d701461013557806375d0c0dc1461017b5780638da5cb5b146101f85780639dddb54d146102005780639de567f0146102be578063a418c84d1461032b578063ca446dd91461035d578063d0ebdbe714610389575b600080fd5b6100cf600480360360208110156100bf57600080fd5b50356001600160a01b03166103af565b005b6100cf600480360360408110156100e757600080fd5b5080359060200135610657565b6101116004803603602081101561010a57600080fd5b503561079d565b604080516001600160a01b039092168252519081900360200190f35b6101116107ae565b6101586004803603604081101561014b57600080fd5b50803590602001356107bd565b6040805192151583526001600160a01b0390911660208301528051918290030190f35b6101836107f4565b6040805160208082528351818301528351919283929083019185019080838360005b838110156101bd5781810151838201526020016101a5565b50505050905090810190601f1680156101ea5780820380516001836020036101000a031916815260200191505b509250505060405180910390f35b610111610882565b6100cf6004803603604081101561021657600080fd5b810190602081018135600160201b81111561023057600080fd5b82018360208201111561024257600080fd5b803590602001918460208302840111600160201b8311171561026357600080fd5b919390929091602081019035600160201b81111561028057600080fd5b82018360208201111561029257600080fd5b803590602001918460208302840111600160201b831117156102b357600080fd5b509092509050610891565b6102db600480360360208110156102d457600080fd5b5035610a04565b60408051602080825283518183015283519192839290830191858101910280838360005b838110156103175781810151838201526020016102ff565b505050509050019250505060405180910390f35b6100cf6004803603606081101561034157600080fd5b50803590602081013590604001356001600160a01b0316610a66565b6100cf6004803603604081101561037357600080fd5b50803590602001356001600160a01b0316610baf565b6100cf6004803603602081101561039f57600080fd5b50356001600160a01b0316610cf6565b6001805460408051808201825260198152600080516020611398833981519152602080830191909152600080548451600261010098831615989098026000190190911696909604601f81018390048302870183019094528386526001600160a01b039094163314946104849492939092918301828280156104715780601f1061044657610100808354040283529160200191610471565b820191906000526020600020905b81548152906001019060200180831161045457829003601f168201915b5050505050610f1190919063ffffffff16565b9061050d5760405162461bcd60e51b81526004018080602001828103825283818151815260200191508051906020019080838360005b838110156104d25781810151838201526020016104ba565b50505050905090810190601f1680156104ff5780820380516001836020036101000a031916815260200191505b509250505060405180910390fd5b50604080518082018252601f8082527f3a206e6577206f776e657220697320746865207a65726f206164647265737300602080840191909152600080548551600260001961010060018516150201909216919091049384018390048302810183019095528285526001600160a01b0386161515946105ae949390928301828280156104715780601f1061044657610100808354040283529160200191610471565b906105fa5760405162461bcd60e51b81526020600482018181528351602484015283519092839260449091019190850190808383600083156104d25781810151838201526020016104ba565b506001546040516001600160a01b038084169216907fb532073b38c83145e3e5135377a08bf9aab55bc0fd7c1179cd4fb995d2a5159c90600090a3600180546001600160a01b0319166001600160a01b0392909216919091179055565b6001805460408051808201825260198152600080516020611398833981519152602080830191909152600080548451600261010098831615989098026000190190911696909604601f81018390048302870183019094528386526001600160a01b039094163314946106ee9492939092918301828280156104715780601f1061044657610100808354040283529160200191610471565b9061073a5760405162461bcd60e51b81526020600482018181528351602484015283519092839260449091019190850190808383600083156104d25781810151838201526020016104ba565b5060008281526004602052604090206107539082610fcc565b80826000805160206113d983398151915261076e8585611033565b604080516001600160a01b039092168252600060208301528051918290030190a36107998282611059565b5050565b60006107a882611082565b92915050565b6002546001600160a01b031681565b6000828152600460205260408120819081906107d990856110aa565b509050806107e78686611033565b92509250505b9250929050565b6000805460408051602060026001851615610100026000190190941693909304601f8101849004840282018401909252818152929183018282801561087a5780601f1061084f5761010080835404028352916020019161087a565b820191906000526020600020905b81548152906001019060200180831161085d57829003601f168201915b505050505081565b6001546001600160a01b031681565b6001805460408051808201825260198152600080516020611398833981519152602080830191909152600080548451600261010098831615989098026000190190911696909604601f81018390048302870183019094528386526001600160a01b039094163314946109289492939092918301828280156104715780601f1061044657610100808354040283529160200191610471565b906109745760405162461bcd60e51b81526020600482018181528351602484015283519092839260449091019190850190808383600083156104d25781810151838201526020016104ba565b508281146109b35760405162461bcd60e51b81526004018080602001828103825260288152602001806113706028913960400191505060405180910390fd5b60005b838110156109fd576109f58585838181106109cd57fe5b905060200201358484848181106109e057fe5b905060200201356001600160a01b0316610baf565b6001016109b6565b5050505050565b600081815260046020908152604091829020805483518184028101840190945280845260609392830182828015610a5a57602002820191906000526020600020905b815481526020019060010190808311610a46575b50505050509050919050565b6001805460408051808201825260198152600080516020611398833981519152602080830191909152600080548451600261010098831615989098026000190190911696909604601f81018390048302870183019094528386526001600160a01b03909416331494610afd9492939092918301828280156104715780601f1061044657610100808354040283529160200191610471565b90610b495760405162461bcd60e51b81526020600482018181528351602484015283519092839260449091019190850190808383600083156104d25781810151838201526020016104ba565b506000838152600460205260409020610b6290836110f6565b81836000805160206113d9833981519152610b7d8686611033565b604080516001600160a01b03928316815291861660208301528051918290030190a3610baa83838361112a565b505050565b6001805460408051808201825260198152600080516020611398833981519152602080830191909152600080548451600261010098831615989098026000190190911696909604601f81018390048302870183019094528386526001600160a01b03909416331494610c469492939092918301828280156104715780601f1061044657610100808354040283529160200191610471565b90610c925760405162461bcd60e51b81526020600482018181528351602484015283519092839260449091019190850190808383600083156104d25781810151838201526020016104ba565b506000610c9e83611082565b9050816001600160a01b0316816001600160a01b0316847f59cff797773a13d5269a5bb23cdc636f102c95002a8305e19db9a255211cf82160405160405180910390a4610cec838284611162565b610baa83836112d1565b6001805460408051808201825260198152600080516020611398833981519152602080830191909152600080548451600261010098831615989098026000190190911696909604601f81018390048302870183019094528386526001600160a01b03909416331494610d8d9492939092918301828280156104715780601f1061044657610100808354040283529160200191610471565b90610dd95760405162461bcd60e51b81526020600482018181528351602484015283519092839260449091019190850190808383600083156104d25781810151838201526020016104ba565b5060006001600160a01b0316816001600160a01b03161415610e686040518060600160405280602181526020016113b8602191396000805460408051602060026001851615610100026000190190941693909304601f810184900484028201840190925281815292918301828280156104715780601f1061044657610100808354040283529160200191610471565b90610eb45760405162461bcd60e51b81526020600482018181528351602484015283519092839260449091019190850190808383600083156104d25781810151838201526020016104ba565b506002546040516001600160a01b038084169216907f605c2dbf762e5f7d60a546d42e7205dcb1b011ebc62a61736a57c9089d3a435090600090a3600280546001600160a01b0319166001600160a01b0392909216919091179055565b606082826040516020018083805190602001908083835b60208310610f475780518252601f199092019160209182019101610f28565b51815160209384036101000a600019018019909216911617905285519190930192850191508083835b60208310610f8f5780518252601f199092019160209182019101610f70565b6001836020036101000a03801982511681845116808217855250505050505090500192505050604051602081830303815290604052905092915050565b600080610fd984846110aa565b9150915081610fe9575050610799565b8354600019810190859082908110610ffd57fe5b906000526020600020015485838154811061101457fe5b6000918252602090912001558061102b868261130c565b505050505050565b60009182526003602090815260408084209284529190529020546001600160a01b031690565b6000918252600360209081526040808420928452919052902080546001600160a01b0319169055565b60009081526000805160206113f983398151915260205260409020546001600160a01b031690565b600080805b84548110156110e957838582815481106110c557fe5b906000526020600020015414156110e1576001925090506107ed565b6001016110af565b5060009485945092505050565b600061110283836110aa565b50905080156111115750610799565b5081546001810183556000928352602090922090910155565b6000928352600360209081526040808520938552929052912080546001600160a01b0319166001600160a01b03909216919091179055565b61116a611330565b506040805160608101825265457363726f7760d01b8152652437b63232b960d11b6020820152652a3930b232b960d11b918101919091526001600160a01b0383166111b55750610baa565b60006111ce6a29bcb73a343c2a37b5b2b760a91b611082565b90506001600160a01b0381166111e5575050610baa565b60005b600381101561102b578281600381106111fd57fe5b6020020151861461120d576112c9565b60408051631068361f60e01b81526001600160a01b0387811660048301528681166024830152915191841691631068361f916044808201926020929091908290030181600087803b15801561126157600080fd5b505af1158015611275573d6000803e3d6000fd5b505050506040513d602081101561128b57600080fd5b50506040516001600160a01b03808616919087169088907f0cef3e2b9fbdc0133fbed28b204618dfd9b2e89debcf59e9eacafef0ac5d83e890600090a45b6001016111e8565b60009182526000805160206113f9833981519152602052604090912080546001600160a01b0319166001600160a01b03909216919091179055565b815481835581811115610baa57600083815260209020610baa91810190830161134e565b60405180606001604052806003906020820280388339509192915050565b61136c91905b808211156113685760008155600101611354565b5090565b9056fe5265736f6c7665723a206e616d6520616e642076616c7565206c656e677468206d69736d617463683a2063616c6c6572206973206e6f7420746865206f776e6572000000000000003a206e6577206d616e6167657220697320746865207a65726f2061646472657373fef1edfd9777499fcd47240a7d925f53dd6d43a4ec647fd5b2e6ff23036f4d3b7d9a42d98474a1d02586a0326a45710951e3684f92c0ff078081324e45c151c1a265627a7a723158200c9605f5b621dc6d9ae55a07e7f01dc1eae6bc90f892a4ba7069a17100aa28a864736f6c63430005110032",
  "source": "// SPDX-License-Identifier: MIT\npragma solidity ^0.5.17;\n\nimport './lib/Arrays.sol';\nimport './storages/AddressStorage.sol';\nimport './interfaces/IResolver.sol';\nimport './interfaces/ISynthxToken.sol';\n\ncontract Resolver is AddressStorage, IResolver {\n    mapping(bytes32 => bytes32[]) _assets;\n\n    constructor() public {\n        setContractName(CONTRACT_RESOLVER);\n    }\n\n    function addAsset(\n        bytes32 assetType,\n        bytes32 assetName,\n        address assetAddress\n    ) external onlyOwner {\n        Arrays.push(_assets[assetType], assetName);\n        emit AssetChanged(assetType, assetName, getAddressValue(assetType, assetName), assetAddress);\n        setAddressValue(assetType, assetName, assetAddress);\n    }\n\n    function removeAsset(bytes32 assetType, bytes32 assetName) external onlyOwner {\n        Arrays.remove(_assets[assetType], assetName);\n        emit AssetChanged(assetType, assetName, getAddressValue(assetType, assetName), address(0));\n        removeAddressValue(assetType, assetName);\n    }\n\n    function getAsset(bytes32 assetType, bytes32 assetName) external view returns (bool, address) {\n        (bool exist, ) = Arrays.index(_assets[assetType], assetName);\n        return (exist, getAddressValue(assetType, assetName));\n    }\n\n    function getAssets(bytes32 assetType) external view returns (bytes32[] memory) {\n        return _assets[assetType];\n    }\n\n    function importAddress(bytes32[] calldata name, address[] calldata value) external onlyOwner {\n        require(name.length == value.length, 'Resolver: name and value length mismatch');\n        for (uint256 i = 0; i < name.length; i++) {\n            setAddress(name[i], value[i]);\n        }\n    }\n\n    function setAddress(bytes32 name, address value) public onlyOwner {\n        address previousValue = getAddressValue(name);\n        emit AddressChanged(name, previousValue, value);\n        _migrateSynthxToken(name, previousValue, value);\n        setAddressValue(name, value);\n    }\n\n    function getAddress(bytes32 name) external view returns (address) {\n        return getAddressValue(name);\n    }\n\n    function _migrateSynthxToken(\n        bytes32 name,\n        address previousAddress,\n        address newAddress\n    ) private {\n        bytes32[3] memory contracts = [CONTRACT_ESCROW, CONTRACT_HOLDER, CONTRACT_TRADER];\n        if (previousAddress == address(0)) return;\n        address synthxToken = getAddressValue(CONTRACT_SYNTHX_TOKEN);\n        if (synthxToken == address(0)) return;\n        for (uint256 i = 0; i < contracts.length; i++) {\n            if (name != contracts[i]) continue;\n            ISynthxToken(synthxToken).migrate(previousAddress, newAddress);\n            emit SynthxTokenMigrated(name, previousAddress, newAddress);\n        }\n    }\n}\n",
  "sourcePath": "/Users/sun/go/src/github.com/Dipper-Labs/DIPSYN/contracts/Resolver.sol",
  "compiler": {
    "name": "solc",
    "version": "0.5.17+commit.d19bba13.Emscripten.clang"
  },
  "schemaVersion": "3.3.4",
  "updatedAt": "2021-04-21T04:08:13.990Z",
  "devdoc": {
    "methods": {}
  },
  "userdoc": {
    "methods": {}
  }
}