{
  "contractName": "RewardsStorage",
  "abi": [
    {
      "inputs": [
        {
          "internalType": "address",
          "name": "_manager",
          "type": "address"
        }
      ],
      "payable": false,
      "stateMutability": "nonpayable",
      "type": "constructor"
    },
    {
      "anonymous": false,
      "inputs": [
        {
          "indexed": true,
          "internalType": "address",
          "name": "previousValue",
          "type": "address"
        },
        {
          "indexed": true,
          "internalType": "address",
          "name": "newValue",
          "type": "address"
        }
      ],
      "name": "ManagerChanged",
      "type": "event"
    },
    {
      "anonymous": false,
      "inputs": [
        {
          "indexed": true,
          "internalType": "address",
          "name": "previousValue",
          "type": "address"
        },
        {
          "indexed": true,
          "internalType": "address",
          "name": "newValue",
          "type": "address"
        }
      ],
      "name": "OwnerChanged",
      "type": "event"
    },
    {
      "constant": true,
      "inputs": [],
      "name": "contractName",
      "outputs": [
        {
          "internalType": "string",
          "name": "",
          "type": "string"
        }
      ],
      "payable": false,
      "stateMutability": "view",
      "type": "function"
    },
    {
      "constant": true,
      "inputs": [],
      "name": "manager",
      "outputs": [
        {
          "internalType": "address",
          "name": "",
          "type": "address"
        }
      ],
      "payable": false,
      "stateMutability": "view",
      "type": "function"
    },
    {
      "constant": true,
      "inputs": [],
      "name": "owner",
      "outputs": [
        {
          "internalType": "address",
          "name": "",
          "type": "address"
        }
      ],
      "payable": false,
      "stateMutability": "view",
      "type": "function"
    },
    {
      "constant": false,
      "inputs": [
        {
          "internalType": "address",
          "name": "_manager",
          "type": "address"
        }
      ],
      "name": "setManager",
      "outputs": [],
      "payable": false,
      "stateMutability": "nonpayable",
      "type": "function"
    },
    {
      "constant": false,
      "inputs": [
        {
          "internalType": "address",
          "name": "_owner",
          "type": "address"
        }
      ],
      "name": "setOwner",
      "outputs": [],
      "payable": false,
      "stateMutability": "nonpayable",
      "type": "function"
    },
    {
      "constant": false,
      "inputs": [
        {
          "internalType": "bytes32",
          "name": "asset",
          "type": "bytes32"
        },
        {
          "internalType": "uint256",
          "name": "percentage",
          "type": "uint256"
        }
      ],
      "name": "setRewardPercentage",
      "outputs": [],
      "payable": false,
      "stateMutability": "nonpayable",
      "type": "function"
    },
    {
      "constant": true,
      "inputs": [
        {
          "internalType": "bytes32",
          "name": "asset",
          "type": "bytes32"
        }
      ],
      "name": "getRewardPercentage",
      "outputs": [
        {
          "internalType": "uint256",
          "name": "",
          "type": "uint256"
        }
      ],
      "payable": false,
      "stateMutability": "view",
      "type": "function"
    },
    {
      "constant": false,
      "inputs": [
        {
          "internalType": "bytes32",
          "name": "asset",
          "type": "bytes32"
        },
        {
          "internalType": "address",
          "name": "account",
          "type": "address"
        },
        {
          "internalType": "uint256",
          "name": "period",
          "type": "uint256"
        },
        {
          "internalType": "uint256",
          "name": "amount",
          "type": "uint256"
        }
      ],
      "name": "setClaimed",
      "outputs": [],
      "payable": false,
      "stateMutability": "nonpayable",
      "type": "function"
    },
    {
      "constant": true,
      "inputs": [
        {
          "internalType": "bytes32",
          "name": "asset",
          "type": "bytes32"
        },
        {
          "internalType": "address",
          "name": "account",
          "type": "address"
        },
        {
          "internalType": "uint256",
          "name": "period",
          "type": "uint256"
        }
      ],
      "name": "getClaimed",
      "outputs": [
        {
          "internalType": "uint256",
          "name": "",
          "type": "uint256"
        }
      ],
      "payable": false,
      "stateMutability": "view",
      "type": "function"
    }
  ],
  "bytecode": "0x60806040526636b0b730b3b2b960c91b6003553480156200001f57600080fd5b506040516200182838038062001828833981810160405260208110156200004557600080fd5b505160018054336001600160a01b031991821681179092556002805490911690911790558062000075816200007d565b505062000755565b60018054604080518082018252601981527f3a2063616c6c6572206973206e6f7420746865206f776e657200000000000000602080830191909152600080548451600261010098831615989098026000190190911696909604601f81018390048302870183019094528386526001600160a01b039094163314946200016f949293909291830182828015620001565780601f106200012a5761010080835404028352916020019162000156565b820191906000526020600020905b8154815290600101906020018083116200013857829003601f168201915b5050505050620003ae60201b62000b9c1790919060201c565b90620001fc5760405162461bcd60e51b81526004018080602001828103825283818151815260200191508051906020019080838360005b83811015620001c0578181015183820152602001620001a6565b50505050905090810190601f168015620001ee5780820380516001836020036101000a031916815260200191505b509250505060405180910390fd5b5062000213816200046d60201b62000d6f1760201c565b6040805180820190915260078082526653746f7261676560c81b60209092019182526200024391600091620006b0565b5060025460408051631d74303760e21b8152905162000392926001600160a01b0316916375d0c0dc916004808301926000929190829003018186803b1580156200028c57600080fd5b505afa158015620002a1573d6000803e3d6000fd5b505050506040513d6000823e601f3d908101601f191682016040526020811015620002cb57600080fd5b8101908080516040519392919084640100000000821115620002ec57600080fd5b9083019060208201858111156200030257600080fd5b82516401000000008111828201881017156200031d57600080fd5b82525081516020918201929091019080838360005b838110156200034c57818101518382015260200162000332565b50505050905090810190601f1680156200037a5780820380516001836020036101000a031916815260200191505b50604052505050620006a960201b62000f8a1760201c565b6003819055620003ab576636b0b730b3b2b960c91b6003555b50565b606082826040516020018083805190602001908083835b60208310620003e65780518252601f199092019160209182019101620003c5565b51815160209384036101000a600019018019909216911617905285519190930192850191508083835b60208310620004305780518252601f1990920191602091820191016200040f565b6001836020036101000a03801982511681845116808217855250505050505090500192505050604051602081830303815290604052905092915050565b60018054604080518082018252601981527f3a2063616c6c6572206973206e6f7420746865206f776e657200000000000000602080830191909152600080548451600261010098831615989098026000190190911696909604601f81018390048302870183019094528386526001600160a01b039094163314946200051a949293909291830182828015620001565780601f106200012a5761010080835404028352916020019162000156565b90620005695760405162461bcd60e51b8152602060048201818152835160248401528351909283926044909101919085019080838360008315620001c0578181015183820152602001620001a6565b5060006001600160a01b0316816001600160a01b03161415620005fd60405180606001604052806021815260200162001807602191396000805460408051602060026001851615610100026000190190941693909304601f81018490048402820184019092528181529291830182828015620001565780601f106200012a5761010080835404028352916020019162000156565b906200064c5760405162461bcd60e51b8152602060048201818152835160248401528351909283926044909101919085019080838360008315620001c0578181015183820152602001620001a6565b506002546040516001600160a01b038084169216907f605c2dbf762e5f7d60a546d42e7205dcb1b011ebc62a61736a57c9089d3a435090600090a3600280546001600160a01b0319166001600160a01b0392909216919091179055565b6020015190565b828054600181600116156101000203166002900490600052602060002090601f016020900481019282601f10620006f357805160ff191683800117855562000723565b8280016001018555821562000723579182015b828111156200072357825182559160200191906001019062000706565b506200073192915062000735565b5090565b6200075291905b808211156200073157600081556001016200073c565b90565b6110a280620007656000396000f3fe608060405234801561001057600080fd5b50600436106100835760003560e01c806313af403514610088578063481c6a75146100b05780636a46d4d1146100d457806375d0c0dc14610103578063771c5c53146101805780638da5cb5b146101b8578063d0ebdbe7146101c0578063f0f99b54146101e6578063f58bed0414610218575b600080fd5b6100ae6004803603602081101561009e57600080fd5b50356001600160a01b031661023b565b005b6100b86104e3565b604080516001600160a01b039092168252519081900360200190f35b6100f1600480360360208110156100ea57600080fd5b50356104f2565b60408051918252519081900360200190f35b61010b610504565b6040805160208082528351818301528351919283929083019185019080838360005b8381101561014557818101518382015260200161012d565b50505050905090810190601f1680156101725780820380516001836020036101000a031916815260200191505b509250505060405180910390f35b6100ae6004803603608081101561019657600080fd5b508035906001600160a01b036020820135169060408101359060600135610592565b6100b86107f1565b6100ae600480360360208110156101d657600080fd5b50356001600160a01b0316610800565b6100f1600480360360608110156101fc57600080fd5b508035906001600160a01b036020820135169060400135610a6d565b6100ae6004803603604081101561022e57600080fd5b5080359060200135610a9c565b600180546040805180820182526019815260008051602061102d833981519152602080830191909152600080548451600261010098831615989098026000190190911696909604601f81018390048302870183019094528386526001600160a01b039094163314946103109492939092918301828280156102fd5780601f106102d2576101008083540402835291602001916102fd565b820191906000526020600020905b8154815290600101906020018083116102e057829003601f168201915b5050505050610b9c90919063ffffffff16565b906103995760405162461bcd60e51b81526004018080602001828103825283818151815260200191508051906020019080838360005b8381101561035e578181015183820152602001610346565b50505050905090810190601f16801561038b5780820380516001836020036101000a031916815260200191505b509250505060405180910390fd5b50604080518082018252601f8082527f3a206e6577206f776e657220697320746865207a65726f206164647265737300602080840191909152600080548551600260001961010060018516150201909216919091049384018390048302810183019095528285526001600160a01b03861615159461043a949390928301828280156102fd5780601f106102d2576101008083540402835291602001916102fd565b906104865760405162461bcd60e51b815260206004820181815283516024840152835190928392604490910191908501908083836000831561035e578181015183820152602001610346565b506001546040516001600160a01b038084169216907fb532073b38c83145e3e5135377a08bf9aab55bc0fd7c1179cd4fb995d2a5159c90600090a3600180546001600160a01b0319166001600160a01b0392909216919091179055565b6002546001600160a01b031681565b60009081526004602052604090205490565b6000805460408051602060026001851615610100026000190190941693909304601f8101849004840282018401909252818152929183018282801561058a5780601f1061055f5761010080835404028352916020019161058a565b820191906000526020600020905b81548152906001019060200180831161056d57829003601f168201915b505050505081565b60035460028054604080518082018252601481527301d1031b0b63632b91034b9903737ba103a3432960651b6020808301919091526000805484516101006001831615026000190190911696909604601f81018390048302870183019094528386526001600160a01b039094163314946106719492938793919283018282801561065d5780601f106106325761010080835404028352916020019161065d565b820191906000526020600020905b81548152906001019060200180831161064057829003601f168201915b5050505050610c579092919063ffffffff16565b906106bd5760405162461bcd60e51b815260206004820181815283516024840152835190928392604490910191908501908083836000831561035e578181015183820152602001610346565b5060008581526005602090815260408083206001600160a01b038816845282528083208684529091529020541561073b576040805162461bcd60e51b815260206004820152601f60248201527f5265776172647353746f726167653a20616c726561647920636c61696d656400604482015290519081900360640190fd5b60008581526005602090815260408083206001600160a01b03881684528252808320868452909152902054610776908363ffffffff610d1016565b60008681526005602090815260408083206001600160a01b0389168452808352818420888552835281842094909455828052928152828220868352905220546107c5908363ffffffff610d1016565b600095865260056020908152604080882088805282528088209588529490529290942091909155505050565b6001546001600160a01b031681565b600180546040805180820182526019815260008051602061102d833981519152602080830191909152600080548451600261010098831615989098026000190190911696909604601f81018390048302870183019094528386526001600160a01b039094163314946108979492939092918301828280156102fd5780601f106102d2576101008083540402835291602001916102fd565b906108e35760405162461bcd60e51b815260206004820181815283516024840152835190928392604490910191908501908083836000831561035e578181015183820152602001610346565b506108ed81610d6f565b6040805180820190915260078082526653746f7261676560c81b602090920191825261091b91600091610f91565b5060025460408051631d74303760e21b81529051610a52926001600160a01b0316916375d0c0dc916004808301926000929190829003018186803b15801561096257600080fd5b505afa158015610976573d6000803e3d6000fd5b505050506040513d6000823e601f3d908101601f19168201604052602081101561099f57600080fd5b8101908080516040519392919084600160201b8211156109be57600080fd5b9083019060208201858111156109d357600080fd5b8251600160201b8111828201881017156109ec57600080fd5b82525081516020918201929091019080838360005b83811015610a19578181015183820152602001610a01565b50505050905090810190601f168015610a465780820380516001836020036101000a031916815260200191505b50604052505050610f8a565b6003819055610a6a576636b0b730b3b2b960c91b6003555b50565b60009283526005602090815260408085206001600160a01b039490941685529281528284209184525290205490565b60035460028054604080518082018252601481527301d1031b0b63632b91034b9903737ba103a3432960651b6020808301919091526000805484516101006001831615026000190190911696909604601f81018390048302870183019094528386526001600160a01b03909416331494610b3c9492938793919283018282801561065d5780601f106106325761010080835404028352916020019161065d565b90610b885760405162461bcd60e51b815260206004820181815283516024840152835190928392604490910191908501908083836000831561035e578181015183820152602001610346565b505060009182526004602052604090912055565b606082826040516020018083805190602001908083835b60208310610bd25780518252601f199092019160209182019101610bb3565b51815160209384036101000a600019018019909216911617905285519190930192850191508083835b60208310610c1a5780518252601f199092019160209182019101610bfb565b6001836020036101000a03801982511681845116808217855250505050505090500192505050604051602081830303815290604052905092915050565b60608383836040516020018084805190602001908083835b60208310610c8e5780518252601f199092019160209182019101610c6f565b51815160209384036101000a600019018019909216911617905286519190930192860191508083835b60208310610cd65780518252601f199092019160209182019101610cb7565b51815160209384036101000a6000190180199092169116179052920193845250604080518085038152939091019052509695505050505050565b600082820183811015610d68576040805162461bcd60e51b815260206004820152601b60248201527a536166654d6174683a206164646974696f6e206f766572666c6f7760281b604482015290519081900360640190fd5b9392505050565b600180546040805180820182526019815260008051602061102d833981519152602080830191909152600080548451600261010098831615989098026000190190911696909604601f81018390048302870183019094528386526001600160a01b03909416331494610e069492939092918301828280156102fd5780601f106102d2576101008083540402835291602001916102fd565b90610e525760405162461bcd60e51b815260206004820181815283516024840152835190928392604490910191908501908083836000831561035e578181015183820152602001610346565b5060006001600160a01b0316816001600160a01b03161415610ee160405180606001604052806021815260200161104d602191396000805460408051602060026001851615610100026000190190941693909304601f810184900484028201840190925281815292918301828280156102fd5780601f106102d2576101008083540402835291602001916102fd565b90610f2d5760405162461bcd60e51b815260206004820181815283516024840152835190928392604490910191908501908083836000831561035e578181015183820152602001610346565b506002546040516001600160a01b038084169216907f605c2dbf762e5f7d60a546d42e7205dcb1b011ebc62a61736a57c9089d3a435090600090a3600280546001600160a01b0319166001600160a01b0392909216919091179055565b6020015190565b828054600181600116156101000203166002900490600052602060002090601f016020900481019282601f10610fd257805160ff1916838001178555610fff565b82800160010185558215610fff579182015b82811115610fff578251825591602001919060010190610fe4565b5061100b92915061100f565b5090565b61102991905b8082111561100b5760008155600101611015565b9056fe3a2063616c6c6572206973206e6f7420746865206f776e6572000000000000003a206e6577206d616e6167657220697320746865207a65726f2061646472657373a265627a7a723158209a6c44839d76381cba4aac05222fe24f8bfe6bc964307602ceae85c180ae18cf64736f6c634300051100323a206e6577206d616e6167657220697320746865207a65726f2061646472657373",
  "source": "pragma solidity ^0.5.17;\n\nimport './ExternalStorage.sol';\nimport '../interfaces/storages/IRewardsStorage.sol';\n\ncontract RewardsStorage is ExternalStorage, IRewardsStorage {\n    mapping(bytes32 => uint256) private _percentages;\n    mapping(bytes32 => mapping(address => mapping(uint256 => uint256))) private _claimed;\n\n    constructor(address _manager) public ExternalStorage(_manager) {}\n\n    function setRewardPercentage(bytes32 asset, uint256 percentage) external onlyManager(managerName) {\n        _percentages[asset] = percentage;\n    }\n\n    function getRewardPercentage(bytes32 asset) external view returns (uint256) {\n        return _percentages[asset];\n    }\n\n    function setClaimed(\n        bytes32 asset,\n        address account,\n        uint256 period,\n        uint256 amount\n    ) external onlyManager(managerName) {\n        require(_claimed[asset][account][period] == 0, 'RewardsStorage: already claimed');\n        _claimed[asset][account][period] = _claimed[asset][account][period].add(amount);\n        _claimed[asset][address(0)][period] = _claimed[asset][address(0)][period].add(amount);\n    }\n\n    function getClaimed(\n        bytes32 asset,\n        address account,\n        uint256 period\n    ) external view returns (uint256) {\n        return _claimed[asset][account][period];\n    }\n}\n",
  "sourcePath": "/Users/sun/go/src/github.com/Dipper-Labs/DIPSYN/contracts/storages/RewardsStorage.sol",
  "compiler": {
    "name": "solc",
    "version": "0.5.17+commit.d19bba13.Emscripten.clang"
  },
  "schemaVersion": "3.3.4",
  "updatedAt": "2021-04-21T06:45:45.938Z",
  "networkType": "ethereum",
  "devdoc": {
    "methods": {}
  },
  "userdoc": {
    "methods": {}
  }
}