{
  "contractName": "SettingStorage",
  "abi": [
    {
      "inputs": [
        {
          "internalType": "address",
          "name": "_manager",
          "type": "address"
        }
      ],
      "payable": false,
      "stateMutability": "nonpayable",
      "type": "constructor"
    },
    {
      "anonymous": false,
      "inputs": [
        {
          "indexed": true,
          "internalType": "address",
          "name": "previousValue",
          "type": "address"
        },
        {
          "indexed": true,
          "internalType": "address",
          "name": "newValue",
          "type": "address"
        }
      ],
      "name": "ManagerChanged",
      "type": "event"
    },
    {
      "anonymous": false,
      "inputs": [
        {
          "indexed": true,
          "internalType": "address",
          "name": "previousValue",
          "type": "address"
        },
        {
          "indexed": true,
          "internalType": "address",
          "name": "newValue",
          "type": "address"
        }
      ],
      "name": "OwnerChanged",
      "type": "event"
    },
    {
      "constant": true,
      "inputs": [],
      "name": "contractName",
      "outputs": [
        {
          "internalType": "string",
          "name": "",
          "type": "string"
        }
      ],
      "payable": false,
      "stateMutability": "view",
      "type": "function"
    },
    {
      "constant": true,
      "inputs": [],
      "name": "manager",
      "outputs": [
        {
          "internalType": "address",
          "name": "",
          "type": "address"
        }
      ],
      "payable": false,
      "stateMutability": "view",
      "type": "function"
    },
    {
      "constant": true,
      "inputs": [],
      "name": "owner",
      "outputs": [
        {
          "internalType": "address",
          "name": "",
          "type": "address"
        }
      ],
      "payable": false,
      "stateMutability": "view",
      "type": "function"
    },
    {
      "constant": false,
      "inputs": [
        {
          "internalType": "address",
          "name": "_manager",
          "type": "address"
        }
      ],
      "name": "setManager",
      "outputs": [],
      "payable": false,
      "stateMutability": "nonpayable",
      "type": "function"
    },
    {
      "constant": false,
      "inputs": [
        {
          "internalType": "address",
          "name": "_owner",
          "type": "address"
        }
      ],
      "name": "setOwner",
      "outputs": [],
      "payable": false,
      "stateMutability": "nonpayable",
      "type": "function"
    },
    {
      "constant": false,
      "inputs": [
        {
          "internalType": "bytes32",
          "name": "key",
          "type": "bytes32"
        },
        {
          "internalType": "uint256",
          "name": "value",
          "type": "uint256"
        }
      ],
      "name": "incrementUint",
      "outputs": [
        {
          "internalType": "uint256",
          "name": "",
          "type": "uint256"
        }
      ],
      "payable": false,
      "stateMutability": "nonpayable",
      "type": "function"
    },
    {
      "constant": false,
      "inputs": [
        {
          "internalType": "bytes32",
          "name": "key",
          "type": "bytes32"
        },
        {
          "internalType": "bytes32",
          "name": "field",
          "type": "bytes32"
        },
        {
          "internalType": "uint256",
          "name": "value",
          "type": "uint256"
        }
      ],
      "name": "incrementUint",
      "outputs": [
        {
          "internalType": "uint256",
          "name": "",
          "type": "uint256"
        }
      ],
      "payable": false,
      "stateMutability": "nonpayable",
      "type": "function"
    },
    {
      "constant": false,
      "inputs": [
        {
          "internalType": "bytes32",
          "name": "key",
          "type": "bytes32"
        },
        {
          "internalType": "uint256",
          "name": "value",
          "type": "uint256"
        },
        {
          "internalType": "string",
          "name": "errorMessage",
          "type": "string"
        }
      ],
      "name": "decrementUint",
      "outputs": [
        {
          "internalType": "uint256",
          "name": "",
          "type": "uint256"
        }
      ],
      "payable": false,
      "stateMutability": "nonpayable",
      "type": "function"
    },
    {
      "constant": false,
      "inputs": [
        {
          "internalType": "bytes32",
          "name": "key",
          "type": "bytes32"
        },
        {
          "internalType": "bytes32",
          "name": "field",
          "type": "bytes32"
        },
        {
          "internalType": "uint256",
          "name": "value",
          "type": "uint256"
        },
        {
          "internalType": "string",
          "name": "errorMessage",
          "type": "string"
        }
      ],
      "name": "decrementUint",
      "outputs": [
        {
          "internalType": "uint256",
          "name": "",
          "type": "uint256"
        }
      ],
      "payable": false,
      "stateMutability": "nonpayable",
      "type": "function"
    },
    {
      "constant": false,
      "inputs": [
        {
          "internalType": "bytes32",
          "name": "key",
          "type": "bytes32"
        },
        {
          "internalType": "bytes32",
          "name": "field",
          "type": "bytes32"
        },
        {
          "internalType": "uint256",
          "name": "value",
          "type": "uint256"
        }
      ],
      "name": "setUint",
      "outputs": [],
      "payable": false,
      "stateMutability": "nonpayable",
      "type": "function"
    },
    {
      "constant": false,
      "inputs": [
        {
          "internalType": "bytes32",
          "name": "key",
          "type": "bytes32"
        },
        {
          "internalType": "uint256",
          "name": "value",
          "type": "uint256"
        }
      ],
      "name": "setUint",
      "outputs": [],
      "payable": false,
      "stateMutability": "nonpayable",
      "type": "function"
    },
    {
      "constant": true,
      "inputs": [
        {
          "internalType": "bytes32",
          "name": "key",
          "type": "bytes32"
        },
        {
          "internalType": "bytes32",
          "name": "field",
          "type": "bytes32"
        }
      ],
      "name": "getUint",
      "outputs": [
        {
          "internalType": "uint256",
          "name": "",
          "type": "uint256"
        }
      ],
      "payable": false,
      "stateMutability": "view",
      "type": "function"
    },
    {
      "constant": true,
      "inputs": [
        {
          "internalType": "bytes32",
          "name": "key",
          "type": "bytes32"
        }
      ],
      "name": "getUint",
      "outputs": [
        {
          "internalType": "uint256",
          "name": "",
          "type": "uint256"
        }
      ],
      "payable": false,
      "stateMutability": "view",
      "type": "function"
    }
  ],
  "bytecode": "0x60806040526636b0b730b3b2b960c91b6003553480156200001f57600080fd5b5060405162001e4138038062001e41833981810160405260208110156200004557600080fd5b505160018054336001600160a01b031991821681179092556002805490911690911790558062000075816200007d565b505062000755565b60018054604080518082018252601981527f3a2063616c6c6572206973206e6f7420746865206f776e657200000000000000602080830191909152600080548451600261010098831615989098026000190190911696909604601f81018390048302870183019094528386526001600160a01b039094163314946200016f949293909291830182828015620001565780601f106200012a5761010080835404028352916020019162000156565b820191906000526020600020905b8154815290600101906020018083116200013857829003601f168201915b5050505050620003ae60201b6200111b1790919060201c565b90620001fc5760405162461bcd60e51b81526004018080602001828103825283818151815260200191508051906020019080838360005b83811015620001c0578181015183820152602001620001a6565b50505050905090810190601f168015620001ee5780820380516001836020036101000a031916815260200191505b509250505060405180910390fd5b5062000213816200046d60201b620013481760201c565b6040805180820190915260078082526653746f7261676560c81b60209092019182526200024391600091620006b0565b5060025460408051631d74303760e21b8152905162000392926001600160a01b0316916375d0c0dc916004808301926000929190829003018186803b1580156200028c57600080fd5b505afa158015620002a1573d6000803e3d6000fd5b505050506040513d6000823e601f3d908101601f191682016040526020811015620002cb57600080fd5b8101908080516040519392919084640100000000821115620002ec57600080fd5b9083019060208201858111156200030257600080fd5b82516401000000008111828201881017156200031d57600080fd5b82525081516020918201929091019080838360005b838110156200034c57818101518382015260200162000332565b50505050905090810190601f1680156200037a5780820380516001836020036101000a031916815260200191505b50604052505050620006a960201b620015631760201c565b6003819055620003ab576636b0b730b3b2b960c91b6003555b50565b606082826040516020018083805190602001908083835b60208310620003e65780518252601f199092019160209182019101620003c5565b51815160209384036101000a600019018019909216911617905285519190930192850191508083835b60208310620004305780518252601f1990920191602091820191016200040f565b6001836020036101000a03801982511681845116808217855250505050505090500192505050604051602081830303815290604052905092915050565b60018054604080518082018252601981527f3a2063616c6c6572206973206e6f7420746865206f776e657200000000000000602080830191909152600080548451600261010098831615989098026000190190911696909604601f81018390048302870183019094528386526001600160a01b039094163314946200051a949293909291830182828015620001565780601f106200012a5761010080835404028352916020019162000156565b90620005695760405162461bcd60e51b8152602060048201818152835160248401528351909283926044909101919085019080838360008315620001c0578181015183820152602001620001a6565b5060006001600160a01b0316816001600160a01b03161415620005fd60405180606001604052806021815260200162001e20602191396000805460408051602060026001851615610100026000190190941693909304601f81018490048402820184019092528181529291830182828015620001565780601f106200012a5761010080835404028352916020019162000156565b906200064c5760405162461bcd60e51b8152602060048201818152835160248401528351909283926044909101919085019080838360008315620001c0578181015183820152602001620001a6565b506002546040516001600160a01b038084169216907f605c2dbf762e5f7d60a546d42e7205dcb1b011ebc62a61736a57c9089d3a435090600090a3600280546001600160a01b0319166001600160a01b0392909216919091179055565b6020015190565b828054600181600116156101000203166002900490600052602060002090601f016020900481019282601f10620006f357805160ff191683800117855562000723565b8280016001018555821562000723579182015b828111156200072357825182559160200191906001019062000706565b506200073192915062000735565b5090565b6200075291905b808211156200073157600081556001016200073c565b90565b6116bb80620007656000396000f3fe608060405234801561001057600080fd5b50600436106100af5760003560e01c806313af4035146100b45780631d60084b146100dc578063340dbab314610105578063481c6a751461013a5780634d3e1d381461015e57806356b57dda146101d85780635add12fb1461025957806375d0c0dc146102825780637a6ad926146102ff5780638da5cb5b14610322578063bd02d0f51461032a578063d0ebdbe714610347578063e2a4853a1461036d575b600080fd5b6100da600480360360208110156100ca57600080fd5b50356001600160a01b0316610390565b005b6100da600480360360608110156100f257600080fd5b5080359060208101359060400135610638565b6101286004803603604081101561011b57600080fd5b5080359060200135610778565b60408051918252519081900360200190f35b6101426108b0565b604080516001600160a01b039092168252519081900360200190f35b6101286004803603606081101561017457600080fd5b813591602081013591810190606081016040820135600160201b81111561019a57600080fd5b8201836020820111156101ac57600080fd5b803590602001918460018302840111600160201b831117156101cd57600080fd5b5090925090506108bf565b610128600480360360808110156101ee57600080fd5b81359160208101359160408201359190810190608081016060820135600160201b81111561021b57600080fd5b82018360208201111561022d57600080fd5b803590602001918460018302840111600160201b8311171561024e57600080fd5b509092509050610a2f565b6101286004803603606081101561026f57600080fd5b5080359060208101359060400135610b9c565b61028a610cd1565b6040805160208082528351818301528351919283929083019185019080838360005b838110156102c45781810151838201526020016102ac565b50505050905090810190601f1680156102f15780820380516001836020036101000a031916815260200191505b509250505060405180910390f35b6101286004803603604081101561031557600080fd5b5080359060200135610d5f565b610142610d7c565b6101286004803603602081101561034057600080fd5b5035610d8b565b6100da6004803603602081101561035d57600080fd5b50356001600160a01b0316610daa565b6100da6004803603604081101561038357600080fd5b5080359060200135611017565b6001805460408051808201825260198152600080516020611606833981519152602080830191909152600080548451600261010098831615989098026000190190911696909604601f81018390048302870183019094528386526001600160a01b039094163314946104659492939092918301828280156104525780601f1061042757610100808354040283529160200191610452565b820191906000526020600020905b81548152906001019060200180831161043557829003601f168201915b505050505061111b90919063ffffffff16565b906104ee5760405162461bcd60e51b81526004018080602001828103825283818151815260200191508051906020019080838360005b838110156104b357818101518382015260200161049b565b50505050905090810190601f1680156104e05780820380516001836020036101000a031916815260200191505b509250505060405180910390fd5b50604080518082018252601f8082527f3a206e6577206f776e657220697320746865207a65726f206164647265737300602080840191909152600080548551600260001961010060018516150201909216919091049384018390048302810183019095528285526001600160a01b03861615159461058f949390928301828280156104525780601f1061042757610100808354040283529160200191610452565b906105db5760405162461bcd60e51b81526020600482018181528351602484015283519092839260449091019190850190808383600083156104b357818101518382015260200161049b565b506001546040516001600160a01b038084169216907fb532073b38c83145e3e5135377a08bf9aab55bc0fd7c1179cd4fb995d2a5159c90600090a3600180546001600160a01b0319166001600160a01b0392909216919091179055565b60035460028054604080518082018252601481526000805160206116268339815191526020808301919091526000805484516101006001831615026000190190911696909604601f81018390048302870183019094528386526001600160a01b0390941633149461070e949293879391928301828280156106fa5780601f106106cf576101008083540402835291602001916106fa565b820191906000526020600020905b8154815290600101906020018083116106dd57829003601f168201915b50505050506111d69092919063ffffffff16565b9061075a5760405162461bcd60e51b81526020600482018181528351602484015283519092839260449091019190850190808383600083156104b357818101518382015260200161049b565b50506000928352600460209081526040808520938552929052912055565b60035460028054604080518082018252601481526000805160206116268339815191526020808301919091526000805484516101006001831615026000190190911696909604601f810183900483028701830190945283865295946001600160a01b039094163314936108109386928891908301828280156106fa5780601f106106cf576101008083540402835291602001916106fa565b9061085c5760405162461bcd60e51b81526020600482018181528351602484015283519092839260449091019190850190808383600083156104b357818101518382015260200161049b565b5060008481526000805160206116678339815191526020526040902054610889908463ffffffff61128f16565b60009485526000805160206116678339815191526020526040909420849055509192915050565b6002546001600160a01b031681565b60035460028054604080518082018252601481526000805160206116268339815191526020808301919091526000805484516101006001831615026000190190911696909604601f810183900483028701830190945283865295946001600160a01b039094163314936109579386928891908301828280156106fa5780601f106106cf576101008083540402835291602001916106fa565b906109a35760405162461bcd60e51b81526020600482018181528351602484015283519092839260449091019190850190808383600083156104b357818101518382015260200161049b565b50610a068585858080601f01602080910402602001604051908101604052809392919081815260200183838082843760009201829052508c81526000805160206116678339815191526020526040902054949392505063ffffffff6112ee169050565b600096875260008051602061166783398151915260205260409096208690555093949350505050565b60035460028054604080518082018252601481526000805160206116268339815191526020808301919091526000805484516101006001831615026000190190911696909604601f810183900483028701830190945283865295946001600160a01b03909416331493610ac79386928891908301828280156106fa5780601f106106cf576101008083540402835291602001916106fa565b90610b135760405162461bcd60e51b81526020600482018181528351602484015283519092839260449091019190850190808383600083156104b357818101518382015260200161049b565b50610b748585858080601f01602080910402602001604051908101604052809392919081815260200183838082843760009201829052508d81526004602090815260408083208f8452909152902054949392505063ffffffff6112ee169050565b6000978852600460209081526040808a20988a52979052959096208590555092949350505050565b60035460028054604080518082018252601481526000805160206116268339815191526020808301919091526000805484516101006001831615026000190190911696909604601f810183900483028701830190945283865295946001600160a01b03909416331493610c349386928891908301828280156106fa5780601f106106cf576101008083540402835291602001916106fa565b90610c805760405162461bcd60e51b81526020600482018181528351602484015283519092839260449091019190850190808383600083156104b357818101518382015260200161049b565b506000858152600460209081526040808320878452909152902054610cab908463ffffffff61128f16565b600095865260046020908152604080882096885295905293909420839055509092915050565b6000805460408051602060026001851615610100026000190190941693909304601f81018490048402820184019092528181529291830182828015610d575780601f10610d2c57610100808354040283529160200191610d57565b820191906000526020600020905b815481529060010190602001808311610d3a57829003601f168201915b505050505081565b600091825260046020908152604080842092845291905290205490565b6001546001600160a01b031681565b6000908152600080516020611667833981519152602052604090205490565b6001805460408051808201825260198152600080516020611606833981519152602080830191909152600080548451600261010098831615989098026000190190911696909604601f81018390048302870183019094528386526001600160a01b03909416331494610e419492939092918301828280156104525780601f1061042757610100808354040283529160200191610452565b90610e8d5760405162461bcd60e51b81526020600482018181528351602484015283519092839260449091019190850190808383600083156104b357818101518382015260200161049b565b50610e9781611348565b6040805180820190915260078082526653746f7261676560c81b6020909201918252610ec59160009161156a565b5060025460408051631d74303760e21b81529051610ffc926001600160a01b0316916375d0c0dc916004808301926000929190829003018186803b158015610f0c57600080fd5b505afa158015610f20573d6000803e3d6000fd5b505050506040513d6000823e601f3d908101601f191682016040526020811015610f4957600080fd5b8101908080516040519392919084600160201b821115610f6857600080fd5b908301906020820185811115610f7d57600080fd5b8251600160201b811182820188101715610f9657600080fd5b82525081516020918201929091019080838360005b83811015610fc3578181015183820152602001610fab565b50505050905090810190601f168015610ff05780820380516001836020036101000a031916815260200191505b50604052505050611563565b6003819055611014576636b0b730b3b2b960c91b6003555b50565b60035460028054604080518082018252601481526000805160206116268339815191526020808301919091526000805484516101006001831615026000190190911696909604601f81018390048302870183019094528386526001600160a01b039094163314946110ae949293879391928301828280156106fa5780601f106106cf576101008083540402835291602001916106fa565b906110fa5760405162461bcd60e51b81526020600482018181528351602484015283519092839260449091019190850190808383600083156104b357818101518382015260200161049b565b50506000918252600080516020611667833981519152602052604090912055565b606082826040516020018083805190602001908083835b602083106111515780518252601f199092019160209182019101611132565b51815160209384036101000a600019018019909216911617905285519190930192850191508083835b602083106111995780518252601f19909201916020918201910161117a565b6001836020036101000a03801982511681845116808217855250505050505090500192505050604051602081830303815290604052905092915050565b60608383836040516020018084805190602001908083835b6020831061120d5780518252601f1990920191602091820191016111ee565b51815160209384036101000a600019018019909216911617905286519190930192860191508083835b602083106112555780518252601f199092019160209182019101611236565b51815160209384036101000a6000190180199092169116179052920193845250604080518085038152939091019052509695505050505050565b6000828201838110156112e7576040805162461bcd60e51b815260206004820152601b60248201527a536166654d6174683a206164646974696f6e206f766572666c6f7760281b604482015290519081900360640190fd5b9392505050565b600081848411156113405760405162461bcd60e51b81526020600482018181528351602484015283519092839260449091019190850190808383600083156104b357818101518382015260200161049b565b505050900390565b6001805460408051808201825260198152600080516020611606833981519152602080830191909152600080548451600261010098831615989098026000190190911696909604601f81018390048302870183019094528386526001600160a01b039094163314946113df9492939092918301828280156104525780601f1061042757610100808354040283529160200191610452565b9061142b5760405162461bcd60e51b81526020600482018181528351602484015283519092839260449091019190850190808383600083156104b357818101518382015260200161049b565b5060006001600160a01b0316816001600160a01b031614156114ba604051806060016040528060218152602001611646602191396000805460408051602060026001851615610100026000190190941693909304601f810184900484028201840190925281815292918301828280156104525780601f1061042757610100808354040283529160200191610452565b906115065760405162461bcd60e51b81526020600482018181528351602484015283519092839260449091019190850190808383600083156104b357818101518382015260200161049b565b506002546040516001600160a01b038084169216907f605c2dbf762e5f7d60a546d42e7205dcb1b011ebc62a61736a57c9089d3a435090600090a3600280546001600160a01b0319166001600160a01b0392909216919091179055565b6020015190565b828054600181600116156101000203166002900490600052602060002090601f016020900481019282601f106115ab57805160ff19168380011785556115d8565b828001600101855582156115d8579182015b828111156115d85782518255916020019190600101906115bd565b506115e49291506115e8565b5090565b61160291905b808211156115e457600081556001016115ee565b9056fe3a2063616c6c6572206973206e6f7420746865206f776e6572000000000000003a2063616c6c6572206973206e6f7420746865200000000000000000000000003a206e6577206d616e6167657220697320746865207a65726f206164647265737363b57873d6dee39a834aac03707c53ddaf447b4c07e49e80709afd429e40dea3a265627a7a723158209d9a3303c484b9778db7b21ab98814cec3830d97280b801f5d71fab77cc8971964736f6c634300051100323a206e6577206d616e6167657220697320746865207a65726f2061646472657373",
  "source": "pragma solidity ^0.5.17;\n\nimport './ExternalStorage.sol';\nimport '../interfaces/storages/ISettingStorage.sol';\n\ncontract SettingStorage is ExternalStorage, ISettingStorage {\n    mapping(bytes32 => mapping(bytes32 => uint256)) private _storage;\n\n    constructor(address _manager) public ExternalStorage(_manager) {}\n\n    function incrementUint(\n        bytes32 key,\n        bytes32 field,\n        uint256 value\n    ) external onlyManager(managerName) returns (uint256) {\n        _storage[key][field] = _storage[key][field].add(value);\n        return _storage[key][field];\n    }\n\n    function decrementUint(\n        bytes32 key,\n        bytes32 field,\n        uint256 value,\n        string calldata errorMessage\n    ) external onlyManager(managerName) returns (uint256) {\n        _storage[key][field] = _storage[key][field].sub(value, errorMessage);\n        return _storage[key][field];\n    }\n\n    function setUint(\n        bytes32 key,\n        bytes32 field,\n        uint256 value\n    ) external onlyManager(managerName) {\n        _storage[key][field] = value;\n    }\n\n    function getUint(bytes32 key, bytes32 field) external view returns (uint256) {\n        return _storage[key][field];\n    }\n\n    function incrementUint(bytes32 key, uint256 value) external onlyManager(managerName) returns (uint256) {\n        _storage[DEFAULT][key] = _storage[DEFAULT][key].add(value);\n        return _storage[DEFAULT][key];\n    }\n\n    function decrementUint(\n        bytes32 key,\n        uint256 value,\n        string calldata errorMessage\n    ) external onlyManager(managerName) returns (uint256) {\n        _storage[DEFAULT][key] = _storage[DEFAULT][key].sub(value, errorMessage);\n        return _storage[DEFAULT][key];\n    }\n\n    function setUint(bytes32 key, uint256 value) external onlyManager(managerName) {\n        _storage[DEFAULT][key] = value;\n    }\n\n    function getUint(bytes32 key) external view returns (uint256) {\n        return _storage[DEFAULT][key];\n    }\n}\n",
  "sourcePath": "/Users/sun/go/src/github.com/Dipper-Labs/DIPSYN/contracts/storages/SettingStorage.sol",
  "compiler": {
    "name": "solc",
    "version": "0.5.17+commit.d19bba13.Emscripten.clang"
  },
  "schemaVersion": "3.3.4",
  "updatedAt": "2021-04-21T06:45:45.940Z",
  "networkType": "ethereum",
  "devdoc": {
    "methods": {}
  },
  "userdoc": {
    "methods": {}
  }
}