{
  "contractName": "Setting",
  "abi": [
    {
      "inputs": [],
      "payable": false,
      "stateMutability": "nonpayable",
      "type": "constructor"
    },
    {
      "anonymous": false,
      "inputs": [
        {
          "indexed": true,
          "internalType": "address",
          "name": "previousValue",
          "type": "address"
        },
        {
          "indexed": true,
          "internalType": "address",
          "name": "newValue",
          "type": "address"
        }
      ],
      "name": "ManagerChanged",
      "type": "event"
    },
    {
      "anonymous": false,
      "inputs": [
        {
          "indexed": true,
          "internalType": "address",
          "name": "previousValue",
          "type": "address"
        },
        {
          "indexed": true,
          "internalType": "address",
          "name": "newValue",
          "type": "address"
        }
      ],
      "name": "OwnerChanged",
      "type": "event"
    },
    {
      "anonymous": false,
      "inputs": [
        {
          "indexed": true,
          "internalType": "bytes32",
          "name": "name",
          "type": "bytes32"
        },
        {
          "indexed": true,
          "internalType": "bytes32",
          "name": "field",
          "type": "bytes32"
        },
        {
          "indexed": false,
          "internalType": "uint256",
          "name": "previousValue",
          "type": "uint256"
        },
        {
          "indexed": false,
          "internalType": "uint256",
          "name": "newValue",
          "type": "uint256"
        }
      ],
      "name": "SettingChanged",
      "type": "event"
    },
    {
      "anonymous": false,
      "inputs": [
        {
          "indexed": true,
          "internalType": "bytes32",
          "name": "name",
          "type": "bytes32"
        },
        {
          "indexed": true,
          "internalType": "bytes32",
          "name": "field",
          "type": "bytes32"
        },
        {
          "indexed": false,
          "internalType": "address",
          "name": "previousValue",
          "type": "address"
        },
        {
          "indexed": false,
          "internalType": "address",
          "name": "newValue",
          "type": "address"
        }
      ],
      "name": "SettingChanged",
      "type": "event"
    },
    {
      "anonymous": false,
      "inputs": [
        {
          "indexed": true,
          "internalType": "address",
          "name": "previousValue",
          "type": "address"
        },
        {
          "indexed": true,
          "internalType": "address",
          "name": "newValue",
          "type": "address"
        }
      ],
      "name": "StorageChanged",
      "type": "event"
    },
    {
      "constant": true,
      "inputs": [],
      "name": "contractName",
      "outputs": [
        {
          "internalType": "string",
          "name": "",
          "type": "string"
        }
      ],
      "payable": false,
      "stateMutability": "view",
      "type": "function"
    },
    {
      "constant": true,
      "inputs": [],
      "name": "getStorage",
      "outputs": [
        {
          "internalType": "address",
          "name": "",
          "type": "address"
        }
      ],
      "payable": false,
      "stateMutability": "view",
      "type": "function"
    },
    {
      "constant": true,
      "inputs": [],
      "name": "manager",
      "outputs": [
        {
          "internalType": "address",
          "name": "",
          "type": "address"
        }
      ],
      "payable": false,
      "stateMutability": "view",
      "type": "function"
    },
    {
      "constant": true,
      "inputs": [],
      "name": "owner",
      "outputs": [
        {
          "internalType": "address",
          "name": "",
          "type": "address"
        }
      ],
      "payable": false,
      "stateMutability": "view",
      "type": "function"
    },
    {
      "constant": false,
      "inputs": [
        {
          "internalType": "address",
          "name": "_manager",
          "type": "address"
        }
      ],
      "name": "setManager",
      "outputs": [],
      "payable": false,
      "stateMutability": "nonpayable",
      "type": "function"
    },
    {
      "constant": false,
      "inputs": [
        {
          "internalType": "address",
          "name": "_owner",
          "type": "address"
        }
      ],
      "name": "setOwner",
      "outputs": [],
      "payable": false,
      "stateMutability": "nonpayable",
      "type": "function"
    },
    {
      "constant": false,
      "inputs": [
        {
          "internalType": "address",
          "name": "value",
          "type": "address"
        }
      ],
      "name": "setStorage",
      "outputs": [],
      "payable": false,
      "stateMutability": "nonpayable",
      "type": "function"
    },
    {
      "constant": false,
      "inputs": [
        {
          "internalType": "bytes32",
          "name": "asset",
          "type": "bytes32"
        },
        {
          "internalType": "uint256",
          "name": "rate",
          "type": "uint256"
        }
      ],
      "name": "setCollateralRate",
      "outputs": [],
      "payable": false,
      "stateMutability": "nonpayable",
      "type": "function"
    },
    {
      "constant": true,
      "inputs": [
        {
          "internalType": "bytes32",
          "name": "asset",
          "type": "bytes32"
        }
      ],
      "name": "getCollateralRate",
      "outputs": [
        {
          "internalType": "uint256",
          "name": "",
          "type": "uint256"
        }
      ],
      "payable": false,
      "stateMutability": "view",
      "type": "function"
    },
    {
      "constant": false,
      "inputs": [
        {
          "internalType": "bytes32",
          "name": "asset",
          "type": "bytes32"
        },
        {
          "internalType": "uint256",
          "name": "rate",
          "type": "uint256"
        }
      ],
      "name": "setLiquidationRate",
      "outputs": [],
      "payable": false,
      "stateMutability": "nonpayable",
      "type": "function"
    },
    {
      "constant": true,
      "inputs": [
        {
          "internalType": "bytes32",
          "name": "asset",
          "type": "bytes32"
        }
      ],
      "name": "getLiquidationRate",
      "outputs": [
        {
          "internalType": "uint256",
          "name": "",
          "type": "uint256"
        }
      ],
      "payable": false,
      "stateMutability": "view",
      "type": "function"
    },
    {
      "constant": false,
      "inputs": [
        {
          "internalType": "bytes32",
          "name": "asset",
          "type": "bytes32"
        },
        {
          "internalType": "uint256",
          "name": "rate",
          "type": "uint256"
        }
      ],
      "name": "setLiquidationFeeRate",
      "outputs": [],
      "payable": false,
      "stateMutability": "nonpayable",
      "type": "function"
    },
    {
      "constant": true,
      "inputs": [
        {
          "internalType": "bytes32",
          "name": "asset",
          "type": "bytes32"
        }
      ],
      "name": "getLiquidationFeeRate",
      "outputs": [
        {
          "internalType": "uint256",
          "name": "",
          "type": "uint256"
        }
      ],
      "payable": false,
      "stateMutability": "view",
      "type": "function"
    },
    {
      "constant": false,
      "inputs": [
        {
          "internalType": "uint256",
          "name": "delay",
          "type": "uint256"
        }
      ],
      "name": "setLiquidationDelay",
      "outputs": [],
      "payable": false,
      "stateMutability": "nonpayable",
      "type": "function"
    },
    {
      "constant": true,
      "inputs": [],
      "name": "getLiquidationDelay",
      "outputs": [
        {
          "internalType": "uint256",
          "name": "",
          "type": "uint256"
        }
      ],
      "payable": false,
      "stateMutability": "view",
      "type": "function"
    },
    {
      "constant": false,
      "inputs": [
        {
          "internalType": "bytes32",
          "name": "asset",
          "type": "bytes32"
        },
        {
          "internalType": "uint256",
          "name": "rate",
          "type": "uint256"
        }
      ],
      "name": "setTradingFeeRate",
      "outputs": [],
      "payable": false,
      "stateMutability": "nonpayable",
      "type": "function"
    },
    {
      "constant": true,
      "inputs": [
        {
          "internalType": "bytes32",
          "name": "asset",
          "type": "bytes32"
        }
      ],
      "name": "getTradingFeeRate",
      "outputs": [
        {
          "internalType": "uint256",
          "name": "",
          "type": "uint256"
        }
      ],
      "payable": false,
      "stateMutability": "view",
      "type": "function"
    },
    {
      "constant": false,
      "inputs": [
        {
          "internalType": "uint256",
          "name": "time",
          "type": "uint256"
        }
      ],
      "name": "setMinStakeTime",
      "outputs": [],
      "payable": false,
      "stateMutability": "nonpayable",
      "type": "function"
    },
    {
      "constant": true,
      "inputs": [],
      "name": "getMinStakeTime",
      "outputs": [
        {
          "internalType": "uint256",
          "name": "",
          "type": "uint256"
        }
      ],
      "payable": false,
      "stateMutability": "view",
      "type": "function"
    },
    {
      "constant": false,
      "inputs": [
        {
          "internalType": "uint256",
          "name": "time",
          "type": "uint256"
        }
      ],
      "name": "setMintPeriodDuration",
      "outputs": [],
      "payable": false,
      "stateMutability": "nonpayable",
      "type": "function"
    },
    {
      "constant": true,
      "inputs": [],
      "name": "getMintPeriodDuration",
      "outputs": [
        {
          "internalType": "uint256",
          "name": "",
          "type": "uint256"
        }
      ],
      "payable": false,
      "stateMutability": "view",
      "type": "function"
    }
  ],
  "bytecode": "0x60806040523480156200001157600080fd5b5060018054336001600160a01b03199182168117909255600280549091169091179055620000496653657474696e6760c81b6200004f565b62000125565b60408051602080820184905282518083038201815291830190925280516200007c92600092019062000080565b5050565b828054600181600116156101000203166002900490600052602060002090601f016020900481019282601f10620000c357805160ff1916838001178555620000f3565b82800160010185558215620000f3579182015b82811115620000f3578251825591602001919060010190620000d6565b506200010192915062000105565b5090565b6200012291905b808211156200010157600081556001016200010c565b90565b611eb780620001356000396000f3fe608060405234801561001057600080fd5b50600436106101075760003560e01c806313af40351461010c5780632f719131146101345780633408f73a14610157578063481c6a751461017b578063551c3b3d146101835780635e0117d6146101a65780636a5ee7b6146101c35780637334d62b146101f257806375d0c0dc146101fa5780638d3af9a2146102775780638da5cb5b1461027f5780639137c1a7146102875780639d7aa2ba146102ad578063a228b14f146102d0578063c303fced146102d8578063c85fa785146102f5578063d0ebdbe714610318578063df4eafd41461033e578063f8815e6a1461035b578063f992641214610378578063fdbafe0b14610395575b600080fd5b6101326004803603602081101561012257600080fd5b50356001600160a01b03166103b2565b005b6101326004803603604081101561014a57600080fd5b508035906020013561065a565b61015f610894565b604080516001600160a01b039092168252519081900360200190f35b61015f61098a565b6101326004803603604081101561019957600080fd5b5080359060200135610999565b610132600480360360208110156101bc57600080fd5b5035610bc0565b6101e0600480360360208110156101d957600080fd5b5035610ded565b60408051918252519081900360200190f35b6101e0610e85565b610202610f18565b6040805160208082528351818301528351919283929083019185019080838360005b8381101561023c578181015183820152602001610224565b50505050905090810190601f1680156102695780820380516001836020036101000a031916815260200191505b509250505060405180910390f35b6101e0610fa6565b61015f611002565b6101326004803603602081101561029d57600080fd5b50356001600160a01b0316611011565b610132600480360360408110156102c357600080fd5b5080359060200135611151565b6101e061136c565b6101e0600480360360208110156102ee57600080fd5b50356113cc565b6101326004803603604081101561030b57600080fd5b5080359060200135611432565b6101326004803603602081101561032e57600080fd5b50356001600160a01b031661164d565b6101326004803603602081101561035457600080fd5b5035611868565b6101e06004803603602081101561037157600080fd5b5035611a6e565b6101326004803603602081101561038e57600080fd5b5035611ad5565b6101e0600480360360208110156103ab57600080fd5b5035611ced565b6001805460408051808201825260198152600080516020611e22833981519152602080830191909152600080548451600261010098831615989098026000190190911696909604601f81018390048302870183019094528386526001600160a01b039094163314946104879492939092918301828280156104745780601f1061044957610100808354040283529160200191610474565b820191906000526020600020905b81548152906001019060200180831161045757829003601f168201915b5050505050611d5790919063ffffffff16565b906105105760405162461bcd60e51b81526004018080602001828103825283818151815260200191508051906020019080838360005b838110156104d55781810151838201526020016104bd565b50505050905090810190601f1680156105025780820380516001836020036101000a031916815260200191505b509250505060405180910390fd5b50604080518082018252601f8082527f3a206e6577206f776e657220697320746865207a65726f206164647265737300602080840191909152600080548551600260001961010060018516150201909216919091049384018390048302810183019095528285526001600160a01b0386161515946105b1949390928301828280156104745780601f1061044957610100808354040283529160200191610474565b906105fd5760405162461bcd60e51b81526020600482018181528351602484015283519092839260449091019190850190808383600083156104d55781810151838201526020016104bd565b506001546040516001600160a01b038084169216907fb532073b38c83145e3e5135377a08bf9aab55bc0fd7c1179cd4fb995d2a5159c90600090a3600180546001600160a01b0319166001600160a01b0392909216919091179055565b6001805460408051808201825260198152600080516020611e22833981519152602080830191909152600080548451600261010098831615989098026000190190911696909604601f81018390048302870183019094528386526001600160a01b039094163314946106f19492939092918301828280156104745780601f1061044957610100808354040283529160200191610474565b9061073d5760405162461bcd60e51b81526020600482018181528351602484015283519092839260449091019190850190808383600083156104d55781810151838201526020016104bd565b50816e4c69717569646174696f6e5261746560881b600080516020611e63833981519152610769611e12565b6001600160a01b0316637a6ad9266e4c69717569646174696f6e5261746560881b876040518363ffffffff1660e01b8152600401808381526020018281526020019250505060206040518083038186803b1580156107c657600080fd5b505afa1580156107da573d6000803e3d6000fd5b505050506040513d60208110156107f057600080fd5b505160408051918252602082018690528051918290030190a3610811611e12565b6001600160a01b0316631d60084b6e4c69717569646174696f6e5261746560881b84846040518463ffffffff1660e01b8152600401808481526020018381526020018281526020019350505050600060405180830381600087803b15801561087857600080fd5b505af115801561088c573d6000803e3d6000fd5b505050505050565b60035460408051808201825260118152700e8814dd1bdc9859d9481b9bdd081cd95d607a1b60208083019190915260008054845160026101006001841615026000190190921691909104601f810184900484028201840190955284815290946001600160a01b031615159361092d93928691908301828280156104745780601f1061044957610100808354040283529160200191610474565b906109795760405162461bcd60e51b81526020600482018181528351602484015283519092839260449091019190850190808383600083156104d55781810151838201526020016104bd565b50506003546001600160a01b031690565b6002546001600160a01b031681565b6001805460408051808201825260198152600080516020611e22833981519152602080830191909152600080548451600261010098831615989098026000190190911696909604601f81018390048302870183019094528386526001600160a01b03909416331494610a309492939092918301828280156104745780601f1061044957610100808354040283529160200191610474565b90610a7c5760405162461bcd60e51b81526020600482018181528351602484015283519092839260449091019190850190808383600083156104d55781810151838201526020016104bd565b5081714c69717569646174696f6e4665655261746560701b600080516020611e63833981519152610aab611e12565b6001600160a01b0316637a6ad926714c69717569646174696f6e4665655261746560701b876040518363ffffffff1660e01b8152600401808381526020018281526020019250505060206040518083038186803b158015610b0b57600080fd5b505afa158015610b1f573d6000803e3d6000fd5b505050506040513d6020811015610b3557600080fd5b505160408051918252602082018690528051918290030190a3610b56611e12565b6001600160a01b0316631d60084b714c69717569646174696f6e4665655261746560701b84846040518463ffffffff1660e01b8152600401808481526020018381526020018281526020019350505050600060405180830381600087803b15801561087857600080fd5b6001805460408051808201825260198152600080516020611e22833981519152602080830191909152600080548451600261010098831615989098026000190190911696909604601f81018390048302870183019094528386526001600160a01b03909416331494610c579492939092918301828280156104745780601f1061044957610100808354040283529160200191610474565b90610ca35760405162461bcd60e51b81526020600482018181528351602484015283519092839260449091019190850190808383600083156104d55781810151838201526020016104bd565b5060006f4c69717569646174696f6e44656c617960801b600080516020611e63833981519152610cd1611e12565b6001600160a01b031663bd02d0f56f4c69717569646174696f6e44656c617960801b6040518263ffffffff1660e01b81526004018082815260200191505060206040518083038186803b158015610d2757600080fd5b505afa158015610d3b573d6000803e3d6000fd5b505050506040513d6020811015610d5157600080fd5b505160408051918252602082018690528051918290030190a3610d72611e12565b6001600160a01b031663e2a4853a6f4c69717569646174696f6e44656c617960801b836040518363ffffffff1660e01b81526004018083815260200182815260200192505050600060405180830381600087803b158015610dd257600080fd5b505af1158015610de6573d6000803e3d6000fd5b5050505050565b6000610df7611e12565b6001600160a01b0316637a6ad9266d436f6c6c61746572616c5261746560901b846040518363ffffffff1660e01b8152600401808381526020018281526020019250505060206040518083038186803b158015610e5357600080fd5b505afa158015610e67573d6000803e3d6000fd5b505050506040513d6020811015610e7d57600080fd5b505192915050565b6000610e8f611e12565b6001600160a01b031663bd02d0f57126b4b73a2832b934b7b2223ab930ba34b7b760711b6040518263ffffffff1660e01b81526004018082815260200191505060206040518083038186803b158015610ee757600080fd5b505afa158015610efb573d6000803e3d6000fd5b505050506040513d6020811015610f1157600080fd5b5051905090565b6000805460408051602060026001851615610100026000190190941693909304601f81018490048402820184019092528181529291830182828015610f9e5780601f10610f7357610100808354040283529160200191610f9e565b820191906000526020600020905b815481529060010190602001808311610f8157829003601f168201915b505050505081565b6000610fb0611e12565b6001600160a01b031663bd02d0f56b4d696e5374616b6554696d6560a01b6040518263ffffffff1660e01b81526004018082815260200191505060206040518083038186803b158015610ee757600080fd5b6001546001600160a01b031681565b6001805460408051808201825260198152600080516020611e22833981519152602080830191909152600080548451600261010098831615989098026000190190911696909604601f81018390048302870183019094528386526001600160a01b039094163314946110a89492939092918301828280156104745780601f1061044957610100808354040283529160200191610474565b906110f45760405162461bcd60e51b81526020600482018181528351602484015283519092839260449091019190850190808383600083156104d55781810151838201526020016104bd565b506003546040516001600160a01b038084169216907f85a70e3ed8a3924b3769cbe4e925987bbd40e8cea31487cbe13bee7b727310a490600090a3600380546001600160a01b0319166001600160a01b0392909216919091179055565b6001805460408051808201825260198152600080516020611e22833981519152602080830191909152600080548451600261010098831615989098026000190190911696909604601f81018390048302870183019094528386526001600160a01b039094163314946111e89492939092918301828280156104745780601f1061044957610100808354040283529160200191610474565b906112345760405162461bcd60e51b81526020600482018181528351602484015283519092839260449091019190850190808383600083156104d55781810151838201526020016104bd565b50816d436f6c6c61746572616c5261746560901b600080516020611e6383398151915261125f611e12565b6001600160a01b0316637a6ad9266d436f6c6c61746572616c5261746560901b876040518363ffffffff1660e01b8152600401808381526020018281526020019250505060206040518083038186803b1580156112bb57600080fd5b505afa1580156112cf573d6000803e3d6000fd5b505050506040513d60208110156112e557600080fd5b505160408051918252602082018690528051918290030190a3611306611e12565b6001600160a01b0316631d60084b6d436f6c6c61746572616c5261746560901b84846040518463ffffffff1660e01b8152600401808481526020018381526020018281526020019350505050600060405180830381600087803b15801561087857600080fd5b6000611376611e12565b6001600160a01b031663bd02d0f56f4c69717569646174696f6e44656c617960801b6040518263ffffffff1660e01b81526004018082815260200191505060206040518083038186803b158015610ee757600080fd5b60006113d6611e12565b6001600160a01b0316637a6ad9266d54726164696e674665655261746560901b846040518363ffffffff1660e01b8152600401808381526020018281526020019250505060206040518083038186803b158015610e5357600080fd5b6001805460408051808201825260198152600080516020611e22833981519152602080830191909152600080548451600261010098831615989098026000190190911696909604601f81018390048302870183019094528386526001600160a01b039094163314946114c99492939092918301828280156104745780601f1061044957610100808354040283529160200191610474565b906115155760405162461bcd60e51b81526020600482018181528351602484015283519092839260449091019190850190808383600083156104d55781810151838201526020016104bd565b50816d54726164696e674665655261746560901b600080516020611e63833981519152611540611e12565b6001600160a01b0316637a6ad9266d54726164696e674665655261746560901b876040518363ffffffff1660e01b8152600401808381526020018281526020019250505060206040518083038186803b15801561159c57600080fd5b505afa1580156115b0573d6000803e3d6000fd5b505050506040513d60208110156115c657600080fd5b505160408051918252602082018690528051918290030190a36115e7611e12565b6001600160a01b0316631d60084b6d54726164696e674665655261746560901b84846040518463ffffffff1660e01b8152600401808481526020018381526020018281526020019350505050600060405180830381600087803b15801561087857600080fd5b6001805460408051808201825260198152600080516020611e22833981519152602080830191909152600080548451600261010098831615989098026000190190911696909604601f81018390048302870183019094528386526001600160a01b039094163314946116e49492939092918301828280156104745780601f1061044957610100808354040283529160200191610474565b906117305760405162461bcd60e51b81526020600482018181528351602484015283519092839260449091019190850190808383600083156104d55781810151838201526020016104bd565b5060006001600160a01b0316816001600160a01b031614156117bf604051806060016040528060218152602001611e42602191396000805460408051602060026001851615610100026000190190941693909304601f810184900484028201840190925281815292918301828280156104745780601f1061044957610100808354040283529160200191610474565b9061180b5760405162461bcd60e51b81526020600482018181528351602484015283519092839260449091019190850190808383600083156104d55781810151838201526020016104bd565b506002546040516001600160a01b038084169216907f605c2dbf762e5f7d60a546d42e7205dcb1b011ebc62a61736a57c9089d3a435090600090a3600280546001600160a01b0319166001600160a01b0392909216919091179055565b6001805460408051808201825260198152600080516020611e22833981519152602080830191909152600080548451600261010098831615989098026000190190911696909604601f81018390048302870183019094528386526001600160a01b039094163314946118ff9492939092918301828280156104745780601f1061044957610100808354040283529160200191610474565b9061194b5760405162461bcd60e51b81526020600482018181528351602484015283519092839260449091019190850190808383600083156104d55781810151838201526020016104bd565b5060006b4d696e5374616b6554696d6560a01b600080516020611e63833981519152611975611e12565b6001600160a01b031663bd02d0f56b4d696e5374616b6554696d6560a01b6040518263ffffffff1660e01b81526004018082815260200191505060206040518083038186803b1580156119c757600080fd5b505afa1580156119db573d6000803e3d6000fd5b505050506040513d60208110156119f157600080fd5b505160408051918252602082018690528051918290030190a3611a12611e12565b6001600160a01b031663e2a4853a6b4d696e5374616b6554696d6560a01b836040518363ffffffff1660e01b81526004018083815260200182815260200192505050600060405180830381600087803b158015610dd257600080fd5b6000611a78611e12565b6001600160a01b0316637a6ad9266e4c69717569646174696f6e5261746560881b846040518363ffffffff1660e01b8152600401808381526020018281526020019250505060206040518083038186803b158015610e5357600080fd5b6001805460408051808201825260198152600080516020611e22833981519152602080830191909152600080548451600261010098831615989098026000190190911696909604601f81018390048302870183019094528386526001600160a01b03909416331494611b6c9492939092918301828280156104745780601f1061044957610100808354040283529160200191610474565b90611bb85760405162461bcd60e51b81526020600482018181528351602484015283519092839260449091019190850190808383600083156104d55781810151838201526020016104bd565b5060007126b4b73a2832b934b7b2223ab930ba34b7b760711b600080516020611e63833981519152611be8611e12565b6001600160a01b031663bd02d0f57126b4b73a2832b934b7b2223ab930ba34b7b760711b6040518263ffffffff1660e01b81526004018082815260200191505060206040518083038186803b158015611c4057600080fd5b505afa158015611c54573d6000803e3d6000fd5b505050506040513d6020811015611c6a57600080fd5b505160408051918252602082018690528051918290030190a3611c8b611e12565b6001600160a01b031663e2a4853a7126b4b73a2832b934b7b2223ab930ba34b7b760711b836040518363ffffffff1660e01b81526004018083815260200182815260200192505050600060405180830381600087803b158015610dd257600080fd5b6000611cf7611e12565b6001600160a01b0316637a6ad926714c69717569646174696f6e4665655261746560701b846040518363ffffffff1660e01b8152600401808381526020018281526020019250505060206040518083038186803b158015610e5357600080fd5b606082826040516020018083805190602001908083835b60208310611d8d5780518252601f199092019160209182019101611d6e565b51815160209384036101000a600019018019909216911617905285519190930192850191508083835b60208310611dd55780518252601f199092019160209182019101611db6565b6001836020036101000a03801982511681845116808217855250505050505090500192505050604051602081830303815290604052905092915050565b6000611e1c610894565b90509056fe3a2063616c6c6572206973206e6f7420746865206f776e6572000000000000003a206e6577206d616e6167657220697320746865207a65726f20616464726573737e17eae6767b00a99454dcd6dcf307ef070192ac170ce8d675cd295e32f64980a265627a7a723158207145c327f9f55ef329b197c5648c1dc26729860980ec2f62a8142abdd8ddab3364736f6c63430005110032",
  "source": "// SPDX-License-Identifier: MIT\npragma solidity ^0.5.17;\n\nimport './base/ExternalStorable.sol';\nimport './interfaces/ISetting.sol';\nimport './interfaces/storages/ISettingStorage.sol';\n\ncontract Setting is ExternalStorable, ISetting {\n    bytes32 private constant COLLATERAL_RATE = 'CollateralRate';\n    bytes32 private constant LIQUIDATION_RATE = 'LiquidationRate';\n    bytes32 private constant LIQUIDATION_FEE_RATE = 'LiquidationFeeRate';\n    bytes32 private constant LIQUIDATION_DELAY = 'LiquidationDelay';\n    bytes32 private constant TRADING_FEE_RATE = 'TradingFeeRate';\n    bytes32 private constant MIN_STAKE_TIME = 'MinStakeTime';\n    bytes32 private constant MINT_PERIOD_DURATION = 'MintPeriodDuration';\n\n    constructor() public {\n        setContractName(CONTRACT_SETTING);\n    }\n\n    function Storage() private view returns (ISettingStorage) {\n        return ISettingStorage(getStorage());\n    }\n\n    function setCollateralRate(bytes32 asset, uint256 rate) external onlyOwner {\n        emit SettingChanged(COLLATERAL_RATE, asset, Storage().getUint(COLLATERAL_RATE, asset), rate);\n        Storage().setUint(COLLATERAL_RATE, asset, rate);\n    }\n\n    function getCollateralRate(bytes32 asset) external view returns (uint256) {\n        return Storage().getUint(COLLATERAL_RATE, asset);\n    }\n\n    function setLiquidationRate(bytes32 asset, uint256 rate) external onlyOwner {\n        emit SettingChanged(LIQUIDATION_RATE, asset, Storage().getUint(LIQUIDATION_RATE, asset), rate);\n        Storage().setUint(LIQUIDATION_RATE, asset, rate);\n    }\n\n    function getLiquidationRate(bytes32 asset) external view returns (uint256) {\n        return Storage().getUint(LIQUIDATION_RATE, asset);\n    }\n\n    function setLiquidationFeeRate(bytes32 asset, uint256 rate) external onlyOwner {\n        emit SettingChanged(LIQUIDATION_FEE_RATE, asset, Storage().getUint(LIQUIDATION_FEE_RATE, asset), rate);\n        Storage().setUint(LIQUIDATION_FEE_RATE, asset, rate);\n    }\n\n    function getLiquidationFeeRate(bytes32 asset) external view returns (uint256) {\n        return Storage().getUint(LIQUIDATION_FEE_RATE, asset);\n    }\n\n    function setLiquidationDelay(uint256 delay) external onlyOwner {\n        emit SettingChanged(LIQUIDATION_DELAY, bytes32(0), Storage().getUint(LIQUIDATION_DELAY), delay);\n        Storage().setUint(LIQUIDATION_DELAY, delay);\n    }\n\n    function getLiquidationDelay() external view returns (uint256) {\n        return Storage().getUint(LIQUIDATION_DELAY);\n    }\n\n    function setTradingFeeRate(bytes32 asset, uint256 rate) external onlyOwner {\n        emit SettingChanged(TRADING_FEE_RATE, asset, Storage().getUint(TRADING_FEE_RATE, asset), rate);\n        Storage().setUint(TRADING_FEE_RATE, asset, rate);\n    }\n\n    function getTradingFeeRate(bytes32 asset) external view returns (uint256) {\n        return Storage().getUint(TRADING_FEE_RATE, asset);\n    }\n\n    function setMinStakeTime(uint256 time) external onlyOwner {\n        emit SettingChanged(MIN_STAKE_TIME, bytes32(0), Storage().getUint(MIN_STAKE_TIME), time);\n        Storage().setUint(MIN_STAKE_TIME, time);\n    }\n\n    function getMinStakeTime() external view returns (uint256) {\n        return Storage().getUint(MIN_STAKE_TIME);\n    }\n\n    function setMintPeriodDuration(uint256 time) external onlyOwner {\n        emit SettingChanged(MINT_PERIOD_DURATION, bytes32(0), Storage().getUint(MINT_PERIOD_DURATION), time);\n        Storage().setUint(MINT_PERIOD_DURATION, time);\n    }\n\n    function getMintPeriodDuration() external view returns (uint256) {\n        return Storage().getUint(MINT_PERIOD_DURATION);\n    }\n}\n",
  "sourcePath": "/Users/sun/go/src/github.com/Dipper-Labs/DIPSYN/contracts/Setting.sol",
  "compiler": {
    "name": "solc",
    "version": "0.5.17+commit.d19bba13.Emscripten.clang"
  },
  "schemaVersion": "3.3.4",
  "updatedAt": "2021-04-21T04:08:13.993Z",
  "devdoc": {
    "methods": {}
  },
  "userdoc": {
    "methods": {}
  }
}