{
  "contractName": "Special",
  "abi": [
    {
      "inputs": [
        {
          "internalType": "contract IResolver",
          "name": "_resolver",
          "type": "address"
        }
      ],
      "payable": false,
      "stateMutability": "nonpayable",
      "type": "constructor"
    },
    {
      "anonymous": false,
      "inputs": [
        {
          "indexed": true,
          "internalType": "address",
          "name": "previousValue",
          "type": "address"
        },
        {
          "indexed": true,
          "internalType": "address",
          "name": "newValue",
          "type": "address"
        }
      ],
      "name": "ManagerChanged",
      "type": "event"
    },
    {
      "anonymous": false,
      "inputs": [
        {
          "indexed": true,
          "internalType": "address",
          "name": "previousValue",
          "type": "address"
        },
        {
          "indexed": true,
          "internalType": "address",
          "name": "newValue",
          "type": "address"
        }
      ],
      "name": "OwnerChanged",
      "type": "event"
    },
    {
      "anonymous": false,
      "inputs": [
        {
          "indexed": true,
          "internalType": "bytes32",
          "name": "asset",
          "type": "bytes32"
        },
        {
          "indexed": false,
          "internalType": "uint256",
          "name": "previousValue",
          "type": "uint256"
        },
        {
          "indexed": false,
          "internalType": "uint256",
          "name": "newValue",
          "type": "uint256"
        }
      ],
      "name": "RewardPercentageChanged",
      "type": "event"
    },
    {
      "anonymous": false,
      "inputs": [
        {
          "indexed": true,
          "internalType": "address",
          "name": "previousValue",
          "type": "address"
        },
        {
          "indexed": true,
          "internalType": "address",
          "name": "newValue",
          "type": "address"
        }
      ],
      "name": "StorageChanged",
      "type": "event"
    },
    {
      "constant": false,
      "inputs": [
        {
          "internalType": "bytes32",
          "name": "name",
          "type": "bytes32"
        }
      ],
      "name": "addAddress",
      "outputs": [],
      "payable": false,
      "stateMutability": "nonpayable",
      "type": "function"
    },
    {
      "constant": true,
      "inputs": [],
      "name": "contractName",
      "outputs": [
        {
          "internalType": "string",
          "name": "",
          "type": "string"
        }
      ],
      "payable": false,
      "stateMutability": "view",
      "type": "function"
    },
    {
      "constant": true,
      "inputs": [
        {
          "internalType": "bytes32",
          "name": "name",
          "type": "bytes32"
        }
      ],
      "name": "getAddress",
      "outputs": [
        {
          "internalType": "address",
          "name": "",
          "type": "address"
        }
      ],
      "payable": false,
      "stateMutability": "view",
      "type": "function"
    },
    {
      "constant": true,
      "inputs": [
        {
          "internalType": "bytes32",
          "name": "asset",
          "type": "bytes32"
        },
        {
          "internalType": "address",
          "name": "account",
          "type": "address"
        },
        {
          "internalType": "uint256",
          "name": "period",
          "type": "uint256"
        }
      ],
      "name": "getClaimed",
      "outputs": [
        {
          "internalType": "uint256",
          "name": "",
          "type": "uint256"
        }
      ],
      "payable": false,
      "stateMutability": "view",
      "type": "function"
    },
    {
      "constant": true,
      "inputs": [],
      "name": "getImports",
      "outputs": [
        {
          "internalType": "bytes32[]",
          "name": "",
          "type": "bytes32[]"
        }
      ],
      "payable": false,
      "stateMutability": "view",
      "type": "function"
    },
    {
      "constant": true,
      "inputs": [
        {
          "internalType": "bytes32",
          "name": "asset",
          "type": "bytes32"
        }
      ],
      "name": "getRewardPercentage",
      "outputs": [
        {
          "internalType": "uint256",
          "name": "",
          "type": "uint256"
        }
      ],
      "payable": false,
      "stateMutability": "view",
      "type": "function"
    },
    {
      "constant": true,
      "inputs": [],
      "name": "getStorage",
      "outputs": [
        {
          "internalType": "address",
          "name": "",
          "type": "address"
        }
      ],
      "payable": false,
      "stateMutability": "view",
      "type": "function"
    },
    {
      "constant": true,
      "inputs": [],
      "name": "manager",
      "outputs": [
        {
          "internalType": "address",
          "name": "",
          "type": "address"
        }
      ],
      "payable": false,
      "stateMutability": "view",
      "type": "function"
    },
    {
      "constant": true,
      "inputs": [],
      "name": "owner",
      "outputs": [
        {
          "internalType": "address",
          "name": "",
          "type": "address"
        }
      ],
      "payable": false,
      "stateMutability": "view",
      "type": "function"
    },
    {
      "constant": false,
      "inputs": [],
      "name": "refreshCache",
      "outputs": [],
      "payable": false,
      "stateMutability": "nonpayable",
      "type": "function"
    },
    {
      "constant": true,
      "inputs": [],
      "name": "resolver",
      "outputs": [
        {
          "internalType": "contract IResolver",
          "name": "",
          "type": "address"
        }
      ],
      "payable": false,
      "stateMutability": "view",
      "type": "function"
    },
    {
      "constant": false,
      "inputs": [
        {
          "internalType": "address",
          "name": "_manager",
          "type": "address"
        }
      ],
      "name": "setManager",
      "outputs": [],
      "payable": false,
      "stateMutability": "nonpayable",
      "type": "function"
    },
    {
      "constant": false,
      "inputs": [
        {
          "internalType": "address",
          "name": "_owner",
          "type": "address"
        }
      ],
      "name": "setOwner",
      "outputs": [],
      "payable": false,
      "stateMutability": "nonpayable",
      "type": "function"
    },
    {
      "constant": false,
      "inputs": [
        {
          "internalType": "bytes32",
          "name": "asset",
          "type": "bytes32"
        },
        {
          "internalType": "uint256",
          "name": "percentage",
          "type": "uint256"
        }
      ],
      "name": "setRewardPercentage",
      "outputs": [],
      "payable": false,
      "stateMutability": "nonpayable",
      "type": "function"
    },
    {
      "constant": false,
      "inputs": [
        {
          "internalType": "address",
          "name": "value",
          "type": "address"
        }
      ],
      "name": "setStorage",
      "outputs": [],
      "payable": false,
      "stateMutability": "nonpayable",
      "type": "function"
    },
    {
      "constant": false,
      "inputs": [
        {
          "internalType": "bytes32",
          "name": "asset",
          "type": "bytes32"
        },
        {
          "internalType": "address",
          "name": "account",
          "type": "address"
        }
      ],
      "name": "claim",
      "outputs": [
        {
          "internalType": "uint256",
          "name": "period",
          "type": "uint256"
        },
        {
          "internalType": "uint256",
          "name": "amount",
          "type": "uint256"
        },
        {
          "internalType": "uint256",
          "name": "vestTime",
          "type": "uint256"
        }
      ],
      "payable": false,
      "stateMutability": "nonpayable",
      "type": "function"
    },
    {
      "constant": true,
      "inputs": [
        {
          "internalType": "bytes32",
          "name": "asset",
          "type": "bytes32"
        },
        {
          "internalType": "address",
          "name": "account",
          "type": "address"
        }
      ],
      "name": "getClaimable",
      "outputs": [
        {
          "internalType": "uint256",
          "name": "",
          "type": "uint256"
        }
      ],
      "payable": false,
      "stateMutability": "view",
      "type": "function"
    }
  ],
  "bytecode": "0x60806040523480156200001157600080fd5b50604051620024e0380380620024e0833981810160405260208110156200003757600080fd5b505160018054336001600160a01b03199182168117909255600280548216909217909155600380549091166001600160a01b038316179055620000846614dc1958da585b60ca1b6200010a565b6040518060c00160405280650a6f2dce8d0f60d31b81526020016d537570706c795363686564756c6560901b81526020016524b9b9bab2b960d11b81526020016653657474696e6760c81b815260200165457363726f7760d01b81526020016529ba30b5b2b960d11b8152506004906006620001029291906200013b565b50506200021d565b6040805160208082018490528251808303820181529183019092528051620001379260009201906200018b565b5050565b82805482825590600052602060002090810192821562000179579160200282015b82811115620001795782518255916020019190600101906200015c565b5062000187929150620001fd565b5090565b828054600181600116156101000203166002900490600052602060002090601f016020900481019282601f10620001ce57805160ff191683800117855562000179565b82800160010185558215620001795791820182811115620001795782518255916020019190600101906200015c565b6200021a91905b8082111562000187576000815560010162000204565b90565b6122b3806200022d6000396000f3fe608060405234801561001057600080fd5b50600436106100db5760003560e01c806304f3bcec146100e0578063126779c21461010457806313af40351461015c57806321f8a721146101845780633408f73a146101a1578063481c6a75146101a95780636a46d4d1146101b15780636f5531c5146101e057806375d0c0dc1461020c5780638aed3c32146102895780638da5cb5b146102a65780639137c1a7146102ae57806396c144f0146102d4578063d0ebdbe71461031e578063d5c2c8ca14610344578063f0f99b541461034c578063f58bed041461037e575b600080fd5b6100e86103a1565b604080516001600160a01b039092168252519081900360200190f35b61010c6103b0565b60408051602080825283518183015283519192839290830191858101910280838360005b83811015610148578181015183820152602001610130565b505050509050019250505060405180910390f35b6101826004803603602081101561017257600080fd5b50356001600160a01b0316610408565b005b6100e86004803603602081101561019a57600080fd5b50356106b0565b6100e86106ce565b6100e86107c4565b6101ce600480360360208110156101c757600080fd5b50356107d3565b60408051918252519081900360200190f35b6101ce600480360360408110156101f657600080fd5b50803590602001356001600160a01b0316610852565b610214610b9a565b6040805160208082528351818301528351919283929083019185019080838360005b8381101561024e578181015183820152602001610236565b50505050905090810190601f16801561027b5780820380516001836020036101000a031916815260200191505b509250505060405180910390f35b6101826004803603602081101561029f57600080fd5b5035610c28565b6100e8610de1565b610182600480360360208110156102c457600080fd5b50356001600160a01b0316610df0565b610300600480360360408110156102ea57600080fd5b50803590602001356001600160a01b0316610f30565b60408051938452602084019290925282820152519081900360600190f35b6101826004803603602081101561033457600080fd5b50356001600160a01b03166111af565b6101826113ca565b6101ce6004803603606081101561036257600080fd5b508035906001600160a01b036020820135169060400135611583565b6101826004803603604081101561039457600080fd5b5080359060200135611628565b6003546001600160a01b031681565b606060048054806020026020016040519081016040528092919081815260200182805480156103fe57602002820191906000526020600020905b8154815260200190600101908083116103ea575b5050505050905090565b60018054604080518082018252601981526000805160206121ea833981519152602080830191909152600080548451600261010098831615989098026000190190911696909604601f81018390048302870183019094528386526001600160a01b039094163314946104dd9492939092918301828280156104ca5780601f1061049f576101008083540402835291602001916104ca565b820191906000526020600020905b8154815290600101906020018083116104ad57829003601f168201915b505050505061199a90919063ffffffff16565b906105665760405162461bcd60e51b81526004018080602001828103825283818151815260200191508051906020019080838360005b8381101561052b578181015183820152602001610513565b50505050905090810190601f1680156105585780820380516001836020036101000a031916815260200191505b509250505060405180910390fd5b50604080518082018252601f8082527f3a206e6577206f776e657220697320746865207a65726f206164647265737300602080840191909152600080548551600260001961010060018516150201909216919091049384018390048302810183019095528285526001600160a01b038616151594610607949390928301828280156104ca5780601f1061049f576101008083540402835291602001916104ca565b906106535760405162461bcd60e51b815260206004820181815283516024840152835190928392604490910191908501908083836000831561052b578181015183820152602001610513565b506001546040516001600160a01b038084169216907fb532073b38c83145e3e5135377a08bf9aab55bc0fd7c1179cd4fb995d2a5159c90600090a3600180546001600160a01b0319166001600160a01b0392909216919091179055565b6000818152600560205260409020546001600160a01b03165b919050565b60065460408051808201825260118152700e8814dd1bdc9859d9481b9bdd081cd95d607a1b60208083019190915260008054845160026101006001841615026000190190921691909104601f810184900484028201840190955284815290946001600160a01b031615159361076793928691908301828280156104ca5780601f1061049f576101008083540402835291602001916104ca565b906107b35760405162461bcd60e51b815260206004820181815283516024840152835190928392604490910191908501908083836000831561052b578181015183820152602001610513565b50506006546001600160a01b031690565b6002546001600160a01b031681565b60006107dd611a55565b6001600160a01b0316636a46d4d1836040518263ffffffff1660e01b81526004018082815260200191505060206040518083038186803b15801561082057600080fd5b505afa158015610834573d6000803e3d6000fd5b505050506040513d602081101561084a57600080fd5b505192915050565b60006229aca760e91b83146108ab576040805162461bcd60e51b815260206004820152601a60248201527929b832b1b4b0b61d1037b7363c9039bab83837b93a399029aca760311b604482015290519081900360640190fd5b60006108c06614dc1958da585b60ca1b611a64565b9050806108d1576000915050610b94565b60006108db611b73565b905060006108ea868684611583565b11156108fb57600092505050610b94565b6000610905611c08565b6001600160a01b0316635d5182d26229aca760e91b876040518363ffffffff1660e01b815260040180838152602001826001600160a01b03166001600160a01b031681526020019250505060206040518083038186803b15801561096857600080fd5b505afa15801561097c573d6000803e3d6000fd5b505050506040513d602081101561099257600080fd5b5051905061099e611c1c565b6001600160a01b0316636a5ee7b66229aca760e91b6040518263ffffffff1660e01b81526004018082815260200191505060206040518083038186803b1580156109e757600080fd5b505afa1580156109fb573d6000803e3d6000fd5b505050506040513d6020811015610a1157600080fd5b5051811015610a265760009350505050610b94565b6000610a30611c31565b6001600160a01b031663d93086306229aca760e91b88866040518463ffffffff1660e01b815260040180848152602001836001600160a01b03166001600160a01b03168152602001828152602001935050505060206040518083038186803b158015610a9b57600080fd5b505afa158015610aaf573d6000803e3d6000fd5b505050506040513d6020811015610ac557600080fd5b505190506000610ad3611c31565b60408051630d93086360e41b81526229aca760e91b6004820152600060248201526044810187905290516001600160a01b03929092169163d930863091606480820192602092909190829003018186803b158015610b3057600080fd5b505afa158015610b44573d6000803e3d6000fd5b505050506040513d6020811015610b5a57600080fd5b505190506000610b70838363ffffffff611c4516565b9050610b8b610b7e82611c5d565b879063ffffffff611c8816565b96505050505050505b92915050565b6000805460408051602060026001851615610100026000190190941693909304601f81018490048402820184019092528181529291830182828015610c205780601f10610bf557610100808354040283529160200191610c20565b820191906000526020600020905b815481529060010190602001808311610c0357829003601f168201915b505050505081565b60018054604080518082018252601981526000805160206121ea833981519152602080830191909152600080548451600261010098831615989098026000190190911696909604601f81018390048302870183019094528386526001600160a01b03909416331494610cbf9492939092918301828280156104ca5780601f1061049f576101008083540402835291602001916104ca565b90610d0b5760405162461bcd60e51b815260206004820181815283516024840152835190928392604490910191908501908083836000831561052b578181015183820152602001610513565b50600354604080516321f8a72160e01b81526004810184905290516001600160a01b03909216916321f8a72191602480820192602092909190829003018186803b158015610d5857600080fd5b505afa158015610d6c573d6000803e3d6000fd5b505050506040513d6020811015610d8257600080fd5b5051600082815260056020526040812080546001600160a01b0319166001600160a01b03909316929092179091556004805460018101825591527f8a35acfbc15ff81a39ae7d344fd709f28e8600b4aa8c65c6b64bfe7fe36bd19b0155565b6001546001600160a01b031681565b60018054604080518082018252601981526000805160206121ea833981519152602080830191909152600080548451600261010098831615989098026000190190911696909604601f81018390048302870183019094528386526001600160a01b03909416331494610e879492939092918301828280156104ca5780601f1061049f576101008083540402835291602001916104ca565b90610ed35760405162461bcd60e51b815260206004820181815283516024840152835190928392604490910191908501908083836000831561052b578181015183820152602001610513565b506006546040516001600160a01b038084169216907f85a70e3ed8a3924b3769cbe4e925987bbd40e8cea31487cbe13bee7b727310a490600090a3600680546001600160a01b0319166001600160a01b0392909216919091179055565b650a6f2dce8d0f60d31b6000818152600560209081527ff420db0c49eb249cd6dd94b6b96dabd210919bd87c94ecc5fec4a9e1c9775ad554604080518082018252601481527301d1031b0b63632b91034b9903737ba103a3432960651b818501528454825160026101006001841615026000190190921691909104601f810186900486028201860190935282815294958695869591946001600160a01b03163314936110419392869291889183018282801561102d5780601f106110025761010080835404028352916020019161102d565b820191906000526020600020905b81548152906001019060200180831161101057829003601f168201915b5050505050611c9d9092919063ffffffff16565b9061108d5760405162461bcd60e51b815260206004820181815283516024840152835190928392604490910191908501908083836000831561052b578181015183820152602001610513565b50600061109a8787610852565b9050600081116110ee576040805162461bcd60e51b815260206004820152601a6024820152795370656369616c3a20636c61696d61626c65206973207a65726f60301b604482015290519081900360640190fd5b60006110f8611b73565b905061110688888385611d56565b61110e611deb565b6001600160a01b031663bc157ac18289856040518463ffffffff1660e01b815260040180848152602001836001600160a01b03166001600160a01b031681526020018281526020019350505050602060405180830381600087803b15801561117557600080fd5b505af1158015611189573d6000803e3d6000fd5b505050506040513d602081101561119f57600080fd5b5051909891975095509350505050565b60018054604080518082018252601981526000805160206121ea833981519152602080830191909152600080548451600261010098831615989098026000190190911696909604601f81018390048302870183019094528386526001600160a01b039094163314946112469492939092918301828280156104ca5780601f1061049f576101008083540402835291602001916104ca565b906112925760405162461bcd60e51b815260206004820181815283516024840152835190928392604490910191908501908083836000831561052b578181015183820152602001610513565b5060006001600160a01b0316816001600160a01b0316141561132160405180606001604052806021815260200161223d602191396000805460408051602060026001851615610100026000190190941693909304601f810184900484028201840190925281815292918301828280156104ca5780601f1061049f576101008083540402835291602001916104ca565b9061136d5760405162461bcd60e51b815260206004820181815283516024840152835190928392604490910191908501908083836000831561052b578181015183820152602001610513565b506002546040516001600160a01b038084169216907f605c2dbf762e5f7d60a546d42e7205dcb1b011ebc62a61736a57c9089d3a435090600090a3600280546001600160a01b0319166001600160a01b0392909216919091179055565b60018054604080518082018252601981526000805160206121ea833981519152602080830191909152600080548451600261010098831615989098026000190190911696909604601f81018390048302870183019094528386526001600160a01b039094163314946114619492939092918301828280156104ca5780601f1061049f576101008083540402835291602001916104ca565b906114ad5760405162461bcd60e51b815260206004820181815283516024840152835190928392604490910191908501908083836000831561052b578181015183820152602001610513565b5060005b600454811015611580576000600482815481106114ca57fe5b60009182526020918290200154600354604080516321f8a72160e01b81526004810184905290519294506001600160a01b03909116926321f8a72192602480840193829003018186803b15801561152057600080fd5b505afa158015611534573d6000803e3d6000fd5b505050506040513d602081101561154a57600080fd5b505160009182526005602052604090912080546001600160a01b0319166001600160a01b039092169190911790556001016114b1565b50565b600061158d611a55565b6001600160a01b031663f0f99b548585856040518463ffffffff1660e01b815260040180848152602001836001600160a01b03166001600160a01b03168152602001828152602001935050505060206040518083038186803b1580156115f257600080fd5b505afa158015611606573d6000803e3d6000fd5b505050506040513d602081101561161c57600080fd5b505190505b9392505050565b60018054604080518082018252601981526000805160206121ea833981519152602080830191909152600080548451600261010098831615989098026000190190911696909604601f81018390048302870183019094528386526001600160a01b039094163314946116bf9492939092918301828280156104ca5780601f1061049f576101008083540402835291602001916104ca565b9061170b5760405162461bcd60e51b815260206004820181815283516024840152835190928392604490910191908501908083836000831561052b578181015183820152602001610513565b506000611716611a55565b6001600160a01b0316636a46d4d164151bdd185b60da1b6040518263ffffffff1660e01b81526004018082815260200191505060206040518083038186803b15801561176157600080fd5b505afa158015611775573d6000803e3d6000fd5b505050506040513d602081101561178b57600080fd5b505190506000611799611a55565b6001600160a01b0316636a46d4d1856040518263ffffffff1660e01b81526004018082815260200191505060206040518083038186803b1580156117dc57600080fd5b505afa1580156117f0573d6000803e3d6000fd5b505050506040513d602081101561180657600080fd5b50519050600061182c84611820858563ffffffff611dff16565b9063ffffffff611e4116565b9050611836611e99565b8111156118745760405162461bcd60e51b815260040180806020018281038252603381526020018061220a6033913960400191505060405180910390fd5b61187c611a55565b6001600160a01b031663f58bed0486866040518363ffffffff1660e01b81526004018083815260200182815260200192505050600060405180830381600087803b1580156118c957600080fd5b505af11580156118dd573d6000803e3d6000fd5b505050506118e9611a55565b6001600160a01b031663f58bed0464151bdd185b60da1b836040518363ffffffff1660e01b81526004018083815260200182815260200192505050600060405180830381600087803b15801561193e57600080fd5b505af1158015611952573d6000803e3d6000fd5b5050604080518581526020810188905281518994507feb1f8e19a3e5a8c01411c85a9778a20d61d45a82de2076dcc92a5a2b19c6821793509081900390910190a25050505050565b606082826040516020018083805190602001908083835b602083106119d05780518252601f1990920191602091820191016119b1565b51815160209384036101000a600019018019909216911617905285519190930192850191508083835b60208310611a185780518252601f1990920191602091820191016119f9565b6001836020036101000a03801982511681845116808217855250505050505090500192505050604051602081830303815290604052905092915050565b6000611a5f6106ce565b905090565b6000611a6e611ea5565b6001600160a01b0316638c4e8c216040518163ffffffff1660e01b815260040160206040518083038186803b158015611aa657600080fd5b505afa158015611aba573d6000803e3d6000fd5b505050506040513d6020811015611ad057600080fd5b5051421115611ae1575060006106c9565b6000611aeb611b73565b9050611af5611ea5565b6001600160a01b031663dcba23ce84836040518363ffffffff1660e01b8152600401808381526020018281526020019250505060206040518083038186803b158015611b4057600080fd5b505afa158015611b54573d6000803e3d6000fd5b505050506040513d6020811015611b6a57600080fd5b50519392505050565b600080611b7e611ea5565b6001600160a01b031663559c52356040518163ffffffff1660e01b815260040160206040518083038186803b158015611bb657600080fd5b505afa158015611bca573d6000803e3d6000fd5b505050506040513d6020811015611be057600080fd5b505190508015611c0057611bfb81600163ffffffff611dff16565b611c02565b805b91505090565b6000611a5f6529ba30b5b2b960d11b611ebd565b6000611a5f6653657474696e6760c81b611ebd565b6000611a5f6524b9b9bab2b960d11b611ebd565b60006116218383676765c793fa10079d601b1b611fc3565b600080611c6d83601b6013612005565b90506005600a820610611c7e57600a015b600a900492915050565b60006116218383670de0b6b3a764000061205c565b60608383836040516020018084805190602001908083835b60208310611cd45780518252601f199092019160209182019101611cb5565b51815160209384036101000a600019018019909216911617905286519190930192860191508083835b60208310611d1c5780518252601f199092019160209182019101611cfd565b51815160209384036101000a6000190180199092169116179052920193845250604080518085038152939091019052509695505050505050565b611d5e611a55565b6001600160a01b031663771c5c53858585856040518563ffffffff1660e01b815260040180858152602001846001600160a01b03166001600160a01b03168152602001838152602001828152602001945050505050600060405180830381600087803b158015611dcd57600080fd5b505af1158015611de1573d6000803e3d6000fd5b5050505050505050565b6000611a5f65457363726f7760d01b611ebd565b600061162183836040518060400160405280601e81526020017f536166654d6174683a207375627472616374696f6e206f766572666c6f770000815250612097565b600082820183811015611621576040805162461bcd60e51b815260206004820152601b60248201527a536166654d6174683a206164646974696f6e206f766572666c6f7760281b604482015290519081900360640190fd5b670de0b6b3a764000090565b6000611a5f6d537570706c795363686564756c6560901b5b60008181526005602090815260408083205481518083018352600a81526901d1026b4b9b9b4b733960b51b818501528454835160026101006001841615026000190190921691909104601f81018690048602820186019094528381526001600160a01b03909216151593611f5a9391928792909187919083018282801561102d5780601f106110025761010080835404028352916020019161102d565b90611fa65760405162461bcd60e51b815260206004820181815283516024840152835190928392604490910191908501908083836000831561052b578181015183820152602001610513565b50506000908152600560205260409020546001600160a01b031690565b6000831580611fd0575082155b15611fdd57506000611621565b611ffd83611ff1868563ffffffff6120f116565b9063ffffffff61214a16565b949350505050565b60008361201457506000611621565b81831415612023575082611621565b818310156120475761204084848403600a0a63ffffffff6120f116565b9050611621565b611ffd84838503600a0a63ffffffff61214a16565b6000831580612069575082155b1561207657506000611621565b81612087858563ffffffff6120f116565b8161208e57fe5b04949350505050565b600081848411156120e95760405162461bcd60e51b815260206004820181815283516024840152835190928392604490910191908501908083836000831561052b578181015183820152602001610513565b505050900390565b60008261210057506000610b94565b8282028284828161210d57fe5b04146116215760405162461bcd60e51b815260040180806020018281038252602181526020018061225e6021913960400191505060405180910390fd5b600061162183836040518060400160405280601a815260200179536166654d6174683a206469766973696f6e206279207a65726f60301b815250600081836121d35760405162461bcd60e51b815260206004820181815283516024840152835190928392604490910191908501908083836000831561052b578181015183820152602001610513565b5060008385816121df57fe5b049594505050505056fe3a2063616c6c6572206973206e6f7420746865206f776e657200000000000000526577617264733a20746f74616c2070657263656e74206d757374206265206e6f2067726561746572207468616e20313030253a206e6577206d616e6167657220697320746865207a65726f2061646472657373536166654d6174683a206d756c7469706c69636174696f6e206f766572666c6f77a265627a7a723158203c3874e48f7f15ce2b52693f91d41f18515f8971593720fd2d8a0c4c32ee007664736f6c63430005110032",
  "source": "// SPDX-License-Identifier: MIT\npragma solidity ^0.5.17;\n\nimport './base/Rewards.sol';\nimport './interfaces/ISpecial.sol';\nimport './interfaces/storages/IStakerStorage.sol';\nimport './interfaces/IIssuer.sol';\nimport './interfaces/ISetting.sol';\nimport './interfaces/IEscrow.sol';\nimport './interfaces/IStaker.sol';\n\ncontract Special is Rewards, ISpecial {\n    constructor(IResolver _resolver) public Importable(_resolver) {\n        setContractName(CONTRACT_SPECIAL);\n        imports = [\n            CONTRACT_SYNTHX,\n            CONTRACT_SUPPLY_SCHEDULE,\n            CONTRACT_ISSUER,\n            CONTRACT_SETTING,\n            CONTRACT_ESCROW,\n            CONTRACT_STAKER\n        ];\n    }\n\n    function Issuer() private view returns (IIssuer) {\n        return IIssuer(requireAddress(CONTRACT_ISSUER));\n    }\n\n    function Setting() private view returns (ISetting) {\n        return ISetting(requireAddress(CONTRACT_SETTING));\n    }\n\n    function Escrow() private view returns (IEscrow) {\n        return IEscrow(requireAddress(CONTRACT_ESCROW));\n    }\n\n    function Staker() private view returns (IStaker) {\n        return IStaker(requireAddress(CONTRACT_STAKER));\n    }\n\n    function claim(bytes32 asset, address account)\n        external\n        onlyAddress(CONTRACT_SYNTHX)\n        returns (\n            uint256 period,\n            uint256 amount,\n            uint256 vestTime\n        )\n    {\n        uint256 claimable = getClaimable(asset, account);\n        require(claimable > 0, 'Special: claimable is zero');\n\n        uint256 claimablePeriod = getClaimablePeriod();\n        setClaimed(asset, account, claimablePeriod, claimable);\n\n        vestTime = Escrow().deposit(claimablePeriod, account, claimable);\n        return (claimablePeriod, claimable, vestTime);\n    }\n\n    function getClaimable(bytes32 asset, address account) public view returns (uint256) {\n        require(asset == SYN, 'Special: only supports SYN');\n\n        uint256 rewards = getRewardSupply(CONTRACT_SPECIAL);\n        if (rewards == 0) return 0;\n\n        uint256 claimablePeriod = getClaimablePeriod();\n        if (getClaimed(asset, account, claimablePeriod) > 0) return 0;\n\n        uint256 collateralRate = Staker().getCollateralRate(SYN, account);\n        if (collateralRate < Setting().getCollateralRate(SYN)) return 0;\n\n        uint256 accountPercentage = Issuer().getDebtPercentage(SYN, account, claimablePeriod);\n        uint256 stakePercentage = Issuer().getDebtPercentage(SYN, address(0), claimablePeriod);\n        uint256 percentage = accountPercentage.preciseDivide(stakePercentage);\n\n        return rewards.decimalMultiply(percentage.toDecimal());\n    }\n}\n",
  "sourcePath": "/Users/sun/go/src/github.com/Dipper-Labs/DIPSYN/contracts/Special.sol",
  "compiler": {
    "name": "solc",
    "version": "0.5.17+commit.d19bba13.Emscripten.clang"
  },
  "schemaVersion": "3.3.4",
  "updatedAt": "2021-04-21T04:08:13.995Z",
  "devdoc": {
    "methods": {}
  },
  "userdoc": {
    "methods": {}
  }
}