{
  "contractName": "StakerStorage",
  "abi": [
    {
      "inputs": [
        {
          "internalType": "address",
          "name": "_manager",
          "type": "address"
        }
      ],
      "payable": false,
      "stateMutability": "nonpayable",
      "type": "constructor"
    },
    {
      "anonymous": false,
      "inputs": [
        {
          "indexed": true,
          "internalType": "address",
          "name": "previousValue",
          "type": "address"
        },
        {
          "indexed": true,
          "internalType": "address",
          "name": "newValue",
          "type": "address"
        }
      ],
      "name": "ManagerChanged",
      "type": "event"
    },
    {
      "anonymous": false,
      "inputs": [
        {
          "indexed": true,
          "internalType": "address",
          "name": "previousValue",
          "type": "address"
        },
        {
          "indexed": true,
          "internalType": "address",
          "name": "newValue",
          "type": "address"
        }
      ],
      "name": "OwnerChanged",
      "type": "event"
    },
    {
      "constant": true,
      "inputs": [],
      "name": "contractName",
      "outputs": [
        {
          "internalType": "string",
          "name": "",
          "type": "string"
        }
      ],
      "payable": false,
      "stateMutability": "view",
      "type": "function"
    },
    {
      "constant": true,
      "inputs": [
        {
          "internalType": "bytes32",
          "name": "asset",
          "type": "bytes32"
        },
        {
          "internalType": "address",
          "name": "account",
          "type": "address"
        },
        {
          "internalType": "uint256",
          "name": "period",
          "type": "uint256"
        }
      ],
      "name": "getClaimed",
      "outputs": [
        {
          "internalType": "uint256",
          "name": "",
          "type": "uint256"
        }
      ],
      "payable": false,
      "stateMutability": "view",
      "type": "function"
    },
    {
      "constant": true,
      "inputs": [
        {
          "internalType": "bytes32",
          "name": "asset",
          "type": "bytes32"
        }
      ],
      "name": "getRewardPercentage",
      "outputs": [
        {
          "internalType": "uint256",
          "name": "",
          "type": "uint256"
        }
      ],
      "payable": false,
      "stateMutability": "view",
      "type": "function"
    },
    {
      "constant": true,
      "inputs": [],
      "name": "manager",
      "outputs": [
        {
          "internalType": "address",
          "name": "",
          "type": "address"
        }
      ],
      "payable": false,
      "stateMutability": "view",
      "type": "function"
    },
    {
      "constant": true,
      "inputs": [],
      "name": "owner",
      "outputs": [
        {
          "internalType": "address",
          "name": "",
          "type": "address"
        }
      ],
      "payable": false,
      "stateMutability": "view",
      "type": "function"
    },
    {
      "constant": false,
      "inputs": [
        {
          "internalType": "bytes32",
          "name": "asset",
          "type": "bytes32"
        },
        {
          "internalType": "address",
          "name": "account",
          "type": "address"
        },
        {
          "internalType": "uint256",
          "name": "period",
          "type": "uint256"
        },
        {
          "internalType": "uint256",
          "name": "amount",
          "type": "uint256"
        }
      ],
      "name": "setClaimed",
      "outputs": [],
      "payable": false,
      "stateMutability": "nonpayable",
      "type": "function"
    },
    {
      "constant": false,
      "inputs": [
        {
          "internalType": "address",
          "name": "_manager",
          "type": "address"
        }
      ],
      "name": "setManager",
      "outputs": [],
      "payable": false,
      "stateMutability": "nonpayable",
      "type": "function"
    },
    {
      "constant": false,
      "inputs": [
        {
          "internalType": "address",
          "name": "_owner",
          "type": "address"
        }
      ],
      "name": "setOwner",
      "outputs": [],
      "payable": false,
      "stateMutability": "nonpayable",
      "type": "function"
    },
    {
      "constant": false,
      "inputs": [
        {
          "internalType": "bytes32",
          "name": "asset",
          "type": "bytes32"
        },
        {
          "internalType": "uint256",
          "name": "percentage",
          "type": "uint256"
        }
      ],
      "name": "setRewardPercentage",
      "outputs": [],
      "payable": false,
      "stateMutability": "nonpayable",
      "type": "function"
    },
    {
      "constant": false,
      "inputs": [
        {
          "internalType": "bytes32",
          "name": "stake",
          "type": "bytes32"
        },
        {
          "internalType": "address",
          "name": "account",
          "type": "address"
        },
        {
          "internalType": "uint256",
          "name": "amount",
          "type": "uint256"
        }
      ],
      "name": "incrementStaked",
      "outputs": [
        {
          "internalType": "uint256",
          "name": "",
          "type": "uint256"
        }
      ],
      "payable": false,
      "stateMutability": "nonpayable",
      "type": "function"
    },
    {
      "constant": false,
      "inputs": [
        {
          "internalType": "bytes32",
          "name": "stake",
          "type": "bytes32"
        },
        {
          "internalType": "address",
          "name": "account",
          "type": "address"
        },
        {
          "internalType": "uint256",
          "name": "amount",
          "type": "uint256"
        },
        {
          "internalType": "string",
          "name": "errorMessage",
          "type": "string"
        }
      ],
      "name": "decrementStaked",
      "outputs": [
        {
          "internalType": "uint256",
          "name": "",
          "type": "uint256"
        }
      ],
      "payable": false,
      "stateMutability": "nonpayable",
      "type": "function"
    },
    {
      "constant": true,
      "inputs": [
        {
          "internalType": "bytes32",
          "name": "stake",
          "type": "bytes32"
        },
        {
          "internalType": "address",
          "name": "account",
          "type": "address"
        }
      ],
      "name": "getStaked",
      "outputs": [
        {
          "internalType": "uint256",
          "name": "",
          "type": "uint256"
        }
      ],
      "payable": false,
      "stateMutability": "view",
      "type": "function"
    }
  ],
  "bytecode": "0x60806040526636b0b730b3b2b960c91b6003553480156200001f57600080fd5b5060405162001d7b38038062001d7b833981810160405260208110156200004557600080fd5b505160018054336001600160a01b03199182168117909255600280549091169091179055808062000076816200007f565b50505062000757565b60018054604080518082018252601981527f3a2063616c6c6572206973206e6f7420746865206f776e657200000000000000602080830191909152600080548451600261010098831615989098026000190190911696909604601f81018390048302870183019094528386526001600160a01b0390941633149462000171949293909291830182828015620001585780601f106200012c5761010080835404028352916020019162000158565b820191906000526020600020905b8154815290600101906020018083116200013a57829003601f168201915b5050505050620003b060201b620010931790919060201c565b90620001fe5760405162461bcd60e51b81526004018080602001828103825283818151815260200191508051906020019080838360005b83811015620001c2578181015183820152602001620001a8565b50505050905090810190601f168015620001f05780820380516001836020036101000a031916815260200191505b509250505060405180910390fd5b5062000215816200046f60201b620012661760201c565b6040805180820190915260078082526653746f7261676560c81b60209092019182526200024591600091620006b2565b5060025460408051631d74303760e21b8152905162000394926001600160a01b0316916375d0c0dc916004808301926000929190829003018186803b1580156200028e57600080fd5b505afa158015620002a3573d6000803e3d6000fd5b505050506040513d6000823e601f3d908101601f191682016040526020811015620002cd57600080fd5b8101908080516040519392919084640100000000821115620002ee57600080fd5b9083019060208201858111156200030457600080fd5b82516401000000008111828201881017156200031f57600080fd5b82525081516020918201929091019080838360005b838110156200034e57818101518382015260200162000334565b50505050905090810190601f1680156200037c5780820380516001836020036101000a031916815260200191505b50604052505050620006ab60201b620014811760201c565b6003819055620003ad576636b0b730b3b2b960c91b6003555b50565b606082826040516020018083805190602001908083835b60208310620003e85780518252601f199092019160209182019101620003c7565b51815160209384036101000a600019018019909216911617905285519190930192850191508083835b60208310620004325780518252601f19909201916020918201910162000411565b6001836020036101000a03801982511681845116808217855250505050505090500192505050604051602081830303815290604052905092915050565b60018054604080518082018252601981527f3a2063616c6c6572206973206e6f7420746865206f776e657200000000000000602080830191909152600080548451600261010098831615989098026000190190911696909604601f81018390048302870183019094528386526001600160a01b039094163314946200051c949293909291830182828015620001585780601f106200012c5761010080835404028352916020019162000158565b906200056b5760405162461bcd60e51b8152602060048201818152835160248401528351909283926044909101919085019080838360008315620001c2578181015183820152602001620001a8565b5060006001600160a01b0316816001600160a01b03161415620005ff60405180606001604052806021815260200162001d5a602191396000805460408051602060026001851615610100026000190190941693909304601f81018490048402820184019092528181529291830182828015620001585780601f106200012c5761010080835404028352916020019162000158565b906200064e5760405162461bcd60e51b8152602060048201818152835160248401528351909283926044909101919085019080838360008315620001c2578181015183820152602001620001a8565b506002546040516001600160a01b038084169216907f605c2dbf762e5f7d60a546d42e7205dcb1b011ebc62a61736a57c9089d3a435090600090a3600280546001600160a01b0319166001600160a01b0392909216919091179055565b6020015190565b828054600181600116156101000203166002900490600052602060002090601f016020900481019282601f10620006f557805160ff191683800117855562000725565b8280016001018555821562000725579182015b828111156200072557825182559160200191906001019062000708565b506200073392915062000737565b5090565b6200075491905b808211156200073357600081556001016200073e565b90565b6115f380620007676000396000f3fe608060405234801561001057600080fd5b50600436106100a45760003560e01c806313af4035146100a95780632e35de05146100d1578063481c6a751461010f5780636a46d4d11461013357806375d0c0dc14610150578063771c5c53146101cd5780637fc88989146102055780638da5cb5b14610237578063d0ebdbe71461023f578063e1ab95d814610265578063f0f99b54146102ef578063f58bed0414610321575b600080fd5b6100cf600480360360208110156100bf57600080fd5b50356001600160a01b0316610344565b005b6100fd600480360360408110156100e757600080fd5b50803590602001356001600160a01b03166105ec565b60408051918252519081900360200190f35b610117610614565b604080516001600160a01b039092168252519081900360200190f35b6100fd6004803603602081101561014957600080fd5b5035610623565b610158610635565b6040805160208082528351818301528351919283929083019185019080838360005b8381101561019257818101518382015260200161017a565b50505050905090810190601f1680156101bf5780820380516001836020036101000a031916815260200191505b509250505060405180910390f35b6100cf600480360360808110156101e357600080fd5b508035906001600160a01b0360208201351690604081013590606001356106c3565b6100fd6004803603606081101561021b57600080fd5b508035906001600160a01b036020820135169060400135610922565b610117610aae565b6100cf6004803603602081101561025557600080fd5b50356001600160a01b0316610abd565b6100fd6004803603608081101561027b57600080fd5b8135916001600160a01b036020820135169160408201359190810190608081016060820135600160201b8111156102b157600080fd5b8201836020820111156102c357600080fd5b803590602001918460018302840111600160201b831117156102e457600080fd5b509092509050610d2a565b6100fd6004803603606081101561030557600080fd5b508035906001600160a01b036020820135169060400135610f64565b6100cf6004803603604081101561033757600080fd5b5080359060200135610f93565b600180546040805180820182526019815260008051602061157e833981519152602080830191909152600080548451600261010098831615989098026000190190911696909604601f81018390048302870183019094528386526001600160a01b039094163314946104199492939092918301828280156104065780601f106103db57610100808354040283529160200191610406565b820191906000526020600020905b8154815290600101906020018083116103e957829003601f168201915b505050505061109390919063ffffffff16565b906104a25760405162461bcd60e51b81526004018080602001828103825283818151815260200191508051906020019080838360005b8381101561046757818101518382015260200161044f565b50505050905090810190601f1680156104945780820380516001836020036101000a031916815260200191505b509250505060405180910390fd5b50604080518082018252601f8082527f3a206e6577206f776e657220697320746865207a65726f206164647265737300602080840191909152600080548551600260001961010060018516150201909216919091049384018390048302810183019095528285526001600160a01b038616151594610543949390928301828280156104065780601f106103db57610100808354040283529160200191610406565b9061058f5760405162461bcd60e51b815260206004820181815283516024840152835190928392604490910191908501908083836000831561046757818101518382015260200161044f565b506001546040516001600160a01b038084169216907fb532073b38c83145e3e5135377a08bf9aab55bc0fd7c1179cd4fb995d2a5159c90600090a3600180546001600160a01b0319166001600160a01b0392909216919091179055565b60009182526006602090815260408084206001600160a01b0393909316845291905290205490565b6002546001600160a01b031681565b60009081526004602052604090205490565b6000805460408051602060026001851615610100026000190190941693909304601f810184900484028201840190925281815292918301828280156106bb5780601f10610690576101008083540402835291602001916106bb565b820191906000526020600020905b81548152906001019060200180831161069e57829003601f168201915b505050505081565b60035460028054604080518082018252601481527301d1031b0b63632b91034b9903737ba103a3432960651b6020808301919091526000805484516101006001831615026000190190911696909604601f81018390048302870183019094528386526001600160a01b039094163314946107a29492938793919283018282801561078e5780601f106107635761010080835404028352916020019161078e565b820191906000526020600020905b81548152906001019060200180831161077157829003601f168201915b505050505061114e9092919063ffffffff16565b906107ee5760405162461bcd60e51b815260206004820181815283516024840152835190928392604490910191908501908083836000831561046757818101518382015260200161044f565b5060008581526005602090815260408083206001600160a01b038816845282528083208684529091529020541561086c576040805162461bcd60e51b815260206004820152601f60248201527f5265776172647353746f726167653a20616c726561647920636c61696d656400604482015290519081900360640190fd5b60008581526005602090815260408083206001600160a01b038816845282528083208684529091529020546108a7908363ffffffff61120716565b60008681526005602090815260408083206001600160a01b0389168452808352818420888552835281842094909455828052928152828220868352905220546108f6908363ffffffff61120716565b600095865260056020908152604080882088805282528088209588529490529290942091909155505050565b60035460028054604080518082018252601481527301d1031b0b63632b91034b9903737ba103a3432960651b6020808301919091526000805484516101006001831615026000190190911696909604601f810183900483028701830190945283865295946001600160a01b039094163314936109c393869288919083018282801561078e5780601f106107635761010080835404028352916020019161078e565b90610a0f5760405162461bcd60e51b815260206004820181815283516024840152835190928392604490910191908501908083836000831561046757818101518382015260200161044f565b5060008581526006602090815260408083206001600160a01b0388168452909152902054610a43908463ffffffff61120716565b60008681526006602090815260408083206001600160a01b0389168452909152808220929092558080522054610a799084611207565b6000958652600660209081526040808820888052909152808720919091556001600160a01b0394909416855250505090205490565b6001546001600160a01b031681565b600180546040805180820182526019815260008051602061157e833981519152602080830191909152600080548451600261010098831615989098026000190190911696909604601f81018390048302870183019094528386526001600160a01b03909416331494610b549492939092918301828280156104065780601f106103db57610100808354040283529160200191610406565b90610ba05760405162461bcd60e51b815260206004820181815283516024840152835190928392604490910191908501908083836000831561046757818101518382015260200161044f565b50610baa81611266565b6040805180820190915260078082526653746f7261676560c81b6020909201918252610bd8916000916114e2565b5060025460408051631d74303760e21b81529051610d0f926001600160a01b0316916375d0c0dc916004808301926000929190829003018186803b158015610c1f57600080fd5b505afa158015610c33573d6000803e3d6000fd5b505050506040513d6000823e601f3d908101601f191682016040526020811015610c5c57600080fd5b8101908080516040519392919084600160201b821115610c7b57600080fd5b908301906020820185811115610c9057600080fd5b8251600160201b811182820188101715610ca957600080fd5b82525081516020918201929091019080838360005b83811015610cd6578181015183820152602001610cbe565b50505050905090810190601f168015610d035780820380516001836020036101000a031916815260200191505b50604052505050611481565b6003819055610d27576636b0b730b3b2b960c91b6003555b50565b60035460028054604080518082018252601481527301d1031b0b63632b91034b9903737ba103a3432960651b6020808301919091526000805484516101006001831615026000190190911696909604601f810183900483028701830190945283865295946001600160a01b03909416331493610dcb93869288919083018282801561078e5780601f106107635761010080835404028352916020019161078e565b90610e175760405162461bcd60e51b815260206004820181815283516024840152835190928392604490910191908501908083836000831561046757818101518382015260200161044f565b50610ea78585858080601f016020809104026020016040519081016040528093929190818152602001838380828437600081840152601f19601f82011690508083019250505050505050600660008b815260200190815260200160002060008a6001600160a01b03166001600160a01b03168152602001908152602001600020546114889092919063ffffffff16565b60008881526006602090815260408083206001600160a01b038b168452825291829020929092558051601f8601839004830281018301909152848152610f2a91879190879087908190840183828082843760009201829052508d8152600660209081526040808320838052909152902054949392505063ffffffff611488169050565b6000978852600660209081526040808a208a8052909152808920919091556001600160a01b03969096168752505050919092205492915050565b60009283526005602090815260408085206001600160a01b039490941685529281528284209184525290205490565b60035460028054604080518082018252601481527301d1031b0b63632b91034b9903737ba103a3432960651b6020808301919091526000805484516101006001831615026000190190911696909604601f81018390048302870183019094528386526001600160a01b039094163314946110339492938793919283018282801561078e5780601f106107635761010080835404028352916020019161078e565b9061107f5760405162461bcd60e51b815260206004820181815283516024840152835190928392604490910191908501908083836000831561046757818101518382015260200161044f565b505060009182526004602052604090912055565b606082826040516020018083805190602001908083835b602083106110c95780518252601f1990920191602091820191016110aa565b51815160209384036101000a600019018019909216911617905285519190930192850191508083835b602083106111115780518252601f1990920191602091820191016110f2565b6001836020036101000a03801982511681845116808217855250505050505090500192505050604051602081830303815290604052905092915050565b60608383836040516020018084805190602001908083835b602083106111855780518252601f199092019160209182019101611166565b51815160209384036101000a600019018019909216911617905286519190930192860191508083835b602083106111cd5780518252601f1990920191602091820191016111ae565b51815160209384036101000a6000190180199092169116179052920193845250604080518085038152939091019052509695505050505050565b60008282018381101561125f576040805162461bcd60e51b815260206004820152601b60248201527a536166654d6174683a206164646974696f6e206f766572666c6f7760281b604482015290519081900360640190fd5b9392505050565b600180546040805180820182526019815260008051602061157e833981519152602080830191909152600080548451600261010098831615989098026000190190911696909604601f81018390048302870183019094528386526001600160a01b039094163314946112fd9492939092918301828280156104065780601f106103db57610100808354040283529160200191610406565b906113495760405162461bcd60e51b815260206004820181815283516024840152835190928392604490910191908501908083836000831561046757818101518382015260200161044f565b5060006001600160a01b0316816001600160a01b031614156113d860405180606001604052806021815260200161159e602191396000805460408051602060026001851615610100026000190190941693909304601f810184900484028201840190925281815292918301828280156104065780601f106103db57610100808354040283529160200191610406565b906114245760405162461bcd60e51b815260206004820181815283516024840152835190928392604490910191908501908083836000831561046757818101518382015260200161044f565b506002546040516001600160a01b038084169216907f605c2dbf762e5f7d60a546d42e7205dcb1b011ebc62a61736a57c9089d3a435090600090a3600280546001600160a01b0319166001600160a01b0392909216919091179055565b6020015190565b600081848411156114da5760405162461bcd60e51b815260206004820181815283516024840152835190928392604490910191908501908083836000831561046757818101518382015260200161044f565b505050900390565b828054600181600116156101000203166002900490600052602060002090601f016020900481019282601f1061152357805160ff1916838001178555611550565b82800160010185558215611550579182015b82811115611550578251825591602001919060010190611535565b5061155c929150611560565b5090565b61157a91905b8082111561155c5760008155600101611566565b9056fe3a2063616c6c6572206973206e6f7420746865206f776e6572000000000000003a206e6577206d616e6167657220697320746865207a65726f2061646472657373a265627a7a72315820dfd2c749fa24a79f380c0a4b93d38f25c4018cad16d0b85a7b608231c2dbcef064736f6c634300051100323a206e6577206d616e6167657220697320746865207a65726f2061646472657373",
  "source": "pragma solidity ^0.5.17;\n\nimport './RewardsStorage.sol';\nimport '../interfaces/storages/IStakerStorage.sol';\n\ncontract StakerStorage is RewardsStorage, IStakerStorage {\n    mapping(bytes32 => mapping(address => uint256)) private _storage;\n\n    constructor(address _manager) public RewardsStorage(_manager) {}\n\n    function incrementStaked(\n        bytes32 stake,\n        address account,\n        uint256 amount\n    ) external onlyManager(managerName) returns (uint256) {\n        _storage[stake][account] = _storage[stake][account].add(amount);\n        _storage[stake][address(0)] = _storage[stake][address(0)].add(amount);\n        return _storage[stake][account];\n    }\n\n    function decrementStaked(\n        bytes32 stake,\n        address account,\n        uint256 amount,\n        string calldata errorMessage\n    ) external onlyManager(managerName) returns (uint256) {\n        _storage[stake][account] = _storage[stake][account].sub(amount, errorMessage);\n        _storage[stake][address(0)] = _storage[stake][address(0)].sub(amount, errorMessage);\n        return _storage[stake][account];\n    }\n\n    function getStaked(bytes32 stake, address account) external view returns (uint256) {\n        return _storage[stake][account];\n    }\n}\n",
  "sourcePath": "/Users/sun/go/src/github.com/Dipper-Labs/DIPSYN/contracts/storages/StakerStorage.sol",
  "compiler": {
    "name": "solc",
    "version": "0.5.17+commit.d19bba13.Emscripten.clang"
  },
  "schemaVersion": "3.3.4",
  "updatedAt": "2021-04-21T06:45:45.942Z",
  "networkType": "ethereum",
  "devdoc": {
    "methods": {}
  },
  "userdoc": {
    "methods": {}
  }
}