{
  "contractName": "Staker",
  "abi": [
    {
      "inputs": [
        {
          "internalType": "contract IResolver",
          "name": "_resolver",
          "type": "address"
        }
      ],
      "payable": false,
      "stateMutability": "nonpayable",
      "type": "constructor"
    },
    {
      "anonymous": false,
      "inputs": [
        {
          "indexed": true,
          "internalType": "address",
          "name": "previousValue",
          "type": "address"
        },
        {
          "indexed": true,
          "internalType": "address",
          "name": "newValue",
          "type": "address"
        }
      ],
      "name": "ManagerChanged",
      "type": "event"
    },
    {
      "anonymous": false,
      "inputs": [
        {
          "indexed": true,
          "internalType": "address",
          "name": "previousValue",
          "type": "address"
        },
        {
          "indexed": true,
          "internalType": "address",
          "name": "newValue",
          "type": "address"
        }
      ],
      "name": "OwnerChanged",
      "type": "event"
    },
    {
      "anonymous": false,
      "inputs": [
        {
          "indexed": true,
          "internalType": "bytes32",
          "name": "asset",
          "type": "bytes32"
        },
        {
          "indexed": false,
          "internalType": "uint256",
          "name": "previousValue",
          "type": "uint256"
        },
        {
          "indexed": false,
          "internalType": "uint256",
          "name": "newValue",
          "type": "uint256"
        }
      ],
      "name": "RewardPercentageChanged",
      "type": "event"
    },
    {
      "anonymous": false,
      "inputs": [
        {
          "indexed": true,
          "internalType": "address",
          "name": "previousValue",
          "type": "address"
        },
        {
          "indexed": true,
          "internalType": "address",
          "name": "newValue",
          "type": "address"
        }
      ],
      "name": "StorageChanged",
      "type": "event"
    },
    {
      "constant": false,
      "inputs": [
        {
          "internalType": "bytes32",
          "name": "name",
          "type": "bytes32"
        }
      ],
      "name": "addAddress",
      "outputs": [],
      "payable": false,
      "stateMutability": "nonpayable",
      "type": "function"
    },
    {
      "constant": true,
      "inputs": [],
      "name": "contractName",
      "outputs": [
        {
          "internalType": "string",
          "name": "",
          "type": "string"
        }
      ],
      "payable": false,
      "stateMutability": "view",
      "type": "function"
    },
    {
      "constant": true,
      "inputs": [
        {
          "internalType": "bytes32",
          "name": "name",
          "type": "bytes32"
        }
      ],
      "name": "getAddress",
      "outputs": [
        {
          "internalType": "address",
          "name": "",
          "type": "address"
        }
      ],
      "payable": false,
      "stateMutability": "view",
      "type": "function"
    },
    {
      "constant": true,
      "inputs": [
        {
          "internalType": "bytes32",
          "name": "asset",
          "type": "bytes32"
        },
        {
          "internalType": "address",
          "name": "account",
          "type": "address"
        },
        {
          "internalType": "uint256",
          "name": "period",
          "type": "uint256"
        }
      ],
      "name": "getClaimed",
      "outputs": [
        {
          "internalType": "uint256",
          "name": "",
          "type": "uint256"
        }
      ],
      "payable": false,
      "stateMutability": "view",
      "type": "function"
    },
    {
      "constant": true,
      "inputs": [],
      "name": "getImports",
      "outputs": [
        {
          "internalType": "bytes32[]",
          "name": "",
          "type": "bytes32[]"
        }
      ],
      "payable": false,
      "stateMutability": "view",
      "type": "function"
    },
    {
      "constant": true,
      "inputs": [
        {
          "internalType": "bytes32",
          "name": "asset",
          "type": "bytes32"
        }
      ],
      "name": "getRewardPercentage",
      "outputs": [
        {
          "internalType": "uint256",
          "name": "",
          "type": "uint256"
        }
      ],
      "payable": false,
      "stateMutability": "view",
      "type": "function"
    },
    {
      "constant": true,
      "inputs": [],
      "name": "getStorage",
      "outputs": [
        {
          "internalType": "address",
          "name": "",
          "type": "address"
        }
      ],
      "payable": false,
      "stateMutability": "view",
      "type": "function"
    },
    {
      "constant": true,
      "inputs": [],
      "name": "manager",
      "outputs": [
        {
          "internalType": "address",
          "name": "",
          "type": "address"
        }
      ],
      "payable": false,
      "stateMutability": "view",
      "type": "function"
    },
    {
      "constant": true,
      "inputs": [],
      "name": "owner",
      "outputs": [
        {
          "internalType": "address",
          "name": "",
          "type": "address"
        }
      ],
      "payable": false,
      "stateMutability": "view",
      "type": "function"
    },
    {
      "constant": false,
      "inputs": [],
      "name": "refreshCache",
      "outputs": [],
      "payable": false,
      "stateMutability": "nonpayable",
      "type": "function"
    },
    {
      "constant": true,
      "inputs": [],
      "name": "resolver",
      "outputs": [
        {
          "internalType": "contract IResolver",
          "name": "",
          "type": "address"
        }
      ],
      "payable": false,
      "stateMutability": "view",
      "type": "function"
    },
    {
      "constant": false,
      "inputs": [
        {
          "internalType": "address",
          "name": "_manager",
          "type": "address"
        }
      ],
      "name": "setManager",
      "outputs": [],
      "payable": false,
      "stateMutability": "nonpayable",
      "type": "function"
    },
    {
      "constant": false,
      "inputs": [
        {
          "internalType": "address",
          "name": "_owner",
          "type": "address"
        }
      ],
      "name": "setOwner",
      "outputs": [],
      "payable": false,
      "stateMutability": "nonpayable",
      "type": "function"
    },
    {
      "constant": false,
      "inputs": [
        {
          "internalType": "bytes32",
          "name": "asset",
          "type": "bytes32"
        },
        {
          "internalType": "uint256",
          "name": "percentage",
          "type": "uint256"
        }
      ],
      "name": "setRewardPercentage",
      "outputs": [],
      "payable": false,
      "stateMutability": "nonpayable",
      "type": "function"
    },
    {
      "constant": false,
      "inputs": [
        {
          "internalType": "address",
          "name": "value",
          "type": "address"
        }
      ],
      "name": "setStorage",
      "outputs": [],
      "payable": false,
      "stateMutability": "nonpayable",
      "type": "function"
    },
    {
      "constant": false,
      "inputs": [
        {
          "internalType": "bytes32",
          "name": "token",
          "type": "bytes32"
        },
        {
          "internalType": "address",
          "name": "account",
          "type": "address"
        },
        {
          "internalType": "uint256",
          "name": "amount",
          "type": "uint256"
        }
      ],
      "name": "stake",
      "outputs": [],
      "payable": false,
      "stateMutability": "nonpayable",
      "type": "function"
    },
    {
      "constant": false,
      "inputs": [
        {
          "internalType": "bytes32",
          "name": "token",
          "type": "bytes32"
        },
        {
          "internalType": "address",
          "name": "account",
          "type": "address"
        },
        {
          "internalType": "uint256",
          "name": "amount",
          "type": "uint256"
        }
      ],
      "name": "unstake",
      "outputs": [],
      "payable": false,
      "stateMutability": "nonpayable",
      "type": "function"
    },
    {
      "constant": true,
      "inputs": [
        {
          "internalType": "bytes32",
          "name": "token",
          "type": "bytes32"
        },
        {
          "internalType": "address",
          "name": "account",
          "type": "address"
        }
      ],
      "name": "getStaked",
      "outputs": [
        {
          "internalType": "uint256",
          "name": "",
          "type": "uint256"
        }
      ],
      "payable": false,
      "stateMutability": "view",
      "type": "function"
    },
    {
      "constant": true,
      "inputs": [
        {
          "internalType": "bytes32",
          "name": "token",
          "type": "bytes32"
        },
        {
          "internalType": "address",
          "name": "account",
          "type": "address"
        }
      ],
      "name": "getTransferable",
      "outputs": [
        {
          "internalType": "uint256",
          "name": "staker",
          "type": "uint256"
        },
        {
          "internalType": "uint256",
          "name": "escrow",
          "type": "uint256"
        }
      ],
      "payable": false,
      "stateMutability": "view",
      "type": "function"
    },
    {
      "constant": true,
      "inputs": [
        {
          "internalType": "bytes32",
          "name": "token",
          "type": "bytes32"
        },
        {
          "internalType": "address",
          "name": "account",
          "type": "address"
        }
      ],
      "name": "getCollateralRate",
      "outputs": [
        {
          "internalType": "uint256",
          "name": "",
          "type": "uint256"
        }
      ],
      "payable": false,
      "stateMutability": "view",
      "type": "function"
    },
    {
      "constant": false,
      "inputs": [
        {
          "internalType": "bytes32",
          "name": "asset",
          "type": "bytes32"
        },
        {
          "internalType": "address",
          "name": "account",
          "type": "address"
        }
      ],
      "name": "claim",
      "outputs": [
        {
          "internalType": "uint256",
          "name": "period",
          "type": "uint256"
        },
        {
          "internalType": "uint256",
          "name": "amount",
          "type": "uint256"
        },
        {
          "internalType": "uint256",
          "name": "vestTime",
          "type": "uint256"
        }
      ],
      "payable": false,
      "stateMutability": "nonpayable",
      "type": "function"
    },
    {
      "constant": true,
      "inputs": [
        {
          "internalType": "bytes32",
          "name": "asset",
          "type": "bytes32"
        },
        {
          "internalType": "address",
          "name": "account",
          "type": "address"
        }
      ],
      "name": "getClaimable",
      "outputs": [
        {
          "internalType": "uint256",
          "name": "",
          "type": "uint256"
        }
      ],
      "payable": false,
      "stateMutability": "view",
      "type": "function"
    }
  ],
  "bytecode": "0x60806040523480156200001157600080fd5b50604051620031bc380380620031bc833981810160405260208110156200003757600080fd5b505160018054336001600160a01b03199182168117909255600280548216909217909155600380549091166001600160a01b038316179055620000836529ba30b5b2b960d11b6200011c565b6040518060e00160405280650a6f2dce8d0f60d31b81526020016d537570706c795363686564756c6560901b81526020016524b9b9bab2b960d11b81526020016653657474696e6760c81b8152602001694173736574507269636560b01b815260200165457363726f7760d01b8152602001652a3930b232b960d11b8152506004906007620001149291906200014d565b50506200022f565b6040805160208082018490528251808303820181529183019092528051620001499260009201906200019d565b5050565b8280548282559060005260206000209081019282156200018b579160200282015b828111156200018b5782518255916020019190600101906200016e565b50620001999291506200020f565b5090565b828054600181600116156101000203166002900490600052602060002090601f016020900481019282601f10620001e057805160ff19168380011785556200018b565b828001600101855582156200018b57918201828111156200018b5782518255916020019190600101906200016e565b6200022c91905b8082111562000199576000815560010162000216565b90565b612f7d806200023f6000396000f3fe608060405234801561001057600080fd5b50600436106101125760003560e01c806304f3bcec14610117578063126779c21461013b57806313af40351461019357806321f8a721146101bb5780632e35de05146101d85780633408f73a14610216578063481c6a751461021e5780635d5182d214610226578063668187b8146102525780636a46d4d1146102975780636f5531c5146102b457806375d0c0dc146102e05780638aed3c321461035d5780638c610c8d1461037a5780638da5cb5b146103ac5780639137c1a7146103b457806396c144f0146103da578063a98b9ff414610424578063d0ebdbe714610456578063d5c2c8ca1461047c578063f0f99b5414610484578063f58bed04146104b6575b600080fd5b61011f6104d9565b604080516001600160a01b039092168252519081900360200190f35b6101436104e8565b60408051602080825283518183015283519192839290830191858101910280838360005b8381101561017f578181015183820152602001610167565b505050509050019250505060405180910390f35b6101b9600480360360208110156101a957600080fd5b50356001600160a01b0316610540565b005b61011f600480360360208110156101d157600080fd5b50356107e8565b610204600480360360408110156101ee57600080fd5b50803590602001356001600160a01b0316610806565b60408051918252519081900360200190f35b61011f61094f565b61011f610a45565b6102046004803603604081101561023c57600080fd5b50803590602001356001600160a01b0316610a54565b61027e6004803603604081101561026857600080fd5b50803590602001356001600160a01b0316610b9d565b6040805192835260208301919091528051918290030190f35b610204600480360360208110156102ad57600080fd5b5035610e50565b610204600480360360408110156102ca57600080fd5b50803590602001356001600160a01b0316610ecf565b6102e861122b565b6040805160208082528351818301528351919283929083019185019080838360005b8381101561032257818101518382015260200161030a565b50505050905090810190601f16801561034f5780820380516001836020036101000a031916815260200191505b509250505060405180910390f35b6101b96004803603602081101561037357600080fd5b50356112b9565b6101b96004803603606081101561039057600080fd5b508035906001600160a01b036020820135169060400135611472565b61011f611659565b6101b9600480360360208110156103ca57600080fd5b50356001600160a01b0316611668565b610406600480360360408110156103f057600080fd5b50803590602001356001600160a01b03166117a8565b60408051938452602084019290925282820152519081900360600190f35b6101b96004803603606081101561043a57600080fd5b508035906001600160a01b036020820135169060400135611b6f565b6101b96004803603602081101561046c57600080fd5b50356001600160a01b0316611d01565b6101b9611f1c565b6102046004803603606081101561049a57600080fd5b508035906001600160a01b0360208201351690604001356120d5565b6101b9600480360360408110156104cc57600080fd5b508035906020013561217a565b6003546001600160a01b031681565b6060600480548060200260200160405190810160405280929190818152602001828054801561053657602002820191906000526020600020905b815481526020019060010190808311610522575b5050505050905090565b6001805460408051808201825260198152600080516020612e6f833981519152602080830191909152600080548451600261010098831615989098026000190190911696909604601f81018390048302870183019094528386526001600160a01b039094163314946106159492939092918301828280156106025780601f106105d757610100808354040283529160200191610602565b820191906000526020600020905b8154815290600101906020018083116105e557829003601f168201915b50505050506124ec90919063ffffffff16565b9061069e5760405162461bcd60e51b81526004018080602001828103825283818151815260200191508051906020019080838360005b8381101561066357818101518382015260200161064b565b50505050905090810190601f1680156106905780820380516001836020036101000a031916815260200191505b509250505060405180910390fd5b50604080518082018252601f8082527f3a206e6577206f776e657220697320746865207a65726f206164647265737300602080840191909152600080548551600260001961010060018516150201909216919091049384018390048302810183019095528285526001600160a01b03861615159461073f949390928301828280156106025780601f106105d757610100808354040283529160200191610602565b9061078b5760405162461bcd60e51b815260206004820181815283516024840152835190928392604490910191908501908083836000831561066357818101518382015260200161064b565b506001546040516001600160a01b038084169216907fb532073b38c83145e3e5135377a08bf9aab55bc0fd7c1179cd4fb995d2a5159c90600090a3600180546001600160a01b0319166001600160a01b0392909216919091179055565b6000818152600560205260409020546001600160a01b03165b919050565b6000806108116125a7565b6001600160a01b0316632e35de0585856040518363ffffffff1660e01b815260040180838152602001826001600160a01b03166001600160a01b031681526020019250505060206040518083038186803b15801561086e57600080fd5b505afa158015610882573d6000803e3d6000fd5b505050506040513d602081101561089857600080fd5b505190506229aca760e91b841415610946576109436108b56125b6565b6001600160a01b031663399080ec856040518263ffffffff1660e01b815260040180826001600160a01b03166001600160a01b0316815260200191505060206040518083038186803b15801561090a57600080fd5b505afa15801561091e573d6000803e3d6000fd5b505050506040513d602081101561093457600080fd5b5051829063ffffffff6125ca16565b90505b90505b92915050565b60065460408051808201825260118152700e8814dd1bdc9859d9481b9bdd081cd95d607a1b60208083019190915260008054845160026101006001841615026000190190921691909104601f810184900484028201840190955284815290946001600160a01b03161515936109e893928691908301828280156106025780601f106105d757610100808354040283529160200191610602565b90610a345760405162461bcd60e51b815260206004820181815283516024840152835190928392604490910191908501908083836000831561066357818101518382015260200161064b565b50506006546001600160a01b031690565b6002546001600160a01b031681565b600080610a5f612622565b6001600160a01b031663d12ae67e85856040518363ffffffff1660e01b815260040180838152602001826001600160a01b03166001600160a01b031681526020019250505060206040518083038186803b158015610abc57600080fd5b505afa158015610ad0573d6000803e3d6000fd5b505050506040513d6020811015610ae657600080fd5b505190506000610af4612636565b6001600160a01b03166331d98b3f866040518263ffffffff1660e01b81526004018082815260200191505060206040518083038186803b158015610b3757600080fd5b505afa158015610b4b573d6000803e3d6000fd5b505050506040513d6020811015610b6157600080fd5b505190506000610b718686610806565b9050610b9383610b87838563ffffffff61264e16565b9063ffffffff61266316565b9695505050505050565b6000806000610baa612622565b6001600160a01b031663d12ae67e86866040518363ffffffff1660e01b815260040180838152602001826001600160a01b03166001600160a01b031681526020019250505060206040518083038186803b158015610c0757600080fd5b505afa158015610c1b573d6000803e3d6000fd5b505050506040513d6020811015610c3157600080fd5b505190506000610c3f612636565b6001600160a01b03166331d98b3f876040518263ffffffff1660e01b81526004018082815260200191505060206040518083038186803b158015610c8257600080fd5b505afa158015610c96573d6000803e3d6000fd5b505050506040513d6020811015610cac57600080fd5b505190506000610cbc8787610806565b90506000610cc8612678565b6001600160a01b0316636a5ee7b6896040518263ffffffff1660e01b81526004018082815260200191505060206040518083038186803b158015610d0b57600080fd5b505afa158015610d1f573d6000803e3d6000fd5b505050506040513d6020811015610d3557600080fd5b505190506000610d4f84610b87878563ffffffff61264e16565b9050828110610d6a575060009550859450610e499350505050565b6000610d7c848363ffffffff61268d16565b90506000610d886125a7565b6001600160a01b0316632e35de058c8c6040518363ffffffff1660e01b815260040180838152602001826001600160a01b03166001600160a01b031681526020019250505060206040518083038186803b158015610de557600080fd5b505afa158015610df9573d6000803e3d6000fd5b505050506040513d6020811015610e0f57600080fd5b50519050808211610e2c5750965060009550610e49945050505050565b80610e3d838263ffffffff61268d16565b98509850505050505050505b9250929050565b6000610e5a6125a7565b6001600160a01b0316636a46d4d1836040518263ffffffff1660e01b81526004018082815260200191505060206040518083038186803b158015610e9d57600080fd5b505afa158015610eb1573d6000803e3d6000fd5b505050506040513d6020811015610ec757600080fd5b505192915050565b60006229aca760e91b831480610eeb5750631e5554d160e21b83145b610f3c576040805162461bcd60e51b815260206004820181905260248201527f5374616b65723a206f6e6c7920737570706f7274732053594e20262079555344604482015290519081900360640190fd5b6000610f506529ba30b5b2b960d11b6126cf565b905080610f61576000915050610949565b6000610f6b6127de565b90506000610f7a8686846120d5565b1115610f8b57600092505050610949565b6000631e5554d160e21b861415611061576000610fa787610e50565b905061104b81610fb5612873565b6001600160a01b03166342653db06000876040518363ffffffff1660e01b815260040180836001600160a01b03166001600160a01b031681526020018281526020019250505060206040518083038186803b15801561101357600080fd5b505afa158015611027573d6000803e3d6000fd5b505050506040513d602081101561103d57600080fd5b50519063ffffffff61264e16565b93508361105f576000945050505050610949565b505b6060611074645374616b6560d81b612887565b905060005b815181101561121f5760006110a183838151811061109357fe5b602002602001015189610a54565b90506110ab612678565b6001600160a01b0316636a5ee7b68484815181106110c557fe5b60200260200101516040518263ffffffff1660e01b81526004018082815260200191505060206040518083038186803b15801561110157600080fd5b505afa158015611115573d6000803e3d6000fd5b505050506040513d602081101561112b57600080fd5b505181101561113a5750611217565b60006111f0611147612622565b6001600160a01b031663d930863086868151811061116157fe5b60200260200101518c8a6040518463ffffffff1660e01b815260040180848152602001836001600160a01b03166001600160a01b03168152602001828152602001935050505060206040518083038186803b1580156111bf57600080fd5b505afa1580156111d3573d6000803e3d6000fd5b505050506040513d60208110156111e957600080fd5b50516129a1565b9050611212611205888363ffffffff61264e16565b869063ffffffff6125ca16565b945050505b600101611079565b50909695505050505050565b6000805460408051602060026001851615610100026000190190941693909304601f810184900484028201840190925281815292918301828280156112b15780601f10611286576101008083540402835291602001916112b1565b820191906000526020600020905b81548152906001019060200180831161129457829003601f168201915b505050505081565b6001805460408051808201825260198152600080516020612e6f833981519152602080830191909152600080548451600261010098831615989098026000190190911696909604601f81018390048302870183019094528386526001600160a01b039094163314946113509492939092918301828280156106025780601f106105d757610100808354040283529160200191610602565b9061139c5760405162461bcd60e51b815260206004820181815283516024840152835190928392604490910191908501908083836000831561066357818101518382015260200161064b565b50600354604080516321f8a72160e01b81526004810184905290516001600160a01b03909216916321f8a72191602480820192602092909190829003018186803b1580156113e957600080fd5b505afa1580156113fd573d6000803e3d6000fd5b505050506040513d602081101561141357600080fd5b5051600082815260056020526040812080546001600160a01b0319166001600160a01b03909316929092179091556004805460018101825591527f8a35acfbc15ff81a39ae7d344fd709f28e8600b4aa8c65c6b64bfe7fe36bd19b0155565b650a6f2dce8d0f60d31b600081815260056020908152600080516020612f0883398151915254604080518082018252601481527301d1031b0b63632b91034b9903737ba103a3432960651b818501528454825160026101006001841615026000190190921691909104601f81018690048602820186019093528281526001600160a01b0390931633149461156b949193879390928301828280156115575780601f1061152c57610100808354040283529160200191611557565b820191906000526020600020905b81548152906001019060200180831161153a57829003601f168201915b50505050506129cc9092919063ffffffff16565b906115b75760405162461bcd60e51b815260206004820181815283516024840152835190928392604490910191908501908083836000831561066357818101518382015260200161064b565b506115c06125a7565b6001600160a01b0316637fc889898585856040518463ffffffff1660e01b815260040180848152602001836001600160a01b03166001600160a01b031681526020018281526020019350505050602060405180830381600087803b15801561162757600080fd5b505af115801561163b573d6000803e3d6000fd5b505050506040513d602081101561165157600080fd5b505050505050565b6001546001600160a01b031681565b6001805460408051808201825260198152600080516020612e6f833981519152602080830191909152600080548451600261010098831615989098026000190190911696909604601f81018390048302870183019094528386526001600160a01b039094163314946116ff9492939092918301828280156106025780601f106105d757610100808354040283529160200191610602565b9061174b5760405162461bcd60e51b815260206004820181815283516024840152835190928392604490910191908501908083836000831561066357818101518382015260200161064b565b506006546040516001600160a01b038084169216907f85a70e3ed8a3924b3769cbe4e925987bbd40e8cea31487cbe13bee7b727310a490600090a3600680546001600160a01b0319166001600160a01b0392909216919091179055565b650a6f2dce8d0f60d31b600081815260056020908152600080516020612f0883398151915254604080518082018252601481527301d1031b0b63632b91034b9903737ba103a3432960651b818501528454825160026101006001841615026000190190921691909104601f810186900486028201860190935282815294958695869591946001600160a01b0316331493611868939286929188918301828280156115575780601f1061152c57610100808354040283529160200191611557565b906118b45760405162461bcd60e51b815260206004820181815283516024840152835190928392604490910191908501908083836000831561066357818101518382015260200161064b565b5060006118c18787610ecf565b905060008111611914576040805162461bcd60e51b81526020600482015260196024820152785374616b65723a20636c61696d61626c65206973207a65726f60381b604482015290519081900360640190fd5b600061191e6127de565b905061192c88888385612a85565b631e5554d160e21b881415611ac557611943612622565b6001600160a01b0316631b7ff920631e5554d160e21b611961612873565b6001600160a01b031663eb1edd616040518163ffffffff1660e01b815260040160206040518083038186803b15801561199957600080fd5b505afa1580156119ad573d6000803e3d6000fd5b505050506040513d60208110156119c357600080fd5b5051604080516001600160e01b031960e086901b16815260048101939093526001600160a01b0390911660248301526044820186905251606480830192600092919082900301818387803b158015611a1a57600080fd5b505af1158015611a2e573d6000803e3d6000fd5b50505050611a3a612622565b6001600160a01b03166336d33357631e5554d160e21b89856040518463ffffffff1660e01b815260040180848152602001836001600160a01b03166001600160a01b031681526020018281526020019350505050600060405180830381600087803b158015611aa857600080fd5b505af1158015611abc573d6000803e3d6000fd5b50505050611b63565b611acd6125b6565b6001600160a01b031663bc157ac18289856040518463ffffffff1660e01b815260040180848152602001836001600160a01b03166001600160a01b031681526020018281526020019350505050602060405180830381600087803b158015611b3457600080fd5b505af1158015611b48573d6000803e3d6000fd5b505050506040513d6020811015611b5e57600080fd5b505193505b94509250509250925092565b650a6f2dce8d0f60d31b600081815260056020908152600080516020612f0883398151915254604080518082018252601481527301d1031b0b63632b91034b9903737ba103a3432960651b818501528454825160026101006001841615026000190190921691909104601f81018690048602820186019093528281526001600160a01b03909316331494611c29949193879390928301828280156115575780601f1061152c57610100808354040283529160200191611557565b90611c755760405162461bcd60e51b815260206004820181815283516024840152835190928392604490910191908501908083836000831561066357818101518382015260200161064b565b50611c7e6125a7565b6001600160a01b031663e1ab95d88585856040518463ffffffff1660e01b815260040180848152602001836001600160a01b03166001600160a01b031681526020018281526020018060200182810382526025815260200180612ee360259139604001945050505050602060405180830381600087803b15801561162757600080fd5b6001805460408051808201825260198152600080516020612e6f833981519152602080830191909152600080548451600261010098831615989098026000190190911696909604601f81018390048302870183019094528386526001600160a01b03909416331494611d989492939092918301828280156106025780601f106105d757610100808354040283529160200191610602565b90611de45760405162461bcd60e51b815260206004820181815283516024840152835190928392604490910191908501908083836000831561066357818101518382015260200161064b565b5060006001600160a01b0316816001600160a01b03161415611e73604051806060016040528060218152602001612ec2602191396000805460408051602060026001851615610100026000190190941693909304601f810184900484028201840190925281815292918301828280156106025780601f106105d757610100808354040283529160200191610602565b90611ebf5760405162461bcd60e51b815260206004820181815283516024840152835190928392604490910191908501908083836000831561066357818101518382015260200161064b565b506002546040516001600160a01b038084169216907f605c2dbf762e5f7d60a546d42e7205dcb1b011ebc62a61736a57c9089d3a435090600090a3600280546001600160a01b0319166001600160a01b0392909216919091179055565b6001805460408051808201825260198152600080516020612e6f833981519152602080830191909152600080548451600261010098831615989098026000190190911696909604601f81018390048302870183019094528386526001600160a01b03909416331494611fb39492939092918301828280156106025780601f106105d757610100808354040283529160200191610602565b90611fff5760405162461bcd60e51b815260206004820181815283516024840152835190928392604490910191908501908083836000831561066357818101518382015260200161064b565b5060005b6004548110156120d25760006004828154811061201c57fe5b60009182526020918290200154600354604080516321f8a72160e01b81526004810184905290519294506001600160a01b03909116926321f8a72192602480840193829003018186803b15801561207257600080fd5b505afa158015612086573d6000803e3d6000fd5b505050506040513d602081101561209c57600080fd5b505160009182526005602052604090912080546001600160a01b0319166001600160a01b03909216919091179055600101612003565b50565b60006120df6125a7565b6001600160a01b031663f0f99b548585856040518463ffffffff1660e01b815260040180848152602001836001600160a01b03166001600160a01b03168152602001828152602001935050505060206040518083038186803b15801561214457600080fd5b505afa158015612158573d6000803e3d6000fd5b505050506040513d602081101561216e57600080fd5b505190505b9392505050565b6001805460408051808201825260198152600080516020612e6f833981519152602080830191909152600080548451600261010098831615989098026000190190911696909604601f81018390048302870183019094528386526001600160a01b039094163314946122119492939092918301828280156106025780601f106105d757610100808354040283529160200191610602565b9061225d5760405162461bcd60e51b815260206004820181815283516024840152835190928392604490910191908501908083836000831561066357818101518382015260200161064b565b5060006122686125a7565b6001600160a01b0316636a46d4d164151bdd185b60da1b6040518263ffffffff1660e01b81526004018082815260200191505060206040518083038186803b1580156122b357600080fd5b505afa1580156122c7573d6000803e3d6000fd5b505050506040513d60208110156122dd57600080fd5b5051905060006122eb6125a7565b6001600160a01b0316636a46d4d1856040518263ffffffff1660e01b81526004018082815260200191505060206040518083038186803b15801561232e57600080fd5b505afa158015612342573d6000803e3d6000fd5b505050506040513d602081101561235857600080fd5b50519050600061237e84612372858563ffffffff61268d16565b9063ffffffff6125ca16565b9050612388612b1a565b8111156123c65760405162461bcd60e51b8152600401808060200182810382526033815260200180612e8f6033913960400191505060405180910390fd5b6123ce6125a7565b6001600160a01b031663f58bed0486866040518363ffffffff1660e01b81526004018083815260200182815260200192505050600060405180830381600087803b15801561241b57600080fd5b505af115801561242f573d6000803e3d6000fd5b5050505061243b6125a7565b6001600160a01b031663f58bed0464151bdd185b60da1b836040518363ffffffff1660e01b81526004018083815260200182815260200192505050600060405180830381600087803b15801561249057600080fd5b505af11580156124a4573d6000803e3d6000fd5b5050604080518581526020810188905281518994507feb1f8e19a3e5a8c01411c85a9778a20d61d45a82de2076dcc92a5a2b19c6821793509081900390910190a25050505050565b606082826040516020018083805190602001908083835b602083106125225780518252601f199092019160209182019101612503565b51815160209384036101000a600019018019909216911617905285519190930192850191508083835b6020831061256a5780518252601f19909201916020918201910161254b565b6001836020036101000a03801982511681845116808217855250505050505090500192505050604051602081830303815290604052905092915050565b60006125b161094f565b905090565b60006125b165457363726f7760d01b612b26565b600082820183811015610946576040805162461bcd60e51b815260206004820152601b60248201527a536166654d6174683a206164646974696f6e206f766572666c6f7760281b604482015290519081900360640190fd5b60006125b16524b9b9bab2b960d11b612b26565b60006125b1694173736574507269636560b01b612b26565b60006109468383670de0b6b3a7640000612c2c565b60006109468383670de0b6b3a7640000612c67565b60006125b16653657474696e6760c81b612b26565b600061094683836040518060400160405280601e81526020017f536166654d6174683a207375627472616374696f6e206f766572666c6f770000815250612ca9565b60006126d9612d03565b6001600160a01b0316638c4e8c216040518163ffffffff1660e01b815260040160206040518083038186803b15801561271157600080fd5b505afa158015612725573d6000803e3d6000fd5b505050506040513d602081101561273b57600080fd5b505142111561274c57506000610801565b60006127566127de565b9050612760612d03565b6001600160a01b031663dcba23ce84836040518363ffffffff1660e01b8152600401808381526020018281526020019250505060206040518083038186803b1580156127ab57600080fd5b505afa1580156127bf573d6000803e3d6000fd5b505050506040513d60208110156127d557600080fd5b50519392505050565b6000806127e9612d03565b6001600160a01b031663559c52356040518163ffffffff1660e01b815260040160206040518083038186803b15801561282157600080fd5b505afa158015612835573d6000803e3d6000fd5b505050506040513d602081101561284b57600080fd5b50519050801561286b5761286681600163ffffffff61268d16565b61286d565b805b91505090565b60006125b1652a3930b232b960d11b612b26565b600354604080516309de567f60e41b81526004810184905290516060926001600160a01b031691639de567f0916024808301926000929190829003018186803b1580156128d357600080fd5b505afa1580156128e7573d6000803e3d6000fd5b505050506040513d6000823e601f3d908101601f19168201604052602081101561291057600080fd5b8101908080516040519392919084600160201b82111561292f57600080fd5b90830190602082018581111561294457600080fd5b82518660208202830111600160201b8211171561296057600080fd5b82525081516020918201928201910280838360005b8381101561298d578181015183820152602001612975565b505050509050016040525050509050919050565b6000806129b183601b6013612d1f565b90506005600a8206106129c257600a015b600a900492915050565b60608383836040516020018084805190602001908083835b60208310612a035780518252601f1990920191602091820191016129e4565b51815160209384036101000a600019018019909216911617905286519190930192860191508083835b60208310612a4b5780518252601f199092019160209182019101612a2c565b51815160209384036101000a6000190180199092169116179052920193845250604080518085038152939091019052509695505050505050565b612a8d6125a7565b6001600160a01b031663771c5c53858585856040518563ffffffff1660e01b815260040180858152602001846001600160a01b03166001600160a01b03168152602001838152602001828152602001945050505050600060405180830381600087803b158015612afc57600080fd5b505af1158015612b10573d6000803e3d6000fd5b5050505050505050565b670de0b6b3a764000090565b60008181526005602090815260408083205481518083018352600a81526901d1026b4b9b9b4b733960b51b818501528454835160026101006001841615026000190190921691909104601f81018690048602820186019094528381526001600160a01b03909216151593612bc3939192879290918791908301828280156115575780601f1061152c57610100808354040283529160200191611557565b90612c0f5760405162461bcd60e51b815260206004820181815283516024840152835190928392604490910191908501908083836000831561066357818101518382015260200161064b565b50506000908152600560205260409020546001600160a01b031690565b6000831580612c39575082155b15612c4657506000612173565b81612c57858563ffffffff612d7616565b81612c5e57fe5b04949350505050565b6000831580612c74575082155b15612c8157506000612173565b612ca183612c95868563ffffffff612d7616565b9063ffffffff612dcf16565b949350505050565b60008184841115612cfb5760405162461bcd60e51b815260206004820181815283516024840152835190928392604490910191908501908083836000831561066357818101518382015260200161064b565b505050900390565b60006125b16d537570706c795363686564756c6560901b612b26565b600083612d2e57506000612173565b81831415612d3d575082612173565b81831015612d6157612d5a84848403600a0a63ffffffff612d7616565b9050612173565b612ca184838503600a0a63ffffffff612dcf16565b600082612d8557506000610949565b82820282848281612d9257fe5b04146109465760405162461bcd60e51b8152600401808060200182810382526021815260200180612f286021913960400191505060405180910390fd5b600061094683836040518060400160405280601a815260200179536166654d6174683a206469766973696f6e206279207a65726f60301b81525060008183612e585760405162461bcd60e51b815260206004820181815283516024840152835190928392604490910191908501908083836000831561066357818101518382015260200161064b565b506000838581612e6457fe5b049594505050505056fe3a2063616c6c6572206973206e6f7420746865206f776e657200000000000000526577617264733a20746f74616c2070657263656e74206d757374206265206e6f2067726561746572207468616e20313030253a206e6577206d616e6167657220697320746865207a65726f20616464726573735374616b65723a20756e7374616b6520616d6f756e742065786365656473207374616b6564f420db0c49eb249cd6dd94b6b96dabd210919bd87c94ecc5fec4a9e1c9775ad5536166654d6174683a206d756c7469706c69636174696f6e206f766572666c6f77a265627a7a7231582077b62d8b1e0589e264c3991ee53ec1a18e2c9d6a31389e2e9e26f0aff6acb00f64736f6c63430005110032",
  "source": "// SPDX-License-Identifier: MIT\npragma solidity ^0.5.17;\n\nimport './base/Rewards.sol';\nimport './interfaces/IStaker.sol';\nimport './interfaces/storages/IStakerStorage.sol';\nimport './interfaces/IIssuer.sol';\nimport './interfaces/ISetting.sol';\nimport './interfaces/IAssetPrice.sol';\nimport './interfaces/IEscrow.sol';\nimport './interfaces/ITrader.sol';\n\ncontract Staker is Rewards, IStaker {\n    constructor(IResolver _resolver) public Importable(_resolver) {\n        setContractName(CONTRACT_STAKER);\n        imports = [\n            CONTRACT_SYNTHX,\n            CONTRACT_SUPPLY_SCHEDULE,\n            CONTRACT_ISSUER,\n            CONTRACT_SETTING,\n            CONTRACT_ASSET_PRICE,\n            CONTRACT_ESCROW,\n            CONTRACT_TRADER\n        ];\n    }\n\n    function Storage() private view returns (IStakerStorage) {\n        return IStakerStorage(getStorage());\n    }\n\n    function Issuer() private view returns (IIssuer) {\n        return IIssuer(requireAddress(CONTRACT_ISSUER));\n    }\n\n    function Setting() private view returns (ISetting) {\n        return ISetting(requireAddress(CONTRACT_SETTING));\n    }\n\n    function AssetPrice() private view returns (IAssetPrice) {\n        return IAssetPrice(requireAddress(CONTRACT_ASSET_PRICE));\n    }\n\n    function Escrow() private view returns (IEscrow) {\n        return IEscrow(requireAddress(CONTRACT_ESCROW));\n    }\n\n    function Trader() private view returns (ITrader) {\n        return ITrader(requireAddress(CONTRACT_TRADER));\n    }\n\n    function stake(\n        bytes32 token,\n        address account,\n        uint256 amount\n    ) external onlyAddress(CONTRACT_SYNTHX) {\n        Storage().incrementStaked(token, account, amount);\n    }\n\n    function unstake(\n        bytes32 token,\n        address account,\n        uint256 amount\n    ) external onlyAddress(CONTRACT_SYNTHX) {\n        Storage().decrementStaked(token, account, amount, 'Staker: unstake amount exceeds staked');\n    }\n\n    function getStaked(bytes32 token, address account) public view returns (uint256) {\n        uint256 staked = Storage().getStaked(token, account);\n        if (token == SYN) staked = staked.add(Escrow().getStaked(account));\n        return staked;\n    }\n\n    function getTransferable(bytes32 token, address account) external view returns (uint256 staker, uint256 escrow) {\n        uint256 debt = Issuer().getDebt(token, account);\n        uint256 price = AssetPrice().getPrice(token);\n        uint256 staked = getStaked(token, account);\n        uint256 collateralRate = Setting().getCollateralRate(token);\n        uint256 stakeAmount = debt.decimalMultiply(collateralRate).decimalDivide(price);\n        if (stakeAmount >= staked) return (0, 0);\n\n        uint256 transferable = staked.sub(stakeAmount);\n        uint256 _staked = Storage().getStaked(token, account);\n        if (transferable <= _staked) return (transferable, 0);\n\n        return (_staked, transferable.sub(_staked));\n    }\n\n    function getCollateralRate(bytes32 token, address account) public view returns (uint256) {\n        uint256 debt = Issuer().getDebt(token, account);\n        uint256 price = AssetPrice().getPrice(token);\n        uint256 staked = getStaked(token, account);\n        return staked.decimalMultiply(price).decimalDivide(debt);\n    }\n\n    function claim(bytes32 asset, address account)\n        external\n        onlyAddress(CONTRACT_SYNTHX)\n        returns (\n            uint256 period,\n            uint256 amount,\n            uint256 vestTime\n        )\n    {\n        uint256 claimable = getClaimable(asset, account);\n        require(claimable > 0, 'Staker: claimable is zero');\n\n        uint256 claimablePeriod = getClaimablePeriod();\n        setClaimed(asset, account, claimablePeriod, claimable);\n\n        if (asset == USD) {\n            Issuer().burnSynth(USD, Trader().FEE_ADDRESS(), claimable);\n            Issuer().issueSynth(USD, account, claimable);\n        } else {\n            vestTime = Escrow().deposit(claimablePeriod, account, claimable);\n        }\n\n        return (claimablePeriod, claimable, vestTime);\n    }\n\n    function getClaimable(bytes32 asset, address account) public view returns (uint256) {\n        require(asset == SYN || asset == USD, 'Staker: only supports SYN & yUSD');\n\n        uint256 rewards = getRewardSupply(CONTRACT_STAKER);\n        if (rewards == 0) return 0;\n\n        uint256 claimablePeriod = getClaimablePeriod();\n        if (getClaimed(asset, account, claimablePeriod) > 0) return 0;\n\n        uint256 claimable = 0;\n\n        if (asset == USD) {\n            uint256 rewardPercentage = getRewardPercentage(asset);\n            rewards = Trader().getTradingFee(address(0), claimablePeriod).decimalMultiply(rewardPercentage);\n            if (rewards == 0) return 0;\n        }\n\n        bytes32[] memory stakes = assets('Stake');\n        for (uint256 i = 0; i < stakes.length; i++) {\n            uint256 collateralRate = getCollateralRate(stakes[i], account);\n            if (collateralRate < Setting().getCollateralRate(stakes[i])) continue;\n\n            uint256 percentage = Issuer().getDebtPercentage(stakes[i], account, claimablePeriod).toDecimal();\n            claimable = claimable.add(rewards.decimalMultiply(percentage));\n        }\n\n        return claimable;\n    }\n}\n",
  "sourcePath": "/Users/sun/go/src/github.com/Dipper-Labs/DIPSYN/contracts/Staker.sol",
  "compiler": {
    "name": "solc",
    "version": "0.5.17+commit.d19bba13.Emscripten.clang"
  },
  "schemaVersion": "3.3.4",
  "updatedAt": "2021-04-21T04:08:13.997Z",
  "devdoc": {
    "methods": {}
  },
  "userdoc": {
    "methods": {}
  }
}