{
  "contractName": "Stats",
  "abi": [
    {
      "inputs": [
        {
          "internalType": "contract IResolver",
          "name": "resolver",
          "type": "address"
        }
      ],
      "payable": false,
      "stateMutability": "nonpayable",
      "type": "constructor"
    },
    {
      "anonymous": false,
      "inputs": [
        {
          "indexed": true,
          "internalType": "address",
          "name": "previousValue",
          "type": "address"
        },
        {
          "indexed": true,
          "internalType": "address",
          "name": "newValue",
          "type": "address"
        }
      ],
      "name": "ManagerChanged",
      "type": "event"
    },
    {
      "anonymous": false,
      "inputs": [
        {
          "indexed": true,
          "internalType": "address",
          "name": "previousValue",
          "type": "address"
        },
        {
          "indexed": true,
          "internalType": "address",
          "name": "newValue",
          "type": "address"
        }
      ],
      "name": "OwnerChanged",
      "type": "event"
    },
    {
      "constant": false,
      "inputs": [
        {
          "internalType": "bytes32",
          "name": "name",
          "type": "bytes32"
        }
      ],
      "name": "addAddress",
      "outputs": [],
      "payable": false,
      "stateMutability": "nonpayable",
      "type": "function"
    },
    {
      "constant": true,
      "inputs": [],
      "name": "contractName",
      "outputs": [
        {
          "internalType": "string",
          "name": "",
          "type": "string"
        }
      ],
      "payable": false,
      "stateMutability": "view",
      "type": "function"
    },
    {
      "constant": true,
      "inputs": [
        {
          "internalType": "bytes32",
          "name": "name",
          "type": "bytes32"
        }
      ],
      "name": "getAddress",
      "outputs": [
        {
          "internalType": "address",
          "name": "",
          "type": "address"
        }
      ],
      "payable": false,
      "stateMutability": "view",
      "type": "function"
    },
    {
      "constant": true,
      "inputs": [],
      "name": "getImports",
      "outputs": [
        {
          "internalType": "bytes32[]",
          "name": "",
          "type": "bytes32[]"
        }
      ],
      "payable": false,
      "stateMutability": "view",
      "type": "function"
    },
    {
      "constant": true,
      "inputs": [],
      "name": "manager",
      "outputs": [
        {
          "internalType": "address",
          "name": "",
          "type": "address"
        }
      ],
      "payable": false,
      "stateMutability": "view",
      "type": "function"
    },
    {
      "constant": true,
      "inputs": [],
      "name": "owner",
      "outputs": [
        {
          "internalType": "address",
          "name": "",
          "type": "address"
        }
      ],
      "payable": false,
      "stateMutability": "view",
      "type": "function"
    },
    {
      "constant": false,
      "inputs": [],
      "name": "refreshCache",
      "outputs": [],
      "payable": false,
      "stateMutability": "nonpayable",
      "type": "function"
    },
    {
      "constant": true,
      "inputs": [],
      "name": "resolver",
      "outputs": [
        {
          "internalType": "contract IResolver",
          "name": "",
          "type": "address"
        }
      ],
      "payable": false,
      "stateMutability": "view",
      "type": "function"
    },
    {
      "constant": false,
      "inputs": [
        {
          "internalType": "address",
          "name": "_manager",
          "type": "address"
        }
      ],
      "name": "setManager",
      "outputs": [],
      "payable": false,
      "stateMutability": "nonpayable",
      "type": "function"
    },
    {
      "constant": false,
      "inputs": [
        {
          "internalType": "address",
          "name": "_owner",
          "type": "address"
        }
      ],
      "name": "setOwner",
      "outputs": [],
      "payable": false,
      "stateMutability": "nonpayable",
      "type": "function"
    },
    {
      "constant": true,
      "inputs": [
        {
          "internalType": "address",
          "name": "account",
          "type": "address"
        }
      ],
      "name": "getBalance",
      "outputs": [
        {
          "components": [
            {
              "internalType": "bytes32",
              "name": "assetName",
              "type": "bytes32"
            },
            {
              "internalType": "address",
              "name": "assetAddress",
              "type": "address"
            },
            {
              "internalType": "bytes32",
              "name": "category",
              "type": "bytes32"
            },
            {
              "internalType": "uint256",
              "name": "balance",
              "type": "uint256"
            },
            {
              "internalType": "uint256",
              "name": "price",
              "type": "uint256"
            },
            {
              "internalType": "uint256",
              "name": "status",
              "type": "uint256"
            }
          ],
          "internalType": "struct IStats.Asset[]",
          "name": "",
          "type": "tuple[]"
        }
      ],
      "payable": false,
      "stateMutability": "view",
      "type": "function"
    },
    {
      "constant": true,
      "inputs": [
        {
          "internalType": "bytes32",
          "name": "assetType",
          "type": "bytes32"
        },
        {
          "internalType": "bytes32",
          "name": "assetName",
          "type": "bytes32"
        },
        {
          "internalType": "address",
          "name": "account",
          "type": "address"
        }
      ],
      "name": "getAsset",
      "outputs": [
        {
          "components": [
            {
              "internalType": "bytes32",
              "name": "assetName",
              "type": "bytes32"
            },
            {
              "internalType": "address",
              "name": "assetAddress",
              "type": "address"
            },
            {
              "internalType": "bytes32",
              "name": "category",
              "type": "bytes32"
            },
            {
              "internalType": "uint256",
              "name": "balance",
              "type": "uint256"
            },
            {
              "internalType": "uint256",
              "name": "price",
              "type": "uint256"
            },
            {
              "internalType": "uint256",
              "name": "status",
              "type": "uint256"
            }
          ],
          "internalType": "struct IStats.Asset",
          "name": "",
          "type": "tuple"
        }
      ],
      "payable": false,
      "stateMutability": "view",
      "type": "function"
    },
    {
      "constant": true,
      "inputs": [
        {
          "internalType": "bytes32",
          "name": "assetType",
          "type": "bytes32"
        },
        {
          "internalType": "address",
          "name": "account",
          "type": "address"
        }
      ],
      "name": "getAssets",
      "outputs": [
        {
          "components": [
            {
              "internalType": "bytes32",
              "name": "assetName",
              "type": "bytes32"
            },
            {
              "internalType": "address",
              "name": "assetAddress",
              "type": "address"
            },
            {
              "internalType": "bytes32",
              "name": "category",
              "type": "bytes32"
            },
            {
              "internalType": "uint256",
              "name": "balance",
              "type": "uint256"
            },
            {
              "internalType": "uint256",
              "name": "price",
              "type": "uint256"
            },
            {
              "internalType": "uint256",
              "name": "status",
              "type": "uint256"
            }
          ],
          "internalType": "struct IStats.Asset[]",
          "name": "",
          "type": "tuple[]"
        }
      ],
      "payable": false,
      "stateMutability": "view",
      "type": "function"
    },
    {
      "constant": true,
      "inputs": [
        {
          "internalType": "bytes32",
          "name": "stake",
          "type": "bytes32"
        },
        {
          "internalType": "address",
          "name": "account",
          "type": "address"
        }
      ],
      "name": "getVault",
      "outputs": [
        {
          "components": [
            {
              "internalType": "bytes32",
              "name": "assetName",
              "type": "bytes32"
            },
            {
              "internalType": "address",
              "name": "assetAddress",
              "type": "address"
            },
            {
              "internalType": "uint256",
              "name": "currentCollateralRate",
              "type": "uint256"
            },
            {
              "internalType": "uint256",
              "name": "rewardCollateralRate",
              "type": "uint256"
            },
            {
              "internalType": "uint256",
              "name": "liquidationCollateralRate",
              "type": "uint256"
            },
            {
              "internalType": "uint256",
              "name": "liquidationFeeRate",
              "type": "uint256"
            },
            {
              "internalType": "uint256",
              "name": "staked",
              "type": "uint256"
            },
            {
              "internalType": "uint256",
              "name": "debt",
              "type": "uint256"
            },
            {
              "internalType": "uint256",
              "name": "transferable",
              "type": "uint256"
            },
            {
              "internalType": "uint256",
              "name": "balance",
              "type": "uint256"
            },
            {
              "internalType": "uint256",
              "name": "price",
              "type": "uint256"
            }
          ],
          "internalType": "struct IStats.Vault",
          "name": "",
          "type": "tuple"
        }
      ],
      "payable": false,
      "stateMutability": "view",
      "type": "function"
    },
    {
      "constant": true,
      "inputs": [
        {
          "internalType": "address",
          "name": "account",
          "type": "address"
        }
      ],
      "name": "getVaults",
      "outputs": [
        {
          "components": [
            {
              "internalType": "bytes32",
              "name": "assetName",
              "type": "bytes32"
            },
            {
              "internalType": "address",
              "name": "assetAddress",
              "type": "address"
            },
            {
              "internalType": "uint256",
              "name": "currentCollateralRate",
              "type": "uint256"
            },
            {
              "internalType": "uint256",
              "name": "rewardCollateralRate",
              "type": "uint256"
            },
            {
              "internalType": "uint256",
              "name": "liquidationCollateralRate",
              "type": "uint256"
            },
            {
              "internalType": "uint256",
              "name": "liquidationFeeRate",
              "type": "uint256"
            },
            {
              "internalType": "uint256",
              "name": "staked",
              "type": "uint256"
            },
            {
              "internalType": "uint256",
              "name": "debt",
              "type": "uint256"
            },
            {
              "internalType": "uint256",
              "name": "transferable",
              "type": "uint256"
            },
            {
              "internalType": "uint256",
              "name": "balance",
              "type": "uint256"
            },
            {
              "internalType": "uint256",
              "name": "price",
              "type": "uint256"
            }
          ],
          "internalType": "struct IStats.Vault[]",
          "name": "",
          "type": "tuple[]"
        }
      ],
      "payable": false,
      "stateMutability": "view",
      "type": "function"
    },
    {
      "constant": true,
      "inputs": [
        {
          "internalType": "address",
          "name": "account",
          "type": "address"
        }
      ],
      "name": "getTotalCollateral",
      "outputs": [
        {
          "internalType": "uint256",
          "name": "totalCollateralRatio",
          "type": "uint256"
        },
        {
          "internalType": "uint256",
          "name": "totalCollateralValue",
          "type": "uint256"
        },
        {
          "internalType": "uint256",
          "name": "totalDebt",
          "type": "uint256"
        }
      ],
      "payable": false,
      "stateMutability": "view",
      "type": "function"
    },
    {
      "constant": true,
      "inputs": [
        {
          "internalType": "address",
          "name": "account",
          "type": "address"
        }
      ],
      "name": "getEscrowed",
      "outputs": [
        {
          "internalType": "uint256",
          "name": "total",
          "type": "uint256"
        },
        {
          "internalType": "uint256",
          "name": "staked",
          "type": "uint256"
        }
      ],
      "payable": false,
      "stateMutability": "view",
      "type": "function"
    },
    {
      "constant": true,
      "inputs": [
        {
          "internalType": "bytes32",
          "name": "asset",
          "type": "bytes32"
        },
        {
          "internalType": "address",
          "name": "account",
          "type": "address"
        },
        {
          "internalType": "bool",
          "name": "isPool",
          "type": "bool"
        }
      ],
      "name": "getLocked",
      "outputs": [
        {
          "internalType": "uint256",
          "name": "",
          "type": "uint256"
        }
      ],
      "payable": false,
      "stateMutability": "view",
      "type": "function"
    },
    {
      "constant": true,
      "inputs": [
        {
          "internalType": "bytes32",
          "name": "stake",
          "type": "bytes32"
        },
        {
          "internalType": "address",
          "name": "account",
          "type": "address"
        }
      ],
      "name": "getAvailable",
      "outputs": [
        {
          "internalType": "uint256",
          "name": "balance",
          "type": "uint256"
        },
        {
          "internalType": "uint256",
          "name": "escrowed",
          "type": "uint256"
        },
        {
          "internalType": "uint256",
          "name": "transferable",
          "type": "uint256"
        }
      ],
      "payable": false,
      "stateMutability": "view",
      "type": "function"
    },
    {
      "constant": true,
      "inputs": [
        {
          "internalType": "address",
          "name": "account",
          "type": "address"
        }
      ],
      "name": "getSynthValue",
      "outputs": [
        {
          "internalType": "uint256",
          "name": "",
          "type": "uint256"
        }
      ],
      "payable": false,
      "stateMutability": "view",
      "type": "function"
    },
    {
      "constant": true,
      "inputs": [
        {
          "internalType": "bytes32",
          "name": "fromSynth",
          "type": "bytes32"
        },
        {
          "internalType": "uint256",
          "name": "fromAmount",
          "type": "uint256"
        },
        {
          "internalType": "bytes32",
          "name": "toSynth",
          "type": "bytes32"
        }
      ],
      "name": "getTradingAmountAndFee",
      "outputs": [
        {
          "internalType": "uint256",
          "name": "tradingAmount",
          "type": "uint256"
        },
        {
          "internalType": "uint256",
          "name": "tradingFee",
          "type": "uint256"
        }
      ],
      "payable": false,
      "stateMutability": "view",
      "type": "function"
    },
    {
      "constant": true,
      "inputs": [
        {
          "internalType": "bytes32",
          "name": "fromSynth",
          "type": "bytes32"
        },
        {
          "internalType": "bytes32",
          "name": "toSynth",
          "type": "bytes32"
        },
        {
          "internalType": "uint256",
          "name": "toAmount",
          "type": "uint256"
        }
      ],
      "name": "getTradingAmountAndFee",
      "outputs": [
        {
          "internalType": "uint256",
          "name": "tradingAmount",
          "type": "uint256"
        },
        {
          "internalType": "uint256",
          "name": "tradingFee",
          "type": "uint256"
        }
      ],
      "payable": false,
      "stateMutability": "view",
      "type": "function"
    },
    {
      "constant": true,
      "inputs": [
        {
          "internalType": "address",
          "name": "account",
          "type": "address"
        }
      ],
      "name": "getWithdrawable",
      "outputs": [
        {
          "internalType": "uint256",
          "name": "",
          "type": "uint256"
        }
      ],
      "payable": false,
      "stateMutability": "view",
      "type": "function"
    },
    {
      "constant": true,
      "inputs": [
        {
          "internalType": "address",
          "name": "account",
          "type": "address"
        }
      ],
      "name": "getRewards",
      "outputs": [
        {
          "components": [
            {
              "internalType": "bytes32",
              "name": "reward",
              "type": "bytes32"
            },
            {
              "internalType": "bytes32",
              "name": "token",
              "type": "bytes32"
            },
            {
              "internalType": "bytes32",
              "name": "asset",
              "type": "bytes32"
            },
            {
              "internalType": "uint256",
              "name": "amount",
              "type": "uint256"
            },
            {
              "internalType": "uint256",
              "name": "time",
              "type": "uint256"
            }
          ],
          "internalType": "struct IStats.Reward[]",
          "name": "",
          "type": "tuple[]"
        }
      ],
      "payable": false,
      "stateMutability": "view",
      "type": "function"
    },
    {
      "constant": true,
      "inputs": [
        {
          "internalType": "bytes32",
          "name": "assetType",
          "type": "bytes32"
        }
      ],
      "name": "getRewardTokens",
      "outputs": [
        {
          "components": [
            {
              "internalType": "bytes32",
              "name": "reward",
              "type": "bytes32"
            },
            {
              "internalType": "bytes32",
              "name": "token",
              "type": "bytes32"
            },
            {
              "internalType": "bytes32",
              "name": "asset",
              "type": "bytes32"
            },
            {
              "internalType": "uint256",
              "name": "amount",
              "type": "uint256"
            },
            {
              "internalType": "uint256",
              "name": "time",
              "type": "uint256"
            }
          ],
          "internalType": "struct IStats.Reward[]",
          "name": "",
          "type": "tuple[]"
        }
      ],
      "payable": false,
      "stateMutability": "view",
      "type": "function"
    },
    {
      "constant": true,
      "inputs": [
        {
          "internalType": "bytes32",
          "name": "asset",
          "type": "bytes32"
        }
      ],
      "name": "getAssetMarket",
      "outputs": [
        {
          "internalType": "uint256",
          "name": "open",
          "type": "uint256"
        },
        {
          "internalType": "uint256",
          "name": "last",
          "type": "uint256"
        },
        {
          "internalType": "uint256",
          "name": "low",
          "type": "uint256"
        },
        {
          "internalType": "uint256",
          "name": "hight",
          "type": "uint256"
        },
        {
          "internalType": "uint256",
          "name": "volume",
          "type": "uint256"
        },
        {
          "internalType": "uint256",
          "name": "turnover",
          "type": "uint256"
        }
      ],
      "payable": false,
      "stateMutability": "view",
      "type": "function"
    },
    {
      "constant": true,
      "inputs": [
        {
          "internalType": "bytes32",
          "name": "asset",
          "type": "bytes32"
        },
        {
          "internalType": "uint256",
          "name": "size",
          "type": "uint256"
        }
      ],
      "name": "getLine",
      "outputs": [
        {
          "internalType": "uint256[]",
          "name": "",
          "type": "uint256[]"
        }
      ],
      "payable": false,
      "stateMutability": "view",
      "type": "function"
    },
    {
      "constant": true,
      "inputs": [
        {
          "internalType": "bytes32",
          "name": "fromAsset",
          "type": "bytes32"
        },
        {
          "internalType": "bytes32",
          "name": "toAsset",
          "type": "bytes32"
        }
      ],
      "name": "getPair",
      "outputs": [
        {
          "components": [
            {
              "internalType": "bytes32",
              "name": "fromAsset",
              "type": "bytes32"
            },
            {
              "internalType": "uint256",
              "name": "fromAssetPrice",
              "type": "uint256"
            },
            {
              "internalType": "bytes32",
              "name": "toAsset",
              "type": "bytes32"
            },
            {
              "internalType": "uint256",
              "name": "toAssetPrice",
              "type": "uint256"
            },
            {
              "internalType": "bytes32",
              "name": "category",
              "type": "bytes32"
            },
            {
              "internalType": "uint256",
              "name": "open",
              "type": "uint256"
            },
            {
              "internalType": "uint256",
              "name": "last",
              "type": "uint256"
            },
            {
              "internalType": "uint256",
              "name": "low",
              "type": "uint256"
            },
            {
              "internalType": "uint256",
              "name": "hight",
              "type": "uint256"
            },
            {
              "internalType": "uint256",
              "name": "volume",
              "type": "uint256"
            },
            {
              "internalType": "uint256",
              "name": "turnover",
              "type": "uint256"
            },
            {
              "internalType": "uint256",
              "name": "status",
              "type": "uint256"
            }
          ],
          "internalType": "struct IStats.Pair",
          "name": "",
          "type": "tuple"
        }
      ],
      "payable": false,
      "stateMutability": "view",
      "type": "function"
    },
    {
      "constant": true,
      "inputs": [],
      "name": "getPairs",
      "outputs": [
        {
          "components": [
            {
              "internalType": "bytes32",
              "name": "fromAsset",
              "type": "bytes32"
            },
            {
              "internalType": "uint256",
              "name": "fromAssetPrice",
              "type": "uint256"
            },
            {
              "internalType": "bytes32",
              "name": "toAsset",
              "type": "bytes32"
            },
            {
              "internalType": "uint256",
              "name": "toAssetPrice",
              "type": "uint256"
            },
            {
              "internalType": "bytes32",
              "name": "category",
              "type": "bytes32"
            },
            {
              "internalType": "uint256",
              "name": "open",
              "type": "uint256"
            },
            {
              "internalType": "uint256",
              "name": "last",
              "type": "uint256"
            },
            {
              "internalType": "uint256",
              "name": "low",
              "type": "uint256"
            },
            {
              "internalType": "uint256",
              "name": "hight",
              "type": "uint256"
            },
            {
              "internalType": "uint256",
              "name": "volume",
              "type": "uint256"
            },
            {
              "internalType": "uint256",
              "name": "turnover",
              "type": "uint256"
            },
            {
              "internalType": "uint256",
              "name": "status",
              "type": "uint256"
            }
          ],
          "internalType": "struct IStats.Pair[]",
          "name": "",
          "type": "tuple[]"
        }
      ],
      "payable": false,
      "stateMutability": "view",
      "type": "function"
    },
    {
      "constant": true,
      "inputs": [
        {
          "internalType": "address",
          "name": "account",
          "type": "address"
        },
        {
          "internalType": "uint256",
          "name": "period",
          "type": "uint256"
        }
      ],
      "name": "getTradingFee",
      "outputs": [
        {
          "internalType": "uint256",
          "name": "",
          "type": "uint256"
        }
      ],
      "payable": false,
      "stateMutability": "view",
      "type": "function"
    },
    {
      "constant": true,
      "inputs": [
        {
          "internalType": "bytes32",
          "name": "stake",
          "type": "bytes32"
        },
        {
          "internalType": "address",
          "name": "account",
          "type": "address"
        },
        {
          "internalType": "uint256",
          "name": "period",
          "type": "uint256"
        }
      ],
      "name": "getDebtPercentage",
      "outputs": [
        {
          "internalType": "uint256",
          "name": "",
          "type": "uint256"
        }
      ],
      "payable": false,
      "stateMutability": "view",
      "type": "function"
    },
    {
      "constant": true,
      "inputs": [
        {
          "internalType": "bytes32",
          "name": "asset",
          "type": "bytes32"
        },
        {
          "internalType": "address",
          "name": "account",
          "type": "address"
        },
        {
          "internalType": "uint256",
          "name": "period",
          "type": "uint256"
        },
        {
          "internalType": "bool",
          "name": "isPool",
          "type": "bool"
        }
      ],
      "name": "getPeriodLocked",
      "outputs": [
        {
          "internalType": "uint256",
          "name": "",
          "type": "uint256"
        }
      ],
      "payable": false,
      "stateMutability": "view",
      "type": "function"
    }
  ],
  "bytecode": "0x60806040523480156200001157600080fd5b5060405162004fc838038062004fc88339810160408190526200003491620002a6565b60018054336001600160a01b03199182168117909255600280548216909217909155600380549091166001600160a01b0383161790556200007d64537461747360d81b62000174565b604051806101a001604052806d537570706c795363686564756c6560901b8152602001650a6f2dce8d0f60d31b815260200165457363726f7760d01b81526020016529ba30b5b2b960d11b8152602001694173736574507269636560b01b81526020016653657474696e6760c81b81526020016524b9b9bab2b960d11b8152602001652437b63232b960d11b8152602001652a3930b232b960d11b8152602001652437b63232b960d11b815260200167283937bb34b232b960c11b81526020016513585c9ad95d60d21b81526020016614dc1958da585b60ca1b815250600490600d6200016c929190620001b1565b505062000341565b80604051602001620001879190620002ea565b60405160208183030381529060405260009080519060200190620001ad92919062000201565b5050565b828054828255906000526020600020908101928215620001ef579160200282015b82811115620001ef578251825591602001919060010190620001d2565b50620001fd92915062000273565b5090565b828054600181600116156101000203166002900490600052602060002090601f016020900481019282601f106200024457805160ff1916838001178555620001ef565b82800160010185558215620001ef5791820182811115620001ef578251825591602001919060010190620001d2565b6200029091905b80821115620001fd57600081556001016200027a565b90565b8051620002a08162000327565b92915050565b600060208284031215620002b957600080fd5b6000620002c7848462000293565b949350505050565b620002e4620002de8262000290565b62000290565b82525050565b6000620002f88284620002cf565b50602001919050565b6000620002a0826200031b565b6000620002a08262000301565b6001600160a01b031690565b62000332816200030e565b81146200033e57600080fd5b50565b614c7780620003516000396000f3fe608060405234801561001057600080fd5b50600436106101805760003560e01c806302b0d26d1461018557806304f3bcec146101af578063092a4689146101c4578063126779c2146101e457806313af4035146101f95780631ae730321461020e5780631f42d34b146102215780631f472b7c1461024157806321f8a7211461026157806332cc6ae614610281578063395f69371461029457806342653db0146102a7578063481c6a75146102ba5780635441e69d146102c257806360a98b80146102e457806364341363146102f757806375d0c0dc14610317578063767eb5ef1461032c57806379ee54f7146103415780638aed3c32146103545780638da5cb5b14610367578063aa3787441461036f578063d0ebdbe714610382578063d5c2c8ca14610395578063d93086301461039d578063dff9c265146103b0578063eaa26248146103d0578063f8b2cb4f146103f0578063f944da2914610403578063fb72be8114610416578063fddcf4a714610436578063fe7c9c921461045b575b600080fd5b610198610193366004613e12565b61047b565b6040516101a6929190614a20565b60405180910390f35b6101b761058d565b6040516101a69190614a49565b6101d76101d2366004613fb9565b61059c565b6040516101a69190614aa5565b6101ec610640565b6040516101a69190614969565b61020c610207366004613e12565b610699565b005b61019861021c36600461413c565b6108b1565b61023461022f3660046140da565b61094c565b6040516101a691906149be565b61025461024f366004613e12565b610aa6565b6040516101a691906149cf565b61027461026f366004613f7d565b610bd6565b6040516101a69190614940565b61025461028f366004613e12565b610bf1565b6102546102a2366004614079565b610c76565b6102546102b5366004613e4e565b610d9b565b610274610e29565b6102d56102d0366004613fb9565b610e38565b6040516101a693929190614a2e565b6102d56102f2366004613e12565b610f8a565b61030a610305366004613f7d565b611031565b6040516101a6919061499c565b61031f6112d2565b6040516101a69190614a57565b610334611360565b6040516101a6919061498b565b61030a61034f366004613e12565b61155c565b61020c610362366004613f7d565b611c3f565b610274611dd3565b61019861037d36600461413c565b611de2565b61020c610390366004613e12565b611e7a565b61020c612039565b6102546103ab366004614036565b6121cf565b6103c36103be366004613fb9565b612258565b6040516101a6919061497a565b6103e36103de3660046140f9565b612407565b6040516101a69190614a88565b6103c36103fe366004613e12565b6124fe565b610254610411366004613fe9565b612816565b6104296104243660046140da565b6128dc565b6040516101a69190614a96565b610449610444366004613f7d565b612a3e565b6040516101a696959493929190614ab4565b61046e610469366004613e12565b612b9e565b6040516101a691906149ad565b600080610486612cdb565b6001600160a01b031663f8b2cb4f846040518263ffffffff1660e01b81526004016104b19190614940565b60206040518083038186803b1580156104c957600080fd5b505afa1580156104dd573d6000803e3d6000fd5b505050506040513d601f19601f820116820180604052506105019190810190613f9b565b610509612cdb565b6001600160a01b031663399080ec856040518263ffffffff1660e01b81526004016105349190614940565b60206040518083038186803b15801561054c57600080fd5b505afa158015610560573d6000803e3d6000fd5b505050506040513d601f19601f820116820180604052506105849190810190613f9b565b91509150915091565b6003546001600160a01b031681565b6105a4613ba3565b60006105ae612cf4565b6001600160a01b03166331d98b3f856040518263ffffffff1660e01b81526004016105d991906149cf565b60206040518083038186803b1580156105f157600080fd5b505afa158015610605573d6000803e3d6000fd5b505050506040513d601f19601f820116820180604052506106299190810190613f9b565b9050610636838583612d0c565b9150505b92915050565b6060600480548060200260200160405190810160405280929190818152602001828054801561068e57602002820191906000526020600020905b81548152602001906001019080831161067a575b505050505090505b90565b6001805460408051808201825260198152600080516020614bf4833981519152602080830191909152600080548451600261010098831615989098026000190190911696909604601f81018390048302870183019094528386526001600160a01b0390941633149461076e94929390929183018282801561075b5780601f106107305761010080835404028352916020019161075b565b820191906000526020600020905b81548152906001019060200180831161073e57829003601f168201915b50505050506130ed90919063ffffffff16565b906107955760405162461bcd60e51b815260040161078c9190614a57565b60405180910390fd5b50604080518082018252601f8082527f3a206e6577206f776e657220697320746865207a65726f206164647265737300602080840191909152600080548551600260001961010060018516150201909216919091049384018390048302810183019095528285526001600160a01b0386161515946108369493909283018282801561075b5780601f106107305761010080835404028352916020019161075b565b906108545760405162461bcd60e51b815260040161078c9190614a57565b506001546040516001600160a01b038084169216907fb532073b38c83145e3e5135377a08bf9aab55bc0fd7c1179cd4fb995d2a5159c90600090a3600180546001600160a01b0319166001600160a01b0392909216919091179055565b6000806108bc613119565b6001600160a01b0316631ae730328686866040518463ffffffff1660e01b81526004016108eb93929190614a2e565b60c06040518083038186803b15801561090357600080fd5b505afa158015610917573d6000803e3d6000fd5b505050506040513d601f19601f8201168201806040525061093b9190810190614268565b509399929850919650505050505050565b606081610968575060408051600081526020810190915261063a565b606061097261312d565b6001600160a01b0316631f42d34b85856040518363ffffffff1660e01b815260040161099f929190614a20565b60006040518083038186803b1580156109b757600080fd5b505afa1580156109cb573d6000803e3d6000fd5b505050506040513d6000823e601f3d908101601f191682016040526109f39190810190613ebc565b90506109fd612cf4565b6001600160a01b03166331d98b3f856040518263ffffffff1660e01b8152600401610a2891906149cf565b60206040518083038186803b158015610a4057600080fd5b505afa158015610a54573d6000803e3d6000fd5b505050506040513d601f19601f82011682018060405250610a789190810190613f9b565b81610a8a85600163ffffffff61314116565b81518110610a9457fe5b60209081029190910101529392505050565b60006060610abb640a6f2dce8d60db1b613183565b90506060610ac7612cf4565b6001600160a01b03166326ee4836836040518263ffffffff1660e01b8152600401610af29190614969565b60006040518083038186803b158015610b0a57600080fd5b505afa158015610b1e573d6000803e3d6000fd5b505050506040513d6000823e601f3d908101601f19168201604052610b469190810190613ebc565b90506000805b8351811015610bcd576000848281518110610b6357fe5b602002602001015190506000610b81640a6f2dce8d60db1b83613208565b9050610bc1610bb4868581518110610b9557fe5b6020026020010151610ba885858d61338e565b9063ffffffff61353616565b859063ffffffff61354b16565b93505050600101610b4c565b50949350505050565b6000908152600560205260409020546001600160a01b031690565b6000610bfb612cdb565b6001600160a01b03166332cc6ae6836040518263ffffffff1660e01b8152600401610c269190614940565b60206040518083038186803b158015610c3e57600080fd5b505afa158015610c52573d6000803e3d6000fd5b505050506040513d601f19601f8201168201806040525061063a9190810190613f9b565b600081610d0957610c85613570565b6001600160a01b0316634176bf348686866040518463ffffffff1660e01b8152600401610cb4939291906149f8565b60206040518083038186803b158015610ccc57600080fd5b505afa158015610ce0573d6000803e3d6000fd5b505050506040513d601f19601f82011682018060405250610d049190810190613f9b565b610d90565b610d11613584565b6001600160a01b0316634176bf348686866040518463ffffffff1660e01b8152600401610d40939291906149f8565b60206040518083038186803b158015610d5857600080fd5b505afa158015610d6c573d6000803e3d6000fd5b505050506040513d601f19601f82011682018060405250610d909190810190613f9b565b90505b949350505050565b6000610da5613119565b6001600160a01b03166342653db084846040518363ffffffff1660e01b8152600401610dd292919061494e565b60206040518083038186803b158015610dea57600080fd5b505afa158015610dfe573d6000803e3d6000fd5b505050506040513d601f19601f82011682018060405250610e229190810190613f9b565b9392505050565b6002546001600160a01b031681565b600080808481610e50645374616b6560d81b83613208565b9050610e5d82828861338e565b94506229aca760e91b8214610e73576000610ef6565b610e7b612cdb565b6001600160a01b0316633d357b02876040518263ffffffff1660e01b8152600401610ea69190614940565b60206040518083038186803b158015610ebe57600080fd5b505afa158015610ed2573d6000803e3d6000fd5b505050506040513d601f19601f82011682018060405250610ef69190810190613f9b565b9350610f0061359a565b6001600160a01b031663668187b883886040518363ffffffff1660e01b8152600401610f2d9291906149dd565b604080518083038186803b158015610f4457600080fd5b505afa158015610f58573d6000803e3d6000fd5b505050506040513d601f19601f82011682018060405250610f7c919081019061416e565b508093505050509250925092565b60008060006060610f9a85612b9e565b905060005b815181101561101657610fb0613ba3565b828281518110610fbc57fe5b60200260200101519050610ff2610fe58261014001518360c0015161353690919063ffffffff16565b869063ffffffff61354b16565b945061100b8160e001518561354b90919063ffffffff16565b935050600101610f9f565b50611027838363ffffffff6135ae16565b9350509193909250565b6060600063121bdb1960e21b83146110695763141bdbdb60e21b83146110575782611064565b67283937bb34b232b960c11b5b611074565b652437b63232b960d11b5b9050606061108184613183565b9050600061108d6135c3565b6001600160a01b0316631d35f09a846110a46135c3565b6001600160a01b031663060406186040518163ffffffff1660e01b815260040160206040518083038186803b1580156110dc57600080fd5b505afa1580156110f0573d6000803e3d6000fd5b505050506040513d601f19601f820116820180604052506111149190810190613f9b565b6040518363ffffffff1660e01b8152600401611131929190614a20565b60206040518083038186803b15801561114957600080fd5b505afa15801561115d573d6000803e3d6000fd5b505050506040513d601f19601f820116820180604052506111819190810190613f9b565b9050606082516040519080825280602002602001820160405280156111c057816020015b6111ad613c09565b8152602001906001900390816111a55790505b50905060005b83518110156112c85760008482815181106111dd57fe5b602002602001015190506040518060a001604052808781526020018281526020016229aca760e91b815260200161129e611216896135df565b6001600160a01b0316636a46d4d1856040518263ffffffff1660e01b815260040161124191906149cf565b60206040518083038186803b15801561125957600080fd5b505afa15801561126d573d6000803e3d6000fd5b505050506040513d601f19601f820116820180604052506112919190810190613f9b565b879063ffffffff61353616565b815260200160008152508383815181106112b457fe5b6020908102919091010152506001016111c6565b5095945050505050565b6000805460408051602060026001851615610100026000190190941693909304601f810184900484028201840190925281815292918301828280156113585780601f1061132d57610100808354040283529160200191611358565b820191906000526020600020905b81548152906001019060200180831161133b57829003601f168201915b505050505081565b606080611374640a6f2dce8d60db1b613183565b60408051600080825260208201909252919250606091906113ab565b611398613c37565b8152602001906001900390816113905790505b5090506002825110156113c15791506106969050565b6060806113cc612cf4565b6001600160a01b031663fea227d4856040518263ffffffff1660e01b81526004016113f79190614969565b60006040518083038186803b15801561140f57600080fd5b505afa158015611423573d6000803e3d6000fd5b505050506040513d6000823e601f3d908101601f1916820160405261144b9190810190613ef0565b909250905060005b845181101561155257600085828151811061146a57fe5b602002602001015190506000611488640a6f2dce8d60db1b83613208565b9050600061149e640a6f2dce8d60db1b836135ea565b905060005b88518110156115425760008982815181106114ba57fe5b60200260200101519050808514156114d2575061153a565b61153689611531878b8a815181106114e657fe5b60200260200101518b8b815181106114fa57fe5b6020026020010151868e898151811061150f57fe5b60200260200101518e8a8151811061152357fe5b60200260200101518b613674565b6137e8565b9850505b6001016114a3565b5050600190920191506114539050565b5091935050505090565b60608061156f63121bdb1960e21b613183565b9050606061158363141bdbdb60e21b613183565b905060606115ad60046115a18451865161354b90919063ffffffff16565b9063ffffffff61354b16565b6040519080825280602002602001820160405280156115e657816020015b6115d3613c09565b8152602001906001900390816115cb5790505b50905060006115f36135c3565b6001600160a01b0316638c4e8c216040518163ffffffff1660e01b815260040160206040518083038186803b15801561162b57600080fd5b505afa15801561163f573d6000803e3d6000fd5b505050506040513d601f19601f820116820180604052506116639190810190613f9b565b905060006529ba30b5b2b960d11b90506040518060a001604052808281526020016229aca760e91b81526020016229aca760e91b81526020016116a5836135df565b6001600160a01b0316636f5531c56229aca760e91b8b6040518363ffffffff1660e01b81526004016116d89291906149dd565b60206040518083038186803b1580156116f057600080fd5b505afa158015611704573d6000803e3d6000fd5b505050506040513d601f19601f820116820180604052506117289190810190613f9b565b8152602001838152508360008151811061173e57fe5b60200260200101819052506040518060a00160405280828152602001631e5554d160e21b8152602001631e5554d160e21b815260200161177d836135df565b6001600160a01b0316636f5531c5631e5554d160e21b8b6040518363ffffffff1660e01b81526004016117b19291906149dd565b60206040518083038186803b1580156117c957600080fd5b505afa1580156117dd573d6000803e3d6000fd5b505050506040513d601f19601f820116820180604052506118019190810190613f9b565b8152602001838152508360018151811061181757fe5b60200260200101819052506614dc1958da585b60ca1b90506040518060a001604052808281526020016229aca760e91b81526020016229aca760e91b8152602001611861836135df565b6001600160a01b0316636f5531c56229aca760e91b8b6040518363ffffffff1660e01b81526004016118949291906149dd565b60206040518083038186803b1580156118ac57600080fd5b505afa1580156118c0573d6000803e3d6000fd5b505050506040513d601f19601f820116820180604052506118e49190810190613f9b565b815260200183815250836002815181106118fa57fe5b6020026020010181905250652a3930b232b960d11b90506040518060a001604052808281526020016229aca760e91b81526020016229aca760e91b8152602001611943836135df565b6001600160a01b0316636f5531c56229aca760e91b8b6040518363ffffffff1660e01b81526004016119769291906149dd565b60206040518083038186803b15801561198e57600080fd5b505afa1580156119a2573d6000803e3d6000fd5b505050506040513d601f19601f820116820180604052506119c69190810190613f9b565b815260200183815250836003815181106119dc57fe5b602090810291909101015250652437b63232b960d11b60005b8551811015611b04576040518060a00160405280838152602001878381518110611a1b57fe5b602002602001015181526020016229aca760e91b8152602001611a3d846135df565b6001600160a01b0316636f5531c5898581518110611a5757fe5b60200260200101518c6040518363ffffffff1660e01b8152600401611a7d9291906149dd565b60206040518083038186803b158015611a9557600080fd5b505afa158015611aa9573d6000803e3d6000fd5b505050506040513d601f19601f82011682018060405250611acd9190810190613f9b565b815260200184905284611ae783600463ffffffff61354b16565b81518110611af157fe5b60209081029190910101526001016119f5565b5067283937bb34b232b960c11b905060005b8451811015611c33578551600090611b39906115a184600463ffffffff61354b16565b90506040518060a00160405280848152602001878481518110611b5857fe5b602002602001015181526020016229aca760e91b8152602001611b7a856135df565b6001600160a01b0316636f5531c5898681518110611b9457fe5b60200260200101518d6040518363ffffffff1660e01b8152600401611bba9291906149dd565b60206040518083038186803b158015611bd257600080fd5b505afa158015611be6573d6000803e3d6000fd5b505050506040513d601f19601f82011682018060405250611c0a9190810190613f9b565b815260200185815250858281518110611c1f57fe5b602090810291909101015250600101611b16565b50919695505050505050565b6001805460408051808201825260198152600080516020614bf4833981519152602080830191909152600080548451600261010098831615989098026000190190911696909604601f81018390048302870183019094528386526001600160a01b03909416331494611cd694929390929183018282801561075b5780601f106107305761010080835404028352916020019161075b565b90611cf45760405162461bcd60e51b815260040161078c9190614a57565b506003546040516321f8a72160e01b81526001600160a01b03909116906321f8a72190611d259084906004016149cf565b60206040518083038186803b158015611d3d57600080fd5b505afa158015611d51573d6000803e3d6000fd5b505050506040513d601f19601f82011682018060405250611d759190810190613e30565b600082815260056020526040812080546001600160a01b0319166001600160a01b0393909316929092179091556004805460018101825591527f8a35acfbc15ff81a39ae7d344fd709f28e8600b4aa8c65c6b64bfe7fe36bd19b0155565b6001546001600160a01b031681565b600080611ded613119565b6001600160a01b031663aa3787448686866040518463ffffffff1660e01b8152600401611e1c93929190614a2e565b60806040518083038186803b158015611e3457600080fd5b505afa158015611e48573d6000803e3d6000fd5b505050506040513d601f19601f82011682018060405250611e6c919081019061419e565b509197909650945050505050565b6001805460408051808201825260198152600080516020614bf4833981519152602080830191909152600080548451600261010098831615989098026000190190911696909604601f81018390048302870183019094528386526001600160a01b03909416331494611f1194929390929183018282801561075b5780601f106107305761010080835404028352916020019161075b565b90611f2f5760405162461bcd60e51b815260040161078c9190614a57565b5060006001600160a01b0316816001600160a01b03161415611fbe604051806060016040528060218152602001614c14602191396000805460408051602060026001851615610100026000190190941693909304601f8101849004840282018401909252818152929183018282801561075b5780601f106107305761010080835404028352916020019161075b565b90611fdc5760405162461bcd60e51b815260040161078c9190614a57565b506002546040516001600160a01b038084169216907f605c2dbf762e5f7d60a546d42e7205dcb1b011ebc62a61736a57c9089d3a435090600090a3600280546001600160a01b0319166001600160a01b0392909216919091179055565b6001805460408051808201825260198152600080516020614bf4833981519152602080830191909152600080548451600261010098831615989098026000190190911696909604601f81018390048302870183019094528386526001600160a01b039094163314946120d094929390929183018282801561075b5780601f106107305761010080835404028352916020019161075b565b906120ee5760405162461bcd60e51b815260040161078c9190614a57565b5060005b6004548110156121cc5760006004828154811061210b57fe5b6000918252602090912001546003546040516321f8a72160e01b81529192506001600160a01b0316906321f8a721906121489084906004016149cf565b60206040518083038186803b15801561216057600080fd5b505afa158015612174573d6000803e3d6000fd5b505050506040513d601f19601f820116820180604052506121989190810190613e30565b60009182526005602052604090912080546001600160a01b0319166001600160a01b039092169190911790556001016120f2565b50565b60006121d961388a565b6001600160a01b031663d93086308585856040518463ffffffff1660e01b8152600401612208939291906149f8565b60206040518083038186803b15801561222057600080fd5b505afa158015612234573d6000803e3d6000fd5b505050506040513d601f19601f82011682018060405250610d939190810190613f9b565b60608061226484613183565b9050606080612271612cf4565b6001600160a01b031663fea227d4846040518263ffffffff1660e01b815260040161229c9190614969565b60006040518083038186803b1580156122b457600080fd5b505afa1580156122c8573d6000803e3d6000fd5b505050506040513d6000823e601f3d908101601f191682016040526122f09190810190613ef0565b915091506060835160405190808252806020026020018201604052801561233157816020015b61231e613ca1565b8152602001906001900390816123165790505b50905060005b84518110156123fc57600085828151811061234e57fe5b6020026020010151905060006123648a83613208565b9050600061237383838c61338e565b90506040518060c00160405280848152602001836001600160a01b0316815260200161239f8d856135ea565b81526020018281526020018886815181106123b657fe5b602002602001015181526020018786815181106123cf57fe5b60200260200101518152508585815181106123e657fe5b6020908102919091010152505050600101612337565b509695505050505050565b61240f613ca1565b600061241b8585613208565b9050600080612428612cf4565b6001600160a01b0316633902ca61876040518263ffffffff1660e01b815260040161245391906149cf565b604080518083038186803b15801561246a57600080fd5b505afa15801561247e573d6000803e3d6000fd5b505050506040513d601f19601f820116820180604052506124a2919081019061416e565b9150915060006124b387858861338e565b90506040518060c00160405280888152602001856001600160a01b031681526020016124df8a876135ea565b8152602081019290925260408201939093526060015295945050505050565b606080612512645374616b6560d81b613183565b90506060612527640a6f2dce8d60db1b613183565b90506060612533612cf4565b6001600160a01b03166326ee4836846040518263ffffffff1660e01b815260040161255e9190614969565b60006040518083038186803b15801561257657600080fd5b505afa15801561258a573d6000803e3d6000fd5b505050506040513d6000823e601f3d908101601f191682016040526125b29190810190613ebc565b905060606125cb8351855161354b90919063ffffffff16565b60405190808252806020026020018201604052801561260457816020015b6125f1613ca1565b8152602001906001900390816125e95790505b50905060005b84518110156126c057600085828151811061262157fe5b60200260200101519050600061263f645374616b6560d81b83613208565b9050600061264e83838c61338e565b90506040518060c00160405280848152602001836001600160a01b031681526020016000801916815260200182815260200187868151811061268c57fe5b6020026020010151815260200160008152508585815181106126aa57fe5b602090810291909101015250505060010161260a565b506126c9612cf4565b6001600160a01b03166326ee4836846040518263ffffffff1660e01b81526004016126f49190614969565b60006040518083038186803b15801561270c57600080fd5b505afa158015612720573d6000803e3d6000fd5b505050506040513d6000823e601f3d908101601f191682016040526127489190810190613ebc565b915060005b83518110156112c857600084828151811061276457fe5b602002602001015190506000612782640a6f2dce8d60db1b83613208565b9050600061279183838c61338e565b90506040518060c00160405280848152602001836001600160a01b03168152602001600080191681526020018281526020018786815181106127cf57fe5b602002602001015181526020016000815250856127f68a518761354b90919063ffffffff16565b8151811061280057fe5b602090810291909101015250505060010161274d565b6000816128a757612825613570565b6001600160a01b0316632e7b547485856040518363ffffffff1660e01b81526004016128529291906149dd565b60206040518083038186803b15801561286a57600080fd5b505afa15801561287e573d6000803e3d6000fd5b505050506040513d601f19601f820116820180604052506128a29190810190613f9b565b610d93565b6128af613584565b6001600160a01b0316632e7b547485856040518363ffffffff1660e01b81526004016122089291906149dd565b6128e4613c37565b6000806128ef612cf4565b6001600160a01b0316633902ca61866040518263ffffffff1660e01b815260040161291a91906149cf565b604080518083038186803b15801561293157600080fd5b505afa158015612945573d6000803e3d6000fd5b505050506040513d601f19601f82011682018060405250612969919081019061416e565b91509150600080612978612cf4565b6001600160a01b0316633902ca61876040518263ffffffff1660e01b81526004016129a391906149cf565b604080518083038186803b1580156129ba57600080fd5b505afa1580156129ce573d6000803e3d6000fd5b505050506040513d601f19601f820116820180604052506129f2919081019061416e565b915091506000612a0a640a6f2dce8d60db1b89613208565b90506000612a20640a6f2dce8d60db1b836135ea565b9050612a318987878b888887613674565b9998505050505050505050565b600080600080600080612a4f612cf4565b6001600160a01b03166331d98b3f886040518263ffffffff1660e01b8152600401612a7a91906149cf565b60206040518083038186803b158015612a9257600080fd5b505afa158015612aa6573d6000803e3d6000fd5b505050506040513d601f19601f82011682018060405250612aca9190810190613f9b565b9450612ad461312d565b6001600160a01b031663fddcf4a7886040518263ffffffff1660e01b8152600401612aff91906149cf565b60a06040518083038186803b158015612b1757600080fd5b505afa158015612b2b573d6000803e3d6000fd5b505050506040513d601f19601f82011682018060405250612b4f91908101906141f3565b93995091965094509250905085612b64578495505b8315612b7f57612b7a848663ffffffff61389e16565b612b81565b845b9350612b93838663ffffffff6138b416565b925091939550919395565b606080612bb2645374616b6560d81b613183565b90506060612bbe612cf4565b6001600160a01b03166326ee4836836040518263ffffffff1660e01b8152600401612be99190614969565b60006040518083038186803b158015612c0157600080fd5b505afa158015612c15573d6000803e3d6000fd5b505050506040513d6000823e601f3d908101601f19168201604052612c3d9190810190613ebc565b905060608251604051908082528060200260200182016040528015612c7c57816020015b612c69613ba3565b815260200190600190039081612c615790505b50905060005b8351811015610bcd57612cbc86858381518110612c9b57fe5b6020026020010151858481518110612caf57fe5b6020026020010151612d0c565b828281518110612cc857fe5b6020908102919091010152600101612c82565b6000612cef65457363726f7760d01b6138cb565b905090565b6000612cef694173736574507269636560b01b6138cb565b612d14613ba3565b6000612d28645374616b6560d81b85613208565b90506000612d346139a3565b6001600160a01b0316636a5ee7b6866040518263ffffffff1660e01b8152600401612d5f91906149cf565b60206040518083038186803b158015612d7757600080fd5b505afa158015612d8b573d6000803e3d6000fd5b505050506040513d601f19601f82011682018060405250612daf9190810190613f9b565b90506000612dbb6139a3565b6001600160a01b031663f8815e6a876040518263ffffffff1660e01b8152600401612de691906149cf565b60206040518083038186803b158015612dfe57600080fd5b505afa158015612e12573d6000803e3d6000fd5b505050506040513d601f19601f82011682018060405250612e369190810190613f9b565b90506000612e426139a3565b6001600160a01b031663fdbafe0b886040518263ffffffff1660e01b8152600401612e6d91906149cf565b60206040518083038186803b158015612e8557600080fd5b505afa158015612e99573d6000803e3d6000fd5b505050506040513d601f19601f82011682018060405250612ebd9190810190613f9b565b90506000612ec961359a565b6001600160a01b0316632e35de05898b6040518363ffffffff1660e01b8152600401612ef69291906149dd565b60206040518083038186803b158015612f0e57600080fd5b505afa158015612f22573d6000803e3d6000fd5b505050506040513d601f19601f82011682018060405250612f469190810190613f9b565b90506000612f5261388a565b6001600160a01b031663d12ae67e8a8c6040518363ffffffff1660e01b8152600401612f7f9291906149dd565b60206040518083038186803b158015612f9757600080fd5b505afa158015612fab573d6000803e3d6000fd5b505050506040513d601f19601f82011682018060405250612fcf9190810190613f9b565b90506000612fdb61359a565b6001600160a01b031663668187b88b8d6040518363ffffffff1660e01b81526004016130089291906149dd565b604080518083038186803b15801561301f57600080fd5b505afa158015613033573d6000803e3d6000fd5b505050506040513d601f19601f82011682018060405250613057919081019061416e565b50905060006130678b898e61338e565b60408051610160810182528d81526001600160a01b038b16602082015291925081016130a98561309d888f63ffffffff61353616565b9063ffffffff6135ae16565b8152602081019890985260408801969096526060870194909452608086019290925260a085015260c084015260e08301526101009091018490529150509392505050565b606082826040516020016131029291906148f9565b604051602081830303815290604052905092915050565b6000612cef652a3930b232b960d11b6138cb565b6000612cef6513585c9ad95d60d21b6138cb565b6000610e2283836040518060400160405280601e81526020017f536166654d6174683a207375627472616374696f6e206f766572666c6f7700008152506139b8565b6003546040516309de567f60e41b81526060916001600160a01b031690639de567f0906131b49085906004016149cf565b60006040518083038186803b1580156131cc57600080fd5b505afa1580156131e0573d6000803e3d6000fd5b505050506040513d6000823e601f3d908101601f1916820160405261063a9190810190613e88565b600354604051630659b9d760e41b8152600091829182916001600160a01b03169063659b9d709061323f9088908890600401614a20565b604080518083038186803b15801561325657600080fd5b505afa15801561326a573d6000803e3d6000fd5b505050506040513d601f19601f8201168201806040525061328e9190810190613f4d565b91509150816133706040518060400160405280601681526020017501d1026b4b9b9b4b7339020b9b9b2ba102a37b5b2b7160551b8152508660008054600181600116156101000203166002900480601f01602080910402602001604051908101604052809291908181526020018280546001816001161561010002031660029004801561335c5780601f106133315761010080835404028352916020019161335c565b820191906000526020600020905b81548152906001019060200180831161333f57829003601f168201915b50505050506139e49092919063ffffffff16565b90610bcd5760405162461bcd60e51b815260040161078c9190614a57565b6000613398613a13565b6001600160a01b031663167b78cd6040518163ffffffff1660e01b815260040160206040518083038186803b1580156133d057600080fd5b505afa1580156133e4573d6000803e3d6000fd5b505050506040513d601f19601f820116820180604052506134089190810190613f9b565b84141561342057506001600160a01b03811631610e22565b600083905061352d816001600160a01b031663313ce5676040518163ffffffff1660e01b815260040160206040518083038186803b15801561346157600080fd5b505afa158015613475573d6000803e3d6000fd5b505050506040513d601f19601f8201168201806040525061349991908101906142ef565b60ff166134a4613a27565b6040516370a0823160e01b81526001600160a01b038516906370a08231906134d0908990600401614940565b60206040518083038186803b1580156134e857600080fd5b505afa1580156134fc573d6000803e3d6000fd5b505050506040513d601f19601f820116820180604052506135209190810190613f9b565b919063ffffffff613a2c16565b95945050505050565b6000610e228383670de0b6b3a7640000613a83565b600082820183811015610e225760405162461bcd60e51b815260040161078c90614a68565b6000612cef652437b63232b960d11b6138cb565b6000612cef67283937bb34b232b960c11b6138cb565b6000612cef6529ba30b5b2b960d11b6138cb565b6000610e228383670de0b6b3a7640000613abe565b6000612cef6d537570706c795363686564756c6560901b6138cb565b600061063a826138cb565b6000640a6f2dce8d60db1b83141561063a57816001600160a01b031663ef430aa66040518163ffffffff1660e01b815260040160206040518083038186803b15801561363557600080fd5b505afa158015613649573d6000803e3d6000fd5b505050506040513d601f19601f8201168201806040525061366d9190810190613f9b565b905061063a565b61367c613c37565b600061368e858963ffffffff6135ae16565b905060008060008060006136a061312d565b6001600160a01b0316635f0135aa8f8d6040518363ffffffff1660e01b81526004016136cd929190614a20565b60a06040518083038186803b1580156136e557600080fd5b505afa1580156136f9573d6000803e3d6000fd5b505050506040513d601f19601f8201168201806040525061371d91908101906141f3565b945094509450945094508460001415613734578594505b831561374f5761374a848763ffffffff61389e16565b613751565b855b9350613763838763ffffffff6138b416565b92506040518061018001604052808f81526020018e81526020018c81526020018b81526020018981526020018681526020018781526020018581526020018481526020018381526020018281526020018d60001480156137c157508a155b6137cc5760016137cf565b60005b60ff16905296505050505050505b979650505050505050565b6060806138006001855161354b90919063ffffffff16565b60405190808252806020026020018201604052801561383957816020015b613826613c37565b81526020019060019003908161381e5790505b50905060005b845181101561387b5784818151811061385457fe5b602002602001015182828151811061386857fe5b602090810291909101015260010161383f565b508281855181518110610a9457fe5b6000612cef6524b9b9bab2b960d11b6138cb565b6000818310156138ae5782610e22565b50919050565b6000818310156138c45781610e22565b5090919050565b60008181526005602090815260408083205481518083018352600a81526901d1026b4b9b9b4b733960b51b818501528454835160026101006001841615026000190190921691909104601f81018690048602820186019094528381526001600160a01b039092161515936139689391928792909187919083018282801561335c5780601f106133315761010080835404028352916020019161335c565b906139865760405162461bcd60e51b815260040161078c9190614a57565b50506000908152600560205260409020546001600160a01b031690565b6000612cef6653657474696e6760c81b6138cb565b600081848411156139dc5760405162461bcd60e51b815260040161078c9190614a57565b505050900390565b60608383836040516020016139fb93929190614911565b60405160208183030381529060405290509392505050565b6000612cef650a6f2dce8d0f60d31b6138cb565b601290565b600083613a3b57506000610e22565b81831415613a4a575082610e22565b81831015613a6e57613a6784848403600a0a63ffffffff613af816565b9050610e22565b610d9384838503600a0a63ffffffff613b3216565b6000831580613a90575082155b15613a9d57506000610e22565b81613aae858563ffffffff613af816565b81613ab557fe5b04949350505050565b6000831580613acb575082155b15613ad857506000610e22565b610d9383613aec868563ffffffff613af816565b9063ffffffff613b3216565b600082613b075750600061063a565b82820282848281613b1457fe5b0414610e225760405162461bcd60e51b815260040161078c90614a78565b6000610e2283836040518060400160405280601a815260200179536166654d6174683a206469766973696f6e206279207a65726f60301b81525060008183613b8d5760405162461bcd60e51b815260040161078c9190614a57565b506000838581613b9957fe5b0495945050505050565b6040518061016001604052806000801916815260200160006001600160a01b031681526020016000815260200160008152602001600081526020016000815260200160008152602001600081526020016000815260200160008152602001600081525090565b6040805160a08101825260008082526020820181905291810182905260608101829052608081019190915290565b6040518061018001604052806000801916815260200160008152602001600080191681526020016000815260200160008019168152602001600081526020016000815260200160008152602001600081526020016000815260200160008152602001600081525090565b6040805160c081018252600080825260208201819052918101829052606081018290526080810182905260a081019190915290565b803561063a81614bc4565b805161063a81614bc4565b600082601f830112613cfd57600080fd5b8151613d10613d0b82614b29565b614b03565b91508181835260208401935060208101905083856020840282011115613d3557600080fd5b60005b83811015613d615781613d4b8882613dfc565b8452506020928301929190910190600101613d38565b5050505092915050565b600082601f830112613d7c57600080fd5b8151613d8a613d0b82614b29565b91508181835260208401935060208101905083856020840282011115613daf57600080fd5b60005b83811015613d615781613dc58882613dfc565b8452506020928301929190910190600101613db2565b803561063a81614bd8565b805161063a81614bd8565b803561063a81614be1565b805161063a81614be1565b805161063a81614bea565b600060208284031215613e2457600080fd5b60006106368484613cd6565b600060208284031215613e4257600080fd5b60006106368484613ce1565b60008060408385031215613e6157600080fd5b6000613e6d8585613cd6565b9250506020613e7e85828601613df1565b9150509250929050565b600060208284031215613e9a57600080fd5b81516001600160401b03811115613eb057600080fd5b61063684828501613cec565b600060208284031215613ece57600080fd5b81516001600160401b03811115613ee457600080fd5b61063684828501613d6b565b60008060408385031215613f0357600080fd5b82516001600160401b03811115613f1957600080fd5b613f2585828601613d6b565b92505060208301516001600160401b03811115613f4157600080fd5b613e7e85828601613d6b565b60008060408385031215613f6057600080fd5b6000613f6c8585613de6565b9250506020613e7e85828601613ce1565b600060208284031215613f8f57600080fd5b60006106368484613df1565b600060208284031215613fad57600080fd5b60006106368484613dfc565b60008060408385031215613fcc57600080fd5b6000613fd88585613df1565b9250506020613e7e85828601613cd6565b600080600060608486031215613ffe57600080fd5b600061400a8686613df1565b935050602061401b86828701613cd6565b925050604061402c86828701613ddb565b9150509250925092565b60008060006060848603121561404b57600080fd5b60006140578686613df1565b935050602061406886828701613cd6565b925050604061402c86828701613df1565b6000806000806080858703121561408f57600080fd5b600061409b8787613df1565b94505060206140ac87828801613cd6565b93505060406140bd87828801613df1565b92505060606140ce87828801613ddb565b91505092959194509250565b600080604083850312156140ed57600080fd5b6000613e6d8585613df1565b60008060006060848603121561410e57600080fd5b600061411a8686613df1565b935050602061412b86828701613df1565b925050604061402c86828701613cd6565b60008060006060848603121561415157600080fd5b600061415d8686613df1565b935050602061406886828701613df1565b6000806040838503121561418157600080fd5b600061418d8585613dfc565b9250506020613e7e85828601613dfc565b600080600080608085870312156141b457600080fd5b60006141c08787613dfc565b94505060206141d187828801613dfc565b93505060406141e287828801613dfc565b92505060606140ce87828801613dfc565b600080600080600060a0868803121561420b57600080fd5b60006142178888613dfc565b955050602061422888828901613dfc565b945050604061423988828901613dfc565b935050606061424a88828901613dfc565b925050608061425b88828901613dfc565b9150509295509295909350565b60008060008060008060c0878903121561428157600080fd5b600061428d8989613dfc565b965050602061429e89828a01613dfc565b95505060406142af89828a01613dfc565b94505060606142c089828a01613dfc565b93505060806142d189828a01613dfc565b92505060a06142e289828a01613dfc565b9150509295509295509295565b60006020828403121561430157600080fd5b60006106368484613e07565b60006143198383614561565b505060200190565b600061432d8383614665565b505060c00190565b600061434183836146db565b50506101800190565b600061435683836147c6565b505060a00190565b600061436a8383614823565b50506101600190565b61437c81614b61565b82525050565b600061438d82614b4f565b6143978185614b53565b93506143a283614b49565b8060005b838110156143d05781516143ba888261430d565b97506143c583614b49565b9250506001016143a6565b509495945050505050565b60006143e682614b4f565b6143f08185614b53565b93506143fb83614b49565b8060005b838110156143d05781516144138882614321565b975061441e83614b49565b9250506001016143ff565b600061443482614b4f565b61443e8185614b53565b935061444983614b49565b8060005b838110156143d05781516144618882614335565b975061446c83614b49565b92505060010161444d565b600061448282614b4f565b61448c8185614b53565b935061449783614b49565b8060005b838110156143d05781516144af888261434a565b97506144ba83614b49565b92505060010161449b565b60006144d082614b4f565b6144da8185614b53565b93506144e583614b49565b8060005b838110156143d05781516144fd888261435e565b975061450883614b49565b9250506001016144e9565b600061451e82614b4f565b6145288185614b53565b935061453383614b49565b8060005b838110156143d057815161454b888261430d565b975061455683614b49565b925050600101614537565b61437c81610696565b61437c61457682610696565b610696565b61437c81614b83565b600061458f82614b4f565b6145998185614b53565b93506145a9818560208601614b8e565b6145b281614bba565b9093019392505050565b60006145c782614b4f565b6145d18185614b5c565b93506145e1818560208601614b8e565b9290920192915050565b60006145f8601b83614b53565b7a536166654d6174683a206164646974696f6e206f766572666c6f7760281b815260200192915050565b600061462f602183614b53565b7f536166654d6174683a206d756c7469706c69636174696f6e206f766572666c6f8152607760f81b602082015260400192915050565b805160c08301906146768482614561565b5060208201516146896020850182614373565b50604082015161469c6040850182614561565b5060608201516146af6060850182614561565b5060808201516146c26080850182614561565b5060a08201516146d560a0850182614561565b50505050565b80516101808301906146ed8482614561565b5060208201516147006020850182614561565b5060408201516147136040850182614561565b5060608201516147266060850182614561565b5060808201516147396080850182614561565b5060a082015161474c60a0850182614561565b5060c082015161475f60c0850182614561565b5060e082015161477260e0850182614561565b50610100820151614787610100850182614561565b5061012082015161479c610120850182614561565b506101408201516147b1610140850182614561565b506101608201516146d5610160850182614561565b805160a08301906147d78482614561565b5060208201516147ea6020850182614561565b5060408201516147fd6040850182614561565b5060608201516148106060850182614561565b5060808201516146d56080850182614561565b80516101608301906148358482614561565b5060208201516148486020850182614373565b50604082015161485b6040850182614561565b50606082015161486e6060850182614561565b5060808201516148816080850182614561565b5060a082015161489460a0850182614561565b5060c08201516148a760c0850182614561565b5060e08201516148ba60e0850182614561565b506101008201516148cf610100850182614561565b506101208201516148e4610120850182614561565b506101408201516146d5610140850182614561565b600061490582856145bc565b9150610d9382846145bc565b600061491d82866145bc565b915061492982856145bc565b9150614935828461456a565b506020019392505050565b6020810161063a8284614373565b6040810161495c8285614373565b610e226020830184614561565b60208082528101610e228184614382565b60208082528101610e2281846143db565b60208082528101610e228184614429565b60208082528101610e228184614477565b60208082528101610e2281846144c5565b60208082528101610e228184614513565b6020810161063a8284614561565b604081016149eb8285614561565b610e226020830184614373565b60608101614a068286614561565b614a136020830185614373565b610d936040830184614561565b6040810161495c8285614561565b60608101614a3c8286614561565b614a136020830185614561565b6020810161063a828461457b565b60208082528101610e228184614584565b6020808252810161063a816145eb565b6020808252810161063a81614622565b60c0810161063a8284614665565b610180810161063a82846146db565b610160810161063a8284614823565b60c08101614ac28289614561565b614acf6020830188614561565b614adc6040830187614561565b614ae96060830186614561565b614af66080830185614561565b6137dd60a0830184614561565b6040518181016001600160401b0381118282101715614b2157600080fd5b604052919050565b60006001600160401b03821115614b3f57600080fd5b5060209081020190565b60200190565b5190565b90815260200190565b919050565b600061063a82614b71565b151590565b6001600160a01b031690565b60ff1690565b600061063a82614b61565b60005b83811015614ba9578181015183820152602001614b91565b838111156146d55750506000910152565b601f01601f191690565b614bcd81614b61565b81146121cc57600080fd5b614bcd81614b6c565b614bcd81610696565b614bcd81614b7d56fe3a2063616c6c6572206973206e6f7420746865206f776e6572000000000000003a206e6577206d616e6167657220697320746865207a65726f2061646472657373a365627a7a72315820f7ca4c1a5e2fc0900eec52d8d461c5fae3744fa6333cf184d05f0c069daa978f6c6578706572696d656e74616cf564736f6c63430005110040",
  "source": "// SPDX-License-Identifier: MIT\npragma solidity ^0.5.17;\npragma experimental ABIEncoderV2;\n\nimport './lib/SafeMath.sol';\nimport './lib/PreciseMath.sol';\nimport './base/Importable.sol';\nimport './interfaces/IStats.sol';\nimport './interfaces/ISynthx.sol';\nimport './interfaces/IEscrow.sol';\nimport './interfaces/IStaker.sol';\nimport './interfaces/IAssetPrice.sol';\nimport './interfaces/ISetting.sol';\nimport './interfaces/IIssuer.sol';\nimport './interfaces/IHolder.sol';\nimport './interfaces/ITrader.sol';\nimport './interfaces/IRewards.sol';\nimport './interfaces/IProvider.sol';\nimport './interfaces/ISynth.sol';\nimport './interfaces/IMarket.sol';\nimport './interfaces/IERC20.sol';\n\ncontract Stats is Importable, IStats {\n    bytes32 private constant STAKE = 'Stake';\n    bytes32 private constant SYNTH = 'Synth';\n    bytes32 private constant HOLD = 'Hold';\n    bytes32 private constant POOL = 'Pool';\n\n    using SafeMath for uint256;\n    using PreciseMath for uint256;\n\n    constructor(IResolver resolver) public Importable(resolver) {\n        setContractName(CONTRACT_STATS);\n        imports = [\n            CONTRACT_SUPPLY_SCHEDULE,\n            CONTRACT_SYNTHX,\n            CONTRACT_ESCROW,\n            CONTRACT_STAKER,\n            CONTRACT_ASSET_PRICE,\n            CONTRACT_SETTING,\n            CONTRACT_ISSUER,\n            CONTRACT_HOLDER,\n            CONTRACT_TRADER,\n            CONTRACT_HOLDER,\n            CONTRACT_PROVIDER,\n            CONTRACT_MARKET,\n            CONTRACT_SPECIAL\n        ];\n    }\n\n    function Synthx() private view returns (ISynthx) {\n        return ISynthx(requireAddress(CONTRACT_SYNTHX));\n    }\n\n    function Escrow() private view returns (IEscrow) {\n        return IEscrow(requireAddress(CONTRACT_ESCROW));\n    }\n\n    function Staker() private view returns (IStaker) {\n        return IStaker(requireAddress(CONTRACT_STAKER));\n    }\n\n    function AssetPrice() private view returns (IAssetPrice) {\n        return IAssetPrice(requireAddress(CONTRACT_ASSET_PRICE));\n    }\n\n    function Setting() private view returns (ISetting) {\n        return ISetting(requireAddress(CONTRACT_SETTING));\n    }\n\n    function Issuer() private view returns (IIssuer) {\n        return IIssuer(requireAddress(CONTRACT_ISSUER));\n    }\n\n    function Holder() private view returns (IHolder) {\n        return IHolder(requireAddress(CONTRACT_HOLDER));\n    }\n\n    function Trader() private view returns (ITrader) {\n        return ITrader(requireAddress(CONTRACT_TRADER));\n    }\n\n    function Rewards(bytes32 reward) private view returns (IRewards) {\n        return IRewards(requireAddress(reward));\n    }\n\n    function Provider() private view returns (IProvider) {\n        return IProvider(requireAddress(CONTRACT_PROVIDER));\n    }\n\n    function Market() private view returns (IMarket) {\n        return IMarket(requireAddress(CONTRACT_MARKET));\n    }\n\n    function _getBalance(\n        bytes32 assetName,\n        address assetAddress,\n        address account\n    ) private view returns (uint256) {\n        if (assetName == Synthx().nativeCoin()) return account.balance;\n\n        IERC20 token = IERC20(assetAddress);\n        return token.balanceOf(account).decimalsTo(token.decimals(), PreciseMath.DECIMALS());\n    }\n\n    function getBalance(address account) public view returns (Asset[] memory) {\n        bytes32[] memory stakes = assets(STAKE);\n        bytes32[] memory synths = assets(SYNTH);\n        uint256[] memory prices = AssetPrice().getPrices(stakes);\n        Asset[] memory items = new Asset[](stakes.length.add(synths.length));\n\n        for (uint256 i = 0; i < stakes.length; i++) {\n            bytes32 assetName = stakes[i];\n            address assetAddress = requireAsset(STAKE, assetName);\n            uint256 balance = _getBalance(assetName, assetAddress, account);\n            items[i] = Asset(assetName, assetAddress, '', balance, prices[i], 0);\n        }\n\n        prices = AssetPrice().getPrices(synths);\n        for (uint256 i = 0; i < synths.length; i++) {\n            bytes32 assetName = synths[i];\n            address assetAddress = requireAsset(SYNTH, assetName);\n            uint256 balance = _getBalance(assetName, assetAddress, account);\n            items[i.add(stakes.length)] = Asset(assetName, assetAddress, '', balance, prices[i], 0);\n        }\n\n        return items;\n    }\n\n    function _getCategory(bytes32 assetType, address assetAddress) private view returns (bytes32) {\n        if (assetType == SYNTH) return ISynth(assetAddress).category();\n    }\n\n    function getAsset(\n        bytes32 assetType,\n        bytes32 assetName,\n        address account\n    ) public view returns (Asset memory) {\n        address assetAddress = requireAsset(assetType, assetName);\n        (uint256 price, uint256 status) = AssetPrice().getPriceAndStatus(assetName);\n        uint256 balance = _getBalance(assetName, assetAddress, account);\n        return Asset(assetName, assetAddress, _getCategory(assetType, assetAddress), balance, price, status);\n    }\n\n    function getAssets(bytes32 assetType, address account) external view returns (Asset[] memory) {\n        bytes32[] memory assets = assets(assetType);\n        (uint256[] memory prices, uint256[] memory status) = AssetPrice().getPricesAndStatus(assets);\n        Asset[] memory items = new Asset[](assets.length);\n\n        for (uint256 i = 0; i < assets.length; i++) {\n            bytes32 assetName = assets[i];\n            address assetAddress = requireAsset(assetType, assetName);\n            uint256 balance = _getBalance(assetName, assetAddress, account);\n            items[i] = Asset(\n                assetName,\n                assetAddress,\n                _getCategory(assetType, assetAddress),\n                balance,\n                prices[i],\n                status[i]\n            );\n        }\n\n        return items;\n    }\n\n    function _getVault(\n        address account,\n        bytes32 stakeName,\n        uint256 stakePrice\n    ) private view returns (Vault memory) {\n        address stakeAddress = requireAsset(STAKE, stakeName);\n        uint256 rewardCollateralRate = Setting().getCollateralRate(stakeName);\n        uint256 liquidationCollateralRate = Setting().getLiquidationRate(stakeName);\n        uint256 liquidationFeeRate = Setting().getLiquidationFeeRate(stakeName);\n        uint256 staked = Staker().getStaked(stakeName, account);\n        uint256 debt = Issuer().getDebt(stakeName, account);\n        (uint256 transferable, ) = Staker().getTransferable(stakeName, account);\n        uint256 balance = _getBalance(stakeName, stakeAddress, account);\n        return\n            Vault(\n                stakeName,\n                stakeAddress,\n                staked.decimalMultiply(stakePrice).decimalDivide(debt),\n                rewardCollateralRate,\n                liquidationCollateralRate,\n                liquidationFeeRate,\n                staked,\n                debt,\n                transferable,\n                balance,\n                stakePrice\n            );\n    }\n\n    function getVault(bytes32 stake, address account) external view returns (Vault memory) {\n        uint256 price = AssetPrice().getPrice(stake);\n        return _getVault(account, stake, price);\n    }\n\n    function getVaults(address account) public view returns (Vault[] memory) {\n        bytes32[] memory stakes = assets(STAKE);\n        uint256[] memory prices = AssetPrice().getPrices(stakes);\n\n        Vault[] memory items = new Vault[](stakes.length);\n        for (uint256 i = 0; i < stakes.length; i++) {\n            items[i] = _getVault(account, stakes[i], prices[i]);\n        }\n\n        return items;\n    }\n\n    function getTotalCollateral(address account)\n        external\n        view\n        returns (\n            uint256 totalCollateralRatio,\n            uint256 totalCollateralValue,\n            uint256 totalDebt\n        )\n    {\n        Vault[] memory vaults = getVaults(account);\n        for (uint256 i = 0; i < vaults.length; i++) {\n            Vault memory vault = vaults[i];\n            totalCollateralValue = totalCollateralValue.add(vault.staked.decimalMultiply(vault.price));\n            totalDebt = totalDebt.add(vault.debt);\n        }\n        totalCollateralRatio = totalCollateralValue.decimalDivide(totalDebt);\n    }\n\n    function getEscrowed(address account) external view returns (uint256 total, uint256 staked) {\n        return (Escrow().getBalance(account), Escrow().getStaked(account));\n    }\n\n    function getLocked(\n        bytes32 asset,\n        address account,\n        bool isPool\n    ) external view returns (uint256) {\n        return (isPool) ? Provider().getLocked(asset, account) : Holder().getLocked(asset, account);\n    }\n\n    function getAvailable(bytes32 stake, address account)\n        external\n        view\n        returns (\n            uint256 balance,\n            uint256 escrowed,\n            uint256 transferable\n        )\n    {\n        bytes32 assetName = stake;\n        address assetAddress = requireAsset(STAKE, assetName);\n        balance = _getBalance(assetName, assetAddress, account);\n        escrowed = (assetName == SYN) ? Escrow().getAvailable(account) : 0;\n        (transferable, ) = Staker().getTransferable(assetName, account);\n    }\n\n    function getSynthValue(address account) external view returns (uint256) {\n        bytes32[] memory synths = assets(SYNTH);\n        uint256[] memory prices = AssetPrice().getPrices(synths);\n\n        uint256 total = 0;\n        for (uint256 i = 0; i < synths.length; i++) {\n            bytes32 assetName = synths[i];\n            address assetAddress = requireAsset(SYNTH, assetName);\n            total = total.add(_getBalance(assetName, assetAddress, account).decimalMultiply(prices[i]));\n        }\n\n        return total;\n    }\n\n    function getTradingAmountAndFee(\n        bytes32 fromSynth,\n        uint256 fromAmount,\n        bytes32 toSynth\n    ) external view returns (uint256 tradingAmount, uint256 tradingFee) {\n        (tradingAmount, tradingFee, , , , ) = Trader().getTradingAmountAndFee(fromSynth, fromAmount, toSynth);\n    }\n\n    function getTradingAmountAndFee(\n        bytes32 fromSynth,\n        bytes32 toSynth,\n        uint256 toAmount\n    ) external view returns (uint256 tradingAmount, uint256 tradingFee) {\n        (tradingAmount, tradingFee, , ) = Trader().getTradingAmountAndFee(fromSynth, toSynth, toAmount);\n    }\n\n    function getWithdrawable(address account) external view returns (uint256) {\n        return Escrow().getWithdrawable(account);\n    }\n\n    function getRewards(address account) external view returns (Reward[] memory) {\n        bytes32[] memory holds = assets(HOLD);\n        bytes32[] memory pools = assets(POOL);\n        Reward[] memory items = new Reward[](holds.length.add(pools.length).add(4));\n        uint256 nextTime = SupplySchedule().nextMintTime();\n        bytes32 reward = 'Staker';\n        items[0] = Reward(reward, SYN, SYN, Rewards(reward).getClaimable(SYN, account), nextTime);\n        items[1] = Reward(reward, USD, USD, Rewards(reward).getClaimable(USD, account), nextTime);\n\n        reward = 'Special';\n        items[2] = Reward(reward, SYN, SYN, Rewards(reward).getClaimable(SYN, account), nextTime);\n\n        reward = 'Trader';\n        items[3] = Reward(reward, SYN, SYN, Rewards(reward).getClaimable(SYN, account), nextTime);\n\n        reward = 'Holder';\n        for (uint256 i = 0; i < holds.length; i++) {\n            items[i.add(4)] = Reward(reward, holds[i], SYN, Rewards(reward).getClaimable(holds[i], account), nextTime);\n        }\n\n        reward = 'Provider';\n        for (uint256 i = 0; i < pools.length; i++) {\n            uint256 index = i.add(4).add(holds.length);\n            items[index] = Reward(reward, pools[i], SYN, Rewards(reward).getClaimable(pools[i], account), nextTime);\n        }\n\n        return items;\n    }\n\n    function getRewardTokens(bytes32 assetType) external view returns (Reward[] memory) {\n        bytes32 reward = (assetType == HOLD) ? CONTRACT_HOLDER : (assetType == POOL) ? CONTRACT_PROVIDER : assetType;\n        bytes32[] memory assets = assets(assetType);\n        uint256 periodSupply = SupplySchedule().periodSupply(reward, SupplySchedule().currentPeriod());\n\n        Reward[] memory items = new Reward[](assets.length);\n        for (uint256 i = 0; i < assets.length; i++) {\n            bytes32 assetName = assets[i];\n            items[i] = Reward(\n                reward,\n                assetName,\n                SYN,\n                periodSupply.decimalMultiply(Rewards(reward).getRewardPercentage(assetName)),\n                0\n            );\n        }\n\n        return items;\n    }\n\n    function getAssetMarket(bytes32 asset)\n        external\n        view\n        returns (\n            uint256 open,\n            uint256 last,\n            uint256 low,\n            uint256 hight,\n            uint256 volume,\n            uint256 turnover\n        )\n    {\n        last = AssetPrice().getPrice(asset);\n        (open, low, hight, volume, turnover) = Market().getAssetMarket(asset);\n        if (open == 0) open = last;\n        low = (low == 0) ? last : low.min(last);\n        hight = hight.max(last);\n    }\n\n    function getLine(bytes32 asset, uint256 size) external view returns (uint256[] memory) {\n        if (size == 0) return new uint256[](0);\n        uint256[] memory line = Market().getLine(asset, size);\n        line[size.sub(1)] = AssetPrice().getPrice(asset);\n        return line;\n    }\n\n    function _getPair(\n        bytes32 fromAsset,\n        uint256 fromAssetPrice,\n        uint256 fromAssetStatus,\n        bytes32 toAsset,\n        uint256 toAssetPrice,\n        uint256 toAssetStatus,\n        bytes32 category\n    ) private view returns (Pair memory) {\n        uint256 last = toAssetPrice.decimalDivide(fromAssetPrice);\n        (uint256 open, uint256 low, uint256 hight, uint256 volume, uint256 turnover) =\n            Market().getPairMarket(fromAsset, toAsset);\n        if (open == 0) open = last;\n        low = (low == 0) ? last : low.min(last);\n        hight = hight.max(last);\n\n        return\n            Pair(\n                fromAsset,\n                fromAssetPrice,\n                toAsset,\n                toAssetPrice,\n                category,\n                open,\n                last,\n                low,\n                hight,\n                volume,\n                turnover,\n                (fromAssetStatus == 0 && toAssetStatus == 0) ? 0 : 1\n            );\n    }\n\n    function getPair(bytes32 fromAsset, bytes32 toAsset) external view returns (Pair memory) {\n        (uint256 fromAssetPrice, uint256 fromAssetStatus) = AssetPrice().getPriceAndStatus(fromAsset);\n        (uint256 toAssetPrice, uint256 toAssetStatus) = AssetPrice().getPriceAndStatus(toAsset);\n        address fromAssetAddress = requireAsset(SYNTH, fromAsset);\n        bytes32 category = _getCategory(SYNTH, fromAssetAddress);\n        return _getPair(fromAsset, fromAssetPrice, fromAssetStatus, toAsset, toAssetPrice, toAssetStatus, category);\n    }\n\n    function _addToPairs(Pair[] memory pairs, Pair memory pair) private pure returns (Pair[] memory) {\n        Pair[] memory items = new Pair[](pairs.length.add(1));\n        for (uint256 i = 0; i < pairs.length; i++) {\n            items[i] = pairs[i];\n        }\n        items[pairs.length] = pair;\n        return items;\n    }\n\n    function getPairs() external view returns (Pair[] memory) {\n        bytes32[] memory assets = assets(SYNTH);\n        Pair[] memory items = new Pair[](0);\n        if (assets.length < 2) return items;\n\n        (uint256[] memory prices, uint256[] memory status) = AssetPrice().getPricesAndStatus(assets);\n\n        for (uint256 i = 0; i < assets.length; i++) {\n            bytes32 fromAsset = assets[i];\n            address fromAssetAddress = requireAsset(SYNTH, fromAsset);\n            bytes32 category = _getCategory(SYNTH, fromAssetAddress);\n            for (uint256 j = 0; j < assets.length; j++) {\n                bytes32 toAsset = assets[j];\n                if (fromAsset == toAsset) continue;\n                items = _addToPairs(\n                    items,\n                    _getPair(fromAsset, prices[i], status[i], toAsset, prices[j], status[j], category)\n                );\n            }\n        }\n\n        return items;\n    }\n\n    function getTradingFee(address account, uint256 period) external view returns (uint256) {\n        return Trader().getTradingFee(account, period);\n    }\n\n    function getDebtPercentage(\n        bytes32 stake,\n        address account,\n        uint256 period\n    ) external view returns (uint256) {\n        return Issuer().getDebtPercentage(stake, account, period);\n    }\n\n    function getPeriodLocked(\n        bytes32 asset,\n        address account,\n        uint256 period,\n        bool isPool\n    ) external view returns (uint256) {\n        return\n            (isPool)\n                ? Provider().getPeriodLocked(asset, account, period)\n                : Holder().getPeriodLocked(asset, account, period);\n    }\n}\n",
  "sourcePath": "/Users/sun/go/src/github.com/Dipper-Labs/DIPSYN/contracts/Stats.sol",
  "compiler": {
    "name": "solc",
    "version": "0.5.17+commit.d19bba13.Emscripten.clang"
  },
  "schemaVersion": "3.3.4",
  "updatedAt": "2021-04-21T04:08:14.002Z",
  "devdoc": {
    "methods": {}
  },
  "userdoc": {
    "methods": {}
  }
}