{
  "contractName": "SupplySchedule",
  "abi": [
    {
      "inputs": [
        {
          "internalType": "contract IResolver",
          "name": "_resolver",
          "type": "address"
        },
        {
          "internalType": "uint256",
          "name": "_startMintTime",
          "type": "uint256"
        },
        {
          "internalType": "uint256",
          "name": "_lastMintTime",
          "type": "uint256"
        }
      ],
      "payable": false,
      "stateMutability": "nonpayable",
      "type": "constructor"
    },
    {
      "anonymous": false,
      "inputs": [
        {
          "indexed": true,
          "internalType": "address",
          "name": "previousValue",
          "type": "address"
        },
        {
          "indexed": true,
          "internalType": "address",
          "name": "newValue",
          "type": "address"
        }
      ],
      "name": "ManagerChanged",
      "type": "event"
    },
    {
      "anonymous": false,
      "inputs": [
        {
          "indexed": true,
          "internalType": "address",
          "name": "previousValue",
          "type": "address"
        },
        {
          "indexed": true,
          "internalType": "address",
          "name": "newValue",
          "type": "address"
        }
      ],
      "name": "OwnerChanged",
      "type": "event"
    },
    {
      "anonymous": false,
      "inputs": [
        {
          "indexed": true,
          "internalType": "bytes32",
          "name": "recipient",
          "type": "bytes32"
        },
        {
          "indexed": true,
          "internalType": "uint256",
          "name": "previousValue",
          "type": "uint256"
        },
        {
          "indexed": true,
          "internalType": "uint256",
          "name": "newValue",
          "type": "uint256"
        }
      ],
      "name": "SupplyPercentageChanged",
      "type": "event"
    },
    {
      "constant": true,
      "inputs": [
        {
          "internalType": "uint256",
          "name": "",
          "type": "uint256"
        }
      ],
      "name": "SUPPLY_SCHEDULE",
      "outputs": [
        {
          "internalType": "uint256",
          "name": "",
          "type": "uint256"
        }
      ],
      "payable": false,
      "stateMutability": "view",
      "type": "function"
    },
    {
      "constant": false,
      "inputs": [
        {
          "internalType": "bytes32",
          "name": "name",
          "type": "bytes32"
        }
      ],
      "name": "addAddress",
      "outputs": [],
      "payable": false,
      "stateMutability": "nonpayable",
      "type": "function"
    },
    {
      "constant": true,
      "inputs": [],
      "name": "contractName",
      "outputs": [
        {
          "internalType": "string",
          "name": "",
          "type": "string"
        }
      ],
      "payable": false,
      "stateMutability": "view",
      "type": "function"
    },
    {
      "constant": true,
      "inputs": [
        {
          "internalType": "bytes32",
          "name": "name",
          "type": "bytes32"
        }
      ],
      "name": "getAddress",
      "outputs": [
        {
          "internalType": "address",
          "name": "",
          "type": "address"
        }
      ],
      "payable": false,
      "stateMutability": "view",
      "type": "function"
    },
    {
      "constant": true,
      "inputs": [],
      "name": "getImports",
      "outputs": [
        {
          "internalType": "bytes32[]",
          "name": "",
          "type": "bytes32[]"
        }
      ],
      "payable": false,
      "stateMutability": "view",
      "type": "function"
    },
    {
      "constant": true,
      "inputs": [],
      "name": "lastMintTime",
      "outputs": [
        {
          "internalType": "uint256",
          "name": "",
          "type": "uint256"
        }
      ],
      "payable": false,
      "stateMutability": "view",
      "type": "function"
    },
    {
      "constant": true,
      "inputs": [],
      "name": "manager",
      "outputs": [
        {
          "internalType": "address",
          "name": "",
          "type": "address"
        }
      ],
      "payable": false,
      "stateMutability": "view",
      "type": "function"
    },
    {
      "constant": true,
      "inputs": [],
      "name": "owner",
      "outputs": [
        {
          "internalType": "address",
          "name": "",
          "type": "address"
        }
      ],
      "payable": false,
      "stateMutability": "view",
      "type": "function"
    },
    {
      "constant": true,
      "inputs": [
        {
          "internalType": "bytes32",
          "name": "",
          "type": "bytes32"
        }
      ],
      "name": "percentages",
      "outputs": [
        {
          "internalType": "uint256",
          "name": "",
          "type": "uint256"
        }
      ],
      "payable": false,
      "stateMutability": "view",
      "type": "function"
    },
    {
      "constant": false,
      "inputs": [],
      "name": "refreshCache",
      "outputs": [],
      "payable": false,
      "stateMutability": "nonpayable",
      "type": "function"
    },
    {
      "constant": true,
      "inputs": [],
      "name": "resolver",
      "outputs": [
        {
          "internalType": "contract IResolver",
          "name": "",
          "type": "address"
        }
      ],
      "payable": false,
      "stateMutability": "view",
      "type": "function"
    },
    {
      "constant": false,
      "inputs": [
        {
          "internalType": "address",
          "name": "_manager",
          "type": "address"
        }
      ],
      "name": "setManager",
      "outputs": [],
      "payable": false,
      "stateMutability": "nonpayable",
      "type": "function"
    },
    {
      "constant": false,
      "inputs": [
        {
          "internalType": "address",
          "name": "_owner",
          "type": "address"
        }
      ],
      "name": "setOwner",
      "outputs": [],
      "payable": false,
      "stateMutability": "nonpayable",
      "type": "function"
    },
    {
      "constant": true,
      "inputs": [],
      "name": "startMintTime",
      "outputs": [
        {
          "internalType": "uint256",
          "name": "",
          "type": "uint256"
        }
      ],
      "payable": false,
      "stateMutability": "view",
      "type": "function"
    },
    {
      "constant": false,
      "inputs": [
        {
          "internalType": "bytes32",
          "name": "recipient",
          "type": "bytes32"
        },
        {
          "internalType": "uint256",
          "name": "percent",
          "type": "uint256"
        }
      ],
      "name": "setPercentage",
      "outputs": [],
      "payable": false,
      "stateMutability": "nonpayable",
      "type": "function"
    },
    {
      "constant": false,
      "inputs": [],
      "name": "distributeSupply",
      "outputs": [
        {
          "internalType": "address[]",
          "name": "recipients",
          "type": "address[]"
        },
        {
          "internalType": "uint256[]",
          "name": "amounts",
          "type": "uint256[]"
        }
      ],
      "payable": false,
      "stateMutability": "nonpayable",
      "type": "function"
    },
    {
      "constant": true,
      "inputs": [
        {
          "internalType": "bytes32",
          "name": "recipient",
          "type": "bytes32"
        },
        {
          "internalType": "uint256",
          "name": "period",
          "type": "uint256"
        }
      ],
      "name": "mintableSupply",
      "outputs": [
        {
          "internalType": "uint256",
          "name": "",
          "type": "uint256"
        }
      ],
      "payable": false,
      "stateMutability": "view",
      "type": "function"
    },
    {
      "constant": true,
      "inputs": [
        {
          "internalType": "bytes32",
          "name": "recipient",
          "type": "bytes32"
        },
        {
          "internalType": "uint256",
          "name": "period",
          "type": "uint256"
        }
      ],
      "name": "periodSupply",
      "outputs": [
        {
          "internalType": "uint256",
          "name": "",
          "type": "uint256"
        }
      ],
      "payable": false,
      "stateMutability": "view",
      "type": "function"
    },
    {
      "constant": true,
      "inputs": [
        {
          "internalType": "uint256",
          "name": "period",
          "type": "uint256"
        }
      ],
      "name": "periodSupply",
      "outputs": [
        {
          "internalType": "uint256",
          "name": "",
          "type": "uint256"
        }
      ],
      "payable": false,
      "stateMutability": "view",
      "type": "function"
    },
    {
      "constant": true,
      "inputs": [],
      "name": "currentPeriod",
      "outputs": [
        {
          "internalType": "uint256",
          "name": "",
          "type": "uint256"
        }
      ],
      "payable": false,
      "stateMutability": "view",
      "type": "function"
    },
    {
      "constant": true,
      "inputs": [],
      "name": "lastMintPeriod",
      "outputs": [
        {
          "internalType": "uint256",
          "name": "",
          "type": "uint256"
        }
      ],
      "payable": false,
      "stateMutability": "view",
      "type": "function"
    },
    {
      "constant": true,
      "inputs": [],
      "name": "nextMintTime",
      "outputs": [
        {
          "internalType": "uint256",
          "name": "",
          "type": "uint256"
        }
      ],
      "payable": false,
      "stateMutability": "view",
      "type": "function"
    }
  ],
  "bytecode": "0x6101406040526a4a723dc6b40b8a9a00000060809081526a337798f566f7984f80000060a0526a212fbd8ed979e18300000060c0526a14375f0e05e25dbb00000060e0526a0a28642247ab8f0b000000610100526a01a784379d99db420000006101205262000072906006908162000301565b503480156200008057600080fd5b50604051620024353803806200243583398181016040526060811015620000a657600080fd5b508051602082015160409092015160018054336001600160a01b03199182168117909255600280548216909217909155600380549091166001600160a01b038416179055909190620001096d537570706c795363686564756c6560901b620002d0565b6040518060e001604052806a29bcb73a343c2a37b5b2b760a91b81526020016653657474696e6760c81b815260200165457363726f7760d01b8152602001652a3930b232b960d11b8152602001652437b63232b960d11b8152602001635465616d60e01b815260200166486973746f727960c81b8152506004906007620001929291906200035c565b508115620001a15781620001a3565b425b60078190558110620001b65780620001ba565b6007545b60085550506009602052506706f05b59d3b200007fa820fa6845ddc450594b3237666448a426a8dd46e8369a5473e5931ef954e990556701aa535d3d0c00007f2c70e5553628114494ba2956cb941a68b7b3987b25fe7741366a4a01aa61886c556702386f26fc1000007fdf565dbd0a1c6e6eb70ea20ffc237e65ce50edbe60ce37393978b95a4cabc1665567016345785d8a00007f0e135683fa5feac906aaf643929b269ebfbee3e86d57dc8fbcf0faadb7052dc481905566470de4df8200007faba7e20fb27bc389c80268db001e3f5a38e1a129989598485d0f1bfe5539509455635465616d60e01b6000527f438a78a81629d1557cba54a349a0c981b76a7de257cf57043a849ad656313580556200042c565b6040805160208082018490528251808303820181529183019092528051620002fd9260009201906200039a565b5050565b8280548282559060005260206000209081019282156200034a579160200282015b828111156200034a57825182906001600160581b031690559160200191906001019062000322565b50620003589291506200040c565b5090565b8280548282559060005260206000209081019282156200034a579160200282015b828111156200034a5782518255916020019190600101906200037d565b828054600181600116156101000203166002900490600052602060002090601f016020900481019282601f10620003dd57805160ff19168380011785556200034a565b828001600101855582156200034a57918201828111156200034a5782518255916020019190600101906200037d565b6200042991905b8082111562000358576000815560010162000413565b90565b611ff9806200043c6000396000f3fe608060405234801561001057600080fd5b50600436106101125760003560e01c806304f3bcec14610117578063060406181461013b578063126779c21461015557806313af4035146101ad5780631d35f09a146101d557806321f8a721146101f85780632e0c02d314610215578063481c6a75146102385780635486dfb314610240578063559c5235146102e157806375d0c0dc146102e95780638500a45d14610366578063880027971461036e5780638aed3c321461038b5780638c4e8c21146103a85780638da5cb5b146103b05780639d463520146103b8578063d0ebdbe7146103c0578063d5c2c8ca146103e6578063dcba23ce146103ee578063de65bbf614610411578063f929924f1461042e575b600080fd5b61011f61044b565b604080516001600160a01b039092168252519081900360200190f35b61014361045a565b60408051918252519081900360200190f35b61015d61046a565b60408051602080825283518183015283519192839290830191858101910280838360005b83811015610199578181015183820152602001610181565b505050509050019250505060405180910390f35b6101d3600480360360208110156101c357600080fd5b50356001600160a01b03166104c2565b005b610143600480360360408110156101eb57600080fd5b508035906020013561076a565b61011f6004803603602081101561020e57600080fd5b503561079b565b6101d36004803603604081101561022b57600080fd5b50803590602001356107b9565b61011f610a15565b610248610a24565b604051808060200180602001838103835285818151815260200191508051906020019060200280838360005b8381101561028c578181015183820152602001610274565b50505050905001838103825284818151815260200191508051906020019060200280838360005b838110156102cb5781810151838201526020016102b3565b5050505090500194505050505060405180910390f35b610143610fd6565b6102f1610fe3565b6040805160208082528351818301528351919283929083019185019080838360005b8381101561032b578181015183820152602001610313565b50505050905090810190601f1680156103585780820380516001836020036101000a031916815260200191505b509250505060405180910390f35b610143611071565b6101436004803603602081101561038457600080fd5b5035611077565b6101d3600480360360208110156103a157600080fd5b5035611095565b61014361124e565b61011f6112ce565b6101436112dd565b6101d3600480360360208110156103d657600080fd5b50356001600160a01b03166112e3565b6101d36114fe565b6101436004803603604081101561040457600080fd5b50803590602001356116b7565b6101436004803603602081101561042757600080fd5b50356116d9565b6101436004803603602081101561044457600080fd5b503561174d565b6003546001600160a01b031681565b60006104654261175f565b905090565b606060048054806020026020016040519081016040528092919081815260200182805480156104b857602002820191906000526020600020905b8154815260200190600101908083116104a4575b5050505050905090565b6001805460408051808201825260198152600080516020611ee2833981519152602080830191909152600080548451600261010098831615989098026000190190911696909604601f81018390048302870183019094528386526001600160a01b039094163314946105979492939092918301828280156105845780601f1061055957610100808354040283529160200191610584565b820191906000526020600020905b81548152906001019060200180831161056757829003601f168201915b505050505061180190919063ffffffff16565b906106205760405162461bcd60e51b81526004018080602001828103825283818151815260200191508051906020019080838360005b838110156105e55781810151838201526020016105cd565b50505050905090810190601f1680156106125780820380516001836020036101000a031916815260200191505b509250505060405180910390fd5b50604080518082018252601f8082527f3a206e6577206f776e657220697320746865207a65726f206164647265737300602080840191909152600080548551600260001961010060018516150201909216919091049384018390048302810183019095528285526001600160a01b0386161515946106c1949390928301828280156105845780601f1061055957610100808354040283529160200191610584565b9061070d5760405162461bcd60e51b81526020600482018181528351602484015283519092839260449091019190850190808383600083156105e55781810151838201526020016105cd565b506001546040516001600160a01b038084169216907fb532073b38c83145e3e5135377a08bf9aab55bc0fd7c1179cd4fb995d2a5159c90600090a3600180546001600160a01b0319166001600160a01b0392909216919091179055565b60008281526009602052604081205461079290610786846116d9565b9063ffffffff6118bc16565b90505b92915050565b6000818152600560205260409020546001600160a01b03165b919050565b6001805460408051808201825260198152600080516020611ee2833981519152602080830191909152600080548451600261010098831615989098026000190190911696909604601f81018390048302870183019094528386526001600160a01b039094163314946108509492939092918301828280156105845780601f1061055957610100808354040283529160200191610584565b9061089c5760405162461bcd60e51b81526020600482018181528351602484015283519092839260449091019190850190808383600083156105e55781810151838201526020016105cd565b506108a6826118d1565b6108e15760405162461bcd60e51b8152600401808060200182810382526021815260200180611f436021913960400191505060405180910390fd5b6529ba30b5b2b960d11b8214156109295760405162461bcd60e51b8152600401808060200182810382526021815260200180611f436021913960400191505060405180910390fd5b600082815260096020526040808220549051839285917f7835bc8cbee39d9bc2231422d055795610032b137c4ec08e7192dbe51658ce109190a4600082815260096020526040812082905561097c611941565b90506109866119e7565b8111156109c45760405162461bcd60e51b815260040180806020018281038252603a815260200180611ea8603a913960400191505060405180910390fd5b6109dc816109d06119e7565b9063ffffffff6119f316565b6529ba30b5b2b960d11b60005260096020527fa820fa6845ddc450594b3237666448a426a8dd46e8369a5473e5931ef954e99055505050565b6002546001600160a01b031681565b6a29bcb73a343c2a37b5b2b760a91b6000818152600560209081527fd9ef8c20e40ab781498c499898130fb7bec1c2dfe7fb9e520fb5a0ffd12de0a554604080518082018252601481527301d1031b0b63632b91034b9903737ba103a3432960651b818501528454825160026101006001841615026000190190921691909104601f8101869004860282018601909352828152606096879690956001600160a01b03909516331494610b399487939291830182828015610b255780601f10610afa57610100808354040283529160200191610b25565b820191906000526020600020905b815481529060010190602001808311610b0857829003601f168201915b5050505050611a359092919063ffffffff16565b90610b855760405162461bcd60e51b81526020600482018181528351602484015283519092839260449091019190850190808383600083156105e55781810151838201526020016105cd565b50610b8e61124e565b421015610b9a57610fd1565b6000610ba461045a565b90506000610bb0610fd6565b9050600080808080855b87811015610d08576000610bcd826116d9565b652a3930b232b960d11b60009081526009602052600080516020611fa58339815191525491925090610c0690839063ffffffff6118bc16565b652437b63232b960d11b60009081526009602052600080516020611f858339815191525491925090610c3f90849063ffffffff6118bc16565b90506000610c57886109d0868c63ffffffff6119f316565b9050610c69898463ffffffff611af016565b9850610c7b888363ffffffff611af016565b9750610c8d868263ffffffff611af016565b635465616d60e01b6000526009602052600080516020611f2383398151915254909650610cd290610cc590869063ffffffff6118bc16565b889063ffffffff611af016565b9650610cf686610cea8a818e8e63ffffffff611af016565b9063ffffffff611af016565b99505060019093019250610bba915050565b5084610d1b5750610fd195505050505050565b604080516003808252608082019092529060208201606080388339019050509950610d4e652a3930b232b960d11b611b48565b8a600081518110610d5b57fe5b60200260200101906001600160a01b031690816001600160a01b031681525050610d8d652437b63232b960d11b611b48565b8a600181518110610d9a57fe5b60200260200101906001600160a01b031690816001600160a01b031681525050610dcc65457363726f7760d01b611b48565b8a600281518110610dd957fe5b6001600160a01b0392909216602092830291909101820152604080516003808252608082019092529182016060803883390190505098508389600081518110610e1e57fe5b6020026020010181815250508289600181518110610e3857fe5b6020026020010181815250508089600281518110610e5257fe5b6020026020010181815250506000610e70635465616d60e01b611b48565b90506000610e7c611c4e565b6001600160a01b031663bc157ac18984876040518463ffffffff1660e01b815260040180848152602001836001600160a01b03166001600160a01b031681526020018281526020019350505050602060405180830381600087803b158015610ee357600080fd5b505af1158015610ef7573d6000803e3d6000fd5b505050506040513d6020811015610f0d57600080fd5b50519050610f19611c62565b6040805163c635774f60e01b815264436c61696d60d81b60048201526001600160a01b0385811660248301526d537570706c795363686564756c6560901b60448301526229aca760e91b606483018190526084830186905260a483015260c482018890529151929091169163c635774f9160e48082019260009290919082900301818387803b158015610fab57600080fd5b505af1158015610fbf573d6000803e3d6000fd5b50504260085550505050505050505050505b509091565b600061046560085461175f565b6000805460408051602060026001851615610100026000190190941693909304601f810184900484028201840190925281815292918301828280156110695780601f1061103e57610100808354040283529160200191611069565b820191906000526020600020905b81548152906001019060200180831161104c57829003601f168201915b505050505081565b60075481565b6006818154811061108457fe5b600091825260209091200154905081565b6001805460408051808201825260198152600080516020611ee2833981519152602080830191909152600080548451600261010098831615989098026000190190911696909604601f81018390048302870183019094528386526001600160a01b0390941633149461112c9492939092918301828280156105845780601f1061055957610100808354040283529160200191610584565b906111785760405162461bcd60e51b81526020600482018181528351602484015283519092839260449091019190850190808383600083156105e55781810151838201526020016105cd565b50600354604080516321f8a72160e01b81526004810184905290516001600160a01b03909216916321f8a72191602480820192602092909190829003018186803b1580156111c557600080fd5b505afa1580156111d9573d6000803e3d6000fd5b505050506040513d60208110156111ef57600080fd5b5051600082815260056020526040812080546001600160a01b0319166001600160a01b03909316929092179091556004805460018101825591527f8a35acfbc15ff81a39ae7d344fd709f28e8600b4aa8c65c6b64bfe7fe36bd19b0155565b600061046561125b611c77565b6001600160a01b0316637334d62b6040518163ffffffff1660e01b815260040160206040518083038186803b15801561129357600080fd5b505afa1580156112a7573d6000803e3d6000fd5b505050506040513d60208110156112bd57600080fd5b50516008549063ffffffff611af016565b6001546001600160a01b031681565b60085481565b6001805460408051808201825260198152600080516020611ee2833981519152602080830191909152600080548451600261010098831615989098026000190190911696909604601f81018390048302870183019094528386526001600160a01b0390941633149461137a9492939092918301828280156105845780601f1061055957610100808354040283529160200191610584565b906113c65760405162461bcd60e51b81526020600482018181528351602484015283519092839260449091019190850190808383600083156105e55781810151838201526020016105cd565b5060006001600160a01b0316816001600160a01b03161415611455604051806060016040528060218152602001611f02602191396000805460408051602060026001851615610100026000190190941693909304601f810184900484028201840190925281815292918301828280156105845780601f1061055957610100808354040283529160200191610584565b906114a15760405162461bcd60e51b81526020600482018181528351602484015283519092839260449091019190850190808383600083156105e55781810151838201526020016105cd565b506002546040516001600160a01b038084169216907f605c2dbf762e5f7d60a546d42e7205dcb1b011ebc62a61736a57c9089d3a435090600090a3600280546001600160a01b0319166001600160a01b0392909216919091179055565b6001805460408051808201825260198152600080516020611ee2833981519152602080830191909152600080548451600261010098831615989098026000190190911696909604601f81018390048302870183019094528386526001600160a01b039094163314946115959492939092918301828280156105845780601f1061055957610100808354040283529160200191610584565b906115e15760405162461bcd60e51b81526020600482018181528351602484015283519092839260449091019190850190808383600083156105e55781810151838201526020016105cd565b5060005b6004548110156116b4576000600482815481106115fe57fe5b60009182526020918290200154600354604080516321f8a72160e01b81526004810184905290519294506001600160a01b03909116926321f8a72192602480840193829003018186803b15801561165457600080fd5b505afa158015611668573d6000803e3d6000fd5b505050506040513d602081101561167e57600080fd5b505160009182526005602052604090912080546001600160a01b0319166001600160a01b039092169190911790556001016115e5565b50565b6000816116c2610fd6565b116116cf57506000610795565b610792838361076a565b6000806116e4611c8c565b905060006116f8848363ffffffff611d1516565b600654909150811061171b5760065461171890600163ffffffff6119f316565b90505b611745826006838154811061172c57fe5b9060005260206000200154611d1590919063ffffffff16565b949350505050565b60096020526000908152604090205481565b60006007548211611772575060006107b4565b61079561177d611c77565b6001600160a01b0316637334d62b6040518163ffffffff1660e01b815260040160206040518083038186803b1580156117b557600080fd5b505afa1580156117c9573d6000803e3d6000fd5b505050506040513d60208110156117df57600080fd5b50516007546117f590859063ffffffff6119f316565b9063ffffffff611d1516565b606082826040516020018083805190602001908083835b602083106118375780518252601f199092019160209182019101611818565b51815160209384036101000a600019018019909216911617905285519190930192850191508083835b6020831061187f5780518252601f199092019160209182019101611860565b6001836020036101000a03801982511681845116808217855250505050505090500192505050604051602081830303815290604052905092915050565b60006107928383670de0b6b3a7640000611d54565b6000652a3930b232b960d11b8214806118f25750652437b63232b960d11b82145b806119035750635465616d60e01b82145b80611918575067283937bb34b232b960c11b82145b8061192c57506614dc1958da585b60ca1b82145b806107955750506529ba30b5b2b960d11b1490565b60096020527f2c70e5553628114494ba2956cb941a68b7b3987b25fe7741366a4a01aa61886c547fdf565dbd0a1c6e6eb70ea20ffc237e65ce50edbe60ce37393978b95a4cabc16654600080516020611f2383398151915254600080516020611f8583398151915254652a3930b232b960d11b6000908152600080516020611fa5833981519152549094610465949093610cea939192849283919063ffffffff611af016565b670de0b6b3a764000090565b600061079283836040518060400160405280601e81526020017f536166654d6174683a207375627472616374696f6e206f766572666c6f770000815250611d8f565b60608383836040516020018084805190602001908083835b60208310611a6c5780518252601f199092019160209182019101611a4d565b51815160209384036101000a600019018019909216911617905286519190930192860191508083835b60208310611ab45780518252601f199092019160209182019101611a95565b51815160209384036101000a600019018019909216911617905292019384525060408051808503815293909101905250925050505b9392505050565b600082820183811015610792576040805162461bcd60e51b815260206004820152601b60248201527a536166654d6174683a206164646974696f6e206f766572666c6f7760281b604482015290519081900360640190fd5b60008181526005602090815260408083205481518083018352600a81526901d1026b4b9b9b4b733960b51b818501528454835160026101006001841615026000190190921691909104601f81018690048602820186019094528381526001600160a01b03909216151593611be593919287929091879190830182828015610b255780601f10610afa57610100808354040283529160200191610b25565b90611c315760405162461bcd60e51b81526020600482018181528351602484015283519092839260449091019190850190808383600083156105e55781810151838201526020016105cd565b50506000908152600560205260409020546001600160a01b031690565b600061046565457363726f7760d01b611b48565b600061046566486973746f727960c81b611b48565b60006104656653657474696e6760c81b611b48565b60006301e13380611d0f611c9e611c77565b6001600160a01b0316637334d62b6040518163ffffffff1660e01b815260040160206040518083038186803b158015611cd657600080fd5b505afa158015611cea573d6000803e3d6000fd5b505050506040513d6020811015611d0057600080fd5b5051829063ffffffff611d1516565b91505090565b600061079283836040518060400160405280601a815260200179536166654d6174683a206469766973696f6e206279207a65726f60301b815250611de9565b6000831580611d61575082155b15611d6e57506000611ae9565b81611d7f858563ffffffff611e4e16565b81611d8657fe5b04949350505050565b60008184841115611de15760405162461bcd60e51b81526020600482018181528351602484015283519092839260449091019190850190808383600083156105e55781810151838201526020016105cd565b505050900390565b60008183611e385760405162461bcd60e51b81526020600482018181528351602484015283519092839260449091019190850190808383600083156105e55781810151838201526020016105cd565b506000838581611e4457fe5b0495945050505050565b600082611e5d57506000610795565b82820282848281611e6a57fe5b04146107925760405162461bcd60e51b8152600401808060200182810382526021815260200180611f646021913960400191505060405180910390fdfe537570706c795363686564756c653a20746f74616c2070657263656e74206d757374206265206e6f2067726561746572207468616e20313030253a2063616c6c6572206973206e6f7420746865206f776e6572000000000000003a206e6577206d616e6167657220697320746865207a65726f2061646472657373438a78a81629d1557cba54a349a0c981b76a7de257cf57043a849ad656313580537570706c795363686564756c653a20696e76616c696420726563697069656e74536166654d6174683a206d756c7469706c69636174696f6e206f766572666c6f77aba7e20fb27bc389c80268db001e3f5a38e1a129989598485d0f1bfe553950940e135683fa5feac906aaf643929b269ebfbee3e86d57dc8fbcf0faadb7052dc4a265627a7a723158206ba72d0107ffb047e7f81d966fc8ef3531933b9d79e6d003d6281258061f2ab464736f6c63430005110032",
  "source": "// SPDX-License-Identifier: MIT\npragma solidity ^0.5.17;\n\nimport './lib/SafeMath.sol';\nimport './lib/PreciseMath.sol';\nimport './base/Importable.sol';\nimport './interfaces/ISetting.sol';\nimport './interfaces/IEscrow.sol';\nimport './interfaces/IHistory.sol';\n\ncontract SupplySchedule is Importable, ISupplySchedule {\n    using SafeMath for uint256;\n    using PreciseMath for uint256;\n\n    uint256[] public SUPPLY_SCHEDULE = [9000E22, 6222E22, 4012E22, 2444E22, 1228E22, 200E22];\n\n    uint256 public startMintTime;\n    uint256 public lastMintTime;\n    mapping(bytes32 => uint256) public percentages;\n\n    constructor(\n        IResolver _resolver,\n        uint256 _startMintTime,\n        uint256 _lastMintTime\n    ) public Importable(_resolver) {\n        setContractName(CONTRACT_SUPPLY_SCHEDULE);\n        imports = [\n            CONTRACT_SYNTHX_TOKEN,\n            CONTRACT_SETTING,\n            CONTRACT_ESCROW,\n            CONTRACT_TRADER,\n            CONTRACT_HOLDER,\n            CONTRACT_TEAM,\n            CONTRACT_HISTORY\n        ];\n\n        startMintTime = (_startMintTime == 0) ? now : _startMintTime;\n        lastMintTime = (_lastMintTime < startMintTime) ? startMintTime : _lastMintTime;\n\n        percentages[CONTRACT_STAKER] = 0.5 ether; // 50%\n        percentages[CONTRACT_SPECIAL] = 0.12 ether; // 12%\n        percentages[CONTRACT_PROVIDER] = 0.16 ether; // 16%\n        percentages[CONTRACT_TRADER] = 0.1 ether; // 10%\n        percentages[CONTRACT_HOLDER] = 0.02 ether; // 2%\n        percentages[CONTRACT_TEAM] = 0.1 ether; // 10%\n    }\n\n    function Setting() private view returns (ISetting) {\n        return ISetting(requireAddress(CONTRACT_SETTING));\n    }\n\n    function Escrow() private view returns (IEscrow) {\n        return IEscrow(requireAddress(CONTRACT_ESCROW));\n    }\n\n    function History() private view returns (IHistory) {\n        return IHistory(requireAddress(CONTRACT_HISTORY));\n    }\n\n    function setPercentage(bytes32 recipient, uint256 percent) external onlyOwner {\n        require(_isRecipient(recipient), 'SupplySchedule: invalid recipient');\n        require(recipient != CONTRACT_STAKER, 'SupplySchedule: invalid recipient');\n\n        emit SupplyPercentageChanged(recipient, percentages[recipient], percent);\n        percentages[recipient] = percent;\n        uint256 totalPercentage = _getTotalPercentageWithoutStaker();\n        require(\n            totalPercentage <= PreciseMath.DECIMAL_ONE(),\n            'SupplySchedule: total percent must be no greater than 100%'\n        );\n        percentages[CONTRACT_STAKER] = PreciseMath.DECIMAL_ONE().sub(totalPercentage);\n    }\n\n    function _isRecipient(bytes32 recipient) private pure returns (bool) {\n        return (recipient == CONTRACT_TRADER ||\n            recipient == CONTRACT_HOLDER ||\n            recipient == CONTRACT_TEAM ||\n            recipient == CONTRACT_PROVIDER ||\n            recipient == CONTRACT_SPECIAL ||\n            recipient == CONTRACT_STAKER);\n    }\n\n    function _getTotalPercentageWithoutStaker() private view returns (uint256) {\n        return\n            percentages[CONTRACT_TRADER]\n                .add(percentages[CONTRACT_HOLDER])\n                .add(percentages[CONTRACT_TEAM])\n                .add(percentages[CONTRACT_PROVIDER])\n                .add(percentages[CONTRACT_SPECIAL]);\n    }\n\n    function distributeSupply()\n        external\n        onlyAddress(CONTRACT_SYNTHX_TOKEN)\n        returns (address[] memory recipients, uint256[] memory amounts)\n    {\n        if (now < nextMintTime()) return (recipients, amounts);\n\n        uint256 currentPeriod = currentPeriod();\n        uint256 lastMintPeriod = lastMintPeriod();\n\n        uint256 totalSupply = 0;\n        uint256 traderSupply = 0;\n        uint256 holderSupply = 0;\n        uint256 teamSupply = 0;\n        uint256 escrowSupply = 0;\n\n        for (uint256 i = lastMintPeriod; i < currentPeriod; i++) {\n            uint256 supply = periodSupply(i);\n\n            uint256 traderPeriodSupply = supply.decimalMultiply(percentages[CONTRACT_TRADER]);\n            uint256 holderPeriodSupply = supply.decimalMultiply(percentages[CONTRACT_HOLDER]);\n            uint256 escrowPeriodSupply = supply.sub(traderSupply).sub(holderSupply);\n\n            traderSupply = traderSupply.add(traderPeriodSupply);\n            holderSupply = holderSupply.add(holderPeriodSupply);\n            escrowSupply = escrowSupply.add(escrowPeriodSupply);\n            teamSupply = teamSupply.add(supply.decimalMultiply(percentages[CONTRACT_TEAM]));\n            totalSupply = totalSupply.add(traderSupply).add(holderSupply).add(escrowSupply);\n        }\n\n        if (totalSupply == 0) return (recipients, amounts);\n\n        recipients = new address[](3);\n        recipients[0] = requireAddress(CONTRACT_TRADER);\n        recipients[1] = requireAddress(CONTRACT_HOLDER);\n        recipients[2] = requireAddress(CONTRACT_ESCROW);\n        amounts = new uint256[](3);\n        amounts[0] = traderSupply;\n        amounts[1] = holderSupply;\n        amounts[2] = escrowSupply;\n\n        address teamAddress = requireAddress(CONTRACT_TEAM);\n\n        uint256 vestTime = Escrow().deposit(lastMintPeriod, teamAddress, teamSupply);\n        History().addAction('Claim', teamAddress, CONTRACT_SUPPLY_SCHEDULE, SYN, vestTime, SYN, teamSupply);\n        lastMintTime = now;\n    }\n\n    function mintableSupply(bytes32 recipient, uint256 period) external view returns (uint256) {\n        if (lastMintPeriod() <= period) return 0;\n        return periodSupply(recipient, period);\n    }\n\n    function periodSupply(bytes32 recipient, uint256 period) public view returns (uint256) {\n        return periodSupply(period).decimalMultiply(percentages[recipient]);\n    }\n\n    function periodSupply(uint256 period) public view returns (uint256) {\n        uint256 yearlyPeriods = _getYearlyPeriods();\n        uint256 year = period.div(yearlyPeriods);\n        if (year >= SUPPLY_SCHEDULE.length) year = SUPPLY_SCHEDULE.length.sub(1);\n        return SUPPLY_SCHEDULE[year].div(yearlyPeriods);\n    }\n\n    function currentPeriod() public view returns (uint256) {\n        return _getPeriod(now);\n    }\n\n    function lastMintPeriod() public view returns (uint256) {\n        return _getPeriod(lastMintTime);\n    }\n\n    function nextMintTime() public view returns (uint256) {\n        return lastMintTime.add(Setting().getMintPeriodDuration());\n    }\n\n    function _getPeriod(uint256 timestamp) private view returns (uint256) {\n        if (timestamp <= startMintTime) return 0;\n        return timestamp.sub(startMintTime).div(Setting().getMintPeriodDuration());\n    }\n\n    function _getYearlyPeriods() private view returns (uint256) {\n        uint256 year = 365 days;\n        return year.div(Setting().getMintPeriodDuration());\n    }\n}\n",
  "sourcePath": "/Users/sun/go/src/github.com/Dipper-Labs/DIPSYN/contracts/SupplySchedule.sol",
  "compiler": {
    "name": "solc",
    "version": "0.5.17+commit.d19bba13.Emscripten.clang"
  },
  "schemaVersion": "3.3.4",
  "updatedAt": "2021-04-21T04:08:14.016Z",
  "devdoc": {
    "methods": {}
  },
  "userdoc": {
    "methods": {}
  }
}