{
  "contractName": "Synthx",
  "abi": [
    {
      "inputs": [],
      "payable": false,
      "stateMutability": "nonpayable",
      "type": "constructor"
    },
    {
      "anonymous": false,
      "inputs": [
        {
          "indexed": true,
          "internalType": "address",
          "name": "account",
          "type": "address"
        },
        {
          "indexed": true,
          "internalType": "bytes32",
          "name": "stake",
          "type": "bytes32"
        },
        {
          "indexed": false,
          "internalType": "uint256",
          "name": "amount",
          "type": "uint256"
        }
      ],
      "name": "Burned",
      "type": "event"
    },
    {
      "anonymous": false,
      "inputs": [
        {
          "indexed": true,
          "internalType": "address",
          "name": "account",
          "type": "address"
        },
        {
          "indexed": true,
          "internalType": "bytes32",
          "name": "reward",
          "type": "bytes32"
        },
        {
          "indexed": true,
          "internalType": "bytes32",
          "name": "asset",
          "type": "bytes32"
        },
        {
          "indexed": false,
          "internalType": "uint256",
          "name": "period",
          "type": "uint256"
        },
        {
          "indexed": false,
          "internalType": "uint256",
          "name": "amount",
          "type": "uint256"
        },
        {
          "indexed": false,
          "internalType": "uint256",
          "name": "vestTime",
          "type": "uint256"
        }
      ],
      "name": "Claimed",
      "type": "event"
    },
    {
      "anonymous": false,
      "inputs": [
        {
          "indexed": true,
          "internalType": "address",
          "name": "liquidator",
          "type": "address"
        },
        {
          "indexed": true,
          "internalType": "bytes32",
          "name": "stake",
          "type": "bytes32"
        },
        {
          "indexed": true,
          "internalType": "address",
          "name": "account",
          "type": "address"
        },
        {
          "indexed": false,
          "internalType": "uint256",
          "name": "stakeAmount",
          "type": "uint256"
        },
        {
          "indexed": false,
          "internalType": "uint256",
          "name": "burnAmount",
          "type": "uint256"
        }
      ],
      "name": "Liquidated",
      "type": "event"
    },
    {
      "anonymous": false,
      "inputs": [
        {
          "indexed": true,
          "internalType": "address",
          "name": "account",
          "type": "address"
        },
        {
          "indexed": true,
          "internalType": "bytes32",
          "name": "asset",
          "type": "bytes32"
        },
        {
          "indexed": false,
          "internalType": "uint256",
          "name": "amount",
          "type": "uint256"
        },
        {
          "indexed": false,
          "internalType": "bool",
          "name": "isPool",
          "type": "bool"
        }
      ],
      "name": "Locked",
      "type": "event"
    },
    {
      "anonymous": false,
      "inputs": [
        {
          "indexed": true,
          "internalType": "address",
          "name": "previousValue",
          "type": "address"
        },
        {
          "indexed": true,
          "internalType": "address",
          "name": "newValue",
          "type": "address"
        }
      ],
      "name": "ManagerChanged",
      "type": "event"
    },
    {
      "anonymous": false,
      "inputs": [
        {
          "indexed": true,
          "internalType": "address",
          "name": "account",
          "type": "address"
        },
        {
          "indexed": true,
          "internalType": "bytes32",
          "name": "from",
          "type": "bytes32"
        },
        {
          "indexed": true,
          "internalType": "bytes32",
          "name": "stake",
          "type": "bytes32"
        },
        {
          "indexed": false,
          "internalType": "uint256",
          "name": "stakeAmount",
          "type": "uint256"
        },
        {
          "indexed": false,
          "internalType": "uint256",
          "name": "issuerAmount",
          "type": "uint256"
        }
      ],
      "name": "Minted",
      "type": "event"
    },
    {
      "anonymous": false,
      "inputs": [
        {
          "indexed": true,
          "internalType": "address",
          "name": "previousValue",
          "type": "address"
        },
        {
          "indexed": true,
          "internalType": "address",
          "name": "newValue",
          "type": "address"
        }
      ],
      "name": "OwnerChanged",
      "type": "event"
    },
    {
      "anonymous": false,
      "inputs": [
        {
          "indexed": true,
          "internalType": "bool",
          "name": "previousValue",
          "type": "bool"
        },
        {
          "indexed": true,
          "internalType": "bool",
          "name": "newValue",
          "type": "bool"
        }
      ],
      "name": "PauseChanged",
      "type": "event"
    },
    {
      "anonymous": false,
      "inputs": [
        {
          "indexed": true,
          "internalType": "address",
          "name": "account",
          "type": "address"
        },
        {
          "indexed": true,
          "internalType": "bytes32",
          "name": "from",
          "type": "bytes32"
        },
        {
          "indexed": true,
          "internalType": "bytes32",
          "name": "stake",
          "type": "bytes32"
        },
        {
          "indexed": false,
          "internalType": "uint256",
          "name": "stakeAmount",
          "type": "uint256"
        }
      ],
      "name": "Staked",
      "type": "event"
    },
    {
      "anonymous": false,
      "inputs": [
        {
          "indexed": true,
          "internalType": "address",
          "name": "account",
          "type": "address"
        },
        {
          "indexed": true,
          "internalType": "bytes32",
          "name": "fromSynth",
          "type": "bytes32"
        },
        {
          "indexed": true,
          "internalType": "bytes32",
          "name": "toSynth",
          "type": "bytes32"
        },
        {
          "indexed": false,
          "internalType": "uint256",
          "name": "fromAmount",
          "type": "uint256"
        },
        {
          "indexed": false,
          "internalType": "uint256",
          "name": "toAmount",
          "type": "uint256"
        },
        {
          "indexed": false,
          "internalType": "uint256",
          "name": "tradingFee",
          "type": "uint256"
        },
        {
          "indexed": false,
          "internalType": "uint256",
          "name": "fromSynthPrice",
          "type": "uint256"
        },
        {
          "indexed": false,
          "internalType": "uint256",
          "name": "toSynthPirce",
          "type": "uint256"
        }
      ],
      "name": "Traded",
      "type": "event"
    },
    {
      "anonymous": false,
      "inputs": [
        {
          "indexed": true,
          "internalType": "address",
          "name": "account",
          "type": "address"
        },
        {
          "indexed": true,
          "internalType": "bytes32",
          "name": "stake",
          "type": "bytes32"
        },
        {
          "indexed": true,
          "internalType": "address",
          "name": "recipient",
          "type": "address"
        },
        {
          "indexed": false,
          "internalType": "uint256",
          "name": "amount",
          "type": "uint256"
        }
      ],
      "name": "Transfered",
      "type": "event"
    },
    {
      "anonymous": false,
      "inputs": [
        {
          "indexed": true,
          "internalType": "address",
          "name": "account",
          "type": "address"
        },
        {
          "indexed": true,
          "internalType": "bytes32",
          "name": "asset",
          "type": "bytes32"
        },
        {
          "indexed": false,
          "internalType": "uint256",
          "name": "amount",
          "type": "uint256"
        },
        {
          "indexed": false,
          "internalType": "bool",
          "name": "isPool",
          "type": "bool"
        }
      ],
      "name": "Unlocked",
      "type": "event"
    },
    {
      "anonymous": false,
      "inputs": [
        {
          "indexed": true,
          "internalType": "address",
          "name": "account",
          "type": "address"
        },
        {
          "indexed": false,
          "internalType": "uint256",
          "name": "amount",
          "type": "uint256"
        }
      ],
      "name": "Vested",
      "type": "event"
    },
    {
      "constant": false,
      "inputs": [
        {
          "internalType": "bytes32",
          "name": "name",
          "type": "bytes32"
        }
      ],
      "name": "addAddress",
      "outputs": [],
      "payable": false,
      "stateMutability": "nonpayable",
      "type": "function"
    },
    {
      "constant": true,
      "inputs": [],
      "name": "contractName",
      "outputs": [
        {
          "internalType": "string",
          "name": "",
          "type": "string"
        }
      ],
      "payable": false,
      "stateMutability": "view",
      "type": "function"
    },
    {
      "constant": true,
      "inputs": [
        {
          "internalType": "bytes32",
          "name": "name",
          "type": "bytes32"
        }
      ],
      "name": "getAddress",
      "outputs": [
        {
          "internalType": "address",
          "name": "",
          "type": "address"
        }
      ],
      "payable": false,
      "stateMutability": "view",
      "type": "function"
    },
    {
      "constant": true,
      "inputs": [],
      "name": "getImports",
      "outputs": [
        {
          "internalType": "bytes32[]",
          "name": "",
          "type": "bytes32[]"
        }
      ],
      "payable": false,
      "stateMutability": "view",
      "type": "function"
    },
    {
      "constant": true,
      "inputs": [],
      "name": "manager",
      "outputs": [
        {
          "internalType": "address",
          "name": "",
          "type": "address"
        }
      ],
      "payable": false,
      "stateMutability": "view",
      "type": "function"
    },
    {
      "constant": true,
      "inputs": [],
      "name": "nativeCoin",
      "outputs": [
        {
          "internalType": "bytes32",
          "name": "",
          "type": "bytes32"
        }
      ],
      "payable": false,
      "stateMutability": "view",
      "type": "function"
    },
    {
      "constant": true,
      "inputs": [],
      "name": "owner",
      "outputs": [
        {
          "internalType": "address",
          "name": "",
          "type": "address"
        }
      ],
      "payable": false,
      "stateMutability": "view",
      "type": "function"
    },
    {
      "constant": true,
      "inputs": [],
      "name": "paused",
      "outputs": [
        {
          "internalType": "bool",
          "name": "",
          "type": "bool"
        }
      ],
      "payable": false,
      "stateMutability": "view",
      "type": "function"
    },
    {
      "constant": false,
      "inputs": [],
      "name": "refreshCache",
      "outputs": [],
      "payable": false,
      "stateMutability": "nonpayable",
      "type": "function"
    },
    {
      "constant": true,
      "inputs": [],
      "name": "resolver",
      "outputs": [
        {
          "internalType": "contract IResolver",
          "name": "",
          "type": "address"
        }
      ],
      "payable": false,
      "stateMutability": "view",
      "type": "function"
    },
    {
      "constant": false,
      "inputs": [
        {
          "internalType": "address",
          "name": "_manager",
          "type": "address"
        }
      ],
      "name": "setManager",
      "outputs": [],
      "payable": false,
      "stateMutability": "nonpayable",
      "type": "function"
    },
    {
      "constant": false,
      "inputs": [
        {
          "internalType": "address",
          "name": "_owner",
          "type": "address"
        }
      ],
      "name": "setOwner",
      "outputs": [],
      "payable": false,
      "stateMutability": "nonpayable",
      "type": "function"
    },
    {
      "constant": false,
      "inputs": [
        {
          "internalType": "bool",
          "name": "_paused",
          "type": "bool"
        }
      ],
      "name": "setPaused",
      "outputs": [],
      "payable": false,
      "stateMutability": "nonpayable",
      "type": "function"
    },
    {
      "constant": false,
      "inputs": [
        {
          "internalType": "contract IResolver",
          "name": "_resolver",
          "type": "address"
        },
        {
          "internalType": "bytes32",
          "name": "_nativeCoin",
          "type": "bytes32"
        }
      ],
      "name": "initialize",
      "outputs": [
        {
          "internalType": "bool",
          "name": "",
          "type": "bool"
        }
      ],
      "payable": false,
      "stateMutability": "nonpayable",
      "type": "function"
    },
    {
      "constant": false,
      "inputs": [],
      "name": "stakeFromCoin",
      "outputs": [
        {
          "internalType": "bool",
          "name": "",
          "type": "bool"
        }
      ],
      "payable": true,
      "stateMutability": "payable",
      "type": "function"
    },
    {
      "constant": false,
      "inputs": [
        {
          "internalType": "uint256",
          "name": "amount",
          "type": "uint256"
        }
      ],
      "name": "stakeFromEscrow",
      "outputs": [
        {
          "internalType": "bool",
          "name": "",
          "type": "bool"
        }
      ],
      "payable": false,
      "stateMutability": "nonpayable",
      "type": "function"
    },
    {
      "constant": false,
      "inputs": [
        {
          "internalType": "bytes32",
          "name": "stake",
          "type": "bytes32"
        },
        {
          "internalType": "uint256",
          "name": "amount",
          "type": "uint256"
        }
      ],
      "name": "stakeFromToken",
      "outputs": [
        {
          "internalType": "bool",
          "name": "",
          "type": "bool"
        }
      ],
      "payable": false,
      "stateMutability": "nonpayable",
      "type": "function"
    },
    {
      "constant": false,
      "inputs": [],
      "name": "mintFromCoin",
      "outputs": [
        {
          "internalType": "bool",
          "name": "",
          "type": "bool"
        }
      ],
      "payable": true,
      "stateMutability": "payable",
      "type": "function"
    },
    {
      "constant": false,
      "inputs": [
        {
          "internalType": "uint256",
          "name": "amount",
          "type": "uint256"
        }
      ],
      "name": "mintFromEscrow",
      "outputs": [
        {
          "internalType": "bool",
          "name": "",
          "type": "bool"
        }
      ],
      "payable": false,
      "stateMutability": "nonpayable",
      "type": "function"
    },
    {
      "constant": false,
      "inputs": [
        {
          "internalType": "bytes32",
          "name": "stake",
          "type": "bytes32"
        },
        {
          "internalType": "uint256",
          "name": "amount",
          "type": "uint256"
        }
      ],
      "name": "mintFromToken",
      "outputs": [
        {
          "internalType": "bool",
          "name": "",
          "type": "bool"
        }
      ],
      "payable": false,
      "stateMutability": "nonpayable",
      "type": "function"
    },
    {
      "constant": false,
      "inputs": [
        {
          "internalType": "bytes32",
          "name": "stake",
          "type": "bytes32"
        },
        {
          "internalType": "uint256",
          "name": "amount",
          "type": "uint256"
        }
      ],
      "name": "mintFromTransferable",
      "outputs": [
        {
          "internalType": "bool",
          "name": "",
          "type": "bool"
        }
      ],
      "payable": false,
      "stateMutability": "nonpayable",
      "type": "function"
    },
    {
      "constant": false,
      "inputs": [
        {
          "internalType": "bytes32",
          "name": "stake",
          "type": "bytes32"
        },
        {
          "internalType": "uint256",
          "name": "amount",
          "type": "uint256"
        }
      ],
      "name": "burn",
      "outputs": [
        {
          "internalType": "bool",
          "name": "",
          "type": "bool"
        }
      ],
      "payable": false,
      "stateMutability": "nonpayable",
      "type": "function"
    },
    {
      "constant": false,
      "inputs": [
        {
          "internalType": "bytes32",
          "name": "stake",
          "type": "bytes32"
        },
        {
          "internalType": "address payable",
          "name": "recipient",
          "type": "address"
        },
        {
          "internalType": "uint256",
          "name": "amount",
          "type": "uint256"
        }
      ],
      "name": "transfer",
      "outputs": [
        {
          "internalType": "bool",
          "name": "",
          "type": "bool"
        }
      ],
      "payable": false,
      "stateMutability": "nonpayable",
      "type": "function"
    },
    {
      "constant": false,
      "inputs": [
        {
          "internalType": "bytes32",
          "name": "fromSynth",
          "type": "bytes32"
        },
        {
          "internalType": "uint256",
          "name": "fromAmount",
          "type": "uint256"
        },
        {
          "internalType": "bytes32",
          "name": "toSynth",
          "type": "bytes32"
        }
      ],
      "name": "trade",
      "outputs": [
        {
          "internalType": "bool",
          "name": "",
          "type": "bool"
        }
      ],
      "payable": false,
      "stateMutability": "nonpayable",
      "type": "function"
    },
    {
      "constant": false,
      "inputs": [
        {
          "internalType": "bytes32",
          "name": "asset",
          "type": "bytes32"
        },
        {
          "internalType": "uint256",
          "name": "amount",
          "type": "uint256"
        },
        {
          "internalType": "bool",
          "name": "isPool",
          "type": "bool"
        }
      ],
      "name": "lock",
      "outputs": [
        {
          "internalType": "bool",
          "name": "",
          "type": "bool"
        }
      ],
      "payable": false,
      "stateMutability": "nonpayable",
      "type": "function"
    },
    {
      "constant": false,
      "inputs": [
        {
          "internalType": "bytes32",
          "name": "asset",
          "type": "bytes32"
        },
        {
          "internalType": "uint256",
          "name": "amount",
          "type": "uint256"
        },
        {
          "internalType": "bool",
          "name": "isPool",
          "type": "bool"
        }
      ],
      "name": "unlock",
      "outputs": [
        {
          "internalType": "bool",
          "name": "",
          "type": "bool"
        }
      ],
      "payable": false,
      "stateMutability": "nonpayable",
      "type": "function"
    },
    {
      "constant": false,
      "inputs": [
        {
          "internalType": "bytes32",
          "name": "reward",
          "type": "bytes32"
        },
        {
          "internalType": "bytes32",
          "name": "asset",
          "type": "bytes32"
        }
      ],
      "name": "claim",
      "outputs": [
        {
          "internalType": "bool",
          "name": "",
          "type": "bool"
        }
      ],
      "payable": false,
      "stateMutability": "nonpayable",
      "type": "function"
    },
    {
      "constant": false,
      "inputs": [
        {
          "internalType": "uint256",
          "name": "amount",
          "type": "uint256"
        }
      ],
      "name": "vest",
      "outputs": [
        {
          "internalType": "bool",
          "name": "",
          "type": "bool"
        }
      ],
      "payable": false,
      "stateMutability": "nonpayable",
      "type": "function"
    },
    {
      "constant": false,
      "inputs": [
        {
          "internalType": "bytes32",
          "name": "stake",
          "type": "bytes32"
        },
        {
          "internalType": "address",
          "name": "account",
          "type": "address"
        },
        {
          "internalType": "uint256",
          "name": "amount",
          "type": "uint256"
        }
      ],
      "name": "liquidate",
      "outputs": [
        {
          "internalType": "bool",
          "name": "",
          "type": "bool"
        }
      ],
      "payable": false,
      "stateMutability": "nonpayable",
      "type": "function"
    }
  ],
  "bytecode": "0x608060405234801561001057600080fd5b5060018054336001600160a01b0319918216811790925560028054821690921760ff60a81b19169091556003805490911690556157b580620000536000396000f3fe6080604052600436106101525760003560e01c806304f3bcec146101575780630f1f0a6514610188578063126779c2146101cc57806313af403514610231578063167b78cd1461026657806316c38b3c1461028d5780631a7cd67e146102b957806321f8a721146102f15780633e61ef261461031b5780633feb1bd81461034b578063481c6a751461038a5780635c975abb1461039f5780636a760b80146103b457806374d770ac146103de57806375d0c0dc146103e65780637a4084541461047057806384cc9dfb146104a05780638aed3c32146104d05780638da5cb5b146104fa578063a4983e4f1461050f578063af70973114610539578063b307cce814610571578063be13f47c146105a1578063d0ebdbe7146105da578063d5c2c8ca1461060d578063e4f3e73914610622578063ed8f50ab14610661578063f82d43e51461068b578063f9df4a6c14610693575b600080fd5b34801561016357600080fd5b5061016c6106c9565b604080516001600160a01b039092168252519081900360200190f35b34801561019457600080fd5b506101b8600480360360408110156101ab57600080fd5b50803590602001356106d8565b604080519115158252519081900360200190f35b3480156101d857600080fd5b506101e161073e565b60408051602080825283518183015283519192839290830191858101910280838360005b8381101561021d578181015183820152602001610205565b505050509050019250505060405180910390f35b34801561023d57600080fd5b506102646004803603602081101561025457600080fd5b50356001600160a01b0316610797565b005b34801561027257600080fd5b5061027b610a3f565b60408051918252519081900360200190f35b34801561029957600080fd5b50610264600480360360208110156102b057600080fd5b50351515610a45565b3480156102c557600080fd5b506101b8600480360360608110156102dc57600080fd5b50803590602081013590604001351515610b9f565b3480156102fd57600080fd5b5061016c6004803603602081101561031457600080fd5b5035610fc3565b34801561032757600080fd5b506101b86004803603604081101561033e57600080fd5b5080359060200135610fde565b34801561035757600080fd5b506101b86004803603606081101561036e57600080fd5b508035906001600160a01b036020820135169060400135610ffe565b34801561039657600080fd5b5061016c6115be565b3480156103ab57600080fd5b506101b86115cd565b3480156103c057600080fd5b506101b8600480360360208110156103d757600080fd5b50356115dd565b6101b8611968565b3480156103f257600080fd5b506103fb611c1c565b6040805160208082528351818301528351919283929083019185019080838360005b8381101561043557818101518382015260200161041d565b50505050905090810190601f1680156104625780820380516001836020036101000a031916815260200191505b509250505060405180910390f35b34801561047c57600080fd5b506101b86004803603604081101561049357600080fd5b5080359060200135611caa565b3480156104ac57600080fd5b506101b8600480360360408110156104c357600080fd5b508035906020013561228b565b3480156104dc57600080fd5b50610264600480360360208110156104f357600080fd5b503561267e565b34801561050657600080fd5b5061016c612837565b34801561051b57600080fd5b506101b86004803603602081101561053257600080fd5b5035612846565b34801561054557600080fd5b506101b86004803603606081101561055c57600080fd5b5080359060208101359060400135151561286e565b34801561057d57600080fd5b506101b86004803603604081101561059457600080fd5b5080359060200135612c02565b3480156105ad57600080fd5b506101b8600480360360408110156105c457600080fd5b506001600160a01b038135169060200135612ef3565b3480156105e657600080fd5b50610264600480360360208110156105fd57600080fd5b50356001600160a01b031661310b565b34801561061957600080fd5b50610264613326565b34801561062e57600080fd5b506101b86004803603606081101561064557600080fd5b508035906001600160a01b0360208201351690604001356134dc565b34801561066d57600080fd5b506101b86004803603602081101561068457600080fd5b5035613a98565b6101b8613d44565b34801561069f57600080fd5b506101b8600480360360608110156106b657600080fd5b5080359060208101359060400135613d67565b6003546001600160a01b031681565b600060065483141561071b5760405162461bcd60e51b815260040180806020018281038252602f815260200180615648602f913960400191505060405180910390fd5b61073483836a46726f6d42616c616e636560a81b6141c9565b5060015b92915050565b6060600480548060200260200160405190810160405280929190818152602001828054801561078c57602002820191906000526020600020905b815481526020019060010190808311610778575b505050505090505b90565b60018054604080518082018252601981526000805160206155e1833981519152602080830191909152600080548451600261010098831615989098026000190190911696909604601f81018390048302870183019094528386526001600160a01b0390941633149461086c9492939092918301828280156108595780601f1061082e57610100808354040283529160200191610859565b820191906000526020600020905b81548152906001019060200180831161083c57829003601f168201915b505050505061459590919063ffffffff16565b906108f55760405162461bcd60e51b81526004018080602001828103825283818151815260200191508051906020019080838360005b838110156108ba5781810151838201526020016108a2565b50505050905090810190601f1680156108e75780820380516001836020036101000a031916815260200191505b509250505060405180910390fd5b50604080518082018252601f8082527f3a206e6577206f776e657220697320746865207a65726f206164647265737300602080840191909152600080548551600260001961010060018516150201909216919091049384018390048302810183019095528285526001600160a01b038616151594610996949390928301828280156108595780601f1061082e57610100808354040283529160200191610859565b906109e25760405162461bcd60e51b81526020600482018181528351602484015283519092839260449091019190850190808383600083156108ba5781810151838201526020016108a2565b506001546040516001600160a01b038084169216907fb532073b38c83145e3e5135377a08bf9aab55bc0fd7c1179cd4fb995d2a5159c90600090a3600180546001600160a01b0319166001600160a01b0392909216919091179055565b60065481565b60018054604080518082018252601981526000805160206155e1833981519152602080830191909152600080548451600261010098831615989098026000190190911696909604601f81018390048302870183019094528386526001600160a01b03909416331494610adc9492939092918301828280156108595780601f1061082e57610100808354040283529160200191610859565b90610b285760405162461bcd60e51b81526020600482018181528351602484015283519092839260449091019190850190808383600083156108ba5781810151838201526020016108a2565b5060025460ff600160a81b9091041615158115151415610b4757610b9c565b60025460405182151591600160a81b900460ff161515907fac1664632d6278432aa05a6afc0aa83e5ea08e8df9a1436736daa5d6283211c090600090a36002805460ff60a81b1916600160a81b831515021790555b50565b60028054604080518082018252601881526000805160206156778339815191526020808301919091526000805484516101006001831615026000190190911696909604601f810183900483028701830190945283865294600160a01b90940460ff1693610c319390918691908301828280156108595780601f1061082e57610100808354040283529160200191610859565b90610c7d5760405162461bcd60e51b81526020600482018181528351602484015283519092839260449091019190850190808383600083156108ba5781810151838201526020016108a2565b506002805460408051808201825260088152670e881c185d5cd95960c21b6020808301919091526000805484516101006001831615026000190190911696909604601f8101839004830287018301909452838652600160a81b90940460ff161594610d0d9492939092918301828280156108595780601f1061082e57610100808354040283529160200191610859565b90610d595760405162461bcd60e51b81526020600482018181528351602484015283519092839260449091019190850190808383600083156108ba5781810151838201526020016108a2565b508115610e91576000610d7363141bdbdb60e21b86614650565b9050610e133330610dfb610d856147ff565b856001600160a01b031663313ce5676040518163ffffffff1660e01b815260040160206040518083038186803b158015610dbe57600080fd5b505afa158015610dd2573d6000803e3d6000fd5b505050506040513d6020811015610de857600080fd5b505189919060ff1663ffffffff61480416565b6001600160a01b03851692919063ffffffff61486316565b610e1b6148c3565b60408051630899146b60e01b8152600481018890523360248201526044810187905290516001600160a01b039290921691630899146b9160648082019260009290919082900301818387803b158015610e7357600080fd5b505af1158015610e87573d6000803e3d6000fd5b5050505050610f0a565b610e996148de565b60408051630899146b60e01b8152600481018790523360248201526044810186905290516001600160a01b039290921691630899146b9160648082019260009290919082900301818387803b158015610ef157600080fd5b505af1158015610f05573d6000803e3d6000fd5b505050505b610f126148f2565b6001600160a01b0316631249c58b6040518163ffffffff1660e01b8152600401602060405180830381600087803b158015610f4c57600080fd5b505af1158015610f60573d6000803e3d6000fd5b505050506040513d6020811015610f7657600080fd5b50506040805184815283151560208201528151869233927f42971983a4684ecc9f7a373569e3558a6e5e601701f2634f261bbbae278f9940929081900390910190a35060015b9392505050565b6000908152600560205260409020546001600160a01b031690565b600061073483836f46726f6d5472616e7366657261626c6560801b6141c9565b60028054604080518082018252601881526000805160206156778339815191526020808301919091526000805484516101006001831615026000190190911696909604601f810183900483028701830190945283865294600160a01b90940460ff16936110909390918691908301828280156108595780601f1061082e57610100808354040283529160200191610859565b906110dc5760405162461bcd60e51b81526020600482018181528351602484015283519092839260449091019190850190808383600083156108ba5781810151838201526020016108a2565b506002805460408051808201825260088152670e881c185d5cd95960c21b6020808301919091526000805484516101006001831615026000190190911696909604601f8101839004830287018301909452838652600160a81b90940460ff16159461116c9492939092918301828280156108595780601f1061082e57610100808354040283529160200191610859565b906111b85760405162461bcd60e51b81526020600482018181528351602484015283519092839260449091019190850190808383600083156108ba5781810151838201526020016108a2565b5060006111c361490b565b60408051630cd030f760e31b81526004810188905233602482015281516001600160a01b03939093169263668187b892604480840193919291829003018186803b15801561121057600080fd5b505afa158015611224573d6000803e3d6000fd5b505050506040513d604081101561123a57600080fd5b50516040805160608101909152602c80825291925061126c91859190615755602083013983919063ffffffff61491f16565b5061127561490b565b60408051632a62e7fd60e21b8152600481018890523360248201526044810186905290516001600160a01b03929092169163a98b9ff49160648082019260009290919082900301818387803b1580156112cd57600080fd5b505af11580156112e1573d6000803e3d6000fd5b5050505060065485141561132b576040516001600160a01b0385169084156108fc029085906000818181858888f19350505050158015611325573d6000803e3d6000fd5b506113df565b600061133f645374616b6560d81b87614650565b90506113dd856113c66113506147ff565b846001600160a01b031663313ce5676040518163ffffffff1660e01b815260040160206040518083038186803b15801561138957600080fd5b505afa15801561139d573d6000803e3d6000fd5b505050506040513d60208110156113b357600080fd5b505188919060ff1663ffffffff61480416565b6001600160a01b038416919063ffffffff61497916565b505b6113e76149d0565b6040805163c635774f60e01b8152645374616b6560d81b6004820152336024820152672a3930b739b332b960c11b60448201526064810188905260848101869052600060a4820181905260c4820181905291516001600160a01b03939093169263c635774f9260e48084019391929182900301818387803b15801561146b57600080fd5b505af115801561147f573d6000803e3d6000fd5b5050505061148b6149e5565b6001600160a01b031663ba4ba0d886336040518363ffffffff1660e01b815260040180838152602001826001600160a01b03166001600160a01b0316815260200192505050600060405180830381600087803b1580156114ea57600080fd5b505af11580156114fe573d6000803e3d6000fd5b5050505061150a6148f2565b6001600160a01b0316631249c58b6040518163ffffffff1660e01b8152600401602060405180830381600087803b15801561154457600080fd5b505af1158015611558573d6000803e3d6000fd5b505050506040513d602081101561156e57600080fd5b50506040805184815290516001600160a01b03861691879133917fffe564e02c59303a306cbe66719f8f664d5823f0cf333eceb6e26825ce27a9c9919081900360200190a4506001949350505050565b6002546001600160a01b031681565b600254600160a81b900460ff1681565b60028054604080518082018252601881526000805160206156778339815191526020808301919091526000805484516101006001831615026000190190911696909604601f810183900483028701830190945283865294600160a01b90940460ff169361166f9390918691908301828280156108595780601f1061082e57610100808354040283529160200191610859565b906116bb5760405162461bcd60e51b81526020600482018181528351602484015283519092839260449091019190850190808383600083156108ba5781810151838201526020016108a2565b506002805460408051808201825260088152670e881c185d5cd95960c21b6020808301919091526000805484516101006001831615026000190190911696909604601f8101839004830287018301909452838652600160a81b90940460ff16159461174b9492939092918301828280156108595780601f1061082e57610100808354040283529160200191610859565b906117975760405162461bcd60e51b81526020600482018181528351602484015283519092839260449091019190850190808383600083156108ba5781810151838201526020016108a2565b506117a06149fd565b6001600160a01b031663f3fef3a333846040518363ffffffff1660e01b815260040180836001600160a01b03166001600160a01b0316815260200182815260200192505050600060405180830381600087803b1580156117ff57600080fd5b505af1158015611813573d6000803e3d6000fd5b5050505061181f6149d0565b6040805163c635774f60e01b81526315995cdd60e21b600482015233602482015265457363726f7760d01b60448201526229aca760e91b606482015260848101859052600060a4820181905260c4820181905291516001600160a01b03939093169263c635774f9260e48084019391929182900301818387803b1580156118a557600080fd5b505af11580156118b9573d6000803e3d6000fd5b505050506118c56148f2565b6001600160a01b0316631249c58b6040518163ffffffff1660e01b8152600401602060405180830381600087803b1580156118ff57600080fd5b505af1158015611913573d6000803e3d6000fd5b505050506040513d602081101561192957600080fd5b505060408051838152905133917ed5958799b183a7b738d3ad5e711305293dd5076a37a4e3b7e6611dea6114f3919081900360200190a2506001919050565b600080611973614a11565b6001600160a01b031663d12ae67e600654336040518363ffffffff1660e01b815260040180838152602001826001600160a01b03166001600160a01b031681526020019250505060206040518083038186803b1580156119d257600080fd5b505afa1580156119e6573d6000803e3d6000fd5b505050506040513d60208110156119fc57600080fd5b505111611a3a5760405162461bcd60e51b81526004018080602001828103825260268152602001806156016026913960400191505060405180910390fd5b611a55600654346a46726f6d42616c616e636560a81b614a25565b611a5d6149d0565b6006546040805163c635774f60e01b8152645374616b6560d81b6004820181905233602483015260448201526064810192909252346084830152600060a4830181905260c4830181905290516001600160a01b03939093169263c635774f9260e480820193929182900301818387803b158015611ad957600080fd5b505af1158015611aed573d6000803e3d6000fd5b50505050611af96149e5565b6001600160a01b031663ba4ba0d8600654336040518363ffffffff1660e01b815260040180838152602001826001600160a01b03166001600160a01b0316815260200192505050600060405180830381600087803b158015611b5a57600080fd5b505af1158015611b6e573d6000803e3d6000fd5b50505050611b7a6148f2565b6001600160a01b0316631249c58b6040518163ffffffff1660e01b8152600401602060405180830381600087803b158015611bb457600080fd5b505af1158015611bc8573d6000803e3d6000fd5b505050506040513d6020811015611bde57600080fd5b50506006546040805134815290516a46726f6d42616c616e636560a81b9133916000805160206156e08339815191529181900360200190a450600190565b6000805460408051602060026001851615610100026000190190941693909304601f81018490048402820184019092528181529291830182828015611ca25780601f10611c7757610100808354040283529160200191611ca2565b820191906000526020600020905b815481529060010190602001808311611c8557829003601f168201915b505050505081565b60028054604080518082018252601881526000805160206156778339815191526020808301919091526000805484516101006001831615026000190190911696909604601f810183900483028701830190945283865294600160a01b90940460ff1693611d3c9390918691908301828280156108595780601f1061082e57610100808354040283529160200191610859565b90611d885760405162461bcd60e51b81526020600482018181528351602484015283519092839260449091019190850190808383600083156108ba5781810151838201526020016108a2565b506002805460408051808201825260088152670e881c185d5cd95960c21b6020808301919091526000805484516101006001831615026000190190911696909604601f8101839004830287018301909452838652600160a81b90940460ff161594611e189492939092918301828280156108595780601f1061082e57610100808354040283529160200191610859565b90611e645760405162461bcd60e51b81526020600482018181528351602484015283519092839260449091019190850190808383600083156108ba5781810151838201526020016108a2565b506000611e6f614a11565b604080516365c1986760e01b815260048101879052336024820181905260448201879052606482015290516001600160a01b0392909216916365c19867916084808201926020929091908290030181600087803b158015611ecf57600080fd5b505af1158015611ee3573d6000803e3d6000fd5b505050506040513d6020811015611ef957600080fd5b50519050600080611f0861490b565b60408051630cd030f760e31b81526004810189905233602482015281516001600160a01b03939093169263668187b892604480840193919291829003018186803b158015611f5557600080fd5b505afa158015611f69573d6000803e3d6000fd5b505050506040513d6040811015611f7f57600080fd5b5080516020909101519092509050801561201357611f9b6149fd565b6001600160a01b031663c2a672e033836040518363ffffffff1660e01b815260040180836001600160a01b03166001600160a01b0316815260200182815260200192505050600060405180830381600087803b158015611ffa57600080fd5b505af115801561200e573d6000803e3d6000fd5b505050505b61201b614a11565b6001600160a01b031663d12ae67e87336040518363ffffffff1660e01b815260040180838152602001826001600160a01b03166001600160a01b031681526020019250505060206040518083038186803b15801561207857600080fd5b505afa15801561208c573d6000803e3d6000fd5b505050506040513d60208110156120a257600080fd5b50516120b5576120b3863384610ffe565b505b6120bd6149d0565b6040805163c635774f60e01b8152645374616b6560d81b600482015233602482015263213ab93760e11b604482015260648101899052600060848201819052631e5554d160e21b60a483015260c4820189905291516001600160a01b03939093169263c635774f9260e48084019391929182900301818387803b15801561214357600080fd5b505af1158015612157573d6000803e3d6000fd5b505050506121636149e5565b6001600160a01b031663ba4ba0d887336040518363ffffffff1660e01b815260040180838152602001826001600160a01b03166001600160a01b0316815260200192505050600060405180830381600087803b1580156121c257600080fd5b505af11580156121d6573d6000803e3d6000fd5b505050506121e26148f2565b6001600160a01b0316631249c58b6040518163ffffffff1660e01b8152600401602060405180830381600087803b15801561221c57600080fd5b505af1158015612230573d6000803e3d6000fd5b505050506040513d602081101561224657600080fd5b5050604080518481529051879133917f7298c49d4a02f128c91eac867376070b76cb09e92a8867b22356c6c797cac1b29181900360200190a350600195945050505050565b60028054604080518082018252601881526000805160206156778339815191526020808301919091526000805484516101006001831615026000190190911696909604601f810183900483028701830190945283865294600160a01b90940460ff169361231d9390918691908301828280156108595780601f1061082e57610100808354040283529160200191610859565b906123695760405162461bcd60e51b81526020600482018181528351602484015283519092839260449091019190850190808383600083156108ba5781810151838201526020016108a2565b506002805460408051808201825260088152670e881c185d5cd95960c21b6020808301919091526000805484516101006001831615026000190190911696909604601f8101839004830287018301909452838652600160a81b90940460ff1615946123f99492939092918301828280156108595780601f1061082e57610100808354040283529160200191610859565b906124455760405162461bcd60e51b81526020600482018181528351602484015283519092839260449091019190850190808383600083156108ba5781810151838201526020016108a2565b50600080600061245486614e4f565b6001600160a01b03166396c144f086336040518363ffffffff1660e01b815260040180838152602001826001600160a01b03166001600160a01b0316815260200192505050606060405180830381600087803b1580156124b357600080fd5b505af11580156124c7573d6000803e3d6000fd5b505050506040513d60608110156124dd57600080fd5b508051602082015160409092015190945090925090506124fb6149d0565b6001600160a01b031663c635774f33888885631e5554d160e21b8b14612527576229aca760e91b612530565b631e5554d160e21b5b604080516001600160e01b031960e089901b16815264436c61696d60d81b60048201526001600160a01b03909616602487015260448601949094526064850192909252608484015260a483015260c482018690525160e480830192600092919082900301818387803b1580156125a557600080fd5b505af11580156125b9573d6000803e3d6000fd5b505050506125c56148f2565b6001600160a01b0316631249c58b6040518163ffffffff1660e01b8152600401602060405180830381600087803b1580156125ff57600080fd5b505af1158015612613573d6000803e3d6000fd5b505050506040513d602081101561262957600080fd5b5050604080518481526020810184905280820183905290518691889133917f9a18aa2aa3f0117d713798c67286d443ab6a403a864aac7bb29c30781b6df887919081900360600190a450600195945050505050565b60018054604080518082018252601981526000805160206155e1833981519152602080830191909152600080548451600261010098831615989098026000190190911696909604601f81018390048302870183019094528386526001600160a01b039094163314946127159492939092918301828280156108595780601f1061082e57610100808354040283529160200191610859565b906127615760405162461bcd60e51b81526020600482018181528351602484015283519092839260449091019190850190808383600083156108ba5781810151838201526020016108a2565b50600354604080516321f8a72160e01b81526004810184905290516001600160a01b03909216916321f8a72191602480820192602092909190829003018186803b1580156127ae57600080fd5b505afa1580156127c2573d6000803e3d6000fd5b505050506040513d60208110156127d857600080fd5b5051600082815260056020526040812080546001600160a01b0319166001600160a01b03909316929092179091556004805460018101825591527f8a35acfbc15ff81a39ae7d344fd709f28e8600b4aa8c65c6b64bfe7fe36bd19b0155565b6001546001600160a01b031681565b60006128666229aca760e91b836946726f6d457363726f7760b01b6141c9565b506001919050565b60028054604080518082018252601881526000805160206156778339815191526020808301919091526000805484516101006001831615026000190190911696909604601f810183900483028701830190945283865294600160a01b90940460ff16936129009390918691908301828280156108595780601f1061082e57610100808354040283529160200191610859565b9061294c5760405162461bcd60e51b81526020600482018181528351602484015283519092839260449091019190850190808383600083156108ba5781810151838201526020016108a2565b506002805460408051808201825260088152670e881c185d5cd95960c21b6020808301919091526000805484516101006001831615026000190190911696909604601f8101839004830287018301909452838652600160a81b90940460ff1615946129dc9492939092918301828280156108595780601f1061082e57610100808354040283529160200191610859565b90612a285760405162461bcd60e51b81526020600482018181528351602484015283519092839260449091019190850190808383600083156108ba5781810151838201526020016108a2565b508115612ad157612a376148c3565b60408051636dea30e760e01b8152600481018790523360248201526044810186905290516001600160a01b039290921691636dea30e79160648082019260009290919082900301818387803b158015612a8f57600080fd5b505af1158015612aa3573d6000803e3d6000fd5b505050506000612aba63141bdbdb60e21b86614650565b9050612acb336113c66113506147ff565b50612b4a565b612ad96148de565b60408051636dea30e760e01b8152600481018790523360248201526044810186905290516001600160a01b039290921691636dea30e79160648082019260009290919082900301818387803b158015612b3157600080fd5b505af1158015612b45573d6000803e3d6000fd5b505050505b612b526148f2565b6001600160a01b0316631249c58b6040518163ffffffff1660e01b8152600401602060405180830381600087803b158015612b8c57600080fd5b505af1158015612ba0573d6000803e3d6000fd5b505050506040513d6020811015612bb657600080fd5b50506040805184815283151560208201528151869233927f98884973769a4e67567f13048c8794ac566b13ca057493366fae13c8b5c9d341929081900390910190a35060019392505050565b6000600654831415612c455760405162461bcd60e51b815260040180806020018281038252602f815260200180615648602f913960400191505060405180910390fd5b6000612c4f614a11565b6001600160a01b031663d12ae67e85336040518363ffffffff1660e01b815260040180838152602001826001600160a01b03166001600160a01b031681526020019250505060206040518083038186803b158015612cac57600080fd5b505afa158015612cc0573d6000803e3d6000fd5b505050506040513d6020811015612cd657600080fd5b505111612d145760405162461bcd60e51b81526004018080602001828103825260268152602001806156016026913960400191505060405180910390fd5b612d2d83836a46726f6d42616c616e636560a81b614a25565b612d356149d0565b6040805163c635774f60e01b8152645374616b6560d81b6004820181905233602483015260448201526064810186905260848101859052600060a4820181905260c4820181905291516001600160a01b03939093169263c635774f9260e48084019391929182900301818387803b158015612daf57600080fd5b505af1158015612dc3573d6000803e3d6000fd5b50505050612dcf6149e5565b6001600160a01b031663ba4ba0d884336040518363ffffffff1660e01b815260040180838152602001826001600160a01b03166001600160a01b0316815260200192505050600060405180830381600087803b158015612e2e57600080fd5b505af1158015612e42573d6000803e3d6000fd5b50505050612e4e6148f2565b6001600160a01b0316631249c58b6040518163ffffffff1660e01b8152600401602060405180830381600087803b158015612e8857600080fd5b505af1158015612e9c573d6000803e3d6000fd5b505050506040513d6020811015612eb257600080fd5b505060408051838152905184916a46726f6d42616c616e636560a81b9133916000805160206156e0833981519152919081900360200190a450600192915050565b60018054604080518082018252601981526000805160206155e1833981519152602080830191909152600080548451600261010098831615989098026000190190911696909604601f8101839004830287018301909452838652946001600160a01b03909416331493612f8b9390918691908301828280156108595780601f1061082e57610100808354040283529160200191610859565b90612fd75760405162461bcd60e51b81526020600482018181528351602484015283519092839260449091019190850190808383600083156108ba5781810151838201526020016108a2565b50612fe0614e5a565b600380546001600160a01b0319166001600160a01b0385161790556006829055613012650a6f2dce8d0f60d31b614f58565b604051806101a0016040528065457363726f7760d01b81526020016529ba30b5b2b960d11b8152602001694173736574507269636560b01b81526020016653657474696e6760c81b81526020016524b9b9bab2b960d11b8152602001652a3930b232b960d11b8152602001652437b63232b960d11b81526020016a29bcb73a343c2a37b5b2b760a91b815260200167283937bb34b232b960c11b81526020016513585c9ad95d60d21b815260200166486973746f727960c81b8152602001692634b8bab4b230ba37b960b11b81526020016614dc1958da585b60ca1b815250600490600d61310192919061550e565b5060019392505050565b60018054604080518082018252601981526000805160206155e1833981519152602080830191909152600080548451600261010098831615989098026000190190911696909604601f81018390048302870183019094528386526001600160a01b039094163314946131a29492939092918301828280156108595780601f1061082e57610100808354040283529160200191610859565b906131ee5760405162461bcd60e51b81526020600482018181528351602484015283519092839260449091019190850190808383600083156108ba5781810151838201526020016108a2565b5060006001600160a01b0316816001600160a01b0316141561327d604051806060016040528060218152602001615627602191396000805460408051602060026001851615610100026000190190941693909304601f810184900484028201840190925281815292918301828280156108595780601f1061082e57610100808354040283529160200191610859565b906132c95760405162461bcd60e51b81526020600482018181528351602484015283519092839260449091019190850190808383600083156108ba5781810151838201526020016108a2565b506002546040516001600160a01b038084169216907f605c2dbf762e5f7d60a546d42e7205dcb1b011ebc62a61736a57c9089d3a435090600090a3600280546001600160a01b0319166001600160a01b0392909216919091179055565b60018054604080518082018252601981526000805160206155e1833981519152602080830191909152600080548451600261010098831615989098026000190190911696909604601f81018390048302870183019094528386526001600160a01b039094163314946133bd9492939092918301828280156108595780601f1061082e57610100808354040283529160200191610859565b906134095760405162461bcd60e51b81526020600482018181528351602484015283519092839260449091019190850190808383600083156108ba5781810151838201526020016108a2565b5060005b600454811015610b9c5760006004828154811061342657fe5b60009182526020918290200154600354604080516321f8a72160e01b81526004810184905290519294506001600160a01b03909116926321f8a72192602480840193829003018186803b15801561347c57600080fd5b505afa158015613490573d6000803e3d6000fd5b505050506040513d60208110156134a657600080fd5b505160009182526005602052604090912080546001600160a01b0319166001600160a01b0390921691909117905560010161340d565b60028054604080518082018252601881526000805160206156778339815191526020808301919091526000805484516101006001831615026000190190911696909604601f810183900483028701830190945283865294600160a01b90940460ff169361356e9390918691908301828280156108595780601f1061082e57610100808354040283529160200191610859565b906135ba5760405162461bcd60e51b81526020600482018181528351602484015283519092839260449091019190850190808383600083156108ba5781810151838201526020016108a2565b506002805460408051808201825260088152670e881c185d5cd95960c21b6020808301919091526000805484516101006001831615026000190190911696909604601f8101839004830287018301909452838652600160a81b90940460ff16159461364a9492939092918301828280156108595780601f1061082e57610100808354040283529160200191610859565b906136965760405162461bcd60e51b81526020600482018181528351602484015283519092839260449091019190850190808383600083156108ba5781810151838201526020016108a2565b5060006136a16149e5565b6001600160a01b031662b1d66786866040518363ffffffff1660e01b815260040180838152602001826001600160a01b03166001600160a01b031681526020019250505060206040518083038186803b1580156136fd57600080fd5b505afa158015613711573d6000803e3d6000fd5b505050506040513d602081101561372757600080fd5b50516040805160608101909152602b80825291925061375991859190615700602083013983919063ffffffff61491f16565b5060006137646149e5565b6001600160a01b031663f58486ed87866040518363ffffffff1660e01b8152600401808381526020018281526020019250505060206040518083038186803b1580156137af57600080fd5b505afa1580156137c3573d6000803e3d6000fd5b505050506040513d60208110156137d957600080fd5b505190506137e5614a11565b604080516365c1986760e01b8152600481018990526001600160a01b03888116602483015260448201889052336064830152915192909116916365c19867916084808201926020929091908290030181600087803b15801561384657600080fd5b505af115801561385a573d6000803e3d6000fd5b505050506040513d602081101561387057600080fd5b5061387b905061490b565b6001600160a01b031663a98b9ff48787846040518463ffffffff1660e01b815260040180848152602001836001600160a01b03166001600160a01b031681526020018281526020019350505050600060405180830381600087803b1580156138e257600080fd5b505af11580156138f6573d6000803e3d6000fd5b5050505060065486141561393757604051339082156108fc029083906000818181858888f19350505050158015613931573d6000803e3d6000fd5b506139d4565b600061394b645374616b6560d81b88614650565b90506139d2336113c661395c6147ff565b846001600160a01b031663313ce5676040518163ffffffff1660e01b815260040160206040518083038186803b15801561399557600080fd5b505afa1580156139a9573d6000803e3d6000fd5b505050506040513d60208110156139bf57600080fd5b505186919060ff1663ffffffff61480416565b505b6139dc6148f2565b6001600160a01b0316631249c58b6040518163ffffffff1660e01b8152600401602060405180830381600087803b158015613a1657600080fd5b505af1158015613a2a573d6000803e3d6000fd5b505050506040513d6020811015613a4057600080fd5b5050604080518281526020810186905281516001600160a01b03881692899233927fecf0cf7198aa24de249e998b0d972bc3b30f8f0b6a0df63c69630b1fa1c1e54a929181900390910190a450600195945050505050565b600080613aa3614a11565b60408051636895733f60e11b81526229aca760e91b600482015233602482015290516001600160a01b03929092169163d12ae67e91604480820192602092909190829003018186803b158015613af857600080fd5b505afa158015613b0c573d6000803e3d6000fd5b505050506040513d6020811015613b2257600080fd5b505111613b605760405162461bcd60e51b81526004018080602001828103825260268152602001806156016026913960400191505060405180910390fd5b613b7e6229aca760e91b836946726f6d457363726f7760b01b614a25565b613b866149d0565b6040805163c635774f60e01b8152645374616b6560d81b6004820181905233602483015260448201526229aca760e91b606482015260848101859052600060a4820181905260c4820181905291516001600160a01b03939093169263c635774f9260e48084019391929182900301818387803b158015613c0557600080fd5b505af1158015613c19573d6000803e3d6000fd5b50505050613c256149e5565b60408051631749741b60e31b81526229aca760e91b600482015233602482015290516001600160a01b03929092169163ba4ba0d89160448082019260009290919082900301818387803b158015613c7b57600080fd5b505af1158015613c8f573d6000803e3d6000fd5b50505050613c9b6148f2565b6001600160a01b0316631249c58b6040518163ffffffff1660e01b8152600401602060405180830381600087803b158015613cd557600080fd5b505af1158015613ce9573d6000803e3d6000fd5b505050506040513d6020811015613cff57600080fd5b50506040805183815290516229aca760e91b916946726f6d457363726f7760b01b9133916000805160206156e0833981519152919081900360200190a4506001919050565b6000613d61600654346a46726f6d42616c616e636560a81b6141c9565b50600190565b60028054604080518082018252601881526000805160206156778339815191526020808301919091526000805484516101006001831615026000190190911696909604601f810183900483028701830190945283865294600160a01b90940460ff1693613df99390918691908301828280156108595780601f1061082e57610100808354040283529160200191610859565b90613e455760405162461bcd60e51b81526020600482018181528351602484015283519092839260449091019190850190808383600083156108ba5781810151838201526020016108a2565b506002805460408051808201825260088152670e881c185d5cd95960c21b6020808301919091526000805484516101006001831615026000190190911696909604601f8101839004830287018301909452838652600160a81b90940460ff161594613ed59492939092918301828280156108595780601f1061082e57610100808354040283529160200191610859565b90613f215760405162461bcd60e51b81526020600482018181528351602484015283519092839260449091019190850190808383600083156108ba5781810151838201526020016108a2565b50600080600080613f30614f87565b6040805163b2d3aec960e01b8152336004820152602481018b9052604481018a90526064810189905290516001600160a01b03929092169163b2d3aec9916084808201926080929091908290030181600087803b158015613f9057600080fd5b505af1158015613fa4573d6000803e3d6000fd5b505050506040513d6080811015613fba57600080fd5b5080516020820151604083015160609093015191965094509092509050613fdf614f9b565b6001600160a01b0316638f124c108989858a89876040518763ffffffff1660e01b8152600401808781526020018681526020018581526020018481526020018381526020018281526020019650505050505050600060405180830381600087803b15801561404c57600080fd5b505af1158015614060573d6000803e3d6000fd5b5050505061406c6149d0565b6040805163befae1d360e01b8152336004820152602481018b9052604481018a9052606481018590526084810189905260a4810187905260c4810184905290516001600160a01b03929092169163befae1d39160e48082019260009290919082900301818387803b1580156140e057600080fd5b505af11580156140f4573d6000803e3d6000fd5b505050506141006148f2565b6001600160a01b0316631249c58b6040518163ffffffff1660e01b8152600401602060405180830381600087803b15801561413a57600080fd5b505af115801561414e573d6000803e3d6000fd5b505050506040513d602081101561416457600080fd5b505060408051888152602081018690528082018590526060810184905260808101839052905187918a9133917f2dff74d4ff22afe46775738f294c317785cc0d87cff24600a649f10d00320c5b919081900360a00190a4506001979650505050505050565b6141d4838383614a25565b600061425d6141e1614faf565b6001600160a01b03166331d98b3f866040518263ffffffff1660e01b81526004018082815260200191505060206040518083038186803b15801561422457600080fd5b505afa158015614238573d6000803e3d6000fd5b505050506040513d602081101561424e57600080fd5b5051849063ffffffff614fc716565b90506000614269614fdc565b6001600160a01b0316636a5ee7b6866040518263ffffffff1660e01b81526004018082815260200191505060206040518083038186803b1580156142ac57600080fd5b505afa1580156142c0573d6000803e3d6000fd5b505050506040513d60208110156142d657600080fd5b505190508061432c576040805162461bcd60e51b815260206004820152601f60248201527f53796e7468783a204d697373696e6720436f6c6c61746572616c205261746500604482015290519081900360640190fd5b600061433e838363ffffffff614ff116565b9050614348614a11565b6040805163359fbb4360e11b8152600481018990523360248201526044810184905290516001600160a01b039290921691636b3f76869160648082019260009290919082900301818387803b1580156143a057600080fd5b505af11580156143b4573d6000803e3d6000fd5b505050506143c06149d0565b6040805163c635774f60e01b8152645374616b6560d81b600482015233602482015263135a5b9d60e21b60448201526064810189905260848101889052631e5554d160e21b60a482015260c4810184905290516001600160a01b03929092169163c635774f9160e48082019260009290919082900301818387803b15801561444757600080fd5b505af115801561445b573d6000803e3d6000fd5b505050506144676149e5565b6001600160a01b031663ba4ba0d887336040518363ffffffff1660e01b815260040180838152602001826001600160a01b03166001600160a01b0316815260200192505050600060405180830381600087803b1580156144c657600080fd5b505af11580156144da573d6000803e3d6000fd5b505050506144e66148f2565b6001600160a01b0316631249c58b6040518163ffffffff1660e01b8152600401602060405180830381600087803b15801561452057600080fd5b505af1158015614534573d6000803e3d6000fd5b505050506040513d602081101561454a57600080fd5b5050604080518681526020810183905281518892879233927f0143d72c8da816aa2496e89947809191979d6d5b976af27b04a8a1ec47ae3755929181900390910190a4505050505050565b606082826040516020018083805190602001908083835b602083106145cb5780518252601f1990920191602091820191016145ac565b51815160209384036101000a600019018019909216911617905285519190930192850191508083835b602083106146135780518252601f1990920191602091820191016145f4565b6001836020036101000a03801982511681845116808217855250505050505090500192505050604051602081830303815290604052905092915050565b60035460408051630659b9d760e41b815260048101859052602481018490528151600093849384936001600160a01b039092169263659b9d70926044808201939291829003018186803b1580156146a657600080fd5b505afa1580156146ba573d6000803e3d6000fd5b505050506040513d60408110156146d057600080fd5b508051602091820151604080518082018252601681527501d1026b4b9b9b4b7339020b9b9b2ba102a37b5b2b7160551b8186015260008054835160026001831615610100026000190190921691909104601f810188900488028201880190945283815294975092955086946147aa9491938a9390918301828280156147965780601f1061476b57610100808354040283529160200191614796565b820191906000526020600020905b81548152906001019060200180831161477957829003601f168201915b50505050506150069092919063ffffffff16565b906147f65760405162461bcd60e51b81526020600482018181528351602484015283519092839260449091019190850190808383600083156108ba5781810151838201526020016108a2565b50949350505050565b601290565b60008361481357506000610fbc565b81831415614822575082610fbc565b818310156148465761483f84848403600a0a63ffffffff6150bf16565b9050610fbc565b61485b84838503600a0a63ffffffff61511816565b949350505050565b604080516001600160a01b0385811660248301528416604482015260648082018490528251808303909101815260849091019091526020810180516001600160e01b03166323b872dd60e01b1790526148bd908590615157565b50505050565b60006148d967283937bb34b232b960c11b615208565b905090565b60006148d9652437b63232b960d11b615208565b60006148d96a29bcb73a343c2a37b5b2b760a91b615208565b60006148d96529ba30b5b2b960d11b615208565b600081848411156149715760405162461bcd60e51b81526020600482018181528351602484015283519092839260449091019190850190808383600083156108ba5781810151838201526020016108a2565b505050900390565b604080516001600160a01b038416602482015260448082018490528251808303909101815260649091019091526020810180516001600160e01b031663a9059cbb60e01b1790526149cb908490615157565b505050565b60006148d966486973746f727960c81b615208565b60006148d9692634b8bab4b230ba37b960b11b615208565b60006148d965457363726f7760d01b615208565b60006148d96524b9b9bab2b960d11b615208565b60028054604080518082018252601881526000805160206156778339815191526020808301919091526000805484516101006001831615026000190190911696909604601f8101839004830287018301909452838652600160a01b90940460ff1694614ab69492939092918301828280156108595780601f1061082e57610100808354040283529160200191610859565b90614b025760405162461bcd60e51b81526020600482018181528351602484015283519092839260449091019190850190808383600083156108ba5781810151838201526020016108a2565b506002805460408051808201825260088152670e881c185d5cd95960c21b6020808301919091526000805484516101006001831615026000190190911696909604601f8101839004830287018301909452838652600160a81b90940460ff161594614b929492939092918301828280156108595780601f1061082e57610100808354040283529160200191610859565b90614bde5760405162461bcd60e51b81526020600482018181528351602484015283519092839260449091019190850190808383600083156108ba5781810151838201526020016108a2565b5060008211614c1e5760405162461bcd60e51b81526004018080602001828103825260288152602001806156976028913960400191505060405180910390fd5b6000614c32645374616b6560d81b85614650565b90506f46726f6d5472616e7366657261626c6560801b821415614d0a576000614c5961490b565b60408051630cd030f760e31b81526004810188905233602482015281516001600160a01b03939093169263668187b892604480840193919291829003018186803b158015614ca657600080fd5b505afa158015614cba573d6000803e3d6000fd5b505050506040513d6040811015614cd057600080fd5b50516040805160608101909152602c808252919250614d0291869190615755602083013983919063ffffffff61491f16565b5050506149cb565b6229aca760e91b84148015614d2b57506946726f6d457363726f7760b01b82145b15614db557614d386149fd565b6001600160a01b031663adc9772e33856040518363ffffffff1660e01b815260040180836001600160a01b03166001600160a01b0316815260200182815260200192505050600060405180830381600087803b158015614d9757600080fd5b505af1158015614dab573d6000803e3d6000fd5b50505050506149cb565b6006548414614dd15780614dcf3330610dfb610d856147ff565b505b614dd961490b565b60408051638c610c8d60e01b8152600481018790523360248201526044810186905290516001600160a01b039290921691638c610c8d9160648082019260009290919082900301818387803b158015614e3157600080fd5b505af1158015614e45573d6000803e3d6000fd5b5050505050505050565b600061073882615208565b6002805460408051808201825260158152740e88185b1c9958591e481a5b9a5d1a585b1a5e9959605a1b6020808301919091526000805484516101006001831615026000190190911696909604601f8101839004830287018301909452838652600160a01b90940460ff161594614ef69492939092918301828280156108595780601f1061082e57610100808354040283529160200191610859565b90614f425760405162461bcd60e51b81526020600482018181528351602484015283519092839260449091019190850190808383600083156108ba5781810151838201526020016108a2565b506002805460ff60a01b1916600160a01b179055565b6040805160208082018490528251808303820181529183019092528051614f83926000920190615559565b5050565b60006148d9652a3930b232b960d11b615208565b60006148d96513585c9ad95d60d21b615208565b60006148d9694173736574507269636560b01b615208565b6000610fbc8383670de0b6b3a764000061530e565b60006148d96653657474696e6760c81b615208565b6000610fbc8383670de0b6b3a7640000615349565b60608383836040516020018084805190602001908083835b6020831061503d5780518252601f19909201916020918201910161501e565b51815160209384036101000a600019018019909216911617905286519190930192860191508083835b602083106150855780518252601f199092019160209182019101615066565b51815160209384036101000a6000190180199092169116179052920193845250604080518085038152939091019052509695505050505050565b6000826150ce57506000610738565b828202828482816150db57fe5b0414610fbc5760405162461bcd60e51b81526004018080602001828103825260218152602001806156bf6021913960400191505060405180910390fd5b6000610fbc83836040518060400160405280601a815260200179536166654d6174683a206469766973696f6e206279207a65726f60301b815250615383565b60606151ac826040518060400160405280602081526020017f5361666545524332303a206c6f772d6c6576656c2063616c6c206661696c6564815250856001600160a01b03166153e89092919063ffffffff16565b8051909150156149cb578080602001905160208110156151cb57600080fd5b50516149cb5760405162461bcd60e51b815260040180806020018281038252602a81526020018061572b602a913960400191505060405180910390fd5b60008181526005602090815260408083205481518083018352600a81526901d1026b4b9b9b4b733960b51b818501528454835160026101006001841615026000190190921691909104601f81018690048602820186019094528381526001600160a01b039092161515936152a5939192879290918791908301828280156147965780601f1061476b57610100808354040283529160200191614796565b906152f15760405162461bcd60e51b81526020600482018181528351602484015283519092839260449091019190850190808383600083156108ba5781810151838201526020016108a2565b50506000908152600560205260409020546001600160a01b031690565b600083158061531b575082155b1561532857506000610fbc565b81615339858563ffffffff6150bf16565b8161534057fe5b04949350505050565b6000831580615356575082155b1561536357506000610fbc565b61485b83615377868563ffffffff6150bf16565b9063ffffffff61511816565b600081836153d25760405162461bcd60e51b81526020600482018181528351602484015283519092839260449091019190850190808383600083156108ba5781810151838201526020016108a2565b5060008385816153de57fe5b0495945050505050565b606060006060856001600160a01b0316856040518082805190602001908083835b602083106154285780518252601f199092019160209182019101615409565b6001836020036101000a0380198251168184511680821785525050505050509050019150506000604051808303816000865af19150503d806000811461548a576040519150601f19603f3d011682016040523d82523d6000602084013e61548f565b606091505b509150915061549f8282866154a9565b9695505050505050565b606083156154b8575081610fbc565b82516155055760405162461bcd60e51b81526020600482018181528451602484015284518593919283926044019190850190808383600083156108ba5781810151838201526020016108a2565b82518084602001fd5b828054828255906000526020600020908101928215615549579160200282015b8281111561554957825182559160200191906001019061552e565b506155559291506155c6565b5090565b828054600181600116156101000203166002900490600052602060002090601f016020900481019282601f1061559a57805160ff1916838001178555615549565b82800160010185558215615549579182018281111561554957825182559160200191906001019061552e565b61079491905b8082111561555557600081556001016155cc56fe3a2063616c6c6572206973206e6f7420746865206f776e65720000000000000053796e7468783a2044656274206d7573742062652067726561746572207468616e207a65726f3a206e6577206d616e6167657220697320746865207a65726f206164647265737353796e7468783a204e617469766520436f696e2075736520226d696e7446726f6d436f696e222066756e6374696f6e3a20636f6e747261637420756e696e697469616c697a6564000000000000000053796e7468783a20616d6f756e74206d7573742062652067726561746572207468616e207a65726f536166654d6174683a206d756c7469706c69636174696f6e206f766572666c6f77cee7446526e8c7f656298d54a07b7c1bec6225ac0acc4c454cb03b966237eb4f53796e7468783a206c697175696461746520616d6f756e742065786365656473206c697175696461626c655361666545524332303a204552433230206f7065726174696f6e20646964206e6f74207375636365656453796e7468783a207472616e7366657220616d6f756e742065786365656473207472616e7366657261626c65a265627a7a723158208ae18180a97fa997f08a380195da13c1c12be8913b1aa3b285202640cd7d506864736f6c63430005110032",
  "source": "// SPDX-License-Identifier: MIT\npragma solidity ^0.5.17;\n\nimport './lib/SafeMath.sol';\nimport './lib/PreciseMath.sol';\nimport './lib/SafeERC20.sol';\nimport './base/Proxyable.sol';\nimport './base/Pausable.sol';\nimport './base/Importable.sol';\nimport './interfaces/ISynthx.sol';\nimport './interfaces/IEscrow.sol';\nimport './interfaces/IStaker.sol';\nimport './interfaces/ITrader.sol';\nimport './interfaces/IAssetPrice.sol';\nimport './interfaces/ISetting.sol';\nimport './interfaces/IIssuer.sol';\nimport './interfaces/IHolder.sol';\nimport './interfaces/IProvider.sol';\nimport './interfaces/IRewards.sol';\nimport './interfaces/ISynthxToken.sol';\nimport './interfaces/IMarket.sol';\nimport './interfaces/IHistory.sol';\nimport './interfaces/ILiquidator.sol';\nimport './interfaces/IERC20.sol';\n\ncontract Synthx is Proxyable, Pausable, Importable, ISynthx {\n    using SafeMath for uint256;\n    using PreciseMath for uint256;\n    using SafeERC20 for IERC20;\n\n    bytes32 private constant FROM_BALANCE = 'FromBalance';\n    bytes32 private constant FROM_ESCROW = 'FromEscrow';\n    bytes32 private constant FROM_TRANSFERABLE = 'FromTransferable';\n\n    bytes32 public nativeCoin;\n\n    constructor() public Importable(IResolver(0)) {}\n\n    function initialize(IResolver _resolver, bytes32 _nativeCoin) external onlyOwner returns (bool) {\n        setInitialized();\n        resolver = _resolver;\n        nativeCoin = _nativeCoin;\n        setContractName(CONTRACT_SYNTHX);\n        imports = [\n            CONTRACT_ESCROW,\n            CONTRACT_STAKER,\n            CONTRACT_ASSET_PRICE,\n            CONTRACT_SETTING,\n            CONTRACT_ISSUER,\n            CONTRACT_TRADER,\n            CONTRACT_HOLDER,\n            CONTRACT_SYNTHX_TOKEN,\n            CONTRACT_PROVIDER,\n            CONTRACT_MARKET,\n            CONTRACT_HISTORY,\n            CONTRACT_LIQUIDATOR,\n            CONTRACT_SPECIAL\n        ];\n        return true;\n    }\n\n    function Escrow() private view returns (IEscrow) {\n        return IEscrow(requireAddress(CONTRACT_ESCROW));\n    }\n\n    function Staker() private view returns (IStaker) {\n        return IStaker(requireAddress(CONTRACT_STAKER));\n    }\n\n    function AssetPrice() private view returns (IAssetPrice) {\n        return IAssetPrice(requireAddress(CONTRACT_ASSET_PRICE));\n    }\n\n    function Setting() private view returns (ISetting) {\n        return ISetting(requireAddress(CONTRACT_SETTING));\n    }\n\n    function Issuer() private view returns (IIssuer) {\n        return IIssuer(requireAddress(CONTRACT_ISSUER));\n    }\n\n    function Trader() private view returns (ITrader) {\n        return ITrader(requireAddress(CONTRACT_TRADER));\n    }\n\n    function Holder() private view returns (IHolder) {\n        return IHolder(requireAddress(CONTRACT_HOLDER));\n    }\n\n    function Provider() private view returns (IProvider) {\n        return IProvider(requireAddress(CONTRACT_PROVIDER));\n    }\n\n    function Rewards(bytes32 reward) private view returns (IRewards) {\n        return IRewards(requireAddress(reward));\n    }\n\n    function SynthxToken() private view returns (ISynthxToken) {\n        return ISynthxToken(requireAddress(CONTRACT_SYNTHX_TOKEN));\n    }\n\n    function Market() private view returns (IMarket) {\n        return IMarket(requireAddress(CONTRACT_MARKET));\n    }\n\n    function History() private view returns (IHistory) {\n        return IHistory(requireAddress(CONTRACT_HISTORY));\n    }\n\n    function Liquidator() private view returns (ILiquidator) {\n        return ILiquidator(requireAddress(CONTRACT_LIQUIDATOR));\n    }\n\n    function stakeFromCoin() external payable returns (bool) {\n        require(Issuer().getDebt(nativeCoin, msg.sender) > 0, 'Synthx: Debt must be greater than zero');\n\n        _stake(nativeCoin, msg.value, FROM_BALANCE);\n        History().addAction('Stake', msg.sender, 'Stake', nativeCoin, msg.value, bytes32(0), 0);\n        Liquidator().watchAccount(nativeCoin, msg.sender);\n        SynthxToken().mint();\n        emit Staked(msg.sender, FROM_BALANCE, nativeCoin, msg.value);\n        return true;\n    }\n\n    function stakeFromEscrow(uint256 amount) external returns (bool) {\n        require(Issuer().getDebt(SYN, msg.sender) > 0, 'Synthx: Debt must be greater than zero');\n\n        _stake(SYN, amount, FROM_ESCROW);\n        History().addAction('Stake', msg.sender, 'Stake', SYN, amount, bytes32(0), 0);\n        Liquidator().watchAccount(SYN, msg.sender);\n        SynthxToken().mint();\n        emit Staked(msg.sender, FROM_ESCROW, SYN, amount);\n        return true;\n    }\n\n    function stakeFromToken(bytes32 stake, uint256 amount) external returns (bool) {\n        require(stake != nativeCoin, 'Synthx: Native Coin use \"mintFromCoin\" function');\n        require(Issuer().getDebt(stake, msg.sender) > 0, 'Synthx: Debt must be greater than zero');\n\n        _stake(stake, amount, FROM_BALANCE);\n        History().addAction('Stake', msg.sender, 'Stake', stake, amount, bytes32(0), 0);\n        Liquidator().watchAccount(stake, msg.sender);\n        SynthxToken().mint();\n        emit Staked(msg.sender, FROM_BALANCE, stake, amount);\n        return true;\n    }\n\n    function _stake(\n        bytes32 stake,\n        uint256 amount,\n        bytes32 from\n    ) private onlyInitialized notPaused {\n        require(amount > 0, 'Synthx: amount must be greater than zero');\n        address stakeAddress = requireAsset('Stake', stake);\n\n        if (from == FROM_TRANSFERABLE) {\n            (uint256 transferable, ) = Staker().getTransferable(stake, msg.sender);\n            transferable.sub(amount, 'Synthx: transfer amount exceeds transferable');\n            return;\n        }\n\n        if (stake == SYN && from == FROM_ESCROW) {\n            Escrow().stake(msg.sender, amount);\n            return;\n        }\n\n        if (stake != nativeCoin) {\n            IERC20 token = IERC20(stakeAddress);\n            token.safeTransferFrom(\n                msg.sender,\n                address(this),\n                amount.decimalsTo(PreciseMath.DECIMALS(), token.decimals())\n            );\n        }\n\n        Staker().stake(stake, msg.sender, amount);\n    }\n\n    function mintFromCoin() external payable returns (bool) {\n        _mint(nativeCoin, msg.value, FROM_BALANCE);\n        return true;\n    }\n\n    function mintFromEscrow(uint256 amount) external returns (bool) {\n        _mint(SYN, amount, FROM_ESCROW);\n        return true;\n    }\n\n    function mintFromToken(bytes32 stake, uint256 amount) external returns (bool) {\n        require(stake != nativeCoin, 'Synthx: Native Coin use \"mintFromCoin\" function');\n\n        _mint(stake, amount, FROM_BALANCE);\n        return true;\n    }\n\n    function mintFromTransferable(bytes32 stake, uint256 amount) external returns (bool) {\n        _mint(stake, amount, FROM_TRANSFERABLE);\n        return true;\n    }\n\n    function _mint(\n        bytes32 stake,\n        uint256 amount,\n        bytes32 from\n    ) internal {\n        _stake(stake, amount, from);\n        uint256 value = amount.decimalMultiply(AssetPrice().getPrice(stake));\n        uint256 collateralRate = Setting().getCollateralRate(stake);\n        require(collateralRate > 0, 'Synthx: Missing Collateral Rate');\n\n        uint256 issueAmount = value.decimalDivide(collateralRate);\n        Issuer().issueDebt(stake, msg.sender, issueAmount);\n\n        History().addAction('Stake', msg.sender, 'Mint', stake, amount, USD, issueAmount);\n        Liquidator().watchAccount(stake, msg.sender);\n        SynthxToken().mint();\n        emit Minted(msg.sender, from, stake, amount, issueAmount);\n    }\n\n    function burn(bytes32 stake, uint256 amount) external onlyInitialized notPaused returns (bool) {\n        uint256 burnAmount = Issuer().burnDebt(stake, msg.sender, amount, msg.sender);\n\n        (uint256 stakerTransferable, uint256 escrowTransferable) = Staker().getTransferable(stake, msg.sender);\n        if (escrowTransferable > 0) Escrow().unstake(msg.sender, escrowTransferable);\n        if (Issuer().getDebt(stake, msg.sender) == 0) transfer(stake, msg.sender, stakerTransferable);\n\n        History().addAction('Stake', msg.sender, 'Burn', stake, 0, USD, amount);\n        Liquidator().watchAccount(stake, msg.sender);\n        SynthxToken().mint();\n        emit Burned(msg.sender, stake, burnAmount);\n        return true;\n    }\n\n    function transfer(\n        bytes32 stake,\n        address payable recipient,\n        uint256 amount\n    ) public onlyInitialized notPaused returns (bool) {\n        (uint256 transferable, ) = Staker().getTransferable(stake, msg.sender);\n        transferable.sub(amount, 'Synthx: transfer amount exceeds transferable');\n\n        Staker().unstake(stake, msg.sender, amount);\n\n        if (stake == nativeCoin) {\n            recipient.transfer(amount);\n        } else {\n            IERC20 token = IERC20(requireAsset('Stake', stake));\n            token.safeTransfer(recipient, amount.decimalsTo(PreciseMath.DECIMALS(), token.decimals()));\n        }\n\n        History().addAction('Stake', msg.sender, 'Transfer', stake, amount, bytes32(0), 0);\n        Liquidator().watchAccount(stake, msg.sender);\n        SynthxToken().mint();\n        emit Transfered(msg.sender, stake, recipient, amount);\n        return true;\n    }\n\n    function trade(\n        bytes32 fromSynth,\n        uint256 fromAmount,\n        bytes32 toSynth\n    ) external onlyInitialized notPaused returns (bool) {\n        (uint256 tradingAmount, uint256 tradingFee, uint256 fromSynthPrice, uint256 toSynthPirce) =\n            Trader().trade(msg.sender, fromSynth, fromAmount, toSynth);\n\n        Market().addTrade(fromSynth, fromAmount, fromSynthPrice, toSynth, tradingAmount, toSynthPirce);\n        History().addTrade(msg.sender, fromSynth, fromAmount, fromSynthPrice, toSynth, tradingAmount, toSynthPirce);\n\n        SynthxToken().mint();\n        emit Traded(\n            msg.sender,\n            fromSynth,\n            toSynth,\n            fromAmount,\n            tradingAmount,\n            tradingFee,\n            fromSynthPrice,\n            toSynthPirce\n        );\n        return true;\n    }\n\n    function lock(\n        bytes32 asset,\n        uint256 amount,\n        bool isPool\n    ) external onlyInitialized notPaused returns (bool) {\n        if (isPool) {\n            IERC20 token = IERC20(requireAsset('Pool', asset));\n            token.safeTransferFrom(\n                msg.sender,\n                address(this),\n                amount.decimalsTo(PreciseMath.DECIMALS(), token.decimals())\n            );\n            Provider().lock(asset, msg.sender, amount);\n        } else {\n            Holder().lock(asset, msg.sender, amount);\n        }\n\n        SynthxToken().mint();\n        emit Locked(msg.sender, asset, amount, isPool);\n        return true;\n    }\n\n    function unlock(\n        bytes32 asset,\n        uint256 amount,\n        bool isPool\n    ) external onlyInitialized notPaused returns (bool) {\n        if (isPool) {\n            Provider().unlock(asset, msg.sender, amount);\n            IERC20 token = IERC20(requireAsset('Pool', asset));\n            token.safeTransfer(msg.sender, amount.decimalsTo(PreciseMath.DECIMALS(), token.decimals()));\n        } else {\n            Holder().unlock(asset, msg.sender, amount);\n        }\n\n        SynthxToken().mint();\n        emit Unlocked(msg.sender, asset, amount, isPool);\n        return true;\n    }\n\n    function claim(bytes32 reward, bytes32 asset) external onlyInitialized notPaused returns (bool) {\n        (uint256 period, uint256 amount, uint256 vestTime) = Rewards(reward).claim(asset, msg.sender);\n        History().addAction('Claim', msg.sender, reward, asset, vestTime, (asset == USD) ? USD : SYN, amount);\n        SynthxToken().mint();\n        emit Claimed(msg.sender, reward, asset, period, amount, vestTime);\n        return true;\n    }\n\n    function vest(uint256 amount) external onlyInitialized notPaused returns (bool) {\n        Escrow().withdraw(msg.sender, amount);\n        History().addAction('Vest', msg.sender, 'Escrow', SYN, amount, bytes32(0), 0);\n        SynthxToken().mint();\n        emit Vested(msg.sender, amount);\n        return true;\n    }\n\n    function liquidate(\n        bytes32 stake,\n        address account,\n        uint256 amount\n    ) external onlyInitialized notPaused returns (bool) {\n        uint256 liquidable = Liquidator().getLiquidable(stake, account);\n        liquidable.sub(amount, 'Synthx: liquidate amount exceeds liquidable');\n\n        uint256 unstakable = Liquidator().getUnstakable(stake, amount);\n        Issuer().burnDebt(stake, account, amount, msg.sender);\n        Staker().unstake(stake, account, unstakable);\n\n        if (stake == nativeCoin) {\n            msg.sender.transfer(unstakable);\n        } else {\n            IERC20 token = IERC20(requireAsset('Stake', stake));\n            token.safeTransfer(msg.sender, unstakable.decimalsTo(PreciseMath.DECIMALS(), token.decimals()));\n        }\n\n        SynthxToken().mint();\n        emit Liquidated(msg.sender, stake, account, unstakable, amount);\n        return true;\n    }\n}\n",
  "sourcePath": "/Users/sun/go/src/github.com/Dipper-Labs/DIPSYN/contracts/Synthx.sol",
  "compiler": {
    "name": "solc",
    "version": "0.5.17+commit.d19bba13.Emscripten.clang"
  },
  "schemaVersion": "3.3.4",
  "updatedAt": "2021-04-21T04:08:14.026Z",
  "devdoc": {
    "methods": {}
  },
  "userdoc": {
    "methods": {}
  }
}