{
  "contractName": "SynthxOracle",
  "abi": [
    {
      "inputs": [],
      "payable": false,
      "stateMutability": "nonpayable",
      "type": "constructor"
    },
    {
      "anonymous": false,
      "inputs": [
        {
          "indexed": true,
          "internalType": "bytes32",
          "name": "asset",
          "type": "bytes32"
        },
        {
          "indexed": true,
          "internalType": "uint256",
          "name": "round",
          "type": "uint256"
        },
        {
          "indexed": false,
          "internalType": "uint256",
          "name": "previousValue",
          "type": "uint256"
        },
        {
          "indexed": false,
          "internalType": "uint256",
          "name": "newValue",
          "type": "uint256"
        }
      ],
      "name": "AssetPriceChanged",
      "type": "event"
    },
    {
      "anonymous": false,
      "inputs": [
        {
          "indexed": true,
          "internalType": "address",
          "name": "previousValue",
          "type": "address"
        },
        {
          "indexed": true,
          "internalType": "address",
          "name": "newValue",
          "type": "address"
        }
      ],
      "name": "ManagerChanged",
      "type": "event"
    },
    {
      "anonymous": false,
      "inputs": [
        {
          "indexed": true,
          "internalType": "address",
          "name": "previousValue",
          "type": "address"
        },
        {
          "indexed": true,
          "internalType": "address",
          "name": "newValue",
          "type": "address"
        }
      ],
      "name": "OwnerChanged",
      "type": "event"
    },
    {
      "anonymous": false,
      "inputs": [
        {
          "indexed": true,
          "internalType": "address",
          "name": "previousValue",
          "type": "address"
        },
        {
          "indexed": true,
          "internalType": "address",
          "name": "newValue",
          "type": "address"
        }
      ],
      "name": "StorageChanged",
      "type": "event"
    },
    {
      "constant": true,
      "inputs": [],
      "name": "contractName",
      "outputs": [
        {
          "internalType": "string",
          "name": "",
          "type": "string"
        }
      ],
      "payable": false,
      "stateMutability": "view",
      "type": "function"
    },
    {
      "constant": true,
      "inputs": [],
      "name": "getStorage",
      "outputs": [
        {
          "internalType": "address",
          "name": "",
          "type": "address"
        }
      ],
      "payable": false,
      "stateMutability": "view",
      "type": "function"
    },
    {
      "constant": true,
      "inputs": [],
      "name": "manager",
      "outputs": [
        {
          "internalType": "address",
          "name": "",
          "type": "address"
        }
      ],
      "payable": false,
      "stateMutability": "view",
      "type": "function"
    },
    {
      "constant": true,
      "inputs": [],
      "name": "owner",
      "outputs": [
        {
          "internalType": "address",
          "name": "",
          "type": "address"
        }
      ],
      "payable": false,
      "stateMutability": "view",
      "type": "function"
    },
    {
      "constant": false,
      "inputs": [
        {
          "internalType": "address",
          "name": "_manager",
          "type": "address"
        }
      ],
      "name": "setManager",
      "outputs": [],
      "payable": false,
      "stateMutability": "nonpayable",
      "type": "function"
    },
    {
      "constant": false,
      "inputs": [
        {
          "internalType": "address",
          "name": "_owner",
          "type": "address"
        }
      ],
      "name": "setOwner",
      "outputs": [],
      "payable": false,
      "stateMutability": "nonpayable",
      "type": "function"
    },
    {
      "constant": false,
      "inputs": [
        {
          "internalType": "address",
          "name": "value",
          "type": "address"
        }
      ],
      "name": "setStorage",
      "outputs": [],
      "payable": false,
      "stateMutability": "nonpayable",
      "type": "function"
    },
    {
      "constant": false,
      "inputs": [
        {
          "internalType": "bytes32",
          "name": "asset",
          "type": "bytes32"
        },
        {
          "internalType": "uint256",
          "name": "price",
          "type": "uint256"
        }
      ],
      "name": "setPrice",
      "outputs": [],
      "payable": false,
      "stateMutability": "nonpayable",
      "type": "function"
    },
    {
      "constant": false,
      "inputs": [
        {
          "internalType": "bytes32[]",
          "name": "assets",
          "type": "bytes32[]"
        },
        {
          "internalType": "uint256[]",
          "name": "prices",
          "type": "uint256[]"
        }
      ],
      "name": "setPrices",
      "outputs": [],
      "payable": false,
      "stateMutability": "nonpayable",
      "type": "function"
    },
    {
      "constant": true,
      "inputs": [
        {
          "internalType": "bytes32",
          "name": "asset",
          "type": "bytes32"
        }
      ],
      "name": "getPrice",
      "outputs": [
        {
          "internalType": "uint256",
          "name": "round",
          "type": "uint256"
        },
        {
          "internalType": "uint256",
          "name": "price",
          "type": "uint256"
        },
        {
          "internalType": "uint256",
          "name": "time",
          "type": "uint256"
        }
      ],
      "payable": false,
      "stateMutability": "view",
      "type": "function"
    },
    {
      "constant": true,
      "inputs": [
        {
          "internalType": "bytes32",
          "name": "asset",
          "type": "bytes32"
        },
        {
          "internalType": "uint256",
          "name": "round",
          "type": "uint256"
        }
      ],
      "name": "getPrice",
      "outputs": [
        {
          "internalType": "uint256",
          "name": "price",
          "type": "uint256"
        },
        {
          "internalType": "uint256",
          "name": "time",
          "type": "uint256"
        }
      ],
      "payable": false,
      "stateMutability": "view",
      "type": "function"
    },
    {
      "constant": true,
      "inputs": [
        {
          "internalType": "bytes32",
          "name": "asset",
          "type": "bytes32"
        }
      ],
      "name": "getLastRound",
      "outputs": [
        {
          "internalType": "uint256",
          "name": "",
          "type": "uint256"
        }
      ],
      "payable": false,
      "stateMutability": "view",
      "type": "function"
    }
  ],
  "bytecode": "0x60806040523480156200001157600080fd5b5060018054336001600160a01b0319918216811790925560028054909116909117905560408051808201909152600c8082526b53796e7468784f7261636c6560a01b6020909201918252620000699160009162000070565b5062000115565b828054600181600116156101000203166002900490600052602060002090601f016020900481019282601f10620000b357805160ff1916838001178555620000e3565b82800160010185558215620000e3579182015b82811115620000e3578251825591602001919060010190620000c6565b50620000f1929150620000f5565b5090565b6200011291905b80821115620000f15760008155600101620000fc565b90565b6112af80620001256000396000f3fe608060405234801561001057600080fd5b50600436106100a45760003560e01c806310d8d74d146100a957806313af4035146100ce5780631cfdd523146100f457806331d98b3f146101b25780633408f73a146101ed578063473ad27c14610211578063481c6a751461024057806375d0c0dc146102485780638da5cb5b146102c55780639137c1a7146102cd578063c9280f06146102f3578063d0ebdbe71461032f575b600080fd5b6100cc600480360360408110156100bf57600080fd5b5080359060200135610355565b005b6100cc600480360360208110156100e457600080fd5b50356001600160a01b0316610664565b6100cc6004803603604081101561010a57600080fd5b810190602081018135600160201b81111561012457600080fd5b82018360208201111561013657600080fd5b803590602001918460208302840111600160201b8311171561015757600080fd5b919390929091602081019035600160201b81111561017457600080fd5b82018360208201111561018657600080fd5b803590602001918460208302840111600160201b831117156101a757600080fd5b509092509050610891565b6101cf600480360360208110156101c857600080fd5b50356109fe565b60408051938452602084019290925282820152519081900360600190f35b6101f5610b0b565b604080516001600160a01b039092168252519081900360200190f35b61022e6004803603602081101561022757600080fd5b5035610c01565b60408051918252519081900360200190f35b6101f5610c80565b610250610c8f565b6040805160208082528351818301528351919283929083019185019080838360005b8381101561028a578181015183820152602001610272565b50505050905090810190601f1680156102b75780820380516001836020036101000a031916815260200191505b509250505060405180910390f35b6101f5610d1d565b6100cc600480360360208110156102e357600080fd5b50356001600160a01b0316610d2c565b6103166004803603604081101561030957600080fd5b5080359060200135610e6c565b6040805192835260208301919091528051918290030190f35b6100cc6004803603602081101561034557600080fd5b50356001600160a01b0316610eff565b6002546001600160a01b031633148061037857506001546001600160a01b031633145b61042d604051806060016040528060288152602001611253602891396000805460408051602060026001851615610100026000190190941693909304601f8101849004840282018401909252818152929183018282801561041a5780601f106103ef5761010080835404028352916020019161041a565b820191906000526020600020905b8154815290600101906020018083116103fd57829003601f168201915b505050505061111a90919063ffffffff16565b906104b65760405162461bcd60e51b81526004018080602001828103825283818151815260200191508051906020019080838360005b8381101561047b578181015183820152602001610463565b50505050905090810190601f1680156104a85780820380516001836020036101000a031916815260200191505b509250505060405180910390fd5b5060006104c16111d5565b6001600160a01b031663dd2be61d846040518263ffffffff1660e01b81526004018082815260200191505060206040518083038186803b15801561050457600080fd5b505afa158015610518573d6000803e3d6000fd5b505050506040513d602081101561052e57600080fd5b50519050600061053c6111d5565b6001600160a01b031663c9280f0685846040518363ffffffff1660e01b81526004018083815260200182815260200192505050604080518083038186803b15801561058657600080fd5b505afa15801561059a573d6000803e3d6000fd5b505050506040513d60408110156105b057600080fd5b505160408051828152602081018690528151929350849287927f13f6bc571fda2f55e1f702cb14d276e1b463539e7a3574385ff396190727205e928290030190a36105f96111d5565b6001600160a01b03166310d8d74d85856040518363ffffffff1660e01b81526004018083815260200182815260200192505050600060405180830381600087803b15801561064657600080fd5b505af115801561065a573d6000803e3d6000fd5b5050505050505050565b60018054604080518082018252601981526000805160206111e5833981519152602080830191909152600080548451600261010098831615989098026000190190911696909604601f81018390048302870183019094528386526001600160a01b039094163314946106fb94929390929183018282801561041a5780601f106103ef5761010080835404028352916020019161041a565b906107475760405162461bcd60e51b815260206004820181815283516024840152835190928392604490910191908501908083836000831561047b578181015183820152602001610463565b50604080518082018252601f8082527f3a206e6577206f776e657220697320746865207a65726f206164647265737300602080840191909152600080548551600260001961010060018516150201909216919091049384018390048302810183019095528285526001600160a01b0386161515946107e89493909283018282801561041a5780601f106103ef5761010080835404028352916020019161041a565b906108345760405162461bcd60e51b815260206004820181815283516024840152835190928392604490910191908501908083836000831561047b578181015183820152602001610463565b506001546040516001600160a01b038084169216907fb532073b38c83145e3e5135377a08bf9aab55bc0fd7c1179cd4fb995d2a5159c90600090a3600180546001600160a01b0319166001600160a01b0392909216919091179055565b6002546001600160a01b03163314806108b457506001546001600160a01b031633145b61092b604051806060016040528060288152602001611253602891396000805460408051602060026001851615610100026000190190941693909304601f8101849004840282018401909252818152929183018282801561041a5780601f106103ef5761010080835404028352916020019161041a565b906109775760405162461bcd60e51b815260206004820181815283516024840152835190928392604490910191908501908083836000831561047b578181015183820152602001610463565b508281146109b65760405162461bcd60e51b815260040180806020018281038252602d815260200180611226602d913960400191505060405180910390fd5b60005b838110156109f7576109ef8585838181106109d057fe5b905060200201358484848181106109e357fe5b90506020020135610355565b6001016109b9565b5050505050565b6000806000610a0b6111d5565b6001600160a01b031663dd2be61d856040518263ffffffff1660e01b81526004018082815260200191505060206040518083038186803b158015610a4e57600080fd5b505afa158015610a62573d6000803e3d6000fd5b505050506040513d6020811015610a7857600080fd5b50519250610a846111d5565b6001600160a01b031663c9280f0685856040518363ffffffff1660e01b81526004018083815260200182815260200192505050604080518083038186803b158015610ace57600080fd5b505afa158015610ae2573d6000803e3d6000fd5b505050506040513d6040811015610af857600080fd5b5080516020909101519395909450915050565b60035460408051808201825260118152700e8814dd1bdc9859d9481b9bdd081cd95d607a1b60208083019190915260008054845160026101006001841615026000190190921691909104601f810184900484028201840190955284815290946001600160a01b0316151593610ba4939286919083018282801561041a5780601f106103ef5761010080835404028352916020019161041a565b90610bf05760405162461bcd60e51b815260206004820181815283516024840152835190928392604490910191908501908083836000831561047b578181015183820152602001610463565b50506003546001600160a01b031690565b6000610c0b6111d5565b6001600160a01b031663dd2be61d836040518263ffffffff1660e01b81526004018082815260200191505060206040518083038186803b158015610c4e57600080fd5b505afa158015610c62573d6000803e3d6000fd5b505050506040513d6020811015610c7857600080fd5b505192915050565b6002546001600160a01b031681565b6000805460408051602060026001851615610100026000190190941693909304601f81018490048402820184019092528181529291830182828015610d155780601f10610cea57610100808354040283529160200191610d15565b820191906000526020600020905b815481529060010190602001808311610cf857829003601f168201915b505050505081565b6001546001600160a01b031681565b60018054604080518082018252601981526000805160206111e5833981519152602080830191909152600080548451600261010098831615989098026000190190911696909604601f81018390048302870183019094528386526001600160a01b03909416331494610dc394929390929183018282801561041a5780601f106103ef5761010080835404028352916020019161041a565b90610e0f5760405162461bcd60e51b815260206004820181815283516024840152835190928392604490910191908501908083836000831561047b578181015183820152602001610463565b506003546040516001600160a01b038084169216907f85a70e3ed8a3924b3769cbe4e925987bbd40e8cea31487cbe13bee7b727310a490600090a3600380546001600160a01b0319166001600160a01b0392909216919091179055565b600080610e776111d5565b6001600160a01b031663c9280f0685856040518363ffffffff1660e01b81526004018083815260200182815260200192505050604080518083038186803b158015610ec157600080fd5b505afa158015610ed5573d6000803e3d6000fd5b505050506040513d6040811015610eeb57600080fd5b508051602090910151909590945092505050565b60018054604080518082018252601981526000805160206111e5833981519152602080830191909152600080548451600261010098831615989098026000190190911696909604601f81018390048302870183019094528386526001600160a01b03909416331494610f9694929390929183018282801561041a5780601f106103ef5761010080835404028352916020019161041a565b90610fe25760405162461bcd60e51b815260206004820181815283516024840152835190928392604490910191908501908083836000831561047b578181015183820152602001610463565b5060006001600160a01b0316816001600160a01b03161415611071604051806060016040528060218152602001611205602191396000805460408051602060026001851615610100026000190190941693909304601f8101849004840282018401909252818152929183018282801561041a5780601f106103ef5761010080835404028352916020019161041a565b906110bd5760405162461bcd60e51b815260206004820181815283516024840152835190928392604490910191908501908083836000831561047b578181015183820152602001610463565b506002546040516001600160a01b038084169216907f605c2dbf762e5f7d60a546d42e7205dcb1b011ebc62a61736a57c9089d3a435090600090a3600280546001600160a01b0319166001600160a01b0392909216919091179055565b606082826040516020018083805190602001908083835b602083106111505780518252601f199092019160209182019101611131565b51815160209384036101000a600019018019909216911617905285519190930192850191508083835b602083106111985780518252601f199092019160209182019101611179565b6001836020036101000a03801982511681845116808217855250505050505090500192505050604051602081830303815290604052905092915050565b60006111df610b0b565b90509056fe3a2063616c6c6572206973206e6f7420746865206f776e6572000000000000003a206e6577206d616e6167657220697320746865207a65726f206164647265737353796e7468784f7261636c653a20617373657420616e64207072696365206c656e677468206d69736d617463683a2063616c6c6572206973206e6f7420746865206d616e61676572206f7220746865206f776e6572a265627a7a723158202ab13eb779fa483d4d0806f67a254c2bf7c5a6a715895eb988361687707aa0b564736f6c63430005110032",
  "source": "pragma solidity ^0.5.17;\n\nimport '../lib/SafeMath.sol';\nimport '../base/ExternalStorable.sol';\nimport '../interfaces/IOracle.sol';\nimport '../interfaces/oracles/ISynthxOracle.sol';\nimport '../interfaces/storages/IOracleStorage.sol';\n\ncontract SynthxOracle is ExternalStorable, IOracle, ISynthxOracle {\n    using SafeMath for uint256;\n\n    constructor() public {\n        contractName = 'SynthxOracle';\n    }\n\n    function Storage() internal view returns (IOracleStorage) {\n        return IOracleStorage(getStorage());\n    }\n\n    function setPrice(bytes32 asset, uint256 price) public allManager {\n        uint256 round = Storage().getRound(asset);\n        (uint256 previousValue, ) = Storage().getPrice(asset, round);\n        emit AssetPriceChanged(asset, round, previousValue, price);\n        Storage().setPrice(asset, price);\n    }\n\n    function setPrices(bytes32[] calldata assets, uint256[] calldata prices) external allManager {\n        require(assets.length == prices.length, 'SynthxOracle: asset and price length mismatch');\n        for (uint256 i = 0; i < assets.length; i++) {\n            setPrice(assets[i], prices[i]);\n        }\n    }\n\n    function getPrice(bytes32 asset)\n        external\n        view\n        returns (\n            uint256 round,\n            uint256 price,\n            uint256 time\n        )\n    {\n        round = Storage().getRound(asset);\n        (price, time) = Storage().getPrice(asset, round);\n    }\n\n    function getPrice(bytes32 asset, uint256 round) external view returns (uint256 price, uint256 time) {\n        (price, time) = Storage().getPrice(asset, round);\n    }\n\n    function getLastRound(bytes32 asset) external view returns (uint256) {\n        return Storage().getRound(asset);\n    }\n}\n",
  "sourcePath": "/Users/sun/go/src/github.com/Dipper-Labs/DIPSYN/contracts/oracles/SynthxOracle.sol",
  "compiler": {
    "name": "solc",
    "version": "0.5.17+commit.d19bba13.Emscripten.clang"
  },
  "schemaVersion": "3.3.4",
  "updatedAt": "2021-04-21T04:08:14.084Z",
  "devdoc": {
    "methods": {}
  },
  "userdoc": {
    "methods": {}
  }
}