{
  "contractName": "SynthxToken",
  "abi": [
    {
      "anonymous": false,
      "inputs": [
        {
          "indexed": true,
          "internalType": "address",
          "name": "owner",
          "type": "address"
        },
        {
          "indexed": true,
          "internalType": "address",
          "name": "spender",
          "type": "address"
        },
        {
          "indexed": false,
          "internalType": "uint256",
          "name": "value",
          "type": "uint256"
        }
      ],
      "name": "Approval",
      "type": "event"
    },
    {
      "anonymous": false,
      "inputs": [
        {
          "indexed": true,
          "internalType": "address",
          "name": "previousValue",
          "type": "address"
        },
        {
          "indexed": true,
          "internalType": "address",
          "name": "newValue",
          "type": "address"
        }
      ],
      "name": "HolderChanged",
      "type": "event"
    },
    {
      "anonymous": false,
      "inputs": [
        {
          "indexed": true,
          "internalType": "address",
          "name": "previousValue",
          "type": "address"
        },
        {
          "indexed": true,
          "internalType": "address",
          "name": "newValue",
          "type": "address"
        }
      ],
      "name": "ManagerChanged",
      "type": "event"
    },
    {
      "anonymous": false,
      "inputs": [
        {
          "indexed": true,
          "internalType": "address",
          "name": "previousValue",
          "type": "address"
        },
        {
          "indexed": true,
          "internalType": "address",
          "name": "newValue",
          "type": "address"
        }
      ],
      "name": "OwnerChanged",
      "type": "event"
    },
    {
      "anonymous": false,
      "inputs": [
        {
          "indexed": true,
          "internalType": "address",
          "name": "previousValue",
          "type": "address"
        },
        {
          "indexed": true,
          "internalType": "address",
          "name": "newValue",
          "type": "address"
        }
      ],
      "name": "StorageChanged",
      "type": "event"
    },
    {
      "anonymous": false,
      "inputs": [
        {
          "indexed": true,
          "internalType": "address",
          "name": "from",
          "type": "address"
        },
        {
          "indexed": true,
          "internalType": "address",
          "name": "to",
          "type": "address"
        },
        {
          "indexed": false,
          "internalType": "uint256",
          "name": "value",
          "type": "uint256"
        }
      ],
      "name": "Transfer",
      "type": "event"
    },
    {
      "constant": true,
      "inputs": [],
      "name": "CROWDSALE_SUPPLY",
      "outputs": [
        {
          "internalType": "uint256",
          "name": "",
          "type": "uint256"
        }
      ],
      "payable": false,
      "stateMutability": "view",
      "type": "function"
    },
    {
      "constant": true,
      "inputs": [
        {
          "internalType": "address",
          "name": "owner",
          "type": "address"
        },
        {
          "internalType": "address",
          "name": "spender",
          "type": "address"
        }
      ],
      "name": "allowance",
      "outputs": [
        {
          "internalType": "uint256",
          "name": "",
          "type": "uint256"
        }
      ],
      "payable": false,
      "stateMutability": "view",
      "type": "function"
    },
    {
      "constant": false,
      "inputs": [
        {
          "internalType": "address",
          "name": "spender",
          "type": "address"
        },
        {
          "internalType": "uint256",
          "name": "amount",
          "type": "uint256"
        }
      ],
      "name": "approve",
      "outputs": [
        {
          "internalType": "bool",
          "name": "",
          "type": "bool"
        }
      ],
      "payable": false,
      "stateMutability": "nonpayable",
      "type": "function"
    },
    {
      "constant": true,
      "inputs": [
        {
          "internalType": "address",
          "name": "account",
          "type": "address"
        }
      ],
      "name": "balanceOf",
      "outputs": [
        {
          "internalType": "uint256",
          "name": "",
          "type": "uint256"
        }
      ],
      "payable": false,
      "stateMutability": "view",
      "type": "function"
    },
    {
      "constant": true,
      "inputs": [],
      "name": "contractName",
      "outputs": [
        {
          "internalType": "string",
          "name": "",
          "type": "string"
        }
      ],
      "payable": false,
      "stateMutability": "view",
      "type": "function"
    },
    {
      "constant": true,
      "inputs": [],
      "name": "decimals",
      "outputs": [
        {
          "internalType": "uint8",
          "name": "",
          "type": "uint8"
        }
      ],
      "payable": false,
      "stateMutability": "view",
      "type": "function"
    },
    {
      "constant": true,
      "inputs": [
        {
          "internalType": "address",
          "name": "account",
          "type": "address"
        }
      ],
      "name": "getLocked",
      "outputs": [
        {
          "internalType": "uint256",
          "name": "",
          "type": "uint256"
        }
      ],
      "payable": false,
      "stateMutability": "view",
      "type": "function"
    },
    {
      "constant": true,
      "inputs": [],
      "name": "getStorage",
      "outputs": [
        {
          "internalType": "address",
          "name": "",
          "type": "address"
        }
      ],
      "payable": false,
      "stateMutability": "view",
      "type": "function"
    },
    {
      "constant": true,
      "inputs": [],
      "name": "getTotalLocked",
      "outputs": [
        {
          "internalType": "uint256",
          "name": "",
          "type": "uint256"
        }
      ],
      "payable": false,
      "stateMutability": "view",
      "type": "function"
    },
    {
      "constant": true,
      "inputs": [],
      "name": "holder",
      "outputs": [
        {
          "internalType": "contract IHolder",
          "name": "",
          "type": "address"
        }
      ],
      "payable": false,
      "stateMutability": "view",
      "type": "function"
    },
    {
      "constant": false,
      "inputs": [
        {
          "internalType": "address",
          "name": "account",
          "type": "address"
        },
        {
          "internalType": "uint256",
          "name": "amount",
          "type": "uint256"
        }
      ],
      "name": "lock",
      "outputs": [
        {
          "internalType": "bool",
          "name": "",
          "type": "bool"
        }
      ],
      "payable": false,
      "stateMutability": "nonpayable",
      "type": "function"
    },
    {
      "constant": true,
      "inputs": [],
      "name": "manager",
      "outputs": [
        {
          "internalType": "address",
          "name": "",
          "type": "address"
        }
      ],
      "payable": false,
      "stateMutability": "view",
      "type": "function"
    },
    {
      "constant": true,
      "inputs": [],
      "name": "name",
      "outputs": [
        {
          "internalType": "string",
          "name": "",
          "type": "string"
        }
      ],
      "payable": false,
      "stateMutability": "view",
      "type": "function"
    },
    {
      "constant": true,
      "inputs": [],
      "name": "owner",
      "outputs": [
        {
          "internalType": "address",
          "name": "",
          "type": "address"
        }
      ],
      "payable": false,
      "stateMutability": "view",
      "type": "function"
    },
    {
      "constant": true,
      "inputs": [],
      "name": "resolver",
      "outputs": [
        {
          "internalType": "contract IResolver",
          "name": "",
          "type": "address"
        }
      ],
      "payable": false,
      "stateMutability": "view",
      "type": "function"
    },
    {
      "constant": false,
      "inputs": [
        {
          "internalType": "address",
          "name": "_holder",
          "type": "address"
        }
      ],
      "name": "setHolder",
      "outputs": [],
      "payable": false,
      "stateMutability": "nonpayable",
      "type": "function"
    },
    {
      "constant": false,
      "inputs": [
        {
          "internalType": "address",
          "name": "_manager",
          "type": "address"
        }
      ],
      "name": "setManager",
      "outputs": [],
      "payable": false,
      "stateMutability": "nonpayable",
      "type": "function"
    },
    {
      "constant": false,
      "inputs": [
        {
          "internalType": "address",
          "name": "_owner",
          "type": "address"
        }
      ],
      "name": "setOwner",
      "outputs": [],
      "payable": false,
      "stateMutability": "nonpayable",
      "type": "function"
    },
    {
      "constant": false,
      "inputs": [
        {
          "internalType": "address",
          "name": "value",
          "type": "address"
        }
      ],
      "name": "setStorage",
      "outputs": [],
      "payable": false,
      "stateMutability": "nonpayable",
      "type": "function"
    },
    {
      "constant": true,
      "inputs": [],
      "name": "symbol",
      "outputs": [
        {
          "internalType": "string",
          "name": "",
          "type": "string"
        }
      ],
      "payable": false,
      "stateMutability": "view",
      "type": "function"
    },
    {
      "constant": true,
      "inputs": [],
      "name": "totalSupply",
      "outputs": [
        {
          "internalType": "uint256",
          "name": "",
          "type": "uint256"
        }
      ],
      "payable": false,
      "stateMutability": "view",
      "type": "function"
    },
    {
      "constant": false,
      "inputs": [
        {
          "internalType": "address",
          "name": "recipient",
          "type": "address"
        },
        {
          "internalType": "uint256",
          "name": "amount",
          "type": "uint256"
        }
      ],
      "name": "transfer",
      "outputs": [
        {
          "internalType": "bool",
          "name": "",
          "type": "bool"
        }
      ],
      "payable": false,
      "stateMutability": "nonpayable",
      "type": "function"
    },
    {
      "constant": false,
      "inputs": [
        {
          "internalType": "address",
          "name": "sender",
          "type": "address"
        },
        {
          "internalType": "address",
          "name": "recipient",
          "type": "address"
        },
        {
          "internalType": "uint256",
          "name": "amount",
          "type": "uint256"
        }
      ],
      "name": "transferFrom",
      "outputs": [
        {
          "internalType": "bool",
          "name": "",
          "type": "bool"
        }
      ],
      "payable": false,
      "stateMutability": "nonpayable",
      "type": "function"
    },
    {
      "constant": false,
      "inputs": [
        {
          "internalType": "address",
          "name": "account",
          "type": "address"
        },
        {
          "internalType": "uint256",
          "name": "amount",
          "type": "uint256"
        }
      ],
      "name": "unlock",
      "outputs": [
        {
          "internalType": "bool",
          "name": "",
          "type": "bool"
        }
      ],
      "payable": false,
      "stateMutability": "nonpayable",
      "type": "function"
    },
    {
      "constant": false,
      "inputs": [
        {
          "internalType": "contract IResolver",
          "name": "_resolver",
          "type": "address"
        }
      ],
      "name": "initialize",
      "outputs": [
        {
          "internalType": "bool",
          "name": "",
          "type": "bool"
        }
      ],
      "payable": false,
      "stateMutability": "nonpayable",
      "type": "function"
    },
    {
      "constant": false,
      "inputs": [],
      "name": "resetManager",
      "outputs": [],
      "payable": false,
      "stateMutability": "nonpayable",
      "type": "function"
    },
    {
      "constant": false,
      "inputs": [],
      "name": "mint",
      "outputs": [
        {
          "internalType": "bool",
          "name": "",
          "type": "bool"
        }
      ],
      "payable": false,
      "stateMutability": "nonpayable",
      "type": "function"
    },
    {
      "constant": false,
      "inputs": [
        {
          "internalType": "address",
          "name": "from",
          "type": "address"
        },
        {
          "internalType": "address",
          "name": "to",
          "type": "address"
        }
      ],
      "name": "migrate",
      "outputs": [
        {
          "internalType": "bool",
          "name": "",
          "type": "bool"
        }
      ],
      "payable": false,
      "stateMutability": "nonpayable",
      "type": "function"
    }
  ],
  "bytecode": "0x608060405260018054336001600160a01b03199182168117909255600280549091169091179055613623806100356000396000f3fe608060405234801561001057600080fd5b50600436106101545760003560e01c806304f3bcec1461015957806306fdde031461017d578063095ea7b3146101fa5780631068361f1461023a5780631249c58b1461026857806313af40351461027057806318160ddd1461029857806323b872dd146102b2578063282d3fdf146102e8578063313ce567146103145780633408f73a14610332578063481c6a751461033a57806356ad9f571461034257806370a082311461034a57806375d0c0dc146103705780637eee288d146103785780638da5cb5b146103a45780639137c1a7146103ac57806395d89b41146103d2578063a432578e146103da578063a9059cbb146103e2578063bc22fd1b1461040e578063c4d66de814610434578063d0ebdbe71461045a578063d979f5aa14610480578063dd62ed3e146104a6578063e534155d146104d4578063f4732da6146104dc575b600080fd5b6101616104e4565b604080516001600160a01b039092168252519081900360200190f35b6101856104f3565b6040805160208082528351818301528351919283929083019185019080838360005b838110156101bf5781810151838201526020016101a7565b50505050905090810190601f1680156101ec5780820380516001836020036101000a031916815260200191505b509250505060405180910390f35b6102266004803603604081101561021057600080fd5b506001600160a01b0381351690602001356106dd565b604080519115158252519081900360200190f35b6102266004803603604081101561025057600080fd5b506001600160a01b03813581169160200135166107d1565b610226610943565b6102966004803603602081101561028657600080fd5b50356001600160a01b0316610cb4565b005b6102a0610ee1565b60408051918252519081900360200190f35b610226600480360360608110156102c857600080fd5b506001600160a01b03813581169160208101359091169060400135611051565b610226600480360360408110156102fe57600080fd5b506001600160a01b03813516906020013561127b565b61031c6115a2565b6040805160ff9092168252519081900360200190f35b610161611688565b61016161177e565b6102a061178d565b6102a06004803603602081101561036057600080fd5b50356001600160a01b031661179c565b61018561191c565b6102266004803603604081101561038e57600080fd5b506001600160a01b0381351690602001356119aa565b610161611dba565b610296600480360360208110156103c257600080fd5b50356001600160a01b0316611dc9565b610185611f09565b610296612042565b610226600480360360408110156103f857600080fd5b506001600160a01b038135169060200135612234565b6102a06004803603602081101561042457600080fd5b50356001600160a01b0316612337565b6102266004803603602081101561044a57600080fd5b50356001600160a01b0316612484565b6102966004803603602081101561047057600080fd5b50356001600160a01b0316612613565b6102966004803603602081101561049657600080fd5b50356001600160a01b031661282e565b6102a0600480360360408110156104bc57600080fd5b506001600160a01b0381358116916020013516612a58565b610161612bc5565b6102a0612bd4565b6007546001600160a01b031681565b60028054604080518082018252601881526000805160206135658339815191526020808301919091526000805484516101006001831615026000190190911696909604601f8101839004830287018301909452838652606095600160a01b90950460ff16946105c29490928301828280156105af5780601f10610584576101008083540402835291602001916105af565b820191906000526020600020905b81548152906001019060200180831161059257829003601f168201915b5050505050612d2f90919063ffffffff16565b9061064b5760405162461bcd60e51b81526004018080602001828103825283818151815260200191508051906020019080838360005b838110156106105781810151838201526020016105f8565b50505050905090810190601f16801561063d5780820380516001836020036101000a031916815260200191505b509250505060405180910390fd5b506004805460408051602060026001851615610100026000190190941693909304601f810184900484028201840190925281815292918301828280156106d25780601f106106a7576101008083540402835291602001916106d2565b820191906000526020600020905b8154815290600101906020018083116106b557829003601f168201915b505050505090505b90565b60028054604080518082018252601881526000805160206135658339815191526020808301919091526000805484516101006001831615026000190190911696909604601f810183900483028701830190945283865294600160a01b90940460ff169361076f9390918691908301828280156105af5780601f10610584576101008083540402835291602001916105af565b906107bb5760405162461bcd60e51b81526020600482018181528351602484015283519092839260449091019190850190808383600083156106105781810151838201526020016105f8565b506107c7338484612dea565b5060015b92915050565b60028054604080518082018252601881526000805160206135658339815191526020808301919091526000805484516101006001831615026000190190911696909604601f810183900483028701830190945283865294600160a01b90940460ff16936108639390918691908301828280156105af5780601f10610584576101008083540402835291602001916105af565b906108af5760405162461bcd60e51b81526020600482018181528351602484015283519092839260449091019190850190808383600083156106105781810151838201526020016105f8565b506007546001600160a01b031633146108f95760405162461bcd60e51b81526004018080602001828103825260278152602001806135c86027913960400191505060405180910390fd5b60006109048461179c565b9050806109155760019150506107cb565b6109398484836040518060600160405280602b815260200161353a602b9139612eac565b5060019392505050565b60028054604080518082018252601881526000805160206135658339815191526020808301919091526000805484516101006001831615026000190190911696909604601f810183900483028701830190945283865294600160a01b90940460ff16936109d59390918691908301828280156105af5780601f10610584576101008083540402835291602001916105af565b90610a215760405162461bcd60e51b81526020600482018181528351602484015283519092839260449091019190850190808383600083156106105781810151838201526020016105f8565b50600754604080516321f8a72160e01b81526d537570706c795363686564756c6560901b600482015290516000926001600160a01b0316916321f8a721916024808301926020929190829003018186803b158015610a7e57600080fd5b505afa158015610a92573d6000803e3d6000fd5b505050506040513d6020811015610aa857600080fd5b505190506001600160a01b038116610ac45760009150506106da565b606080826001600160a01b0316635486dfb36040518163ffffffff1660e01b8152600401600060405180830381600087803b158015610b0257600080fd5b505af1158015610b16573d6000803e3d6000fd5b505050506040513d6000823e601f3d908101601f191682016040908152811015610b3f57600080fd5b8101908080516040519392919084600160201b821115610b5e57600080fd5b908301906020820185811115610b7357600080fd5b82518660208202830111600160201b82111715610b8f57600080fd5b82525081516020918201928201910280838360005b83811015610bbc578181015183820152602001610ba4565b5050505090500160405260200180516040519392919084600160201b821115610be457600080fd5b908301906020820185811115610bf957600080fd5b82518660208202830111600160201b82111715610c1557600080fd5b82525081516020918201928201910280838360005b83811015610c42578181015183820152602001610c2a565b505050509050016040525050509150915060008090505b8251811015610ca9576000828281518110610c7057fe5b602002602001015190506000811115610ca057610ca0848381518110610c9257fe5b602002602001015182613106565b50600101610c59565b506001935050505090565b60018054604080518082018252601981526000805160206134ad833981519152602080830191909152600080548451600261010098831615989098026000190190911696909604601f81018390048302870183019094528386526001600160a01b03909416331494610d4b9492939092918301828280156105af5780601f10610584576101008083540402835291602001916105af565b90610d975760405162461bcd60e51b81526020600482018181528351602484015283519092839260449091019190850190808383600083156106105781810151838201526020016105f8565b50604080518082018252601f8082527f3a206e6577206f776e657220697320746865207a65726f206164647265737300602080840191909152600080548551600260001961010060018516150201909216919091049384018390048302810183019095528285526001600160a01b038616151594610e38949390928301828280156105af5780601f10610584576101008083540402835291602001916105af565b90610e845760405162461bcd60e51b81526020600482018181528351602484015283519092839260449091019190850190808383600083156106105781810151838201526020016105f8565b506001546040516001600160a01b038084169216907fb532073b38c83145e3e5135377a08bf9aab55bc0fd7c1179cd4fb995d2a5159c90600090a3600180546001600160a01b0319166001600160a01b0392909216919091179055565b60028054604080518082018252601881526000805160206135658339815191526020808301919091526000805484516101006001831615026000190190911696909604601f810183900483028701830190945283865294600160a01b90940460ff1693610f739390918691908301828280156105af5780601f10610584576101008083540402835291602001916105af565b90610fbf5760405162461bcd60e51b81526020600482018181528351602484015283519092839260449091019190850190808383600083156106105781810151838201526020016105f8565b50610fc8613283565b6040805163e024403560e01b815264151bdd185b60da1b60048201526000602482015290516001600160a01b03929092169163e024403591604480820192602092909190829003018186803b15801561102057600080fd5b505afa158015611034573d6000803e3d6000fd5b505050506040513d602081101561104a57600080fd5b5051905090565b60028054604080518082018252601881526000805160206135658339815191526020808301919091526000805484516101006001831615026000190190911696909604601f810183900483028701830190945283865294600160a01b90940460ff16936110e39390918691908301828280156105af5780601f10610584576101008083540402835291602001916105af565b9061112f5760405162461bcd60e51b81526020600482018181528351602484015283519092839260449091019190850190808383600083156106105781810151838201526020016105f8565b506111548484846040518060600160405280602181526020016134ee60219139612eac565b6000611263836111d16040518060600160405280602381526020016135a5602391396000805460408051602060026001851615610100026000190190941693909304601f810184900484028201840190925281815292918301828280156105af5780601f10610584576101008083540402835291602001916105af565b6111d9613283565b60408051630af4187d60e01b81526001600160a01b038b8116600483015233602483015291519290911691630af4187d91604480820192602092909190829003018186803b15801561122a57600080fd5b505afa15801561123e573d6000803e3d6000fd5b505050506040513d602081101561125457600080fd5b5051919063ffffffff61328d16565b9050611270853383612dea565b506001949350505050565b60028054604080518082018252601881526000805160206135658339815191526020808301919091526000805484516101006001831615026000190190911696909604601f810183900483028701830190945283865294600160a01b90940460ff169361130d9390918691908301828280156105af5780601f10610584576101008083540402835291602001916105af565b906113595760405162461bcd60e51b81526020600482018181528351602484015283519092839260449091019190850190808383600083156106105781810151838201526020016105f8565b50600654604080518082018252601a8152791d1031b0b63632b91034b9903737ba103a3432902437b63232b960311b60208083019190915260008054845160026101006001841615026000190190921691909104601f81018490048402820184019095528481526001600160a01b039095163314946113fa9490928301828280156105af5780601f10610584576101008083540402835291602001916105af565b906114465760405162461bcd60e51b81526020600482018181528351602484015283519092839260449091019190850190808383600083156106105781810151838201526020016105f8565b5061150083600660009054906101000a90046001600160a01b03166001600160a01b031663476323826040518163ffffffff1660e01b815260040160206040518083038186803b15801561149957600080fd5b505afa1580156114ad573d6000803e3d6000fd5b505050506040513d60208110156114c357600080fd5b505160408051808201909152601d81527f3a206c6f636b20616d6f756e7420657863656564732062616c616e636500000060208201528590612eac565b611508613283565b6001600160a01b0316636c56a62865131bd8dad95960d21b85856040518463ffffffff1660e01b815260040180848152602001836001600160a01b03166001600160a01b031681526020018281526020019350505050602060405180830381600087803b15801561157857600080fd5b505af115801561158c573d6000803e3d6000fd5b505050506040513d602081101561127057600080fd5b60028054604080518082018252601881526000805160206135658339815191526020808301919091526000805484516101006001831615026000190190911696909604601f810183900483028701830190945283865294600160a01b90940460ff16936116349390918691908301828280156105af5780601f10610584576101008083540402835291602001916105af565b906116805760405162461bcd60e51b81526020600482018181528351602484015283519092839260449091019190850190808383600083156106105781810151838201526020016105f8565b506012905090565b60035460408051808201825260118152700e8814dd1bdc9859d9481b9bdd081cd95d607a1b60208083019190915260008054845160026101006001841615026000190190921691909104601f810184900484028201840190955284815290946001600160a01b031615159361172193928691908301828280156105af5780601f10610584576101008083540402835291602001916105af565b9061176d5760405162461bcd60e51b81526020600482018181528351602484015283519092839260449091019190850190808383600083156106105781810151838201526020016105f8565b50506003546001600160a01b031690565b6002546001600160a01b031681565b6a084595161401484a00000081565b60028054604080518082018252601881526000805160206135658339815191526020808301919091526000805484516101006001831615026000190190911696909604601f810183900483028701830190945283865294600160a01b90940460ff169361182e9390918691908301828280156105af5780601f10610584576101008083540402835291602001916105af565b9061187a5760405162461bcd60e51b81526020600482018181528351602484015283519092839260449091019190850190808383600083156106105781810151838201526020016105f8565b50611883613283565b6001600160a01b031663e02440356642616c616e636560c81b846040518363ffffffff1660e01b815260040180838152602001826001600160a01b03166001600160a01b031681526020019250505060206040518083038186803b1580156118ea57600080fd5b505afa1580156118fe573d6000803e3d6000fd5b505050506040513d602081101561191457600080fd5b505192915050565b6000805460408051602060026001851615610100026000190190941693909304601f810184900484028201840190925281815292918301828280156119a25780601f10611977576101008083540402835291602001916119a2565b820191906000526020600020905b81548152906001019060200180831161198557829003601f168201915b505050505081565b60028054604080518082018252601881526000805160206135658339815191526020808301919091526000805484516101006001831615026000190190911696909604601f810183900483028701830190945283865294600160a01b90940460ff1693611a3c9390918691908301828280156105af5780601f10610584576101008083540402835291602001916105af565b90611a885760405162461bcd60e51b81526020600482018181528351602484015283519092839260449091019190850190808383600083156106105781810151838201526020016105f8565b50600654604080518082018252601a8152791d1031b0b63632b91034b9903737ba103a3432902437b63232b960311b60208083019190915260008054845160026101006001841615026000190190921691909104601f81018490048402820184019095528481526001600160a01b03909516331494611b299490928301828280156105af5780601f10610584576101008083540402835291602001916105af565b90611b755760405162461bcd60e51b81526020600482018181528351602484015283519092839260449091019190850190808383600083156106105781810151838201526020016105f8565b50611b7e613283565b6001600160a01b031663182505f065131bd8dad95960d21b8585611c3c6040518060400160405280601e81526020017f3a20756e6c6f636b20616d6f756e742065786365656473206c6f636b6564000081525060008054600181600116156101000203166002900480601f0160208091040260200160405190810160405280929190818152602001828054600181600116156101000203166002900480156105af5780601f10610584576101008083540402835291602001916105af565b6040518563ffffffff1660e01b815260040180858152602001846001600160a01b03166001600160a01b0316815260200183815260200180602001828103825283818151815260200191508051906020019080838360005b83811015611cac578181015183820152602001611c94565b50505050905090810190601f168015611cd95780820380516001836020036101000a031916815260200191505b5095505050505050602060405180830381600087803b158015611cfb57600080fd5b505af1158015611d0f573d6000803e3d6000fd5b505050506040513d6020811015611d2557600080fd5b5050600654604080516323b191c160e11b815290516107c7926001600160a01b0316916347632382916004808301926020929190829003018186803b158015611d6d57600080fd5b505afa158015611d81573d6000803e3d6000fd5b505050506040513d6020811015611d9757600080fd5b50516040805160608101909152602b8082528691869161350f6020830139612eac565b6001546001600160a01b031681565b60018054604080518082018252601981526000805160206134ad833981519152602080830191909152600080548451600261010098831615989098026000190190911696909604601f81018390048302870183019094528386526001600160a01b03909416331494611e609492939092918301828280156105af5780601f10610584576101008083540402835291602001916105af565b90611eac5760405162461bcd60e51b81526020600482018181528351602484015283519092839260449091019190850190808383600083156106105781810151838201526020016105f8565b506003546040516001600160a01b038084169216907f85a70e3ed8a3924b3769cbe4e925987bbd40e8cea31487cbe13bee7b727310a490600090a3600380546001600160a01b0319166001600160a01b0392909216919091179055565b60028054604080518082018252601881526000805160206135658339815191526020808301919091526000805484516101006001831615026000190190911696909604601f8101839004830287018301909452838652606095600160a01b90950460ff1694611f9a9490928301828280156105af5780601f10610584576101008083540402835291602001916105af565b90611fe65760405162461bcd60e51b81526020600482018181528351602484015283519092839260449091019190850190808383600083156106105781810151838201526020016105f8565b506005805460408051602060026001851615610100026000190190941693909304601f810184900484028201840190925281815292918301828280156106d25780601f106106a7576101008083540402835291602001916106d2565b60018054604080518082018252601981526000805160206134ad833981519152602080830191909152600080548451600261010098831615989098026000190190911696909604601f81018390048302870183019094528386526001600160a01b039094163314946120d99492939092918301828280156105af5780601f10610584576101008083540402835291602001916105af565b906121255760405162461bcd60e51b81526020600482018181528351602484015283519092839260449091019190850190808383600083156106105781810151838201526020016105f8565b50600754604080516321f8a72160e01b81526524b9b9bab2b960d11b600482015290516121ac926001600160a01b0316916321f8a721916024808301926020929190829003018186803b15801561217b57600080fd5b505afa15801561218f573d6000803e3d6000fd5b505050506040513d60208110156121a557600080fd5b5051612613565b600754604080516321f8a72160e01b8152652437b63232b960d11b60048201529051612232926001600160a01b0316916321f8a721916024808301926020929190829003018186803b15801561220157600080fd5b505afa158015612215573d6000803e3d6000fd5b505050506040513d602081101561222b57600080fd5b505161282e565b565b60028054604080518082018252601881526000805160206135658339815191526020808301919091526000805484516101006001831615026000190190911696909604601f810183900483028701830190945283865294600160a01b90940460ff16936122c69390918691908301828280156105af5780601f10610584576101008083540402835291602001916105af565b906123125760405162461bcd60e51b81526020600482018181528351602484015283519092839260449091019190850190808383600083156106105781810151838201526020016105f8565b506107c73384846040518060600160405280602181526020016134ee60219139612eac565b60028054604080518082018252601881526000805160206135658339815191526020808301919091526000805484516101006001831615026000190190911696909604601f810183900483028701830190945283865294600160a01b90940460ff16936123c99390918691908301828280156105af5780601f10610584576101008083540402835291602001916105af565b906124155760405162461bcd60e51b81526020600482018181528351602484015283519092839260449091019190850190808383600083156106105781810151838201526020016105f8565b5061241e613283565b6001600160a01b031663e024403565131bd8dad95960d21b846040518363ffffffff1660e01b815260040180838152602001826001600160a01b03166001600160a01b031681526020019250505060206040518083038186803b1580156118ea57600080fd5b60018054604080518082018252601981526000805160206134ad833981519152602080830191909152600080548451600261010098831615989098026000190190911696909604601f8101839004830287018301909452838652946001600160a01b0390941633149361251c9390918691908301828280156105af5780601f10610584576101008083540402835291602001916105af565b906125685760405162461bcd60e51b81526020600482018181528351602484015283519092839260449091019190850190808383600083156106105781810151838201526020016105f8565b506125716132e7565b600780546001600160a01b0319166001600160a01b03841617905560408051808201909152600c8082526b29bcb73a343c102a37b5b2b760a11b60209092019182526125bf91600491613414565b50604080518082019091526004808252630a6b29cb60e31b60209092019182526125eb91600591613414565b506126036a29bcb73a343c2a37b5b2b760a91b6133e5565b61260b612042565b506001919050565b60018054604080518082018252601981526000805160206134ad833981519152602080830191909152600080548451600261010098831615989098026000190190911696909604601f81018390048302870183019094528386526001600160a01b039094163314946126aa9492939092918301828280156105af5780601f10610584576101008083540402835291602001916105af565b906126f65760405162461bcd60e51b81526020600482018181528351602484015283519092839260449091019190850190808383600083156106105781810151838201526020016105f8565b5060006001600160a01b0316816001600160a01b031614156127856040518060600160405280602181526020016134cd602191396000805460408051602060026001851615610100026000190190941693909304601f810184900484028201840190925281815292918301828280156105af5780601f10610584576101008083540402835291602001916105af565b906127d15760405162461bcd60e51b81526020600482018181528351602484015283519092839260449091019190850190808383600083156106105781810151838201526020016105f8565b506002546040516001600160a01b038084169216907f605c2dbf762e5f7d60a546d42e7205dcb1b011ebc62a61736a57c9089d3a435090600090a3600280546001600160a01b0319166001600160a01b0392909216919091179055565b60018054604080518082018252601981526000805160206134ad833981519152602080830191909152600080548451600261010098831615989098026000190190911696909604601f81018390048302870183019094528386526001600160a01b039094163314946128c59492939092918301828280156105af5780601f10610584576101008083540402835291602001916105af565b906129115760405162461bcd60e51b81526020600482018181528351602484015283519092839260449091019190850190808383600083156106105781810151838201526020016105f8565b5060408051808201825260208082527f3a206e657720686f6c64657220697320746865207a65726f20616464726573738183015260008054845160026001831615610100026000190190921691909104601f81018490048402820184019095528481526001600160a01b0386161515946129af94939192918301828280156105af5780601f10610584576101008083540402835291602001916105af565b906129fb5760405162461bcd60e51b81526020600482018181528351602484015283519092839260449091019190850190808383600083156106105781810151838201526020016105f8565b506006546040516001600160a01b038084169216907f076c2af751a37d3871addf9a6fdedbaf3827fb030bf1d04c43a1421420fcc98790600090a3600680546001600160a01b0319166001600160a01b0392909216919091179055565b60028054604080518082018252601881526000805160206135658339815191526020808301919091526000805484516101006001831615026000190190911696909604601f810183900483028701830190945283865294600160a01b90940460ff1693612aea9390918691908301828280156105af5780601f10610584576101008083540402835291602001916105af565b90612b365760405162461bcd60e51b81526020600482018181528351602484015283519092839260449091019190850190808383600083156106105781810151838201526020016105f8565b50612b3f613283565b60408051630af4187d60e01b81526001600160a01b038681166004830152858116602483015291519290911691630af4187d91604480820192602092909190829003018186803b158015612b9257600080fd5b505afa158015612ba6573d6000803e3d6000fd5b505050506040513d6020811015612bbc57600080fd5b50519392505050565b6006546001600160a01b031681565b60028054604080518082018252601881526000805160206135658339815191526020808301919091526000805484516101006001831615026000190190911696909604601f810183900483028701830190945283865294600160a01b90940460ff1693612c669390918691908301828280156105af5780601f10610584576101008083540402835291602001916105af565b90612cb25760405162461bcd60e51b81526020600482018181528351602484015283519092839260449091019190850190808383600083156106105781810151838201526020016105f8565b50600654604080516323b191c160e11b81529051612d2a926001600160a01b0316916347632382916004808301926020929190829003018186803b158015612cf957600080fd5b505afa158015612d0d573d6000803e3d6000fd5b505050506040513d6020811015612d2357600080fd5b505161179c565b905090565b606082826040516020018083805190602001908083835b60208310612d655780518252601f199092019160209182019101612d46565b51815160209384036101000a600019018019909216911617905285519190930192850191508083835b60208310612dad5780518252601f199092019160209182019101612d8e565b6001836020036101000a03801982511681845116808217855250505050505090500192505050604051602081830303815290604052905092915050565b612df2613283565b60408051633691826360e21b81526001600160a01b0386811660048301528581166024830152604482018590529151929091169163da46098c9160648082019260009290919082900301818387803b158015612e4d57600080fd5b505af1158015612e61573d6000803e3d6000fd5b50506040805184815290516001600160a01b038087169450871692507f8c5be1e5ebec7d5bd14f71427d1e84f3dd0314c0f7b2291e5b200ac8c7c3b9259181900360200190a3505050565b612eb4613283565b6001600160a01b031663182505f06642616c616e636560c81b8685612f3e8660008054600181600116156101000203166002900480601f0160208091040260200160405190810160405280929190818152602001828054600181600116156101000203166002900480156105af5780601f10610584576101008083540402835291602001916105af565b6040518563ffffffff1660e01b815260040180858152602001846001600160a01b03166001600160a01b0316815260200183815260200180602001828103825283818151815260200191508051906020019080838360005b83811015612fae578181015183820152602001612f96565b50505050905090810190601f168015612fdb5780820380516001836020036101000a031916815260200191505b5095505050505050602060405180830381600087803b158015612ffd57600080fd5b505af1158015613011573d6000803e3d6000fd5b505050506040513d602081101561302757600080fd5b506130329050613283565b6001600160a01b0316636c56a6286642616c616e636560c81b85856040518463ffffffff1660e01b815260040180848152602001836001600160a01b03166001600160a01b031681526020018281526020019350505050602060405180830381600087803b1580156130a357600080fd5b505af11580156130b7573d6000803e3d6000fd5b505050506040513d60208110156130cd57600080fd5b50506040805183815290516001600160a01b0380861692908716916000805160206135858339815191529181900360200190a350505050565b61310e613283565b6001600160a01b0316636c56a6286642616c616e636560c81b84846040518463ffffffff1660e01b815260040180848152602001836001600160a01b03166001600160a01b031681526020018281526020019350505050602060405180830381600087803b15801561317f57600080fd5b505af1158015613193573d6000803e3d6000fd5b505050506040513d60208110156131a957600080fd5b506131b49050613283565b6001600160a01b0316636c56a62864151bdd185b60da1b6000846040518463ffffffff1660e01b815260040180848152602001836001600160a01b03166001600160a01b031681526020018281526020019350505050602060405180830381600087803b15801561322457600080fd5b505af1158015613238573d6000803e3d6000fd5b505050506040513d602081101561324e57600080fd5b50506040805182815290516001600160a01b038416916000916000805160206135858339815191529181900360200190a35050565b6000612d2a611688565b600081848411156132df5760405162461bcd60e51b81526020600482018181528351602484015283519092839260449091019190850190808383600083156106105781810151838201526020016105f8565b505050900390565b6002805460408051808201825260158152740e88185b1c9958591e481a5b9a5d1a585b1a5e9959605a1b6020808301919091526000805484516101006001831615026000190190911696909604601f8101839004830287018301909452838652600160a01b90940460ff1615946133839492939092918301828280156105af5780601f10610584576101008083540402835291602001916105af565b906133cf5760405162461bcd60e51b81526020600482018181528351602484015283519092839260449091019190850190808383600083156106105781810151838201526020016105f8565b506002805460ff60a01b1916600160a01b179055565b6040805160208082018490528251808303820181529183019092528051613410926000920190613414565b5050565b828054600181600116156101000203166002900490600052602060002090601f016020900481019282601f1061345557805160ff1916838001178555613482565b82800160010185558215613482579182015b82811115613482578251825591602001919060010190613467565b5061348e929150613492565b5090565b6106da91905b8082111561348e576000815560010161349856fe3a2063616c6c6572206973206e6f7420746865206f776e6572000000000000003a206e6577206d616e6167657220697320746865207a65726f20616464726573733a207472616e7366657220616d6f756e7420657863656564732062616c616e63653a20756e6c6f636b20616d6f756e742065786365656473206c6f636b416464726573732062616c616e636553796e746878546f6b656e3a206d69677261746520616d6f756e7420657863656564732062616c616e63653a20636f6e747261637420756e696e697469616c697a65640000000000000000ddf252ad1be2c89b69c2b068fc378daa952ba7f163c4a11628f55a4df523b3ef3a207472616e7366657220616d6f756e74206578636565647320616c6c6f77616e636553796e746878546f6b656e3a2063616c6c6572206973206e6f7420746865205265736f6c766572a265627a7a72315820f5c102be2957638c1a677d61652d3fd30a567aad5d5af1c82dae2a6fc596808564736f6c63430005110032",
  "source": "// SPDX-License-Identifier: MIT\npragma solidity ^0.5.17;\n\nimport './base/TokenLockable.sol';\nimport './interfaces/ISynthxToken.sol';\nimport './interfaces/ISupplySchedule.sol';\nimport './interfaces/IIssuer.sol';\nimport './interfaces/IResolver.sol';\n\ncontract SynthxToken is TokenLockable, ISynthxToken {\n    uint256 public constant CROWDSALE_SUPPLY = 1000E22;\n\n    IResolver public resolver;\n\n    modifier onlyResolver() {\n        require(msg.sender == address(resolver), 'SynthxToken: caller is not the Resolver');\n        _;\n    }\n\n    function initialize(IResolver _resolver) external onlyOwner returns (bool) {\n        setInitialized();\n        resolver = _resolver;\n        _name = 'Synthx Token';\n        _symbol = 'SYNX';\n        setContractName(CONTRACT_SYNTHX_TOKEN);\n        resetManager();\n        return true;\n    }\n\n    function resetManager() public onlyOwner {\n        setManager(resolver.getAddress(CONTRACT_ISSUER));\n        setHolder(resolver.getAddress(CONTRACT_HOLDER));\n    }\n\n    function mint() external onlyInitialized returns (bool) {\n        address supplySchedule = resolver.getAddress(CONTRACT_SUPPLY_SCHEDULE);\n        if (supplySchedule == address(0)) return false;\n        (address[] memory recipients, uint256[] memory amounts) = ISupplySchedule(supplySchedule).distributeSupply();\n        for (uint256 i = 0; i < recipients.length; i++) {\n            uint256 amount = amounts[i];\n            if (amount > 0) _mint(recipients[i], amount);\n        }\n        return true;\n    }\n\n    function migrate(address from, address to) external onlyInitialized onlyResolver returns (bool) {\n        uint256 amount = balanceOf(from);\n        if (amount == 0) return true;\n        _transfer(from, to, amount, 'SynthxToken: migrate amount exceeds balance');\n        return true;\n    }\n}\n",
  "sourcePath": "/Users/sun/go/src/github.com/Dipper-Labs/DIPSYN/contracts/SynbitToken.sol",
  "compiler": {
    "name": "solc",
    "version": "0.5.17+commit.d19bba13.Emscripten.clang"
  },
  "schemaVersion": "3.3.4",
  "updatedAt": "2021-04-21T04:08:14.023Z",
  "devdoc": {
    "methods": {}
  },
  "userdoc": {
    "methods": {}
  }
}