{
  "contractName": "Synth",
  "abi": [
    {
      "anonymous": false,
      "inputs": [
        {
          "indexed": true,
          "internalType": "address",
          "name": "owner",
          "type": "address"
        },
        {
          "indexed": true,
          "internalType": "address",
          "name": "spender",
          "type": "address"
        },
        {
          "indexed": false,
          "internalType": "uint256",
          "name": "value",
          "type": "uint256"
        }
      ],
      "name": "Approval",
      "type": "event"
    },
    {
      "anonymous": false,
      "inputs": [
        {
          "indexed": true,
          "internalType": "address",
          "name": "previousValue",
          "type": "address"
        },
        {
          "indexed": true,
          "internalType": "address",
          "name": "newValue",
          "type": "address"
        }
      ],
      "name": "ManagerChanged",
      "type": "event"
    },
    {
      "anonymous": false,
      "inputs": [
        {
          "indexed": true,
          "internalType": "address",
          "name": "previousValue",
          "type": "address"
        },
        {
          "indexed": true,
          "internalType": "address",
          "name": "newValue",
          "type": "address"
        }
      ],
      "name": "OwnerChanged",
      "type": "event"
    },
    {
      "anonymous": false,
      "inputs": [
        {
          "indexed": true,
          "internalType": "address",
          "name": "previousValue",
          "type": "address"
        },
        {
          "indexed": true,
          "internalType": "address",
          "name": "newValue",
          "type": "address"
        }
      ],
      "name": "StorageChanged",
      "type": "event"
    },
    {
      "anonymous": false,
      "inputs": [
        {
          "indexed": true,
          "internalType": "address",
          "name": "from",
          "type": "address"
        },
        {
          "indexed": true,
          "internalType": "address",
          "name": "to",
          "type": "address"
        },
        {
          "indexed": false,
          "internalType": "uint256",
          "name": "value",
          "type": "uint256"
        }
      ],
      "name": "Transfer",
      "type": "event"
    },
    {
      "constant": true,
      "inputs": [
        {
          "internalType": "address",
          "name": "owner",
          "type": "address"
        },
        {
          "internalType": "address",
          "name": "spender",
          "type": "address"
        }
      ],
      "name": "allowance",
      "outputs": [
        {
          "internalType": "uint256",
          "name": "",
          "type": "uint256"
        }
      ],
      "payable": false,
      "stateMutability": "view",
      "type": "function"
    },
    {
      "constant": false,
      "inputs": [
        {
          "internalType": "address",
          "name": "spender",
          "type": "address"
        },
        {
          "internalType": "uint256",
          "name": "amount",
          "type": "uint256"
        }
      ],
      "name": "approve",
      "outputs": [
        {
          "internalType": "bool",
          "name": "",
          "type": "bool"
        }
      ],
      "payable": false,
      "stateMutability": "nonpayable",
      "type": "function"
    },
    {
      "constant": true,
      "inputs": [
        {
          "internalType": "address",
          "name": "account",
          "type": "address"
        }
      ],
      "name": "balanceOf",
      "outputs": [
        {
          "internalType": "uint256",
          "name": "",
          "type": "uint256"
        }
      ],
      "payable": false,
      "stateMutability": "view",
      "type": "function"
    },
    {
      "constant": true,
      "inputs": [],
      "name": "contractName",
      "outputs": [
        {
          "internalType": "string",
          "name": "",
          "type": "string"
        }
      ],
      "payable": false,
      "stateMutability": "view",
      "type": "function"
    },
    {
      "constant": true,
      "inputs": [],
      "name": "decimals",
      "outputs": [
        {
          "internalType": "uint8",
          "name": "",
          "type": "uint8"
        }
      ],
      "payable": false,
      "stateMutability": "view",
      "type": "function"
    },
    {
      "constant": true,
      "inputs": [],
      "name": "getStorage",
      "outputs": [
        {
          "internalType": "address",
          "name": "",
          "type": "address"
        }
      ],
      "payable": false,
      "stateMutability": "view",
      "type": "function"
    },
    {
      "constant": true,
      "inputs": [],
      "name": "manager",
      "outputs": [
        {
          "internalType": "address",
          "name": "",
          "type": "address"
        }
      ],
      "payable": false,
      "stateMutability": "view",
      "type": "function"
    },
    {
      "constant": true,
      "inputs": [],
      "name": "name",
      "outputs": [
        {
          "internalType": "string",
          "name": "",
          "type": "string"
        }
      ],
      "payable": false,
      "stateMutability": "view",
      "type": "function"
    },
    {
      "constant": true,
      "inputs": [],
      "name": "owner",
      "outputs": [
        {
          "internalType": "address",
          "name": "",
          "type": "address"
        }
      ],
      "payable": false,
      "stateMutability": "view",
      "type": "function"
    },
    {
      "constant": false,
      "inputs": [
        {
          "internalType": "address",
          "name": "_manager",
          "type": "address"
        }
      ],
      "name": "setManager",
      "outputs": [],
      "payable": false,
      "stateMutability": "nonpayable",
      "type": "function"
    },
    {
      "constant": false,
      "inputs": [
        {
          "internalType": "address",
          "name": "_owner",
          "type": "address"
        }
      ],
      "name": "setOwner",
      "outputs": [],
      "payable": false,
      "stateMutability": "nonpayable",
      "type": "function"
    },
    {
      "constant": false,
      "inputs": [
        {
          "internalType": "address",
          "name": "value",
          "type": "address"
        }
      ],
      "name": "setStorage",
      "outputs": [],
      "payable": false,
      "stateMutability": "nonpayable",
      "type": "function"
    },
    {
      "constant": true,
      "inputs": [],
      "name": "symbol",
      "outputs": [
        {
          "internalType": "string",
          "name": "",
          "type": "string"
        }
      ],
      "payable": false,
      "stateMutability": "view",
      "type": "function"
    },
    {
      "constant": true,
      "inputs": [],
      "name": "totalSupply",
      "outputs": [
        {
          "internalType": "uint256",
          "name": "",
          "type": "uint256"
        }
      ],
      "payable": false,
      "stateMutability": "view",
      "type": "function"
    },
    {
      "constant": false,
      "inputs": [
        {
          "internalType": "address",
          "name": "recipient",
          "type": "address"
        },
        {
          "internalType": "uint256",
          "name": "amount",
          "type": "uint256"
        }
      ],
      "name": "transfer",
      "outputs": [
        {
          "internalType": "bool",
          "name": "",
          "type": "bool"
        }
      ],
      "payable": false,
      "stateMutability": "nonpayable",
      "type": "function"
    },
    {
      "constant": false,
      "inputs": [
        {
          "internalType": "address",
          "name": "sender",
          "type": "address"
        },
        {
          "internalType": "address",
          "name": "recipient",
          "type": "address"
        },
        {
          "internalType": "uint256",
          "name": "amount",
          "type": "uint256"
        }
      ],
      "name": "transferFrom",
      "outputs": [
        {
          "internalType": "bool",
          "name": "",
          "type": "bool"
        }
      ],
      "payable": false,
      "stateMutability": "nonpayable",
      "type": "function"
    },
    {
      "constant": false,
      "inputs": [
        {
          "internalType": "address",
          "name": "issuer",
          "type": "address"
        },
        {
          "internalType": "string",
          "name": "name",
          "type": "string"
        },
        {
          "internalType": "string",
          "name": "symbol",
          "type": "string"
        },
        {
          "internalType": "bytes32",
          "name": "category",
          "type": "bytes32"
        }
      ],
      "name": "initialize",
      "outputs": [
        {
          "internalType": "bool",
          "name": "",
          "type": "bool"
        }
      ],
      "payable": false,
      "stateMutability": "nonpayable",
      "type": "function"
    },
    {
      "constant": true,
      "inputs": [],
      "name": "category",
      "outputs": [
        {
          "internalType": "bytes32",
          "name": "",
          "type": "bytes32"
        }
      ],
      "payable": false,
      "stateMutability": "view",
      "type": "function"
    },
    {
      "constant": false,
      "inputs": [
        {
          "internalType": "address",
          "name": "account",
          "type": "address"
        },
        {
          "internalType": "uint256",
          "name": "amount",
          "type": "uint256"
        }
      ],
      "name": "mint",
      "outputs": [
        {
          "internalType": "bool",
          "name": "",
          "type": "bool"
        }
      ],
      "payable": false,
      "stateMutability": "nonpayable",
      "type": "function"
    },
    {
      "constant": false,
      "inputs": [
        {
          "internalType": "address",
          "name": "account",
          "type": "address"
        },
        {
          "internalType": "uint256",
          "name": "amount",
          "type": "uint256"
        }
      ],
      "name": "burn",
      "outputs": [
        {
          "internalType": "bool",
          "name": "",
          "type": "bool"
        }
      ],
      "payable": false,
      "stateMutability": "nonpayable",
      "type": "function"
    }
  ],
  "bytecode": "0x608060405260018054336001600160a01b03199182168117909255600280549091169091179055612b77806100356000396000f3fe608060405234801561001057600080fd5b50600436106100fc5760003560e01c806306fdde0314610101578063095ea7b31461017e57806313af4035146101be57806318160ddd146101e657806323b872dd14610200578063313ce567146102365780633408f73a1461025457806340c10f1914610278578063481c6a75146102a45780634da0ab62146102ac57806370a082311461037a57806375d0c0dc146103a05780638da5cb5b146103a85780639137c1a7146103b057806395d89b41146103d65780639dc29fac146103de578063a9059cbb1461040a578063d0ebdbe714610436578063dd62ed3e1461045c578063ef430aa61461048a575b600080fd5b610109610492565b6040805160208082528351818301528351919283929083019185019080838360005b8381101561014357818101518382015260200161012b565b50505050905090810190601f1680156101705780820380516001836020036101000a031916815260200191505b509250505060405180910390f35b6101aa6004803603604081101561019457600080fd5b506001600160a01b03813516906020013561067c565b604080519115158252519081900360200190f35b6101e4600480360360208110156101d457600080fd5b50356001600160a01b031661076f565b005b6101ee61099c565b60408051918252519081900360200190f35b6101aa6004803603606081101561021657600080fd5b506001600160a01b03813581169160208101359091169060400135610b0c565b61023e610d36565b6040805160ff9092168252519081900360200190f35b61025c610e1c565b604080516001600160a01b039092168252519081900360200190f35b6101aa6004803603604081101561028e57600080fd5b506001600160a01b038135169060200135610f12565b61025c611138565b6101aa600480360360808110156102c257600080fd5b6001600160a01b038235169190810190604081016020820135600160201b8111156102ec57600080fd5b8201836020820111156102fe57600080fd5b803590602001918460018302840111600160201b8311171561031f57600080fd5b919390929091602081019035600160201b81111561033c57600080fd5b82018360208201111561034e57600080fd5b803590602001918460018302840111600160201b8311171561036f57600080fd5b919350915035611147565b6101ee6004803603602081101561039057600080fd5b50356001600160a01b031661128d565b61010961140d565b61025c61149b565b6101e4600480360360208110156103c657600080fd5b50356001600160a01b03166114aa565b6101096115ea565b6101aa600480360360408110156103f457600080fd5b506001600160a01b038135169060200135611723565b6101aa6004803603604081101561042057600080fd5b506001600160a01b038135169060200135611900565b6101e46004803603602081101561044c57600080fd5b50356001600160a01b0316611a03565b6101ee6004803603604081101561047257600080fd5b506001600160a01b0381358116916020013516611c1e565b6101ee611d8b565b6002805460408051808201825260188152600080516020612ae08339815191526020808301919091526000805484516101006001831615026000190190911696909604601f8101839004830287018301909452838652606095600160a01b90950460ff169461056194909283018282801561054e5780601f106105235761010080835404028352916020019161054e565b820191906000526020600020905b81548152906001019060200180831161053157829003601f168201915b5050505050611e7190919063ffffffff16565b906105ea5760405162461bcd60e51b81526004018080602001828103825283818151815260200191508051906020019080838360005b838110156105af578181015183820152602001610597565b50505050905090810190601f1680156105dc5780820380516001836020036101000a031916815260200191505b509250505060405180910390fd5b506004805460408051602060026001851615610100026000190190941693909304601f810184900484028201840190925281815292918301828280156106715780601f1061064657610100808354040283529160200191610671565b820191906000526020600020905b81548152906001019060200180831161065457829003601f168201915b505050505090505b90565b6002805460408051808201825260188152600080516020612ae08339815191526020808301919091526000805484516101006001831615026000190190911696909604601f810183900483028701830190945283865294600160a01b90940460ff169361070e93909186919083018282801561054e5780601f106105235761010080835404028352916020019161054e565b9061075a5760405162461bcd60e51b81526020600482018181528351602484015283519092839260449091019190850190808383600083156105af578181015183820152602001610597565b50610766338484611f2c565b50600192915050565b6001805460408051808201825260198152600080516020612a5d833981519152602080830191909152600080548451600261010098831615989098026000190190911696909604601f81018390048302870183019094528386526001600160a01b0390941633149461080694929390929183018282801561054e5780601f106105235761010080835404028352916020019161054e565b906108525760405162461bcd60e51b81526020600482018181528351602484015283519092839260449091019190850190808383600083156105af578181015183820152602001610597565b50604080518082018252601f8082527f3a206e6577206f776e657220697320746865207a65726f206164647265737300602080840191909152600080548551600260001961010060018516150201909216919091049384018390048302810183019095528285526001600160a01b0386161515946108f39493909283018282801561054e5780601f106105235761010080835404028352916020019161054e565b9061093f5760405162461bcd60e51b81526020600482018181528351602484015283519092839260449091019190850190808383600083156105af578181015183820152602001610597565b506001546040516001600160a01b038084169216907fb532073b38c83145e3e5135377a08bf9aab55bc0fd7c1179cd4fb995d2a5159c90600090a3600180546001600160a01b0319166001600160a01b0392909216919091179055565b6002805460408051808201825260188152600080516020612ae08339815191526020808301919091526000805484516101006001831615026000190190911696909604601f810183900483028701830190945283865294600160a01b90940460ff1693610a2e93909186919083018282801561054e5780601f106105235761010080835404028352916020019161054e565b90610a7a5760405162461bcd60e51b81526020600482018181528351602484015283519092839260449091019190850190808383600083156105af578181015183820152602001610597565b50610a83611fee565b6040805163e024403560e01b815264151bdd185b60da1b60048201526000602482015290516001600160a01b03929092169163e024403591604480820192602092909190829003018186803b158015610adb57600080fd5b505afa158015610aef573d6000803e3d6000fd5b505050506040513d6020811015610b0557600080fd5b5051905090565b6002805460408051808201825260188152600080516020612ae08339815191526020808301919091526000805484516101006001831615026000190190911696909604601f810183900483028701830190945283865294600160a01b90940460ff1693610b9e93909186919083018282801561054e5780601f106105235761010080835404028352916020019161054e565b90610bea5760405162461bcd60e51b81526020600482018181528351602484015283519092839260449091019190850190808383600083156105af578181015183820152602001610597565b50610c0f848484604051806060016040528060218152602001612abf60219139611ffd565b6000610d1e83610c8c604051806060016040528060238152602001612b20602391396000805460408051602060026001851615610100026000190190941693909304601f8101849004840282018401909252818152929183018282801561054e5780601f106105235761010080835404028352916020019161054e565b610c94611fee565b60408051630af4187d60e01b81526001600160a01b038b8116600483015233602483015291519290911691630af4187d91604480820192602092909190829003018186803b158015610ce557600080fd5b505afa158015610cf9573d6000803e3d6000fd5b505050506040513d6020811015610d0f57600080fd5b5051919063ffffffff61225716565b9050610d2b853383611f2c565b506001949350505050565b6002805460408051808201825260188152600080516020612ae08339815191526020808301919091526000805484516101006001831615026000190190911696909604601f810183900483028701830190945283865294600160a01b90940460ff1693610dc893909186919083018282801561054e5780601f106105235761010080835404028352916020019161054e565b90610e145760405162461bcd60e51b81526020600482018181528351602484015283519092839260449091019190850190808383600083156105af578181015183820152602001610597565b506012905090565b60035460408051808201825260118152700e8814dd1bdc9859d9481b9bdd081cd95d607a1b60208083019190915260008054845160026101006001841615026000190190921691909104601f810184900484028201840190955284815290946001600160a01b0316151593610eb5939286919083018282801561054e5780601f106105235761010080835404028352916020019161054e565b90610f015760405162461bcd60e51b81526020600482018181528351602484015283519092839260449091019190850190808383600083156105af578181015183820152602001610597565b50506003546001600160a01b031690565b6002805460408051808201825260188152600080516020612ae08339815191526020808301919091526000805484516101006001831615026000190190911696909604601f810183900483028701830190945283865294600160a01b90940460ff1693610fa493909186919083018282801561054e5780601f106105235761010080835404028352916020019161054e565b90610ff05760405162461bcd60e51b81526020600482018181528351602484015283519092839260449091019190850190808383600083156105af578181015183820152602001610597565b5060028054604080518082018252601481527301d1031b0b63632b91034b9903737ba103a3432960651b6020808301919091526000805484516101006001831615026000190190911696909604601f81018390048302870183019094528386526524b9b9bab2b960d11b956001600160a01b039095163314946110d79487939192918301828280156110c35780601f10611098576101008083540402835291602001916110c3565b820191906000526020600020905b8154815290600101906020018083116110a657829003601f168201915b50505050506122b19092919063ffffffff16565b906111235760405162461bcd60e51b81526020600482018181528351602484015283519092839260449091019190850190808383600083156105af578181015183820152602001610597565b5061112e848461236a565b5060019392505050565b6002546001600160a01b031681565b6001805460408051808201825260198152600080516020612a5d833981519152602080830191909152600080548451600261010098831615989098026000190190911696909604601f8101839004830287018301909452838652946001600160a01b039094163314936111df93909186919083018282801561054e5780601f106105235761010080835404028352916020019161054e565b9061122b5760405162461bcd60e51b81526020600482018181528351602484015283519092839260449091019190850190808383600083156105af578181015183820152602001610597565b506112346124e7565b61123d87611a03565b6112496004878761294f565b506112566005858561294f565b5060068290556005805461127f91600091600260001961010060018416150201909116046129cd565b506001979650505050505050565b6002805460408051808201825260188152600080516020612ae08339815191526020808301919091526000805484516101006001831615026000190190911696909604601f810183900483028701830190945283865294600160a01b90940460ff169361131f93909186919083018282801561054e5780601f106105235761010080835404028352916020019161054e565b9061136b5760405162461bcd60e51b81526020600482018181528351602484015283519092839260449091019190850190808383600083156105af578181015183820152602001610597565b50611374611fee565b6001600160a01b031663e02440356642616c616e636560c81b846040518363ffffffff1660e01b815260040180838152602001826001600160a01b03166001600160a01b031681526020019250505060206040518083038186803b1580156113db57600080fd5b505afa1580156113ef573d6000803e3d6000fd5b505050506040513d602081101561140557600080fd5b505192915050565b6000805460408051602060026001851615610100026000190190941693909304601f810184900484028201840190925281815292918301828280156114935780601f1061146857610100808354040283529160200191611493565b820191906000526020600020905b81548152906001019060200180831161147657829003601f168201915b505050505081565b6001546001600160a01b031681565b6001805460408051808201825260198152600080516020612a5d833981519152602080830191909152600080548451600261010098831615989098026000190190911696909604601f81018390048302870183019094528386526001600160a01b0390941633149461154194929390929183018282801561054e5780601f106105235761010080835404028352916020019161054e565b9061158d5760405162461bcd60e51b81526020600482018181528351602484015283519092839260449091019190850190808383600083156105af578181015183820152602001610597565b506003546040516001600160a01b038084169216907f85a70e3ed8a3924b3769cbe4e925987bbd40e8cea31487cbe13bee7b727310a490600090a3600380546001600160a01b0319166001600160a01b0392909216919091179055565b6002805460408051808201825260188152600080516020612ae08339815191526020808301919091526000805484516101006001831615026000190190911696909604601f8101839004830287018301909452838652606095600160a01b90950460ff169461167b94909283018282801561054e5780601f106105235761010080835404028352916020019161054e565b906116c75760405162461bcd60e51b81526020600482018181528351602484015283519092839260449091019190850190808383600083156105af578181015183820152602001610597565b506005805460408051602060026001851615610100026000190190941693909304601f810184900484028201840190925281815292918301828280156106715780601f1061064657610100808354040283529160200191610671565b6002805460408051808201825260188152600080516020612ae08339815191526020808301919091526000805484516101006001831615026000190190911696909604601f810183900483028701830190945283865294600160a01b90940460ff16936117b593909186919083018282801561054e5780601f106105235761010080835404028352916020019161054e565b906118015760405162461bcd60e51b81526020600482018181528351602484015283519092839260449091019190850190808383600083156105af578181015183820152602001610597565b5060028054604080518082018252601481527301d1031b0b63632b91034b9903737ba103a3432960651b6020808301919091526000805484516101006001831615026000190190911696909604601f81018390048302870183019094528386526524b9b9bab2b960d11b956001600160a01b039095163314946118a99487939192918301828280156110c35780601f10611098576101008083540402835291602001916110c3565b906118f55760405162461bcd60e51b81526020600482018181528351602484015283519092839260449091019190850190808383600083156105af578181015183820152602001610597565b5061112e84846125e5565b6002805460408051808201825260188152600080516020612ae08339815191526020808301919091526000805484516101006001831615026000190190911696909604601f810183900483028701830190945283865294600160a01b90940460ff169361199293909186919083018282801561054e5780601f106105235761010080835404028352916020019161054e565b906119de5760405162461bcd60e51b81526020600482018181528351602484015283519092839260449091019190850190808383600083156105af578181015183820152602001610597565b50610766338484604051806060016040528060218152602001612abf60219139611ffd565b6001805460408051808201825260198152600080516020612a5d833981519152602080830191909152600080548451600261010098831615989098026000190190911696909604601f81018390048302870183019094528386526001600160a01b03909416331494611a9a94929390929183018282801561054e5780601f106105235761010080835404028352916020019161054e565b90611ae65760405162461bcd60e51b81526020600482018181528351602484015283519092839260449091019190850190808383600083156105af578181015183820152602001610597565b5060006001600160a01b0316816001600160a01b03161415611b75604051806060016040528060218152602001612a9e602191396000805460408051602060026001851615610100026000190190941693909304601f8101849004840282018401909252818152929183018282801561054e5780601f106105235761010080835404028352916020019161054e565b90611bc15760405162461bcd60e51b81526020600482018181528351602484015283519092839260449091019190850190808383600083156105af578181015183820152602001610597565b506002546040516001600160a01b038084169216907f605c2dbf762e5f7d60a546d42e7205dcb1b011ebc62a61736a57c9089d3a435090600090a3600280546001600160a01b0319166001600160a01b0392909216919091179055565b6002805460408051808201825260188152600080516020612ae08339815191526020808301919091526000805484516101006001831615026000190190911696909604601f810183900483028701830190945283865294600160a01b90940460ff1693611cb093909186919083018282801561054e5780601f106105235761010080835404028352916020019161054e565b90611cfc5760405162461bcd60e51b81526020600482018181528351602484015283519092839260449091019190850190808383600083156105af578181015183820152602001610597565b50611d05611fee565b60408051630af4187d60e01b81526001600160a01b038681166004830152858116602483015291519290911691630af4187d91604480820192602092909190829003018186803b158015611d5857600080fd5b505afa158015611d6c573d6000803e3d6000fd5b505050506040513d6020811015611d8257600080fd5b50519392505050565b6002805460408051808201825260188152600080516020612ae08339815191526020808301919091526000805484516101006001831615026000190190911696909604601f810183900483028701830190945283865294600160a01b90940460ff1693611e1d93909186919083018282801561054e5780601f106105235761010080835404028352916020019161054e565b90611e695760405162461bcd60e51b81526020600482018181528351602484015283519092839260449091019190850190808383600083156105af578181015183820152602001610597565b505060065490565b606082826040516020018083805190602001908083835b60208310611ea75780518252601f199092019160209182019101611e88565b51815160209384036101000a600019018019909216911617905285519190930192850191508083835b60208310611eef5780518252601f199092019160209182019101611ed0565b6001836020036101000a03801982511681845116808217855250505050505090500192505050604051602081830303815290604052905092915050565b611f34611fee565b60408051633691826360e21b81526001600160a01b0386811660048301528581166024830152604482018590529151929091169163da46098c9160648082019260009290919082900301818387803b158015611f8f57600080fd5b505af1158015611fa3573d6000803e3d6000fd5b50506040805184815290516001600160a01b038087169450871692507f8c5be1e5ebec7d5bd14f71427d1e84f3dd0314c0f7b2291e5b200ac8c7c3b9259181900360200190a3505050565b6000611ff8610e1c565b905090565b612005611fee565b6001600160a01b031663182505f06642616c616e636560c81b868561208f8660008054600181600116156101000203166002900480601f01602080910402602001604051908101604052809291908181526020018280546001816001161561010002031660029004801561054e5780601f106105235761010080835404028352916020019161054e565b6040518563ffffffff1660e01b815260040180858152602001846001600160a01b03166001600160a01b0316815260200183815260200180602001828103825283818151815260200191508051906020019080838360005b838110156120ff5781810151838201526020016120e7565b50505050905090810190601f16801561212c5780820380516001836020036101000a031916815260200191505b5095505050505050602060405180830381600087803b15801561214e57600080fd5b505af1158015612162573d6000803e3d6000fd5b505050506040513d602081101561217857600080fd5b506121839050611fee565b6001600160a01b0316636c56a6286642616c616e636560c81b85856040518463ffffffff1660e01b815260040180848152602001836001600160a01b03166001600160a01b031681526020018281526020019350505050602060405180830381600087803b1580156121f457600080fd5b505af1158015612208573d6000803e3d6000fd5b505050506040513d602081101561221e57600080fd5b50506040805183815290516001600160a01b038086169290871691600080516020612b008339815191529181900360200190a350505050565b600081848411156122a95760405162461bcd60e51b81526020600482018181528351602484015283519092839260449091019190850190808383600083156105af578181015183820152602001610597565b505050900390565b60608383836040516020018084805190602001908083835b602083106122e85780518252601f1990920191602091820191016122c9565b51815160209384036101000a600019018019909216911617905286519190930192860191508083835b602083106123305780518252601f199092019160209182019101612311565b51815160209384036101000a6000190180199092169116179052920193845250604080518085038152939091019052509695505050505050565b612372611fee565b6001600160a01b0316636c56a6286642616c616e636560c81b84846040518463ffffffff1660e01b815260040180848152602001836001600160a01b03166001600160a01b031681526020018281526020019350505050602060405180830381600087803b1580156123e357600080fd5b505af11580156123f7573d6000803e3d6000fd5b505050506040513d602081101561240d57600080fd5b506124189050611fee565b6001600160a01b0316636c56a62864151bdd185b60da1b6000846040518463ffffffff1660e01b815260040180848152602001836001600160a01b03166001600160a01b031681526020018281526020019350505050602060405180830381600087803b15801561248857600080fd5b505af115801561249c573d6000803e3d6000fd5b505050506040513d60208110156124b257600080fd5b50506040805182815290516001600160a01b03841691600091600080516020612b008339815191529181900360200190a35050565b6002805460408051808201825260158152740e88185b1c9958591e481a5b9a5d1a585b1a5e9959605a1b6020808301919091526000805484516101006001831615026000190190911696909604601f8101839004830287018301909452838652600160a01b90940460ff16159461258394929390929183018282801561054e5780601f106105235761010080835404028352916020019161054e565b906125cf5760405162461bcd60e51b81526020600482018181528351602484015283519092839260449091019190850190808383600083156105af578181015183820152602001610597565b506002805460ff60a01b1916600160a01b179055565b6125ed611fee565b6001600160a01b031663182505f06642616c616e636560c81b84846126ac6040518060400160405280601d81526020017f3a206275726e20616d6f756e7420657863656564732062616c616e636500000081525060008054600181600116156101000203166002900480601f01602080910402602001604051908101604052809291908181526020018280546001816001161561010002031660029004801561054e5780601f106105235761010080835404028352916020019161054e565b6040518563ffffffff1660e01b815260040180858152602001846001600160a01b03166001600160a01b0316815260200183815260200180602001828103825283818151815260200191508051906020019080838360005b8381101561271c578181015183820152602001612704565b50505050905090810190601f1680156127495780820380516001836020036101000a031916815260200191505b5095505050505050602060405180830381600087803b15801561276b57600080fd5b505af115801561277f573d6000803e3d6000fd5b505050506040513d602081101561279557600080fd5b506127a09050611fee565b6001600160a01b031663182505f064151bdd185b60da1b600084612831604051806060016040528060218152602001612a7d602191396000805460408051602060026001851615610100026000190190941693909304601f8101849004840282018401909252818152929183018282801561054e5780601f106105235761010080835404028352916020019161054e565b6040518563ffffffff1660e01b815260040180858152602001846001600160a01b03166001600160a01b0316815260200183815260200180602001828103825283818151815260200191508051906020019080838360005b838110156128a1578181015183820152602001612889565b50505050905090810190601f1680156128ce5780820380516001836020036101000a031916815260200191505b5095505050505050602060405180830381600087803b1580156128f057600080fd5b505af1158015612904573d6000803e3d6000fd5b505050506040513d602081101561291a57600080fd5b50506040805182815290516000916001600160a01b03851691600080516020612b008339815191529181900360200190a35050565b828054600181600116156101000203166002900490600052602060002090601f016020900481019282601f106129905782800160ff198235161785556129bd565b828001600101855582156129bd579182015b828111156129bd5782358255916020019190600101906129a2565b506129c9929150612a42565b5090565b828054600181600116156101000203166002900490600052602060002090601f016020900481019282601f10612a0657805485556129bd565b828001600101855582156129bd57600052602060002091601f016020900482015b828111156129bd578254825591600101919060010190612a27565b61067991905b808211156129c95760008155600101612a4856fe3a2063616c6c6572206973206e6f7420746865206f776e6572000000000000003a206275726e20616d6f756e74206578636565647320746f74616c537570706c793a206e6577206d616e6167657220697320746865207a65726f20616464726573733a207472616e7366657220616d6f756e7420657863656564732062616c616e63653a20636f6e747261637420756e696e697469616c697a65640000000000000000ddf252ad1be2c89b69c2b068fc378daa952ba7f163c4a11628f55a4df523b3ef3a207472616e7366657220616d6f756e74206578636565647320616c6c6f77616e6365a265627a7a72315820a1e49c210ec5c64ec95b768a4afc992b291070cabab8e88d6f01d23d5d95322064736f6c63430005110032",
  "source": "// SPDX-License-Identifier: MIT\npragma solidity ^0.5.17;\n\nimport './base/Token.sol';\nimport './interfaces/ISynth.sol';\n\ncontract Synth is Token, ISynth {\n    bytes32 private _category;\n\n    function initialize(\n        address issuer,\n        string calldata name,\n        string calldata symbol,\n        bytes32 category\n    ) external onlyOwner returns (bool) {\n        setInitialized();\n        setManager(issuer);\n        _name = name;\n        _symbol = symbol;\n        _category = category;\n        contractName = _symbol;\n        return true;\n    }\n\n    function category() external view onlyInitialized returns (bytes32) {\n        return _category;\n    }\n\n    function mint(address account, uint256 amount)\n        external\n        onlyInitialized\n        onlyManager(CONTRACT_ISSUER)\n        returns (bool)\n    {\n        _mint(account, amount);\n        return true;\n    }\n\n    function burn(address account, uint256 amount)\n        external\n        onlyInitialized\n        onlyManager(CONTRACT_ISSUER)\n        returns (bool)\n    {\n        _burn(account, amount);\n        return true;\n    }\n}\n",
  "sourcePath": "/Users/sun/go/src/github.com/Dipper-Labs/DIPSYN/contracts/Synth.sol",
  "compiler": {
    "name": "solc",
    "version": "0.5.17+commit.d19bba13.Emscripten.clang"
  },
  "schemaVersion": "3.3.4",
  "updatedAt": "2021-04-21T04:08:14.024Z",
  "devdoc": {
    "methods": {}
  },
  "userdoc": {
    "methods": {}
  }
}