{
  "contractName": "TokenLockable",
  "abi": [
    {
      "anonymous": false,
      "inputs": [
        {
          "indexed": true,
          "internalType": "address",
          "name": "owner",
          "type": "address"
        },
        {
          "indexed": true,
          "internalType": "address",
          "name": "spender",
          "type": "address"
        },
        {
          "indexed": false,
          "internalType": "uint256",
          "name": "value",
          "type": "uint256"
        }
      ],
      "name": "Approval",
      "type": "event"
    },
    {
      "anonymous": false,
      "inputs": [
        {
          "indexed": true,
          "internalType": "address",
          "name": "previousValue",
          "type": "address"
        },
        {
          "indexed": true,
          "internalType": "address",
          "name": "newValue",
          "type": "address"
        }
      ],
      "name": "HolderChanged",
      "type": "event"
    },
    {
      "anonymous": false,
      "inputs": [
        {
          "indexed": true,
          "internalType": "address",
          "name": "previousValue",
          "type": "address"
        },
        {
          "indexed": true,
          "internalType": "address",
          "name": "newValue",
          "type": "address"
        }
      ],
      "name": "ManagerChanged",
      "type": "event"
    },
    {
      "anonymous": false,
      "inputs": [
        {
          "indexed": true,
          "internalType": "address",
          "name": "previousValue",
          "type": "address"
        },
        {
          "indexed": true,
          "internalType": "address",
          "name": "newValue",
          "type": "address"
        }
      ],
      "name": "OwnerChanged",
      "type": "event"
    },
    {
      "anonymous": false,
      "inputs": [
        {
          "indexed": true,
          "internalType": "address",
          "name": "previousValue",
          "type": "address"
        },
        {
          "indexed": true,
          "internalType": "address",
          "name": "newValue",
          "type": "address"
        }
      ],
      "name": "StorageChanged",
      "type": "event"
    },
    {
      "anonymous": false,
      "inputs": [
        {
          "indexed": true,
          "internalType": "address",
          "name": "from",
          "type": "address"
        },
        {
          "indexed": true,
          "internalType": "address",
          "name": "to",
          "type": "address"
        },
        {
          "indexed": false,
          "internalType": "uint256",
          "name": "value",
          "type": "uint256"
        }
      ],
      "name": "Transfer",
      "type": "event"
    },
    {
      "constant": true,
      "inputs": [
        {
          "internalType": "address",
          "name": "owner",
          "type": "address"
        },
        {
          "internalType": "address",
          "name": "spender",
          "type": "address"
        }
      ],
      "name": "allowance",
      "outputs": [
        {
          "internalType": "uint256",
          "name": "",
          "type": "uint256"
        }
      ],
      "payable": false,
      "stateMutability": "view",
      "type": "function"
    },
    {
      "constant": false,
      "inputs": [
        {
          "internalType": "address",
          "name": "spender",
          "type": "address"
        },
        {
          "internalType": "uint256",
          "name": "amount",
          "type": "uint256"
        }
      ],
      "name": "approve",
      "outputs": [
        {
          "internalType": "bool",
          "name": "",
          "type": "bool"
        }
      ],
      "payable": false,
      "stateMutability": "nonpayable",
      "type": "function"
    },
    {
      "constant": true,
      "inputs": [
        {
          "internalType": "address",
          "name": "account",
          "type": "address"
        }
      ],
      "name": "balanceOf",
      "outputs": [
        {
          "internalType": "uint256",
          "name": "",
          "type": "uint256"
        }
      ],
      "payable": false,
      "stateMutability": "view",
      "type": "function"
    },
    {
      "constant": true,
      "inputs": [],
      "name": "contractName",
      "outputs": [
        {
          "internalType": "string",
          "name": "",
          "type": "string"
        }
      ],
      "payable": false,
      "stateMutability": "view",
      "type": "function"
    },
    {
      "constant": true,
      "inputs": [],
      "name": "decimals",
      "outputs": [
        {
          "internalType": "uint8",
          "name": "",
          "type": "uint8"
        }
      ],
      "payable": false,
      "stateMutability": "view",
      "type": "function"
    },
    {
      "constant": true,
      "inputs": [],
      "name": "getStorage",
      "outputs": [
        {
          "internalType": "address",
          "name": "",
          "type": "address"
        }
      ],
      "payable": false,
      "stateMutability": "view",
      "type": "function"
    },
    {
      "constant": true,
      "inputs": [],
      "name": "holder",
      "outputs": [
        {
          "internalType": "contract IHolder",
          "name": "",
          "type": "address"
        }
      ],
      "payable": false,
      "stateMutability": "view",
      "type": "function"
    },
    {
      "constant": true,
      "inputs": [],
      "name": "manager",
      "outputs": [
        {
          "internalType": "address",
          "name": "",
          "type": "address"
        }
      ],
      "payable": false,
      "stateMutability": "view",
      "type": "function"
    },
    {
      "constant": true,
      "inputs": [],
      "name": "name",
      "outputs": [
        {
          "internalType": "string",
          "name": "",
          "type": "string"
        }
      ],
      "payable": false,
      "stateMutability": "view",
      "type": "function"
    },
    {
      "constant": true,
      "inputs": [],
      "name": "owner",
      "outputs": [
        {
          "internalType": "address",
          "name": "",
          "type": "address"
        }
      ],
      "payable": false,
      "stateMutability": "view",
      "type": "function"
    },
    {
      "constant": false,
      "inputs": [
        {
          "internalType": "address",
          "name": "_manager",
          "type": "address"
        }
      ],
      "name": "setManager",
      "outputs": [],
      "payable": false,
      "stateMutability": "nonpayable",
      "type": "function"
    },
    {
      "constant": false,
      "inputs": [
        {
          "internalType": "address",
          "name": "_owner",
          "type": "address"
        }
      ],
      "name": "setOwner",
      "outputs": [],
      "payable": false,
      "stateMutability": "nonpayable",
      "type": "function"
    },
    {
      "constant": false,
      "inputs": [
        {
          "internalType": "address",
          "name": "value",
          "type": "address"
        }
      ],
      "name": "setStorage",
      "outputs": [],
      "payable": false,
      "stateMutability": "nonpayable",
      "type": "function"
    },
    {
      "constant": true,
      "inputs": [],
      "name": "symbol",
      "outputs": [
        {
          "internalType": "string",
          "name": "",
          "type": "string"
        }
      ],
      "payable": false,
      "stateMutability": "view",
      "type": "function"
    },
    {
      "constant": true,
      "inputs": [],
      "name": "totalSupply",
      "outputs": [
        {
          "internalType": "uint256",
          "name": "",
          "type": "uint256"
        }
      ],
      "payable": false,
      "stateMutability": "view",
      "type": "function"
    },
    {
      "constant": false,
      "inputs": [
        {
          "internalType": "address",
          "name": "recipient",
          "type": "address"
        },
        {
          "internalType": "uint256",
          "name": "amount",
          "type": "uint256"
        }
      ],
      "name": "transfer",
      "outputs": [
        {
          "internalType": "bool",
          "name": "",
          "type": "bool"
        }
      ],
      "payable": false,
      "stateMutability": "nonpayable",
      "type": "function"
    },
    {
      "constant": false,
      "inputs": [
        {
          "internalType": "address",
          "name": "sender",
          "type": "address"
        },
        {
          "internalType": "address",
          "name": "recipient",
          "type": "address"
        },
        {
          "internalType": "uint256",
          "name": "amount",
          "type": "uint256"
        }
      ],
      "name": "transferFrom",
      "outputs": [
        {
          "internalType": "bool",
          "name": "",
          "type": "bool"
        }
      ],
      "payable": false,
      "stateMutability": "nonpayable",
      "type": "function"
    },
    {
      "constant": false,
      "inputs": [
        {
          "internalType": "address",
          "name": "_holder",
          "type": "address"
        }
      ],
      "name": "setHolder",
      "outputs": [],
      "payable": false,
      "stateMutability": "nonpayable",
      "type": "function"
    },
    {
      "constant": false,
      "inputs": [
        {
          "internalType": "address",
          "name": "account",
          "type": "address"
        },
        {
          "internalType": "uint256",
          "name": "amount",
          "type": "uint256"
        }
      ],
      "name": "lock",
      "outputs": [
        {
          "internalType": "bool",
          "name": "",
          "type": "bool"
        }
      ],
      "payable": false,
      "stateMutability": "nonpayable",
      "type": "function"
    },
    {
      "constant": false,
      "inputs": [
        {
          "internalType": "address",
          "name": "account",
          "type": "address"
        },
        {
          "internalType": "uint256",
          "name": "amount",
          "type": "uint256"
        }
      ],
      "name": "unlock",
      "outputs": [
        {
          "internalType": "bool",
          "name": "",
          "type": "bool"
        }
      ],
      "payable": false,
      "stateMutability": "nonpayable",
      "type": "function"
    },
    {
      "constant": true,
      "inputs": [
        {
          "internalType": "address",
          "name": "account",
          "type": "address"
        }
      ],
      "name": "getLocked",
      "outputs": [
        {
          "internalType": "uint256",
          "name": "",
          "type": "uint256"
        }
      ],
      "payable": false,
      "stateMutability": "view",
      "type": "function"
    },
    {
      "constant": true,
      "inputs": [],
      "name": "getTotalLocked",
      "outputs": [
        {
          "internalType": "uint256",
          "name": "",
          "type": "uint256"
        }
      ],
      "payable": false,
      "stateMutability": "view",
      "type": "function"
    }
  ],
  "bytecode": "0x608060405260018054336001600160a01b03199182168117909255600280549091169091179055612947806100356000396000f3fe608060405234801561001057600080fd5b50600436106101125760003560e01c806306fdde0314610117578063095ea7b31461019457806313af4035146101d457806318160ddd146101fc57806323b872dd14610216578063282d3fdf1461024c578063313ce567146102785780633408f73a14610296578063481c6a75146102ba57806370a08231146102c257806375d0c0dc146102e85780637eee288d146102f05780638da5cb5b1461031c5780639137c1a71461032457806395d89b411461034a578063a9059cbb14610352578063bc22fd1b1461037e578063d0ebdbe7146103a4578063d979f5aa146103ca578063dd62ed3e146103f0578063e534155d1461041e578063f4732da614610426575b600080fd5b61011f61042e565b6040805160208082528351818301528351919283929083019185019080838360005b83811015610159578181015183820152602001610141565b50505050905090810190601f1680156101865780820380516001836020036101000a031916815260200191505b509250505060405180910390f35b6101c0600480360360408110156101aa57600080fd5b506001600160a01b038135169060200135610617565b604080519115158252519081900360200190f35b6101fa600480360360208110156101ea57600080fd5b50356001600160a01b031661070a565b005b610204610937565b60408051918252519081900360200190f35b6101c06004803603606081101561022c57600080fd5b506001600160a01b03813581169160208101359091169060400135610aa7565b6101c06004803603604081101561026257600080fd5b506001600160a01b038135169060200135610cd1565b610280610ff8565b6040805160ff9092168252519081900360200190f35b61029e6110de565b604080516001600160a01b039092168252519081900360200190f35b61029e6111d4565b610204600480360360208110156102d857600080fd5b50356001600160a01b03166111e3565b61011f611363565b6101c06004803603604081101561030657600080fd5b506001600160a01b0381351690602001356113f1565b61029e611801565b6101fa6004803603602081101561033a57600080fd5b50356001600160a01b0316611810565b61011f611950565b6101c06004803603604081101561036857600080fd5b506001600160a01b038135169060200135611a89565b6102046004803603602081101561039457600080fd5b50356001600160a01b0316611b8c565b6101fa600480360360208110156103ba57600080fd5b50356001600160a01b0316611cd9565b6101fa600480360360208110156103e057600080fd5b50356001600160a01b0316611ef4565b6102046004803603604081101561040657600080fd5b506001600160a01b038135811691602001351661211e565b61029e61228b565b61020461229a565b60028054604080518082018252601881526000805160206128d08339815191526020808301919091526000805484516101006001831615026000190190911696909604601f8101839004830287018301909452838652606095600160a01b90950460ff16946104fd9490928301828280156104ea5780601f106104bf576101008083540402835291602001916104ea565b820191906000526020600020905b8154815290600101906020018083116104cd57829003601f168201915b50505050506123f590919063ffffffff16565b906105865760405162461bcd60e51b81526004018080602001828103825283818151815260200191508051906020019080838360005b8381101561054b578181015183820152602001610533565b50505050905090810190601f1680156105785780820380516001836020036101000a031916815260200191505b509250505060405180910390fd5b506004805460408051602060026001851615610100026000190190941693909304601f8101849004840282018401909252818152929183018282801561060d5780601f106105e25761010080835404028352916020019161060d565b820191906000526020600020905b8154815290600101906020018083116105f057829003601f168201915b5050505050905090565b60028054604080518082018252601881526000805160206128d08339815191526020808301919091526000805484516101006001831615026000190190911696909604601f810183900483028701830190945283865294600160a01b90940460ff16936106a99390918691908301828280156104ea5780601f106104bf576101008083540402835291602001916104ea565b906106f55760405162461bcd60e51b815260206004820181815283516024840152835190928392604490910191908501908083836000831561054b578181015183820152602001610533565b506107013384846124b0565b50600192915050565b6001805460408051808201825260198152600080516020612843833981519152602080830191909152600080548451600261010098831615989098026000190190911696909604601f81018390048302870183019094528386526001600160a01b039094163314946107a19492939092918301828280156104ea5780601f106104bf576101008083540402835291602001916104ea565b906107ed5760405162461bcd60e51b815260206004820181815283516024840152835190928392604490910191908501908083836000831561054b578181015183820152602001610533565b50604080518082018252601f8082527f3a206e6577206f776e657220697320746865207a65726f206164647265737300602080840191909152600080548551600260001961010060018516150201909216919091049384018390048302810183019095528285526001600160a01b03861615159461088e949390928301828280156104ea5780601f106104bf576101008083540402835291602001916104ea565b906108da5760405162461bcd60e51b815260206004820181815283516024840152835190928392604490910191908501908083836000831561054b578181015183820152602001610533565b506001546040516001600160a01b038084169216907fb532073b38c83145e3e5135377a08bf9aab55bc0fd7c1179cd4fb995d2a5159c90600090a3600180546001600160a01b0319166001600160a01b0392909216919091179055565b60028054604080518082018252601881526000805160206128d08339815191526020808301919091526000805484516101006001831615026000190190911696909604601f810183900483028701830190945283865294600160a01b90940460ff16936109c99390918691908301828280156104ea5780601f106104bf576101008083540402835291602001916104ea565b90610a155760405162461bcd60e51b815260206004820181815283516024840152835190928392604490910191908501908083836000831561054b578181015183820152602001610533565b50610a1e612572565b6040805163e024403560e01b815264151bdd185b60da1b60048201526000602482015290516001600160a01b03929092169163e024403591604480820192602092909190829003018186803b158015610a7657600080fd5b505afa158015610a8a573d6000803e3d6000fd5b505050506040513d6020811015610aa057600080fd5b5051905090565b60028054604080518082018252601881526000805160206128d08339815191526020808301919091526000805484516101006001831615026000190190911696909604601f810183900483028701830190945283865294600160a01b90940460ff1693610b399390918691908301828280156104ea5780601f106104bf576101008083540402835291602001916104ea565b90610b855760405162461bcd60e51b815260206004820181815283516024840152835190928392604490910191908501908083836000831561054b578181015183820152602001610533565b50610baa8484846040518060600160405280602181526020016128846021913961257c565b6000610cb983610c276040518060600160405280602381526020016128f0602391396000805460408051602060026001851615610100026000190190941693909304601f810184900484028201840190925281815292918301828280156104ea5780601f106104bf576101008083540402835291602001916104ea565b610c2f612572565b60408051630af4187d60e01b81526001600160a01b038b8116600483015233602483015291519290911691630af4187d91604480820192602092909190829003018186803b158015610c8057600080fd5b505afa158015610c94573d6000803e3d6000fd5b505050506040513d6020811015610caa57600080fd5b5051919063ffffffff6127e816565b9050610cc68533836124b0565b506001949350505050565b60028054604080518082018252601881526000805160206128d08339815191526020808301919091526000805484516101006001831615026000190190911696909604601f810183900483028701830190945283865294600160a01b90940460ff1693610d639390918691908301828280156104ea5780601f106104bf576101008083540402835291602001916104ea565b90610daf5760405162461bcd60e51b815260206004820181815283516024840152835190928392604490910191908501908083836000831561054b578181015183820152602001610533565b50600654604080518082018252601a8152791d1031b0b63632b91034b9903737ba103a3432902437b63232b960311b60208083019190915260008054845160026101006001841615026000190190921691909104601f81018490048402820184019095528481526001600160a01b03909516331494610e509490928301828280156104ea5780601f106104bf576101008083540402835291602001916104ea565b90610e9c5760405162461bcd60e51b815260206004820181815283516024840152835190928392604490910191908501908083836000831561054b578181015183820152602001610533565b50610f5683600660009054906101000a90046001600160a01b03166001600160a01b031663476323826040518163ffffffff1660e01b815260040160206040518083038186803b158015610eef57600080fd5b505afa158015610f03573d6000803e3d6000fd5b505050506040513d6020811015610f1957600080fd5b505160408051808201909152601d81527f3a206c6f636b20616d6f756e7420657863656564732062616c616e63650000006020820152859061257c565b610f5e612572565b6001600160a01b0316636c56a62865131bd8dad95960d21b85856040518463ffffffff1660e01b815260040180848152602001836001600160a01b03166001600160a01b031681526020018281526020019350505050602060405180830381600087803b158015610fce57600080fd5b505af1158015610fe2573d6000803e3d6000fd5b505050506040513d6020811015610cc657600080fd5b60028054604080518082018252601881526000805160206128d08339815191526020808301919091526000805484516101006001831615026000190190911696909604601f810183900483028701830190945283865294600160a01b90940460ff169361108a9390918691908301828280156104ea5780601f106104bf576101008083540402835291602001916104ea565b906110d65760405162461bcd60e51b815260206004820181815283516024840152835190928392604490910191908501908083836000831561054b578181015183820152602001610533565b506012905090565b60035460408051808201825260118152700e8814dd1bdc9859d9481b9bdd081cd95d607a1b60208083019190915260008054845160026101006001841615026000190190921691909104601f810184900484028201840190955284815290946001600160a01b031615159361117793928691908301828280156104ea5780601f106104bf576101008083540402835291602001916104ea565b906111c35760405162461bcd60e51b815260206004820181815283516024840152835190928392604490910191908501908083836000831561054b578181015183820152602001610533565b50506003546001600160a01b031690565b6002546001600160a01b031681565b60028054604080518082018252601881526000805160206128d08339815191526020808301919091526000805484516101006001831615026000190190911696909604601f810183900483028701830190945283865294600160a01b90940460ff16936112759390918691908301828280156104ea5780601f106104bf576101008083540402835291602001916104ea565b906112c15760405162461bcd60e51b815260206004820181815283516024840152835190928392604490910191908501908083836000831561054b578181015183820152602001610533565b506112ca612572565b6001600160a01b031663e02440356642616c616e636560c81b846040518363ffffffff1660e01b815260040180838152602001826001600160a01b03166001600160a01b031681526020019250505060206040518083038186803b15801561133157600080fd5b505afa158015611345573d6000803e3d6000fd5b505050506040513d602081101561135b57600080fd5b505192915050565b6000805460408051602060026001851615610100026000190190941693909304601f810184900484028201840190925281815292918301828280156113e95780601f106113be576101008083540402835291602001916113e9565b820191906000526020600020905b8154815290600101906020018083116113cc57829003601f168201915b505050505081565b60028054604080518082018252601881526000805160206128d08339815191526020808301919091526000805484516101006001831615026000190190911696909604601f810183900483028701830190945283865294600160a01b90940460ff16936114839390918691908301828280156104ea5780601f106104bf576101008083540402835291602001916104ea565b906114cf5760405162461bcd60e51b815260206004820181815283516024840152835190928392604490910191908501908083836000831561054b578181015183820152602001610533565b50600654604080518082018252601a8152791d1031b0b63632b91034b9903737ba103a3432902437b63232b960311b60208083019190915260008054845160026101006001841615026000190190921691909104601f81018490048402820184019095528481526001600160a01b039095163314946115709490928301828280156104ea5780601f106104bf576101008083540402835291602001916104ea565b906115bc5760405162461bcd60e51b815260206004820181815283516024840152835190928392604490910191908501908083836000831561054b578181015183820152602001610533565b506115c5612572565b6001600160a01b031663182505f065131bd8dad95960d21b85856116836040518060400160405280601e81526020017f3a20756e6c6f636b20616d6f756e742065786365656473206c6f636b6564000081525060008054600181600116156101000203166002900480601f0160208091040260200160405190810160405280929190818152602001828054600181600116156101000203166002900480156104ea5780601f106104bf576101008083540402835291602001916104ea565b6040518563ffffffff1660e01b815260040180858152602001846001600160a01b03166001600160a01b0316815260200183815260200180602001828103825283818151815260200191508051906020019080838360005b838110156116f35781810151838201526020016116db565b50505050905090810190601f1680156117205780820380516001836020036101000a031916815260200191505b5095505050505050602060405180830381600087803b15801561174257600080fd5b505af1158015611756573d6000803e3d6000fd5b505050506040513d602081101561176c57600080fd5b5050600654604080516323b191c160e11b81529051610701926001600160a01b0316916347632382916004808301926020929190829003018186803b1580156117b457600080fd5b505afa1580156117c8573d6000803e3d6000fd5b505050506040513d60208110156117de57600080fd5b50516040805160608101909152602b808252869186916128a5602083013961257c565b6001546001600160a01b031681565b6001805460408051808201825260198152600080516020612843833981519152602080830191909152600080548451600261010098831615989098026000190190911696909604601f81018390048302870183019094528386526001600160a01b039094163314946118a79492939092918301828280156104ea5780601f106104bf576101008083540402835291602001916104ea565b906118f35760405162461bcd60e51b815260206004820181815283516024840152835190928392604490910191908501908083836000831561054b578181015183820152602001610533565b506003546040516001600160a01b038084169216907f85a70e3ed8a3924b3769cbe4e925987bbd40e8cea31487cbe13bee7b727310a490600090a3600380546001600160a01b0319166001600160a01b0392909216919091179055565b60028054604080518082018252601881526000805160206128d08339815191526020808301919091526000805484516101006001831615026000190190911696909604601f8101839004830287018301909452838652606095600160a01b90950460ff16946119e19490928301828280156104ea5780601f106104bf576101008083540402835291602001916104ea565b90611a2d5760405162461bcd60e51b815260206004820181815283516024840152835190928392604490910191908501908083836000831561054b578181015183820152602001610533565b506005805460408051602060026001851615610100026000190190941693909304601f8101849004840282018401909252818152929183018282801561060d5780601f106105e25761010080835404028352916020019161060d565b60028054604080518082018252601881526000805160206128d08339815191526020808301919091526000805484516101006001831615026000190190911696909604601f810183900483028701830190945283865294600160a01b90940460ff1693611b1b9390918691908301828280156104ea5780601f106104bf576101008083540402835291602001916104ea565b90611b675760405162461bcd60e51b815260206004820181815283516024840152835190928392604490910191908501908083836000831561054b578181015183820152602001610533565b506107013384846040518060600160405280602181526020016128846021913961257c565b60028054604080518082018252601881526000805160206128d08339815191526020808301919091526000805484516101006001831615026000190190911696909604601f810183900483028701830190945283865294600160a01b90940460ff1693611c1e9390918691908301828280156104ea5780601f106104bf576101008083540402835291602001916104ea565b90611c6a5760405162461bcd60e51b815260206004820181815283516024840152835190928392604490910191908501908083836000831561054b578181015183820152602001610533565b50611c73612572565b6001600160a01b031663e024403565131bd8dad95960d21b846040518363ffffffff1660e01b815260040180838152602001826001600160a01b03166001600160a01b031681526020019250505060206040518083038186803b15801561133157600080fd5b6001805460408051808201825260198152600080516020612843833981519152602080830191909152600080548451600261010098831615989098026000190190911696909604601f81018390048302870183019094528386526001600160a01b03909416331494611d709492939092918301828280156104ea5780601f106104bf576101008083540402835291602001916104ea565b90611dbc5760405162461bcd60e51b815260206004820181815283516024840152835190928392604490910191908501908083836000831561054b578181015183820152602001610533565b5060006001600160a01b0316816001600160a01b03161415611e4b604051806060016040528060218152602001612863602191396000805460408051602060026001851615610100026000190190941693909304601f810184900484028201840190925281815292918301828280156104ea5780601f106104bf576101008083540402835291602001916104ea565b90611e975760405162461bcd60e51b815260206004820181815283516024840152835190928392604490910191908501908083836000831561054b578181015183820152602001610533565b506002546040516001600160a01b038084169216907f605c2dbf762e5f7d60a546d42e7205dcb1b011ebc62a61736a57c9089d3a435090600090a3600280546001600160a01b0319166001600160a01b0392909216919091179055565b6001805460408051808201825260198152600080516020612843833981519152602080830191909152600080548451600261010098831615989098026000190190911696909604601f81018390048302870183019094528386526001600160a01b03909416331494611f8b9492939092918301828280156104ea5780601f106104bf576101008083540402835291602001916104ea565b90611fd75760405162461bcd60e51b815260206004820181815283516024840152835190928392604490910191908501908083836000831561054b578181015183820152602001610533565b5060408051808201825260208082527f3a206e657720686f6c64657220697320746865207a65726f20616464726573738183015260008054845160026001831615610100026000190190921691909104601f81018490048402820184019095528481526001600160a01b03861615159461207594939192918301828280156104ea5780601f106104bf576101008083540402835291602001916104ea565b906120c15760405162461bcd60e51b815260206004820181815283516024840152835190928392604490910191908501908083836000831561054b578181015183820152602001610533565b506006546040516001600160a01b038084169216907f076c2af751a37d3871addf9a6fdedbaf3827fb030bf1d04c43a1421420fcc98790600090a3600680546001600160a01b0319166001600160a01b0392909216919091179055565b60028054604080518082018252601881526000805160206128d08339815191526020808301919091526000805484516101006001831615026000190190911696909604601f810183900483028701830190945283865294600160a01b90940460ff16936121b09390918691908301828280156104ea5780601f106104bf576101008083540402835291602001916104ea565b906121fc5760405162461bcd60e51b815260206004820181815283516024840152835190928392604490910191908501908083836000831561054b578181015183820152602001610533565b50612205612572565b60408051630af4187d60e01b81526001600160a01b038681166004830152858116602483015291519290911691630af4187d91604480820192602092909190829003018186803b15801561225857600080fd5b505afa15801561226c573d6000803e3d6000fd5b505050506040513d602081101561228257600080fd5b50519392505050565b6006546001600160a01b031681565b60028054604080518082018252601881526000805160206128d08339815191526020808301919091526000805484516101006001831615026000190190911696909604601f810183900483028701830190945283865294600160a01b90940460ff169361232c9390918691908301828280156104ea5780601f106104bf576101008083540402835291602001916104ea565b906123785760405162461bcd60e51b815260206004820181815283516024840152835190928392604490910191908501908083836000831561054b578181015183820152602001610533565b50600654604080516323b191c160e11b815290516123f0926001600160a01b0316916347632382916004808301926020929190829003018186803b1580156123bf57600080fd5b505afa1580156123d3573d6000803e3d6000fd5b505050506040513d60208110156123e957600080fd5b50516111e3565b905090565b606082826040516020018083805190602001908083835b6020831061242b5780518252601f19909201916020918201910161240c565b51815160209384036101000a600019018019909216911617905285519190930192850191508083835b602083106124735780518252601f199092019160209182019101612454565b6001836020036101000a03801982511681845116808217855250505050505090500192505050604051602081830303815290604052905092915050565b6124b8612572565b60408051633691826360e21b81526001600160a01b0386811660048301528581166024830152604482018590529151929091169163da46098c9160648082019260009290919082900301818387803b15801561251357600080fd5b505af1158015612527573d6000803e3d6000fd5b50506040805184815290516001600160a01b038087169450871692507f8c5be1e5ebec7d5bd14f71427d1e84f3dd0314c0f7b2291e5b200ac8c7c3b9259181900360200190a3505050565b60006123f06110de565b612584612572565b6001600160a01b031663182505f06642616c616e636560c81b868561260e8660008054600181600116156101000203166002900480601f0160208091040260200160405190810160405280929190818152602001828054600181600116156101000203166002900480156104ea5780601f106104bf576101008083540402835291602001916104ea565b6040518563ffffffff1660e01b815260040180858152602001846001600160a01b03166001600160a01b0316815260200183815260200180602001828103825283818151815260200191508051906020019080838360005b8381101561267e578181015183820152602001612666565b50505050905090810190601f1680156126ab5780820380516001836020036101000a031916815260200191505b5095505050505050602060405180830381600087803b1580156126cd57600080fd5b505af11580156126e1573d6000803e3d6000fd5b505050506040513d60208110156126f757600080fd5b506127029050612572565b6001600160a01b0316636c56a6286642616c616e636560c81b85856040518463ffffffff1660e01b815260040180848152602001836001600160a01b03166001600160a01b031681526020018281526020019350505050602060405180830381600087803b15801561277357600080fd5b505af1158015612787573d6000803e3d6000fd5b505050506040513d602081101561279d57600080fd5b50506040805183815290516001600160a01b0380861692908716917fddf252ad1be2c89b69c2b068fc378daa952ba7f163c4a11628f55a4df523b3ef9181900360200190a350505050565b6000818484111561283a5760405162461bcd60e51b815260206004820181815283516024840152835190928392604490910191908501908083836000831561054b578181015183820152602001610533565b50505090039056fe3a2063616c6c6572206973206e6f7420746865206f776e6572000000000000003a206e6577206d616e6167657220697320746865207a65726f20616464726573733a207472616e7366657220616d6f756e7420657863656564732062616c616e63653a20756e6c6f636b20616d6f756e742065786365656473206c6f636b416464726573732062616c616e63653a20636f6e747261637420756e696e697469616c697a656400000000000000003a207472616e7366657220616d6f756e74206578636565647320616c6c6f77616e6365a265627a7a723158205c4c86de5270e6010f555ccd04fad87a5755c15a2370dde22d097cc87a9af99e64736f6c63430005110032",
  "source": "pragma solidity ^0.5.17;\n\nimport './Token.sol';\nimport '../interfaces/ILockable.sol';\nimport '../interfaces/IHolder.sol';\n\ncontract TokenLockable is Token, ILockable {\n    bytes32 private constant LOCKED = 'Locked';\n    IHolder public holder;\n\n    modifier onlyHolder() {\n        require(msg.sender == address(holder), contractName.concat(': caller is not the Holder'));\n        _;\n    }\n\n    function setHolder(address _holder) public onlyOwner {\n        require(_holder != address(0), contractName.concat(': new holder is the zero address'));\n        emit HolderChanged(address(holder), _holder);\n        holder = IHolder(_holder);\n    }\n\n    function lock(address account, uint256 amount) external onlyInitialized onlyHolder returns (bool) {\n        _transfer(account, holder.LOCK_ADDRESS(), amount, ': lock amount exceeds balance');\n        Storage().incrementUint(LOCKED, account, amount);\n        return true;\n    }\n\n    function unlock(address account, uint256 amount) external onlyInitialized onlyHolder returns (bool) {\n        Storage().decrementUint(LOCKED, account, amount, contractName.concat(': unlock amount exceeds locked'));\n        _transfer(holder.LOCK_ADDRESS(), account, amount, ': unlock amount exceeds lockAddress balance');\n        return true;\n    }\n\n    function getLocked(address account) external view onlyInitialized returns (uint256) {\n        return Storage().getUint(LOCKED, account);\n    }\n\n    function getTotalLocked() external view onlyInitialized returns (uint256) {\n        return balanceOf(holder.LOCK_ADDRESS());\n    }\n}\n",
  "sourcePath": "/Users/sun/go/src/github.com/Dipper-Labs/DIPSYN/contracts/base/TokenLockable.sol",
  "compiler": {
    "name": "solc",
    "version": "0.5.17+commit.d19bba13.Emscripten.clang"
  },
  "schemaVersion": "3.3.4",
  "updatedAt": "2021-04-21T04:08:14.052Z",
  "devdoc": {
    "methods": {}
  },
  "userdoc": {
    "methods": {}
  }
}