{
  "contractName": "Token",
  "abi": [
    {
      "anonymous": false,
      "inputs": [
        {
          "indexed": true,
          "internalType": "address",
          "name": "owner",
          "type": "address"
        },
        {
          "indexed": true,
          "internalType": "address",
          "name": "spender",
          "type": "address"
        },
        {
          "indexed": false,
          "internalType": "uint256",
          "name": "value",
          "type": "uint256"
        }
      ],
      "name": "Approval",
      "type": "event"
    },
    {
      "anonymous": false,
      "inputs": [
        {
          "indexed": true,
          "internalType": "address",
          "name": "previousValue",
          "type": "address"
        },
        {
          "indexed": true,
          "internalType": "address",
          "name": "newValue",
          "type": "address"
        }
      ],
      "name": "ManagerChanged",
      "type": "event"
    },
    {
      "anonymous": false,
      "inputs": [
        {
          "indexed": true,
          "internalType": "address",
          "name": "previousValue",
          "type": "address"
        },
        {
          "indexed": true,
          "internalType": "address",
          "name": "newValue",
          "type": "address"
        }
      ],
      "name": "OwnerChanged",
      "type": "event"
    },
    {
      "anonymous": false,
      "inputs": [
        {
          "indexed": true,
          "internalType": "address",
          "name": "previousValue",
          "type": "address"
        },
        {
          "indexed": true,
          "internalType": "address",
          "name": "newValue",
          "type": "address"
        }
      ],
      "name": "StorageChanged",
      "type": "event"
    },
    {
      "anonymous": false,
      "inputs": [
        {
          "indexed": true,
          "internalType": "address",
          "name": "from",
          "type": "address"
        },
        {
          "indexed": true,
          "internalType": "address",
          "name": "to",
          "type": "address"
        },
        {
          "indexed": false,
          "internalType": "uint256",
          "name": "value",
          "type": "uint256"
        }
      ],
      "name": "Transfer",
      "type": "event"
    },
    {
      "constant": true,
      "inputs": [],
      "name": "contractName",
      "outputs": [
        {
          "internalType": "string",
          "name": "",
          "type": "string"
        }
      ],
      "payable": false,
      "stateMutability": "view",
      "type": "function"
    },
    {
      "constant": true,
      "inputs": [],
      "name": "getStorage",
      "outputs": [
        {
          "internalType": "address",
          "name": "",
          "type": "address"
        }
      ],
      "payable": false,
      "stateMutability": "view",
      "type": "function"
    },
    {
      "constant": true,
      "inputs": [],
      "name": "manager",
      "outputs": [
        {
          "internalType": "address",
          "name": "",
          "type": "address"
        }
      ],
      "payable": false,
      "stateMutability": "view",
      "type": "function"
    },
    {
      "constant": true,
      "inputs": [],
      "name": "owner",
      "outputs": [
        {
          "internalType": "address",
          "name": "",
          "type": "address"
        }
      ],
      "payable": false,
      "stateMutability": "view",
      "type": "function"
    },
    {
      "constant": false,
      "inputs": [
        {
          "internalType": "address",
          "name": "_manager",
          "type": "address"
        }
      ],
      "name": "setManager",
      "outputs": [],
      "payable": false,
      "stateMutability": "nonpayable",
      "type": "function"
    },
    {
      "constant": false,
      "inputs": [
        {
          "internalType": "address",
          "name": "_owner",
          "type": "address"
        }
      ],
      "name": "setOwner",
      "outputs": [],
      "payable": false,
      "stateMutability": "nonpayable",
      "type": "function"
    },
    {
      "constant": false,
      "inputs": [
        {
          "internalType": "address",
          "name": "value",
          "type": "address"
        }
      ],
      "name": "setStorage",
      "outputs": [],
      "payable": false,
      "stateMutability": "nonpayable",
      "type": "function"
    },
    {
      "constant": true,
      "inputs": [],
      "name": "name",
      "outputs": [
        {
          "internalType": "string",
          "name": "",
          "type": "string"
        }
      ],
      "payable": false,
      "stateMutability": "view",
      "type": "function"
    },
    {
      "constant": true,
      "inputs": [],
      "name": "symbol",
      "outputs": [
        {
          "internalType": "string",
          "name": "",
          "type": "string"
        }
      ],
      "payable": false,
      "stateMutability": "view",
      "type": "function"
    },
    {
      "constant": true,
      "inputs": [],
      "name": "decimals",
      "outputs": [
        {
          "internalType": "uint8",
          "name": "",
          "type": "uint8"
        }
      ],
      "payable": false,
      "stateMutability": "view",
      "type": "function"
    },
    {
      "constant": true,
      "inputs": [],
      "name": "totalSupply",
      "outputs": [
        {
          "internalType": "uint256",
          "name": "",
          "type": "uint256"
        }
      ],
      "payable": false,
      "stateMutability": "view",
      "type": "function"
    },
    {
      "constant": true,
      "inputs": [
        {
          "internalType": "address",
          "name": "account",
          "type": "address"
        }
      ],
      "name": "balanceOf",
      "outputs": [
        {
          "internalType": "uint256",
          "name": "",
          "type": "uint256"
        }
      ],
      "payable": false,
      "stateMutability": "view",
      "type": "function"
    },
    {
      "constant": true,
      "inputs": [
        {
          "internalType": "address",
          "name": "owner",
          "type": "address"
        },
        {
          "internalType": "address",
          "name": "spender",
          "type": "address"
        }
      ],
      "name": "allowance",
      "outputs": [
        {
          "internalType": "uint256",
          "name": "",
          "type": "uint256"
        }
      ],
      "payable": false,
      "stateMutability": "view",
      "type": "function"
    },
    {
      "constant": false,
      "inputs": [
        {
          "internalType": "address",
          "name": "spender",
          "type": "address"
        },
        {
          "internalType": "uint256",
          "name": "amount",
          "type": "uint256"
        }
      ],
      "name": "approve",
      "outputs": [
        {
          "internalType": "bool",
          "name": "",
          "type": "bool"
        }
      ],
      "payable": false,
      "stateMutability": "nonpayable",
      "type": "function"
    },
    {
      "constant": false,
      "inputs": [
        {
          "internalType": "address",
          "name": "recipient",
          "type": "address"
        },
        {
          "internalType": "uint256",
          "name": "amount",
          "type": "uint256"
        }
      ],
      "name": "transfer",
      "outputs": [
        {
          "internalType": "bool",
          "name": "",
          "type": "bool"
        }
      ],
      "payable": false,
      "stateMutability": "nonpayable",
      "type": "function"
    },
    {
      "constant": false,
      "inputs": [
        {
          "internalType": "address",
          "name": "sender",
          "type": "address"
        },
        {
          "internalType": "address",
          "name": "recipient",
          "type": "address"
        },
        {
          "internalType": "uint256",
          "name": "amount",
          "type": "uint256"
        }
      ],
      "name": "transferFrom",
      "outputs": [
        {
          "internalType": "bool",
          "name": "",
          "type": "bool"
        }
      ],
      "payable": false,
      "stateMutability": "nonpayable",
      "type": "function"
    }
  ],
  "bytecode": "0x608060405260018054336001600160a01b03199182168117909255600280549091169091179055611c13806100356000396000f3fe608060405234801561001057600080fd5b50600436106100d05760003560e01c806306fdde03146100d5578063095ea7b31461015257806313af40351461019257806318160ddd146101ba57806323b872dd146101d4578063313ce5671461020a5780633408f73a14610228578063481c6a751461024c57806370a082311461025457806375d0c0dc1461027a5780638da5cb5b146102825780639137c1a71461028a57806395d89b41146102b0578063a9059cbb146102b8578063d0ebdbe7146102e4578063dd62ed3e1461030a575b600080fd5b6100dd610338565b6040805160208082528351818301528351919283929083019185019080838360005b838110156101175781810151838201526020016100ff565b50505050905090810190601f1680156101445780820380516001836020036101000a031916815260200191505b509250505060405180910390f35b61017e6004803603604081101561016857600080fd5b506001600160a01b038135169060200135610521565b604080519115158252519081900360200190f35b6101b8600480360360208110156101a857600080fd5b50356001600160a01b0316610614565b005b6101c2610841565b60408051918252519081900360200190f35b61017e600480360360608110156101ea57600080fd5b506001600160a01b038135811691602081013590911690604001356109b1565b610212610bdb565b6040805160ff9092168252519081900360200190f35b610230610cc1565b604080516001600160a01b039092168252519081900360200190f35b610230610db7565b6101c26004803603602081101561026a57600080fd5b50356001600160a01b0316610dc6565b6100dd610f46565b610230610fd4565b6101b8600480360360208110156102a057600080fd5b50356001600160a01b0316610fe3565b6100dd611123565b61017e600480360360408110156102ce57600080fd5b506001600160a01b03813516906020013561125c565b6101b8600480360360208110156102fa57600080fd5b50356001600160a01b031661135f565b6101c26004803603604081101561032057600080fd5b506001600160a01b038135811691602001351661157a565b6002805460408051808201825260188152600080516020611b9c8339815191526020808301919091526000805484516101006001831615026000190190911696909604601f8101839004830287018301909452838652606095600160a01b90950460ff16946104079490928301828280156103f45780601f106103c9576101008083540402835291602001916103f4565b820191906000526020600020905b8154815290600101906020018083116103d757829003601f168201915b50505050506116e790919063ffffffff16565b906104905760405162461bcd60e51b81526004018080602001828103825283818151815260200191508051906020019080838360005b8381101561045557818101518382015260200161043d565b50505050905090810190601f1680156104825780820380516001836020036101000a031916815260200191505b509250505060405180910390fd5b506004805460408051602060026001851615610100026000190190941693909304601f810184900484028201840190925281815292918301828280156105175780601f106104ec57610100808354040283529160200191610517565b820191906000526020600020905b8154815290600101906020018083116104fa57829003601f168201915b5050505050905090565b6002805460408051808201825260188152600080516020611b9c8339815191526020808301919091526000805484516101006001831615026000190190911696909604601f810183900483028701830190945283865294600160a01b90940460ff16936105b39390918691908301828280156103f45780601f106103c9576101008083540402835291602001916103f4565b906105ff5760405162461bcd60e51b815260206004820181815283516024840152835190928392604490910191908501908083836000831561045557818101518382015260200161043d565b5061060b3384846117a2565b50600192915050565b6001805460408051808201825260198152600080516020611b3a833981519152602080830191909152600080548451600261010098831615989098026000190190911696909604601f81018390048302870183019094528386526001600160a01b039094163314946106ab9492939092918301828280156103f45780601f106103c9576101008083540402835291602001916103f4565b906106f75760405162461bcd60e51b815260206004820181815283516024840152835190928392604490910191908501908083836000831561045557818101518382015260200161043d565b50604080518082018252601f8082527f3a206e6577206f776e657220697320746865207a65726f206164647265737300602080840191909152600080548551600260001961010060018516150201909216919091049384018390048302810183019095528285526001600160a01b038616151594610798949390928301828280156103f45780601f106103c9576101008083540402835291602001916103f4565b906107e45760405162461bcd60e51b815260206004820181815283516024840152835190928392604490910191908501908083836000831561045557818101518382015260200161043d565b506001546040516001600160a01b038084169216907fb532073b38c83145e3e5135377a08bf9aab55bc0fd7c1179cd4fb995d2a5159c90600090a3600180546001600160a01b0319166001600160a01b0392909216919091179055565b6002805460408051808201825260188152600080516020611b9c8339815191526020808301919091526000805484516101006001831615026000190190911696909604601f810183900483028701830190945283865294600160a01b90940460ff16936108d39390918691908301828280156103f45780601f106103c9576101008083540402835291602001916103f4565b9061091f5760405162461bcd60e51b815260206004820181815283516024840152835190928392604490910191908501908083836000831561045557818101518382015260200161043d565b50610928611864565b6040805163e024403560e01b815264151bdd185b60da1b60048201526000602482015290516001600160a01b03929092169163e024403591604480820192602092909190829003018186803b15801561098057600080fd5b505afa158015610994573d6000803e3d6000fd5b505050506040513d60208110156109aa57600080fd5b5051905090565b6002805460408051808201825260188152600080516020611b9c8339815191526020808301919091526000805484516101006001831615026000190190911696909604601f810183900483028701830190945283865294600160a01b90940460ff1693610a439390918691908301828280156103f45780601f106103c9576101008083540402835291602001916103f4565b90610a8f5760405162461bcd60e51b815260206004820181815283516024840152835190928392604490910191908501908083836000831561045557818101518382015260200161043d565b50610ab4848484604051806060016040528060218152602001611b7b60219139611873565b6000610bc383610b31604051806060016040528060238152602001611bbc602391396000805460408051602060026001851615610100026000190190941693909304601f810184900484028201840190925281815292918301828280156103f45780601f106103c9576101008083540402835291602001916103f4565b610b39611864565b60408051630af4187d60e01b81526001600160a01b038b8116600483015233602483015291519290911691630af4187d91604480820192602092909190829003018186803b158015610b8a57600080fd5b505afa158015610b9e573d6000803e3d6000fd5b505050506040513d6020811015610bb457600080fd5b5051919063ffffffff611adf16565b9050610bd08533836117a2565b506001949350505050565b6002805460408051808201825260188152600080516020611b9c8339815191526020808301919091526000805484516101006001831615026000190190911696909604601f810183900483028701830190945283865294600160a01b90940460ff1693610c6d9390918691908301828280156103f45780601f106103c9576101008083540402835291602001916103f4565b90610cb95760405162461bcd60e51b815260206004820181815283516024840152835190928392604490910191908501908083836000831561045557818101518382015260200161043d565b506012905090565b60035460408051808201825260118152700e8814dd1bdc9859d9481b9bdd081cd95d607a1b60208083019190915260008054845160026101006001841615026000190190921691909104601f810184900484028201840190955284815290946001600160a01b0316151593610d5a93928691908301828280156103f45780601f106103c9576101008083540402835291602001916103f4565b90610da65760405162461bcd60e51b815260206004820181815283516024840152835190928392604490910191908501908083836000831561045557818101518382015260200161043d565b50506003546001600160a01b031690565b6002546001600160a01b031681565b6002805460408051808201825260188152600080516020611b9c8339815191526020808301919091526000805484516101006001831615026000190190911696909604601f810183900483028701830190945283865294600160a01b90940460ff1693610e589390918691908301828280156103f45780601f106103c9576101008083540402835291602001916103f4565b90610ea45760405162461bcd60e51b815260206004820181815283516024840152835190928392604490910191908501908083836000831561045557818101518382015260200161043d565b50610ead611864565b6001600160a01b031663e02440356642616c616e636560c81b846040518363ffffffff1660e01b815260040180838152602001826001600160a01b03166001600160a01b031681526020019250505060206040518083038186803b158015610f1457600080fd5b505afa158015610f28573d6000803e3d6000fd5b505050506040513d6020811015610f3e57600080fd5b505192915050565b6000805460408051602060026001851615610100026000190190941693909304601f81018490048402820184019092528181529291830182828015610fcc5780601f10610fa157610100808354040283529160200191610fcc565b820191906000526020600020905b815481529060010190602001808311610faf57829003601f168201915b505050505081565b6001546001600160a01b031681565b6001805460408051808201825260198152600080516020611b3a833981519152602080830191909152600080548451600261010098831615989098026000190190911696909604601f81018390048302870183019094528386526001600160a01b0390941633149461107a9492939092918301828280156103f45780601f106103c9576101008083540402835291602001916103f4565b906110c65760405162461bcd60e51b815260206004820181815283516024840152835190928392604490910191908501908083836000831561045557818101518382015260200161043d565b506003546040516001600160a01b038084169216907f85a70e3ed8a3924b3769cbe4e925987bbd40e8cea31487cbe13bee7b727310a490600090a3600380546001600160a01b0319166001600160a01b0392909216919091179055565b6002805460408051808201825260188152600080516020611b9c8339815191526020808301919091526000805484516101006001831615026000190190911696909604601f8101839004830287018301909452838652606095600160a01b90950460ff16946111b49490928301828280156103f45780601f106103c9576101008083540402835291602001916103f4565b906112005760405162461bcd60e51b815260206004820181815283516024840152835190928392604490910191908501908083836000831561045557818101518382015260200161043d565b506005805460408051602060026001851615610100026000190190941693909304601f810184900484028201840190925281815292918301828280156105175780601f106104ec57610100808354040283529160200191610517565b6002805460408051808201825260188152600080516020611b9c8339815191526020808301919091526000805484516101006001831615026000190190911696909604601f810183900483028701830190945283865294600160a01b90940460ff16936112ee9390918691908301828280156103f45780601f106103c9576101008083540402835291602001916103f4565b9061133a5760405162461bcd60e51b815260206004820181815283516024840152835190928392604490910191908501908083836000831561045557818101518382015260200161043d565b5061060b338484604051806060016040528060218152602001611b7b60219139611873565b6001805460408051808201825260198152600080516020611b3a833981519152602080830191909152600080548451600261010098831615989098026000190190911696909604601f81018390048302870183019094528386526001600160a01b039094163314946113f69492939092918301828280156103f45780601f106103c9576101008083540402835291602001916103f4565b906114425760405162461bcd60e51b815260206004820181815283516024840152835190928392604490910191908501908083836000831561045557818101518382015260200161043d565b5060006001600160a01b0316816001600160a01b031614156114d1604051806060016040528060218152602001611b5a602191396000805460408051602060026001851615610100026000190190941693909304601f810184900484028201840190925281815292918301828280156103f45780601f106103c9576101008083540402835291602001916103f4565b9061151d5760405162461bcd60e51b815260206004820181815283516024840152835190928392604490910191908501908083836000831561045557818101518382015260200161043d565b506002546040516001600160a01b038084169216907f605c2dbf762e5f7d60a546d42e7205dcb1b011ebc62a61736a57c9089d3a435090600090a3600280546001600160a01b0319166001600160a01b0392909216919091179055565b6002805460408051808201825260188152600080516020611b9c8339815191526020808301919091526000805484516101006001831615026000190190911696909604601f810183900483028701830190945283865294600160a01b90940460ff169361160c9390918691908301828280156103f45780601f106103c9576101008083540402835291602001916103f4565b906116585760405162461bcd60e51b815260206004820181815283516024840152835190928392604490910191908501908083836000831561045557818101518382015260200161043d565b50611661611864565b60408051630af4187d60e01b81526001600160a01b038681166004830152858116602483015291519290911691630af4187d91604480820192602092909190829003018186803b1580156116b457600080fd5b505afa1580156116c8573d6000803e3d6000fd5b505050506040513d60208110156116de57600080fd5b50519392505050565b606082826040516020018083805190602001908083835b6020831061171d5780518252601f1990920191602091820191016116fe565b51815160209384036101000a600019018019909216911617905285519190930192850191508083835b602083106117655780518252601f199092019160209182019101611746565b6001836020036101000a03801982511681845116808217855250505050505090500192505050604051602081830303815290604052905092915050565b6117aa611864565b60408051633691826360e21b81526001600160a01b0386811660048301528581166024830152604482018590529151929091169163da46098c9160648082019260009290919082900301818387803b15801561180557600080fd5b505af1158015611819573d6000803e3d6000fd5b50506040805184815290516001600160a01b038087169450871692507f8c5be1e5ebec7d5bd14f71427d1e84f3dd0314c0f7b2291e5b200ac8c7c3b9259181900360200190a3505050565b600061186e610cc1565b905090565b61187b611864565b6001600160a01b031663182505f06642616c616e636560c81b86856119058660008054600181600116156101000203166002900480601f0160208091040260200160405190810160405280929190818152602001828054600181600116156101000203166002900480156103f45780601f106103c9576101008083540402835291602001916103f4565b6040518563ffffffff1660e01b815260040180858152602001846001600160a01b03166001600160a01b0316815260200183815260200180602001828103825283818151815260200191508051906020019080838360005b8381101561197557818101518382015260200161195d565b50505050905090810190601f1680156119a25780820380516001836020036101000a031916815260200191505b5095505050505050602060405180830381600087803b1580156119c457600080fd5b505af11580156119d8573d6000803e3d6000fd5b505050506040513d60208110156119ee57600080fd5b506119f99050611864565b6001600160a01b0316636c56a6286642616c616e636560c81b85856040518463ffffffff1660e01b815260040180848152602001836001600160a01b03166001600160a01b031681526020018281526020019350505050602060405180830381600087803b158015611a6a57600080fd5b505af1158015611a7e573d6000803e3d6000fd5b505050506040513d6020811015611a9457600080fd5b50506040805183815290516001600160a01b0380861692908716917fddf252ad1be2c89b69c2b068fc378daa952ba7f163c4a11628f55a4df523b3ef9181900360200190a350505050565b60008184841115611b315760405162461bcd60e51b815260206004820181815283516024840152835190928392604490910191908501908083836000831561045557818101518382015260200161043d565b50505090039056fe3a2063616c6c6572206973206e6f7420746865206f776e6572000000000000003a206e6577206d616e6167657220697320746865207a65726f20616464726573733a207472616e7366657220616d6f756e7420657863656564732062616c616e63653a20636f6e747261637420756e696e697469616c697a656400000000000000003a207472616e7366657220616d6f756e74206578636565647320616c6c6f77616e6365a265627a7a72315820716c059babf104e9f3f1c547bcb1f284455ea35881fc0195977ed41c710e2a5d64736f6c63430005110032",
  "source": "pragma solidity ^0.5.17;\n\nimport '../lib/SafeMath.sol';\nimport './Proxyable.sol';\nimport './ExternalStorable.sol';\nimport '../interfaces/storages/ITokenStorage.sol';\nimport '../interfaces/IERC20.sol';\n\ncontract Token is Proxyable, ExternalStorable, IERC20 {\n    using SafeMath for uint256;\n\n    bytes32 private constant TOTAL = 'Total';\n    bytes32 private constant BALANCE = 'Balance';\n\n    string internal _name;\n    string internal _symbol;\n\n    function Storage() internal view returns (ITokenStorage) {\n        return ITokenStorage(getStorage());\n    }\n\n    function name() external view onlyInitialized returns (string memory) {\n        return _name;\n    }\n\n    function symbol() external view onlyInitialized returns (string memory) {\n        return _symbol;\n    }\n\n    function decimals() external view onlyInitialized returns (uint8) {\n        return 18;\n    }\n\n    function totalSupply() external view onlyInitialized returns (uint256) {\n        return Storage().getUint(TOTAL, address(0));\n    }\n\n    function balanceOf(address account) public view onlyInitialized returns (uint256) {\n        return Storage().getUint(BALANCE, account);\n    }\n\n    function allowance(address owner, address spender) external view onlyInitialized returns (uint256) {\n        return Storage().getAllowance(owner, spender);\n    }\n\n    function approve(address spender, uint256 amount) external onlyInitialized returns (bool) {\n        _approve(msg.sender, spender, amount);\n        return true;\n    }\n\n    function transfer(address recipient, uint256 amount) external onlyInitialized returns (bool) {\n        _transfer(msg.sender, recipient, amount, ': transfer amount exceeds balance');\n        return true;\n    }\n\n    function transferFrom(\n        address sender,\n        address recipient,\n        uint256 amount\n    ) external onlyInitialized returns (bool) {\n        _transfer(sender, recipient, amount, ': transfer amount exceeds balance');\n        uint256 delta =\n            Storage().getAllowance(sender, msg.sender).sub(\n                amount,\n                contractName.concat(': transfer amount exceeds allowance')\n            );\n        _approve(sender, msg.sender, delta);\n        return true;\n    }\n\n    function _approve(\n        address owner,\n        address spender,\n        uint256 amount\n    ) internal {\n        Storage().setAllowance(owner, spender, amount);\n        emit Approval(owner, spender, amount);\n    }\n\n    function _transfer(\n        address sender,\n        address recipient,\n        uint256 amount,\n        string memory errorMessage\n    ) internal {\n        Storage().decrementUint(BALANCE, sender, amount, contractName.concat(errorMessage));\n        Storage().incrementUint(BALANCE, recipient, amount);\n        emit Transfer(sender, recipient, amount);\n    }\n\n    function _mint(address account, uint256 amount) internal {\n        Storage().incrementUint(BALANCE, account, amount);\n        Storage().incrementUint(TOTAL, address(0), amount);\n        emit Transfer(address(0), account, amount);\n    }\n\n    function _burn(address account, uint256 amount) internal {\n        Storage().decrementUint(BALANCE, account, amount, contractName.concat(': burn amount exceeds balance'));\n        Storage().decrementUint(TOTAL, address(0), amount, contractName.concat(': burn amount exceeds totalSupply'));\n        emit Transfer(account, address(0), amount);\n    }\n}\n",
  "sourcePath": "/Users/sun/go/src/github.com/Dipper-Labs/DIPSYN/contracts/base/Token.sol",
  "compiler": {
    "name": "solc",
    "version": "0.5.17+commit.d19bba13.Emscripten.clang"
  },
  "schemaVersion": "3.3.4",
  "updatedAt": "2021-04-21T04:08:14.049Z",
  "devdoc": {
    "methods": {}
  },
  "userdoc": {
    "methods": {}
  }
}