{
  "contractName": "TokenStorage",
  "abi": [
    {
      "inputs": [
        {
          "internalType": "address",
          "name": "_manager",
          "type": "address"
        }
      ],
      "payable": false,
      "stateMutability": "nonpayable",
      "type": "constructor"
    },
    {
      "anonymous": false,
      "inputs": [
        {
          "indexed": true,
          "internalType": "address",
          "name": "previousValue",
          "type": "address"
        },
        {
          "indexed": true,
          "internalType": "address",
          "name": "newValue",
          "type": "address"
        }
      ],
      "name": "ManagerChanged",
      "type": "event"
    },
    {
      "anonymous": false,
      "inputs": [
        {
          "indexed": true,
          "internalType": "address",
          "name": "previousValue",
          "type": "address"
        },
        {
          "indexed": true,
          "internalType": "address",
          "name": "newValue",
          "type": "address"
        }
      ],
      "name": "OwnerChanged",
      "type": "event"
    },
    {
      "constant": true,
      "inputs": [],
      "name": "contractName",
      "outputs": [
        {
          "internalType": "string",
          "name": "",
          "type": "string"
        }
      ],
      "payable": false,
      "stateMutability": "view",
      "type": "function"
    },
    {
      "constant": true,
      "inputs": [],
      "name": "manager",
      "outputs": [
        {
          "internalType": "address",
          "name": "",
          "type": "address"
        }
      ],
      "payable": false,
      "stateMutability": "view",
      "type": "function"
    },
    {
      "constant": true,
      "inputs": [],
      "name": "owner",
      "outputs": [
        {
          "internalType": "address",
          "name": "",
          "type": "address"
        }
      ],
      "payable": false,
      "stateMutability": "view",
      "type": "function"
    },
    {
      "constant": false,
      "inputs": [
        {
          "internalType": "address",
          "name": "_manager",
          "type": "address"
        }
      ],
      "name": "setManager",
      "outputs": [],
      "payable": false,
      "stateMutability": "nonpayable",
      "type": "function"
    },
    {
      "constant": false,
      "inputs": [
        {
          "internalType": "address",
          "name": "_owner",
          "type": "address"
        }
      ],
      "name": "setOwner",
      "outputs": [],
      "payable": false,
      "stateMutability": "nonpayable",
      "type": "function"
    },
    {
      "constant": false,
      "inputs": [
        {
          "internalType": "address",
          "name": "key",
          "type": "address"
        },
        {
          "internalType": "address",
          "name": "field",
          "type": "address"
        },
        {
          "internalType": "uint256",
          "name": "value",
          "type": "uint256"
        }
      ],
      "name": "setAllowance",
      "outputs": [],
      "payable": false,
      "stateMutability": "nonpayable",
      "type": "function"
    },
    {
      "constant": true,
      "inputs": [
        {
          "internalType": "address",
          "name": "key",
          "type": "address"
        },
        {
          "internalType": "address",
          "name": "field",
          "type": "address"
        }
      ],
      "name": "getAllowance",
      "outputs": [
        {
          "internalType": "uint256",
          "name": "",
          "type": "uint256"
        }
      ],
      "payable": false,
      "stateMutability": "view",
      "type": "function"
    },
    {
      "constant": false,
      "inputs": [
        {
          "internalType": "bytes32",
          "name": "key",
          "type": "bytes32"
        },
        {
          "internalType": "address",
          "name": "field",
          "type": "address"
        },
        {
          "internalType": "uint256",
          "name": "value",
          "type": "uint256"
        }
      ],
      "name": "incrementUint",
      "outputs": [
        {
          "internalType": "uint256",
          "name": "",
          "type": "uint256"
        }
      ],
      "payable": false,
      "stateMutability": "nonpayable",
      "type": "function"
    },
    {
      "constant": false,
      "inputs": [
        {
          "internalType": "bytes32",
          "name": "key",
          "type": "bytes32"
        },
        {
          "internalType": "address",
          "name": "field",
          "type": "address"
        },
        {
          "internalType": "uint256",
          "name": "value",
          "type": "uint256"
        },
        {
          "internalType": "string",
          "name": "errorMessage",
          "type": "string"
        }
      ],
      "name": "decrementUint",
      "outputs": [
        {
          "internalType": "uint256",
          "name": "",
          "type": "uint256"
        }
      ],
      "payable": false,
      "stateMutability": "nonpayable",
      "type": "function"
    },
    {
      "constant": false,
      "inputs": [
        {
          "internalType": "bytes32",
          "name": "key",
          "type": "bytes32"
        },
        {
          "internalType": "address",
          "name": "field",
          "type": "address"
        },
        {
          "internalType": "uint256",
          "name": "value",
          "type": "uint256"
        }
      ],
      "name": "setUint",
      "outputs": [],
      "payable": false,
      "stateMutability": "nonpayable",
      "type": "function"
    },
    {
      "constant": true,
      "inputs": [
        {
          "internalType": "bytes32",
          "name": "key",
          "type": "bytes32"
        },
        {
          "internalType": "address",
          "name": "field",
          "type": "address"
        }
      ],
      "name": "getUint",
      "outputs": [
        {
          "internalType": "uint256",
          "name": "",
          "type": "uint256"
        }
      ],
      "payable": false,
      "stateMutability": "view",
      "type": "function"
    }
  ],
  "bytecode": "0x60806040526636b0b730b3b2b960c91b6003553480156200001f57600080fd5b5060405162001b8e38038062001b8e833981810160405260208110156200004557600080fd5b505160018054336001600160a01b031991821681179092556002805490911690911790558062000075816200007d565b505062000755565b60018054604080518082018252601981527f3a2063616c6c6572206973206e6f7420746865206f776e657200000000000000602080830191909152600080548451600261010098831615989098026000190190911696909604601f81018390048302870183019094528386526001600160a01b039094163314946200016f949293909291830182828015620001565780601f106200012a5761010080835404028352916020019162000156565b820191906000526020600020905b8154815290600101906020018083116200013857829003601f168201915b5050505050620003ae60201b62000ea81790919060201c565b90620001fc5760405162461bcd60e51b81526004018080602001828103825283818151815260200191508051906020019080838360005b83811015620001c0578181015183820152602001620001a6565b50505050905090810190601f168015620001ee5780820380516001836020036101000a031916815260200191505b509250505060405180910390fd5b5062000213816200046d60201b620010d51760201c565b6040805180820190915260078082526653746f7261676560c81b60209092019182526200024391600091620006b0565b5060025460408051631d74303760e21b8152905162000392926001600160a01b0316916375d0c0dc916004808301926000929190829003018186803b1580156200028c57600080fd5b505afa158015620002a1573d6000803e3d6000fd5b505050506040513d6000823e601f3d908101601f191682016040526020811015620002cb57600080fd5b8101908080516040519392919084640100000000821115620002ec57600080fd5b9083019060208201858111156200030257600080fd5b82516401000000008111828201881017156200031d57600080fd5b82525081516020918201929091019080838360005b838110156200034c57818101518382015260200162000332565b50505050905090810190601f1680156200037a5780820380516001836020036101000a031916815260200191505b50604052505050620006a960201b620012f01760201c565b6003819055620003ab576636b0b730b3b2b960c91b6003555b50565b606082826040516020018083805190602001908083835b60208310620003e65780518252601f199092019160209182019101620003c5565b51815160209384036101000a600019018019909216911617905285519190930192850191508083835b60208310620004305780518252601f1990920191602091820191016200040f565b6001836020036101000a03801982511681845116808217855250505050505090500192505050604051602081830303815290604052905092915050565b60018054604080518082018252601981527f3a2063616c6c6572206973206e6f7420746865206f776e657200000000000000602080830191909152600080548451600261010098831615989098026000190190911696909604601f81018390048302870183019094528386526001600160a01b039094163314946200051a949293909291830182828015620001565780601f106200012a5761010080835404028352916020019162000156565b90620005695760405162461bcd60e51b8152602060048201818152835160248401528351909283926044909101919085019080838360008315620001c0578181015183820152602001620001a6565b5060006001600160a01b0316816001600160a01b03161415620005fd60405180606001604052806021815260200162001b6d602191396000805460408051602060026001851615610100026000190190941693909304601f81018490048402820184019092528181529291830182828015620001565780601f106200012a5761010080835404028352916020019162000156565b906200064c5760405162461bcd60e51b8152602060048201818152835160248401528351909283926044909101919085019080838360008315620001c0578181015183820152602001620001a6565b506002546040516001600160a01b038084169216907f605c2dbf762e5f7d60a546d42e7205dcb1b011ebc62a61736a57c9089d3a435090600090a3600280546001600160a01b0319166001600160a01b0392909216919091179055565b6020015190565b828054600181600116156101000203166002900490600052602060002090601f016020900481019282601f10620006f357805160ff191683800117855562000723565b8280016001018555821562000723579182015b828111156200072357825182559160200191906001019062000706565b506200073192915062000735565b5090565b6200075291905b808211156200073157600081556001016200073c565b90565b61140880620007656000396000f3fe608060405234801561001057600080fd5b50600436106100995760003560e01c80630af4187d1461009e57806313af4035146100de578063182505f014610106578063481c6a75146101905780636c56a628146101b457806375d0c0dc146101e65780638da5cb5b14610263578063d058405c1461026b578063d0ebdbe71461029d578063da46098c146102c3578063e0244035146102f9575b600080fd5b6100cc600480360360408110156100b457600080fd5b506001600160a01b0381358116916020013516610325565b60408051918252519081900360200190f35b610104600480360360208110156100f457600080fd5b50356001600160a01b0316610350565b005b6100cc6004803603608081101561011c57600080fd5b8135916001600160a01b036020820135169160408201359190810190608081016060820135600160201b81111561015257600080fd5b82018360208201111561016457600080fd5b803590602001918460018302840111600160201b8311171561018557600080fd5b5090925090506105f8565b6101986107e7565b604080516001600160a01b039092168252519081900360200190f35b6100cc600480360360608110156101ca57600080fd5b508035906001600160a01b0360208201351690604001356107f6565b6101ee610948565b6040805160208082528351818301528351919283929083019185019080838360005b83811015610228578181015183820152602001610210565b50505050905090810190601f1680156102555780820380516001836020036101000a031916815260200191505b509250505060405180910390f35b6101986109d6565b6101046004803603606081101561028157600080fd5b508035906001600160a01b0360208201351690604001356109e5565b610104600480360360208110156102b357600080fd5b50356001600160a01b0316610af9565b610104600480360360608110156102d957600080fd5b506001600160a01b03813581169160208101359091169060400135610d66565b6100cc6004803603604081101561030f57600080fd5b50803590602001356001600160a01b0316610e80565b6001600160a01b03918216600090815260056020908152604080832093909416825291909152205490565b6001805460408051808201825260198152600080516020611393833981519152602080830191909152600080548451600261010098831615989098026000190190911696909604601f81018390048302870183019094528386526001600160a01b039094163314946104259492939092918301828280156104125780601f106103e757610100808354040283529160200191610412565b820191906000526020600020905b8154815290600101906020018083116103f557829003601f168201915b5050505050610ea890919063ffffffff16565b906104ae5760405162461bcd60e51b81526004018080602001828103825283818151815260200191508051906020019080838360005b8381101561047357818101518382015260200161045b565b50505050905090810190601f1680156104a05780820380516001836020036101000a031916815260200191505b509250505060405180910390fd5b50604080518082018252601f8082527f3a206e6577206f776e657220697320746865207a65726f206164647265737300602080840191909152600080548551600260001961010060018516150201909216919091049384018390048302810183019095528285526001600160a01b03861615159461054f949390928301828280156104125780601f106103e757610100808354040283529160200191610412565b9061059b5760405162461bcd60e51b815260206004820181815283516024840152835190928392604490910191908501908083836000831561047357818101518382015260200161045b565b506001546040516001600160a01b038084169216907fb532073b38c83145e3e5135377a08bf9aab55bc0fd7c1179cd4fb995d2a5159c90600090a3600180546001600160a01b0319166001600160a01b0392909216919091179055565b60035460028054604080518082018252601481527301d1031b0b63632b91034b9903737ba103a3432960651b6020808301919091526000805484516101006001831615026000190190911696909604601f810183900483028701830190945283865295946001600160a01b039094163314936106d89386928891908301828280156106c45780601f10610699576101008083540402835291602001916106c4565b820191906000526020600020905b8154815290600101906020018083116106a757829003601f168201915b5050505050610f639092919063ffffffff16565b906107245760405162461bcd60e51b815260206004820181815283516024840152835190928392604490910191908501908083836000831561047357818101518382015260200161045b565b506107b48585858080601f016020809104026020016040519081016040528093929190818152602001838380828437600081840152601f19601f82011690508083019250505050505050600460008b815260200190815260200160002060008a6001600160a01b03166001600160a01b031681526020019081526020016000205461101c9092919063ffffffff16565b6000978852600460209081526040808a206001600160a01b03999099168a52979052959096208590555092949350505050565b6002546001600160a01b031681565b60035460028054604080518082018252601481527301d1031b0b63632b91034b9903737ba103a3432960651b6020808301919091526000805484516101006001831615026000190190911696909604601f810183900483028701830190945283865295946001600160a01b039094163314936108979386928891908301828280156106c45780601f10610699576101008083540402835291602001916106c4565b906108e35760405162461bcd60e51b815260206004820181815283516024840152835190928392604490910191908501908083836000831561047357818101518382015260200161045b565b5060008581526004602090815260408083206001600160a01b0388168452909152902054610917908463ffffffff61107616565b60009586526004602090815260408088206001600160a01b0397909716885295905293909420839055509092915050565b6000805460408051602060026001851615610100026000190190941693909304601f810184900484028201840190925281815292918301828280156109ce5780601f106109a3576101008083540402835291602001916109ce565b820191906000526020600020905b8154815290600101906020018083116109b157829003601f168201915b505050505081565b6001546001600160a01b031681565b60035460028054604080518082018252601481527301d1031b0b63632b91034b9903737ba103a3432960651b6020808301919091526000805484516101006001831615026000190190911696909604601f81018390048302870183019094528386526001600160a01b03909416331494610a85949293879391928301828280156106c45780601f10610699576101008083540402835291602001916106c4565b90610ad15760405162461bcd60e51b815260206004820181815283516024840152835190928392604490910191908501908083836000831561047357818101518382015260200161045b565b505060009283526004602090815260408085206001600160a01b039094168552929052912055565b6001805460408051808201825260198152600080516020611393833981519152602080830191909152600080548451600261010098831615989098026000190190911696909604601f81018390048302870183019094528386526001600160a01b03909416331494610b909492939092918301828280156104125780601f106103e757610100808354040283529160200191610412565b90610bdc5760405162461bcd60e51b815260206004820181815283516024840152835190928392604490910191908501908083836000831561047357818101518382015260200161045b565b50610be6816110d5565b6040805180820190915260078082526653746f7261676560c81b6020909201918252610c14916000916112f7565b5060025460408051631d74303760e21b81529051610d4b926001600160a01b0316916375d0c0dc916004808301926000929190829003018186803b158015610c5b57600080fd5b505afa158015610c6f573d6000803e3d6000fd5b505050506040513d6000823e601f3d908101601f191682016040526020811015610c9857600080fd5b8101908080516040519392919084600160201b821115610cb757600080fd5b908301906020820185811115610ccc57600080fd5b8251600160201b811182820188101715610ce557600080fd5b82525081516020918201929091019080838360005b83811015610d12578181015183820152602001610cfa565b50505050905090810190601f168015610d3f5780820380516001836020036101000a031916815260200191505b506040525050506112f0565b6003819055610d63576636b0b730b3b2b960c91b6003555b50565b60035460028054604080518082018252601481527301d1031b0b63632b91034b9903737ba103a3432960651b6020808301919091526000805484516101006001831615026000190190911696909604601f81018390048302870183019094528386526001600160a01b03909416331494610e06949293879391928301828280156106c45780601f10610699576101008083540402835291602001916106c4565b90610e525760405162461bcd60e51b815260206004820181815283516024840152835190928392604490910191908501908083836000831561047357818101518382015260200161045b565b50506001600160a01b0392831660009081526005602090815260408083209490951682529290925291902055565b60009182526004602090815260408084206001600160a01b0393909316845291905290205490565b606082826040516020018083805190602001908083835b60208310610ede5780518252601f199092019160209182019101610ebf565b51815160209384036101000a600019018019909216911617905285519190930192850191508083835b60208310610f265780518252601f199092019160209182019101610f07565b6001836020036101000a03801982511681845116808217855250505050505090500192505050604051602081830303815290604052905092915050565b60608383836040516020018084805190602001908083835b60208310610f9a5780518252601f199092019160209182019101610f7b565b51815160209384036101000a600019018019909216911617905286519190930192860191508083835b60208310610fe25780518252601f199092019160209182019101610fc3565b51815160209384036101000a6000190180199092169116179052920193845250604080518085038152939091019052509695505050505050565b6000818484111561106e5760405162461bcd60e51b815260206004820181815283516024840152835190928392604490910191908501908083836000831561047357818101518382015260200161045b565b505050900390565b6000828201838110156110ce576040805162461bcd60e51b815260206004820152601b60248201527a536166654d6174683a206164646974696f6e206f766572666c6f7760281b604482015290519081900360640190fd5b9392505050565b6001805460408051808201825260198152600080516020611393833981519152602080830191909152600080548451600261010098831615989098026000190190911696909604601f81018390048302870183019094528386526001600160a01b0390941633149461116c9492939092918301828280156104125780601f106103e757610100808354040283529160200191610412565b906111b85760405162461bcd60e51b815260206004820181815283516024840152835190928392604490910191908501908083836000831561047357818101518382015260200161045b565b5060006001600160a01b0316816001600160a01b031614156112476040518060600160405280602181526020016113b3602191396000805460408051602060026001851615610100026000190190941693909304601f810184900484028201840190925281815292918301828280156104125780601f106103e757610100808354040283529160200191610412565b906112935760405162461bcd60e51b815260206004820181815283516024840152835190928392604490910191908501908083836000831561047357818101518382015260200161045b565b506002546040516001600160a01b038084169216907f605c2dbf762e5f7d60a546d42e7205dcb1b011ebc62a61736a57c9089d3a435090600090a3600280546001600160a01b0319166001600160a01b0392909216919091179055565b6020015190565b828054600181600116156101000203166002900490600052602060002090601f016020900481019282601f1061133857805160ff1916838001178555611365565b82800160010185558215611365579182015b8281111561136557825182559160200191906001019061134a565b50611371929150611375565b5090565b61138f91905b80821115611371576000815560010161137b565b9056fe3a2063616c6c6572206973206e6f7420746865206f776e6572000000000000003a206e6577206d616e6167657220697320746865207a65726f2061646472657373a265627a7a723158204b81028b107deb46721c0b0381c30913748a6b20ba881684a31e2157da03857c64736f6c634300051100323a206e6577206d616e6167657220697320746865207a65726f2061646472657373",
  "source": "pragma solidity ^0.5.17;\n\nimport './ExternalStorage.sol';\nimport '../interfaces/storages/ITokenStorage.sol';\n\ncontract TokenStorage is ExternalStorage, ITokenStorage {\n    mapping(bytes32 => mapping(address => uint256)) private _storage;\n    mapping(address => mapping(address => uint256)) private _allowances;\n\n    constructor(address _manager) public ExternalStorage(_manager) {}\n\n    function setAllowance(\n        address key,\n        address field,\n        uint256 value\n    ) external onlyManager(managerName) {\n        _allowances[key][field] = value;\n    }\n\n    function getAllowance(address key, address field) external view returns (uint256) {\n        return _allowances[key][field];\n    }\n\n    function incrementUint(\n        bytes32 key,\n        address field,\n        uint256 value\n    ) external onlyManager(managerName) returns (uint256) {\n        _storage[key][field] = _storage[key][field].add(value);\n        return _storage[key][field];\n    }\n\n    function decrementUint(\n        bytes32 key,\n        address field,\n        uint256 value,\n        string calldata errorMessage\n    ) external onlyManager(managerName) returns (uint256) {\n        _storage[key][field] = _storage[key][field].sub(value, errorMessage);\n        return _storage[key][field];\n    }\n\n    function setUint(\n        bytes32 key,\n        address field,\n        uint256 value\n    ) external onlyManager(managerName) {\n        _storage[key][field] = value;\n    }\n\n    function getUint(bytes32 key, address field) external view returns (uint256) {\n        return _storage[key][field];\n    }\n}\n",
  "sourcePath": "/Users/sun/go/src/github.com/Dipper-Labs/DIPSYN/contracts/storages/TokenStorage.sol",
  "compiler": {
    "name": "solc",
    "version": "0.5.17+commit.d19bba13.Emscripten.clang"
  },
  "schemaVersion": "3.3.4",
  "updatedAt": "2021-04-21T06:45:45.943Z",
  "networkType": "ethereum",
  "devdoc": {
    "methods": {}
  },
  "userdoc": {
    "methods": {}
  }
}