{
  "contractName": "TraderStorage",
  "abi": [
    {
      "inputs": [
        {
          "internalType": "address",
          "name": "_manager",
          "type": "address"
        }
      ],
      "payable": false,
      "stateMutability": "nonpayable",
      "type": "constructor"
    },
    {
      "anonymous": false,
      "inputs": [
        {
          "indexed": true,
          "internalType": "address",
          "name": "previousValue",
          "type": "address"
        },
        {
          "indexed": true,
          "internalType": "address",
          "name": "newValue",
          "type": "address"
        }
      ],
      "name": "ManagerChanged",
      "type": "event"
    },
    {
      "anonymous": false,
      "inputs": [
        {
          "indexed": true,
          "internalType": "address",
          "name": "previousValue",
          "type": "address"
        },
        {
          "indexed": true,
          "internalType": "address",
          "name": "newValue",
          "type": "address"
        }
      ],
      "name": "OwnerChanged",
      "type": "event"
    },
    {
      "constant": true,
      "inputs": [],
      "name": "contractName",
      "outputs": [
        {
          "internalType": "string",
          "name": "",
          "type": "string"
        }
      ],
      "payable": false,
      "stateMutability": "view",
      "type": "function"
    },
    {
      "constant": true,
      "inputs": [
        {
          "internalType": "bytes32",
          "name": "asset",
          "type": "bytes32"
        },
        {
          "internalType": "address",
          "name": "account",
          "type": "address"
        },
        {
          "internalType": "uint256",
          "name": "period",
          "type": "uint256"
        }
      ],
      "name": "getClaimed",
      "outputs": [
        {
          "internalType": "uint256",
          "name": "",
          "type": "uint256"
        }
      ],
      "payable": false,
      "stateMutability": "view",
      "type": "function"
    },
    {
      "constant": true,
      "inputs": [
        {
          "internalType": "bytes32",
          "name": "asset",
          "type": "bytes32"
        }
      ],
      "name": "getRewardPercentage",
      "outputs": [
        {
          "internalType": "uint256",
          "name": "",
          "type": "uint256"
        }
      ],
      "payable": false,
      "stateMutability": "view",
      "type": "function"
    },
    {
      "constant": true,
      "inputs": [],
      "name": "manager",
      "outputs": [
        {
          "internalType": "address",
          "name": "",
          "type": "address"
        }
      ],
      "payable": false,
      "stateMutability": "view",
      "type": "function"
    },
    {
      "constant": true,
      "inputs": [],
      "name": "owner",
      "outputs": [
        {
          "internalType": "address",
          "name": "",
          "type": "address"
        }
      ],
      "payable": false,
      "stateMutability": "view",
      "type": "function"
    },
    {
      "constant": false,
      "inputs": [
        {
          "internalType": "bytes32",
          "name": "asset",
          "type": "bytes32"
        },
        {
          "internalType": "address",
          "name": "account",
          "type": "address"
        },
        {
          "internalType": "uint256",
          "name": "period",
          "type": "uint256"
        },
        {
          "internalType": "uint256",
          "name": "amount",
          "type": "uint256"
        }
      ],
      "name": "setClaimed",
      "outputs": [],
      "payable": false,
      "stateMutability": "nonpayable",
      "type": "function"
    },
    {
      "constant": false,
      "inputs": [
        {
          "internalType": "address",
          "name": "_manager",
          "type": "address"
        }
      ],
      "name": "setManager",
      "outputs": [],
      "payable": false,
      "stateMutability": "nonpayable",
      "type": "function"
    },
    {
      "constant": false,
      "inputs": [
        {
          "internalType": "address",
          "name": "_owner",
          "type": "address"
        }
      ],
      "name": "setOwner",
      "outputs": [],
      "payable": false,
      "stateMutability": "nonpayable",
      "type": "function"
    },
    {
      "constant": false,
      "inputs": [
        {
          "internalType": "bytes32",
          "name": "asset",
          "type": "bytes32"
        },
        {
          "internalType": "uint256",
          "name": "percentage",
          "type": "uint256"
        }
      ],
      "name": "setRewardPercentage",
      "outputs": [],
      "payable": false,
      "stateMutability": "nonpayable",
      "type": "function"
    },
    {
      "constant": false,
      "inputs": [
        {
          "internalType": "address",
          "name": "account",
          "type": "address"
        },
        {
          "internalType": "uint256",
          "name": "period",
          "type": "uint256"
        },
        {
          "internalType": "uint256",
          "name": "amount",
          "type": "uint256"
        }
      ],
      "name": "incrementTradingFee",
      "outputs": [
        {
          "internalType": "uint256",
          "name": "",
          "type": "uint256"
        }
      ],
      "payable": false,
      "stateMutability": "nonpayable",
      "type": "function"
    },
    {
      "constant": true,
      "inputs": [
        {
          "internalType": "address",
          "name": "account",
          "type": "address"
        },
        {
          "internalType": "uint256",
          "name": "period",
          "type": "uint256"
        }
      ],
      "name": "getTradingFee",
      "outputs": [
        {
          "internalType": "uint256",
          "name": "",
          "type": "uint256"
        }
      ],
      "payable": false,
      "stateMutability": "view",
      "type": "function"
    }
  ],
  "bytecode": "0x60806040526636b0b730b3b2b960c91b6003553480156200001f57600080fd5b5060405162001a9238038062001a92833981810160405260208110156200004557600080fd5b505160018054336001600160a01b03199182168117909255600280549091169091179055808062000076816200007f565b50505062000757565b60018054604080518082018252601981527f3a2063616c6c6572206973206e6f7420746865206f776e657200000000000000602080830191909152600080548451600261010098831615989098026000190190911696909604601f81018390048302870183019094528386526001600160a01b0390941633149462000171949293909291830182828015620001585780601f106200012c5761010080835404028352916020019162000158565b820191906000526020600020905b8154815290600101906020018083116200013a57829003601f168201915b5050505050620003b060201b62000de41790919060201c565b90620001fe5760405162461bcd60e51b81526004018080602001828103825283818151815260200191508051906020019080838360005b83811015620001c2578181015183820152602001620001a8565b50505050905090810190601f168015620001f05780820380516001836020036101000a031916815260200191505b509250505060405180910390fd5b5062000215816200046f60201b62000fb71760201c565b6040805180820190915260078082526653746f7261676560c81b60209092019182526200024591600091620006b2565b5060025460408051631d74303760e21b8152905162000394926001600160a01b0316916375d0c0dc916004808301926000929190829003018186803b1580156200028e57600080fd5b505afa158015620002a3573d6000803e3d6000fd5b505050506040513d6000823e601f3d908101601f191682016040526020811015620002cd57600080fd5b8101908080516040519392919084640100000000821115620002ee57600080fd5b9083019060208201858111156200030457600080fd5b82516401000000008111828201881017156200031f57600080fd5b82525081516020918201929091019080838360005b838110156200034e57818101518382015260200162000334565b50505050905090810190601f1680156200037c5780820380516001836020036101000a031916815260200191505b50604052505050620006ab60201b620011d21760201c565b6003819055620003ad576636b0b730b3b2b960c91b6003555b50565b606082826040516020018083805190602001908083835b60208310620003e85780518252601f199092019160209182019101620003c7565b51815160209384036101000a600019018019909216911617905285519190930192850191508083835b60208310620004325780518252601f19909201916020918201910162000411565b6001836020036101000a03801982511681845116808217855250505050505090500192505050604051602081830303815290604052905092915050565b60018054604080518082018252601981527f3a2063616c6c6572206973206e6f7420746865206f776e657200000000000000602080830191909152600080548451600261010098831615989098026000190190911696909604601f81018390048302870183019094528386526001600160a01b039094163314946200051c949293909291830182828015620001585780601f106200012c5761010080835404028352916020019162000158565b906200056b5760405162461bcd60e51b8152602060048201818152835160248401528351909283926044909101919085019080838360008315620001c2578181015183820152602001620001a8565b5060006001600160a01b0316816001600160a01b03161415620005ff60405180606001604052806021815260200162001a71602191396000805460408051602060026001851615610100026000190190941693909304601f81018490048402820184019092528181529291830182828015620001585780601f106200012c5761010080835404028352916020019162000158565b906200064e5760405162461bcd60e51b8152602060048201818152835160248401528351909283926044909101919085019080838360008315620001c2578181015183820152602001620001a8565b506002546040516001600160a01b038084169216907f605c2dbf762e5f7d60a546d42e7205dcb1b011ebc62a61736a57c9089d3a435090600090a3600280546001600160a01b0319166001600160a01b0392909216919091179055565b6020015190565b828054600181600116156101000203166002900490600052602060002090601f016020900481019282601f10620006f557805160ff191683800117855562000725565b8280016001018555821562000725579182015b828111156200072557825182559160200191906001019062000708565b506200073392915062000737565b5090565b6200075491905b808211156200073357600081556001016200073e565b90565b61130a80620007676000396000f3fe608060405234801561001057600080fd5b50600436106100995760003560e01c806313af40351461009e57806342653db0146100c6578063481c6a75146101045780636a46d4d11461012857806375d0c0dc14610145578063771c5c53146101c25780638da5cb5b146101fa578063d0ebdbe714610202578063f0f99b5414610228578063f4c32ecc1461025a578063f58bed041461028c575b600080fd5b6100c4600480360360208110156100b457600080fd5b50356001600160a01b03166102af565b005b6100f2600480360360408110156100dc57600080fd5b506001600160a01b038135169060200135610557565b60408051918252519081900360200190f35b61010c61057f565b604080516001600160a01b039092168252519081900360200190f35b6100f26004803603602081101561013e57600080fd5b503561058e565b61014d6105a0565b6040805160208082528351818301528351919283929083019185019080838360005b8381101561018757818101518382015260200161016f565b50505050905090810190601f1680156101b45780820380516001836020036101000a031916815260200191505b509250505060405180910390f35b6100c4600480360360808110156101d857600080fd5b508035906001600160a01b03602082013516906040810135906060013561062e565b61010c61088d565b6100c46004803603602081101561021857600080fd5b50356001600160a01b031661089c565b6100f26004803603606081101561023e57600080fd5b508035906001600160a01b036020820135169060400135610b09565b6100f26004803603606081101561027057600080fd5b506001600160a01b038135169060208101359060400135610b38565b6100c4600480360360408110156102a257600080fd5b5080359060200135610ce4565b6001805460408051808201825260198152600080516020611275833981519152602080830191909152600080548451600261010098831615989098026000190190911696909604601f81018390048302870183019094528386526001600160a01b039094163314946103849492939092918301828280156103715780601f1061034657610100808354040283529160200191610371565b820191906000526020600020905b81548152906001019060200180831161035457829003601f168201915b5050505050610de490919063ffffffff16565b9061040d5760405162461bcd60e51b81526004018080602001828103825283818151815260200191508051906020019080838360005b838110156103d25781810151838201526020016103ba565b50505050905090810190601f1680156103ff5780820380516001836020036101000a031916815260200191505b509250505060405180910390fd5b50604080518082018252601f8082527f3a206e6577206f776e657220697320746865207a65726f206164647265737300602080840191909152600080548551600260001961010060018516150201909216919091049384018390048302810183019095528285526001600160a01b0386161515946104ae949390928301828280156103715780601f1061034657610100808354040283529160200191610371565b906104fa5760405162461bcd60e51b81526020600482018181528351602484015283519092839260449091019190850190808383600083156103d25781810151838201526020016103ba565b506001546040516001600160a01b038084169216907fb532073b38c83145e3e5135377a08bf9aab55bc0fd7c1179cd4fb995d2a5159c90600090a3600180546001600160a01b0319166001600160a01b0392909216919091179055565b6001600160a01b03919091166000908152600660209081526040808320938352929052205490565b6002546001600160a01b031681565b60009081526004602052604090205490565b6000805460408051602060026001851615610100026000190190941693909304601f810184900484028201840190925281815292918301828280156106265780601f106105fb57610100808354040283529160200191610626565b820191906000526020600020905b81548152906001019060200180831161060957829003601f168201915b505050505081565b60035460028054604080518082018252601481527301d1031b0b63632b91034b9903737ba103a3432960651b6020808301919091526000805484516101006001831615026000190190911696909604601f81018390048302870183019094528386526001600160a01b0390941633149461070d949293879391928301828280156106f95780601f106106ce576101008083540402835291602001916106f9565b820191906000526020600020905b8154815290600101906020018083116106dc57829003601f168201915b5050505050610e9f9092919063ffffffff16565b906107595760405162461bcd60e51b81526020600482018181528351602484015283519092839260449091019190850190808383600083156103d25781810151838201526020016103ba565b5060008581526005602090815260408083206001600160a01b03881684528252808320868452909152902054156107d7576040805162461bcd60e51b815260206004820152601f60248201527f5265776172647353746f726167653a20616c726561647920636c61696d656400604482015290519081900360640190fd5b60008581526005602090815260408083206001600160a01b03881684528252808320868452909152902054610812908363ffffffff610f5816565b60008681526005602090815260408083206001600160a01b038916845280835281842088855283528184209490945582805292815282822086835290522054610861908363ffffffff610f5816565b600095865260056020908152604080882088805282528088209588529490529290942091909155505050565b6001546001600160a01b031681565b6001805460408051808201825260198152600080516020611275833981519152602080830191909152600080548451600261010098831615989098026000190190911696909604601f81018390048302870183019094528386526001600160a01b039094163314946109339492939092918301828280156103715780601f1061034657610100808354040283529160200191610371565b9061097f5760405162461bcd60e51b81526020600482018181528351602484015283519092839260449091019190850190808383600083156103d25781810151838201526020016103ba565b5061098981610fb7565b6040805180820190915260078082526653746f7261676560c81b60209092019182526109b7916000916111d9565b5060025460408051631d74303760e21b81529051610aee926001600160a01b0316916375d0c0dc916004808301926000929190829003018186803b1580156109fe57600080fd5b505afa158015610a12573d6000803e3d6000fd5b505050506040513d6000823e601f3d908101601f191682016040526020811015610a3b57600080fd5b8101908080516040519392919084600160201b821115610a5a57600080fd5b908301906020820185811115610a6f57600080fd5b8251600160201b811182820188101715610a8857600080fd5b82525081516020918201929091019080838360005b83811015610ab5578181015183820152602001610a9d565b50505050905090810190601f168015610ae25780820380516001836020036101000a031916815260200191505b506040525050506111d2565b6003819055610b06576636b0b730b3b2b960c91b6003555b50565b60009283526005602090815260408085206001600160a01b039490941685529281528284209184525290205490565b60035460028054604080518082018252601481527301d1031b0b63632b91034b9903737ba103a3432960651b6020808301919091526000805484516101006001831615026000190190911696909604601f810183900483028701830190945283865295946001600160a01b03909416331493610bd99386928891908301828280156106f95780601f106106ce576101008083540402835291602001916106f9565b90610c255760405162461bcd60e51b81526020600482018181528351602484015283519092839260449091019190850190808383600083156103d25781810151838201526020016103ba565b506001600160a01b0385166000908152600660209081526040808320878452909152902054610c5a908463ffffffff610f5816565b6001600160a01b03861660009081526006602090815260408083208884528252808320939093556000805160206112b683398151915290522054610c9e9084610f58565b60008581526000805160206112b683398151915260209081526040808320939093556001600160a01b038816825260068152828220878352905220549150509392505050565b60035460028054604080518082018252601481527301d1031b0b63632b91034b9903737ba103a3432960651b6020808301919091526000805484516101006001831615026000190190911696909604601f81018390048302870183019094528386526001600160a01b03909416331494610d84949293879391928301828280156106f95780601f106106ce576101008083540402835291602001916106f9565b90610dd05760405162461bcd60e51b81526020600482018181528351602484015283519092839260449091019190850190808383600083156103d25781810151838201526020016103ba565b505060009182526004602052604090912055565b606082826040516020018083805190602001908083835b60208310610e1a5780518252601f199092019160209182019101610dfb565b51815160209384036101000a600019018019909216911617905285519190930192850191508083835b60208310610e625780518252601f199092019160209182019101610e43565b6001836020036101000a03801982511681845116808217855250505050505090500192505050604051602081830303815290604052905092915050565b60608383836040516020018084805190602001908083835b60208310610ed65780518252601f199092019160209182019101610eb7565b51815160209384036101000a600019018019909216911617905286519190930192860191508083835b60208310610f1e5780518252601f199092019160209182019101610eff565b51815160209384036101000a6000190180199092169116179052920193845250604080518085038152939091019052509695505050505050565b600082820183811015610fb0576040805162461bcd60e51b815260206004820152601b60248201527a536166654d6174683a206164646974696f6e206f766572666c6f7760281b604482015290519081900360640190fd5b9392505050565b6001805460408051808201825260198152600080516020611275833981519152602080830191909152600080548451600261010098831615989098026000190190911696909604601f81018390048302870183019094528386526001600160a01b0390941633149461104e9492939092918301828280156103715780601f1061034657610100808354040283529160200191610371565b9061109a5760405162461bcd60e51b81526020600482018181528351602484015283519092839260449091019190850190808383600083156103d25781810151838201526020016103ba565b5060006001600160a01b0316816001600160a01b03161415611129604051806060016040528060218152602001611295602191396000805460408051602060026001851615610100026000190190941693909304601f810184900484028201840190925281815292918301828280156103715780601f1061034657610100808354040283529160200191610371565b906111755760405162461bcd60e51b81526020600482018181528351602484015283519092839260449091019190850190808383600083156103d25781810151838201526020016103ba565b506002546040516001600160a01b038084169216907f605c2dbf762e5f7d60a546d42e7205dcb1b011ebc62a61736a57c9089d3a435090600090a3600280546001600160a01b0319166001600160a01b0392909216919091179055565b6020015190565b828054600181600116156101000203166002900490600052602060002090601f016020900481019282601f1061121a57805160ff1916838001178555611247565b82800160010185558215611247579182015b8281111561124757825182559160200191906001019061122c565b50611253929150611257565b5090565b61127191905b80821115611253576000815560010161125d565b9056fe3a2063616c6c6572206973206e6f7420746865206f776e6572000000000000003a206e6577206d616e6167657220697320746865207a65726f206164647265737354cdd369e4e8a8515e52ca72ec816c2101831ad1f18bf44102ed171459c9b4f8a265627a7a723158206f014db19aadf04658ea645b22da393366a55767938d9eba0f57c8650f56bf7664736f6c634300051100323a206e6577206d616e6167657220697320746865207a65726f2061646472657373",
  "source": "pragma solidity ^0.5.17;\n\nimport './RewardsStorage.sol';\nimport '../interfaces/storages/ITraderStorage.sol';\n\ncontract TraderStorage is RewardsStorage, ITraderStorage {\n    mapping(address => mapping(uint256 => uint256)) private _storage;\n\n    constructor(address _manager) public RewardsStorage(_manager) {}\n\n    function incrementTradingFee(\n        address account,\n        uint256 period,\n        uint256 amount\n    ) external onlyManager(managerName) returns (uint256) {\n        _storage[account][period] = _storage[account][period].add(amount);\n        _storage[address(0)][period] = _storage[address(0)][period].add(amount);\n        return _storage[account][period];\n    }\n\n    function getTradingFee(address account, uint256 period) external view returns (uint256) {\n        return _storage[account][period];\n    }\n}\n",
  "sourcePath": "/Users/sun/go/src/github.com/Dipper-Labs/DIPSYN/contracts/storages/TraderStorage.sol",
  "compiler": {
    "name": "solc",
    "version": "0.5.17+commit.d19bba13.Emscripten.clang"
  },
  "schemaVersion": "3.3.4",
  "updatedAt": "2021-04-21T06:45:45.945Z",
  "networkType": "ethereum",
  "devdoc": {
    "methods": {}
  },
  "userdoc": {
    "methods": {}
  }
}