{
  "contractName": "Trader",
  "abi": [
    {
      "inputs": [
        {
          "internalType": "contract IResolver",
          "name": "_resolver",
          "type": "address"
        }
      ],
      "payable": false,
      "stateMutability": "nonpayable",
      "type": "constructor"
    },
    {
      "anonymous": false,
      "inputs": [
        {
          "indexed": true,
          "internalType": "address",
          "name": "previousValue",
          "type": "address"
        },
        {
          "indexed": true,
          "internalType": "address",
          "name": "newValue",
          "type": "address"
        }
      ],
      "name": "ManagerChanged",
      "type": "event"
    },
    {
      "anonymous": false,
      "inputs": [
        {
          "indexed": true,
          "internalType": "address",
          "name": "previousValue",
          "type": "address"
        },
        {
          "indexed": true,
          "internalType": "address",
          "name": "newValue",
          "type": "address"
        }
      ],
      "name": "OwnerChanged",
      "type": "event"
    },
    {
      "anonymous": false,
      "inputs": [
        {
          "indexed": true,
          "internalType": "bytes32",
          "name": "asset",
          "type": "bytes32"
        },
        {
          "indexed": false,
          "internalType": "uint256",
          "name": "previousValue",
          "type": "uint256"
        },
        {
          "indexed": false,
          "internalType": "uint256",
          "name": "newValue",
          "type": "uint256"
        }
      ],
      "name": "RewardPercentageChanged",
      "type": "event"
    },
    {
      "anonymous": false,
      "inputs": [
        {
          "indexed": true,
          "internalType": "address",
          "name": "previousValue",
          "type": "address"
        },
        {
          "indexed": true,
          "internalType": "address",
          "name": "newValue",
          "type": "address"
        }
      ],
      "name": "StorageChanged",
      "type": "event"
    },
    {
      "constant": true,
      "inputs": [],
      "name": "FEE_ADDRESS",
      "outputs": [
        {
          "internalType": "address",
          "name": "",
          "type": "address"
        }
      ],
      "payable": false,
      "stateMutability": "view",
      "type": "function"
    },
    {
      "constant": false,
      "inputs": [
        {
          "internalType": "bytes32",
          "name": "name",
          "type": "bytes32"
        }
      ],
      "name": "addAddress",
      "outputs": [],
      "payable": false,
      "stateMutability": "nonpayable",
      "type": "function"
    },
    {
      "constant": true,
      "inputs": [],
      "name": "contractName",
      "outputs": [
        {
          "internalType": "string",
          "name": "",
          "type": "string"
        }
      ],
      "payable": false,
      "stateMutability": "view",
      "type": "function"
    },
    {
      "constant": true,
      "inputs": [
        {
          "internalType": "bytes32",
          "name": "name",
          "type": "bytes32"
        }
      ],
      "name": "getAddress",
      "outputs": [
        {
          "internalType": "address",
          "name": "",
          "type": "address"
        }
      ],
      "payable": false,
      "stateMutability": "view",
      "type": "function"
    },
    {
      "constant": true,
      "inputs": [
        {
          "internalType": "bytes32",
          "name": "asset",
          "type": "bytes32"
        },
        {
          "internalType": "address",
          "name": "account",
          "type": "address"
        },
        {
          "internalType": "uint256",
          "name": "period",
          "type": "uint256"
        }
      ],
      "name": "getClaimed",
      "outputs": [
        {
          "internalType": "uint256",
          "name": "",
          "type": "uint256"
        }
      ],
      "payable": false,
      "stateMutability": "view",
      "type": "function"
    },
    {
      "constant": true,
      "inputs": [],
      "name": "getImports",
      "outputs": [
        {
          "internalType": "bytes32[]",
          "name": "",
          "type": "bytes32[]"
        }
      ],
      "payable": false,
      "stateMutability": "view",
      "type": "function"
    },
    {
      "constant": true,
      "inputs": [
        {
          "internalType": "bytes32",
          "name": "asset",
          "type": "bytes32"
        }
      ],
      "name": "getRewardPercentage",
      "outputs": [
        {
          "internalType": "uint256",
          "name": "",
          "type": "uint256"
        }
      ],
      "payable": false,
      "stateMutability": "view",
      "type": "function"
    },
    {
      "constant": true,
      "inputs": [],
      "name": "getStorage",
      "outputs": [
        {
          "internalType": "address",
          "name": "",
          "type": "address"
        }
      ],
      "payable": false,
      "stateMutability": "view",
      "type": "function"
    },
    {
      "constant": true,
      "inputs": [],
      "name": "manager",
      "outputs": [
        {
          "internalType": "address",
          "name": "",
          "type": "address"
        }
      ],
      "payable": false,
      "stateMutability": "view",
      "type": "function"
    },
    {
      "constant": true,
      "inputs": [],
      "name": "owner",
      "outputs": [
        {
          "internalType": "address",
          "name": "",
          "type": "address"
        }
      ],
      "payable": false,
      "stateMutability": "view",
      "type": "function"
    },
    {
      "constant": false,
      "inputs": [],
      "name": "refreshCache",
      "outputs": [],
      "payable": false,
      "stateMutability": "nonpayable",
      "type": "function"
    },
    {
      "constant": true,
      "inputs": [],
      "name": "resolver",
      "outputs": [
        {
          "internalType": "contract IResolver",
          "name": "",
          "type": "address"
        }
      ],
      "payable": false,
      "stateMutability": "view",
      "type": "function"
    },
    {
      "constant": false,
      "inputs": [
        {
          "internalType": "address",
          "name": "_manager",
          "type": "address"
        }
      ],
      "name": "setManager",
      "outputs": [],
      "payable": false,
      "stateMutability": "nonpayable",
      "type": "function"
    },
    {
      "constant": false,
      "inputs": [
        {
          "internalType": "address",
          "name": "_owner",
          "type": "address"
        }
      ],
      "name": "setOwner",
      "outputs": [],
      "payable": false,
      "stateMutability": "nonpayable",
      "type": "function"
    },
    {
      "constant": false,
      "inputs": [
        {
          "internalType": "bytes32",
          "name": "asset",
          "type": "bytes32"
        },
        {
          "internalType": "uint256",
          "name": "percentage",
          "type": "uint256"
        }
      ],
      "name": "setRewardPercentage",
      "outputs": [],
      "payable": false,
      "stateMutability": "nonpayable",
      "type": "function"
    },
    {
      "constant": false,
      "inputs": [
        {
          "internalType": "address",
          "name": "value",
          "type": "address"
        }
      ],
      "name": "setStorage",
      "outputs": [],
      "payable": false,
      "stateMutability": "nonpayable",
      "type": "function"
    },
    {
      "constant": false,
      "inputs": [
        {
          "internalType": "address",
          "name": "account",
          "type": "address"
        },
        {
          "internalType": "bytes32",
          "name": "fromSynth",
          "type": "bytes32"
        },
        {
          "internalType": "uint256",
          "name": "fromAmount",
          "type": "uint256"
        },
        {
          "internalType": "bytes32",
          "name": "toSynth",
          "type": "bytes32"
        }
      ],
      "name": "trade",
      "outputs": [
        {
          "internalType": "uint256",
          "name": "tradingAmount",
          "type": "uint256"
        },
        {
          "internalType": "uint256",
          "name": "tradingFee",
          "type": "uint256"
        },
        {
          "internalType": "uint256",
          "name": "fromSynthPrice",
          "type": "uint256"
        },
        {
          "internalType": "uint256",
          "name": "toSynthPirce",
          "type": "uint256"
        }
      ],
      "payable": false,
      "stateMutability": "nonpayable",
      "type": "function"
    },
    {
      "constant": true,
      "inputs": [
        {
          "internalType": "bytes32",
          "name": "fromSynth",
          "type": "bytes32"
        },
        {
          "internalType": "uint256",
          "name": "fromAmount",
          "type": "uint256"
        },
        {
          "internalType": "bytes32",
          "name": "toSynth",
          "type": "bytes32"
        }
      ],
      "name": "getTradingAmountAndFee",
      "outputs": [
        {
          "internalType": "uint256",
          "name": "tradingAmount",
          "type": "uint256"
        },
        {
          "internalType": "uint256",
          "name": "tradingFee",
          "type": "uint256"
        },
        {
          "internalType": "uint256",
          "name": "fromSynthPrice",
          "type": "uint256"
        },
        {
          "internalType": "uint256",
          "name": "toSynthPirce",
          "type": "uint256"
        },
        {
          "internalType": "uint256",
          "name": "fromStatus",
          "type": "uint256"
        },
        {
          "internalType": "uint256",
          "name": "toStatus",
          "type": "uint256"
        }
      ],
      "payable": false,
      "stateMutability": "view",
      "type": "function"
    },
    {
      "constant": true,
      "inputs": [
        {
          "internalType": "bytes32",
          "name": "fromSynth",
          "type": "bytes32"
        },
        {
          "internalType": "bytes32",
          "name": "toSynth",
          "type": "bytes32"
        },
        {
          "internalType": "uint256",
          "name": "toAmount",
          "type": "uint256"
        }
      ],
      "name": "getTradingAmountAndFee",
      "outputs": [
        {
          "internalType": "uint256",
          "name": "tradingAmount",
          "type": "uint256"
        },
        {
          "internalType": "uint256",
          "name": "tradingFee",
          "type": "uint256"
        },
        {
          "internalType": "uint256",
          "name": "fromSynthPrice",
          "type": "uint256"
        },
        {
          "internalType": "uint256",
          "name": "toSynthPirce",
          "type": "uint256"
        }
      ],
      "payable": false,
      "stateMutability": "view",
      "type": "function"
    },
    {
      "constant": false,
      "inputs": [
        {
          "internalType": "bytes32",
          "name": "asset",
          "type": "bytes32"
        },
        {
          "internalType": "address",
          "name": "account",
          "type": "address"
        }
      ],
      "name": "claim",
      "outputs": [
        {
          "internalType": "uint256",
          "name": "period",
          "type": "uint256"
        },
        {
          "internalType": "uint256",
          "name": "amount",
          "type": "uint256"
        },
        {
          "internalType": "uint256",
          "name": "vestTime",
          "type": "uint256"
        }
      ],
      "payable": false,
      "stateMutability": "nonpayable",
      "type": "function"
    },
    {
      "constant": true,
      "inputs": [
        {
          "internalType": "bytes32",
          "name": "asset",
          "type": "bytes32"
        },
        {
          "internalType": "address",
          "name": "account",
          "type": "address"
        }
      ],
      "name": "getClaimable",
      "outputs": [
        {
          "internalType": "uint256",
          "name": "",
          "type": "uint256"
        }
      ],
      "payable": false,
      "stateMutability": "view",
      "type": "function"
    },
    {
      "constant": true,
      "inputs": [
        {
          "internalType": "address",
          "name": "account",
          "type": "address"
        },
        {
          "internalType": "uint256",
          "name": "period",
          "type": "uint256"
        }
      ],
      "name": "getTradingFee",
      "outputs": [
        {
          "internalType": "uint256",
          "name": "",
          "type": "uint256"
        }
      ],
      "payable": false,
      "stateMutability": "view",
      "type": "function"
    }
  ],
  "bytecode": "0x60806040523480156200001157600080fd5b5060405162002f6b38038062002f6b833981810160405260208110156200003757600080fd5b505160018054336001600160a01b03199182168117909255600280548216909217909155600380549091166001600160a01b03831617905562000083652a3930b232b960d11b62000112565b6040518060c00160405280650a6f2dce8d0f60d31b81526020016d537570706c795363686564756c6560901b81526020016524b9b9bab2b960d11b81526020016653657474696e6760c81b8152602001694173736574507269636560b01b81526020016a29bcb73a343c2a37b5b2b760a91b81525060049060066200010a92919062000143565b505062000225565b60408051602080820184905282518083038201815291830190925280516200013f92600092019062000193565b5050565b82805482825590600052602060002090810192821562000181579160200282015b828111156200018157825182559160200191906001019062000164565b506200018f92915062000205565b5090565b828054600181600116156101000203166002900490600052602060002090601f016020900481019282601f10620001d657805160ff191683800117855562000181565b828001600101855582156200018157918201828111156200018157825182559160200191906001019062000164565b6200022291905b808211156200018f57600081556001016200020c565b90565b612d3680620002356000396000f3fe608060405234801561001057600080fd5b50600436106101125760003560e01c806304f3bcec14610117578063126779c21461013b57806313af4035146101935780631ae73032146101bb57806321f8a721146102175780633408f73a1461023457806342653db01461023c578063481c6a751461027a5780636a46d4d1146102825780636f5531c51461029f57806375d0c0dc146102cb5780638aed3c32146103485780638da5cb5b146103655780639137c1a71461036d57806396c144f014610393578063aa378744146103dd578063b2d3aec91461042c578063d0ebdbe714610464578063d5c2c8ca1461048a578063eb1edd6114610492578063f0f99b541461049a578063f58bed04146104cc575b600080fd5b61011f6104ef565b604080516001600160a01b039092168252519081900360200190f35b6101436104fe565b60408051602080825283518183015283519192839290830191858101910280838360005b8381101561017f578181015183820152602001610167565b505050509050019250505060405180910390f35b6101b9600480360360208110156101a957600080fd5b50356001600160a01b0316610556565b005b6101e4600480360360608110156101d157600080fd5b50803590602081013590604001356107fe565b604080519687526020870195909552858501939093526060850191909152608084015260a0830152519081900360c00190f35b61011f6004803603602081101561022d57600080fd5b50356109d7565b61011f6109f5565b6102686004803603604081101561025257600080fd5b506001600160a01b038135169060200135610aeb565b60408051918252519081900360200190f35b61011f610b87565b6102686004803603602081101561029857600080fd5b5035610b96565b610268600480360360408110156102b557600080fd5b50803590602001356001600160a01b0316610c15565b6102d3610e17565b6040805160208082528351818301528351919283929083019185019080838360005b8381101561030d5781810151838201526020016102f5565b50505050905090810190601f16801561033a5780820380516001836020036101000a031916815260200191505b509250505060405180910390f35b6101b96004803603602081101561035e57600080fd5b5035610ea5565b61011f61105e565b6101b96004803603602081101561038357600080fd5b50356001600160a01b031661106d565b6103bf600480360360408110156103a957600080fd5b50803590602001356001600160a01b03166111ad565b60408051938452602084019290925282820152519081900360600190f35b610406600480360360608110156103f357600080fd5b50803590602081013590604001356113b1565b604080519485526020850193909352838301919091526060830152519081900360800190f35b6104066004803603608081101561044257600080fd5b506001600160a01b038135169060208101359060408101359060600135611594565b6101b96004803603602081101561047a57600080fd5b50356001600160a01b03166119bb565b6101b9611bd6565b61011f611d8f565b610268600480360360608110156104b057600080fd5b508035906001600160a01b036020820135169060400135611da7565b6101b9600480360360408110156104e257600080fd5b5080359060200135611e4c565b6003546001600160a01b031681565b6060600480548060200260200160405190810160405280929190818152602001828054801561054c57602002820191906000526020600020905b815481526020019060010190808311610538575b5050505050905090565b6001805460408051808201825260198152600080516020612c23833981519152602080830191909152600080548451600261010098831615989098026000190190911696909604601f81018390048302870183019094528386526001600160a01b0390941633149461062b9492939092918301828280156106185780601f106105ed57610100808354040283529160200191610618565b820191906000526020600020905b8154815290600101906020018083116105fb57829003601f168201915b50505050506121be90919063ffffffff16565b906106b45760405162461bcd60e51b81526004018080602001828103825283818151815260200191508051906020019080838360005b83811015610679578181015183820152602001610661565b50505050905090810190601f1680156106a65780820380516001836020036101000a031916815260200191505b509250505060405180910390fd5b50604080518082018252601f8082527f3a206e6577206f776e657220697320746865207a65726f206164647265737300602080840191909152600080548551600260001961010060018516150201909216919091049384018390048302810183019095528285526001600160a01b038616151594610755949390928301828280156106185780601f106105ed57610100808354040283529160200191610618565b906107a15760405162461bcd60e51b8152602060048201818152835160248401528351909283926044909101919085019080838360008315610679578181015183820152602001610661565b506001546040516001600160a01b038084169216907fb532073b38c83145e3e5135377a08bf9aab55bc0fd7c1179cd4fb995d2a5159c90600090a3600180546001600160a01b0319166001600160a01b0392909216919091179055565b60008060008060008061080f612279565b6001600160a01b0316633902ca618a6040518263ffffffff1660e01b815260040180828152602001915050604080518083038186803b15801561085157600080fd5b505afa158015610865573d6000803e3d6000fd5b505050506040513d604081101561087b57600080fd5b5080516020909101519094509150610891612279565b6001600160a01b0316633902ca61886040518263ffffffff1660e01b815260040180828152602001915050604080518083038186803b1580156108d357600080fd5b505afa1580156108e7573d6000803e3d6000fd5b505050506040513d60408110156108fd57600080fd5b5080516020909101519093509050600061091d898663ffffffff61229616565b90506109a661092a6122ab565b6001600160a01b031663c303fced8a6040518263ffffffff1660e01b81526004018082815260200191505060206040518083038186803b15801561096d57600080fd5b505afa158015610981573d6000803e3d6000fd5b505050506040513d602081101561099757600080fd5b5051829063ffffffff61229616565b95506109c8846109bc838963ffffffff6122c016565b9063ffffffff61230216565b96505093975093979195509350565b6000818152600560205260409020546001600160a01b03165b919050565b60065460408051808201825260118152700e8814dd1bdc9859d9481b9bdd081cd95d607a1b60208083019190915260008054845160026101006001841615026000190190921691909104601f810184900484028201840190955284815290946001600160a01b0316151593610a8e93928691908301828280156106185780601f106105ed57610100808354040283529160200191610618565b90610ada5760405162461bcd60e51b8152602060048201818152835160248401528351909283926044909101919085019080838360008315610679578181015183820152602001610661565b50506006546001600160a01b031690565b6000610af5612317565b6001600160a01b03166342653db084846040518363ffffffff1660e01b815260040180836001600160a01b03166001600160a01b031681526020018281526020019250505060206040518083038186803b158015610b5257600080fd5b505afa158015610b66573d6000803e3d6000fd5b505050506040513d6020811015610b7c57600080fd5b505190505b92915050565b6002546001600160a01b031681565b6000610ba0612317565b6001600160a01b0316636a46d4d1836040518263ffffffff1660e01b81526004018082815260200191505060206040518083038186803b158015610be357600080fd5b505afa158015610bf7573d6000803e3d6000fd5b505050506040513d6020811015610c0d57600080fd5b505192915050565b60006229aca760e91b8314610c6d576040805162461bcd60e51b81526020600482015260196024820152782a3930b232b91d1037b7363c9039bab83837b93a399029aca760391b604482015290519081900360640190fd5b6000610c81652a3930b232b960d11b612321565b905080610c92576000915050610b81565b6000610c9c612430565b90506000610cab868684611da7565b1115610cbc57600092505050610b81565b6000610cc6612317565b6001600160a01b03166342653db06000846040518363ffffffff1660e01b815260040180836001600160a01b03166001600160a01b031681526020018281526020019250505060206040518083038186803b158015610d2457600080fd5b505afa158015610d38573d6000803e3d6000fd5b505050506040513d6020811015610d4e57600080fd5b505190506000610d5c612317565b6001600160a01b03166342653db087856040518363ffffffff1660e01b815260040180836001600160a01b03166001600160a01b031681526020018281526020019250505060206040518083038186803b158015610db957600080fd5b505afa158015610dcd573d6000803e3d6000fd5b505050506040513d6020811015610de357600080fd5b505190506000610df9828463ffffffff61230216565b9050610e0b858263ffffffff61229616565b98975050505050505050565b6000805460408051602060026001851615610100026000190190941693909304601f81018490048402820184019092528181529291830182828015610e9d5780601f10610e7257610100808354040283529160200191610e9d565b820191906000526020600020905b815481529060010190602001808311610e8057829003601f168201915b505050505081565b6001805460408051808201825260198152600080516020612c23833981519152602080830191909152600080548451600261010098831615989098026000190190911696909604601f81018390048302870183019094528386526001600160a01b03909416331494610f3c9492939092918301828280156106185780601f106105ed57610100808354040283529160200191610618565b90610f885760405162461bcd60e51b8152602060048201818152835160248401528351909283926044909101919085019080838360008315610679578181015183820152602001610661565b50600354604080516321f8a72160e01b81526004810184905290516001600160a01b03909216916321f8a72191602480820192602092909190829003018186803b158015610fd557600080fd5b505afa158015610fe9573d6000803e3d6000fd5b505050506040513d6020811015610fff57600080fd5b5051600082815260056020526040812080546001600160a01b0319166001600160a01b03909316929092179091556004805460018101825591527f8a35acfbc15ff81a39ae7d344fd709f28e8600b4aa8c65c6b64bfe7fe36bd19b0155565b6001546001600160a01b031681565b6001805460408051808201825260198152600080516020612c23833981519152602080830191909152600080548451600261010098831615989098026000190190911696909604601f81018390048302870183019094528386526001600160a01b039094163314946111049492939092918301828280156106185780601f106105ed57610100808354040283529160200191610618565b906111505760405162461bcd60e51b8152602060048201818152835160248401528351909283926044909101919085019080838360008315610679578181015183820152602001610661565b506006546040516001600160a01b038084169216907f85a70e3ed8a3924b3769cbe4e925987bbd40e8cea31487cbe13bee7b727310a490600090a3600680546001600160a01b0319166001600160a01b0392909216919091179055565b650a6f2dce8d0f60d31b600081815260056020908152600080516020612c9783398151915254604080518082018252601481527301d1031b0b63632b91034b9903737ba103a3432960651b818501528454825160026101006001841615026000190190921691909104601f810186900486028201860190935282815294958695869591946001600160a01b03163314936112ac939286929188918301828280156112985780601f1061126d57610100808354040283529160200191611298565b820191906000526020600020905b81548152906001019060200180831161127b57829003601f168201915b50505050506124c59092919063ffffffff16565b906112f85760405162461bcd60e51b8152602060048201818152835160248401528351909283926044909101919085019080838360008315610679578181015183820152602001610661565b5060006113058787610c15565b905060008111611358576040805162461bcd60e51b81526020600482015260196024820152785472616465723a20636c61696d61626c65206973207a65726f60381b604482015290519081900360640190fd5b6000611362612430565b90506113708888838561257e565b6113a2878361138c6a29bcb73a343c2a37b5b2b760a91b612613565b6001600160a01b0316919063ffffffff61271916565b97909650600095509350505050565b6000806000806113bf612279565b6001600160a01b03166331d98b3f886040518263ffffffff1660e01b81526004018082815260200191505060206040518083038186803b15801561140257600080fd5b505afa158015611416573d6000803e3d6000fd5b505050506040513d602081101561142c57600080fd5b50519150611438612279565b6001600160a01b03166331d98b3f876040518263ffffffff1660e01b81526004018082815260200191505060206040518083038186803b15801561147b57600080fd5b505afa15801561148f573d6000803e3d6000fd5b505050506040513d60208110156114a557600080fd5b5051905060006114bb868363ffffffff61229616565b905060006114c76122ab565b6001600160a01b031663c303fced896040518263ffffffff1660e01b81526004018082815260200191505060206040518083038186803b15801561150a57600080fd5b505afa15801561151e573d6000803e3d6000fd5b505050506040513d602081101561153457600080fd5b50519050600061156261155583611549612770565b9063ffffffff6122c016565b849063ffffffff61230216565b9050611574818363ffffffff61229616565b9550611586818663ffffffff61230216565b965050505093509350935093565b650a6f2dce8d0f60d31b600081815260056020908152600080516020612c9783398151915254604080518082018252601481527301d1031b0b63632b91034b9903737ba103a3432960651b818501528454825160026101006001841615026000190190921691909104601f8101869004860282018601909352828152949586958695869592946001600160a01b0390931633149361165a9390928692909188918301828280156112985780601f1061126d57610100808354040283529160200191611298565b906116a65760405162461bcd60e51b8152602060048201818152835160248401528351909283926044909101919085019080838360008315610679578181015183820152602001610661565b506000806116b58a8a8a6107fe565b949b509299509097509550925090508115611716576040805162461bcd60e51b815260206004820152601c60248201527b5472616465723a2066726f6d53796e7468206973206f66666c696e6560201b604482015290519081900360640190fd5b8015611766576040805162461bcd60e51b815260206004820152601a6024820152795472616465723a20746f53796e7468206973206f66666c696e6560301b604482015290519081900360640190fd5b61176e61277c565b6001600160a01b0316631b7ff9208b8d8c6040518463ffffffff1660e01b815260040180848152602001836001600160a01b03166001600160a01b031681526020018281526020019350505050600060405180830381600087803b1580156117d557600080fd5b505af11580156117e9573d6000803e3d6000fd5b505050506117f561277c565b6001600160a01b03166336d33357898d8a6040518463ffffffff1660e01b815260040180848152602001836001600160a01b03166001600160a01b031681526020018281526020019350505050600060405180830381600087803b15801561185c57600080fd5b505af1158015611870573d6000803e3d6000fd5b5050505061187c61277c565b604080516336d3335760e01b8152631e5554d160e21b6004820152730feefeefeefeefeefeefeefeefeefeefeefeefee60248201526044810189905290516001600160a01b0392909216916336d333579160648082019260009290919082900301818387803b1580156118ee57600080fd5b505af1158015611902573d6000803e3d6000fd5b5050505061190e612317565b6001600160a01b031663f4c32ecc8c611925612790565b896040518463ffffffff1660e01b815260040180846001600160a01b03166001600160a01b031681526020018381526020018281526020019350505050602060405180830381600087803b15801561197c57600080fd5b505af1158015611990573d6000803e3d6000fd5b505050506040513d60208110156119a657600080fd5b50969b959a5093985091965092945050505050565b6001805460408051808201825260198152600080516020612c23833981519152602080830191909152600080548451600261010098831615989098026000190190911696909604601f81018390048302870183019094528386526001600160a01b03909416331494611a529492939092918301828280156106185780601f106105ed57610100808354040283529160200191610618565b90611a9e5760405162461bcd60e51b8152602060048201818152835160248401528351909283926044909101919085019080838360008315610679578181015183820152602001610661565b5060006001600160a01b0316816001600160a01b03161415611b2d604051806060016040528060218152602001612c76602191396000805460408051602060026001851615610100026000190190941693909304601f810184900484028201840190925281815292918301828280156106185780601f106105ed57610100808354040283529160200191610618565b90611b795760405162461bcd60e51b8152602060048201818152835160248401528351909283926044909101919085019080838360008315610679578181015183820152602001610661565b506002546040516001600160a01b038084169216907f605c2dbf762e5f7d60a546d42e7205dcb1b011ebc62a61736a57c9089d3a435090600090a3600280546001600160a01b0319166001600160a01b0392909216919091179055565b6001805460408051808201825260198152600080516020612c23833981519152602080830191909152600080548451600261010098831615989098026000190190911696909604601f81018390048302870183019094528386526001600160a01b03909416331494611c6d9492939092918301828280156106185780601f106105ed57610100808354040283529160200191610618565b90611cb95760405162461bcd60e51b8152602060048201818152835160248401528351909283926044909101919085019080838360008315610679578181015183820152602001610661565b5060005b600454811015611d8c57600060048281548110611cd657fe5b60009182526020918290200154600354604080516321f8a72160e01b81526004810184905290519294506001600160a01b03909116926321f8a72192602480840193829003018186803b158015611d2c57600080fd5b505afa158015611d40573d6000803e3d6000fd5b505050506040513d6020811015611d5657600080fd5b505160009182526005602052604090912080546001600160a01b0319166001600160a01b03909216919091179055600101611cbd565b50565b730feefeefeefeefeefeefeefeefeefeefeefeefee81565b6000611db1612317565b6001600160a01b031663f0f99b548585856040518463ffffffff1660e01b815260040180848152602001836001600160a01b03166001600160a01b03168152602001828152602001935050505060206040518083038186803b158015611e1657600080fd5b505afa158015611e2a573d6000803e3d6000fd5b505050506040513d6020811015611e4057600080fd5b505190505b9392505050565b6001805460408051808201825260198152600080516020612c23833981519152602080830191909152600080548451600261010098831615989098026000190190911696909604601f81018390048302870183019094528386526001600160a01b03909416331494611ee39492939092918301828280156106185780601f106105ed57610100808354040283529160200191610618565b90611f2f5760405162461bcd60e51b8152602060048201818152835160248401528351909283926044909101919085019080838360008315610679578181015183820152602001610661565b506000611f3a612317565b6001600160a01b0316636a46d4d164151bdd185b60da1b6040518263ffffffff1660e01b81526004018082815260200191505060206040518083038186803b158015611f8557600080fd5b505afa158015611f99573d6000803e3d6000fd5b505050506040513d6020811015611faf57600080fd5b505190506000611fbd612317565b6001600160a01b0316636a46d4d1856040518263ffffffff1660e01b81526004018082815260200191505060206040518083038186803b15801561200057600080fd5b505afa158015612014573d6000803e3d6000fd5b505050506040513d602081101561202a57600080fd5b50519050600061205084612044858563ffffffff6122c016565b9063ffffffff61280316565b905061205a612770565b8111156120985760405162461bcd60e51b8152600401808060200182810382526033815260200180612c436033913960400191505060405180910390fd5b6120a0612317565b6001600160a01b031663f58bed0486866040518363ffffffff1660e01b81526004018083815260200182815260200192505050600060405180830381600087803b1580156120ed57600080fd5b505af1158015612101573d6000803e3d6000fd5b5050505061210d612317565b6001600160a01b031663f58bed0464151bdd185b60da1b836040518363ffffffff1660e01b81526004018083815260200182815260200192505050600060405180830381600087803b15801561216257600080fd5b505af1158015612176573d6000803e3d6000fd5b5050604080518581526020810188905281518994507feb1f8e19a3e5a8c01411c85a9778a20d61d45a82de2076dcc92a5a2b19c6821793509081900390910190a25050505050565b606082826040516020018083805190602001908083835b602083106121f45780518252601f1990920191602091820191016121d5565b51815160209384036101000a600019018019909216911617905285519190930192850191508083835b6020831061223c5780518252601f19909201916020918201910161221d565b6001836020036101000a03801982511681845116808217855250505050505090500192505050604051602081830303815290604052905092915050565b6000612291694173736574507269636560b01b612613565b905090565b6000611e458383670de0b6b3a764000061285b565b60006122916653657474696e6760c81b612613565b6000611e4583836040518060400160405280601e81526020017f536166654d6174683a207375627472616374696f6e206f766572666c6f770000815250612896565b6000611e458383670de0b6b3a76400006128f0565b60006122916109f5565b600061232b612932565b6001600160a01b0316638c4e8c216040518163ffffffff1660e01b815260040160206040518083038186803b15801561236357600080fd5b505afa158015612377573d6000803e3d6000fd5b505050506040513d602081101561238d57600080fd5b505142111561239e575060006109f0565b60006123a8612430565b90506123b2612932565b6001600160a01b031663dcba23ce84836040518363ffffffff1660e01b8152600401808381526020018281526020019250505060206040518083038186803b1580156123fd57600080fd5b505afa158015612411573d6000803e3d6000fd5b505050506040513d602081101561242757600080fd5b50519392505050565b60008061243b612932565b6001600160a01b031663559c52356040518163ffffffff1660e01b815260040160206040518083038186803b15801561247357600080fd5b505afa158015612487573d6000803e3d6000fd5b505050506040513d602081101561249d57600080fd5b5051905080156124bd576124b881600163ffffffff6122c016565b6124bf565b805b91505090565b60608383836040516020018084805190602001908083835b602083106124fc5780518252601f1990920191602091820191016124dd565b51815160209384036101000a600019018019909216911617905286519190930192860191508083835b602083106125445780518252601f199092019160209182019101612525565b51815160209384036101000a6000190180199092169116179052920193845250604080518085038152939091019052509695505050505050565b612586612317565b6001600160a01b031663771c5c53858585856040518563ffffffff1660e01b815260040180858152602001846001600160a01b03166001600160a01b03168152602001838152602001828152602001945050505050600060405180830381600087803b1580156125f557600080fd5b505af1158015612609573d6000803e3d6000fd5b5050505050505050565b60008181526005602090815260408083205481518083018352600a81526901d1026b4b9b9b4b733960b51b818501528454835160026101006001841615026000190190921691909104601f81018690048602820186019094528381526001600160a01b039092161515936126b0939192879290918791908301828280156112985780601f1061126d57610100808354040283529160200191611298565b906126fc5760405162461bcd60e51b8152602060048201818152835160248401528351909283926044909101919085019080838360008315610679578181015183820152602001610661565b50506000908152600560205260409020546001600160a01b031690565b604080516001600160a01b038416602482015260448082018490528251808303909101815260649091019091526020810180516001600160e01b031663a9059cbb60e01b17905261276b90849061294e565b505050565b670de0b6b3a764000090565b60006122916524b9b9bab2b960d11b612613565b600061279a612932565b6001600160a01b031663060406186040518163ffffffff1660e01b815260040160206040518083038186803b1580156127d257600080fd5b505afa1580156127e6573d6000803e3d6000fd5b505050506040513d60208110156127fc57600080fd5b5051905090565b600082820183811015611e45576040805162461bcd60e51b815260206004820152601b60248201527a536166654d6174683a206164646974696f6e206f766572666c6f7760281b604482015290519081900360640190fd5b6000831580612868575082155b1561287557506000611e45565b81612886858563ffffffff6129ff16565b8161288d57fe5b04949350505050565b600081848411156128e85760405162461bcd60e51b8152602060048201818152835160248401528351909283926044909101919085019080838360008315610679578181015183820152602001610661565b505050900390565b60008315806128fd575082155b1561290a57506000611e45565b61292a8361291e868563ffffffff6129ff16565b9063ffffffff612a5816565b949350505050565b60006122916d537570706c795363686564756c6560901b612613565b60606129a3826040518060400160405280602081526020017f5361666545524332303a206c6f772d6c6576656c2063616c6c206661696c6564815250856001600160a01b0316612a979092919063ffffffff16565b80519091501561276b578080602001905160208110156129c257600080fd5b505161276b5760405162461bcd60e51b815260040180806020018281038252602a815260200180612cd8602a913960400191505060405180910390fd5b600082612a0e57506000610b81565b82820282848281612a1b57fe5b0414611e455760405162461bcd60e51b8152600401808060200182810382526021815260200180612cb76021913960400191505060405180910390fd5b6000611e4583836040518060400160405280601a815260200179536166654d6174683a206469766973696f6e206279207a65726f60301b815250612b58565b606060006060856001600160a01b0316856040518082805190602001908083835b60208310612ad75780518252601f199092019160209182019101612ab8565b6001836020036101000a0380198251168184511680821785525050505050509050019150506000604051808303816000865af19150503d8060008114612b39576040519150601f19603f3d011682016040523d82523d6000602084013e612b3e565b606091505b5091509150612b4e828286612bbd565b9695505050505050565b60008183612ba75760405162461bcd60e51b8152602060048201818152835160248401528351909283926044909101919085019080838360008315610679578181015183820152602001610661565b506000838581612bb357fe5b0495945050505050565b60608315612bcc575081611e45565b8251612c195760405162461bcd60e51b8152602060048201818152845160248401528451859391928392604401919085019080838360008315610679578181015183820152602001610661565b82518084602001fdfe3a2063616c6c6572206973206e6f7420746865206f776e657200000000000000526577617264733a20746f74616c2070657263656e74206d757374206265206e6f2067726561746572207468616e20313030253a206e6577206d616e6167657220697320746865207a65726f2061646472657373f420db0c49eb249cd6dd94b6b96dabd210919bd87c94ecc5fec4a9e1c9775ad5536166654d6174683a206d756c7469706c69636174696f6e206f766572666c6f775361666545524332303a204552433230206f7065726174696f6e20646964206e6f742073756363656564a265627a7a723158206209ab0402eac4ed25bc790503cb459c0b64c20c9fc67d99b24538c4ea25707f64736f6c63430005110032",
  "source": "// SPDX-License-Identifier: MIT\npragma solidity ^0.5.17;\n\nimport './lib/SafeERC20.sol';\nimport './base/Rewards.sol';\nimport './interfaces/ITrader.sol';\nimport './interfaces/storages/ITraderStorage.sol';\nimport './interfaces/IIssuer.sol';\nimport './interfaces/ISetting.sol';\nimport './interfaces/IAssetPrice.sol';\nimport './interfaces/IERC20.sol';\n\ncontract Trader is Rewards, ITrader {\n    using SafeERC20 for IERC20;\n\n    address public constant FEE_ADDRESS = 0x0FeefeefeEFeeFeefeEFEEFEEfEeFEeFeeFeEfEe;\n\n    constructor(IResolver _resolver) public Importable(_resolver) {\n        setContractName(CONTRACT_TRADER);\n        imports = [\n            CONTRACT_SYNTHX,\n            CONTRACT_SUPPLY_SCHEDULE,\n            CONTRACT_ISSUER,\n            CONTRACT_SETTING,\n            CONTRACT_ASSET_PRICE,\n            CONTRACT_SYNTHX_TOKEN\n        ];\n    }\n\n    function Storage() private view returns (ITraderStorage) {\n        return ITraderStorage(getStorage());\n    }\n\n    function Issuer() private view returns (IIssuer) {\n        return IIssuer(requireAddress(CONTRACT_ISSUER));\n    }\n\n    function Setting() private view returns (ISetting) {\n        return ISetting(requireAddress(CONTRACT_SETTING));\n    }\n\n    function AssetPrice() private view returns (IAssetPrice) {\n        return IAssetPrice(requireAddress(CONTRACT_ASSET_PRICE));\n    }\n\n    function trade(\n        address account,\n        bytes32 fromSynth,\n        uint256 fromAmount,\n        bytes32 toSynth\n    )\n        external\n        onlyAddress(CONTRACT_SYNTHX)\n        returns (\n            uint256 tradingAmount,\n            uint256 tradingFee,\n            uint256 fromSynthPrice,\n            uint256 toSynthPirce\n        )\n    {\n        uint256 fromStatus;\n        uint256 toStatus;\n        (tradingAmount, tradingFee, fromSynthPrice, toSynthPirce, fromStatus, toStatus) = getTradingAmountAndFee(\n            fromSynth,\n            fromAmount,\n            toSynth\n        );\n\n        require(fromStatus == 0, 'Trader: fromSynth is offline');\n        require(toStatus == 0, 'Trader: toSynth is offline');\n\n        Issuer().burnSynth(fromSynth, account, fromAmount);\n        Issuer().issueSynth(toSynth, account, tradingAmount);\n        Issuer().issueSynth(USD, FEE_ADDRESS, tradingFee);\n\n        Storage().incrementTradingFee(account, getCurrentPeriod(), tradingFee);\n    }\n\n    function getTradingAmountAndFee(\n        bytes32 fromSynth,\n        uint256 fromAmount,\n        bytes32 toSynth\n    )\n        public\n        view\n        returns (\n            uint256 tradingAmount,\n            uint256 tradingFee,\n            uint256 fromSynthPrice,\n            uint256 toSynthPirce,\n            uint256 fromStatus,\n            uint256 toStatus\n        )\n    {\n        (fromSynthPrice, fromStatus) = AssetPrice().getPriceAndStatus(fromSynth);\n        (toSynthPirce, toStatus) = AssetPrice().getPriceAndStatus(toSynth);\n\n        uint256 fromSynthValue = fromAmount.decimalMultiply(fromSynthPrice);\n        tradingFee = fromSynthValue.decimalMultiply(Setting().getTradingFeeRate(toSynth));\n        tradingAmount = fromSynthValue.sub(tradingFee).decimalDivide(toSynthPirce);\n    }\n\n    function getTradingAmountAndFee(\n        bytes32 fromSynth,\n        bytes32 toSynth,\n        uint256 toAmount\n    )\n        public\n        view\n        returns (\n            uint256 tradingAmount,\n            uint256 tradingFee,\n            uint256 fromSynthPrice,\n            uint256 toSynthPirce\n        )\n    {\n        fromSynthPrice = AssetPrice().getPrice(fromSynth);\n        toSynthPirce = AssetPrice().getPrice(toSynth);\n\n        uint256 toSynthValue = toAmount.decimalMultiply(toSynthPirce);\n        uint256 tradingFeeRate = Setting().getTradingFeeRate(toSynth);\n        uint256 fromSynthValue = toSynthValue.decimalDivide(PreciseMath.DECIMAL_ONE().sub(tradingFeeRate));\n        tradingFee = fromSynthValue.decimalMultiply(tradingFeeRate);\n        tradingAmount = fromSynthValue.decimalDivide(fromSynthPrice);\n    }\n\n    function claim(bytes32 asset, address account)\n        external\n        onlyAddress(CONTRACT_SYNTHX)\n        returns (\n            uint256 period,\n            uint256 amount,\n            uint256 vestTime\n        )\n    {\n        uint256 claimable = getClaimable(asset, account);\n        require(claimable > 0, 'Trader: claimable is zero');\n\n        uint256 claimablePeriod = getClaimablePeriod();\n        setClaimed(asset, account, claimablePeriod, claimable);\n\n        IERC20(requireAddress(CONTRACT_SYNTHX_TOKEN)).safeTransfer(account, claimable);\n\n        return (claimablePeriod, claimable, 0);\n    }\n\n    function getClaimable(bytes32 asset, address account) public view returns (uint256) {\n        require(asset == SYN, 'Trader: only supports SYN');\n\n        uint256 rewards = getRewardSupply(CONTRACT_TRADER);\n        if (rewards == 0) return 0;\n\n        uint256 claimablePeriod = getClaimablePeriod();\n        if (getClaimed(asset, account, claimablePeriod) > 0) return 0;\n\n        uint256 totalTradingFee = Storage().getTradingFee(address(0), claimablePeriod);\n        uint256 accountTradingFee = Storage().getTradingFee(account, claimablePeriod);\n        uint256 percentage = accountTradingFee.decimalDivide(totalTradingFee);\n        return rewards.decimalMultiply(percentage);\n    }\n\n    function getTradingFee(address account, uint256 period) external view returns (uint256) {\n        return Storage().getTradingFee(account, period);\n    }\n}\n",
  "sourcePath": "/Users/sun/go/src/github.com/Dipper-Labs/DIPSYN/contracts/Trader.sol",
  "compiler": {
    "name": "solc",
    "version": "0.5.17+commit.d19bba13.Emscripten.clang"
  },
  "schemaVersion": "3.3.4",
  "updatedAt": "2021-04-21T04:08:14.038Z",
  "devdoc": {
    "methods": {}
  },
  "userdoc": {
    "methods": {}
  }
}